:100000000C94591F0C94AA1F0C94AA1F0C94AA1F9D
:100010000C94AA1F0C94AA1F0C94AA1F0C94AA1F3C
:100020000C94AA1F0C94AA1F0C94EE390C94AA1FCE
:100030000C946C300C94AA1F0C94AA1F0C94AA1F49
:100040000C94AA1F0C94D3340C94AA1F0C94AA1FCE
:100050000C94AA1F0C94AA1F0C94AA1F0C94AA1FFC
:100060000C94AA1F0C94AA1F0C94AA1F0C94AA1FEC
:100070000C94AA1F0C94AA1F0C94AA1F0C94AA1FDC
:100080000C94AA1F0C94AA1F0C94AA1F0C94AA1FCC
:100090000C94AA1F0C94AA1F6927B822BE22E4223E
:1000A000EA22B724BD247C2382235A246024E62438
:1000B000082522253C255125A725E52504272727A6
:1000C0004D270A26272646266B2684269D26BD26F2
:1000D000E226DA3A013BEA3B013BEA3B4C3B6D3B13
:1000E000EA3BC03BCF3B00000000000000000000E6
:1000F0000000000000002A002B0028000000000083
:1001000028000000000000000000000000000000C7
:1001100000000000000000000000000029000000B6
:100120000000000000002C001E0234022002210208
:100130002202240234002602270225022E02360063
:100140002D003700380027001E001F00200021006E
:10015000220023002400250026003302330036024B
:100160002E00370238021F020402050206020702AF
:10017000080209020A020B020C020D020E020F0213
:1001800010021102120213021402150216021702C3
:10019000180219021A021B021C021D022F00310054
:1001A000300023022D023500040005000600070080
:1001B000080009000A000B000C000D000E000F00E3
:1001C0001000110012001300140015001600170093
:1001D000180019001A001B001C001D002F0231021C
:1001E000300235024C00000000000000000000005A
:1001F00000000000000000000000000000000000FF
:1002000000000000000000000000000000000000EE
:1002100000000000000000000000000000000000DE
:1002200000000000000000000000000000000000CE
:1033D000000000000000000000000000FF00FF00EF
:1033E000FF00FF00FF00FF00FF00FF00FF00FF00E5
:1033F000FF00FF00FF00FF00FF00FF00FF00FF00D5
:10340000FF00FF00FF00FF000000000000000000C0
:1034100000000000000000000000000000000000AC
:10342000000000000000000000000000000000009C
:103430000000000000000000080C00000000000078
:10344000000000000000000000000000000000007C
:10345000000000000000000000000000000000006C
:10346000000000000000000000000000000000005C
:10347000000000000000000000000000000000004C
:10348000000000000000000000000000000000003C
:10349000000000000000000000000000000000002C
:1034A000000000000000000000000000000000001C
:1034B000000000000000000000000000000000000C
:1034C00000000000000000000000000000000000FC
:1034D000000000000000000000006530ED323533D0
:1034E00000006530F332722100006530FC329F220B
:1034F000000065300833000000004F7574206F66CF
:103500002072616E67652E0A00456E746572206ECA
:1035100065772064656661756C742064696D6D659E
:1035200072206C6576656C2028312D3136293E205D
:1035300000456E746572206E6577206465666175FE
:103540006C74206261636B6C6967687420656E617E
:10355000626C652028312D3136293E2000456E747D
:103560006572206E65772064656661756C74206293
:1035700061636B6C69676874206D6F6465202831C6
:103580002D34293E2000456E746572206E657720CB
:103590006D617472697820736574757020776169E4
:1035A0007420696E206379636C65732028312D3235
:1035B0003535293E2000456E746572206E65772092
:1035C0007265706561742074696D6520696E206D27
:1035D000732028312D3939293E2000456E746572DB
:1035E000206E657720686F6C642074696D65206952
:1035F0006E206D732028312D393939293E20004540
:103600006E746572206E6577206D6F757365206DC1
:103610006F76656D656E74206D756C7469706C691C
:1036200065722028312D3939293E2000456E746598
:1036300072206E65772062617365206D6F757365AA
:10364000206D6F76656D656E742028312D393929AE
:103650003E2000456E746572206E657720646F753C
:10366000626C657461702064656C61792074696D49
:103670006520696E206D732028312D393939293E36
:103680002000456E746572206E657720746170202D
:1036900074696D6520696E206D732028312D39396C
:1036A00039293E2000456E746572206E657720646E
:1036B00065626F756E63652074696D6520696E2043
:1036C0006D732028312D3939293E20005365743A15
:1036D00000456E746572206E65772064656661755D
:1036E0006C74206C617965722028302D39293E2058
:1036F0000042797465732028686578293E2000416E
:103700006464726573732028686578293E20002000
:10371000532D3078005D20432D3078000A5B005532
:1037200073696E672064656661756C7420226861D8
:103730006972207472696767657222206465626FBE
:10374000756E636520616C676F726974686D206166
:103750006E6420726573657474696E672064656257
:103760006F756E63652074696D652E0A0055736907
:103770006E6720616C7465726E6174652022636F80
:103780006E6669726D22206465626F756E63652076
:10379000616C676F726974686D20616E6420726518
:1037A00073657474696E67206465626F756E6365B6
:1037B0002074696D652E0A004E756D206C6F636B09
:1037C000206973206C696E6B656420746F20746867
:1037D000652073797374656D206E756D206C6F63F1
:1037E0006B2E0A004E756D206C6F636B2077696CD1
:1037F0006C2066756E6374696F6E20696E646570A7
:10380000656E64656E746C79206F662074686520DF
:1038100073797374656D206E756D206C6F636B2E9C
:103820000A004B6579626F6172642077696C6C2065
:10383000757365204E4B524F20696E7465726661D8
:10384000636520696620697420697320656E616212
:103850006C65642E0A004B6579626F617264206941
:1038600073206C696D6974656420746F2073746172
:103870006E6461726420364B524F20626F6F742DFC
:10388000636F6D70617469626C65206B6579626FDE
:10389000617264206F6E6C792E0A005363726F6CD4
:1038A0006C206C6F636B2077696C6C206E6F74207A
:1038B0006166666563742077696E206C6F636B2E3A
:1038C0000A0057696E646F7773206B65792077699A
:1038D0006C6C2062652064697361626C656420773A
:1038E00068656E207363726F6C6C206C6F636B2005
:1038F000697320656E61626C65642E0A004E756D99
:10390000206C6F636B2077696C6C206E6F74206124
:103910006666656374206E756D62657220726F777E
:103920002E0A004E756D62657220726F772077697E
:103930006C6C206265207377617070656420666FBF
:1039400072206E756D706164206B65797320776885
:10395000656E206E756D206C6F636B2069732065DA
:103960006E61626C65642E0A00496E76616C6964F2
:1039700020696E7075742E0A000A4C4544204D650E
:103980006E753A0A31292053657420646566617545
:103990006C742064696D6D6572206C6576656C0A67
:1039A0003229205365742064656661756C742062E9
:1039B00061636B6C6967687420656E61626C650A2F
:1039C0003329205365742064656661756C742062C8
:1039D00061636B6C69676874206D6F64650A39296F
:1039E000204261636B0A3E20000A54696D696E676C
:1039F000204D656E753A0A3129205365742064653F
:103A0000626F756E63652074696D650A3229205393
:103A10006574206D617820686F6C642074696D65D1
:103A200020666F72207461700A33292053657420F8
:103A30006D61782064656C61792074696D652066BC
:103A40006F7220646F75626C65207461700A34292E
:103A5000205365742062617365206D6F75736520F6
:103A60006D6F76656D656E740A3529205365742017
:103A70006D6F757365206D6F76656D656E74206D05
:103A8000756C7469706C6965720A362920536574A7
:103A9000206D696E20686F6C642074696D652066A6
:103AA0006F72207265706561740A372920536574DE
:103AB0002072657065617420706572696F640A3880
:103AC0002920536574206D61747269782073657460
:103AD000757020776169740A3929204261636B0A25
:103AE0003E20000A436F6E666967204D656E753A29
:103AF0000A312920546F67676C6520766972747586
:103B0000616C206E756D207061640A322920546FDB
:103B100067676C652077696E206C6F636B206F6ED2
:103B2000207363726F6C6C206C6F636B0A33292097
:103B30005365742064656661756C74206C61796589
:103B4000720A342920546F67676C65206B6579624F
:103B50006F6172642066656174757265730A3529D8
:103B600020546F67676C6520756E6C696E6B206E94
:103B7000756D206C6F636B0A362920546F67676C14
:103B800065206465626F756E6365207374796C651A
:103B90000A3929204261636B0A3E20000A446562AB
:103BA0007567204D656E753A0A3129205072696E2D
:103BB00074206576656E74730A322920436C6561E2
:103BC00072206576656E74730A3329204578616DBD
:103BD000696E65206D656D6F72790A3429205072A7
:103BE000696E742F636C65617220636C6F636B2DFB
:103BF000696E730A3929204261636B0A3E20000A0C
:103C00004D61696E204D656E753A0A312920436F0A
:103C10006E666967206D656E750A32292054696D7C
:103C2000696E67206D656E750A3329204C45442006
:103C30006D656E750A3429204465627567206D656F
:103C40006E750A35292052657365740A3929205129
:103C50007569740A3E20001E4D1F51204E215022CE
:103C600000234F244A2552264B2749374CB500B62E
:103C700000B700CD006F007000E200E500E900EA47
:103C800000520153015401550183018A01920194AC
:103C9000012102230224022502260227022A02B160
:103CA00001B202B304B408B510E001E102E204E39A
:103CB00008E410E520E640E7800105080A0C0F1033
:103CC0001414181800F0330600013D0601014106E6
:103CD00002013106030138060401400605014206CF
:103CE000060134060701370608013A0609023506BF
:103CF0000B0232060D0139060E013E060F02300698
:103D000011013C0612012E0613012F0614014A036D
:103D10004500610073007900410056005200200008
:103D20004D0075006C00740069006D006500640052
:103D30006900610020004B006500790062006F009F
:103D40006100720064002000760023002E00230032
:103D500023002E00230023000000040309040902AD
:103D60006D00040100A0FA09040000010301010034
:103D70000921B0010001224000070581030800016C
:103D80000904010001030000000921B00100012223
:103D90003200070582030300080904020001030042
:103DA00000000921B0010001222700070583030E4E
:103DB00000010904030001030102000921B0010010
:103DC00001223A00070584030300051201000200E6
:103DD000000008EB03FF20100000010001050C09A2
:103DE00001A1018502160100269C021A01002A9CED
:103DF00002751095018100C005010980A1018503AC
:103E00001981298375019503810695058101C005F6
:103E1000010902A1010901A10005091901290315E0
:103E20000025019503750181029501750581010544
:103E300001093009311681FF267F00360000460057
:103E400000950275088106C0C005010906A101059B
:103E50000719E029E715002501750195088102156C
:103E6000002501050719002967956875018102C0C1
:103E700005010906A101050719E029E7150025013B
:103E800075019508810295017508810105081901E0
:103E9000290595057501910295017503910115009C
:103EA00026FF000507190029FF950675088100C047
:103EB0000F00E7EFF6E085EC90E201C08193EF3F61
:103EC000F907E0F3D9F311241FBECFEFD0E2DEBF34
:103ED000CDBFC4B714BE0FB6F894A895809160000A
:103EE000886180936000109260000FBEC3FF11C014
:103EF0008091F5069091F6068D3A9E4D51F4109200
:103F0000F6061092F506E4ECFCE325913491F901F4
:103F1000099585B7806885BF85B7806885BFC093E0
:103F2000F40611E0A0E0B1E0ECEEFDE700E00BBF2D
:103F300002C007900D92A436B107D9F726E0A4E697
:103F4000B1E001C01D92A037B207E1F70E94703EB8
:103F50000C94F43E0C9400001092720110927101C6
:103F600010926D0110926C0110927B0110927A01F7
:103F700008959091DF048091DA04892B9091D904FF
:103F8000892B9091D804892B20916E01222309F46A
:103F90005FC0811164C080917001811155C0809112
:103FA0008C0181113CC090916701921305C0109261
:103FB0006E01109267010895E92FF0E0EE0FFF1FE8
:103FC000E458FE4F80812181813031F420937001CB
:103FD0009F5F90936701089590916801921731F067
:103FE0002093680181E08093DF04089580938C0121
:103FF000181614F4E0D70DC099E6980F993118F40B
:104000000E94C62806C093E4980F933010F40E94D3
:10401000F528809167018F5F80936701089587FD80
:1040200003C00E9413280DC099E6980F993118F427
:104030000E94DD2806C093E4980F933010F40E948C
:10404000022910928C010895815080937001089587
:10405000811105C080916F018D7F80936F0108955C
:104060008091FD0290916901981731F18093690167
:10407000882311F1883211F0883531F480916F0175
:104080008B7F80936F010895E0916B018A3251F428
:10409000EE2391F0E150E0936B01F0E0ED58FE4F1C
:1040A00010820895E63040F4AE2FB0E0AD58BE4F18
:1040B0008C93EF5FE0936B0108951092680181E0AB
:1040C0008093DF048091FD02811102C010926F0184
:1040D0000895BC0180916E01DB01982F292F281BC8
:1040E000983058F090936E01620F711D27FD7A95FC
:1040F00070937B0160937A0122C0FD012591349178
:10410000211109C090936E0110927B0110927A01E7
:104110009923D1F014C0492F50E0F901FF27EE0F89
:10412000FF1FEA51FF4F25913491440F551FFA01AB
:10413000E458FE4F318320839F5F1196CFCF80914B
:104140006F01836080936F0181E0089540916E015B
:1041500028E030E0241B31092617370758F1B0E07A
:104160004B2F0B2E000C550B46175707D8F4A09178
:104170006E012A2F30E0FC01E40FF51FE081F0E032
:10418000EE0FFF1FEA51FF4F45915491220F331F4D
:10419000F901E458FE4F51834083AF5FA0936E0155
:1041A000BF5FDECF672B41F080916F01836080930A
:1041B0006F0102C080E0089581E0089590916E0142
:1041C000983090F4E92FF0E0EE0FFF1FE458FE4F17
:1041D000808361839F5F90936E0180916F01836004
:1041E00080936F0181E0089580E008959C01909193
:1041F0006E0191112EC0A901983049F490936E017F
:10420000205F3F4F30937201209371011BC0FA0170
:10421000659174914E5F5F4F6115710549F49093FC
:104220006E011092720110927101992381F00AC0FF
:10423000E92FF0E0EE0FFF1FE458FE4F718360831B
:104240009F5FDACF80916F01836080936F0181E07F
:10425000089580E00895AC0180916E0181113EC007
:1042600060937901282F082E000C330B261737078F
:1042700058F590916E01220F331F983038F0240FBB
:10428000351F30936D0120936C011EC0FA01E20FBF
:10429000F31F20813181E92FF0E0EE0FFF1FE4587A
:1042A000FE4F318320839F5F90936E01909179013F
:1042B000915090937901911105C010926D01109267
:1042C0006C0102C08F5FCECF80916E01882341F0D8
:1042D00080916F01836080936F0102C080E0089538
:1042E00081E0089590916F01992329F191FD41CECC
:1042F00020917101309172012115310511F0C90130
:1043000075CF20916C0130916D012115310539F087
:1043100060917901062E000C770BC9019CCF20918A
:104320007A0130917B012115310511F0C901D1CEFF
:1043300092FD96CEC2CE0895E3E7F1E0108211829D
:10434000128213821482158210926B018091FD02F9
:104350008093690180916F01856080936F0108955A
:1043600008959091C301903178F4E92FF0E09F0116
:10437000220F331FE20FF31FE257FE4F8083728339
:1043800061839F5F9093C301089541111BC04091C9
:10439000C30150E090E0292F092E000C330B2417A5
:1043A000350784F4F901EE0FFF1F2E0F3F1FF901AF
:1043B000E257FE4F2081281303C072836183089562
:1043C0009F5FE9CFCECF8A3010F4805D0895895C7D
:1043D00008951F93CF93DF93182FEB0182958F7071
:1043E000F2DF8883812F8F70EEDF8983DF91CF9199
:1043F0001F9108951F93CF93DF93182FEB01892FFF
:10440000E8DFBE016E5F7F4F812FDF91CF911F915B
:10441000E0CF8F929F92AF92BF92CF92DF92EF92B6
:10442000FF920F931F93CF93DF931F92CDB7DEB709
:104430009C018B0180E3FB01808380E28183828386
:1044400083E0E82EF12C94E6892E912C4AE0B42EDC
:10445000682D70E0911003C02617370790F06801AF
:10446000C90CD11C97FCDA94C9010E94833EA82E86
:10447000862F9983A8DFF60180832A2D9981392F11
:104480009394882D6B2D0E94773E882EF1E0EF1AD1
:10449000F108F1F60F90DF91CF911F910F91FF90EE
:1044A000EF90DF90CF90BF90AF909F908F90089546
:1044B00097EA980F993010F48855089592EE980F66
:1044C000993010F48D5108959CEF980F963010F4A8
:1044D0008A5F089580E00895BF92CF92DF92EF92B5
:1044E000FF920F931F93CF93DF937C018B0180E0AA
:1044F00090E0B12CC42FD0E02B2D0B2C000C330BF3
:104500002017310790F48C9F60018D9FD00C9C9FE9
:10451000D00C1124F701E20FF31F8081C9DF96014F
:10452000280F311DC901B394E7CFDF91CF911F91BF
:104530000F91FF90EF90DF90CF90BF9008950F9371
:104540001F93CF93DF9300D000D0CDB7DEB780911B
:104550006F018111BEC4E0918D018E2F90E08D31ED
:10456000910508F0B4C4FC01E45BFF4F0C94973E46
:104570008FEF9BE3AEDDE0DE82E066C411E01093D6
:104580008D018091730194DF893009F4A0C48530D6
:1045900019F41093C4019DC4813009F439C38230E9
:1045A00009F453C3833009F44EC4843051F41BC260
:1045B000843009F45CC0853009F46CC0863009F49D
:1045C0007CC089E699E396C083EE9AE382DDB4DE8F
:1045D00084E03AC483E080938D018091730168DFA9
:1045E000182F893011F481E02FC4813091F480912B
:1045F000410618271093410682E00E941A348091E8
:104600004106882319F083E299E374C08DEF98E3A3
:1046100071C0823099F490913D0681E089278093A2
:104620003D0681E00E941A3480913D06882319F0EE
:1046300082EC98E35FC08BE998E35CC0833009F0BB
:10464000B7CF8CEC96E345DDBE016F5F7F4F809165
:104650003106BFDE8AE08B8363E070E0CE01019615
:1046600075DD81ED96E335DD67DE81E1EDC3909187
:10467000400681E089278093400685E00E941A3435
:1046800080914006882319F086E598E333C082E2E2
:1046900098E330C09091340681E0892780933406F6
:1046A00087E00E941A3480913406882319F084EE42
:1046B00097E320C088EB97E31DC090912E0681E020
:1046C000892780932E0680E10E941A3480912E065D
:1046D000882341F01093420686E00E941A348DE64A
:1046E00097E308C08CE08093420686E00E941A346B
:1046F0008FE197E3EEDCEDC389EE99E3EADC1CDEA3
:1047000088E0A2C387E080938D0180917301D0DEA1
:10471000893009F468CF8130B9F48CEC96E3D9DCA8
:1047200080914206BE016F5F7F4F90E072DE8AE0AB
:104730008B8363E070E0CE01019608DD85EA96E3A5
:10474000C8DCFADD85E180C38230C1F48CEC96E3ED
:10475000C0DCBE016F5F7F4F80913A0690913B06AF
:1047600058DE8AE08C8364E070E0CE010196EEDCD6
:1047700082E896E3AEDCE0DD86E166C38330D9F4FF
:104780008CEC96E3A6DC8091350690913606BE014E
:104790006F5F7F4F9195819591093BDE8AE08C8315
:1047A00064E070E0CE010196D1DC83E596E391DC14
:1047B000C3DD87E149C38430B9F48CEC96E389DC2E
:1047C00080913206BE016F5F7F4F90E022DE8AE06B
:1047D0008B8363E070E0CE010196B8DC8CE296E357
:1047E00078DCAADD88E130C38530B9F48CEC96E33F
:1047F00070DC80913906BE016F5F7F4F90E009DE6B
:104800008AE08B8363E070E0CE0101969FDC8FEF3E
:1048100095E35FDC91DD89E117C38630C1F48CEC50
:1048200096E357DCBE016F5F7F4F80913E0690910B
:104830003F06EFDD8AE08C8364E070E0CE010196F4
:1048400085DC8BED95E345DC77DD8AE1FDC28730C1
:10485000B9F48CEC96E33DDC80913006BE016F5FCD
:104860007F4F90E0D6DD8AE08B8363E070E0CE017D
:1048700001966CDC86EB95E32CDC5EDD8BE1E4C21B
:10488000883009F026C38CEC96E323DC80913C064B
:10489000BE016F5F7F4F90E0BCDD8AE08C8364E0F7
:1048A00070E0CE01019652DC86E895E312DC44DD2F
:1048B0008CE1CAC289E799E30CDC3EDD8AE0C4C220
:1048C00089E080938D0180917301F2DD893009F4D4
:1048D0008ACE8130B9F48CEC96E3FBDB809138060C
:1048E000BE016F5F7F4F90E094DD8AE08B8363E0D1
:1048F00070E0CE0101962ADC89E095E3EADB1CDD5D
:1049000082E1A2C28230C1F48CEC96E3E2DB8091BA
:10491000370690E0BE016F5F7F4F01967ADD8AE037
:104920008B8363E070E0CE01019610DC81E395E3B8
:10493000D0DB02DD83E188C2833009F042CE8CEC0B
:1049400096E3C7DB80912F0690E0BE016F5F7F4F3B
:1049500001965FDD8AE08B8363E070E0CE01019613
:10496000F5DB8DE595E3B5DBE7DC84E16DC28CE931
:104970009BE3AFDBE1DC86E067C285E080938D01DD
:104980008091730195DD893009F42DCE813011F4C9
:104990008BE05AC2823069F4EEE8F1E010821282B4
:1049A0001182339641E0EE3BF407C1F71092C30148
:1049B00090C2833031F48FEF96E38BDBBDDC8EE069
:1049C00043C2843009F0FDCD80E13EC28091C20136
:1049D000803158F01092C2018AE0898361E070E072
:1049E000CE010196B3DB85E02FC28CE197E371DB4A
:1049F000BE016F5F7F4F8091C201EBDC62E070E02F
:104A0000CE010196A3DB85E197E363DB8CE01CC25A
:104A10008091C20190E0FC01EE0FFF1F8E0F9F1FDF
:104A2000FC01E257FE4FBE016F5F7F4F8081D1DCFA
:104A300062E070E0CE01019689DB8FE097E349DB0D
:104A40008DE002C28091C20190E0FC01EE0FFF1FD9
:104A50008E0F9F1FFC01E257FE4FBE016F5F7F4F1D
:104A600081819281C7DC64E070E0CE0101966EDB4B
:104A70008BE080938D01A3C060916B0170E040E1F9
:104A800083E791E029DD9093BF018093BE011092EE
:104A9000C1011092C00181EF96E31BDB4DDC8FE07A
:104AA000D3C18091C0019091C101892B89F40091FB
:104AB000BE011091BF0160916B0170E040E183E79E
:104AC00091E00ADD800F911F9093C1018093C00196
:104AD00010E20AE0E091BE01F091BF018091C001B7
:104AE0009091C101E817F907D8F4BE016F5F7F4FBD
:104AF00080816FDC8091C0019091C101019720916C
:104B0000BE013091BF012817390711F40B8301C092
:104B10001B8363E070E0CE01019618DB81110DC0AC
:104B20002091BE013091BF018091C0019091C101DF
:104B30002817390708F057CFCCC18091BE0190915A
:104B4000BF0101969093BF018093BE01C3CF8091B6
:104B5000C201803178F01092C2018AE0898361E05D
:104B600070E0CE010196F2DA85E080938D010E941B
:104B7000FA34AFC1182F1370082F0695069511113E
:104B800002C08AE001C080E2898361E070E0CE016A
:104B90000196DCDA84E0189FF0011124E00FF11D8A
:104BA000EE0FFF1FEC5BF94FBE016F5F7F4F8081FF
:104BB000918120DC64E070E0CE010196C7DA80913B
:104BC000C2018F5F8093C20184C160916B0170E06C
:104BD0004AE083E791E080DC8A309105B0F480936D
:104BE000310683E00E941A348CEC96E372DABE013F
:104BF0006F5F7F4F80913106ECDB8AE08B8363E04F
:104C000070E0CE010196A2DA03C08AEF94E361DA84
:104C100083E01AC160916B0170E04AE083E791E0A4
:104C20005BDC9C01215031092336310558F4809317
:104C3000420686E00E941A348CEC96E34ADA8091B0
:104C40004206B3C08AEF94E344DA87E0FDC0609186
:104C50006B0170E04AE083E791E03EDC9C0121506B
:104C60003109273E334070F790933B0680933A0614
:104C700089E00E941A348CEC96E32BDABE016F5F58
:104C80007F4F80913A0690913B06B8C060916B01CE
:104C900070E04AE083E791E01FDC9C01215031097C
:104CA000273E334078F69195819591099093360689
:104CB000809335068AE00E941A348CEC96E309DA78
:104CC0008091350690913606BE016F5F7F4F9195BA
:104CD0008195910993C060916B0170E04AE083E790
:104CE00091E0FADB9C01215031092336310508F0AF
:104CF000A9CF809332068BE00E941A348CEC96E3A5
:104D0000E8D98091320651C060916B0170E04AE0B1
:104D100083E791E0E1DB9C01215031092336310525
:104D200008F090CF809339068CE00E941A348CEC06
:104D300096E3CFD98091390638C060916B0170E05D
:104D40004AE083E791E0C8DB9C0121503109273E0E
:104D5000334008F077CF90933F0680933E068DE076
:104D60000E941A348CEC96E3B4D9BE016F5F7F4F7A
:104D700080913E0690913F0641C060916B0170E0CA
:104D80004AE083E791E0A8DB9C01215031092336FA
:104D9000310508F057CF809330068EE00E941A3418
:104DA0008CEC96E396D980913006BE016F5F7F4F01
:104DB00090E02FDB8AE08B8363E070E0CE01019608
:104DC000C5D943CF60916B0170E04AE083E791E081
:104DD00083DB9C01215031092F3F310508F032CF90
:104DE00080933C068FE00E941A348CEC96E371D9D4
:104DF00080913C06BE016F5F7F4F90E00ADB8AE046
:104E00008C8364E070E0DACF60916B0170E04AE07F
:104E100083E791E061DB9C012150310920313105AC
:104E200078F48093380684E00E941A348CEC96E380
:104E300050D980913806BE016F5F7F4F90E024C04B
:104E40008AEF94E346D989E080938D0142C0609156
:104E50006B0170E04AE083E791E03EDB9C0121506A
:104E600031092031310560F781508093370688E0A1
:104E70000E941A348CEC96E32CD98091370690E08E
:104E8000BE016F5F7F4F0196C4DA8AE08B8363E0D7
:104E900070E0CE0101965AD9D6CF60916B0170E0D7
:104EA0004AE083E791E018DB9C012150310924306E
:104EB000310508F0C5CF815080932F0681E10E9413
:104EC0001A348CEC96E305D980912F06D8CF109236
:104ED0008D010F900F900F900F90DF91CF911F9148
:104EE0000F91089526E0829FC0011124FC01E05C2F
:104EF000FE4F0190F081E02D208181E090E001C023
:104F0000880F6A95EAF7822B8083089526E0829FB6
:104F1000C0011124FC01E05CFE4F0190F081E02D06
:104F2000808160956823462B4083089526E0829F08
:104F3000C0011124FC01E05CFE4F0280F381E02DF2
:104F4000208181E090E001C0880F6A95EAF7822B0A
:104F50008083089526E0829FC0011124FC01E05C5B
:104F6000FE4F0280F381E02D208181E090E001C0BE
:104F7000880F6A95EAF7809582238083089526E05A
:104F8000829FC0011124FC01E05CFE4F0280F3818E
:104F9000E02D80816823462B4083089526E0829F80
:104FA000C0011124FC01E05CFE4F0480F581E02D7E
:104FB000808186230895E82FE695E695E695F0E052
:104FC000E051FD4F982F977021E030E001C0220F93
:104FD0009A95EAF79081292B208391E09093DA0447
:104FE0009091EA0220E029175CF4E22F022E000CD7
:104FF000FF0BE350FD4F30813817A1F02F5FF3CF47
:1050000096305CF4E92F092E000CFF0BE350FD4FA6
:1050100080839F5F9093EA0208951092030381E0DA
:105020008093DE040895E82FE695E695E695F0E096
:10503000E051FD4F982F977021E030E001C0220F22
:105040009A95EAF7209590812923208391E0909307
:10505000DA049091EA024DEF52E0FA012E2F241B60
:10506000291724F431913813F9CF01C00895E22FA4
:10507000022E000CFF0BE350FD4F818180832F5FD8
:105080002917ACF391509093EA021092DE04089530
:10509000E82FE695E695E695F0E0E051FD4F982F74
:1050A000977021E030E001C0220F9A95EAF79081D5
:1050B0002927208391E09093DA049091EA024DEF42
:1050C00052E0FA012E2F241B291724F431913813B2
:1050D000F9CF13C096305CF4E92F092E000CFF0BBA
:1050E000E350FD4F80839F5F9093EA0208951092F2
:1050F000030381E08093DE040895E22F022E000C6A
:10510000FF0BE350FD4F818180832F5F2917ACF3A4
:1051100091509093EA021092DE0408959091450414
:1051200094305CF4E92F092E000CFF0BE551FD4F84
:1051300080839F5F90934504089540E060E070E0B5
:1051400082E423D91092EF020895209145044BEE9A
:1051500052E0FA019E2F941B92179CF43191381360
:10516000F9CF921751F0E92F092E000CFF0BE551F2
:10517000FD4F818180839F5FF4CF915090934504D0
:105180000895682F70E040E083E4FFC82091460452
:1051900030914704232B69F48759E82FF0E0EE0F94
:1051A000FF1FE359F34C85919491909347048093AA
:1051B000460481E08093D90408958759E82FF0E0F0
:1051C000EE0FFF1FE359F34C859194912091460413
:1051D000309147042817390721F4109247041092A0
:1051E000460481E08093D904089593E4980F81E008
:1051F00001C0880F9A95EAF78093E30481E08093D9
:10520000D80408951092E30481E08093D8040895AF
:10521000809131068093E204089592E1899F600DA8
:1052200011248091E50268130DC08091350690919C
:1052300036068417950734F48091E1048F5F8093DC
:10524000E10408951092E5021092E1040895E091BE
:105250003A06F0913B064E175F0754F491E0F901CE
:105260009083F2E18F9F600D11246093E502089511
:10527000F90110821092E5021092E10408959091D4
:105280007901E92FEE0FFF0BEB5FFC4F2091E70256
:1052900030E0322F2227282B318320839F5F909389
:1052A000790108959091E404911111C0805D8031DD
:1052B00070F4E82FF0E0EE0FFF1FE553FD4E8591EF
:1052C0009491880F991F85539D4E0C94F620089554
:1052D000CF93DF93C82FD62F8091E204882311F05B
:1052E0008B5F5ED580E18C0F8093E20417DF8091A5
:1052F000E204882311F08B5F33D59091E204809112
:105300003106981711F08FE02BD58091E20490912F
:10531000E602D0FF02C0981308C0981308C080911D
:10532000E104811104C0809131068093E602DF918F
:10533000CF910895E82FF0E0EA51FE4F8491882341
:1053400011F060E0C5CF08950F931F93CF93DF93C3
:1053500000D01F92CDB7DEB7082F10E1180F809153
:10536000E204882341F08B5F2B834A83698318D53D
:1053700069814A812B81222389F18091E204811382
:105380002DC08091E104882319F061FD1093E6029D
:105390008091E902801322C062FF20C08FEF840F4A
:1053A000873620F46091E702842F16C0842F807E18
:1053B000803EA1F4E42FF0E0EE0FFF1FE651F54C24
:1053C000849180959091E70289238093E70281E0A0
:1053D0008093DF04649180E00E94DE20812FB5DE9F
:1053E000E0914504E11103C08091E60206C00E2E53
:1053F000000CFF0BE651FD4F80818093E204809109
:10540000E204882311F08B5FABD49091E204809189
:105410003106981309C08FE00F900F900F90DF9125
:10542000CF911F910F91BCC40F900F900F90DF91FF
:10543000CF911F910F910895E82FF0E0EA51FE4FB0
:105440008491882321F020E040E060E07DCF089542
:105450006F70623051F028F4662339F06130E1F06A
:105460000895643011F0683011F5E82FF0E0EE0F88
:10547000FF1FE651F54CE4918091E702E82BE093A1
:10548000E7028091E004882319F0E777E093E702D0
:1054900081E08093DF040895E82FF0E0EE0FFF1F16
:1054A000E651F54CE4918091E702E827E8CF0895B2
:1054B0006F70623009F447C020F4662309F437C0E6
:1054C0000895643019F0683091F10895E82FF0E004
:1054D000EE0FFF1FE651F54CE491E0956091E70275
:1054E0006E236093E70291E09093DF04222309F496
:1054F0004BC09091E902981347C08FEF840F873615
:1055000010F4842F12C0842F807E803E09F03CC0AE
:10551000E42FF0E0EE0FFF1FE651F54C84918095EB
:1055200068236093E702649180E00C94DE20E82F0A
:10553000F0E0EE0FFF1FE651F54CE491E09580910D
:10554000E702E8231CC0E82FF0E09091E702EE0F9D
:10555000FF1FE651F54C222379F08091E104882366
:1055600059F08491E82FE92BE093E7028091E00461
:10557000882339F0E77703C0E491E095E923E093CD
:10558000E70281E08093DF0408956F70623051F08C
:1055900028F4662339F0613031F00895643011F059
:1055A000683011F408CD74CD08956F70623049F001
:1055B00018F461110DC00BC0643049F0683041F43B
:1055C00006C0222321F09091E104911101C02BCD5E
:1055D00008951F93CF93DF931F92CDB7DEB7182F97
:1055E000862F807F29F08093680181E08093DF041B
:1055F000113C09F488C0B8F5163BE0F4113B08F003
:10560000ADC0133809F46DC050F4143008F4F8C07C
:10561000143708F453C0123809F45BC0F1C01438D1
:1056200009F469C089E6810F893108F0E9C0812F4A
:10563000ADDDECC0183B09F4A5C050F4163B09F4ED
:105640009BC0173B09F0DCC08091DC04815097C0FF
:10565000193B09F49BC083E4810F833008F0D0C06C
:10566000812FC3DDD3C01E3C09F46CC0B0F4193CDB
:1056700009F45BC048F4133C09F449C008F445C080
:10568000183C09F446C0BCC01C3C09F494C008F0A6
:10569000A6C01A3C09F4BAC0B3C0183E38F4103E94
:1056A00008F0ABC01F3C09F083C050C080E1810FFF
:1056B0008A3008F0A5C0812F0BDEA8C08091DD04E0
:1056C000882321F0812F6983DADD6981812F5DDFF5
:1056D0009DC08091E80281FD99C06091E70289E355
:1056E00007C08091E80280FD91C06091E70283E5E8
:1056F0000E94DE208BC08091E80282FD87C060910D
:10570000E70287E4F5CF36D481C00ED47FC0FED344
:105710007DC09091E40481E089278093E4048111A5
:1057200002C085E10BC085E151C09091E00481E0A9
:1057300089278093E004811103C085E031D366C0DE
:1057400085E044C082E08093C40160C080918D01F7
:1057500081115CC081E080938D0158C0EFE4E10FBE
:10576000F0E0EE0FFF1FE056F34CE4918091DB0474
:10577000E82BE093DB044AC08091DC048F5F8093C8
:10578000DC0409C080910403815003C080910403AC
:105790008F5F8093040390912D068091E1049923FB
:1057A00021F090912B06981788F580932B062EC038
:1057B000812F78DD2BC09091DD0481E089278093D3
:1057C000DD04882329F01092790180E1C9D21EC03E
:1057D00080917901811180936A0180E1AFCF80913E
:1057E000DD04811113C060916A01062E000C770B55
:1057F00085E093E00E942B2109C0812F29DE06C09D
:10580000612F70E040E084E40E94C5211093E9021A
:105810000F90DF91CF911F9108951F93CF93DF9346
:1058200000D01F92CDB7DEB7962F907F29F010924F
:10583000680191E09093DF04893B09F49AC008F075
:105840003DC0803BD0F4873908F082C0823809F42B
:105850005AC060F49CEF980F903708F0A9C00F90E1
:105860000F900F90DF91CF911F919FCE833809F455
:1058700052C0843809F45EC09BC0863B09F46FC0F7
:1058800098F4813B08F494C06FE4680FE62FF0E0D1
:10589000EE0FFF1FE056F34CE491E0958091DB049E
:1058A000E823E093DB0490C0873B09F45CC0883BAD
:1058B00009F07EC0809104038F5F5EC08B3C70F462
:1058C000883C08F081C08D3B08F472C0803CD0F168
:1058D0009FE3980F933008F477C06AC0883E38F48D
:1058E000803E08F04CC08C3C08F06EC061C090E176
:1058F000980F9A3008F05CC00F900F900F90DF91D6
:10590000CF911F9121CD8091E80281FF5DC0609110
:10591000E70289E307C08091E80280FF55C06091EB
:10592000E70283E50F900F900F90DF91CF911F91C9
:105930000C94DE208091E80282FF46C06091E7026D
:1059400087E4F0CF1092E30481E08093D8043CC058
:105950000F900F900F90DF91CF911F912ECC8091DF
:10596000DC04815003C08091DC048F5F8093DC04F1
:105970002BC08091040381508093040325C0182F0D
:105980008091DD04882361F08091E902811308C0D1
:1059900080E02B834A83698372DC69814A812B8191
:1059A000812F0F900F900F90DF91CF911F9180CD9D
:1059B000682F70E040E085E40F900F900F90DF912A
:1059C000CF911F910C94C5210F900F900F90DF91F4
:1059D000CF911F9108952091E702227291E009F082
:1059E00090E020914106222359F0992349F020911B
:1059F000E80220FF05C022EE280F2A3008F4855C5B
:105A000020913406222321F1833571F49091E8022C
:105A100081E089278093E80280FF03C080E0A0D165
:105A20001FC080E0BDD11CC027EA280F2B3080F4B6
:105A30002091E802E82FF0E0EE0FFF1F20FF05C0E5
:105A4000992319F0EB55F44C02C0EA55F44C8491BB
:105A50008A3C39F4911102C085E3089589E20895E2
:105A600080E00895AF92BF92CF92DF92EF92FF92C3
:105A70000F931F93CF93DF9300D01F92CDB7DEB764
:105A8000D82E062F10E08091E20490E9C92E92E111
:105A9000D99E70011124F701C89EE00DF11D11245B
:105AA000E00FF11FE55DF24F84914A835B836983C8
:105AB00092DFB82E8091E2049701C89E200D311D1F
:105AC0001124200F311FF901E557F84FC490F90157
:105AD000E551FE4FA4900E0D1F1DF801EB5AFD4F2E
:105AE000B082F801E85BFB4FC082F801EB53FE4F38
:105AF000A0824A815B8169818D2D8FDB4A2D6C2DBF
:105B00008B2D67DD41D20F900F900F90DF91CF91D9
:105B10001F910F91FF90EF90DF90CF90BF90AF90CB
:105B20000C9463379F92AF92BF92CF92DF92EF9225
:105B3000FF920F931F93CF93DF931F92CDB7DEB7E2
:105B400092E1899F90011124260F311DF901EB5A32
:105B5000FD4F6F01B080F901E85BFB4F7F01A08032
:105B600089010B531E4FF80190809E012F5F3F4F1C
:105B70006EDB2981492D6A2D8B2D4FDEF6011082B7
:105B8000F7011082F80110820F90DF91CF911F91E1
:105B90000F91FF90EF90DF90CF90BF90AF909F90CC
:105BA000089522E1829FC00111249C01260F311D1E
:105BB000F901EB5AFD4F8081F901E85BFB4F9081C1
:105BC00093FF1FC09FEF980F973618F46091E7027C
:105BD00016C0982F907E903EA1F4E82FF0E0EE0FD3
:105BE000FF1FE651F54C849180959091E70289233F
:105BF0008093E70281E08093DF04649180E00C945D
:105C0000DE200895FC018091E40481111DC0809183
:105C1000DE04882339F081E080838183828383835B
:105C2000848311C08091FD0280838091FE02818374
:105C30008091FF028283809100038383809101031E
:105C4000848380910203858308952091E4042111C7
:105C500009C0DC01E0EFF2E08DE08E0F91919D93A1
:105C60008E13FCCF0895FC018091E404811106C0DD
:105C7000809168019091E702982B9083089522E12A
:105C8000829FC0011124FC01E60FF11DE55DF24F7A
:105C9000E491E83211F0E83539F441E060E070E079
:105CA00081E50E94C52122C5089590E09C01220F44
:105CB000331F820F931FFC01E65FFB4C2491FC0114
:105CC0003196885F9B4CE85FFB4C621721F0649132
:105CD000FC0184912BC96491FC0184913BC90F9311
:105CE0001F93CF93DF93E9E3F4E3D49108E014E347
:105CF000C0E0CD1769F0F80131966491F801849104
:105D0000F1D860E08C2FD1DFCF5F0D5F1F4FF1CF57
:105D1000809138068093F4048093F10480912F06DB
:105D20008093F604809137068093EF04DF91CF9142
:105D30001F910F9108958091ED04893F69F480913E
:105D4000FA048F3E19F41092FA0403C08F5F809317
:105D5000FA041092ED0408958F5F8093ED04089586
:105D600090E0880F991FFC01E452FC4CA491FC01C7
:105D7000E352FC4C8491E8E3F4E3E491AE1778F449
:105D8000B0E0AB51BB4F811103C08C91816006C064
:105D90009C919170E82FEE0F892F8E0F8C930895B0
:105DA00090E0880F991FFC01E452FC4CA491FC0187
:105DB000E352FC4C8491E8E3F4E3E491AE1780F401
:105DC000B0E0AB51BB4F811104C08C918E7F8C939E
:105DD00008959C91292F2695281302C091709C93B9
:105DE0000895823049F0833071F08130B9F481E157
:105DF000B7DF82E1D5DF0BC081E1D2DF82E1D0DF06
:105E000083E1AEDF06C081E1CBDF82E1A9DF83E180
:105E1000C7DF84E1C5DF1092F904089581E1C0DF96
:105E200082E1BEDF83E1BCDF84E19ADF81E0809321
:105E3000F90408950F931F93CF93E8E3F4E3E491FB
:105E4000C0E00E2F10E08C2F0C2E000C990B801749
:105E5000910714F52091F0042223C9F0FC01EB51C5
:105E6000FB4F2081223018F421110FC010C0E22F07
:105E7000E695F0E0E754F34C64918091FA040E94B7
:105E8000773E921720F490FF02C061E001C060E00D
:105E90008C2F0BDFCF5FD7CFCF911F910F9108953C
:105EA0008091F404803110F081E002C08C5F8C7F1F
:105EB0008093F40408958091F5048F5F813118F484
:105EC0008093F504089581E08093F5041092F30423
:105ED0001092F80408959091F404903120F081E03C
:105EE0008093F00408958091F3042091F504929F2B
:105EF000902D1124891738F491E09093F004805F7D
:105F00008093F30408951092F0040895EBEDF3E309
:105F1000E4918091EF048F5F8E1718F48093EF0463
:105F200008951092EF0408958091F6048F5F8430F5
:105F300018F48093F60402C01092F6048091F604DF
:105F4000811103C08091F40403C0813021F484E006
:105F50008093F1040895823031F484E08093F10459
:105F60001092F204089580E18093F10481E080931F
:105F7000F204089595DF8091F604811104C08091A8
:105F8000F4048093F10408958091F604823011F4B2
:105F900088E10BC0833071F48091F104853010F0FA
:105FA000845003C0882321F081508093F104089528
:105FB0001092F10408958091F7048F5F803318F4F4
:105FC0008093F70408951092F7049091F6049130AD
:105FD000B1F42091F2048091F104222341F08F5F0B
:105FE0008093F1048831E0F01092F204089581501A
:105FF0008093F1048530A0F49093F20408959230D8
:1060000031F48091F104853058F0815007C093300D
:1060100039F48091F104803118F48F5F8093F1049A
:1060200008958091F104803120F081E08093EE04A6
:1060300008959091F504899F802D11249091F20488
:106040009111807F9091F804981738F481E0809343
:10605000EE04905F9093F80408951092EE04089572
:106060001F93CF93DF93E9E3F4E3E49110E0CE2FA5
:10607000D0E0212F012E000C330B2C173D070CF51F
:10608000F901E553FC4CE491EE23C9F08091F90449
:10609000882391F08091EE04882371F08091EF04C1
:1060A000F90190E1899FE00DF11D1124E553FD4CAC
:1060B000E49161E0E11101C060E0812FF6DD1F5F36
:1060C000D8CFDF91CF911F910895F5DE04DF33DE45
:1060D000B1DE71DFA6DFC4CF1F920F920FB60F9211
:1060E00011240BB60F922F938F939F93AF93BF936F
:1060F000EF93FF93EDB7FEB781E090E09093F30646
:106100008093F206F093F106E093F0063196A0E753
:10611000B6E080E090E0E11521E2F20720F0FC011A
:10612000E059F94F07C021912D93019680389105D0
:1061300091F7F5CF86E0E03FF80711F01192FACF22
:10614000FF91EF91BF91AF919F918F912F910F9000
:106150000BBE0F900FBE0F901F90189590E080E837
:106160000FB6F89480936100909361000FBE08957C
:106170006091F40670E040E081E00E94C5216091EA
:10618000F2067091F3066115710541F041E082E07D
:106190000E94C5211092F3061092F206DFCF8DEA1D
:1061A0009EED9093F6068093F506089584E189BDEF
:1061B00086E189BD09B400FEFDCF8091D8008F7DB6
:1061C0008093D8008091E00082608093E00080910D
:1061D000E00081FDFCCF0895CF93DF93962F642FCD
:1061E00022E1929FE0011124C40FD11DCC0FDD1FCD
:1061F000C95FDA4F48815981882301F157FF0EC0EA
:106200002091420630E03195219531092417350758
:106210007CF1892F27DC84E090E020C020913E06AD
:1062200030913F064217530794F0892FBADC209132
:10623000300688819981821B910910C014161506B9
:1062400084F42091420630E0421753071CF44C5F5F
:106250005F4F10C0892F66DC8CEF9FEF9983888396
:106260000BC080913506909136068417950724F46B
:106270004450510959834883DF91CF9108950F937A
:106280001F93CF93DF93082F862F642F92E1899F6E
:10629000E0011124C40FD11DCC0FDD1FC95FDA4FFF
:1062A0005981011110C057FD27C08881952F937027
:1062B00020913506309136068217930708F404962C
:1062C0009983888339C057FF17C00881152F137031
:1062D00020913E0630913F060217130730F061DC33
:1062E00080913006081B110902C00C5F1F4F1983F3
:1062F00008838981806817C0152F169516951F7120
:106300001C5F90914206191780F04881537000235A
:1063100011F0A8DB01C006DC212F30E0398328838F
:10632000898100FB87F9898307C01F71110F110F45
:106330005378252F212B2983DF91CF911F910F9126
:106340000895CF92DF92EF92FF921F93CF93DF9346
:10635000E9EDF4E3E491E093FB04E8EDF4E3E49188
:10636000E0930205E7EDF4E3E491E0930505E6ED43
:10637000F4E3E491E09306058AECE82E84E3F82E3A
:106380009CEFC92E94E0D92ED0E0F70114918091B2
:10639000020581111FEFF7013196C4914C2F612F37
:1063A0008D2F0E9486272C2F2095F60121936F01B7
:1063B000422F412380910205642F6095811101C015
:1063C00040E08D2F0E94BF27DF5FF2E0EF0EF11C4F
:1063D000D630D9F680912E06882371F08FE391E3B1
:1063E000909304058093030580914206813250F01A
:1063F00080E28093420606C08CEE90E39093040501
:1064000080930305DF91CF911F91FF90EF90DF9074
:10641000CF900895CF92DF92EF92FF920F931F9348
:10642000CF93C0E08091050590E02C2F0C2E000C3E
:10643000330B281739070CF054C08CEFE82E84E09A
:10644000F82EF6E0CF026001112400E010E0F80120
:10645000EC0DFD1DE25AFB4C4491F70161917F0167
:10646000802F0E94BF270F5F1F4F0630110579F75D
:1064700080913C068A95F1F710E0212F012E000C47
:10648000330B8091060590E02817390744F5809179
:106490000205220F331FF901E55CFB4C882351F004
:1064A0006491F901E65CFB4C84910E94CE2788231D
:1064B00051F013C06491F901E65CFB4C84910E9499
:1064C000CE27882351F08091FB04882319F06C2F8C
:1064D000812F02C0612F8C2FD2DB1F5FCECFCF5F09
:1064E000A1CFCF911F910F91FF90EF90DF90CF90B0
:1064F0000895CF92DF92EF92FF920F931F93CF9365
:10650000DF93D62FC82FCD170CF05EC08CEFE82E8E
:1065100084E0F82EF6E0CF026001112400E010E0E4
:10652000F70161917F016F3F49F0F801EC0DFD1D0E
:10653000E25AFB4C4491802F0E94BF270F5F1F4FF0
:106540000630110569F780913C068A95F1F710E055
:10655000212F012E000C330B8091060590E02817A7
:10656000390784F580910205220F331FF901E55C9C
:10657000FB4C882359F06491F901E65CFB4C849153
:106580000E94CE2791E0882361F00AC06491F9014E
:10659000E65CFB4C84910E94CE2791E0811101C002
:1065A00090E08091FB04E0910305F09104058823BD
:1065B00019F04C2F612F02C0412F6C2F892F0995A4
:1065C0001F5FC6CFCF5F9FCFDF91CF911F910F91FC
:1065D000FF90EF90DF90CF9008956091050566954C
:1065E000669580E086CF80910505682F70E07595EF
:1065F0006795869586957DCF8091050593E0899F67
:10660000B00111247595679575956795869571CF3D
:106610006091050523E0629FC0011124959587953F
:106620009595879566CF81E080932A0608952091FD
:106630002A06AC01249FC001259F900D11246AE019
:1066400070E00E94833E80912906562F581B852FAB
:10665000609329062F5F20932A062B3028F0109292
:10666000290691E090932A060895CF938091DC0447
:10667000811104C080910403882321F1C1E0C093FB
:106680002D0680912C0681112FC080912B069091B0
:10669000390620913206899FC0011124820F911D75
:1066A000C6DF9091DC04899F902D112490932806D9
:1066B00090910403899F802D112480932706C09315
:1066C0002C0612C080912D06882319F081E080935A
:1066D0002C0610922D061092290610922806109270
:1066E00027068AE080932A06CF910895CF93DF93FF
:1066F000CDB7DEB765970FB6F894DEBF0FBECDBF3E
:1067000051E25093330610923D06109241061092CA
:10671000310640E140933806109240063CE0309349
:106720004206109234061092370680EF90E0909364
:106730003B0680933A0688E89FEF90933606809355
:10674000350685E0809332062FE02093390660E21B
:1067500073E070933F0660933E0690E2909330069C
:1067600080933C0610922E0610922F0659831A82AF
:106770001B821C824D831E823F831886198630EF50
:106780003A871B8638E83C873FEF3D878E872F8707
:10679000988B23E0298B9A8B8B8B1C8A1D8A45E171
:1067A00050E060E070E0CE0101960E94CA3E65961E
:1067B0000FB6F894DEBF0FBECDBFDF91CF91089525
:1067C0000F931F93CF93DF93C6ECDCE3FE01329669
:1067D00084913196E49190E0E23059F4FE01059104
:1067E0001491805090400E94C53EF80191838083AF
:1067F00009C0FE0105911491805090400E94BD3E59
:10680000F80180832496FDE3CE30DF07F9F660912E
:106810003306613251F070E041E080E50E94C5210D
:10682000DF91CF911F910F9161CFDF91CF911F9198
:106830000F91089524E0829FC0011124FC01E853C8
:10684000F34C2491FC01E753F34C3491FC01EA53DF
:10685000F34C822F90E0323041F4A591B4916D91C8
:106860007C91805090400C94E13EA591B4916C9144
:10687000805090400C94D33E13BC10928000109234
:10688000820080E89EE390938900809388000895B9
:1068900010924306109285001092840081E080934C
:1068A000810082E080936F009AE088E10FB6F8944F
:1068B000A895809360000FBE90936000E0E6F0E042
:1068C0008081806C808308950FB6F894A89580919C
:1068D0006000886180936000109260000FBEE0E667
:1068E000F0E080818F7B808310926F001092810096
:1068F00008958091840090918500E0914306209155
:10690000640634E0E39FF0011124E20FF11DEE0F65
:10691000FF1FEC5BF94F208131812817390780F484
:10692000E09143062091640634E0E39FF0011124D6
:10693000E20FF11DEE0FFF1FEC5BF94F9183808397
:10694000089510926406809164068430D8F4E09132
:1069500043068091640694E0E99FF0011124E80F5A
:10696000F11DEE0FFF1FE652FB4C859194910097AD
:1069700019F0FC010995BDDF809164068F5F80935B
:106980006406E1CF08951092850010928400D9DF4B
:10699000809143068F5F80934306843010F01092FD
:1069A0004306A89508951F920F920FB60F921124D7
:1069B0000BB60F922F933F934F935F936F937F93F9
:1069C0008F939F93AF93BF93EF93FF93DCDFFF9180
:1069D000EF91BF91AF919F918F917F916F915F9157
:1069E0004F913F912F910F900BBE0F900FBE0F90C4
:1069F0001F901895E4E4F6E011821082138212824F
:106A00001582148217821682389686E0E436F807DB
:106A100099F70895292F332723303105D9F074F4DD
:106A20002130310591F02230310509F04CC0E0E60B
:106A3000FDE3859194916EE57DE349C021323105F6
:106A4000B9F022323105E9F03EC082E190E06BEC12
:106A50007DE33DC09927009729F00197A1F5EEE06D
:106A6000FDE302C0EAE5FDE3849190E0BF012FC0A1
:106A700081EE689FB00111246059724C89E090E06A
:106A800026C0662389F080911001681791F08091EB
:106A90000001681799F080912001681314C08AE3FF
:106AA00090E06FE07EE313C080E490E060E77EE377
:106AB0000EC082E390E06DED7DE309C087E290E0D7
:106AC00069E47EE304C080E090E060E070E0FA01F9
:106AD00071836083089581E084C90895CF9380E332
:106AE00091E0E1D7C82F80911001882321F080E147
:106AF00091E0D9D7C82380910001882321F080E05C
:106B000091E0D1D7C82380912001882321F080E231
:106B100091E0C9D7C823CC2311F080E001C083E005
:106B200060D98091E20084608093E200CF91089563
:106B300080E391E080D680911001882319F080E1F4
:106B400091E079D680910001882319F080E091E0EE
:106B500072D680912001882319F080E291E06BC603
:106B6000089580913E0190913F01009729F001978F
:106B700090933F0180933E0180911001882359F04A
:106B800080911E0190911F01009729F00197909329
:106B90001F0180931E0180910001882359F080918C
:106BA0000E0190910F01009729F0019790930F012A
:106BB00080930E0180912001882359F080912E014D
:106BC00090912F01009729F0019790932F018093C6
:106BD0002E01089580E005C982E003C980E001C963
:106BE0000F931F93CF93DF93E901F801DC019C9190
:106BF0002091000191112FC0222381F02091660184
:106C0000220F80914006811104C019969C91892F12
:106C100002C080E090E0820F8093660188E090E0FF
:106C2000918380838091660180FD0EC0CE011BD8C8
:106C3000CE0102960E94022E9091DF048091DA0428
:106C4000892B21F480E067C081FDFCCF1092DA042B
:106C50001092DF045FC0921313C08EE090E0918326
:106C600080838091660180FF08C0CE010E94332E90
:106C7000CE0101960E94252EDFCF81FDE7CFE2CF26
:106C800080912001981314C08091DB048883809147
:106C900028068983809127068A8383E090E0918388
:106CA000808380912C06882369F210922C0632C0D2
:106CB00081E090E0DB012C91233011F080E090E046
:106CC0002091D804822B892B91F08091E304888352
:106CD00081E090E09183808383E0FB018083809159
:106CE000D804882309F4AECF1092D80413C0809141
:106CF0004604909147049983888382E090E09183D1
:106D00008083DB018C938091D904882309F49ACF86
:106D10001092D90481E0DF91CF911F910F910895D6
:106D2000CF938053914009F07EC0F9018081809318
:106D3000E802C0916501C82780936501CC2309F45E
:106D400072C09091340691110FC0C0FF0DC080FF3A
:106D500006C080E005D880E00E949A2905C080E046
:106D60001FD880E00E941C2AC1FF10C08091E80259
:106D700081FF07C081E00E94B02E81E00E949A2925
:106D800005C081E00DD881E00E941C2AC2FF24C00A
:106D90008091E80282FF11C082E00E94B02E82E062
:106DA0000E949A2980913D068823B1F081E080936A
:106DB000E00485E00E94B02E0FC082E00E94D02E39
:106DC00082E00E941C2A80913D06882329F01092BF
:106DD000E00485E00E94D02EC3FF11C08091E8023C
:106DE00083FF07C083E00E94B02E83E00E949A29AF
:106DF00006C083E00E94D02E83E00E941C2AC4FFBC
:106E000012C08091E80284FF07C084E00E94B02E87
:106E100084E0CF910C949A2984E00E94D02E84E0E3
:106E2000CF910C941C2ACF910895E0EBFEE3E491FE
:106E3000E1FF08C081E08093100182E88093110196
:106E400081E001C080E0E2FF09C091E0980F9093DB
:106E500000018E5F806880930101892FE3FF08C0E5
:106E600091E0980F909320018E5F806880932101BC
:106E70000895F89480E391E029D680911001882349
:106E800019F080E191E022D680910001882319F069
:106E900080E091E01BD680912001882319F080E2E8
:106EA00091E014D67894AED48BB590916401981784
:106EB00049F06BB570E041E086EA0E94C5218BB5D0
:106EC00080936401089580916606882321F08BB534
:106ED000853009F46BC90895CF92DF92EF92FF924B
:106EE0000F931F93CF93DF93EC018B017A01D0D1E5
:106EF000811133C0E114F10439F0F70180819181EF
:106F0000081B190BC80FD91FC12CD12C0115110555
:106F100019F18091E80085FD16C08091E8008E7718
:106F20008093E8006FD4E114F10449F0F701808107
:106F30009181C80ED91ED182C08285E00EC0A8D131
:106F4000882321F30AC089918093F100015011092F
:106F5000FFEFCF1ADF0ADACF80E0DF91CF911F91E8
:106F60000F91FF90EF90DF90CF90089520916E06E3
:106F700030916F062617370748F06115710539F40F
:106F80002091E8002E772093E80001C0B90140E08D
:106F90006115710591F12BB5222309F440C025300C
:106FA00009F43FC02091E80023FD3DC02091E80096
:106FB00022FD2FC02091E80020FFEACF2091F200AF
:106FC0003091F300FC01CF016115710559F02830B3
:106FD000310540F481918093F100615071092F5F78
:106FE0003F4FF1CF41E02830310509F040E02091DA
:106FF000E8002E772093E800CBCF4111CCCF09C019
:107000008BB5882361F0853061F08091E80083FDC5
:107010000AC08091E80082FFF3CF80E0089582E00B
:10702000089583E0089581E008956115710529F4BC
:107030002091E8002B772093E800FC016115710591
:1070400021F18BB5882349F1853049F18091E80021
:1070500083FD21C08091E80082FFF0CF8091F20093
:107060009091F300892B31F08091F1008193615070
:107070007109A1F78091E8008B778093E800DECF5B
:107080008BB5882351F0853051F08091E80080FF66
:10709000F7CF80E0089581E0089582E0089583E0CD
:1070A000089520916E0630916F062617370748F035
:1070B0006115710539F42091E8002E772093E800DE
:1070C00001C0B901FC0120E06115710579F18BB5B2
:1070D000882309F43DC0853009F43CC08091E80064
:1070E00083FD3AC08091E80082FD2CC08091E800C9
:1070F00080FFEACF8091F2009091F3006115710555
:1071000059F08830910540F424912093F100319694
:10711000615071090196F2CF21E0089709F020E053
:107120008091E8008E778093E800CECF2111CFCFF9
:1071300009C08BB5882361F0853061F08091E8004B
:1071400083FD0AC08091E80082FFF3CF80E00895BC
:1071500082E0089583E0089581E00895982F9730A4
:1071600058F59093E900981739F07091EC00209150
:10717000ED005091F00003C0242F762F50E021FF46
:1071800019C03091EB003E7F3093EB003091ED0061
:107190003D7F3093ED003091EB0031603093EB0098
:1071A0007093EC002093ED005093F0002091EE00DE
:1071B00027FF07C09F5FD3CF8F708093E90081E0E6
:1071C000089580E00895EF92FF920F931F93CF935D
:1071D000DF93E62EEC018C010C5F1F4FF12CFE14A7
:1071E00091F15881552351F1F801208169817A810B
:1071F00031979081852F8F70873010F080E024C008
:10720000223010F442E001C046E0E8E0F0E020E087
:10721000E617F70720F42F5FEE0FFF1FF9CF229537
:10722000207F422BF0E49F9F90011124551F55278A
:10723000551F652F622B92DF882301F3F394259667
:107240000B5F1F4FCCCF81E0DF91CF911F910F914A
:10725000FF90EF9008958091680687FF0FC080919E
:10726000E80082FD04C08BB58111F9CF10C0809178
:10727000E8008B770AC08BB5882349F08091E8003D
:1072800080FFF9CF8091E8008E778093E800089521
:107290002091E4003091E50095E64091EC00842FC8
:1072A000817040FF21C08091E80080FD1BC08BB53C
:1072B000882391F0853091F08091EB0085FD10C01E
:1072C0004091E4005091E5004217530731F39A01D1
:1072D000915019F784E0089582E0089583E00895BD
:1072E00081E0089580E008954091E80042FFDFCFFB
:1072F000089567D06ED0E0EEF0E0808181608083F9
:10730000E8EDF0E080818F77808319BCA7EDB0E0D5
:107310008C918E7F8C9380818F7E80831092670604
:1073200008950F931F93CF93DF934BD052D0C8EDA6
:10733000D0E088818F77888388818068888388817E
:107340008F7D8883E7EDF0E080818068808319BCC1
:107350001BBC109265061092660600EE10E0F80164
:1073600080818B7F808388818160888342E060E0B8
:1073700080E0F4DEE1EEF0E080818E7F8083E2EE5B
:10738000F0E0808181608083808188608083F80163
:1073900080818E7F8083888180618883DF91CF9117
:1073A0001F910F910895E8EDF0E080818F7E80833A
:1073B000E7EDF0E080818160808381E08093670663
:1073C000B0CFE8EDF0E080818C7F80831092E20006
:1073D00008951092DA001092E10008951F920F9222
:1073E0000FB60F9211240BB60F922F933F934F932A
:1073F0005F936F937F938F939F93AF93BF93EF931D
:10740000FF938091E10082FF0AC08091E20082FF39
:1074100006C08091E1008B7F8093E100A2DB809128
:10742000DA0080FF1BC08091D80080FF17C08091D8
:10743000DA008E7F8093DA008091D90080FF0BC044
:1074400084E189BD86E189BD09B400FEFDCF81E0FC
:107450008BBD41DB03C019BC1BBC3FDB8091E1004D
:1074600080FF17C08091E20080FF13C08091E2008E
:107470008E7F8093E2008091E20080618093E20041
:107480008091D80080628093D80019BC85E08BBDC4
:10749000A3DB8091E10084FF2EC08091E20084FF95
:1074A0002AC084E189BD86E189BD09B400FEFDCF13
:1074B0008091D8008F7D8093D8008091E1008F7EED
:1074C0008093E1008091E2008F7E8093E2008091C2
:1074D000E20081608093E20080916506882311F0CC
:1074E00084E007C08091E30087FD02C081E001C015
:1074F00083E08BBD73DB8091E10083FF21C080912D
:10750000E20083FF1DC08091E100877F8093E1004E
:1075100082E08BBD109265068091E1008E7F8093A2
:10752000E1008091E2008E7F8093E2008091E20092
:1075300080618093E20042E060E080E00FDE4ADBA1
:10754000FF91EF91BF91AF919F918F917F916F913B
:107550005F914F913F912F910F900BBE0F900FBEF7
:107560000F901F9018951F93CF93DF93CDB7DEB781
:10757000AA970FB6F894DEBF0FBECDBFE8E6F6E0DF
:1075800088E08E0F9091F10091938E13FBCFD0DAAB
:107590008091E80083FF1EC1809168069091690682
:1075A000492F50E04A30510508F014C1FA01E7595B
:1075B000FF4FBDC3803821F0823809F00BC106C0EF
:1075C00080916606882391F082E011C080916C065C
:1075D0008F70873008F0FEC08093E9008091EB0047
:1075E00085FB882780F91092E90001C080E0909126
:1075F000E800977F9093E8008093F1001092F100EB
:10760000CAC0282F2D7F09F0E5C0882319F08230E9
:1076100061F0E0C080916A06813009F0DBC09330F0
:1076200009F080E0809366062EC080916A06811181
:107630002AC080916C068F702FEF280F263008F03B
:10764000C9C08093E9002091EB0020FF1CC093305B
:1076500021F48091EB00806214C09091EB00906166
:107660009093EB0021E030E0A90102C0440F551FC8
:107670008A95E2F74093EA001092EA008091EB00CD
:1076800088608093EB001092E9008091E800877F8A
:107690008093E800E0DD9EC081119CC010916A06D5
:1076A0001F778091E3008078812B8093E3008091A5
:1076B000E800877F8093E800CEDD8091E80080FFBE
:1076C000FCCF8091E30080688093E300111102C039
:1076D00082E001C083E08BBD7DC08058823008F01D
:1076E00079C080916A0690916B068C3D53E09507B6
:1076F00071F583E08A838AE289834FB7F894DE01CB
:10770000139620E03EE051E2E32FF0E05093570063
:10771000E49120FF03C0E295EF703F5FEF708E2F82
:1077200090E0EA3010F0C79601C0C0968D939D930B
:107730002F5F243149F74FBF8091E800877F809306
:10774000E8006AE270E0CE01019610DC13C060919F
:107750006C0670916D06AE014F5F5F4F5BD9BC0147
:10776000892BC1F19091E800977F9093E80089817F
:107770009A8197DC8091E8008B778093E8002AC09B
:10778000803841F58091E800877F8093E800809100
:1077900065068093F1008091E8008E7779CF8111A2
:1077A00019C090916A069230A8F48091E800877F12
:1077B0008093E800909365064EDD80916506811107
:1077C00006C08091E30087FD02C081E001C084E033
:1077D0008BBD84D98091E80083FF0AC08091E800C6
:1077E000877F8093E8008091EB0080628093EB00BC
:1077F000AA960FB6F894DEBF0FBECDBFDF91CF9132
:107800001F910895CF938BB5882399F0C091E9001B
:10781000CF709091EC00892F817090FD80E8C82B8B
:107820001092E9008091E80083FD9DDECF70C09347
:10783000E900CF9108956F927F928F929F92AF92BD
:10784000BF92CF92DF92EF92FF920F931F93CF934D
:10785000DF9300D01F92CDB7DEB77C01CDB6DEB688
:107860008091E80083FF08C1F701808190E02091BA
:107870006C0630916D062817390709F0FDC080911C
:107880006906833009F49FC030F4813071F0823092
:1078900009F4D6C0F1C08A3009F4BAC08B3009F4BB
:1078A000A3C0893009F0E8C051C080916806813AD0
:1078B00009F0E2C08DB69EB61A82198280916A06DE
:1078C00010916B068B83F7018085482F50E08DB7B0
:1078D0009EB7841B950B0FB6F8949EBF0FBE8DBF4D
:1078E000EDB7FEB731965F0160E070E0CF013ED2A8
:1078F0004FEF410F8E010F5F1F4F9501BE016D5F6E
:107900007F4FC7016DD9F70186819781009721F0DC
:10791000408550E0B50121D21092E9008091E80045
:10792000877F8093E8008B8181118093F1006981CA
:107930007A81C5011BDB8091E8008B778093E8009A
:107940000FB6F8949EBE0FBE8DBE96C0809168069D
:10795000813209F091C0ADB6BEB600916E061091AD
:107960006F0670906A0660906B068DB79EB7801B9D
:10797000910B0FB6F8949EBF0FBE8DBFEDB7FEB74B
:1079800031964F018091E800877F8093E800B8012D
:10799000CF014BDB8091E8008E778093E80021E0F7
:1079A000711001C020E030E0021B130B280D391DBF
:1079B0004FEF460D672DC701B3D90FB6F894BEBE81
:1079C0000FBEADBE59C080916806813A09F054C01F
:1079D0008091E800877F8093E8008091E80080FF35
:1079E000FCCFF701818540C080916806813209F0A3
:1079F00043C08091E800877F8093E8002CDC909161
:107A00006A0681E0911101C080E0F701818734C0EE
:107A100080916806813281F58091E800877F8093AC
:107A2000E80019DC80916A0690916B06882736E0A1
:107A3000969587953A95E1F7F701958784871CC05D
:107A400080916806813AC1F48091E800877F809335
:107A5000E8008091E80080FFFCCFF70184859585E0
:107A600096958795969587958093F1008091E8008B
:107A70008E778093E800EFDB0FB6F894DEBE0FBE82
:107A8000CDBE0F900F900F90DF91CF911F910F916E
:107A9000FF90EF90DF90CF90BF90AF909F908F902E
:107AA0007F906F900895FC01399627E0DF011D92C9
:107AB0002A95E9F721E0FC01218724EF31E03587A1
:107AC000248723E0248361E001967DCB4F925F926F
:107AD0006F927F928F929F92AF92BF92CF92DF92DE
:107AE000EF92FF920F931F93CF93DF9300D01F92DB
:107AF000CDB7DEB77C01ADB6BEB68BB5843009F02C
:107B00008DC08091E4009091E500F70122853385D6
:107B10002817390709F482C081818F708093E900AA
:107B20008091E80085FF7AC08DB69EB6408550E012
:107B30008DB79EB7841B950B0FB6F8949EBF0FBEF2
:107B40008DBFEDB7FEB731966F011B821A82198285
:107B500060E070E0CF010AD18E010F5F1F4F9601E8
:107B600040E0BE016D5F7F4FC7013AD8482EF70154
:107B700084859585892B51F091E080E026853785B5
:107B8000232B09F090E0092F182F02C000E010E02D
:107B9000F701668077806114710489F049815A8108
:107BA000B301C601CDD055245394892B09F4512C2F
:107BB000F701408550E0B601C301CFD001C0512C80
:107BC00089819A81892BF1F0411004C0511002C0C3
:107BD000012BC1F0F7018485958597878687818180
:107BE0008F708093E9008B8181118093F10069810E
:107BF0007A8140E050E0C6016FD98091E8008E772D
:107C00008093E8008091E4009091E500F70193876C
:107C100082870FB6F8949EBE0FBE8DBE0FB6F89445
:107C2000BEBE0FBEADBE0F900F900F90DF91CF91F3
:107C30001F910F91FF90EF90DF90CF90BF90AF908A
:107C40009F908F907F906F905F904F9008950895D0
:107C50000E94B8300E94B0210E94E0330E94A131FE
:107C60000E946F2E0E9408290E9413330E94AC1FAD
:107C70000E943C34DAD80E940A3295DB7894089549
:107C80008BB5843010F4F5D8FBCF0E944834809136
:107C9000C401811102C0EDD8FACF0C94643429DB01
:107CA000F8942FEF87EA91E6215080409040E1F769
:107CB00000C000008091C401823011F40E94CF30D6
:107CC0008091C401882359F09CE088E10FB6F894B4
:107CD000A895809360000FBE90936000FFCF089539
:107CE000B6DFB6DFCDDFDBDF80E090E00895991BE3
:107CF00079E004C0991F961708F0961B881F7A95A3
:107D0000C9F780950895AA1BBB1B51E107C0AA1FA4
:107D1000BB1FA617B70710F0A61BB70B881F991F2C
:107D20005A95A9F780959095BC01CD010895EE0F65
:107D3000FF1F0024001C0BBE0790F691E02D099454
:107D4000FB01DC0104C08D910190801921F44150A8
:107D50005040C8F7881B990B0895FB01DC0102C055
:107D600001900D9241505040D8F70895DC0101C0B8
:107D70006D9341505040E0F70895F999FECF92BDC0
:107D800081BDF89A992780B50895A8E1B0E042E056
:107D900050E01CC0DC01CB0102C02D9105D0415048
:107DA0005040D8F70895262FF999FECF1FBA92BDFB
:107DB00081BD20BD0FB6F894FA9AF99A0FBE0196CC
:107DC0000895F1DF272FF0CFDC01CB01FC01F999F9
:107DD000FECF06C0F2BDE1BDF89A319600B40D9217
:0C7DE00041505040B8F70895F894FFCFD0
:107DEC0000830E00000100000E00000000000000E7
:107DFC0000820300000100000200000000000000EF
:107E0C0000840300000100000300000000000000DB
:107E1C0000810800000100000800000000000000C4
:107E2C002400250023002700280026002A002B0010
:107E3C0029002D002E002C00300031002F002100D5
:047E4C0022002000F0
:00000001FF
