:100000000C949B200C94EC200C94EC200C94EC2091
:100010000C94EC200C94EC200C94EC200C94EC2030
:100020000C94EC200C94EC200C94E43A0C94EC200E
:100030000C941D310C94EC200C94EC200C94EC20CE
:100040000C94EC200C94A6350C94EC200C94EC2031
:100050000C94EC200C94EC200C94EC200C94EC20F0
:100060000C94EC200C94EC200C94EC200C94EC20E0
:100070000C94EC200C94EC200C94EC200C94EC20D0
:100080000C94EC200C94EC200C94EC200C94EC20C0
:100090000C94EC200C94EC203128D423DA23FB239D
:1000A0000124A725AD25C924CF24D625F82512265D
:1000B0002C2641269726D526EB271028F2260E2738
:1000C0002D2752276B279027B027C927D53BFC3B0C
:1000D000E73CFC3BE73C473C693CE73CBC3CCB3C59
:1000E0000000000000000000000000000000000010
:1000F0002A002B002800000000002800000000005B
:1001000000000000000000000000000000000000EF
:1001100000000000000029000000000000000000B6
:100120002C001E023402200221022202240234008A
:100130002602270225022E0236002D003700380045
:1001400027001E001F0020002100220023002400A1
:10015000250026003302330036022E003702380213
:100160001F020402050206020702080209020A022F
:100170000B020C020D020E020F02100211021202FB
:1001800013021402150216021702180219021A02AB
:100190001B021C021D022F003100300023022D0221
:1001A00035000400050006000700080009000A00E9
:1001B0000B000C000D000E000F00100011001200CB
:1001C00013001400150016001700180019001A007B
:1001D0001B001C001D002F023102300235024C00B2
:1001E000000000000000000000000000000000000F
:1001F00000000000000000000000000000000000FF
:1002000000000000000000000000000000000000EE
:1002100000000000000000000000000000000000DE
:1036A000000000000000FF00FF00FF00FF00FF001F
:1036B000FF00FF00FF00FF00FF00FF00FF00FF0012
:1036C000FF00FF00FF00FF00FF00FF00FF00FF0002
:1036D000FF000000000000000000000000000000EB
:1036E00000000000000000000000000000000000DA
:1036F00000000000000000000000000000000000CA
:103700000000080C000000000000000000000000A5
:1037100000000000000000000000000000000000A9
:103720000000000000000000000000000000000099
:103730000000000000000000000000000000000089
:103740000000000000000000000000000000000079
:103750000000000000000000000000000000000069
:103760000000000000000000000000000000000059
:103770000000000000000000000000000000000049
:103780000000000000000000000000000000000039
:103790000000000000000000000000000000000029
:1037A0000000000000000000000000000000000019
:1037B0000000000000000000000000000000000009
:1037C00000000000000000000000000000000000F9
:1037D0000000000010389E3316310000A433E63399
:1037E000163100002638AD3316310000B9338E2271
:1037F000BB2316314F7574206F662072616E67654A
:103800002E0A00456E746572206E657720646566C9
:1038100061756C742064696D6D6572206C65766588
:103820006C2028312D3136293E2000456E7465729A
:10383000206E65772064656661756C7420626163D3
:103840006B6C6967687420656E61626C65202831F5
:103850002D3136293E2000456E746572206E6577E5
:10386000206D61747269782073657475702077615A
:10387000697420696E206379636C65732028312D2B
:10388000323535293E2000456E746572206E6577AD
:10389000207265706561742074696D6520696E20A1
:1038A0006D732028312D3939293E2000456E74650D
:1038B00072206E657720686F6C642074696D652076
:1038C000696E206D732028312D393939293E200049
:1038D000456E746572206E6577206D6F7573652017
:1038E0006D6F76656D656E74206D756C7469706C46
:1038F0006965722028312D3939293E2000456E74C2
:103900006572206E65772062617365206D6F7573D7
:1039100065206D6F76656D656E742028312D39399F
:10392000293E2000456E746572206E657720646FB5
:1039300075626C657461702064656C61792074696E
:103940006D6520696E206D732028312D3939392934
:103950003E2000456E746572206E6577207461703C
:103960002074696D6520696E206D732028312D39B2
:103970003939293E2000456E746572206E657720C6
:103980006465626F756E63652074696D6520696E2C
:10399000206D732028312D3939293E20005365745C
:1039A0003A00456E746572206E65772064656661C5
:1039B000756C74206C617965722028302D39293E30
:1039C000200042797465732028686578293E2000BC
:1039D000416464726573732028686578293E20000D
:1039E00020532D3078005D20432D3078000A5B0095
:1039F0005573696E672064656661756C7420226812
:103A000061697220747269676765722220646562F9
:103A10006F756E636520616C676F726974686D2085
:103A2000616E6420726573657474696E6720646585
:103A3000626F756E63652074696D652E0A0055733B
:103A4000696E6720616C7465726E617465202263B3
:103A50006F6E6669726D22206465626F756E636554
:103A600020616C676F726974686D20616E6420728A
:103A70006573657474696E67206465626F756E63E3
:103A8000652074696D652E0A004E756D206C6F633C
:103A90006B206973206C696E6B656420746F207491
:103AA00068652073797374656D206E756D206C6F19
:103AB000636B2E0A004E756D206C6F636B20776907
:103AC0006C6C2066756E6374696F6E20696E6465D8
:103AD00070656E64656E746C79206F6620746865BD
:103AE0002073797374656D206E756D206C6F636BD8
:103AF0002E0A004B6579626F6172642077696C6C85
:103B000020757365204E4B524F20696E7465726646
:103B100061636520696620697420697320656E6140
:103B2000626C65642E0A004B6579626F6172642075
:103B30006973206C696D6974656420746F20737497
:103B4000616E6461726420364B524F20626F6F74F5
:103B50002D636F6D70617469626C65206B6579624D
:103B60006F617264206F6E6C792E0A005363726FFE
:103B70006C6C206C6F636B2077696C6C206E6F745B
:103B8000206166666563742077696E206C6F636B75
:103B90002E0A0057696E646F7773206B6579207702
:103BA000696C6C2062652064697361626C65642075
:103BB0007768656E207363726F6C6C206C6F636BDB
:103BC00020697320656E61626C65642E0A004E7513
:103BD0006D206C6F636B2077696C6C206E6F742046
:103BE000616666656374206E756D62657220726FC2
:103BF000772E0A004E756D62657220726F7720779E
:103C0000696C6C20626520737761707065642066F2
:103C10006F72206E756D706164206B6579732077AB
:103C200068656E206E756D206C6F636B2069732004
:103C3000656E61626C65642E0A00496E7075742051
:103C40006E6F74207265636F676E697A65642E0AA1
:103C5000000A54696D696E67204D656E753A0A31C8
:103C60002920536574206465626F756E63652074E6
:103C7000696D650A322920536574206D617820686A
:103C80006F6C642074696D6520666F72207461705A
:103C90000A332920536574206D61782064656C6156
:103CA000792074696D6520666F7220646F75626C2F
:103CB00065207461700A3429205365742062617331
:103CC00065206D6F757365206D6F76656D656E74BB
:103CD0000A352920536574206D6F757365206D6FEB
:103CE00076656D656E74206D756C7469706C696550
:103CF000720A362920536574206D696E20686F6CD6
:103D0000642074696D6520666F72207265706561EC
:103D1000740A3729205365742072657065617420B8
:103D2000706572696F640A382920536574206D616B
:103D30007472697820736574757020776169740A8C
:103D40003929204261636B0A3E20000A436F6E6688
:103D50006967204D656E753A0A312920546F67678F
:103D60006C65207669727475616C206E756D20705B
:103D700061640A322920546F67676C652077696E29
:103D8000206C6F636B206F6E207363726F6C6C209E
:103D90006C6F636B0A332920536574206465666118
:103DA000756C74206C617965720A342920546F67D0
:103DB000676C65206B6579626F617264206665610E
:103DC00074757265730A352920546F67676C6520B6
:103DD000756E6C696E6B206E756D206C6F636B0A0F
:103DE0003629205365742064656661756C7420649F
:103DF000696D6D6572206C6576656C0A3729205394
:103E000065742064656661756C74206261636B6CB7
:103E10006967687420656E61626C650A3829205490
:103E20006F67676C65206465626F756E636520738C
:103E300074796C650A3929204261636B0A3E20005F
:103E40000A4465627567204D656E753A0A3129200E
:103E50005072696E74206576656E74730A3229201B
:103E6000436C656172206576656E74730A33292030
:103E70004578616D696E65206D656D6F72790A3484
:103E800029205072696E742F636C65617220636CB7
:103E90006F636B2D696E730A3929204261636B0A67
:103EA0003E20000A4D61696E204D656E753A0A31FB
:103EB0002920436F6E666967206D656E750A322929
:103EC0002054696D696E67206D656E750A3329200F
:103ED0004465627567206D656E750A3429205265E8
:103EE0007365740A392920517569740A3E20001ED1
:103EF0004D1F51204E21502200234F244A25522687
:103F00004B2749374CB500B600B700CD006F0070A5
:103F100000E200E500E900EA0052015301540155B6
:103F20000183018A019201940121022302240225C6
:103F300002260227022A02B101B202B304B408B574
:103F400010E001E102E204E308E410E520E640E7C6
:103F5000800105080A0C0F101414181800F0AC06A4
:103F60000001B5060101B9060201AA060301B00667
:103F70000401B8060501BA060601AD060701A80648
:103F80000801B2060902AE060B02AB060D01B1062E
:103F90000E01B6060F02A9061101B4061201A7060A
:103FA00013014A0345006100730079004100560087
:103FB000520020004D0075006C00740069006D0017
:103FC000650064006900610020004B006500790015
:103FD00062006F0061007200640020007600230020
:103FE0002E00230023002E002300230000000403E2
:103FF000090409026D00040100A0FA09040000018F
:10400000030101000921B0010001224000070581E0
:10401000030800010904010001030000000921B0A8
:10402000010001223200070582030300080904028F
:104030000001030000000921B00100012217000760
:104040000583030D000109040300010301020009B7
:1040500021B0010001223A00070584030300051284
:1040600001000200000008EB03FF20100000010027
:1040700001050C0901A1018502160100269C021A06
:1040800001002A9C02751095018100C0050109807C
:10409000A101850319812983750195038106950581
:1040A0008101C005010902A1010901A10005091949
:1040B00001290315002501950375018102950175FC
:1040C0000581010501093009311681FF267F00367F
:1040D0000000460000950275088106C0C005010970
:1040E00006A10115002501050719002967956875C6
:1040F000018102C005010906A101050719E029E7B0
:104100001500250175019508810295017508810149
:104110000508190129059505750191029501750399
:104120009101150026FF000507190029FF95067566
:10413000088100C00F00E1E7F7E085EC90E201C0E4
:104140008193EF3FF907E0F3D9F311241FBECFEFBE
:10415000D0E2DEBFCDBFC4B714BE0FB6F894A895A9
:1041600080916000886180936000109260000FBEB3
:10417000C3FF11C080916F07909170078D3A9E4DDB
:1041800051F41092700710926F07ECE5FFE3259150
:104190003491F901099585B7806885BF85B7806836
:1041A00085BFC0936E0711E0A0E0B1E0E8EDFFE746
:1041B00000E00BBF02C007900D92A436B107D9F7FB
:1041C00026E0A4E6B1E001C01D92AA3EB207E1F7E5
:1041D0000E94663F0C94EA3F0C9400001092730119
:1041E0001092720110926E0110926D0110927C017A
:1041F00010927B0108959091280580912305892BC9
:1042000020916F01222309F43FC0811144C08091A5
:104210007101811135C080918D0181112DC0909166
:104220006801921305C010926F0110926801089501
:10423000E92FF0E0EE0FFF1FE358FE4F8081218150
:10424000813031F4209371019F5F9093680108954C
:1042500090916901921731F02093690181E0809378
:104260002805089580938D0181116DD78091680193
:104270008F5F8093680108959ED710928D010895F5
:104280008150809371010895811105C08091700162
:104290008D7F80937001089580912E0390916A0123
:1042A000981731F180936A01882311F1883211F057
:1042B000883531F4809170018B7F8093700108956F
:1042C000E0916C018A3251F4EE2391F0E150E093D9
:1042D0006C01F0E0EC58FE4F10820895E63040F497
:1042E000AE2FB0E0AC58BE4F8C93EF5FE0936C0103
:1042F00008951092690181E08093280580912E0332
:10430000811102C0109270010895BC0180916F016B
:10431000DB01982F292F281B983058F090936F01BC
:10432000620F711D27FD7A9570937C0160937B016C
:1043300022C0FD0125913491211109C090936F0194
:1043400010927C0110927B019923D1F014C0492F67
:1043500050E0F901FF27EE0FFF1FE052FF4F2591BC
:104360003491440F551FFA01E358FE4F31832083E7
:104370009F5F1196CFCF8091700183608093700111
:1043800081E0089540916F0128E030E0241B31095D
:104390002617370758F1B0E04B2F0B2E000C550BAA
:1043A00046175707D8F4A0916F012A2F30E0FC017F
:1043B000E40FF51FE081F0E0EE0FFF1FE052FF4F2A
:1043C00045915491220F331FF901E358FE4F518359
:1043D0004083AF5FA0936F01BF5FDECF672B41F0DB
:1043E0008091700183608093700102C080E0089525
:1043F00081E0089590916F01983090F4E92FF0E0FA
:10440000EE0FFF1FE358FE4F808361839F5F909301
:104410006F018091700183608093700181E0089545
:1044200080E008959C0190916F0191112EC0A90127
:10443000983049F490936F01205F3F4F30937301A0
:10444000209372011BC0FA01659174914E5F5F4F1A
:104450006115710549F490936F01109273011092E8
:104460007201992381F00AC0E92FF0E0EE0FFF1FDF
:10447000E358FE4F718360839F5FDACF80917001B4
:1044800083608093700181E0089580E00895AC011D
:1044900080916F0181113EC060937A01282F082E10
:1044A000000C330B2617370758F590916F01220F38
:1044B000331F983038F0240F351F30936E0120934E
:1044C0006D011EC0FA01E20FF31F20813181E92F37
:1044D000F0E0EE0FFF1FE358FE4F318320839F5F14
:1044E00090936F0190917A01915090937A0191117C
:1044F00005C010926E0110926D0102C08F5FCECF89
:1045000080916F01882341F08091700183608093D6
:10451000700102C080E0089581E0089590917001DB
:10452000992329F191FD67CE209172013091730199
:104530002115310511F0C90175CF20916D01309120
:104540006E012115310539F060917A01062E000CBB
:10455000770BC9019CCF20917B0130917C01211503
:10456000310511F0C901D1CE92FD96CEC2CE08958B
:10457000E4E7F1E010821182128213821482158224
:1045800010926C0180912E0380936A0180917001DA
:10459000856080937001089508959091C4019031D1
:1045A00078F4E92FF0E09F01220F331FE20FF31F91
:1045B000E157FE4F8083728361839F5F9093C401B4
:1045C000089541111BC04091C40150E090E0292F93
:1045D000092E000C330B2417350784F4F901EE0F74
:1045E000FF1F2E0F3F1FF901E157FE4F20812813B7
:1045F00003C07283618308959F5FE9CFCECF8A3075
:1046000010F4805D0895895C08951F93CF93DF9324
:10461000182FEB0182958F70F2DF8883812F8F70C6
:10462000EEDF8983DF91CF911F9108951F93CF9380
:10463000DF93182FEB01892FE8DFBE016E5F7F4FFC
:10464000812FDF91CF911F91E0CF8F929F92AF92F8
:10465000BF92CF92DF92EF92FF920F931F93CF936F
:10466000DF931F92CDB7DEB79C018B0180E3FB0186
:10467000808380E28183828383E0E82EF12C94E6BC
:10468000892E912C4AE0B42E682D70E0911003C061
:104690002617370790F06801C90CD11C97FCDA94F3
:1046A000C9010E94793FA82E862F9983A8DFF601C1
:1046B00080832A2D9981392F9394882D6B2D0E9408
:1046C0006D3F882EF1E0EF1AF108F1F60F90DF91BF
:1046D000CF911F910F91FF90EF90DF90CF90BF90FF
:1046E000AF909F908F90089597EA980F993010F4AB
:1046F0008855089592EE980F993010F48D510895D1
:104700009CEF980F963010F48A5F089580E008952A
:10471000BF92CF92DF92EF92FF920F931F93CF93AE
:10472000DF937C018B0180E090E0B12CC42FD0E0BE
:104730002B2D0B2C000C330B2017310790F48C9F82
:1047400060018D9FD00C9C9FD00C1124F701E20FCB
:10475000F31F8081C9DF9601280F311DC901B39471
:10476000E7CFDF91CF911F910F91FF90EF90DF90F6
:10477000CF90BF9008950F931F93CF93DF9300D0F6
:1047800000D0CDB7DEB78091700181116AC4E0918D
:104790008E018E2F90E08A31910508F060C4FC01F3
:1047A000E45BFF4F0C948D3F83EA9EE3AEDDE0DED9
:1047B00082E011C011E010938E018091740194DFAA
:1047C000893009F44CC4843019F41093C50149C4EC
:1047D000813021F483E080938E0143C4823011F450
:1047E00087E0F9CF833021F4EEC1883009F4B3C0FB
:1047F0008AE39CE320C08BE49DE387DDB9DE84E09F
:10480000EACF83E080938E01809174016DDF89305F
:1048100011F481E0E0CF813099F49091B9068927B5
:104820008093B90682E00E94C7348091B90688233C
:1048300021F084EF9BE369DD14C48EEC9BE3FBCF96
:10484000823099F49091B50681E089278093B5066E
:1048500081E00E94C7348091B506882319F083E96E
:104860009BE3E9CF8CE69BE3E6CF8330B1F48DE99F
:1048700099E34BDDBE016F5F7F4F8091AA06C5DED5
:104880008AE08B8363E070E0CE0101967BDD82EAF3
:1048900099E33BDD6DDE8FE09ECF843099F49091FB
:1048A000B80681E089278093B80685E00E94C73466
:1048B0008091B806882319F087E29BE3BCCF83EF91
:1048C0009AE3B9CF853099F49091AD0681E08927BC
:1048D0008093AD0687E00E94C7348091AD0688239F
:1048E00019F085EB9AE3A7CF89E89AE3A4CF863045
:1048F000B9F48DE999E309DD8091B006BE016F5FDF
:104900007F4F90E0A2DE8AE08B8363E070E0CE010F
:10491000019638DD83E098E3F8DC2ADE80E15BCFA6
:10492000873009F062CF8DE999E3EFDC8091A8062A
:1049300090E0BE016F5F7F4F019687DE8AE08B8338
:1049400063E070E0CE0101961DDD8BE298E3DDDCD3
:104950000FDE81E140CF9091A70681E08927809307
:10496000A70680E10E94C7348091A706882341F002
:1049700086E08093BA060E94C7348EE39AE35BCF49
:104980008CE08093BA0686E00E94C73480EF99E3FA
:1049900052CF81E59CE3B9DCEBDD88E01CCF87E0FA
:1049A00080938E01809174019FDE893009F431CFAC
:1049B0008130B9F48DE999E3A8DC8091BA06BE0193
:1049C0006F5F7F4F90E041DE8AE08B8363E070E0B1
:1049D000CE010196D7DC86E799E397DCC9DD82E159
:1049E000FACE8230C1F48DE999E38FDCBE016F5FAE
:1049F0007F4F8091B2069091B30627DE8AE08C83C8
:104A000064E070E0CE010196BDDC83E599E37DDCD6
:104A1000AFDD83E1E0CE8330D9F48DE999E375DC35
:104A20008091AE069091AF06BE016F5F7F4F91956A
:104A3000819591090ADE8AE08C8364E070E0CE0102
:104A40000196A0DC84E299E360DC92DD84E1C3CED0
:104A50008430B9F48DE999E358DC8091AB06BE014E
:104A60006F5F7F4F90E0F1DD8AE08B8363E070E061
:104A7000CE01019687DC8DEF98E347DC79DD85E197
:104A8000AACE8530B9F48DE999E33FDC8091B10677
:104A9000BE016F5F7F4F90E0D8DD8AE08B8363E0DB
:104AA00070E0CE0101966EDC80ED98E32EDC60DDD7
:104AB00086E191CE8630C1F48DE999E326DCBE0112
:104AC0006F5F7F4F8091B6069091B706BEDD8AE09A
:104AD0008C8364E070E0CE01019654DC8CEA98E3AC
:104AE00014DC46DD87E177CE8730B9F48DE999E3B0
:104AF0000CDC8091A906BE016F5F7F4F90E0A5DDC1
:104B00008AE08B8363E070E0CE0101963BDC87E8AE
:104B100098E3FBDB2DDD88E15ECE883009F0A1C291
:104B20008DE999E3F2DB8091B406BE016F5F7F4FA0
:104B300090E08BDD8AE08C8364E070E0CE0101962A
:104B400021DC87E598E3E1DB13DD89E144CE80E4F5
:104B50009EE3DBDB0DDD86E03ECE85E080938E01BB
:104B600080917401C1DD893009F453CE813011F494
:104B700089E031CE823069F4EFE8F1E010821282F0
:104B80001182339641E0EF3BF407C1F71092C40164
:104B900068C2833031F480ED99E3B7DBE9DC8CE067
:104BA0001ACE843009F024CE8EE015CE8091C30158
:104BB000803158F01092C3018AE0898361E070E08F
:104BC000CE010196DFDB85E006CE8DEE99E39DDB1D
:104BD000BE016F5F7F4F8091C30117DD62E070E01F
:104BE000CE010196CFDB86EE99E38FDB8AE0F3CD31
:104BF0008091C30190E0FC01EE0FFF1F8E0F9F1FFD
:104C0000FC01E157FE4FBE016F5F7F4F8081FDDCED
:104C100062E070E0CE010196B5DB80EE99E375DBD2
:104C20008BE0D9CD8091C30190E0FC01EE0FFF1F16
:104C30008E0F9F1FFC01E157FE4FBE016F5F7F4F3C
:104C400081819281F3DC64E070E0CE0101969ADB11
:104C500089E080938E01A3C060916C0170E040E117
:104C600084E791E055DD9093C0018093BF011092DD
:104C7000C2011092C10182EC99E347DB79DC8DE03F
:104C8000AACD8091C1019091C201892B89F4009134
:104C9000BF011091C00160916C0170E040E184E7B8
:104CA00091E036DD800F911F9093C2018093C10186
:104CB00010E20AE0E091BF01F091C0018091C101D2
:104CC0009091C201E817F907D8F4BE016F5F7F4FDA
:104CD00080819BDC8091C1019091C201019720915C
:104CE000BF013091C0012817390711F40B8301C0AF
:104CF0001B8363E070E0CE01019644DB81110DC09F
:104D00002091BF013091C0018091C1019091C201F9
:104D10002817390708F057CFA4C18091BF0190919F
:104D2000C00101969093C0018093BF01C3CF8091D1
:104D3000C301803178F01092C3018AE0898361E079
:104D400070E0CE0101961EDB85E080938E010E940B
:104D5000CD3587C1182F1370082F069506951111B0
:104D600002C08AE001C080E2898361E070E0CE0188
:104D7000019608DB84E0189FF0011124E00FF11D7B
:104D8000EE0FFF1FE354F94FBE016F5F7F4F80812D
:104D900091814CDC64E070E0CE010196F3DA809101
:104DA000C3018F5F8093C3015CC160916C0170E0AF
:104DB0004AE084E791E0ACDC8A30910578F4809396
:104DC000AA0683E00E94C7348DE999E39EDABE010A
:104DD0006F5F7F4F8091AA0618DC1AC184EF97E3BA
:104DE00094DAF8CC60916C0170E04AE084E791E0DD
:104DF0008FDC9C01215031092336310558F4809312
:104E0000BA0686E00E94C7348DE999E37EDA809184
:104E1000BA0679C084EF97E378DAE2CC60916C014E
:104E200070E04AE084E791E073DC9C012150310995
:104E3000273E334078F79093B3068093B20689E01B
:104E40000E94C7348DE999E360DABE016F5F7F4F3E
:104E50008091B2069091B306B8C060916C0170E089
:104E60004AE084E791E054DC9C0121503109273E5F
:104E7000334080F69195819591099093AF06809388
:104E8000AE068AE00E94C7348DE999E33EDA80914C
:104E9000AE069091AF06BE016F5F7F4F91958195F1
:104EA000910993C060916C0170E04AE084E791E061
:104EB0002FDC9C01215031092336310508F0AACF9F
:104EC0008093AB068BE00E94C7348DE999E31DDA2D
:104ED0008091AB0618C060916C0170E04AE084E7F5
:104EE00091E016DC9C01215031092336310508F090
:104EF00091CF8093B1068CE00E94C7348DE999E38D
:104F000004DA8091B106BE016F5F7F4F90E09DDBB8
:104F10008AE08B8363E070E0CE01019633DA60CCE7
:104F200060916C0170E04AE084E791E0F1DB9C0164
:104F300021503109273E334008F06CCF9093B706DB
:104F40008093B6068DE00E94C7348DE999E3DDD9E0
:104F5000BE016F5F7F4F8091B6069091B70635C056
:104F600060916C0170E04AE084E791E0D1DB9C0144
:104F7000215031092336310508F04CCF8093A90622
:104F80008EE00E94C7348DE999E3BFD98091A906CC
:104F9000BACF60916C0170E04AE084E791E0B8DB41
:104FA0009C01215031092F3F310508F033CF809308
:104FB000B4068FE00E94C7348DE999E3A6D98091A9
:104FC000B406BE016F5F7F4F90E03FDB8AE08C83C9
:104FD00064E070E0A1CF60916C0170E04AE084E78A
:104FE00091E096DB9C01215031092031310508F018
:104FF000F5CE8093B00684E00E94C7348DE999E332
:1050000084D98091B006BE016F5F7F4F90E01DDBB9
:105010008AE08B8363E070E0CE010196B3D9DACBEE
:1050200060916C0170E04AE084E791E071DB9C01E3
:10503000215031092031310508F0D0CE81508093C4
:10504000A80688E00E94C7348DE999E35ED9809173
:10505000A80690E0BE016F5F7F4F0196D8CF1092F7
:105060008E010F900F900F900F90DF91CF911F91B5
:105070000F91089526E0829FC0011124FC01E05C9D
:10508000FE4F0190F081E02D208181E090E001C091
:10509000880F6A95EAF7822B8083089526E0829F25
:1050A000C0011124FC01E05CFE4F0190F081E02D75
:1050B000808160956823462B4083089526E0829F77
:1050C000C0011124FC01E05CFE4F0280F381E02D61
:1050D000208181E090E001C0880F6A95EAF7822B79
:1050E0008083089526E0829FC0011124FC01E05CCA
:1050F000FE4F0280F381E02D208181E090E001C02D
:10510000880F6A95EAF7809582238083089526E0C8
:10511000829FC0011124FC01E05CFE4F0280F381FC
:10512000E02D80816823462B4083089526E0829FEE
:10513000C0011124FC01E05CFE4F0480F581E02DEC
:10514000808186230895E82FE695E695E695F0E0C0
:10515000EF5DFC4F982F977021E030E001C0220FE7
:105160009A95EAF79081292B208391E0909323056B
:1051700090911B0320E029175CF4E22F022E000C13
:10518000FF0BE25DFC4F30813817A1F02F5FF3CFAA
:1051900096305CF4E92F092E000CFF0BE25DFC4F0A
:1051A00080839F5F90931B0308951092340381E0E6
:1051B000809327050895E82FE695E695E695F0E0BB
:1051C000EF5DFC4F982F977021E030E001C0220F77
:1051D0009A95EAF7209590812923208391E0909376
:1051E000230590911B034EE253E0FA012E2F241B5E
:1051F000291724F431913813F9CF01C00895E22F13
:10520000022E000CFF0BE25DFC4F818180832F5F3B
:105210002917ACF3915090931B0310922705089522
:10522000E82FE695E695E695F0E0EF5DFC4F982FC8
:10523000977021E030E001C0220F9A95EAF7908143
:105240002927208391E09093230590911B034EE240
:1052500053E0FA012E2F241B291724F4319138131F
:10526000F9CF13C096305CF4E92F092E000CFF0B28
:10527000E25DFC4F80839F5F90931B030895109223
:10528000340381E0809327050895E22F022E000C5D
:10529000FF0BE25DFC4F818180832F5F2917ACF308
:1052A000915090931B0310922705089590917604D6
:1052B00094305CF4E92F092E000CFF0BE45EFC4FE8
:1052C00080839F5F90937604089540E060E070E0F3
:1052D00082E477D9109220030895209176044CE15E
:1052E00053E0FA019E2F941B92179CF431913813CE
:1052F000F9CF921751F0E92F092E000CFF0BE45E55
:10530000FC4F818180839F5FF4CF9150909376040E
:105310000895682F70E040E083E453C98091AA06A5
:1053200080932B05089598E1899F600D1124809149
:10533000160368130DC08091AE069091AF068417D6
:10534000950734F480912A058F5F80932A0508958C
:105350001092160310922A050895E091B206F0917A
:10536000B3064E175F0754F491E0F9019083F8E11A
:105370008F9F600D1124609316030895F901108228
:105380001092160310922A05089590917A01E92F40
:10539000EE0FFF0BEA5CFC4F2091180330E0322F38
:1053A0002227282B318320839F5F90937A010895D1
:1053B00090912D05911110C0805D803168F4E82F27
:1053C000F0E0EE0FFF1FEB56FA4E85919491880F97
:1053D000991F8B569A4E26C80895CF93DF93C82FF6
:1053E000D62F80912B05882311F08B5F8AD580E121
:1053F0008C0F80932B055ADF80912B05882311F0A9
:105400008B5F5FD590912B058091AA06981711F0BC
:105410008FE057D580912B0590911703D0FF02C0E4
:10542000981308C0981308C080912A05811104C000
:105430008091AA0680931703DF91CF910895E82FFA
:10544000F0E0E052FE4F8491882311F060E0C5CF78
:1054500008950F931F93CF93DF9300D01F92CDB782
:10546000DEB7082F10E1180F80912B05882341F03B
:105470008B5F2B834A83698344D569814A812B8161
:10548000222389F180912B0581132DC080912A055B
:10549000882319F061FD1093170380911A0380137C
:1054A00022C062FF20C08FEF840F873620F4609106
:1054B0001803842F16C0842F807E803EA1F4E42F31
:1054C000F0E0EE0FFF1FEE57F24C84918095909123
:1054D000180389238093180381E080932805649141
:1054E00080E00E94FA21812FF8DEE0917604E1113C
:1054F00003C08091170306C00E2E000CFF0BE55E63
:10550000FC4F808180932B0580912B05882311F01F
:105510008B5FD7D490912B058091AA06981309C070
:105520008FE00F900F900F90DF91CF911F910F910F
:10553000E8C40F900F900F90DF91CF911F910F91C2
:105540000895E82FF0E0E052FE4F8491882321F087
:1055500020E040E060E07DCF08956F70623051F050
:1055600028F4662339F06130E1F00895643011F0D9
:10557000683011F5E82FF0E0EE0FFF1FEE57F24C08
:10558000E49180911803E82BE0931803809129059A
:10559000882319F0E777E093180381E080932805CA
:1055A0000895E82FF0E0EE0FFF1FEE57F24CE49164
:1055B00080911803E827E8CF08956F70623009F4EE
:1055C00047C020F4662309F437C00895643019F009
:1055D000683091F10895E82FF0E0EE0FFF1FEE57CD
:1055E000F24CE491E095609118036E2360931803E8
:1055F00091E090932805222309F44BC090911A035F
:10560000981347C08FEF840F873610F4842F12C091
:10561000842F807E803E09F03CC0E42FF0E0EE0F46
:10562000FF1FEE57F24C8491809568236093180316
:10563000649180E00C94FA21E82FF0E0EE0FFF1F58
:10564000EE57F24CE491E09580911803E8231CC0DA
:10565000E82FF0E090911803EE0FFF1FEE57F24C89
:10566000222379F080912A05882359F08491E82F2C
:10567000E92BE093180380912905882339F0E77717
:1056800003C0E491E095E923E093180381E080935F
:10569000280508956F70623051F028F4662339F0C0
:1056A000613031F00895643011F0683011F44BCD61
:1056B000B7CD08956F70623049F018F461110DC0D4
:1056C0000BC0643049F0683041F406C0222321F059
:1056D00090912A05911101C06ECD08951F93CF932B
:1056E000DF931F92CDB7DEB7182F862F807F29F06A
:1056F0008093690181E080932805113C09F491C0F1
:1057000008F03FC0163BD0F4113B08F0CAC0133874
:1057100009F475C050F4143008F415C1143708F4B6
:105720005BC0123809F463C00EC1143809F471C0AB
:10573000E9E6E10FE93108F49FC005C1183B09F41F
:10574000C4C050F4163B09F4BAC0173B09F0FBC0C3
:10575000809125058150B6C0193B09F4BAC083E495
:10576000810F833008F0EFC081E093E4910F01C016
:10577000880F9A95EAF780932C0581E080932105A4
:10578000E8C01E3C09F46CC0B0F4193C09F45BC0DD
:1057900048F4133C09F449C008F445C0183C09F426
:1057A00046C0D1C01C3C09F4A9C008F0BBC01A3CDB
:1057B00009F4CFC0C8C0183E38F4103E08F0C0C08D
:1057C0001F3C09F098C050C080E1810F8A3008F07A
:1057D000BAC0812F02DEBDC080912605882321F04A
:1057E000812F6983D2DD6981812F54DFB2C080911E
:1057F000190381FDAEC06091180389E307C0809151
:10580000190380FDA6C06091180383E50E94FA2168
:10581000A0C08091190382FD9CC06091180387E4A9
:10582000F5CF59D496C031D494C021D492C0909170
:105830002D0581E0892780932D05811102C085E126
:105840000BC085E166C09091290581E0892780938E
:105850002905811103C085E054D37BC085E059C080
:1058600082E08093C50175C080918E01811171C065
:1058700081E080938E016DC08091770490917804CF
:10588000892B59F4F0E0EE0FFF1FEB5FF04C859190
:105890009491909378048093770481E0809322051B
:1058A00058C0EFE4E10FF0E0EE0FFF1FE85CF04CB2
:1058B000E49180912405E82BE09324054AC080916F
:1058C00025058F5F8093250509C0809135038150A0
:1058D00003C0809135038F5F809335039091A606B6
:1058E00080912A05992321F09091A406981788F5B4
:1058F0008093A4062EC0812F5BDD2BC090912605DE
:1059000081E0892780932605882329F010927A0167
:1059100080E1D7D21EC080917A01811180936B0102
:1059200080E19ACF80912605811113C060916B01AF
:10593000062E000C770B86E393E00E94472209C0F5
:10594000812F0BDE06C0612F70E040E084E40E94EE
:10595000E12210931A030F90DF91CF911F910895C8
:105960001F93CF93DF9300D01F92CDB7DEB7962F52
:10597000907F29F01092690191E090932805893B6E
:1059800009F4ACC008F03DC0803BD0F4873908F082
:1059900082C0823809F45AC060F49CEF980F9037A7
:1059A00008F0BBC00F900F900F90DF91CF911F9127
:1059B00081CE833809F452C0843809F45EC0ADC08A
:1059C000863B09F481C098F4813B08F4A6C06FE4DB
:1059D000680FE62FF0E0EE0FFF1FE85CF04CE4915B
:1059E000E09580912405E823E0932405A2C0873B3D
:1059F00009F46EC0883B09F090C0809135038F5F39
:105A000070C08B3C70F4883C08F093C08D3B08F468
:105A100084C0803CD0F19FE3980F933008F489C094
:105A20007CC0883E38F4803E08F05EC08C3C08F0B4
:105A300080C073C090E1980F9A3008F06EC00F904C
:105A40000F900F90DF91CF911F9103CD809119039B
:105A500081FF6FC06091180389E307C0809119032B
:105A600080FF67C06091180383E50F900F900F903F
:105A7000DF91CF911F910C94FA218091190382FF3D
:105A800058C06091180387E4F0CF10922C0581E094
:105A9000809321054EC069E6680FE62FF0E0EE0F17
:105AA000FF1FEB5FF04C859194912091770430912A
:105AB00078042817390721F410927804109277049B
:105AC00081E08093220535C080912505815003C077
:105AD000809125058F5F809325052BC0809135032C
:105AE00081508093350325C0182F80912605882387
:105AF00061F080911A03811308C080E02B834A83F0
:105B0000698343DC69814A812B81812F0F900F903B
:105B10000F90DF91CF911F9150CD682F70E040E042
:105B200085E40F900F900F90DF91CF911F910C940F
:105B3000E1220F900F900F90DF91CF911F91089568
:105B400020911803227291E009F090E02091B906AB
:105B5000222359F0992349F02091190320FF05C011
:105B600022EE280F2A3008F4855C2091AD0622230E
:105B700021F1833571F49091190381E08927809395
:105B8000190380FF03C080E09CD11FC080E0B9D121
:105B90001CC027EA280F2B3080F420911903E82F2E
:105BA000F0E0EE0FFF1F20FF05C0992319F0E35C22
:105BB000F14C02C0E25CF14C84918A3C39F49111C1
:105BC00002C085E3089589E2089580E00895AF92C8
:105BD000BF92CF92DF92EF92FF920F931F93CF93DA
:105BE000DF9300D01F92CDB7DEB7D82E062F10E07E
:105BF00080912B0598EAC92E98E1D99E7001112455
:105C0000F701C89EE00DF11D1124E00FF11FEB5FBD
:105C1000F04F84914A835B83698392DFB82E809131
:105C20002B059701C89E200D311D1124200F311F17
:105C3000F901EB58F74FC490F901EB51FE4FA490D6
:105C40000E0D1F1DF801E259FD4FB082F801E75813
:105C5000FB4FC082F801EA53FE4FA0824A815B816C
:105C600069818D2D60DB4A2D6C2D8B2D37DD3DD26A
:105C70000F900F900F90DF91CF911F910F91FF9098
:105C8000EF90DF90CF90BF90AF900C944E389F92E2
:105C9000AF92BF92CF92DF92EF92FF920F931F933A
:105CA000CF93DF931F92CDB7DEB798E1899F900124
:105CB0001124260F311DF901E259FD4F6F01B0800B
:105CC000F901E758FB4F7F01A08089010A531E4F5D
:105CD000F80190809E012F5F3F4F3FDB2981492DC6
:105CE0006A2D8B2D3DDEF6011082F7011082F8013E
:105CF00010820F90DF91CF911F910F91FF90EF9045
:105D0000DF90CF90BF90AF909F90089528E1829F41
:105D1000C00111249C01260F311DF901E259FD4FEC
:105D20008081F901E758FB4F908193FF1FC09FEFDF
:105D3000980F973618F46091180316C0982F907E2C
:105D4000903EA1F4E82FF0E0EE0FFF1FEE57F24C6B
:105D5000849180959091180389238093180381E0A2
:105D600080932805649180E00C94FA210895FC0149
:105D700080912D0581111DC080912705882339F060
:105D800081E08083818382838383848311C08091B7
:105D90002E03808380912F0381838091300382833F
:105DA0008091310383838091320384838091330314
:105DB0008583089520912D05211109C0DC01E1E2C0
:105DC000F3E08DE08E0F91919D938E13FCCF08959B
:105DD000FC0180912D05811106C08091690190918F
:105DE0001803982B9083089528E1829FC001112405
:105DF000FC01E60FF11DEB5FF04FE491E83211F08A
:105E0000E83539F441E060E070E081E50E94E1228C
:105E10001EC5089590E09C01220F331F820F931F2F
:105E2000FC01EC52F94C2491FC0131968E52994CB4
:105E3000EE52F94C621721F06491FC0184913EC945
:105E40006491FC0184914EC90F931F93CF93DF930C
:105E5000E3E0F7E3D49102ED16E3C0E0CD1769F07B
:105E6000F80131966491F801849104D960E08C2F97
:105E7000D1DFCF5F0D5F1F4FF1CF8091B0068093D0
:105E80003D0580933A058091A80680933805DF91FF
:105E9000CF911F910F91089580913605893F69F444
:105EA000809143058F3E19F41092430503C08F5F24
:105EB000809343051092360508958F5F80933605D1
:105EC000089590E0880F991FFC01EA55F94CA491C0
:105ED000FC01E955F94C8491E2E0F7E3E491AE1757
:105EE00078F4B0E0A25DBA4F811103C08C9181605B
:105EF00006C09C919170E82FEE0F892F8E0F8C9326
:105F0000089590E0880F991FFC01EA55F94CA4917F
:105F1000FC01E955F94C8491E2E0F7E3E491AE1716
:105F200080F4B0E0A25DBA4F811104C08C918E7FE5
:105F30008C9308959C91292F2695281302C0917067
:105F40009C930895823049F0833071F08130B9F428
:105F500081E1B7DF82E1D5DF0BC081E1D2DF82E1F1
:105F6000D0DF83E1AEDF06C081E1CBDF82E1A9DFD4
:105F700083E1C7DF84E1C5DF10924205089581E126
:105F8000C0DF82E1BEDF83E1BCDF84E19ADF81E034
:105F90008093420508950F931F93CF93E2E0F7E3B8
:105FA000E491C0E00E2F10E08C2F0C2E000C990B0A
:105FB0008017910714F5209139052223C9F0FC01BF
:105FC000E25DFA4F2081223018F421110FC010C079
:105FD000E22FE695F0E0EF5AF04C64918091430592
:105FE0000E946D3F921720F490FF02C061E001C053
:105FF00060E08C2F0FDFCF5FD7CFCF911F910F9134
:10600000089580913D05803110F081E002C08C5FE1
:106010008C7F80933D05089580913E058F5F81318F
:1060200018F480933E05089581E080933E05109218
:106030003C0510924105089590913D05903120F066
:1060400081E080933905089580913C0520913E05BB
:10605000929F902D1124891738F491E0909339057F
:10606000805F80933C050895109239050895E5EA14
:10607000F6E3E491809138058F5F8E1718F48093D2
:106080003805089510923805089580913F058F5F77
:10609000843018F480933F0502C010923F05809130
:1060A0003F05811103C080913D0503C0813021F47B
:1060B00084E080933A050895823031F484E080933F
:1060C0003A0510923B05089580E180933A0581E0FE
:1060D00080933B05089595DF80913F05811104C0B1
:1060E00080913D0580933A05089580913F05823067
:1060F00011F488E10BC0833071F480913A0585304A
:1061000010F0845003C0882321F0815080933A0519
:10611000089510923A050895809140058F5F80336D
:1061200018F48093400508951092400590913F0522
:106130009130B1F420913B0580913A05222341F042
:106140008F5F80933A058831E0F010923B05089507
:10615000815080933A058530A0F490933B050895D3
:10616000923031F480913A05853058F0815007C063
:10617000933039F480913A05803118F48F5F809321
:106180003A05089580913A05803120F081E08093AE
:106190003705089590913E05899F802D1124909197
:1061A0003B059111807F90914105981738F481E06B
:1061B00080933705905F90934105089510923705BD
:1061C00008951F93CF93DF93E3E0F7E3E49110E0AA
:1061D000CE2FD0E0212F012E000C330B2C173D07C2
:1061E0000CF5F901EB56F94CE491EE23C9F08091DE
:1061F0004205882391F080913705882371F08091C2
:106200003805F90190E1899FE00DF11D1124EB564D
:10621000FA4CE49161E0E11101C060E0812FFADD08
:106220001F5FD8CFDF91CF911F910895F5DE04DF76
:1062300033DEB1DE71DFA6DFC4CF1F920F920FB63F
:106240000F9211240BB60F922F938F939F93AF93BE
:10625000BF93EF93FF93EDB7FEB781E090E090938B
:106260006D0780936C07F0936B07E0936A07319694
:10627000AAEEB6E080E090E0E11521E2F20720F01E
:10628000FC01E651F94F07C021912D93019680380A
:10629000910591F7F5CF87E0EA36F80711F01192F2
:1062A000FACFFF91EF91BF91AF919F918F912F9175
:1062B0000F900BBE0F900FBE0F901F90189590E09F
:1062C00080E80FB6F89480936100909361000FBE50
:1062D000089560916E0770E040E081E00E94E12245
:1062E00060916C0770916D076115710541F041E097
:1062F00082E00E94E12210926D0710926C07DFCFBE
:106300008DEA9EED9093700780936F07089584E166
:1063100089BD86E189BD09B400FEFDCF8091D8001A
:106320008F7D8093D8008091E00082608093E000B0
:106330008091E00081FDFCCF0895CF93DF93962FED
:10634000642F28E1929FE0011124C40FD11DCC0FCE
:10635000DD1FC05BDA4F48815981882301F157FF67
:106360000EC02091BA0630E03195219531092417ED
:1063700035077CF1892F2BDC84E090E020C0209150
:10638000B6063091B7064217530794F0892FBEDC4A
:106390002091A90688819981821B910910C0141649
:1063A000150684F42091BA0630E0421753071CF416
:1063B0004C5F5F4F10C0892F6ADC8CEF9FEF998391
:1063C00088830BC08091AE069091AF068417950725
:1063D00024F44450510959834883DF91CF910895A3
:1063E0000F931F93CF93DF93082F862F642F98E18D
:1063F000899FE0011124C40FD11DCC0FDD1FC05BAC
:10640000DA4F5981011110C057FD27C08881952F9F
:1064100093702091AE063091AF068217930708F46F
:1064200004969983888339C057FF17C00881152FB8
:1064300013702091B6063091B7060217130730F09B
:1064400065DC8091A906081B110902C00C5F1F4F73
:10645000198308838981806817C0152F16951695B2
:106460001F711C5F9091BA06191780F04881537014
:10647000002311F0ACDB01C00ADC212F30E03983AE
:106480002883898100FB87F9898307C01F71110F59
:10649000110F5378252F212B2983DF91CF911F9145
:1064A0000F910895CF92DF92EF92FF921F93CF93B7
:1064B000DF93E3EDF7E3E491E0934405E2EDF7E3E6
:1064C000E491E0934B05E1EDF7E3E491E0934E05B1
:1064D000E0EDF7E3E491E0934F0584ECE82E87E3E9
:1064E000F82E95E4C92E95E0D92ED0E0F70114914D
:1064F00080914B0581111FEFF7013196C4914C2F0C
:10650000612F8D2F0E944E282C2F2095F60121936C
:106510006F01422F412380914B05642F60958111BB
:1065200001C040E08D2F0E948728DF5FF2E0EF0E70
:10653000F11CD630D9F68091A706882371F080EF40
:1065400091E390934D0580934C058091BA0681327A
:1065500050F080E28093BA0606C08DE991E39093F3
:106560004D0580934C05DF91CF911F91FF90EF90E7
:10657000DF90CF900895CF92DF92EF92FF920F932A
:106580001F93CF93C0E080914E0590E02C2F0C2EEE
:10659000000C330B281739070CF054C085E4E82EA3
:1065A00085E0F82EF6E0CF026001112400E010E053
:1065B000F801EC0DFD1DEC5CF84C4491F701619184
:1065C0007F01802F0E9487280F5F1F4F0630110523
:1065D00079F78091B4068A95F1F710E0212F012E0A
:1065E000000C330B80914F0590E02817390744F5D4
:1065F00080914B05220F331FF901EB5FF84C882384
:1066000051F06491F901EC5FF84C84910E94962856
:10661000882351F013C06491F901EC5FF84C849128
:106620000E949628882351F080914405882319F010
:106630006C2F812F02C0612F8C2FD6DB1F5FCECF36
:10664000CF5FA1CFCF911F910F91FF90EF90DF907F
:10665000CF900895CF92DF92EF92FF920F931F9306
:10666000CF93DF93D62FC82FCD170CF05EC085E4F3
:10667000E82E85E0F82EF6E0CF026001112400E05C
:1066800010E0F70161917F016F3F49F0F801EC0DD7
:10669000FD1DEC5CF84C4491802F0E9487280F5F11
:1066A0001F4F0630110569F78091B4068A95F1F7FE
:1066B00010E0212F012E000C330B80914F0590E04C
:1066C0002817390784F580914B05220F331FF901F4
:1066D000EB5FF84C882359F06491F901EC5FF84CBA
:1066E00084910E94962891E0882361F00AC0649109
:1066F000F901EC5FF84C84910E94962891E0811199
:1067000001C090E080914405E0914C05F0914D0569
:10671000882319F04C2F612F02C0412F6C2F892F35
:1067200009951F5FC6CFCF5F9FCFDF91CF911F919C
:106730000F91FF90EF90DF90CF90089560914E05FC
:106740006695669580E086CF80914E05682F70E053
:1067500075956795869586957DCF80914E0593E0DA
:10676000899FB001112475956795759567958695F4
:1067700071CF60914E0523E0629FC0011124959571
:1067800087959595879566CF81E08093A3060895B8
:106790002091A306AC01249FC001259F900D1124D8
:1067A0006AE070E00E94793F8091A206562F581B44
:1067B000852F6093A2062F5F2093A3062B3028F02D
:1067C0001092A20691E09093A3060895CF93809132
:1067D0002505811104C080913503882321F1C1E092
:1067E000C093A6068091A50681112FC08091A406B2
:1067F0009091B1062091AB06899FC0011124820FB0
:10680000911DC6DF90912505899F902D11249093AD
:10681000A10690913503899F802D11248093A006B5
:10682000C093A50612C08091A606882319F081E0C6
:106830008093A5061092A6061092A2061092A106B9
:106840001092A0068AE08093A306CF910895CF937B
:10685000DF93CDB7DEB764970FB6F894DEBF0FBEF7
:10686000CDBF80E28093AC061092B5061092B906B7
:106870001092AA0640E14093B0061092B8063CE0A0
:106880003093BA061092AD061092A80660EF70E041
:106890007093B3066093B20668E87FEF7093AF061B
:1068A0006093AE0695E09093AB062FE02093B1067F
:1068B00060E273E07093B7066093B6068093A90612
:1068C0009093B4061092A70689831A821B821C82B9
:1068D0004D831E823F831886198630EF3A871B86C8
:1068E00038E83C873FEF3D879E872F87888B23E0E2
:1068F000298B8A8B9B8B1C8A44E150E060E070E01E
:10690000CE0101960E94C03F64960FB6F894DEBF98
:106910000FBECDBFDF91CF9108950F931F93CF93FB
:10692000DF93CEE5DFE3FE01329684913196E49168
:1069300090E0E23059F4FE010591149180509040AE
:106940000E94BB3FF8019183808309C0FE0105913D
:106950001491805090400E94B33FF80180832496A8
:10696000FFE3C23ADF07F9F66091AC06603251F0FE
:1069700070E041E080E50E94E122DF91CF911F911C
:106980000F9165CFDF91CF911F910F91089524E072
:10699000829FC0011124FC01E05AF04C2491FC01BB
:1069A000EF59F04C3491FC01E25AF04C822F90E008
:1069B000323041F4A591B4916D917C91805090401A
:1069C0000C94D73FA591B4916C91805090400C9459
:1069D000C93F13BC109280001092820080E89EE3B1
:1069E000909389008093880008951092BB06789454
:1069F000109285001092840081E08093810082E0F3
:106A000080936F009AE088E10FB6F894A895809380
:106A100060000FBE90936000E0E6F0E08081806C43
:106A2000808308950FB6F894A895809160008861DE
:106A300080936000109260000FBEE0E6F0E080817D
:106A40008F7B808310926F00109281000895809157
:106A5000840090918500E091BB062091DD0634E032
:106A6000E39FF0011124E20FF11DEE0FFF1FE3542D
:106A7000F94F208131812817390780F4E091BB0656
:106A80002091DD0634E0E39FF0011124E20FF11DB7
:106A9000EE0FFF1FE354F94F918380830895109206
:106AA000DD068091DD068430D8F4E091BB0680914C
:106AB000DD0694E0E99FF0011124E80FF11DEE0FCF
:106AC000FF1FEC52F84C85919491009719F0FC014E
:106AD0000995BDDF8091DD068F5F8093DD06E1CFF4
:106AE000089510928500109284008091BC0688233E
:106AF00081F08091BB066091DD0670E0782B40E06C
:106B000081E10E94E1228091BC068F5F8093BC06E8
:106B1000089581E08093BC067894C1DF8091BB0624
:106B20008F5F8093BB06843010F01092BB0680917B
:106B3000BC06823038F06091BC0670E040E084E131
:106B40000E94E122A8951092BC0608951F920F9210
:106B50000FB60F9211240BB60F922F933F934F93C2
:106B60005F936F937F938F939F93AF93BF93EF93B5
:106B7000FF93B7DFFF91EF91BF91AF919F918F91FD
:106B80007F916F915F914F913F912F910F900BBE2D
:106B90000F900FBE0F901F901895EDEBF6E011824D
:106BA00010821382128215821482178216823896FE
:106BB00086E0ED3DF80799F70895292F3327233014
:106BC0003105D9F074F42130310591F022303105CE
:106BD00009F04CC0E4EFFFE38591949162EF7FE30D
:106BE00049C021323105B9F022323105E9F03EC009
:106BF00082E190E06FE570E43DC09927009729F0AD
:106C00000197A1F5E2EAFFE302C0EEEEFFE3849113
:106C100090E0BF012FC081EE689FB00111246C5F2E
:106C20007F4B89E090E026C0662389F080911001B7
:106C3000681791F080910001681799F08091200108
:106C4000681314C08AE390E063EA70E413C080E440
:106C500090E064EF70E40EC082E390E061E770E4DE
:106C600009C087E190E06DED70E404C080E090E041
:106C700060E070E0FA0171836083089581E062C989
:106C80000895CF9380E391E00E94513EC82F8091F8
:106C90001001882329F080E191E00E94513EC82331
:106CA00080910001882321F080E091E0FAD7C82389
:106CB00080912001882321F080E291E0F2D7C8235F
:106CC000CC2311F080E001C083E03CD98091E20048
:106CD00084608093E200CF91089580E391E0A9D68B
:106CE00080911001882319F080E191E0A2D6809173
:106CF0000001882319F080E091E09BD6809120016B
:106D0000882319F080E291E094C6089580913E01B5
:106D100090913F01009729F0019790933F01809354
:106D20003E0180911001882359F080911E019091BD
:106D30001F01009729F0019790931F0180931E0176
:106D400080910001882359F080910E0190910F01EC
:106D5000009729F0019790930F0180930E01809185
:106D60002001882359F080912E0190912F010097E6
:106D700029F0019790932F0180932E01089580E0D0
:106D8000E1C882E0DFC880E0DDC80F931F93CF9396
:106D9000DF93DC01FB01E9019C912091000191113D
:106DA0002EC0222359F08091B806811103C0199694
:106DB0008C9102C080E090E080936701CE0108D8FA
:106DC00088E090E0D8018D939C93809167018111B8
:106DD0000DC0CE0102960E94B72E90912805809199
:106DE0002305892B19F01092230506C080912805F0
:106DF000811102C080E063C0109228055FC0921329
:106E000013C08DE090E0F801918380838091670149
:106E1000882381F3CE010E94DA2E809123058823F6
:106E200049F3109223054AC080912001981315C0A0
:106E30008091240588838091A10689838091A00692
:106E40008A8383E090E0D8018D939C938091A5067E
:106E5000882381F21092A50631C081E090E0208164
:106E6000233011F080E090E020912105822B892BC6
:106E700091F080912C05888381E090E0D8018D937A
:106E80009C9383E0808380912105882309F4B2CF0D
:106E90001092210513C08091770490917804998312
:106EA000888382E090E0D8018D939C9380838091C9
:106EB0002205882309F49ECF1092220581E0DF91FC
:106EC000CF911F910F910895CF938053914009F076
:106ED00081C0F901808180931903C0916601C827A0
:106EE00080936601CC2309F475C09091AD06911191
:106EF00011C0C0FF0FC080FF07C080E00E94612F5B
:106F000080E00E941F2A06C080E00E94812F80E05E
:106F10000E94A12AC1FF11C08091190381FF07C0FF
:106F200081E00E94612F81E00E941F2A06C081E05B
:106F30000E94812F81E00E94A12AC2FF24C080917B
:106F4000190382FF11C082E00E94612F82E00E943B
:106F50001F2A8091B5068823B1F081E0809329052E
:106F600085E00E94612F0FC082E00E94812F82E0A5
:106F70000E94A12A8091B506882329F01092290544
:106F800085E00E94812FC3FF11C08091190383FF08
:106F900007C083E00E94612F83E00E941F2A06C081
:106FA00083E00E94812F83E00E94A12AC4FF12C0C7
:106FB0008091190384FF07C084E00E94612F84E060
:106FC000CF910C941F2A84E00E94812F84E0CF91FE
:106FD0000C94A12ACF910895E4E3F1E4E491E1FF58
:106FE00008C081E08093100182E88093110181E064
:106FF00001C080E0E2FF09C091E0980F909300018A
:107000008E5F806880930101892FE3FF08C091E0C3
:10701000980F909320018E5F8068809321010895DE
:1070200080E391E051D6EBD48091E1069091650127
:10703000981759F06091E10670E041E086EA0E94FD
:10704000E1228091E106809365010895809110010D
:10705000882319F080E191E037D6809100018823E0
:1070600019F080E091E030D680912001882319F05A
:1070700080E291E029D6C3D48091E1069091640129
:10708000981759F06091E10670E041E086EA0E94AD
:10709000E1228091E1068093640108958091DF06EA
:1070A000882329F08091E106853009F430C90895DC
:1070B000CF92DF92EF92FF920F931F93CF93DF93C4
:1070C000EC018B017A01D8D1811133C0E114F104B4
:1070D00039F0F70180819181081B190BC80FD91F66
:1070E000C12CD12C0115110519F18091E80085FD05
:1070F00016C08091E8008E778093E80080D4E11478
:10710000F10449F0F70180819181C80ED91ED18226
:10711000C08285E00EC0B0D1882321F30AC08991D6
:107120008093F10001501109FFEFCF1ADF0ADACF87
:1071300080E0DF91CF911F910F91FF90EF90DF9052
:10714000CF9008952091E8063091E9062617370779
:1071500048F06115710539F42091E8002E772093ED
:10716000E80001C0B90140E06115710599F1209175
:10717000E106222309F441C0253009F440C02091E2
:10718000E80023FD3EC02091E80022FD30C02091A0
:10719000E80020FFE9CF2091F2003091F300FC01DC
:1071A000CF016115710559F02830310540F4819106
:1071B0008093F100615071092F5F3F4FF1CF41E0A3
:1071C0002830310509F040E02091E8002E77209327
:1071D000E800CACF4111CBCF0AC08091E1068823D5
:1071E00061F0853061F08091E80083FD0AC08091F4
:1071F000E80082FFF2CF80E0089582E0089583E006
:10720000089581E008956115710529F42091E80041
:107210002B772093E800FC016115710531F1809115
:10722000E106882351F1853051F18091E80083FD1A
:1072300022C08091E80082FFEFCF8091F200909110
:10724000F300892B31F08091F10081936150710935
:10725000A1F78091E8008B778093E800DDCF8091E3
:10726000E106882351F0853051F08091E80080FFDD
:10727000F6CF80E0089581E0089582E0089583E0EC
:1072800008952091E8063091E9062617370748F05F
:107290006115710539F42091E8002E772093E800FC
:1072A00001C0B901FC0120E06115710581F18091F7
:1072B000E106882309F43EC0853009F43DC0809181
:1072C000E80083FD3BC08091E80082FD2DC08091E5
:1072D000E80080FFE9CF8091F2009091F300611502
:1072E000710559F08830910540F424912093F10004
:1072F0003196615071090196F2CF21E0089709F0AB
:1073000020E08091E8008E778093E800CDCF2111B6
:10731000CECF0AC08091E106882361F0853061F00C
:107320008091E80083FD0AC08091E80082FFF2CFDF
:1073300080E0089582E0089583E0089581E0089553
:10734000982F973058F59093E900981739F070917D
:10735000EC002091ED005091F00003C0242F762F17
:1073600050E021FF19C03091EB003E7F3093EB00DD
:107370003091ED003D7F3093ED003091EB003160B6
:107380003093EB007093EC002093ED005093F000ED
:107390002091EE0027FF07C09F5FD3CF8F708093AF
:1073A000E90081E0089580E00895EF92FF920F9345
:1073B0001F93CF93DF93E62EEC018C010C5F1F4FE0
:1073C000F12CFE1491F15881552351F1F8012081DF
:1073D00069817A8131979081852F8F70873010F085
:1073E00080E024C0223010F442E001C046E0E8E032
:1073F000F0E020E0E617F70720F42F5FEE0FFF1F05
:10740000F9CF2295207F422BF0E49F9F9001112419
:10741000551F5527551F652F622B92DF882301F3D7
:10742000F39425960B5F1F4FCCCF81E0DF91CF9176
:107430001F910F91FF90EF9008958091E20687FFD2
:1074400011C08091E80082FD05C08091E1068111A4
:10745000F8CF11C08091E8008B770BC08091E106D6
:10746000882349F08091E80080FFF8CF8091E80000
:107470008E778093E80008952091E4003091E50034
:1074800095E64091EC00842F817040FF22C08091EE
:10749000E80080FD1CC08091E106882391F08530D2
:1074A00091F08091EB0085FD10C04091E400509177
:1074B000E5004217530729F39A01915011F784E030
:1074C000089582E0089583E0089581E0089580E0C2
:1074D00008954091E80042FFDECF089568D06FD054
:1074E000E0EEF0E0808181608083E8EDF0E0808173
:1074F0008F77808319BCA7EDB0E08C918E7F8C9341
:1075000080818F7E80831092E00608950F931F93F1
:10751000CF93DF934CD053D0C8EDD0E088818F77E4
:10752000888388818068888388818F7D8883E7ED60
:10753000F0E080818068808319BC1092E10610928F
:10754000DE061092DF0600EE10E0F80180818B7FEE
:10755000808388818160888342E060E080E0F0DEA3
:10756000E1EEF0E080818E7F8083E2EEF0E08081CA
:1075700081608083808188608083F80180818E7F34
:107580008083888180618883DF91CF911F910F91E3
:107590000895E8EDF0E080818F7E8083E7EDF0E0F4
:1075A00080818160808381E08093E006AFCFE8ED49
:1075B000F0E080818C7F80831092E2000895109229
:1075C000DA001092E10008951F920F920FB60F9209
:1075D00011240BB60F922F933F934F935F936F93AA
:1075E0007F938F939F93AF93BF93EF93FF9380917C
:1075F000E10082FF0AC08091E20082FF06C0809114
:10760000E1008B7F8093E10081DB8091DA0080FFD5
:107610001DC08091D80080FF19C08091DA008E7F54
:107620008093DA008091D90080FF0CC084E189BD8D
:1076300086E189BD09B400FEFDCF81E08093E106BB
:107640001DDB04C019BC1092E1061ADB8091E10039
:1076500080FF18C08091E20080FF14C08091E2009A
:107660008E7F8093E2008091E20080618093E2004F
:107670008091D80080628093D80019BC85E0809307
:10768000E1067FDB8091E10084FF2FC08091E20062
:1076900084FF2BC084E189BD86E189BD09B400FE69
:1076A000FDCF8091D8008F7D8093D8008091E1003C
:1076B0008F7E8093E1008091E2008F7E8093E200D4
:1076C0008091E20081608093E2008091DE06882351
:1076D00011F084E007C08091E30087FD02C081E0E3
:1076E00001C083E08093E1064EDB8091E10083FFDF
:1076F00022C08091E20083FF1EC08091E100877F5D
:107700008093E10082E08093E1061092DE06809192
:10771000E1008E7F8093E1008091E2008E7F809374
:10772000E2008091E20080618093E20042E060E04C
:1077300080E006DE24DBFF91EF91BF91AF919F9136
:107740008F917F916F915F914F913F912F910F900A
:107750000BBE0F900FBE0F901F9018951F93CF93E5
:10776000DF93CDB7DEB7AA970FB6F894DEBF0FBE92
:10777000CDBFE2EEF6E088E08E0F9091F10091939C
:107780008E13FBCFAADA8091E80083FF20C180919D
:10779000E2069091E306492F50E04A30510508F087
:1077A00016C1FA01EA59FF4FB8C3803821F0823878
:1077B00009F00DC106C08091DF06882391F082E0B8
:1077C00011C08091E6068F70873008F000C1809369
:1077D000E9008091EB0085FB882780F91092E90091
:1077E00001C080E09091E800977F9093E80080933B
:1077F000F1001092F100CBC0282F2D7F09F0E7C0D7
:10780000882319F0823061F0E2C08091E406813073
:1078100009F0DDC0933009F080E08093DF062EC0D0
:107820008091E40681112AC08091E6068F702FEFC7
:10783000280F263008F0CBC08093E9002091EB00A0
:1078400020FF1CC0933021F48091EB00806214C0B3
:107850009091EB0090619093EB0021E030E0A90162
:1078600002C0440F551F8A95E2F74093EA00109238
:10787000EA008091EB0088608093EB001092E900B1
:107880008091E800877F8093E800D7DDA0C0811158
:107890009EC01091E4061F778091E3008078812BD1
:1078A0008093E3008091E800877F8093E800C5DD46
:1078B0008091E80080FFFCCF8091E3008068809396
:1078C000E300111102C082E001C083E08093E10671
:1078D0007EC08058823008F07AC08091E406909192
:1078E000E5068C3D53E0950771F583E08A838AE2D3
:1078F00089834FB7F894DE01139620E03EE051E211
:10790000E32FF0E050935700E49120FF03C0E2958D
:10791000EF703F5FEF708E2F90E0EA3010F0C79667
:1079200001C0C0968D939D932F5F243149F74FBFBF
:107930008091E800877F8093E8006AE270E0CE01E2
:10794000019600DC13C06091E6067091E706AE0177
:107950004F5F5F4F32D9BC01892BC9F19091E8008C
:10796000977F9093E80089819A818BDC8091E80071
:107970008B778093E8002BC0803849F58091E80030
:10798000877F8093E8008091DE068093F1008091EC
:10799000E8008E7778CF81111AC09091E40692307A
:1079A000B0F48091E800877F8093E8009093DE0632
:1079B00044DD8091DE06811106C08091E30087FDE1
:1079C00002C081E001C084E08093E1065AD9809131
:1079D000E80083FF0AC08091E800877F8093E80079
:1079E0008091EB0080628093EB00AA960FB6F8942A
:1079F000DEBF0FBECDBFDF91CF911F910895CF9312
:107A00008091E106882399F0C091E900CF709091B0
:107A1000EC00892F817090FD80E8C82B1092E9005E
:107A20008091E80083FD9ADECF70C093E900CF918A
:107A300008956F927F928F929F92AF92BF92CF9252
:107A4000DF92EF92FF920F931F93CF93DF9300D0BB
:107A50001F92CDB7DEB77C01CDB6DEB68091E800CF
:107A600083FF08C1F701808190E02091E606309104
:107A7000E7062817390709F0FDC08091E306833037
:107A800009F49FC030F4813071F0823009F4D6C01F
:107A9000F1C08A3009F4BAC08B3009F4A3C0893030
:107AA00009F0E8C051C08091E206813A09F0E2C0D5
:107AB0008DB69EB61A8219828091E4061091E50671
:107AC0008B83F7018085482F50E08DB79EB7841BCC
:107AD000950B0FB6F8949EBF0FBE8DBFEDB7FEB7E6
:107AE00031965F0160E070E0CF0136D24FEF410F79
:107AF0008E010F5F1F4F9501BE016D5F7F4FC70164
:107B000044D9F70186819781009721F0408550E0A4
:107B1000B50119D21092E9008091E800877F809327
:107B2000E8008B8181118093F10069817A81C50120
:107B300009DB8091E8008B778093E8000FB6F8941A
:107B40009EBE0FBE8DBE96C08091E206813209F0C6
:107B500091C0ADB6BEB60091E8061091E9067090EE
:107B6000E4066090E5068DB79EB7801B910B0FB6BB
:107B7000F8949EBF0FBE8DBFEDB7FEB731964F0193
:107B80008091E800877F8093E800B801CF013BDB5C
:107B90008091E8008E778093E80021E0711001C0A9
:107BA00020E030E0021B130B280D391D4FEF460D6E
:107BB000672DC70189D90FB6F894BEBE0FBEADBE02
:107BC00059C08091E206813A09F054C08091E800E2
:107BD000877F8093E8008091E80080FFFCCFF70169
:107BE000818540C08091E206813209F043C08091D6
:107BF000E800877F8093E80020DC9091E40681E034
:107C0000911101C080E0F701818734C08091E206C4
:107C1000813281F58091E800877F8093E8000DDC58
:107C20008091E4069091E506882736E09695879541
:107C30003A95E1F7F701958784871CC08091E206A9
:107C4000813AC1F48091E800877F8093E8008091B9
:107C5000E80080FFFCCFF701848595859695879590
:107C6000969587958093F1008091E8008E778093B8
:107C7000E800E3DB0FB6F894DEBE0FBECDBE0F907A
:107C80000F900F90DF91CF911F910F91FF90EF9088
:107C9000DF90CF90BF90AF909F908F907F906F902C
:107CA0000895FC01399627E0DF011D922A95E9F736
:107CB00021E0FC01218724EF31E03587248723E090
:107CC000248361E0019671CB4F925F926F927F9215
:107CD0008F929F92AF92BF92CF92DF92EF92FF92DC
:107CE0000F931F93CF93DF9300D01F92CDB7DEB7D2
:107CF0007C01ADB6BEB68091E106843009F08DC03E
:107D00008091E4009091E500F701228533852817E2
:107D1000390709F482C081818F708093E9008091D6
:107D2000E80085FF7AC08DB69EB6408550E08DB7DD
:107D30009EB7841B950B0FB6F8949EBF0FBE8DBFE8
:107D4000EDB7FEB731966F011B821A82198260E08F
:107D500070E0CF0101D18E010F5F1F4F960140E00F
:107D6000BE016D5F7F4FC70110D8482EF701848593
:107D70009585892B51F091E080E026853785232B6E
:107D800009F090E0092F182F02C000E010E0F70181
:107D9000668077806114710489F049815A81B3014A
:107DA000C601C4D055245394892B09F4512CF701F2
:107DB000408550E0B601C301C6D001C0512C898175
:107DC0009A81892BF1F0411004C0511002C0012B9F
:107DD000C1F0F701848595859787868781818F70AB
:107DE0008093E9008B8181118093F10069817A8110
:107DF00040E050E0C6015CD98091E8008E77809326
:107E0000E8008091E4009091E500F7019387828774
:107E10000FB6F8949EBE0FBE8DBE0FB6F894BEBED0
:107E20000FBEADBE0F900F900F90DF91CF911F91BD
:107E30000F91FF90EF90DF90CF90BF90AF909F9009
:107E40008F907F906F905F904F90089508950E945B
:107E500069310E94CC220E948D340E9452320E94CD
:107E6000242F0E948E290E94C4330E94EE200E947B
:107E7000E934B2D80E94BB328CCB0E94F534809199
:107E8000C5018823E1F30C94123528DBF8942FEF19
:107E900087EA91E6215080409040E1F700C0000061
:107EA0008091C501823011F40E9480318091C5011A
:107EB000882359F09CE088E10FB6F894A895809348
:107EC00060000FBE90936000FFCF0895BFDFBFDF5B
:107ED000D4DFDBDF80E090E00895991B79E004C0F7
:107EE000991F961708F0961B881F7A95C9F78095F9
:107EF0000895AA1BBB1B51E107C0AA1FBB1FA617F1
:107F0000B70710F0A61BB70B881F991F5A95A9F742
:107F100080959095BC01CD010895EE0FFF1F0024C0
:107F2000001C0BBE0790F691E02D0994FB01DC01CB
:107F300004C08D910190801921F441505040C8F740
:107F4000881B990B0895FB01DC0102C001900D9282
:107F500041505040D8F70895DC0101C06D93415065
:107F60005040E0F70895F999FECF92BD81BDF89A8F
:107F7000992780B50895A8E1B0E042E050E01CC028
:107F8000DC01CB0102C02D9105D041505040D8F703
:107F90000895262FF999FECF1FBA92BD81BD20BD4D
:107FA0000FB6F894FA9AF99A0FBE01960895F1DF88
:107FB000272FF0CFDC01CB01FC01F999FECF06C0E1
:107FC000F2BDE1BDF89A319600B40D924150504097
:087FD000B8F70895F894FFCF03
:107FD80000830D00000100000D00000000000000FB
:107FE8000082030000010000020000000000000001
:107FF80000840300000100000300000000000000EE
:1080080000810800000100000800000000000000D6
:108018002400250023002700280026002A002B0022
:1080280029002D002E002C00300031002F002100E7
:048038002200200002
:00000001FF
