:100000000C9405220C944A220C944A220C944A2205
:100010000C944A220C944A220C944A220C944A22B0
:100020000C944A220C944A220C94133D0C944A22BC
:100030000C9447320C944A220C944A220C944A2283
:100040000C944A220C9421380C944A220C944A2293
:100050000C944A220C944A220C944A220C944A2270
:100060000C944A220C944A220C944A220C944A2260
:100070000C944A220C944A220C944A220C944A2250
:100080000C944A220C944A220C944A220C944A2240
:100090000C944A220C944A2295292C25322553256A
:1000A00059250B2711272D2633263A275C2776273B
:1000B0009027A527FB2739284F297429562872280D
:1000C0009128B628CF28F42814292D29043E273E4C
:1000D0000E3F273E0E3F6C3E8E3E0E3FE03EF23E10
:1000E0000000000000000000000000000000000010
:1000F0002A002B002800000000002800000000005B
:1001000000000000000000000000000000000000EF
:1001100000000000000029000000000000000000B6
:100120002C001E023402200221022202240234008A
:100130002602270225022E0236002D003700380045
:1001400027001E001F0020002100220023002400A1
:10015000250026003302330036022E003702380213
:100160001F020402050206020702080209020A022F
:100170000B020C020D020E020F02100211021202FB
:1001800013021402150216021702180219021A02AB
:100190001B021C021D022F003100300023022D0221
:1001A00035000400050006000700080009000A00E9
:1001B0000B000C000D000E000F00100011001200CB
:1001C00013001400150016001700180019001A007B
:1001D0001B001C001D002F023102300235024C00B2
:1001E000000000000000000000000000000000000F
:1001F00000000000000000000000000000000000FF
:1002000000000000000000000000000000000000EE
:1002100000000000000000000000000000000000DE
:1036A000000000000000FF00FF00FF00FF00FF001F
:1036B000FF00FF00FF00FF00FF00FF00FF00FF0012
:1036C000FF00FF00FF00FF00FF00FF00FF00FF0002
:1036D00000000000000000000000000000000000EA
:1036E00000000000000000000000000000000000DA
:1036F00000000000000000000000000000000000CA
:10370000080C0000000000000000000000000000A5
:1037100000000000000000000000000000000000A9
:103720000000000000000000000000000000000099
:103730000000000000000000000000000000000089
:103740000000000000000000000000000000000079
:103750000000000000000000000000000000000069
:103760000000000000000000000000000000000059
:103770000000000000000000000000000000000049
:103780000000000000000000000000000000000039
:103790000000000000000000000000000000000029
:1037A0000000000000000000000000000000000019
:1037B0000000000000000000000000000000000009
:1037C00000000000000000000000000000000000F9
:1037D00000000000000000000000000000000000E9
:1037E00000000000000000000000000000000000D9
:1037F00000000000000000000000000101010114B1
:1038000000000000000000000000000000000000B8
:1038100000000000000000000000000000000000A8
:103820000000000000000000000101010114000080
:103830000000000000000000000000000000000088
:103840000000000000000000000000000000000078
:103850000000000000000001010101140000000050
:103860000000000000000000000000000000000058
:103870000000000000000000000000000000000048
:1038800000000000000101010114593A7C3440326B
:10389000000082346037C4344032593A8B344032AD
:1038A00000009734E023132540324F7574206F6673
:1038B0002072616E67652E0A00456E746572206E17
:1038C00065772064656661756C742064696D6D65EB
:1038D00072206C6576656C2028312D3136293E20AA
:1038E00000456E746572206E65772064656661754B
:1038F0006C74206261636B6C6967687420656E61CB
:10390000626C652028312D3136293E2000456E74C9
:103910006572206E6577206D6174726978207365B9
:10392000747570207761697420696E206379636CA7
:1039300065732028312D323535293E2000456E74BF
:103940006572206E65772072657065617420746998
:103950006D6520696E206D732028312D3939293E1F
:103960002000456E746572206E657720686F6C6408
:103970002074696D6520696E206D732028312D39A2
:103980003939293E2000456E746572206E657720B6
:103990006D6F757365206D6F76656D656E74206DE6
:1039A000756C7469706C6965722028312D393929FC
:1039B0003E2000456E746572206E657720626173EB
:1039C00065206D6F757365206D6F76656D656E74BE
:1039D0002028312D3939293E2000456E746572202A
:1039E0006E657720646F75626C65746170206465C4
:1039F0006C61792074696D6520696E206D73202873
:103A0000312D393939293E2000456E746572206E9A
:103A10006577207461702074696D6520696E206D12
:103A2000732028312D393939293E2000456E7465BF
:103A300072206E6577206465626F756E63652074B1
:103A4000696D6520696E206D732028312D39392903
:103A50003E20005365743A00456E746572206E65B1
:103A6000772064656661756C74206C61796572207D
:103A700028302D39293E200042797465732028684A
:103A80006578293E2000416464726573732028685C
:103A90006578293E200020532D3078005D20432D8D
:103AA0003078000A5B005573696E67206465666153
:103AB000756C742022686169722074726967676529
:103AC0007222206465626F756E636520616C676F3A
:103AD000726974686D2E20286465626F756E636507
:103AE0002074696D65207265736574290A005573C9
:103AF000696E6720616C7465726E61746520226303
:103B00006F6E6669726D22206465626F756E6365A3
:103B100020616C676F726974686D2E20286465621D
:103B20006F756E63652074696D6520726573657469
:103B3000290A004E756D206C6F636B206973206CD1
:103B4000696E6B656420746F207468652073797387
:103B500074656D206E756D206C6F636B2E0A004E60
:103B6000756D206C6F636B2077696C6C2066756E69
:103B70006374696F6E20696E646570656E64656EEE
:103B8000746C79206F66207468652073797374652E
:103B90006D206E756D206C6F636B2E0A004B65791E
:103BA000626F617264206163747320617320657851
:103BB00074656E646564204E4B524F206B6579626C
:103BC0006F6172642077697468206D6F757365200A
:103BD000616E64206D65646961206B6579732E0A7E
:103BE000004B6579626F6172642061637473206158
:103BF0007320364B524F206B6579626F617264207F
:103C0000706C7573206D6F75736520616E64206DC7
:103C100065646961206B6579732E0A004B65796272
:103C20006F617264206973206C696D6974656420CA
:103C3000746F207374616E6461726420364B524FEE
:103C400020626F6F742D636F6D70617469626C6553
:103C5000206B6579626F6172642E0A005363726F24
:103C60006C6C206C6F636B2077696C6C206E6F746A
:103C7000206166666563742077696E206C6F636B84
:103C80002E0A0057696E646F7773206B6579207711
:103C9000696C6C2062652064697361626C65642084
:103CA0007768656E207363726F6C6C206C6F636BEA
:103CB00020697320656E61626C65642E0A004E7522
:103CC0006D206C6F636B2077696C6C206E6F742055
:103CD000616666656374206E756D62657220726FD1
:103CE000772E0A004E756D62657220726F772077AD
:103CF000696C6C2062652073776170706564206602
:103D00006F72206E756D706164206B6579732077BA
:103D100068656E206E756D206C6F636B2069732013
:103D2000656E61626C65642E0A00496E7075742060
:103D30006E6F74207265636F676E697A65642E0AB0
:103D4000000A54696D696E67204D656E753A0A31D7
:103D50002920536574206465626F756E63652074F5
:103D6000696D650A322920536574206D6178206879
:103D70006F6C642074696D6520666F722074617069
:103D80000A332920536574206D61782064656C6165
:103D9000792074696D6520666F7220646F75626C3E
:103DA00065207461700A3429205365742062617340
:103DB00065206D6F757365206D6F76656D656E74CA
:103DC0000A352920536574206D6F757365206D6FFA
:103DD00076656D656E74206D756C7469706C69655F
:103DE000720A362920536574206D696E20686F6CE5
:103DF000642074696D6520666F72207265706561FC
:103E0000740A3729205365742072657065617420C7
:103E1000706572696F640A382920536574206D617A
:103E20007472697820736574757020776169740A9B
:103E30003929204261636B0A3E20000A436F6E6697
:103E40006967204D656E753A0A312920546F67679E
:103E50006C65207669727475616C206E756D20706A
:103E600061640A322920546F67676C652077696E38
:103E7000206C6F636B206F6E207363726F6C6C20AD
:103E80006C6F636B0A332920536574206465666127
:103E9000756C74206C617965720A342920546F67DF
:103EA000676C65206261736963206B6579626F611D
:103EB00072640A352920546F67676C6520756E6CD3
:103EC000696E6B206E756D206C6F636B0A362920EE
:103ED0005365742064656661756C742064696D6DEA
:103EE0006572206C6576656C0A37292053657420ED
:103EF00064656661756C74206261636B6C69676888
:103F00007420656E61626C650A382920546F67679A
:103F10006C65206465626F756E6365207374796C7F
:103F2000650A3929204261636B0A3E20000A446514
:103F3000627567204D656E753A0A312920507269A5
:103F40006E74206576656E74730A322920436C6541
:103F50006172206576656E74730A33292045786135
:103F60006D696E65206D656D6F72790A3429205018
:103F700072696E742F636C65617220636C6F636B22
:103F80002D696E730A3929204261636B0A3E200055
:103F90000A4D61696E204D656E753A0A31292043DC
:103FA0006F6E666967206D656E750A3229205469E7
:103FB0006D696E67206D656E750A332920446562F0
:103FC0007567206D656E750A3429205265736574B6
:103FD0000A392920517569740A3E20001E4D1F516F
:103FE000204E21502200234F244A2552264B274998
:103FF000374CE200E900EA00E500B500B600B70082
:10400000CD002402250283018A019201940121023C
:104010002302C101C202C304C408C510E001E102C9
:10402000E204E308E410E520E640E7800105080A21
:104030000C0F101414181800F0BF060001C8060178
:1040400001CC060201BD060301C3060401CB06052F
:1040500001CD060601C0060701BA060801C506091A
:1040600002C1060B02BE060D01C4060E01C9060FF1
:1040700002BC061101C7061201B9061301614162B3
:104080004263436444654566466747684869496AD0
:104090004A6B4B6C4C6D4D6E4E6F4F705071517240
:1040A0005273537454755576567757785879597AB0
:1040B0005A31213240332334243525365E372638B1
:1040C0002A39283029000000000000000020202D9F
:1040D0005F3D2B5B7B5D7D5C7C237E3B3A272260D2
:1040E0007E2C3C2E3E2F3F00000000000000000010
:1040F00000000000000000000000000000000000C0
:1041000000000000000000000000000000000000AF
:10411000000000000000000000000000002F2F2A17
:104120002A2D2D2B2B0000310032003300340035B6
:1041300000360037003800390030002E005C7C006B
:10414000000000000000000000000000000000006F
:104150000000000000000000000000000061626339
:104160006465666768696A6B6C6D6E6F7071727397
:104170007475767778797A41424344454647484991
:104180004A4B4C4D4E4F5051525354555657585917
:104190005A30313233343536373839212223242509
:1041A000262728292A2B2C2D2E2F3A3B3C3D3E3FFB
:1041B000405B5C5D5E5F607B7C7D7E004A0345000A
:1041C00061007300790041005600520020004D004C
:1041D00075006C00740069006D0065006400690082
:1041E000610020004B006500790062006F006100F3
:1041F000720064002000760023002E0023002300BC
:104200002E002300230000000403090409022200F9
:10421000010100A03209040000010301010009218D
:10422000B0010001223F00070581030800010902D7
:104230006D00040100A03209040000010301010027
:104240000921B0010001223F000705810308000198
:104250000904010001030102000921B0010001224B
:104260003A00070582030300050904020001030068
:1042700000000921B0010001221B00070583030291
:1042800000080904030001030000000921B0010037
:1042900001221D000705840301000809026D0004C6
:1042A0000100A0320904000001030101000921B04E
:1042B000010001223F0007058103120001090401EA
:1042C0000001030102000921B0010001223A0007A8
:1042D0000582030300050904020001030000000930
:1042E00021B0010001221B00070583030200080919
:1042F00004030001030000000921B0010001221D98
:1043000000070584030100081201000200000008F4
:10431000EB03FF2010000001000105010980A1014D
:104320000501150025011981298375019503810671
:10433000950175058101C0050C0901A101050C1647
:104340000100269C021A01002A9C02751095018129
:1043500000C005010902A1010901A1000509190117
:104360002903150025019503750181029501750545
:1043700081010501093009311681FF267F003600D1
:1043800000460000950275088106C0C005010906B7
:10439000A101050719E029E7150025017501950818
:1043A0008102950175088101050819012905950506
:1043B000750191029501750391011500250105070D
:1043C0001900297F958075018102C005010906A1A8
:1043D00001050719E029E7150025017501950881F8
:1043E00002950175088101050819012905950575D2
:1043F000019102950175039101150025FF0507192B
:104400000029FF950675088100C011241FBECFEF5B
:10441000D0E2DEBFCDBF84B714BE0FB6F894A89526
:1044200090916000986190936000109260000FBEC0
:1044300083FF11C080910107909102078D3A9E4D34
:1044400051F41092020710920107E7E3F0E425917E
:104450003491F901099585B7806885BF85B7806873
:1044600085BF11E0A0E0B1E0E0E5F4E800E00BBFBB
:1044700002C007900D92A436B107D9F727E0A4E651
:10448000B1E001C01D92A130B207E1F70E948F4157
:104490000C9426420C94000010928901109288011D
:1044A0001092840110928301109293011092920154
:1044B00008959091850180919001992399F181113E
:1044C0003AC080918701811129C08091A401811196
:1044D00021C0E0917E01E91305C010928501109280
:1044E0007E0129C081E08E0F80937E01F0E0EE0F07
:1044F000FF1FEC56FE4F80819181813019F490931B
:10450000870119C090937F018093A401882399F0BB
:104510007ED711C0B1D71092A4010DC081508093F5
:10452000870109C0811107C010927F018091860127
:104530008D7F8093860180919001811103C081E07D
:104540008093900108958091450390918001981780
:1045500031F180938001882311F1883211F0883580
:1045600031F4809186018B7F809386010895E091DC
:1045700082018A3251F4EE2391F0E150E0938201FE
:10458000F0E0E657FE4F10820895E63040F4AE2F7B
:10459000B0E0A657BE4F8C93EF5FE0938201089581
:1045A00080914503811102C0109286010895BC01DB
:1045B00080918501DB01982F292F281B983058F016
:1045C00090938501620F711D27FD7A957093930179
:1045D0006093920122C0FD0125913491211109C0FF
:1045E0009093850110929301109292019923D1F03A
:1045F00014C0492F50E0F901FF27EE0FFF1FE052D2
:10460000FF4F25913491440F551FFA01EC56FE4F90
:10461000318320839F5F1196CFCF80918601836085
:104620008093860181E008954091850128E030E083
:10463000241B31092617370758F1B0E04B2F0B2EFA
:10464000000C550B46175707D8F4A09185012A2F67
:1046500030E0FC01E40FF51FE081F0E0EE0FFF1FFA
:10466000E052FF4F45915491220F331FF901EC5650
:10467000FE4F51834083AF5FA0938501BF5FDECFC4
:10468000672B41F08091860183608093860102C090
:1046900080E0089581E0089590918501983090F42C
:1046A000E92FF0E0EE0FFF1FEC56FE4F8083618391
:1046B0009F5F90938501809186018360809386013E
:1046C00081E0089580E008959C0190918501911109
:1046D0002EC0A901983049F490938501205F3F4F87
:1046E00030938901209388011BC0FA016591749170
:1046F0004E5F5F4F6115710549F4909385011092EB
:10470000890110928801992381F00AC0E92FF0E015
:10471000EE0FFF1FEC56FE4F718360839F5FDACF71
:104720008091860183608093860181E0089580E016
:104730000895AC018091850181113EC06093910183
:10474000282F082E000C330B2617370758F59091A9
:104750008501220F331F983038F0240F351F309316
:104760008401209383011EC0FA01E20FF31F208110
:104770003181E92FF0E0EE0FFF1FEC56FE4F318341
:1047800020839F5F90938501909191019150909328
:104790009101911105C0109284011092830102C011
:1047A0008F5FCECF80918501882341F08091860173
:1047B00083608093860102C080E0089581E00895BF
:1047C0009091860191FD75CE2091880130918901EB
:1047D0002115310511F0C90177CF20918301309166
:1047E00084012115310539F060919101062E000CEC
:1047F000770BC9019ECF2091920130919301211531
:10480000310511F0C901D3CE92FD9DCEC9CEEAE8A3
:10481000F1E01082118212821382148215821092AA
:10482000820180914503809380018091860185609B
:10483000809386010895E82FF0E0EE0FFF1FE0520D
:10484000FF4F85919491089508959091DB019031E7
:1048500078F4E92FF0E09F01220F331FE20FF31FDE
:10486000EA55FE4F8083728361839F5F9093DB01E3
:10487000089541111BC04091DB0150E090E0292FC9
:10488000092E000C330B2417350784F4F901EE0FC1
:10489000FF1F2E0F3F1FF901EA55FE4F20812813FD
:1048A00003C07283618308959F5FE9CFCECF8A30C2
:1048B00010F4805D0895895C08951F93CF93DF9372
:1048C000182FEB0182958F70F2DF8883812F8F7014
:1048D000EEDF8983DF91CF911F9108951F93CF93CE
:1048E000DF93182FEB01892FE8DFBE016E5F7F4F4A
:1048F000812FDF91CF911F91E0CF8F929F92AF9246
:10490000BF92CF92DF92EF92FF920F931F93CF93BC
:10491000DF931F92CDB7DEB79C018B0180E3FB01D3
:10492000808380E28183828383E0E82EF12C94E609
:10493000892E912C4AE0B42E682D70E0911003C0AE
:104940002617370790F06801C90CD11C97FCDA9440
:10495000C9010E94A241A82E862F9983A8DFF601E3
:1049600080832A2D9981392F9394882D6B2D0E9455
:104970009641882EF1E0EF1AF108F1F60F90DF91E1
:10498000CF911F910F91FF90EF90DF90CF90BF904C
:10499000AF909F908F90089597EA980F993010F4F8
:1049A0008855089592EE980F993010F48D5108951E
:1049B0009CEF980F963010F48A5F089580E0089578
:1049C000BF92CF92DF92EF92FF920F931F93CF93FC
:1049D000DF937C018B0180E090E0B12CC42FD0E00C
:1049E0002B2D0B2C000C330B2017310790F48C9FD0
:1049F00060018D9FD00C9C9FD00C1124F701E20F19
:104A0000F31F8081C9DF9601280F311DC901B394BE
:104A1000E7CFDF91CF911F910F91FF90EF90DF9043
:104A2000CF90BF9008950F931F93CF93DF9300D043
:104A300000D0CDB7DEB780918601811176C4E091B8
:104A4000A5018E2F90E08A31910508F06CC4FC011D
:104A5000E45BFF4F0C94C94180E99FE3A8DDD7DEFA
:104A600082E011C011E01093A50180918A0194DFCA
:104A7000893009F458C4843019F41093DC0155C40A
:104A8000813021F483E08093A5014FC4823011F47A
:104A900087E0F9CF833021F4FAC1883009F4BFC030
:104AA0008AE29DE320C08BE39EE381DDB0DE84E0FB
:104AB000EACF13E01093A50180918A016DDF893060
:104AC00011F481E0E0CF813099F49091CC068927F0
:104AD0008093CC0682E00E94A1358091CC06882389
:104AE00021F084EE9CE363DD20C48EEB9CE3FBCFDE
:104AF000823099F49091C80681E089278093C80696
:104B000081E00E94A1358091C806882319F083E8CE
:104B10009CE3E9CF8CE59CE3E6CF8330B1F483E5F9
:104B20009AE345DDBE016F5F7F4F8091BD06C5DE14
:104B30008AE08B8363E070E0CE01019675DD88E545
:104B40009AE335DD64DE8FE09ECF8430F9F4809106
:104B5000CB06811109C081E08093CB0685E00E94DD
:104B6000A13581EE9BE3BFCF813041F41093CB069A
:104B700085E00E94A1358CE19CE3B5CF1092CB0675
:104B800085E00E94A1358DE99BE3ADCF853099F496
:104B90009091C00681E089278093C00687E00E943B
:104BA000A1358091C006882319F08FE59BE39BCF48
:104BB00083E39BE398CF8630B9F483E59AE3F7DC8F
:104BC0008091C306BE016F5F7F4F90E096DE8AE062
:104BD0008B8363E070E0CE01019626DD89EB98E3DC
:104BE000E6DC15DE80E14FCF873009F056CF83E554
:104BF0009AE3DDDC8091BA0690E0BE016F5F7F4FE3
:104C000001967BDE8AE08B8363E070E0CE01019643
:104C10000BDD81EE98E3CBDCFADD81E134CF9091BE
:104C2000B90681E089278093B90680E10E94A13509
:104C30008091B906882341F086E08093CD060E94DA
:104C4000A1358EEE9AE34FCF8CE08093CD0686E0BF
:104C50000E94A13586EA9AE346CF81E49DE3A7DC72
:104C6000D6DD88E010CF87E08093A50180918A018E
:104C700093DE893009F425CF8130B9F483E59AE3D6
:104C800096DC8091CD06BE016F5F7F4F90E035DEF0
:104C90008AE08B8363E070E0CE010196C5DC8CE294
:104CA0009AE385DCB4DD82E1EECE8230C1F483E5A7
:104CB0009AE37DDCBE016F5F7F4F8091C5069091C6
:104CC000C6061BDE8AE08C8364E070E0CE010196AC
:104CD000ABDC89E09AE36BDC9ADD83E1D4CE8330F0
:104CE000D9F483E59AE363DC8091C1069091C20612
:104CF000BE016F5F7F4F919581959109FEDD8AE03E
:104D00008C8364E070E0CE0101968EDC8AED99E33D
:104D10004EDC7DDD84E1B7CE8430B9F483E59AE3DF
:104D200046DC8091BE06BE016F5F7F4F90E0E5DDFF
:104D30008AE08B8363E070E0CE01019675DC83EB43
:104D400099E335DC64DD85E19ECE8530B9F483E5F9
:104D50009AE32DDC8091C406BE016F5F7F4F90E027
:104D6000CCDD8AE08B8363E070E0CE0101965CDCF1
:104D700086E899E31CDC4BDD86E185CE8630C1F404
:104D800083E59AE314DCBE016F5F7F4F8091C90613
:104D90009091CA06B2DD8AE08C8364E070E0CE01B7
:104DA000019642DC82E699E302DC31DD87E16BCEDD
:104DB0008730B9F483E59AE3FADB8091BC06BE0143
:104DC0006F5F7F4F90E099DD8AE08B8363E070E056
:104DD000CE01019629DC8DE399E3E9DB18DD88E15A
:104DE00052CE883009F0A1C283E59AE3E0DB8091DE
:104DF000C706BE016F5F7F4F90E07FDD8AE08C8346
:104E000064E070E0CE0101960FDC8DE099E3CFDB2A
:104E1000FEDC89E138CE8DE29FE3C9DBF8DC86E079
:104E200032CE85E08093A50180918A01B5DD89307D
:104E300009F447CE813011F489E025CE823069F43F
:104E4000E6EAF1E0108212821182339641E0E63DFB
:104E5000F407C1F71092DB0168C2833031F486E8B1
:104E60009AE3A5DBD4DC8CE00ECE843009F018CEBA
:104E70008EE009CE8091DA01803158F01092DA018B
:104E80008AE0898361E070E0CE010196CDDB85E0A8
:104E9000FACD83EA9AE38BDBBE016F5F7F4F80918F
:104EA000DA010BDD62E070E0CE010196BDDB8CE93A
:104EB0009AE37DDB8AE0E7CD8091DA0190E0FC01A6
:104EC000EE0FFF1F8E0F9F1FFC01EA55FE4FBE0124
:104ED0006F5F7F4F8081F1DC62E070E0CE01019670
:104EE000A3DB86E99AE363DB8BE0CDCD8091DA0129
:104EF00090E0FC01EE0FFF1F8E0F9F1FFC01EA5593
:104F0000FE4FBE016F5F7F4F81819281E7DC64E0DD
:104F100070E0CE01019688DB89E08093A501A3C0F3
:104F20006091820170E040E18AE891E049DD909370
:104F3000D7018093D6011092D9011092D80188E749
:104F40009AE335DB64DC8DE09ECD8091D8019091B1
:104F5000D901892B89F40091D6011091D701609174
:104F6000820170E040E18AE891E02ADD800F911F24
:104F70009093D9018093D80110E20AE0E091D60124
:104F8000F091D7018091D8019091D901E817F907E4
:104F9000D8F4BE016F5F7F4F80818FDC8091D80194
:104FA0009091D90101972091D6013091D70128170E
:104FB000390711F40B8301C01B8363E070E0CE015D
:104FC000019632DB81110DC02091D6013091D701BD
:104FD0008091D8019091D9012817390708F057CF4F
:104FE000A4C18091D6019091D70101969093D701E9
:104FF0008093D601C3CF8091DA01803178F010928E
:10500000DA018AE0898361E070E0CE0101960CDB71
:1050100085E08093A5010E94483887C1182F13703E
:10502000082F06950695111102C08AE001C080E2A2
:10503000898361E070E0CE010196F6DA84E0189F82
:10504000F0011124E00FF11DEE0FFF1FEC52F94F9C
:10505000BE016F5F7F4F8081918140DC64E070E032
:10506000CE010196E1DA8091DA018F5F8093DA0157
:105070005CC16091820170E04AE08AE891E0A0DCC6
:105080008A30910578F48093BD0683E00E94A135B3
:1050900083E59AE38CDABE016F5F7F4F8091BD0696
:1050A0000CDC1AC18AEA98E382DAECCC60918201C6
:1050B00070E04AE08AE891E083DC9C0121503109EC
:1050C0002336310558F48093CD0686E00E94A13541
:1050D00083E59AE36CDA8091CD0679C08AEA98E399
:1050E00066DAD6CC6091820170E04AE08AE891E00D
:1050F00067DC9C0121503109273E334078F79093BB
:10510000C6068093C50689E00E94A13583E59AE32F
:105110004EDABE016F5F7F4F8091C5069091C60643
:10512000B8C06091820170E04AE08AE891E048DC12
:105130009C0121503109273E334080F6919581959D
:1051400091099093C2068093C1068AE00E94A1351E
:1051500083E59AE32CDA8091C1069091C206BE01E4
:105160006F5F7F4F91958195910993C06091820106
:1051700070E04AE08AE891E023DC9C01215031098B
:105180002336310508F0AACF8093BE068BE00E943B
:10519000A13583E59AE30BDA8091BE0618C06091D1
:1051A000820170E04AE08AE891E00ADC9C0121502B
:1051B00031092336310508F091CF8093C4068CE085
:1051C0000E94A13583E59AE3F2D98091C406BE011D
:1051D0006F5F7F4F90E091DB8AE08B8363E070E04C
:1051E000CE01019621DA54CC6091820170E04AE050
:1051F0008AE891E0E5DB9C0121503109273E3340EC
:1052000008F06CCF9093CA068093C9068DE00E9487
:10521000A13583E59AE3CBD9BE016F5F7F4F8091C3
:10522000C9069091CA0635C06091820170E04AE0DB
:105230008AE891E0C5DB9C01215031092336310514
:1052400008F04CCF8093BC068EE00E94A13583E528
:105250009AE3ADD98091BC06BACF6091820170E02B
:105260004AE08AE891E0ACDB9C01215031092F3FF4
:10527000310508F033CF8093C7068FE00E94A13537
:1052800083E59AE394D98091C706BE016F5F7F4F93
:1052900090E033DB8AE08C8364E070E0A1CF609122
:1052A000820170E04AE08AE891E08ADB9C012150AB
:1052B00031092031310508F0F5CE8093C30684E032
:1052C0000E94A13583E59AE372D98091C306BE019D
:1052D0006F5F7F4F90E011DB8AE08B8363E070E0CB
:1052E000CE010196A1D9CECB6091820170E04AE057
:1052F0008AE891E065DB9C012150310920313105BC
:1053000008F0D0CE81508093BA0688E00E94A13583
:1053100083E59AE34CD98091BA0690E0BE016F5FB5
:105320007F4F0196D8CF1092A5010F900F900F904C
:105330000F90DF91CF911F910F91089526E0829FEA
:10534000C0011124FC01E05CFE4F0190F081E02DD2
:10535000208181E090E001C0880F6A95EAF7822BF6
:105360008083089526E0829FC0011124FC01E05C47
:10537000FE4F0190F081E02D808160956823462BDF
:105380004083089526E0829FC0011124FC01E05C67
:10539000FE4F0280F381E02D208181E090E001C08A
:1053A000880F6A95EAF7822B8083089526E0829F12
:1053B000C0011124FC01E05CFE4F0280F381E02D6E
:1053C000208181E090E001C0880F6A95EAF780951E
:1053D00082238083089526E0829FC0011124FC016E
:1053E000E05CFE4F0280F381E02D80816823462B34
:1053F0004083089526E0829FC0011124FC01E05CF7
:10540000FE4F0480F581E02D808186230895E82FEA
:10541000E695E695E695F0E0E85CFC4F982F9770EE
:1054200021E030E001C0220F9A95EAF79081292B04
:1054300020839091320320E029175CF4E22F022EA2
:10544000000CFF0BEB5BFC4F30813817A1F02F5F96
:10545000F3CF96305CF4E92F092E000CFF0BEB5BC9
:10546000FC4F80839F5F90933203089510924B030B
:1054700081E080933B050895E82FE695E695E69553
:10548000F0E0E85CFC4F982F977021E030E001C01D
:10549000220F9A95EAF720959081292320839091F5
:1054A000320345E453E0FA012E2F241B291724F47C
:1054B00031913813F9CF01C00895E22F022E000C6C
:1054C000FF0BEB5BFC4F818180832F5F2917ACF3CF
:1054D00091509093320310923B050895E82FE69582
:1054E000E695E695F0E0E85CFC4F982F977021E098
:1054F00030E001C0220F9A95EAF790812927208396
:105500009091320345E453E0FA012E2F241B291712
:1055100024F431913813F9CF13C096305CF4E92F9D
:10552000092E000CFF0BEB5BFC4F80839F5F909379
:105530003203089510924B0381E080933B05089558
:10554000E22F022E000CFF0BEB5BFC4F818180836E
:105550002F5F2917ACF391509093320310923B05C3
:10556000089590918D0494305CF4E92F092E000C7D
:10557000FF0BED5CFC4F80839F5F90938D0408953B
:1055800040E060E070E082E474D91092370308953F
:1055900020918D0443E353E0FA019E2F941B921750
:1055A0009CF431913813F9CF921751F0E92F092E5D
:1055B000000CFF0BED5CFC4F818180839F5FF4CF7B
:1055C000915090938D040895682F70E040E083E43B
:1055D00050C98091BD0680933E05089598E1899F4A
:1055E000600D112480912D0368130DC08091C106B8
:1055F0009091C2068417950734F480913D058F5F22
:1056000080933D05089510922D0310923D05089555
:10561000E091C506F091C6064E175F0754F491E07D
:10562000F9019083F8E18F9F600D112460932D03A1
:105630000895F901108210922D0310923D050895EE
:1056400090919101E92FEE0FFF0BE35BFC4F20914E
:105650002F0330E0322F2227282B318320839F5FB6
:1056600090939101089590914005911110C0805D33
:105670008E3068F4E82FF0E0EE0FFF1FEB56FA4E85
:1056800085919491880F991F8B569A4E1DC8089545
:10569000CF93DF93C82FD62F64DF80913E05909182
:1056A000BD06891711F08B5F61D580E18C0F809367
:1056B0003E0585E18C0F3AD58FE038D580913E05C7
:1056C00090912E03D0FF02C0981308C0981308C011
:1056D00080913D05811104C08091BD0680932E0309
:1056E000DF91CF910895E82FF0E0E052FE4F8491D2
:1056F000882311F060E0CCCF08951F93CF93DF9300
:1057000000D01F92CDB7DEB7182F2B834A83698351
:105710003FDF2B814A816981222399F120913E0547
:10572000E22FF0E0812F90E0805F9109E817F90700
:1057300041F580913D05882319F061FD20932E03EA
:105740008091310381131DC062FF1BC0141624F425
:1057500060912F03842F13C0842F807E803E89F4B4
:10576000E42FF0E0EE0FFF1FE35AF14C8491809597
:1057700090912F03892380932F03649180E00E94EE
:105780004C2380913E058B5FF1D4E0918D04E111B3
:1057900003C080912E0307C00E2E000CFF0BEE5CA1
:1057A000FC4F8081805F80933E0580913E05909103
:1057B000BD06891741F08B5F0F900F900F90DF911E
:1057C000CF911F91B3C48FE00F900F900F90DF9196
:1057D000CF911F91CBC4E82FF0E0E052FE4F8491AF
:1057E000882321F020E040E060E087CF08956F70CB
:1057F000623051F028F4662339F0613081F0089569
:10580000643011F06830F1F4E82FF0E0EE0FFF1F84
:10581000E35AF14CE49180912F03E82B0AC0E82F62
:10582000F0E0EE0FFF1FE35AF14CE49180912F035B
:10583000E827E0932F0380913C05882319F0E77750
:10584000E0932F0308956F70623009F43FC018F49D
:10585000662381F10895643019F0683059F1089594
:10586000E82FF0E0EE0FFF1FE35AF14CE491E095D2
:1058700060912F036E2360932F03222309F444C009
:1058800090913103981340C0842F14168CF0807EC1
:10589000803E09F039C0E42FF0E0EE0FFF1FE35A1D
:1058A000F14C84918095682360932F03649180E08C
:1058B0000C944C23E82FF0E0EE0FFF1FE35AF14C5D
:1058C000E491E09580912F03E8231CC0E82FF0E0DD
:1058D00090912F03EE0FFF1FE35AF14C222379F032
:1058E00080913D05882359F08491E82FE92BE093BE
:1058F0002F0380913C05882339F0E77703C0E491BA
:10590000E095E923E0932F0308956F70623051F022
:1059100028F4662339F0613031F00895643011F0D5
:10592000683011F474CDDACD08956F70623049F0AB
:1059300018F461110DC00BC0643049F0683041F4B7
:1059400006C0222321F090913D05911101C094CD14
:1059500008951F93CF93DF931F92CDB7DEB7182F13
:10596000862F807F11F080937F011F3A09F4B5C024
:1059700098F5133A09F487C0B8F4133809F46DC0E8
:1059800050F4143008F415C1143708F453C0123819
:1059900009F45BC00EC1113A09F471C008F071C07E
:1059A000143809F464C005C1193A09F485C020F41B
:1059B000183A08F07AC069C01E3A08F08AC01B3A4B
:1059C00008F4FDC081E095E5910F01C0880F9A951C
:1059D000EAF780933F05F3C0193C09F4B3C090F493
:1059E000163C38F4113C08F095C0103C08F47DC01A
:1059F000E0C0173C09F49CC008F0A0C080913905B4
:105A00008F5F99C01F3D09F4C3C048F4103D08F4EE
:105A1000D0C01E3D08F0A8C0812F25DED0C0183EA2
:105A200008F4C4C08FE0810F893008F0C2C0812F14
:105A30002FDEC5C080913A05882321F0812F69832C
:105A4000FFDD6981812F61DFBAC08091300381FD64
:105A5000B6C060912F0389E307C08091300380FDB9
:105A6000AEC060912F0383E50E944C23A8C08091B3
:105A7000300382FDA4C060912F0387E4F5CF59D491
:105A80009EC031D49CC021D49AC080913A05811126
:105A900096C081E080933A05109291018093400571
:105AA0008CE5810F8093D00669C09091400581E01C
:105AB00089278093400583C090913C0581E0892728
:105AC00080933C05811102C085E060C085E02ED343
:105AD00076C082E08093DC0172C08091A5018111C3
:105AE0006EC081E08093A5016AC080918E04909180
:105AF0008F04892B09F063C0E0E5E10FF0E0EE0FC1
:105B0000FF1FEE50F04C8591949190938F048093F9
:105B10008E0455C0EFE3E10FF0E0EE0FFF1FED5EE6
:105B2000FF4BE49180913805E82BE093380547C09E
:105B30008091390581508093390509C080914C03CB
:105B4000815003C080914C038F5F80934C039091F0
:105B5000B80680913D05992321F09091B6069817DB
:105B600070F58093B6062BC090913A0581E08927A5
:105B700080933A05882321F01092910180E1A7CF0C
:105B80008091910181118093810180E1EFD217C052
:105B900080913A05811113C060918101062E000C9D
:105BA000770B8DE493E00E94992309C0812F1FDEBB
:105BB00006C0612F70E040E084E40E943924109315
:105BC00031030F90DF91CF911F9108951F93CF93D1
:105BD000DF9300D01F92CDB7DEB7182F862F807FBE
:105BE00011F010927F01103CF8F4103B08F09DC0BA
:105BF0001B3AA0F4113A08F0E2C0123809F476C05A
:105C000030F48CEF810F803708F449C0CCC01338D2
:105C100009F474C0143809F480C0C5C01E3A08F0F5
:105C2000CEC010923F05CBC0193C09F49EC008F5C8
:105C3000163C09F490C098F4113C08F4B4C06FE32A
:105C4000610FE62FF0E0EE0FFF1FED5EFF4BE491DA
:105C5000E09580913805E823E0933805B0C0173C03
:105C600009F47DC0183C09F09EC080914C038F5F01
:105C70007FC0183E38F4103E08F07DC0103D08F09B
:105C80009EC091C08FE0810F893008F08CC0812FB9
:105C90000F900F900F90DF91CF911F912ECD80919B
:105CA0003A058823D9F0809140058823B9F018324D
:105CB00011F01B3299F41092400510923A05809130
:105CC00091018150809381011092D10680E12B8354
:105CD0004A8369834BD269814A812B81812F0F903E
:105CE0000F900F90DF91CF911F911FCE80913003C5
:105CF00081FF65C060912F0389E307C08091300365
:105D000080FF5DC060912F0383E50F900F900F908F
:105D1000DF91CF911F910C944C238091300382FF2F
:105D20004EC060912F0387E4F0CF60E5610FE62F4E
:105D3000F0E0EE0FFF1FEE50F04C85919491209112
:105D40008E0430918F0428173907C9F510928F04FB
:105D500010928E0434C080913905815003C0809127
:105D600039058F5F809339052AC080914C0381509B
:105D700080934C0324C080913A05882361F0809180
:105D80003103811308C080E02B834A83698358DC88
:105D900069814A812B81812F0F900F900F90DF91A5
:105DA000CF911F9150CD612F70E040E085E40F90BE
:105DB0000F900F90DF91CF911F910C9439240F9089
:105DC0000F900F90DF91CF911F91089520912F0395
:105DD000227291E009F090E02091CC06222359F044
:105DE000992349F02091300320FF05C022EE280FAF
:105DF0002A3008F4855C2091C006222321F18335E6
:105E000071F49091300381E089278093300380FF03
:105E100003C080E08BD11FC080E0A8D11CC027EA5E
:105E2000280F2B3080F420913003E82FF0E0EE0FA4
:105E3000FF1F20FF05C0992319F0E65DF04C02C05A
:105E4000E55DF04C84918A3A39F4911102C085E302
:105E5000089589E2089580E00895AF92BF92CF92AD
:105E6000DF92EF92FF920F931F93CF93DF9300D0B7
:105E70001F92CDB7DEB7D82E062F10E080913E05D9
:105E800098EAC92E98E1D99E70011124F701C89EA5
:105E9000E00DF11D1124E00FF11FEB5FF04F849135
:105EA0004A835B83698392DFB82E80913E05970118
:105EB000C89E200D311D1124200F311FF901EB5810
:105EC000F74FC490F901EB51FE4FA4900E0D1F1D2A
:105ED000F801EB57FD4FB082F801E057FB4FC0824D
:105EE000F801E352FE4FA0824A815B8169818D2DCA
:105EF00075DB4A2D6C2D8B2D2CDD25D20F900F904C
:105F00000F90DF91CF911F910F91FF90EF90DF9055
:105F1000CF90BF90AF900C947C3A9F92AF92BF927B
:105F2000CF92DF92EF92FF920F931F93CF93DF9365
:105F30001F92CDB7DEB798E1899F90011124260FFB
:105F4000311DF901EB57FD4F6F01B080F901E057AA
:105F5000FB4F7F01A080890103521E4FF801908002
:105F60009E012F5F3F4F54DB2981492D6A2D8B2DD8
:105F70002DDEF6011082F7011082F80110820F90D9
:105F8000DF91CF911F910F91FF90EF90DF90CF9015
:105F9000BF90AF909F90089528E1829FC001112487
:105FA0009C01260F311DF901EB57FD4F8081F9014E
:105FB000E057FB4F908193FF1AC018161CF46091B4
:105FC0002F0313C0982F907E903E89F4E82FF0E0C5
:105FD000EE0FFF1FE35AF14C8491809590912F03AF
:105FE000892380932F03649180E00C944C230895BF
:105FF00020914005211112C0FC01A5E4B3E00696F2
:1060000021E030913B05332311F0208302C03C9105
:10601000308331961196E817F90799F70895209182
:106020004005211109C0DC01E8E3F3E08DE08E0FAB
:1060300091919D938E13FCCF0895FC0180914005B2
:10604000811106C080917F0190912F03982B90833E
:10605000089528E1829FC0011124FC01E60FF11D83
:10606000EB5FF04FE491E83211F0E83539F441E0AC
:1060700060E070E081E50E943924C3C4089590E097
:106080009C01220F331F820F931FFC01EE52F94C2B
:106090002491FC0131968053994CE053F94C6217DE
:1060A00021F06491FC0184916DC96491FC0184919B
:1060B0007DC90F931F93CF93DF93E1E0F7E3D49172
:1060C00000ED16E3C0E0CD1769F0F8013196649158
:1060D000F801849133D960E08C2FD1DFCF5F0D5F61
:1060E0001F4FF1CF8091C3068093500580934D05DB
:1060F0008091BA0680934B05DF91CF911F910F914C
:10610000089580914905893F69F4809155058F3E36
:1061100019F41092550503C08F5F809355051092B6
:10612000490508958F5F80934905089590E0880F91
:10613000991FFC01EA55F94CA491FC01E955F94C71
:106140008491E0E0F7E3E491AE1778F4B0E0AF5B60
:10615000BA4F811103C08C91816006C09C919170EF
:10616000E82FEE0F892F8E0F8C93089590E0880F03
:10617000991FFC01EA55F94CA491FC01E955F94C31
:106180008491E0E0F7E3E491AE1780F4B0E0AF5B18
:10619000BA4F811104C08C918E7F8C9308959C918D
:1061A000292F2695281302C091709C930895823060
:1061B00049F0833079F08130A1F481E1B7DF82E1E9
:1061C000D5DF0CC081E1D2DF82E1D0DF83E1AEDF39
:1061D00084E1CCCF81E1CADF82E1A8DF83E1C6DFC1
:1061E000F7CF81E1C3DF82E1C1DF83E1BFDF84E17B
:1061F0009DCF0F931F93CF93E0E0F7E3E491C0E0CE
:106200000E2F10E08C2F0C2E000C990B801791078D
:1062100014F520914C052223C9F0FC01EF5BFA4FE5
:106220002081223018F421110FC010C0E22FE69512
:10623000F0E0E45DFF4B6491809155050E9496412A
:10624000921720F490FF02C061E001C060E08C2F43
:1062500016DFCF5FD7CFCF911F910F910895809117
:106260005005803110F081E002C08C5F8C7F8093FC
:1062700050050895809151058F5F813118F4809306
:106280005105089581E08093510510924F051092B9
:106290005405089590915005903120F081E080934D
:1062A0004C05089580914F0520915105929F902DA6
:1062B0001124891738F491E090934C05805F809306
:1062C0004F05089510924C050895E5EAF6E3E49130
:1062D00080914B058F5F8E1718F480934B050895BE
:1062E00010924B050895809152058F5F843018F409
:1062F0008093520502C0109252058091520581117F
:1063000003C08091500503C0813021F484E0809364
:106310004D050895823031F484E080934D0510924C
:106320004E05089580E180934D0581E080934E05F0
:10633000089595DF80915205811104C08091500528
:1063400080934D05089580915205823011F488E1C3
:106350000BC0833071F480914D05853010F084506E
:1063600003C0882321F0815080934D050895109239
:106370004D050895809153058F5F803318F4809305
:106380005305089510925305909152059130B1F440
:1063900020914E0580914D05222341F08F5F80931F
:1063A0004D058831E0F010924E050895815080939C
:1063B0004D058530A0F490934E050895923031F448
:1063C00080914D05853058F0815007C0933039F4E5
:1063D00080914D05803118F48F5F80934D050895AD
:1063E00080914D05803120F081E080934A05089529
:1063F00090915105899F802D112490914E05911106
:10640000807F90915405981738F481E080934A0575
:10641000905F90935405089510924A0508951F9334
:10642000CF93DF93E1E0F7E3E49110E0CE2FD0E0EB
:10643000212F012E000C330B2C173D07ECF4F90132
:10644000EB56F94CE491EE23A9F080914A0588239C
:1064500071F080914B05F90190E1899FE00DF11DEC
:106460001124EB56FA4CE49161E0E11101C060E0C7
:10647000812F05DE1F5FDCCFDF91CF911F91089543
:10648000F9DE08DF3EDEB5DE75DFAADFC8CF1F927A
:106490000F920FB60F9211240F900FBE0F901F9006
:1064A000189590E080E80FB6F8948093610090937F
:1064B00061000FBE0895F5CF8DEA9EED909302071F
:1064C00080930107089584E189BD86E189BD09B4FF
:1064D00000FEFDCF8091D8008F7D8093D800809101
:1064E000E00082608093E0008091E00081FDFCCFBD
:1064F0000895CF93DF93962F642F28E1929FE001B8
:106500001124C40FD11DCC0FDD1FCE59DA4F4881A5
:106510005981882301F157FF0EC02091CD0630E04C
:10652000319521953109241735077CF1892F95DCA8
:1065300084E090E020C02091C9063091CA0642173D
:10654000530794F0892F28DD2091BC06888199811A
:10655000821B910910C01416150684F42091CD06F3
:1065600030E0421753071CF44C5F5F4F10C0892F77
:10657000D4DC8CEF9FEF998388830BC08091C10698
:106580009091C2068417950724F444505109598309
:106590004883DF91CF9108950F931F93CF93DF939B
:1065A000082F862F642F98E1899FE0011124C40FE2
:1065B000D11DCC0FDD1FCE59DA4F5981011110C00A
:1065C00057FD29C08881952F93702091C106309185
:1065D000C2068217930708F40496998388833BC008
:1065E0000130C9F457FF17C00881152F137020918F
:1065F000C9063091CA060217130730F0CDDC80912E
:10660000BC06081B110902C00C5F1F4F19830883C9
:106610008981806817C0152F169516951F711C5F0C
:106620009091CD06191780F048815370002311F026
:1066300014DC01C072DC212F30E03983288389818A
:1066400000FB87F9898307C01F71110F110F537861
:10665000252F212B2983DF91CF911F910F91089531
:10666000CF92DF92EF92FF921F93CF93DF93E1EDF2
:10667000F7E3E491E0935605E0EDF7E3E491E0936E
:106680005D05EFECF7E3E491E0936005EEECF7E3F2
:10669000E491E093610582ECE82E87E3F82E97E51C
:1066A000C92E95E0D92ED0E0F701149180915D05B7
:1066B00081111FEFF7013196C4914C2F612F8D2F5F
:1066C0000E94B2292C2F2095F60121936F01422FB1
:1066D000412380915D05642F6095811101C040E0E8
:1066E0008D2F0E94EB29DF5FF2E0EF0EF11CD63018
:1066F000D9F68091B906882371F08CEC92E39093DF
:106700005F0580935E058091CD06813250F080E276
:106710008093CD0606C089E792E390935F0580934E
:106720005E05DF91CF911F91FF90EF90DF90CF90AA
:106730000895CF92DF92EF92FF920F931F93CF9322
:10674000C0E08091600590E02C2F0C2E000C330BE4
:10675000281739070CF054C087E5E82E85E0F82E9D
:10676000F6E0CF026001112400E010E0F801EC0D2A
:10677000FD1DEE5CF84C4491F70161917F01802F83
:106780000E94EB290F5F1F4F0630110579F78091AA
:10679000C7068A95F1F710E0212F012E000C330B6C
:1067A0008091610590E02817390744F580915D05D7
:1067B000220F331FF901ED5FF84C882351F06491EB
:1067C000F901EE5FF84C84910E94FA29882351F078
:1067D00013C06491F901EE5FF84C84910E94FA298C
:1067E000882351F080915605882319F06C2F812F52
:1067F00002C0612F8C2F2DDC1F5FCECFCF5FA1CFCA
:10680000CF911F910F91FF90EF90DF90CF9008955F
:10681000CF92DF92EF92FF920F931F93CF93DF936C
:10682000D62FC82FCD170CF05EC087E5E82E85E087
:10683000F82EF6E0CF026001112400E010E0F7012D
:1068400061917F016F3F49F0F801EC0DFD1DEE5C99
:10685000F84C4491802F0E94EB290F5F1F4F0630A8
:10686000110569F78091C7068A95F1F710E0212F8D
:10687000012E000C330B8091610590E02817390739
:1068800084F580915D05220F331FF901ED5FF84C0F
:10689000882359F06491F901EE5FF84C84910E94CD
:1068A000FA2991E0882361F00AC06491F901EE5F52
:1068B000F84C84910E94FA2991E0811101C090E086
:1068C00080915605E0915E05F0915F05882319F0EF
:1068D0004C2F612F02C0412F6C2F892F09951F5F0C
:1068E000C6CFCF5F9FCFDF91CF911F910F91FF90C8
:1068F000EF90DF90CF900895609160056695669562
:1069000080E086CF80916005682F70E0759567956F
:10691000869586957DCF8091600593E0899FB00133
:1069200011247595679575956795869571CF6091DA
:10693000600523E0629FC001112495958795959588
:10694000879566CF81E08093B50608952091B506BE
:10695000AC01249FC001259F900D11246AE070E0D6
:106960000E94A2418091B406562F581B852F609338
:10697000B4062F5F2093B5062B3028F01092B40692
:1069800091E09093B506089580913905811104C076
:1069900080914C03882311F181E08093B806209107
:1069A000BE068091B6069091C4063091B7063111AB
:1069B00020C0899FC0011124820F911DC7DF9091D3
:1069C0003905899F902D11249093B30690914C0323
:1069D000899F802D11248093B2060BC01092B806B7
:1069E0001092B4061092B3061092B2068AE0809319
:1069F000B5068091B706811103C081E08093B70688
:106A00000895CF93DF93CDB7DEB764970FB6F894B0
:106A1000DEBF0FBECDBF80E28093BF061092C806D6
:106A20001092CC061092BD0640E14093C30610922E
:106A3000CB063CE03093CD061092C0061092BA0609
:106A400060EF70E07093C6066093C50668E87FEF5C
:106A50007093C2066093C10695E09093BE062FE046
:106A60002093C40660E273E07093CA066093C9067F
:106A70008093BC069093C7061092B90689831A8248
:106A80001B821C824D831E823F831886198630EF3D
:106A90003A871B8638E83C873FEF3D879E872F87E4
:106AA000888B23E0298B8A8B9B8B1C8A44E150E0E6
:106AB00060E070E0CE0101960E94FC4164960FB642
:106AC000F894DEBF0FBECDBFDF91CF9108950F9335
:106AD0001F93CF93DF93C9E3D0E4FE0132968491F4
:106AE0003196E49190E0E23059F4FE010591149161
:106AF000805090400E94F741F8019183808309C043
:106B0000FE0105911491805090400E94EF41F801E0
:106B100080832496F0E4CD37DF07F9F66091BF0655
:106B2000603231F070E041E080E50E94392469DF95
:106B30008091CB068093BB06DF91CF911F910F917F
:106B4000089524E0829FC0011124FC01E55CFF4B05
:106B50002491FC01E45CFF4B3491FC01E75CFF4BAA
:106B6000822F90E0323041F4A591B4916D917C91E7
:106B7000805090400C941342A591B4916C91805038
:106B800090400C94054285E08093D1060895809151
:106B9000D0062EE28202C0011124FC01E550F84C1F
:106BA0004491FC01E450F84C3491FC01E350F84C62
:106BB0002491FC01E250F84C949150919101809104
:106BC000CE06513079F01CF4552331F01FC05230FD
:106BD00081F05330A9F01AC0442321F06AE10E94E9
:106BE00096412EC0332329F06AE10E949641965EB9
:106BF00027C0222329F06AE00E9496419C5C20C0B5
:106C0000992321F0982F9F71925C1AC0442311F0B0
:106C10006AE101C060E03111665E2111665F911189
:106C2000605E0E949641411101C0965E311103C021
:106C30009A3134F0965E211103C094330CF0965FC4
:106C4000E92F990FFF0BE35AFE4B8491089584506E
:106C50009272E82FF0E0EE0FFF1F911103C0E3588E
:106C6000FF4B02C0E258FF4B849108950F931F938E
:106C7000CF93DF93E091D00620919101022E000C7A
:106C8000330BCE2F0E2E000CDD0B8EE2E802F0014E
:106C90001124E650F84C649170E0C9010E94B6419D
:106CA000082F1091CE0660918101062E000C770B03
:106CB000C9010E94B641FC01FF27EE0FFF1FE35BF5
:106CC000FC4F80819181C3DF810F982F990F87FD41
:106CD0009F5F9093CE068EE28C9FF0018D9FF00D0A
:106CE0001124E00FF11DEE52F84CE4918091CE0694
:106CF000E827E093CE06DF91CF911F910F91089581
:106D0000EF92FF920F931F93CF93DF931F92CDB714
:106D1000DEB78091D0062EE28202C0011124FC0170
:106D2000E150F84C6491062F10E020EA30E0201B7F
:106D3000310B220F331FA901435B5C4F7A01209175
:106D4000D106223009F444C028F4222351F0213026
:106D5000C9F0AEC0233009F45BC0243009F47FC011
:106D6000A7C01092CE0621E02093D1061092910187
:106D7000FC01E650F84CE491E1119AC085E0809363
:106D8000D10696C020919101FC01E20FF11D27FD73
:106D9000FA95EE52F84CE4914091CE064E0F409396
:106DA000CE062F5F20939101FC01E650F84C8491B0
:106DB000022E000C330B90E0281739070CF478C032
:106DC00082E08093D106109291014093CF0670C06B
:106DD0001091CF06E0919101EE0FFF0BE35BFC4FAA
:106DE00080819181698333DF810F8093CF069091F9
:106DF00091019F5F90939101209181016981921788
:106E00000CF456C00E9496419093CF0683E022C0B6
:106E10002DDF8091CF06E80EF11CE80EF11CB7DEE5
:106E20000E941B24F701918380838091CF0690E01C
:106E30000196B8010E94B6418093CF0680919101DE
:106E40008F5F80939101082E000C990B801791079A
:106E50007CF184E08093D1061092910129C0809149
:106E60009101282F220F330BFA01E20FF31F40810B
:106E70005181F901E35BFC4F518340838F5F809325
:106E80009101082E000C990B801791078CF085E07A
:106E90008093D10660938101B8018DE493E00F9057
:106EA000DF91CF911F910F91FF90EF900C94992358
:106EB0000F90DF91CF911F910F91FF90EF90089568
:106EC0008091D106853009F01BCF089513BC109234
:106ED00080001092820080E89EE390938900809366
:106EE000880008951092D20678941092850010922E
:106EF000840081E08093810082E080936F009AE0BB
:106F000088E10FB6F894A895809360000FBE909327
:106F10006000E0E6F0E08081806C808308950FB629
:106F2000F894A89580916000886180936000109229
:106F300060000FBEE0E6F0E080818F7B80831092DE
:106F40006F001092810008958091840090918500D7
:106F5000E091D2062091F40634E0E39FF001112481
:106F6000E20FF11DEE0FFF1FEC52F94F208131812E
:106F70002817390780F4E091D2062091F40634E016
:106F8000E39FF0011124E20FF11DEE0FFF1FEC5201
:106F9000F94F918380830895CF93DF93C0E0D0E0D1
:106FA0008091D206FE0124E0829FE00DF11D1124A4
:106FB000EE0FFF1FE657F74C85919491009729F04B
:106FC000C093F406FC010995BFDF2196C430D105BA
:106FD00039F7DF91CF9108951092850010928400C7
:106FE0008091D306882381F08091D2066091F406C7
:106FF00070E0782B40E081E10E9439248091D30633
:107000008F5F8093D306089581E08093D3067894B0
:10701000C3DF8091D2068F5F8093D206843010F058
:107020001092D2068091D306823038F06091D30658
:1070300070E040E084E10E943924A8951092D306C4
:1070400008951F920F920FB60F9211240BB60F9254
:107050002F933F934F935F936F937F938F939F9360
:10706000AF93BF93EF93FF93B7DFFF91EF91BF9182
:10707000AF919F918F917F916F915F914F913F91D0
:107080002F910F900BBE0F900FBE0F901F90189571
:10709000E4EDF6E0118210821382128215821482CE
:1070A00017821682389686E0E43FF80799F708952C
:1070B000292F33272330310511F13CF421303105DC
:1070C00061F02230310571F07EC02132310531F19D
:1070D0002232310509F444C076C082E190E028E014
:1070E00033E47AC08091BB06833009F458C0813004
:1070F00009F45AC08DE690E02BE932E46DC099277F
:10710000009731F0019709F05EC0ECEBF1E402C0AA
:10711000E8E0F2E4849190E09F015EC0613059F0B4
:1071200078F06230C1F0633009F04DC089E090E042
:1071300028EF32E451C089E090E026EC32E44CC004
:107140008091BB068330A9F18130C1F189E090E0E4
:107150002DEA32E441C089E090E02FED32E43CC0FA
:10716000613051F070F06230A9F0633061F58DE16B
:1071700090E02AE133E430C08AE390E022E533E492
:107180002BC08091BB0680FD23C08FE390E02CE8EC
:1071900033E422C08BE190E027E333E41DC082E2B8
:1071A00090E02CE032E418C08DE690E02EE232E46C
:1071B00013C089E090E02EE132E40EC089E090E057
:1071C00020E432E409C080E090E020E030E004C038
:1071D0008FE390E02BEC33E4FA01318320830895B0
:1071E00081E00C94D7300895CF93DF9380E391E052
:1071F0007FD7C82F8091BB0681FD0DC080E291E052
:1072000077D7D82F80E191E073D78D23C82380E012
:1072100091E06ED7C823CC2311F080E001C083E059
:107220000E94D7308091E20084608093E200DF9179
:10723000CF91089580E391E023D68091BB0681FD34
:1072400009C080E291E01CD680E191E019D680E08F
:1072500091E016C6089580913E0190913F010097FC
:1072600029F0019790933F0180933E018091BB06E6
:1072700081FD21C080912E0190912F01009729F06E
:10728000019790932F0180932E0180911E01909180
:107290001F01009729F0019790931F0180931E0111
:1072A00080910E0190910F01009729F00197909322
:1072B0000F0180930E01089580E00C94D73082E096
:1072C0000C94D73080E00C94D7300F931F93CF935A
:1072D000DF93F901D80121E08033920711F5EF0126
:1072E000109290012091BB06CF01029620FD07C0AD
:1072F00020913901222319F00E940F3002C00E9410
:10730000F82FCE010E941D308091BB0680FF03C084
:1073100088E090E002C082E190E0F80191838083F0
:107320002CC021E080329207A9F41092B706809118
:10733000380580838091B30681838091B206828371
:1073400083E090E08D939C9381E09091B806911139
:1073500015C013C08051914049F480918E049091E2
:107360008F049183808382E090E005C080913F0587
:10737000808381E090E08D939C9380E0DF91CF91BA
:107380001F910F910895CF938053914009F081C0D0
:10739000F901808180933003C0916501C8278093F3
:1073A0006501CC2309F475C09091C006911111C0FC
:1073B000C0FF0FC080FF07C080E00E94963080E0D1
:1073C0000E94732B06C080E00E94B63080E00E94CD
:1073D000EB2BC1FF11C08091300381FF07C081E01A
:1073E0000E94963081E00E94732B06C081E00E94CB
:1073F000B63081E00E94EB2BC2FF24C080913003A5
:1074000082FF11C082E00E94963082E00E94732BBE
:107410008091C8068823B1F081E080933C0585E027
:107420000E9496300FC082E00E94B63082E00E9437
:10743000EB2B8091C806882329F010923C0585E04B
:107440000E94B630C3FF11C08091300383FF07C094
:1074500083E00E94963083E00E94732B06C083E095
:107460000E94B63083E00E94EB2BC4FF12C08091D3
:10747000300384FF07C084E00E94963084E0CF91FF
:107480000C94732B84E00E94B63084E0CF910C946E
:10749000EB2BCF9108958091BB0680FF09C088E057
:1074A0008093380188E090E090933301809332011B
:1074B000089580E391E02FD68091BB0681FD09C03D
:1074C00080E291E028D680E191E025D680E091E04D
:1074D00022D6BCD48091F80690916401981759F097
:1074E0006091F80670E041E086EA0E9439248091BC
:1074F000F8068093640108958091F606882331F0A0
:107500008091F806853011F40C9463320895CF927F
:10751000DF92EF92FF920F931F93CF93DF93EC01D3
:107520008B017A01D8D1811133C0E114F10439F013
:10753000F70180819181081B190BC80FD91FC12C3D
:10754000D12C0115110519F18091E80085FD16C0B7
:107550008091E8008E778093E80078D4E114F104FC
:1075600049F0F70180819181C80ED91ED182C08275
:1075700085E00EC0B0D1882321F30AC089918093A1
:10758000F10001501109FFEFCF1ADF0ADACF80E0D6
:10759000DF91CF911F910F91FF90EF90DF90CF90EF
:1075A00008952091FF06309100072617370748F00D
:1075B0006115710539F42091E8002E772093E800D9
:1075C00001C0B90140E06115710599F12091F806FB
:1075D000222309F441C0253009F440C02091E8007D
:1075E00023FD3EC02091E80022FD30C02091E8003C
:1075F00020FFE9CF2091F2003091F300FC01CF0190
:107600006115710559F02830310540F4819180935E
:10761000F100615071092F5F3F4FF1CF41E02830F9
:10762000310509F040E02091E8002E772093E80032
:10763000CACF4111CBCF0AC08091F806882361F0F0
:10764000853061F08091E80083FD0AC08091E800F8
:1076500082FFF2CF80E0089582E0089583E00895EC
:1076600081E008956115710529F42091E8002B77D8
:107670002093E800FC016115710531F18091F80655
:10768000882351F1853051F18091E80083FD22C0BB
:107690008091E80082FFEFCF8091F2009091F3009B
:1076A000892B31F08091F100819361507109A1F72C
:1076B0008091E8008B778093E800DDCF8091F80619
:1076C000882351F0853051F08091E80080FFF6CF9B
:1076D00080E0089581E0089582E0089583E00895B0
:1076E0002091FF06309100072617370748F06115F3
:1076F000710539F42091E8002E772093E80001C04D
:10770000B901FC0120E06115710581F18091F80655
:10771000882309F43EC0853009F43DC08091E8001B
:1077200083FD3BC08091E80082FD2DC08091E80080
:1077300080FFE9CF8091F2009091F300611571050F
:1077400059F08830910540F424912093F10031964E
:10775000615071090196F2CF21E0089709F020E00D
:107760008091E8008E778093E800CDCF2111CECFB5
:107770000AC08091F806882361F0853061F080911D
:10778000E80083FD0AC08091E80082FFF2CF80E02C
:10779000089582E0089583E0089581E00895982F88
:1077A000973058F59093E900981739F07091EC00F4
:1077B0002091ED005091F00003C0242F762F50E06F
:1077C00021FF19C03091EB003E7F3093EB003091E8
:1077D000ED003D7F3093ED003091EB003160309350
:1077E000EB007093EC002093ED005093F00020919B
:1077F000EE0027FF07C09F5FD3CF8F708093E90013
:1078000081E0089580E00895EF92FF920F931F9317
:10781000CF93DF93E62EEC018C010C5F1F4FF12C10
:10782000FE1491F15881552351F1F80120816981AD
:107830007A8131979081852F8F70873010F080E0AA
:1078400024C0223010F442E001C046E0E8E0F0E05D
:1078500020E0E617F70720F42F5FEE0FFF1FF9CFA8
:107860002295207F422BF0E49F9F90011124551F09
:107870005527551F652F622B92DF882301F3F39460
:1078800025960B5F1F4FCCCF81E0DF91CF911F91E9
:107890000F91FF90EF9008958091F90687FF11C036
:1078A0008091E80082FD05C08091F8068111F8CF33
:1078B00011C08091E8008B770BC08091F806882377
:1078C00049F08091E80080FFF8CF8091E8008E7742
:1078D0008093E80008952091E4003091E50095E65A
:1078E0004091EC00842F817040FF22C08091E8001D
:1078F00080FD1CC08091F806882391F0853091F0BE
:107900008091EB0085FD10C04091E4005091E500AE
:107910004217530729F39A01915011F784E0089513
:1079200082E0089583E0089581E0089580E008955D
:107930004091E80042FFDECF089568D06FD0E0EEBE
:10794000F0E0808181608083E8EDF0E080818F77D6
:10795000808319BCA7EDB0E08C918E7F8C938081E1
:107960008F7E80831092F70608950F931F93CF9315
:10797000DF934CD053D0C8EDD0E088818F778883D7
:1079800088818068888388818F7D8883E7EDF0E037
:1079900080818068808319BC1092F8061092F506E9
:1079A0001092F60600EE10E0F80180818B7F808354
:1079B00088818160888342E060E080E0F0DEE1EE73
:1079C000F0E080818E7F8083E2EEF0E08081816054
:1079D0008083808188608083F80180818E7F8083AE
:1079E000888180618883DF91CF911F910F910895E5
:1079F000E8EDF0E080818F7E8083E7EDF0E080812C
:107A00008160808381E08093F706AFCFE8EDF0E0FE
:107A100080818C7F80831092E20008951092DA00BA
:107A20001092E10008951F920F920FB60F92112449
:107A30000BB60F922F933F934F935F936F937F9368
:107A40008F939F93AF93BF93EF93FF938091E10048
:107A500082FF0AC08091E20082FF06C08091E100AF
:107A60008B7F8093E100F7DB8091DA0080FF1DC0FF
:107A70008091D80080FF19C08091DA008E7F8093BA
:107A8000DA008091D90080FF0CC084E189BD86E1D5
:107A900089BD09B400FEFDCF81E08093F806A0DB2C
:107AA00004C019BC1092F8069EDB8091E10080FFB3
:107AB00018C08091E20080FF14C08091E2008E7FA8
:107AC0008093E2008091E20080618093E2008091E7
:107AD000D80080628093D80019BC85E08093F806B6
:107AE000EEDB8091E10084FF2FC08091E20084FFF3
:107AF0002BC084E189BD86E189BD09B400FEFDCFBC
:107B00008091D8008F7D8093D8008091E1008F7E96
:107B10008093E1008091E2008F7E8093E20080916B
:107B2000E20081608093E2008091F506882311F0E5
:107B300084E007C08091E30087FD02C081E001C0BE
:107B400083E08093F806BEDB8091E10083FF22C0D2
:107B50008091E20083FF1EC08091E100877F8093C7
:107B6000E10082E08093F8061092F5068091E10032
:107B70008E7F8093E1008091E2008E7F8093E2000F
:107B80008091E20080618093E20042E060E080E06A
:107B900006DE92DBFF91EF91BF91AF919F918F91A4
:107BA0007F916F915F914F913F912F910F900BBEFD
:107BB0000F900FBE0F901F9018951F93CF93DF93D8
:107BC000CDB7DEB7AA970FB6F894DEBF0FBECDBF14
:107BD000E9EFF6E088E08E0F9091F10091938E131B
:107BE000FBCF28DB8091E80083FF18C18091F90664
:107BF0009091FA06492F50E04A30510508F00EC125
:107C0000FA01EA59FF4FC5C3803881F0823809F084
:107C100005C18091FD068F708093E9008091EB0093
:107C200085FB882780F91092E90007C08091F6064D
:107C3000882311F082E001C080E09091E800977FF6
:107C40009093E8008093F1001092F100C4C0282FB7
:107C50002D7F09F0E3C0882319F0823061F0DEC087
:107C60008091FB06813009F0D9C0933009F080E0A3
:107C70008093F6062BC08091FB06811127C080916E
:107C8000FD068F7009F4CAC08093E9002091EB00D3
:107C900020FF1CC0933021F48091EB00806214C05F
:107CA0009091EB0090619093EB0021E030E0A9010E
:107CB00002C0440F551F8A95E2F74093EA001092E4
:107CC000EA008091EB0088608093EB001092E9005D
:107CD0008091E800877F82C08111A0C01091FB06CF
:107CE0001F778091E3008078812B8093E30080915F
:107CF000E800877F8093E800CFDD8091E80080FF77
:107D0000FCCF8091E30080688093E300111102C0F2
:107D100082E001C083E08093F80680C08058823002
:107D200008F07CC08091FB069091FC068C3D53E0EE
:107D3000950771F583E08A838AE289834FB7F894C7
:107D4000DE01139620E03EE051E2E32FF0E0509395
:107D50005700E49120FF03C0E295EF703F5FEF70A2
:107D60008E2F90E0EA3010F0C79601C0C0968D9338
:107D70009D932F5F243149F74FBF8091E800877FA3
:107D80008093E8006AE270E0CE0101960ADC12C03E
:107D9000AE014F5F5F4F6091FD068AD9BC01892B10
:107DA00009F43CC09091E800977F9093E8008981A6
:107DB0009A8196DC8091E8008B778093E8002EC052
:107DC000803861F58091E800877F8093E80080919A
:107DD000F5068093F1008091E8008E778093E800AB
:107DE0005BDD1CC081111AC09091FB069230B0F48B
:107DF0008091E800877F8093E8009093F5064CDD42
:107E00008091F506811106C08091E30087FD02C0D4
:107E100081E001C084E08093F806E6D98091E80013
:107E200083FF0AC08091E800877F8093E8008091FB
:107E3000EB0080628093EB00AA960FB6F894DEBF49
:107E40000FBECDBFDF91CF911F910895CF93809149
:107E5000F806882399F0C091E900CF709091EC006A
:107E6000892F817090FD80E8C82B1092E9008091E5
:107E7000E80083FDA2DECF70C093E900CF910895A2
:107E80006F927F928F929F92AF92BF92CF92DF922A
:107E9000EF92FF920F931F93CF93DF9300D01F9227
:107EA000CDB7DEB77C01CDB6DEB68091E80083FFAA
:107EB00008C1F701808190E02091FD063091FE0617
:107EC0002817390709F0FDC08091FA06833009F4BC
:107ED0009FC030F4813071F0823009F4D6C0F1C017
:107EE0008A3009F4BAC08B3009F4A3C0893009F094
:107EF000E8C051C08091F906813A09F0E2C08DB620
:107F00009EB61A8219828091FB061091FC068B8323
:107F1000F7018085482F50E08DB79EB7841B950BE5
:107F20000FB6F8949EBF0FBE8DBFEDB7FEB731966A
:107F30005F0160E070E0CF014BD24FEF410F8E0147
:107F40000F5F1F4F9501BE016D5F7F4FC701BDD908
:107F5000F70186819781009721F0408550E0B501B7
:107F60002ED21092E9008091E800877F8093E8008C
:107F70008B8181118093F10069817A81C50111DBC8
:107F80008091E8008B778093E8000FB6F8949EBE4E
:107F90000FBE8DBE96C08091F906813209F091C066
:107FA000ADB6BEB60091FF06109100077090FB06BB
:107FB0006090FC068DB79EB7801B910B0FB6F894AE
:107FC0009EBF0FBE8DBFEDB7FEB731964F018091BA
:107FD000E800877F8093E800B801CF0143DB809100
:107FE000E8008E778093E80021E0711001C020E066
:107FF00030E0021B130B280D391D4FEF460D672D86
:10800000C701C1D90FB6F894BEBE0FBEADBE59C0F0
:108010008091F906813A09F054C08091E800877F89
:108020008093E8008091E80080FFFCCFF701818514
:1080300040C08091F906813209F043C08091E80088
:10804000877F8093E80028DC9091FB0681E0911106
:1080500001C080E0F701818734C08091F906813248
:1080600081F58091E800877F8093E80015DC80919E
:10807000FB069091FC06882736E0969587953A9501
:10808000E1F7F701958784871CC08091F906813A52
:10809000C1F48091E800877F8093E8008091E80038
:1080A00080FFFCCFF70184859585969587959695F9
:1080B00087958093F1008091E8008E778093E800A7
:1080C000EBDB0FB6F894DEBE0FBECDBE0F900F9067
:1080D0000F90DF91CF911F910F91FF90EF90DF9064
:1080E000CF90BF90AF909F908F907F906F900895AA
:1080F000FC01399627E0DF011D922A95E9F721E07E
:10810000FC01218724EF31E03587248723E0248395
:1081100061E0019679CB4F925F926F927F928F923E
:108120009F92AF92BF92CF92DF92EF92FF920F9306
:108130001F93CF93DF9300D01F92CDB7DEB77C01A2
:10814000ADB6BEB68091F806843009F08DC080913E
:10815000E4009091E500F70122853385281739075F
:1081600009F482C081818F708093E9008091E800DA
:1081700085FF7AC08DB69EB6408550E08DB79EB71C
:10818000841B950B0FB6F8949EBF0FBE8DBFEDB745
:10819000FEB731966F011B821A82198260E070E08F
:1081A000CF0116D18E010F5F1F4F960140E0BE0137
:1081B0006D5F7F4FC70189D8482EF701848595856B
:1081C000892B51F091E080E026853785232B09F03B
:1081D00090E0092F182F02C000E010E0F701668040
:1081E00077806114710489F049815A81B301C60115
:1081F000D9D055245394892B09F4512CF70140858B
:1082000050E0B601C301DBD001C0512C89819A81B5
:10821000892BF1F0411004C0511002C0012BC1F0B4
:10822000F701848595859787868781818F708093F4
:10823000E9008B8181118093F10069817A8140E0AE
:1082400050E0C60164D98091E8008E778093E80001
:108250008091E4009091E500F701938782870FB643
:10826000F8949EBE0FBE8DBE0FB6F894BEBE0FBE74
:10827000ADBE0F900F900F90DF91CF911F910F9196
:10828000FF90EF90DF90CF90BF90AF909F908F9036
:108290007F906F905F904F90089508950E945B3299
:1082A0000E9424240E9467350E9430330E94593076
:1082B0000E94E92A0E94A2340E944C220E94C335E7
:1082C0000E946637E8D80E94993392CB0E94723799
:1082D0008091DC018823E1F30C948F372EDBF89436
:1082E0002FEF87EA91E6215080409040E1F700C0EF
:1082F00000008091DC01823011F40E945C32809198
:10830000DC01882359F09CE088E10FB6F894A89529
:10831000809360000FBE90936000FFCF0895BDDF93
:10832000BDDFD4DFDBDF80E090E00895991B79E0CA
:1083300004C0991F961708F0961B881F7A95C9F7F5
:1083400080950895AA1BBB1B51E107C0AA1FBB1F44
:10835000A617B70710F0A61BB70B881F991F5A95D1
:10836000A9F780959095BC01CD01089597FB072E44
:1083700016F4009406D077FD08D0E4DF07FC05D0A2
:108380003EF4909581959F4F0895709561957F4F2C
:108390000895EE0FFF1F0024001C0BBE0790F691FE
:1083A000E02D0994FB01DC0104C08D91019080193E
:1083B00021F441505040C8F7881B990B0895FB01E8
:1083C000DC0102C001900D9241505040D8F7089551
:1083D000DC0101C06D9341505040E0F70895F999D8
:1083E000FECF92BD81BDF89A992780B50895A8E186
:1083F000B0E042E050E01CC0DC01CB0102C02D9196
:1084000005D041505040D8F70895262FF999FECF56
:108410001FBA92BD81BD20BD0FB6F894FA9AF99AA1
:108420000FBE01960895F1DF272FF0CFDC01CB01BD
:10843000FC01F999FECF06C0F2BDE1BDF89A319674
:1084400000B40D9241505040B8F70895F894FFCF12
:10845000038401000001660101000000000000002B
:10846000028302000001670102000000000000001A
:108470000182030000016901030000000000000008
:108480000081120000016C011200000000000000D9
:108490002400250023002700280026002A002B00A6
:1084A00029002D002E002C00300031002F0021006B
:0484B0002200200086
:00000001FF
