:100000000C94321F0C94831F0C94831F0C94831F39
:100010000C94831F0C94831F0C94831F0C94831FD8
:100020000C94831F0C94831F0C9412390C94831F1F
:100030000C947E2F0C94831F0C94831F0C94831FAD
:100040000C94831F0C9403340C94831F0C94831F13
:100050000C94831F0C94831F0C94831F0C94831F98
:100060000C94831F0C94831F0C94831F0C94831F88
:100070000C94831F0C94831F0C94831F0C94831F78
:100080000C94831F0C94831F0C94831F0C94831F68
:100090000C94831F0C94831FDD2669226F2290220B
:1000A00096225324592475237B238224A424BE241E
:1000B000D824ED24432581259726BC269E25BA25E4
:1000C000D925FE2517263C265C267526033A263AB6
:1000D0000D3B263A0D3B6B3A8D3A0D3BDF3AF13A38
:1000E0000000000000000000000000000000000010
:1000F0002A002B002800000000002800000000005B
:1001000000000000000000000000000000000000EF
:1001100000000000000029000000000000000000B6
:100120002C001E023402200221022202240234008A
:100130002602270225022E0236002D003700380045
:1001400027001E001F0020002100220023002400A1
:10015000250026003302330036022E003702380213
:100160001F020402050206020702080209020A022F
:100170000B020C020D020E020F02100211021202FB
:1001800013021402150216021702180219021A02AB
:100190001B021C021D022F003100300023022D0221
:1001A00035000400050006000700080009000A00E9
:1001B0000B000C000D000E000F00100011001200CB
:1001C00013001400150016001700180019001A007B
:1001D0001B001C001D002F023102300235024C00B2
:1001E000000000000000000000000000000000000F
:1001F00000000000000000000000000000000000FF
:1002000000000000000000000000000000000000EE
:1002100000000000000000000000000000000000DE
:103260000000000000000000000000000000FF005F
:10327000FF00FF00FF00FF00FF00FF00FF00FF0056
:10328000FF00FF00FF00FF00FF00FF00FF00FF0046
:10329000FF00FF00FF00FF00FF0000000000000033
:1032A000000000000000000000000000000000001E
:1032B000000000000000000000000000000000000E
:1032C00000000000000000000000080C00000000EA
:1032D00000000000000000000000000000000000EE
:1032E00000000000000000000000000000000000DE
:1032F00000000000000000000000000000000000CE
:1033000000000000000000000000000000000000BD
:1033100000000000000000000000000000000000AD
:10332000000000000000000000000000000000009D
:10333000000000000000000000000000000000008D
:10334000000000000000000000000000000000007D
:10335000000000000000000000000000000000006D
:10336000000000000000000000000000000000005D
:10337000000000000000000000000000000000004D
:103380000000000000000000000000004236FF3195
:10339000772F000005324732772F000058360E3263
:1033A000772F00001A3223215022772F4F75742077
:1033B0006F662072616E67652E0A00456E746572D5
:1033C000206E65772064656661756C742064696D34
:1033D0006D6572206C6576656C2028312D3136293B
:1033E0003E2000456E746572206E657720646566C8
:1033F00061756C74206261636B6C696768742065C9
:103400006E61626C652028312D3136293E200045E1
:103410006E746572206E6577206D617472697820B4
:103420007365747570207761697420696E206379A3
:10343000636C65732028312D323535293E200045D7
:103440006E746572206E6577207265706561742098
:1034500074696D6520696E206D732028312D3939AE
:10346000293E2000456E746572206E657720686F76
:103470006C642074696D6520696E206D732028313D
:103480002D393939293E2000456E746572206E65EC
:1034900077206D6F757365206D6F76656D656E74E1
:1034A000206D756C7469706C6965722028312D39D6
:1034B00039293E2000456E746572206E6577206262
:1034C000617365206D6F757365206D6F76656D65D1
:1034D0006E742028312D3939293E2000456E7465DF
:1034E00072206E657720646F75626C657461702000
:1034F00064656C61792074696D6520696E206D73F7
:103500002028312D393939293E2000456E746572E5
:10351000206E6577207461702074696D6520696E16
:10352000206D732028312D393939293E2000456E10
:10353000746572206E6577206465626F756E636571
:103540002074696D6520696E206D732028312D39D6
:1035500039293E20005365743A00456E7465722027
:103560006E65772064656661756C74206C61796541
:10357000722028302D39293E20004279746573204D
:1035800028686578293E2000416464726573732061
:1035900028686578293E200020532D3078005D2072
:1035A000432D3078000A5B005573696E67206465AF
:1035B0006661756C74202268616972207472696733
:1035C00067657222206465626F756E636520616C49
:1035D000676F726974686D20616E642072657365CF
:1035E0007474696E67206465626F756E63652074BC
:1035F000696D652E0A005573696E6720616C74658C
:10360000726E6174652022636F6E6669726D22202E
:103610006465626F756E636520616C676F72697453
:10362000686D20616E6420726573657474696E677D
:10363000206465626F756E63652074696D652E0A1E
:10364000004E756D206C6F636B206973206C696E22
:103650006B656420746F207468652073797374657A
:103660006D206E756D206C6F636B2E0A004E756D4C
:10367000206C6F636B2077696C6C2066756E637469
:10368000696F6E20696E646570656E64656E746CDA
:1036900079206F66207468652073797374656D2076
:1036A0006E756D206C6F636B2E0A004B6579626FCF
:1036B0006172643A204E4B524F2C206D65646961F3
:1036C0002F706F776572206B6579733A2059455377
:1036D0002C206D6F7573653A205945532E0A004BA7
:1036E0006579626F6172643A204E4B524F2C206DA7
:1036F000656469612F706F776572206B6579733AC5
:10370000205945532C206D6F7573653A204E4F2E0E
:103710000A004B6579626F6172643A20364B524FF2
:103720002C206D656469612F706F776572206B6501
:1037300079733A205945532C206D6F7573653A2083
:103740005945532E0A004B6579626F617264206996
:1037500073206C696D6974656420746F2073746183
:103760006E6461726420364B524F20626F6F742D0D
:10377000636F6D70617469626C65206B6579626FEF
:10378000617264206F6E6C792E0A005363726F6CE5
:103790006C206C6F636B2077696C6C206E6F74208B
:1037A0006166666563742077696E206C6F636B2E4B
:1037B0000A0057696E646F7773206B6579207769AB
:1037C0006C6C2062652064697361626C656420774B
:1037D00068656E207363726F6C6C206C6F636B2016
:1037E000697320656E61626C65642E0A004E756DAA
:1037F000206C6F636B2077696C6C206E6F74206136
:103800006666656374206E756D62657220726F778F
:103810002E0A004E756D62657220726F772077698F
:103820006C6C206265207377617070656420666FD0
:1038300072206E756D706164206B65797320776896
:10384000656E206E756D206C6F636B2069732065EB
:103850006E61626C65642E0A00496E707574206E2C
:103860006F74207265636F676E697A65642E0A00F3
:103870000A54696D696E67204D656E753A0A312983
:1038800020536574206465626F756E63652074698A
:103890006D650A322920536574206D617820686F48
:1038A0006C642074696D6520666F72207461700AA3
:1038B000332920536574206D61782064656C6179CB
:1038C0002074696D6520666F7220646F75626C6527
:1038D000207461700A342920536574206261736515
:1038E000206D6F757365206D6F76656D656E740AFA
:1038F000352920536574206D6F757365206D6F7663
:10390000656D656E74206D756C7469706C69657237
:103910000A362920536574206D696E20686F6C64C7
:103920002074696D6520666F7220726570656174C0
:103930000A372920536574207265706561742070A0
:103940006572696F640A382920536574206D61744B
:1039500072697820736574757020776169740A39AB
:1039600029204261636B0A3E20000A436F6E66693C
:1039700067204D656E753A0A312920546F67676C70
:1039800065207669727475616C206E756D2070614A
:10399000640A322920546F67676C652077696E204E
:1039A0006C6F636B206F6E207363726F6C6C206C36
:1039B0006F636B0A332920536574206465666175F3
:1039C0006C74206C617965720A342920546F6767C2
:1039D0006C65206B6579626F6172642066656174E5
:1039E000757265730A352920546F67676C65207599
:1039F0006E6C696E6B206E756D206C6F636B0A3632
:103A000029205365742064656661756C742064694F
:103A10006D6D6572206C6576656C0A37292053657B
:103A2000742064656661756C74206261636B6C6997
:103A300067687420656E61626C650A382920546F6E
:103A400067676C65206465626F756E63652073746B
:103A5000796C650A3929204261636B0A3E20000AAD
:103A60004465627567204D656E753A0A31292050AC
:103A700072696E74206576656E74730A322920430C
:103A80006C656172206576656E74730A3329204512
:103A900078616D696E65206D656D6F72790A342984
:103AA000205072696E742F636C65617220636C6F55
:103AB000636B2D696E730A3929204261636B0A3E7C
:103AC00020000A4D61696E204D656E753A0A3129F4
:103AD00020436F6E666967206D656E750A32292016
:103AE00054696D696E67206D656E750A33292044CF
:103AF00065627567206D656E750A3429205265739D
:103B000065740A392920517569740A3E20001E4DDA
:103B10001F51204E21502200234F244A2552264B6C
:103B20002749374CB500B600B700CD006F007000D4
:103B3000E200E500E900EA00520153015401550199
:103B400083018A01920194012102230224022502A9
:103B5000260227022A02B101B202B304B408B5104A
:103B6000E001E102E204E308E410E520E640E7803A
:103B70000105080A0C0F101414181800F00C0600A8
:103B80000115060101190602010A060301100604C7
:103B900001180605011A0606010D060701070608A9
:103BA00001120609020E060B020B060D0111060E8C
:103BB0000116060F0209061101140612010606136A
:103BC000014A03450061007300790041005600522C
:103BD0000020004D0075006C00740069006D0065E8
:103BE0000064006900610020004B006500790062FC
:103BF000006F006100720064002000760023002E38
:103C000000230023002E00230023000000040309EA
:103C10000409022200010100A0320904000001038E
:103C20000101000921B0010001223F0007058103C5
:103C300008000109025400030100A0320904000039
:103C400001030101000921B0010001223F00070525
:103C50008103120001090401000103000000092191
:103C6000B0010001221B00070582030200080904BD
:103C7000020001030000000921B0010001221D0023
:103C80000705830301000809026D00040100A0324A
:103C90000904000001030101000921B00100012213
:103CA0003F0007058103080001090401000103002A
:103CB00000000921B0010001221B00070582030258
:103CC00000080904020001030000000921B00100FE
:103CD00001221D00070583030100080904030001F8
:103CE000030102000921B0010001223A0007058406
:103CF0000303000509026D00040100A0320904005D
:103D00000001030101000921B0010001223F000769
:103D100005810312000109040100010300000009EC
:103D200021B0010001221B000705820302000809DF
:103D300004020001030000000921B0010001221D5E
:103D400000070583030100080904030001030102C1
:103D5000000921B0010001223A0007058403030095
:103D6000051201000200000008EB03FF2010000014
:103D700001000105010980A10105011500250119B6
:103D8000812983750195038106950175058101C01F
:103D9000050C0901A101050C160100269C021A015F
:103DA000002A9C02751095018100C005010902A13D
:103DB000010901A100050919012903150025019533
:103DC000037501810295017505810105010930091D
:103DD000311681FF267F00360000460000950275EF
:103DE000088106C0C005010906A101050719E029DF
:103DF000E715002501750195088102950175088177
:103E000001050819012905950575019102950175AE
:103E10000391011500250105071900297F9580757B
:103E2000018102C005010906A101050719E029E782
:103E3000150025017501950881029501750881011C
:103E4000050819012905950575019102950175036C
:103E50009101150025FF0507190029FF9506750832
:103E60008100C000E1EDF6E085EC90E201C08193B5
:103E7000EF3FF907E0F3D9F311241FBECFEFD0E2F3
:103E8000DEBFCDBFC4B714BE0FB6F894A89580911D
:103E90006000886180936000109260000FBEC3FFD5
:103EA00011C08091CF069091D0068D3A9E4D51F46D
:103EB0001092D0061092CF06EBE7FBE325913491E8
:103EC000F901099585B7806885BF85B7806885BF8A
:103ED000C093CE0611E0A0E0B1E0E4E2FCE700E030
:103EE0000BBF02C007900D92A436B107D9F726E0A8
:103EF000A4E6B1E001C01D92AA34B207E1F70E9426
:103F00008C3D0C94103E0C94000010928A0110928B
:103F100089011092850110928401109294011092EF
:103F2000930108952091860180919101222309F443
:103F30003CC0811141C080918801811132C08091C3
:103F4000A50181112AC090917F01921305C01092A2
:103F5000860110927F0130C0E92FF0E0EE0FFF1FC5
:103F6000EB56FE4F80812181813031F4209388010E
:103F70009F5F90937F0120C090918001921719F06C
:103F80002093800119C08093A501811188D7809169
:103F90007F018F5F80937F010FC0B6D71092A5017C
:103FA0000BC081508093880107C0811105C08091AA
:103FB00087018D7F8093870180919101811103C0DA
:103FC00081E08093910108958091FE02909181019A
:103FD000981731F180938101882311F1883211F013
:103FE000883531F4809187018B7F80938701089514
:103FF000E09183018A3251F4EE2391F0E150E09395
:104000008301F0E0E557FE4F10820895E63040F45A
:10401000AE2FB0E0A557BE4F8C93EF5FE0938301C6
:104020000895109280018091FE02811102C01092C9
:1040300087010895BC0180918601DB01982F292F0B
:10404000281B983058F090938601620F711D27FD50
:104050007A95709394016093930122C0FD0125919C
:104060003491211109C0909386011092940110920D
:1040700093019923D1F014C0492F50E0F901FF2793
:10408000EE0FFF1FE052FF4F25913491440F551F53
:10409000FA01EB56FE4F318320839F5F1196CFCFFD
:1040A0008091870183608093870181E0089540912A
:1040B000860128E030E0241B31092617370758F124
:1040C000B0E04B2F0B2E000C550B46175707D8F4BA
:1040D000A09186012A2F30E0FC01E40FF51FE0815A
:1040E000F0E0EE0FFF1FE052FF4F45915491220F79
:1040F000331FF901EB56FE4F51834083AF5FA0930E
:104100008601BF5FDECF672B41F08091870183601E
:104110008093870102C080E0089581E00895909126
:104120008601983090F4E92FF0E0EE0FFF1FEB5678
:10413000FE4F808361839F5F90938601809187010A
:1041400083608093870181E0089580E008959C0159
:104150009091860191112EC0A901983049F4909355
:104160008601205F3F4F30938A01209389011BC055
:10417000FA01659174914E5F5F4F6115710549F4C5
:104180009093860110928A0110928901992381F0FF
:104190000AC0E92FF0E0EE0FFF1FEB56FE4F7183D0
:1041A00060839F5FDACF809187018360809387016E
:1041B00081E0089580E00895AC018091860181112D
:1041C0003EC060939201282F082E000C330B261757
:1041D000370758F590918601220F331F983038F039
:1041E000240F351F30938501209384011EC0FA01EE
:1041F000E20FF31F20813181E92FF0E0EE0FFF1F66
:10420000EB56FE4F318320839F5F90938601909100
:104210009201915090939201911105C010928501E5
:104220001092840102C08F5FCECF809186018823D7
:1042300041F08091870183608093870102C080E014
:10424000089581E0089590918701992329F191FDC6
:1042500069CE2091890130918A012115310511F033
:10426000C90175CF20918401309185012115310557
:1042700039F060919201062E000C770BC9019CCF9A
:1042800020919301309194012115310511F0C9015C
:10429000D1CE92FD99CEC5CE0895EBE8F1E0108223
:1042A00011821282138214821582109283018091EE
:1042B000FE02809381018091870185608093870150
:1042C000089508959091DC01903178F4E92FF0E0A1
:1042D0009F01220F331FE20FF31FE955FE4F80832A
:1042E000728361839F5F9093DC01089541111BC02D
:1042F0004091DC0150E090E0292F092E000C330B97
:104300002417350784F4F901EE0FFF1F2E0F3F1F0E
:10431000F901E955FE4F2081281303C072836183A0
:1043200008959F5FE9CFCECF8A3010F4805D089565
:10433000895C08951F93CF93DF93182FEB0182952B
:104340008F70F2DF8883812F8F70EEDF8983DF919A
:10435000CF911F9108951F93CF93DF93182FEB01F7
:10436000892FE8DFBE016E5F7F4F812FDF91CF91F4
:104370001F91E0CF8F929F92AF92BF92CF92DF9228
:10438000EF92FF920F931F93CF93DF931F92CDB7BE
:10439000DEB79C018B0180E3FB01808380E2818397
:1043A000828383E0E82EF12C94E6892E912C4AE05A
:1043B000B42E682D70E0911003C02617370790F0D7
:1043C0006801C90CD11C97FCDA94C9010E949F3D79
:1043D000A82E862F9983A8DFF60180832A2D998144
:1043E000392F9394882D6B2D0E94933D882EF1E0F8
:1043F000EF1AF108F1F60F90DF91CF911F910F9115
:10440000FF90EF90DF90CF90BF90AF909F908F90F4
:10441000089597EA980F993010F48855089592EE10
:10442000980F993010F48D5108959CEF980F9630A5
:1044300010F48A5F089580E00895BF92CF92DF92D2
:10444000EF92FF920F931F93CF93DF937C018B0129
:1044500080E090E0B12CC42FD0E02B2D0B2C000C71
:10446000330B2017310790F48C9F60018D9FD00C87
:104470009C9FD00C1124F701E20FF31F8081C9DF4C
:104480009601280F311DC901B394E7CFDF91CF9179
:104490001F910F91FF90EF90DF90CF90BF90089504
:1044A0000F931F93CF93DF9300D000D0CDB7DEB72B
:1044B00080918701811181C4E091A6018E2F90E047
:1044C0008A31910508F077C4FC01E45BFF4F0C943E
:1044D000B33D82EC9AE3AEDDE0DE82E011C011E094
:1044E0001093A60180918B0194DF893009F463C495
:1044F000843019F41093DD0160C4813021F483E02D
:104500008093A6015AC4823011F487E0F9CF83303A
:1045100021F405C2883009F4CAC089E598E320C0B7
:104520008AE699E387DDB9DE84E0EACF13E01093F1
:10453000A60180918B016DDF893011F481E0E0CF1D
:10454000813099F49091190689278093190682E0A9
:104550000E94243380911906882321F083E198E397
:1045600069DD2BC48DEE97E3FBCF823099F49091F7
:10457000150681E089278093150681E00E94243387
:1045800080911506882319F082EB97E3E9CF8BE839
:1045900097E3E6CF8330B1F485E595E34BDDBE01CB
:1045A0006F5F7F4F80910A06C5DE8AE08B8363E0F0
:1045B00070E0CE0101967BDD8AE595E33BDD6DDEA3
:1045C0008FE09ECF843051F580911806811109C08B
:1045D00081E08093180685E00E94243382E197E30E
:1045E000BFCF813049F482E08093180685E00E94B5
:1045F00024338FED96E3B4CF823041F41093180644
:1046000085E00E94243386E497E3AACF109218062F
:1046100085E00E9424338BEA96E3A2CF853099F49B
:1046200090910D0681E0892780930D0687E00E9416
:10463000243380910D06882319F08DE696E390CF00
:1046400081E496E38DCF8630B9F485E595E3F2DC1D
:1046500080911006BE016F5F7F4F90E08BDE8AE095
:104660008B8363E070E0CE01019621DD8BEB93E359
:10467000E1DC13DE80E144CF873009F04BCF85E5E4
:1046800095E3D8DC8091070690E0BE016F5F7F4F15
:10469000019670DE8AE08B8363E070E0CE010196C4
:1046A00006DD83EE93E3C6DCF8DD81E129CF90914E
:1046B000060681E089278093060680E10E94243364
:1046C00080910606882341F086E080931A060E94B6
:1046D000243386EF95E344CF8CE080931A0686E07E
:1046E0000E94243388EA95E33BCF80E798E3A2DC7D
:1046F000D4DD88E005CF87E08093A60180918B010F
:1047000088DE893009F41ACF8130B9F485E595E364
:1047100091DC80911A06BE016F5F7F4F90E02ADE28
:104720008AE08B8363E070E0CE010196C0DC8EE20C
:1047300095E380DCB2DD82E1E3CE8230C1F485E531
:1047400095E378DCBE016F5F7F4F809112069091F8
:10475000130610DE8AE08C8364E070E0CE010196DF
:10476000A6DC8BE095E366DC98DD83E1C9CE83307F
:10477000D9F485E595E35EDC80910E0690910F06F5
:10478000BE016F5F7F4F919581959109F3DD8AE0BE
:104790008C8364E070E0CE01019689DC8CED94E3BB
:1047A00049DC7BDD84E1ACCE8430B9F485E595E36A
:1047B00041DC80910B06BE016F5F7F4F90E0DADD38
:1047C0008AE08B8363E070E0CE01019670DC85EBBC
:1047D00094E330DC62DD85E193CE8530B9F485E584
:1047E00095E328DC80911106BE016F5F7F4F90E05A
:1047F000C1DD8AE08B8363E070E0CE01019657DC77
:1048000088E894E317DC49DD86E17ACE8630C1F48E
:1048100085E595E30FDCBE016F5F7F4F8091160643
:1048200090911706A7DD8AE08C8364E070E0CE01EA
:1048300001963DDC84E694E3FDDB2FDD87E160CE6D
:104840008730B9F485E595E3F5DB80910906BE0173
:104850006F5F7F4F90E08EDD8AE08B8363E070E0D6
:10486000CE01019624DC8FE394E3E4DB16DD88E1DE
:1048700047CE883009F0A1C285E595E3DBDB809166
:104880001406BE016F5F7F4F90E074DD8AE08C8379
:1048900064E070E0CE0101960ADC8FE094E3CADBAD
:1048A000FCDC89E12DCE8FE59AE3C4DBF6DC86E003
:1048B00027CE85E08093A60180918B01AADD893007
:1048C00009F43CCE813011F489E01ACE823069F4CB
:1048D000E7EAF1E0108212821182339641E0E73D6F
:1048E000F407C1F71092DC0168C2833031F488E824
:1048F00095E3A0DBD2DC8CE003CE843009F00DCE52
:104900008EE0FECD8091DB01803158F01092DB010A
:104910008AE0898361E070E0CE010196C8DB85E022
:10492000EFCD85EA95E386DBBE016F5F7F4F809117
:10493000DB0100DD62E070E0CE010196B8DB8EE9BC
:1049400095E378DB8AE0DCCD8091DB0190E0FC012F
:10495000EE0FFF1F8E0F9F1FFC01E955FE4FBE019A
:104960006F5F7F4F8081E6DC62E070E0CE010196F0
:104970009EDB88E995E35EDB8BE0C2CD8091DB01B5
:1049800090E0FC01EE0FFF1F8E0F9F1FFC01E95509
:10499000FE4FBE016F5F7F4F81819281DCDC64E05E
:1049A00070E0CE01019683DB89E08093A601A3C06D
:1049B0006091830170E040E18BE891E03EDD9093EF
:1049C000D8018093D7011092DA011092D9018AE7B9
:1049D00095E330DB62DC8DE093CD8091D90190913D
:1049E000DA01892B89F40091D7011091D8016091E7
:1049F000830170E040E18BE891E01FDD800F911FA3
:104A00009093DA018093D90110E20AE0E091D70196
:104A1000F091D8018091D9019091DA01E817F90756
:104A2000D8F4BE016F5F7F4F808184DC8091D90113
:104A30009091DA0101972091D7013091D801281780
:104A4000390711F40B8301C01B8363E070E0CE01D2
:104A500001962DDB81110DC02091D7013091D80135
:104A60008091D9019091DA012817390708F057CFC2
:104A7000A4C18091D7019091D80101969093D8015B
:104A80008093D701C3CF8091DB01803178F0109201
:104A9000DB018AE0898361E070E0CE01019607DBEB
:104AA00085E08093A6010E942A3487C1182F1370D5
:104AB000082F06950695111102C08AE001C080E218
:104AC000898361E070E0CE010196F1DA84E0189FFD
:104AD000F0011124E00FF11DEE0FFF1FE35EF94F0F
:104AE000BE016F5F7F4F8081918135DC64E070E0B3
:104AF000CE010196DCDA8091DB018F5F8093DB01D0
:104B00005CC16091830170E04AE08BE891E095DC44
:104B10008A30910578F480930A0683E00E9424335A
:104B200085E595E387DABE016F5F7F4F80910A06C6
:104B300001DC1AC18CEA93E37DDAE1CC6091830158
:104B400070E04AE08BE891E078DC9C01215031096B
:104B50002336310558F480931A0686E00E942433E8
:104B600085E595E367DA80911A0679C08CEA93E3CC
:104B700061DACBCC6091830170E04AE08BE891E090
:104B80005CDC9C0121503109273E334078F790933B
:104B900013068093120689E00E94243385E595E38D
:104BA00049DABE016F5F7F4F809112069091130624
:104BB000B8C06091830170E04AE08BE891E03DDC91
:104BC0009C0121503109273E334080F69195819513
:104BD000910990930F0680930E068AE00E94243379
:104BE00085E595E327DA80910E0690910F06BE01C8
:104BF0006F5F7F4F91958195910993C0609183017B
:104C000070E04AE08BE891E018DC9C01215031090A
:104C10002336310508F0AACF80930B068BE00E9463
:104C2000243385E595E306DA80910B0618C0609180
:104C3000830170E04AE08BE891E0FFDB9C012150AA
:104C400031092336310508F091CF809311068CE0AD
:104C50000E94243385E595E3EDD980911106BE01CC
:104C60006F5F7F4F90E086DB8AE08B8363E070E0CC
:104C7000CE0101961CDA49CC6091830170E04AE0D4
:104C80008BE891E0DADB9C0121503109273E33406B
:104C900008F06CCF90931706809316068DE00E9463
:104CA000243385E595E3C6D9BE016F5F7F4F8091C0
:104CB00016069091170635C06091830170E04AE0B6
:104CC0008BE891E0BADB9C01215031092336310594
:104CD00008F04CCF809309068EE00E94243385E5CE
:104CE00095E3A8D980910906BACF6091830170E05D
:104CF0004AE08BE891E0A1DB9C01215031092F3F74
:104D0000310508F033CF809314068FE00E942433DE
:104D100085E595E38FD980911406BE016F5F7F4FC3
:104D200090E028DB8AE08C8364E070E0A1CF6091A2
:104D3000830170E04AE08BE891E07FDB9C01215029
:104D400031092031310508F0F5CE8093100684E05A
:104D50000E94243385E595E36DD980911006BE014C
:104D60006F5F7F4F90E006DB8AE08B8363E070E04B
:104D7000CE0101969CD9C3CB6091830170E04AE0DB
:104D80008BE891E05ADB9C0121503109203131053B
:104D900008F0D0CE81508093070688E00E9424332B
:104DA00085E595E347D98091070690E0BE016F5FE6
:104DB0007F4F0196D8CF1092A6010F900F900F90C1
:104DC0000F90DF91CF911F910F91089526E0829F60
:104DD000C0011124FC01E05CFE4F0190F081E02D48
:104DE000208181E090E001C0880F6A95EAF7822B6C
:104DF0008083089526E0829FC0011124FC01E05CBD
:104E0000FE4F0190F081E02D808160956823462B54
:104E10004083089526E0829FC0011124FC01E05CDC
:104E2000FE4F0280F381E02D208181E090E001C0FF
:104E3000880F6A95EAF7822B8083089526E0829F87
:104E4000C0011124FC01E05CFE4F0280F381E02DE3
:104E5000208181E090E001C0880F6A95EAF7809593
:104E600082238083089526E0829FC0011124FC01E3
:104E7000E05CFE4F0280F381E02D80816823462BA9
:104E80004083089526E0829FC0011124FC01E05C6C
:104E9000FE4F0480F581E02D808186230895E82F60
:104EA000E695E695E695F0E0EF50FD4F982F977068
:104EB00021E030E001C0220F9A95EAF79081292B7A
:104EC00020839091EB0220E029175CF4E22F022E60
:104ED000000CFF0BE250FD4F30813817A1F02F5F1F
:104EE000F3CF96305CF4E92F092E000CFF0BE25053
:104EF000FD4F80839F5F9093EB020895109204030F
:104F000081E08093D0040895E82FE695E695E69534
:104F1000F0E0EF50FD4F982F977021E030E001C096
:104F2000220F9A95EAF7209590812923208390916A
:104F3000EB024EEF52E0FA012E2F241B291724F426
:104F400031913813F9CF01C00895E22F022E000CE1
:104F5000FF0BE250FD4F818180832F5F2917ACF357
:104F600091509093EB021092D0040895E82FE695AB
:104F7000E695E695F0E0EF50FD4F982F977021E011
:104F800030E001C0220F9A95EAF79081292720830B
:104F90009091EB024EEF52E0FA012E2F241B2917BD
:104FA00024F431913813F9CF13C096305CF4E92F13
:104FB000092E000CFF0BE250FD4F80839F5F909302
:104FC000EB0208951092040381E08093D0040895C9
:104FD000E22F022E000CFF0BE250FD4F81818083F7
:104FE0002F5F2917ACF391509093EB021092D004ED
:104FF00008959091460494305CF4E92F092E000C3A
:10500000FF0BE451FD4F80839F5F9093460408950A
:1050100040E060E070E082E469D91092F002089507
:10502000209146044CEE52E0FA019E2F941B9217F9
:105030009CF431913813F9CF921751F0E92F092ED2
:10504000000CFF0BE451FD4F818180839F5FF4CF03
:105050009150909346040895682F70E040E083E4F7
:1050600045C980910A068093D304089596E1899FEB
:10507000600D11248091E60268130DC080910E0628
:1050800090910F068417950734F48091D2048F5FB6
:105090008093D20408951092E6021092D2040895EB
:1050A000E0911206F09113064E175F0754F491E059
:1050B000F9019083F6E18F9F600D11246093E60261
:1050C0000895F90110821092E6021092D204089518
:1050D00090919201E92FEE0FFF0BEA5FFC4F2091B8
:1050E000E80230E0322F2227282B318320839F5F74
:1050F0009093920108959091D504911110C0805D14
:10510000803168F4E82FF0E0EE0FFF1FE35AFE4E07
:1051100085919491880F991F835A9E4E18C80895BF
:10512000CF93DF93C82FD62F8091D304882311F01B
:105130008B5F53D580E18C0F8093D3045ADF80912D
:10514000D304882311F08B5F28D59091D3048091EC
:105150000A06981711F08FE020D58091D304909122
:10516000E702D0FF02C0981308C0981308C08091CE
:10517000D204811104C080910A068093E702DF9176
:10518000CF910895E82FF0E0E052FE4F84918823FC
:1051900011F060E0C5CF08950F931F93CF93DF9375
:1051A00000D01F92CDB7DEB7082F10E1180F809105
:1051B000D304882341F08B5F2B834A8369830DD509
:1051C00069814A812B81222361F18091D30481136B
:1051D00028C08091D204882319F061FD1093E70262
:1051E0008091EA0280131DC062FF1BC0141624F4D4
:1051F0006091E802842F13C0842F807E803E89F462
:10520000E42FF0E0EE0FFF1FEF55F64C84918095F0
:105210009091E80289238093E802649180E00E94E3
:105220008F20812FFDDEE0914604E11103C08091C3
:10523000E70206C00E2E000CFF0BE551FD4F8081EA
:105240008093D3048091D304882311F08B5FA5D47D
:105250009091D30480910A06981309C08FE00F90B3
:105260000F900F90DF91CF911F910F91B6C40F90C7
:105270000F900F90DF91CF911F910F910895E82F1C
:10528000F0E0E052FE4F8491882321F020E040E0DE
:1052900060E082CF08956F70623051F028F4662389
:1052A00039F0613081F00895643011F06830F1F424
:1052B000E82FF0E0EE0FFF1FEF55F64CE4918091E0
:1052C000E802E82B0AC0E82FF0E0EE0FFF1FEF55D1
:1052D000F64CE4918091E802E827E093E80280919F
:1052E000D104882319F0E777E093E80208956F70FE
:1052F000623009F43FC018F4662381F108956430E8
:1053000019F0683059F10895E82FF0E0EE0FFF1F13
:10531000EF55F64CE491E0956091E8026E236093BE
:10532000E802222309F444C09091EA02981340C095
:10533000842F14168CF0807E803E09F039C0E42F53
:10534000F0E0EE0FFF1FEF55F64C84918095682337
:105350006093E802649180E00C948F20E82FF0E0E5
:10536000EE0FFF1FEF55F64CE491E0958091E802B7
:10537000E8231CC0E82FF0E09091E802EE0FFF1F39
:10538000EF55F64C222379F08091D204882359F00E
:105390008491E82FE92BE093E8028091D1048823DF
:1053A00039F0E77703C0E491E095E923E093E80260
:1053B00008956F70623051F028F4662339F061303F
:1053C00031F00895643011F0683011F468CDCECD1D
:1053D00008956F70623049F018F461110DC00BC070
:1053E000643049F0683041F406C0222321F09091E6
:1053F000D204911101C088CD08951F93CF93DF93FC
:105400001F92CDB7DEB7182F862F807F11F08093C3
:105410008001113C09F48DC0E0F5163BD0F4113B3E
:1054200008F0C5C0133809F472C050F4143008F401
:1054300010C1143708F458C0123809F460C009C10B
:10544000143809F46EC0E9E6E10FE93108F49CC0B4
:1054500000C1183B09F4BFC050F4163B09F4B5C0B5
:10546000173B09F0F6C08091CE048150B1C0193BC2
:1054700009F4B5C083E4810F833008F0EAC081E00D
:1054800093E4910F01C0880F9A95EAF78093D404B2
:10549000E6C01E3C09F46CC0B0F4193C09F45BC0D2
:1054A00048F4133C09F449C008F445C0183C09F419
:1054B00046C0CFC01C3C09F4A7C008F0B9C01A3CD4
:1054C00009F4CDC0C6C0183E38F4103E08F0BEC086
:1054D0001F3C09F096C050C080E1810F8A3008F06F
:1054E000B8C0812F1DDEBBC08091CF04882321F07E
:1054F000812F6983EDDD6981812F5BDFB0C08091F1
:10550000E90281FDACC06091E80289E307C08091A7
:10551000E90280FDA4C06091E80283E50E948F202B
:105520009EC08091E90282FD9AC06091E80287E402
:10553000F5CF36D494C00ED492C0FED390C09091D3
:10554000D50481E089278093D504811102C085E1CB
:105550000BC085E164C09091D10481E089278093DC
:10556000D104811103C085E038D379C085E057C0EC
:1055700082E08093DD0173C08091A60181116FC02C
:1055800081E08093A6016BC080914704909148040C
:10559000892B09F064C0F0E0EE0FFF1FEC5DF44CC6
:1055A00085919491909348048093470458C0EFE408
:1055B000E10FF0E0EE0FFF1FE95AF44CE491809107
:1055C000CD04E82BE093CD044AC08091CE048F5FD8
:1055D0008093CE0409C080910503815003C080915F
:1055E00005038F5F80930503909105068091D20497
:1055F000992321F090910306981788F5809303066C
:105600002EC0812F78DD2BC09091CF0481E08927B7
:105610008093CF04882329F01092920180E1BDD2BB
:105620001EC08091920181118093820180E19CCF04
:105630008091CF04811113C060918201062E000C6D
:10564000770B86E093E00E94DC2009C0812F23DEE7
:1056500006C0612F70E040E084E40E947621109340
:10566000EA020F90DF91CF911F9108951F93CF937E
:10567000DF9300D01F92CDB7DEB7962F907F11F049
:1056800010928001893B09F4A6C008F03DC0803B20
:10569000D0F4873908F07FC0823809F45AC060F42A
:1056A0009CEF980F903708F0B5C00F900F900F90B7
:1056B000DF91CF911F918DCE833809F452C0843889
:1056C00009F45EC0A7C0863B09F47BC098F4813B17
:1056D00008F4A0C06FE4680FE62FF0E0EE0FFF1FA4
:1056E000E95AF44CE491E0958091CD04E823E093ED
:1056F000CD049CC0873B09F468C0883B09F08AC090
:10570000809105038F5F6AC08B3C70F4883C08F081
:105710008DC08D3B08F47EC0803CD0F19FE3980F94
:10572000933008F483C076C0883E38F4803E08F099
:1057300058C08C3C08F07AC06DC090E1980F9A3048
:1057400008F068C00F900F900F90DF91CF911F91DC
:1057500023CD8091E90281FF69C06091E80289E36D
:1057600007C08091E90280FF61C06091E80283E593
:105770000F900F900F90DF91CF911F910C948F207D
:105780008091E90282FF52C06091E80287E4F0CF85
:105790001092D4044BC069E6680FE62FF0E0EE0FDC
:1057A000FF1FEC5DF44C859194912091470430915A
:1057B000480428173907D1F510924804109247047D
:1057C00035C08091CE04815003C08091CE048F5F9C
:1057D0008093CE042BC080910503815080930503F4
:1057E00025C0182F8091CF04882361F08091EA02B0
:1057F000811308C080E02B834A83698369DC698157
:105800004A812B81812F0F900F900F90DF91CF91C4
:105810001F916DCD682F70E040E085E40F900F90F0
:105820000F90DF91CF911F910C9476210F900F90E4
:105830000F90DF91CF911F9108952091E80222727D
:1058400091E009F090E020911906222359F0992364
:1058500049F02091E90220FF05C022EE280F2A30EE
:1058600008F4855C20910D06222321F1833571F423
:105870009091E90281E089278093E90280FF03C0CB
:1058800080E08BD11FC080E0A8D11CC027EA280F80
:105890002B3080F42091E902E82FF0E0EE0FFF1F9B
:1058A00020FF05C0992319F0E45AF54C02C0E35AD1
:1058B000F54C84918A3C39F4911102C085E3089536
:1058C00089E2089580E00895AF92BF92CF92DF926F
:1058D000EF92FF920F931F93CF93DF9300D01F920D
:1058E000CDB7DEB7D82E062F10E08091D30494E810
:1058F000C92E96E1D99E70011124F701C89EE00DD2
:10590000F11D1124E00FF11FEB5CF34F84914A83EA
:105910005B83698392DFB82E8091D3049701C89E80
:10592000200D311D1124200F311FF901E35FF84FC5
:10593000C490F901EB51FE4FA4900E0D1F1DF8010C
:10594000EE59FD4FB082F801E75BFB4FC082F801D2
:10595000E252FE4FA0824A815B8169818D2D86DBF8
:105960004A2D6C2D8B2D49DD25D20F900F900F9075
:10597000DF91CF911F910F91FF90EF90DF90CF902B
:10598000BF90AF900C947C369F92AF92BF92CF9213
:10599000DF92EF92FF920F931F93CF93DF931F92AB
:1059A000CDB7DEB796E1899F90011124260F311DF6
:1059B000F901EE59FD4F6F01B080F901E75BFB4F34
:1059C0007F01A080890102521E4FF80190809E0144
:1059D0002F5F3F4F65DB2981492D6A2D8B2D46DED8
:1059E000F6011082F7011082F80110820F90DF910A
:1059F000CF911F910F91FF90EF90DF90CF90BF90CC
:105A0000AF909F90089526E1829FC00111249C01D0
:105A1000260F311DF901EE59FD4F8081F901E75B39
:105A2000FB4F908193FF1AC018161CF46091E80296
:105A300013C0982F907E903E89F4E82FF0E0EE0F8F
:105A4000FF1FEF55F64C849180959091E8028923D1
:105A50008093E802649180E00C948F200895209157
:105A6000D504211112C0FC01AEEFB2E0069621E090
:105A70003091D004332311F0208302C03C91308355
:105A800031961196E817F90799F708952091D504F2
:105A9000211109C0DC01E1EFF2E08DE08E0F919160
:105AA0009D938E13FCCF0895FC018091D504811144
:105AB00006C0809180019091E802982B9083089510
:105AC00026E1829FC0011124FC01E60FF11DEB5C71
:105AD000F34FE491E83211F0E83539F441E060E049
:105AE00070E081E50E9476210FC5089590E09C0149
:105AF000220F331F820F931FFC01E456FD4C2491AB
:105B0000FC01319686569D4CE656FD4C621721F0FD
:105B10006491FC0184917EC96491FC0184918EC9D9
:105B20000F931F93CF93DF93EBECF2E3D4910AE949
:105B300012E3C0E0CD1769F0F80131966491F801E5
:105B4000849144D960E08C2FD1DFCF5F0D5F1F4F70
:105B5000F1CF809110068093E5048093E204809158
:105B600007068093E004DF91CF911F910F91089574
:105B70008091DE04893F69F48091EA048F3E19F434
:105B80001092EA0403C08F5F8093EA041092DE044F
:105B900008958F5F8093DE04089590E0880F991F29
:105BA000FC01E259FD4CA491FC01E159FD4C8491AA
:105BB000EAECF2E3E491AE1778F4B0E0AA52BB4FFE
:105BC000811103C08C91816006C09C919170E82F77
:105BD000EE0F892F8E0F8C93089590E0880F991FF8
:105BE000FC01E259FD4CA491FC01E159FD4C84916A
:105BF000EAECF2E3E491AE1780F4B0E0AA52BB4FB6
:105C0000811104C08C918E7F8C9308959C91292FD3
:105C10002695281302C091709C930895823049F014
:105C2000833079F08130A1F481E1B7DF82E1D5DF03
:105C30000CC081E1D2DF82E1D0DF83E1AEDF84E11D
:105C4000CCCF81E1CADF82E1A8DF83E1C6DFF7CFF5
:105C500081E1C3DF82E1C1DF83E1BFDF84E19DCF6A
:105C60000F931F93CF93EAECF2E3E491C0E00E2F81
:105C700010E08C2F0C2E000C990B8017910714F557
:105C80002091E1042223C9F0FC01EA52FB4F20815C
:105C9000223018F421110FC010C0E22FE695F0E079
:105CA000E059F44C64918091EA040E94933D92176C
:105CB00020F490FF02C061E001C060E08C2F16DF8D
:105CC000CF5FD7CFCF911F910F9108958091E504B9
:105CD000803110F081E002C08C5F8C7F8093E504FE
:105CE00008958091E6048F5F813118F48093E60473
:105CF000089581E08093E6041092E4041092E90490
:105D000008959091E504903120F081E08093E104C2
:105D100008958091E4042091E604929F902D11242F
:105D2000891738F491E09093E104805F8093E40454
:105D300008951092E1040895EDE6F2E3E491809174
:105D4000E0048F5F8E1718F48093E004089510929A
:105D5000E00408958091E7048F5F843018F4809305
:105D6000E70402C01092E7048091E704811103C0A8
:105D70008091E50403C0813021F484E08093E20443
:105D80000895823031F484E08093E2041092E304B9
:105D9000089580E18093E20481E08093E304089514
:105DA00095DF8091E704811104C08091E504809320
:105DB000E20408958091E704823011F488E10BC079
:105DC000833071F48091E204853010F0845003C078
:105DD000882321F081508093E20408951092E20418
:105DE00008958091E8048F5F803318F48093E8046D
:105DF00008951092E8049091E7049130B1F4209155
:105E0000E3048091E204222341F08F5F8093E20457
:105E10008831E0F01092E304089581508093E20409
:105E20008530A0F49093E3040895923031F480918A
:105E3000E204853058F0815007C0933039F48091E6
:105E4000E204803118F48F5F8093E204089580911A
:105E5000E204803120F081E08093DF040895909186
:105E6000E604899F802D11249091E3049111807F95
:105E70009091E904981738F481E08093DF04905FF3
:105E80009093E90408951092DF0408951F93CF932F
:105E9000DF93EBECF2E3E49110E0CE2FD0E0212F82
:105EA000012E000C330B2C173D07ECF4F901E35ADB
:105EB000FD4CE491EE23A9F08091DF04882371F07A
:105EC0008091E004F90190E1899FE00DF11D11241A
:105ED000E35AFE4CE49161E0E11101C060E0812FE2
:105EE00005DE1F5FDCCFDF91CF911F910895F9DEB2
:105EF00008DF3EDEB5DE75DFAADFC8CF1F920F9246
:105F00000FB60F9211240BB60F922F938F939F937E
:105F1000AF93BF93EF93FF93EDB7FEB781E090E0AF
:105F20009093CD068093CC06F093CB06E093CA06FF
:105F30003196AAE4B6E080E090E0E11521E2F207B4
:105F400020F0FC01E65BF94F07C021912D930196EB
:105F50008038910591F7F5CF86E0EA3CF80711F01B
:105F60001192FACFFF91EF91BF91AF919F918F91D5
:105F70002F910F900BBE0F900FBE0F901F90189592
:105F800090E080E80FB6F8948093610090936100F0
:105F90000FBE08956091CE0670E040E081E00E945F
:105FA00076216091CC067091CD066115710541F0A6
:105FB00041E082E00E9476211092CD061092CC063C
:105FC000DFCF8DEA9EED9093D0068093CF060895A3
:105FD00084E189BD86E189BD09B400FEFDCF8091D1
:105FE000D8008F7D8093D8008091E00082608093FC
:105FF000E0008091E00081FDFCCF0895CF93DF9316
:10600000962F642F26E1929FE0011124C40FD11D29
:10601000CC0FDD1FC950DB4F48815981882301F126
:1060200057FF0EC020911A0630E0319521953109B5
:10603000241735077CF1892F47DC84E090E020C0ED
:1060400020911606309117064217530794F0892FB6
:10605000DADC2091090688819981821B910910C0A0
:106060001416150684F420911A0630E042175307DF
:106070001CF44C5F5F4F10C0892F86DC8CEF9FEFC4
:10608000998388830BC080910E0690910F06841728
:10609000950724F44450510959834883DF91CF91E7
:1060A00008950F931F93CF93DF93082F862F642FAC
:1060B00096E1899FE0011124C40FD11DCC0FDD1F93
:1060C000C950DB4F5981011110C057FD27C088818D
:1060D000952F937020910E0630910F06821793072B
:1060E00008F404969983888339C057FF17C0088144
:1060F000152F1370209116063091170602171307FB
:1061000030F081DC80910906081B110902C00C5F88
:106110001F4F198308838981806817C0152F169532
:1061200016951F711C5F90911A06191780F048810F
:106130005370002311F0C8DB01C026DC212F30E0B2
:1061400039832883898100FB87F9898307C01F7100
:10615000110F110F5378252F212B2983DF91CF9118
:106160001F910F910895CF92DF92EF92FF921F93AC
:10617000CF93DF93EBE8F3E3E491E093EB04EAE8F9
:10618000F3E3E491E093F204E9E8F3E3E491E093CC
:10619000F504E8E8F3E3E491E093F6048CE7E82EF5
:1061A00083E3F82E9CEEC92E94E0D92ED0E0F701BF
:1061B00014918091F20481111FEFF7013196C4917F
:1061C0004C2F612F8D2F0E94FA262C2F2095F6013F
:1061D00021936F01422F41238091F204642F609537
:1061E000811101C040E08D2F0E943327DF5FF2E074
:1061F000EF0EF11CD630D9F680910606882371F097
:1062000081E590E39093F4048093F30480911A065F
:10621000813250F080E280931A0606C08EEF9FE232
:106220009093F4048093F304DF91CF911F91FF903A
:10623000EF90DF90CF900895CF92DF92EF92FF9290
:106240000F931F93CF93C0E08091F50490E02C2F23
:106250000C2E000C330B281739070CF054C08CEEB1
:10626000E82E84E0F82EF6E0CF026001112400E071
:1062700010E0F801EC0DFD1DE850FD4C4491F701D4
:1062800061917F01802F0E9433270F5F1F4F0630DF
:10629000110579F7809114068A95F1F710E0212F06
:1062A000012E000C330B8091F60490E0281739077B
:1062B00044F58091F204220F331FF901E353FD4CA2
:1062C000882351F06491F901E453FD4C84910E94BC
:1062D0004227882351F013C06491F901E453FD4C27
:1062E00084910E944227882351F08091EB048823F7
:1062F00019F06C2F812F02C0612F8C2FE1DB1F5F03
:10630000CECFCF5FA1CFCF911F910F91FF90EF9094
:10631000DF90CF900895CF92DF92EF92FF920F938C
:106320001F93CF93DF93D62FC82FCD170CF05EC0ED
:106330008CEEE82E84E0F82EF6E0CF026001112406
:1063400000E010E0F70161917F016F3F49F0F80133
:10635000EC0DFD1DE850FD4C4491802F0E94332729
:106360000F5F1F4F0630110569F7809114068A955B
:10637000F1F710E0212F012E000C330B8091F60471
:1063800090E02817390784F58091F204220F331F1B
:10639000F901E353FD4C882359F06491F901E4536A
:1063A000FD4C84910E94422791E0882361F00AC04D
:1063B0006491F901E453FD4C84910E94422791E0DD
:1063C000811101C090E08091EB04E091F304F09121
:1063D000F404882319F04C2F612F02C0412F6C2F39
:1063E000892F09951F5FC6CFCF5F9FCFDF91CF91D8
:1063F0001F910F91FF90EF90DF90CF9008956091E3
:10640000F5046695669580E086CF8091F504682F47
:1064100070E075956795869586957DCF8091F5049A
:1064200093E0899FB00111247595679575956795DF
:10643000869571CF6091F50423E0629FC00111241D
:10644000959587959595879566CF81E0809302060F
:10645000089520910206AC01249FC001259F900D54
:1064600011246AE070E00E949F3D80910106562F42
:10647000581B852F609301062F5F209302062B3057
:1064800028F01092010691E0909302060895809101
:10649000CE04811104C080910503882311F181E0AD
:1064A0008093050620910B068091030690911106BA
:1064B00030910406311120C0899FC0011124820F40
:1064C000911DC7DF9091CE04899F902D1124909348
:1064D000000690910503899F802D11248093FF056C
:1064E0000BC0109205061092010610920006109241
:1064F000FF058AE08093020680910406811103C0A3
:1065000081E0809304060895CF93DF93CDB7DEB783
:1065100064970FB6F894DEBF0FBECDBF80E28093C4
:106520000C06109215061092190610920A0640E108
:1065300040931006109218063CE030931A06109211
:106540000D061092070660EF70E0709313066093DB
:10655000120668E87FEF70930F0660930E0695E0D1
:1065600090930B062FE02093110660E273E0709386
:1065700017066093160680930906909314061092EE
:10658000060689831A821B821C824D831E823F83EA
:106590001886198630EF3A871B8638E83C873FEF2C
:1065A0003D879E872F87888B23E0298B8A8B9B8B47
:1065B0001C8A44E150E060E070E0CE0101960E9448
:1065C000E63D64960FB6F894DEBF0FBECDBFDF91F7
:1065D000CF9108950F931F93CF93DF93CDE7DBE324
:1065E000FE01329684913196E49190E0E23059F4C4
:1065F000FE0105911491805090400E94E13DF80108
:106600009183808309C0FE010591149180509040D0
:106610000E94D93DF80180832496FBE3C13CDF074B
:10662000F9F660910C06603231F070E041E080E5EF
:106630000E94762169DF8091180680930806DF9119
:10664000CF911F910F91089524E0829FC0011124E2
:10665000FC01E158F44C2491FC01E058F44C3491D5
:10666000FC01E358F44C822F90E0323041F4A591C4
:10667000B4916D917C91805090400C94FD3DA5911A
:10668000B4916C91805090400C94EF3D13BC1092EB
:1066900080001092820080E89EE3909389008093AE
:1066A0008800089510921B0678941092850010922D
:1066B000840081E08093810082E080936F009AE003
:1066C00088E10FB6F894A895809360000FBE909370
:1066D0006000E0E6F0E08081806C808308950FB672
:1066E000F894A89580916000886180936000109272
:1066F00060000FBEE0E6F0E080818F7B8083109227
:106700006F0010928100089580918400909185001F
:10671000E0911B0620913D0634E0E39FF001112437
:10672000E20FF11DEE0FFF1FE35EF94F2081318173
:106730002817390780F4E0911B0620913D0634E0CC
:10674000E39FF0011124E20FF11DEE0FFF1FE35E46
:10675000F94F91838083089510923D0680913D0604
:106760008430D8F4E0911B0680913D0694E0E99FC7
:10677000F0011124E80FF11DEE0FFF1FE457FC4C50
:1067800085919491009719F0FC010995BDDF8091E6
:106790003D068F5F80933D06E1CF089510928500FE
:1067A0001092840080911C06882381F080911B0642
:1067B00060913D0670E0782B40E081E10E947621F7
:1067C00080911C068F5F80931C06089581E0809362
:1067D0001C067894C1DF80911B068F5F80931B0697
:1067E000843010F010921B0680911C06823038F025
:1067F00060911C0670E040E084E10E947621A8953B
:1068000010921C0608951F920F920FB60F9211243A
:106810000BB60F922F933F934F935F936F937F939A
:106820008F939F93AF93BF93EF93FF93B7DFFF9146
:10683000EF91BF91AF919F918F917F916F915F91F8
:106840004F913F912F910F900BBE0F900FBE0F9065
:106850001F901895EDE1F6E01182108213821282EA
:106860001582148217821682389686E0ED33F80777
:1068700099F70895292F33272330310529F13CF466
:106880002130310561F02230310571F07FC02132B5
:10689000310549F12232310509F445C077C082E162
:1068A00090E021E63DE37BC080910806833009F447
:1068B00059C0813009F45BC0823009F45DC08DE6B7
:1068C00090E024EF3CE36BC09927009731F00197EB
:1068D00009F05CC0E1ECFBE302C0EDE0FCE3849175
:1068E00090E09F015CC06130A1F050F06230B1F0E7
:1068F000633009F04BC089E090E021E53DE34FC0F3
:106900008091080680FD3DC089E090E026E03DE3EF
:1069100046C089E090E02FE13DE341C089E090E08E
:1069200028E33DE33CC0613099F048F06230A9F0C3
:10693000633061F58AE390E02BEA3DE330C080915B
:10694000080680FD28C08FE390E025EE3DE327C0D8
:106950008BE190E020E93DE322C08DE190E023E768
:106960003DE31DC082E290E021E13CE318C08DE6EA
:1069700090E027E83CE313C084E590E023E33CE3A8
:106980000EC089E090E023E23CE309C080E090E0A3
:1069900020E030E004C08FE390E024E23EE3FA011F
:1069A00031832083089581E039C90895CF93DF931F
:1069B00080E391E09CD7C82F80910806833049F08E
:1069C00080E191E094D7D82F80E091E090D78D239B
:1069D000C8238091080681FD04C080E291E087D73A
:1069E000C823CC2311F080E001C083E017D9809147
:1069F000E20084608093E200DF91CF91089580E30C
:106A000091E03DD680910806833031F080E191E03D
:106A100036D680E091E033D68091080681FD03C030
:106A200080E291E02CC6089580913E0190913F0153
:106A3000009729F0019790933F0180933E012091A8
:106A400008062330B1F080911E0190911F0100973C
:106A500029F0019790931F0180931E0180910E01F0
:106A600090910F01009729F0019790930F01809367
:106A70000E0121FD0BC080912E0190912F010097F6
:106A800029F0019790932F0180932E01089580E0C3
:106A9000C5C882E0C3C880E0C1C80F931F93CF93DD
:106AA000DF93F901D801EC012881213009F441C0BC
:106AB00030F0223009F446C0233031F14AC0EF01F2
:106AC000FC011092910120910806CE01029620FD52
:106AD00006C02185222319F00E94462D02C00E9483
:106AE0002F2DCE010E94542D8091080680FF06C0F4
:106AF00088E090E0F801918380832BC082E190E0F0
:106B0000E8019983888325C0109204068091CD0402
:106B100080838091000681838091FF05828383E0DA
:106B200090E08D939C9381E090910506911112C0A5
:106B300010C080914704909148049183808382E043
:106B400090E005C08091D404808381E090E08D9333
:106B50009C9380E0DF91CF911F910F910895CF9387
:106B60008053914009F07EC0F90180818093E90251
:106B7000C0916601C82780936601CC2309F472C0D6
:106B800090910D0691110FC0C0FF0DC080FF06C08F
:106B900080E003D880E00E94C22805C080E01DD8B4
:106BA00080E00E943F29C1FF10C08091E90281FF6F
:106BB00007C081E00E94CD2D81E00E94C22805C05F
:106BC00081E00BD881E00E943F29C2FF24C0809160
:106BD000E90282FF11C082E00E94CD2D82E00E9476
:106BE000C228809115068823B1F081E08093D104FA
:106BF00085E00E94CD2D0FC082E00E94ED2D82E045
:106C00000E943F2980911506882329F01092D10413
:106C100085E00E94ED2DC3FF11C08091E90283FF42
:106C200007C083E00E94CD2D83E00E94C22806C0E9
:106C300083E00E94ED2D83E00E943F29C4FF12C033
:106C40008091E90284FF07C084E00E94CD2D84E09A
:106C5000CF910C94C22884E00E94ED2D84E0CF9166
:106C60000C943F29CF9108958091080680FF09C0B8
:106C700088E08093380188E090E09093330180931E
:106C80003201089580E391E045D6DFD4809141063A
:106C900090916501981759F06091410670E041E0CC
:106CA00086EA0E94762180914106809365010895CD
:106CB00080910806833031F080E191E02BD680E0AE
:106CC00091E028D68091080681FD03C080E291E022
:106CD00021D6BBD48091410690916401981759F058
:106CE0006091410670E041E086EA0E947621809141
:106CF000410680936401089580913F06882329F01E
:106D000080914106853009F463C90895CF92DF92DE
:106D1000EF92FF920F931F93CF93DF93EC018B01C0
:106D20007A01D8D1811133C0E114F10439F0F701AF
:106D300080819181081B190BC80FD91FC12CD12C40
:106D40000115110519F18091E80085FD16C08091AB
:106D5000E8008E778093E80078D4E114F10449F0DC
:106D6000F70180819181C80ED91ED182C08285E051
:106D70000EC0B0D1882321F30AC089918093F1001D
:106D800001501109FFEFCF1ADF0ADACF80E0DF915F
:106D9000CF911F910F91FF90EF90DF90CF900895CA
:106DA00020914806309149062617370748F06115AB
:106DB000710539F42091E8002E772093E80001C096
:106DC000B90140E06115710599F120914106222336
:106DD00009F441C0253009F440C02091E80023FDAA
:106DE0003EC02091E80022FD30C02091E80020FF45
:106DF000E9CF2091F2003091F300FC01CF01611541
:106E0000710559F02830310540F481918093F100EB
:106E1000615071092F5F3F4FF1CF41E028303105BC
:106E200009F040E02091E8002E772093E800CACFD7
:106E30004111CBCF0AC080914106882361F0853093
:106E400061F08091E80083FD0AC08091E80082FF34
:106E5000F2CF80E0089582E0089583E0089581E014
:106E600008956115710529F42091E8002B7720938E
:106E7000E800FC016115710531F18091410688231C
:106E800051F1853051F18091E80083FD22C080915D
:106E9000E80082FFEFCF8091F2009091F300892B00
:106EA00031F08091F100819361507109A1F78091D7
:106EB000E8008B778093E800DDCF8091410688233E
:106EC00051F0853051F08091E80080FFF6CF80E0EE
:106ED000089581E0089582E0089583E00895209167
:106EE0004806309149062617370748F061157105A5
:106EF00039F42091E8002E772093E80001C0B90111
:106F0000FC0120E06115710581F180914106882323
:106F100009F43EC0853009F43DC08091E80083FD4E
:106F20003BC08091E80082FD2DC08091E80080FF89
:106F3000E9CF8091F2009091F3006115710559F04D
:106F40008830910540F424912093F10031966150EE
:106F500071090196F2CF21E0089709F020E08091B5
:106F6000E8008E778093E800CDCF2111CECF0AC004
:106F700080914106882361F0853061F08091E800BE
:106F800083FD0AC08091E80082FFF2CF80E008957F
:106F900082E0089583E0089581E00895982F973066
:106FA00058F59093E900981739F07091EC00209112
:106FB000ED005091F00003C0242F762F50E021FF08
:106FC00019C03091EB003E7F3093EB003091ED0023
:106FD0003D7F3093ED003091EB0031603093EB005A
:106FE0007093EC002093ED005093F0002091EE00A0
:106FF00027FF07C09F5FD3CF8F708093E90081E0A8
:10700000089580E00895EF92FF920F931F93CF931E
:10701000DF93E62EEC018C010C5F1F4FF12CFE1468
:1070200091F15881552351F1F801208169817A81CC
:1070300031979081852F8F70873010F080E024C0C9
:10704000223010F442E001C046E0E8E0F0E020E049
:10705000E617F70720F42F5FEE0FFF1FF9CF2295F9
:10706000207F422BF0E49F9F90011124551F55274C
:10707000551F652F622B92DF882301F3F394259629
:107080000B5F1F4FCCCF81E0DF91CF911F910F910C
:10709000FF90EF9008958091420687FF11C0809184
:1070A000E80082FD05C0809141068111F8CF11C032
:1070B0008091E8008B770BC080914106882349F0CE
:1070C0008091E80080FFF8CF8091E8008E77809370
:1070D000E80008952091E4003091E50095E64091A4
:1070E000EC00842F817040FF22C08091E80080FD79
:1070F0001CC080914106882391F0853091F08091E9
:10710000EB0085FD10C04091E4005091E50042176E
:10711000530729F39A01915011F784E0089582E012
:10712000089583E0089581E0089580E008954091F6
:10713000E80042FFDECF089568D06FD0E0EEF0E0C7
:10714000808181608083E8EDF0E080818F778083AB
:1071500019BCA7EDB0E08C918E7F8C9380818F7EDF
:1071600080831092400608950F931F93CF93DF936F
:107170004CD053D0C8EDD0E088818F778883888148
:107180008068888388818F7D8883E7EDF0E0808147
:107190008068808319BC1092410610923E061092BE
:1071A0003F0600EE10E0F80180818B7F80838881AC
:1071B0008160888342E060E080E0F0DEE1EEF0E0B4
:1071C00080818E7F8083E2EEF0E080818160808329
:1071D000808188608083F80180818E7F80838881B0
:1071E00080618883DF91CF911F910F910895E8ED21
:1071F000F0E080818F7E8083E7EDF0E08081816028
:10720000808381E080934006AFCFE8EDF0E080819D
:107210008C7F80831092E20008951092DA00109221
:10722000E10008951F920F920FB60F9211240BB632
:107230000F922F933F934F935F936F937F938F930F
:107240009F93AF93BF93EF93FF938091E10082FFF1
:107250000AC08091E20082FF06C08091E1008B7F2E
:107260008093E100E1DB8091DA0080FF1DC0809116
:10727000D80080FF19C08091DA008E7F8093DA00F9
:107280008091D90080FF0CC084E189BD86E189BD71
:1072900009B400FEFDCF81E08093410684DB04C089
:1072A00019BC1092410681DB8091E10080FF18C07B
:1072B0008091E20080FF14C08091E2008E7F809375
:1072C000E2008091E20080618093E2008091D8002A
:1072D00080628093D80019BC85E080934106D9DB99
:1072E0008091E10084FF2FC08091E20084FF2BC0D9
:1072F00084E189BD86E189BD09B400FEFDCF80919E
:10730000D8008F7D8093D8008091E1008F7E80939C
:10731000E1008091E2008F7E8093E2008091E200A4
:1073200081608093E20080913E06882311F084E022
:1073300007C08091E30087FD02C081E001C083E0C7
:1073400080934106A8DB8091E10083FF22C08091F9
:10735000E20083FF1EC08091E100877F8093E100FF
:1073600082E08093410610923E068091E1008E7F7C
:107370008093E1008091E2008E7F8093E200809113
:10738000E20080618093E20042E060E080E006DE9F
:107390007EDBFF91EF91BF91AF919F918F917F9194
:1073A0006F915F914F913F912F910F900BBE0F9076
:1073B0000FBE0F901F9018951F93CF93DF93CDB7FB
:1073C000DEB7AA970FB6F894DEBF0FBECDBFE2E4DA
:1073D000F6E088E08E0F9091F10091938E13FBCF31
:1073E0000EDB8091E80083FF18C1809142069091E6
:1073F0004306492F50E04A30510508F00EC1FA010A
:10740000EA59FF4FB0C3803881F0823809F005C1D6
:10741000809146068F708093E9008091EB0085FB98
:10742000882780F91092E90007C080913F068823E1
:1074300011F082E001C080E09091E800977F909386
:10744000E8008093F1001092F100C4C0282F2D7F36
:1074500009F0E3C0882319F0823061F0DEC080912A
:107460004406813009F0D9C0933009F080E0809360
:107470003F062BC080914406811127C080914606AB
:107480008F7009F4CAC08093E9002091EB0020FFBF
:107490001CC0933021F48091EB00806214C0909165
:1074A000EB0090619093EB0021E030E0A90102C075
:1074B000440F551F8A95E2F74093EA001092EA00C4
:1074C0008091EB0088608093EB001092E90080913E
:1074D000E800877F82C08111A0C0109144061F7709
:1074E0008091E3008078812B8093E3008091E80015
:1074F000877F8093E800CFDD8091E80080FFFCCF9C
:107500008091E30080688093E300111102C082E063
:1075100001C083E08093410680C08058823008F02B
:107520007CC080914406909145068C3D53E09507C0
:1075300071F583E08A838AE289834FB7F894DE018C
:10754000139620E03EE051E2E32FF0E05093570025
:10755000E49120FF03C0E295EF703F5FEF708E2F44
:1075600090E0EA3010F0C79601C0C0968D939D93CD
:107570002F5F243149F74FBF8091E800877F8093C8
:10758000E8006AE270E0CE0101960ADC12C0AE01AA
:107590004F5F5F4F609146066DD9BC01892B09F49E
:1075A0003CC09091E800977F9093E80089819A8190
:1075B00096DC8091E8008B778093E8002EC08038BD
:1075C00061F58091E800877F8093E80080913E0616
:1075D0008093F1008091E8008E778093E8005BDD76
:1075E0001CC081111AC0909144069230B0F4809171
:1075F000E800877F8093E80090933E064CDD809101
:107600003E06811106C08091E30087FD02C081E043
:1076100001C084E080934106C9D98091E80083FFCE
:107620000AC08091E800877F8093E8008091EB009A
:1076300080628093EB00AA960FB6F894DEBF0FBE6F
:10764000CDBFDF91CF911F910895CF9380914106D7
:10765000882399F0C091E900CF709091EC00892FB8
:10766000817090FD80E8C82B1092E9008091E800BD
:1076700083FDA2DECF70C093E900CF9108956F9291
:107680007F928F929F92AF92BF92CF92DF92EF92B2
:10769000FF920F931F93CF93DF9300D01F92CDB72C
:1076A000DEB77C01CDB6DEB68091E80083FF08C16D
:1076B000F701808190E02091460630914706281717
:1076C000390709F0FDC080914306833009F49FC05B
:1076D00030F4813071F0823009F4D6C0F1C08A30C4
:1076E00009F4BAC08B3009F4A3C0893009F0E8C0AE
:1076F00051C080914206813A09F0E2C08DB69EB633
:107700001A82198280914406109145068B83F701F5
:107710008085482F50E08DB79EB7841B950B0FB620
:10772000F8949EBF0FBE8DBFEDB7FEB731965F01D7
:1077300060E070E0CF0136D24FEF410F8E010F5F56
:107740001F4F9501BE016D5F7F4FC701A6D9F7019D
:1077500086819781009721F0408550E0B50119D2CC
:107760001092E9008091E800877F8093E8008B8188
:1077700081118093F10069817A81C50111DB8091CB
:10778000E8008B778093E8000FB6F8949EBE0FBE9A
:107790008DBE96C080914206813209F091C0ADB68F
:1077A000BEB600914806109149067090440660905C
:1077B00045068DB79EB7801B910B0FB6F8949EBF00
:1077C0000FBE8DBFEDB7FEB731964F018091E80037
:1077D000877F8093E800B801CF0143DB8091E80008
:1077E0008E778093E80021E0711001C020E030E046
:1077F000021B130B280D391D4FEF460D672DC701D6
:10780000AED90FB6F894BEBE0FBEADBE59C08091C2
:107810004206813A09F054C08091E800877F809346
:10782000E8008091E80080FFFCCFF701818540C02F
:1078300080914206813209F043C08091E800877F41
:107840008093E80028DC9091440681E0911101C00A
:1078500080E0F701818734C080914206813281F552
:107860008091E800877F8093E80015DC80914406D2
:1078700090914506882736E0969587953A95E1F7E9
:10788000F701958784871CC080914206813AC1F434
:107890008091E800877F8093E8008091E80080FF76
:1078A000FCCFF70184859585969587959695879564
:1078B0008093F1008091E8008E778093E800EBDB05
:1078C0000FB6F894DEBE0FBECDBE0F900F900F9096
:1078D000DF91CF911F910F91FF90EF90DF90CF90AC
:1078E000BF90AF909F908F907F906F900895FC0114
:1078F000399627E0DF011D922A95E9F721E0FC0186
:10790000218724EF31E03587248723E0248361E059
:10791000019679CB4F925F926F927F928F929F9256
:10792000AF92BF92CF92DF92EF92FF920F931F938D
:10793000CF93DF9300D01F92CDB7DEB77C01ADB6F9
:10794000BEB680914106843009F08DC08091E4007C
:107950009091E500F701228533852817390709F44E
:1079600082C081818F708093E9008091E80085FF5B
:107970007AC08DB69EB6408550E08DB79EB7841B09
:10798000950B0FB6F8949EBF0FBE8DBFEDB7FEB737
:1079900031966F011B821A82198260E070E0CF017C
:1079A00001D18E010F5F1F4F960140E0BE016D5F58
:1079B0007F4FC70172D8482EF70184859585892BA2
:1079C00051F091E080E026853785232B09F090E087
:1079D000092F182F02C000E010E0F70166807780C1
:1079E0006114710489F049815A81B301C601C4D080
:1079F00055245394892B09F4512CF701408550E00C
:107A0000B601C301C6D001C0512C89819A81892B4E
:107A1000F1F0411004C0511002C0012BC1F0F70178
:107A2000848595859787868781818F708093E9000B
:107A30008B8181118093F10069817A8140E050E06F
:107A4000C60164D98091E8008E778093E800809128
:107A5000E4009091E500F701938782870FB6F894D0
:107A60009EBE0FBE8DBE0FB6F894BEBE0FBEADBE9D
:107A70000F900F900F90DF91CF911F910F91FF907A
:107A8000EF90DF90CF90BF90AF909F908F907F90BE
:107A90006F905F904F90089508950E94CA2F0E94A2
:107AA00061210E94EA320E94B3300E94902D0E9410
:107AB00031280E9425320E94851F0E944633D4D867
:107AC0000E941C3194CB0E9452338091DD018823A7
:107AD000E1F30C946F3330DBF8942FEF87EA91E6F3
:107AE000215080409040E1F700C000008091DD010E
:107AF000823011F40E94E12F8091DD01882359F03A
:107B00009CE088E10FB6F894A895809360000FBEC2
:107B100090936000FFCF0895BFDFBFDFD4DFDBDFCE
:107B200080E090E00895991B79E004C0991F9617B2
:107B300008F0961B881F7A95C9F780950895AA1BAF
:107B4000BB1B51E107C0AA1FBB1FA617B70710F048
:107B5000A61BB70B881F991F5A95A9F7809590957A
:107B6000BC01CD010895EE0FFF1F0024001C0BBEC9
:107B70000790F691E02D0994FB01DC0104C08D9182
:107B80000190801921F441505040C8F7881B990B8F
:107B90000895FB01DC0102C001900D92415050405C
:107BA000D8F70895DC0101C06D9341505040E0F7D3
:107BB0000895F999FECF92BD81BDF89A992780B5B5
:107BC0000895A8E1B0E042E050E01CC0DC01CB0128
:107BD00002C02D9105D041505040D8F70895262F6E
:107BE000F999FECF1FBA92BD81BD20BD0FB6F894A2
:107BF000FA9AF99A0FBE01960895F1DF272FF0CF78
:107C0000DC01CB01FC01F999FECF06C0F2BDE1BD5C
:107C1000F89A319600B40D9241505040B8F708954B
:047C2000F894FFCF06
:107C24000283010000016701010000000000000060
:107C3400018202000001680102000000000000004F
:107C44000384030000016A01030000000000000037
:107C54000081120000016D0112000000000000000C
:107C64002400250023002700280026002A002B00DA
:107C740029002D002E002C00300031002F0021009F
:047C840022002000BA
:00000001FF
