:100000000C94621F0C94A11F0C94A11F0C94A11FAF
:100010000C94A11F0C94A11F0C94A11F0C94A11F60
:100020000C94A11F0C94A11F0C942B390C94A11FAC
:100030000C94442F0C94A11F0C94A11F0C94A11F8D
:100040000C94A11F0C9496340C94A11F0C94A11F26
:100050000C94A11F0C94A11F0C94A11F0C94A11F20
:100060000C94A11F0C94A11F0C94A11F0C94A11F10
:100070000C94A11F0C94A11F0C94A11F0C94A11F00
:100080000C94A11F0C94A11F0C94A11F0C94A11FF0
:100090000C94A11F0C94A11FCB2683228922A72296
:1000A000AD22412447246323692370249224AC2485
:1000B000C624DB2431256F258526AA268C25A82574
:1000C000C725EC2505262A264A2663261C3A3F3AF0
:1000D000263B3F3A263B843AA63A263BF83A0A3B6F
:1000E0000000000000000000000000000000000010
:1000F0002A002B002800000000002800000000005B
:1001000000000000000000000000000000000000EF
:1001100000000000000029000000000000000000B6
:100120002C001E023402200221022202240234008A
:100130002602270225022E0236002D003700380045
:1001400027001E001F0020002100220023002400A1
:10015000250026003302330036022E003702380213
:100160001F020402050206020702080209020A022F
:100170000B020C020D020E020F02100211021202FB
:1001800013021402150216021702180219021A02AB
:100190001B021C021D022F003100300023022D0221
:1001A00035000400050006000700080009000A00E9
:1001B0000B000C000D000E000F00100011001200CB
:1001C00013001400150016001700180019001A007B
:1001D0001B001C001D002F023102300235024C00B2
:1001E000000000000000000000000000000000000F
:1001F00000000000000000000000000000000000FF
:1002000000000000000000000000000000000000EE
:1002100000000000000000000000000000000000DE
:10326000000000000000000000FF00FF00FF00FF62
:1032700000FF00FF00FF00FF00FF00FF00FF00FF56
:1032800000FF00FF00FF00FF00FF00FF00FF00FF46
:1032900000FF00000000000000000000000000002F
:1032A000000000000000000000000000000000001E
:1032B000000000000000000000000000000000000E
:1032C000000000080C0000000000000000000000EA
:1032D00000000000000000000000000000000000EE
:1032E00000000000000000000000000000000000DE
:1032F00000000000000000000000000000000000CE
:1033000000000000000000000000000000000000BD
:1033100000000000000000000000000000000000AD
:10332000000000000000000000000000000000009D
:10333000000000000000000000000000000000008D
:10334000000000000000000000000000000000007D
:10335000000000000000000000000000000000006D
:10336000000000000000000000000000000000005D
:10337000000000000000000000000000000000004D
:10338000000000000000000000000000000000003D
:10339000000000000000000000000000000000002D
:1033A000000000000000000000000000000001011B
:1033B00001011400000000000000000000000000F7
:1033C00000000000000000000000000000000000FD
:1033D00000000000000000000000000001010101E9
:1033E00014000000000000000000000000000000C9
:1033F00000000000000000000000000000000000CD
:1034000000000000000000000000010101011400A4
:1034100000000000000000000000000000000000AC
:10342000000000000000000000000000000000009C
:10343000000000000000000001010101147536F3D6
:10344000303D2F0000F930D5333B313D2F7536022A
:10345000313D2F00000E3137216A223D2F4F757408
:10346000206F662072616E67652E0A00456E746576
:1034700072206E65772064656661756C742064697E
:103480006D6D6572206C6576656C2028312D313646
:10349000293E2000456E746572206E657720646554
:1034A0006661756C74206261636B6C696768742017
:1034B000656E61626C652028312D3136293E200011
:1034C000456E746572206E6577206D6174726978DF
:1034D000207365747570207761697420696E20634C
:1034E00079636C65732028312D323535293E2000F3
:1034F000456E746572206E657720726570656174C3
:103500002074696D6520696E206D732028312D3916
:1035100039293E2000456E746572206E65772068FB
:103520006F6C642074696D6520696E206D7320284E
:10353000312D393939293E2000456E746572206E6F
:103540006577206D6F757365206D6F76656D656E3F
:1035500074206D756C7469706C6965722028312DEA
:103560003939293E2000456E746572206E657720DA
:1035700062617365206D6F757365206D6F76656D23
:10358000656E742028312D3939293E2000456E742E
:103590006572206E657720646F75626C657461700A
:1035A0002064656C61792074696D6520696E206D99
:1035B000732028312D393939293E2000456E746534
:1035C00072206E6577207461702074696D65206962
:1035D0006E206D732028312D393939293E20004560
:1035E0006E746572206E6577206465626F756E63B8
:1035F000652074696D6520696E206D732028312DFA
:103600003939293E20005365743A00456E7465725D
:10361000206E65772064656661756C74206C6179D5
:1036200065722028302D39293E2000427974657357
:103630002028686578293E200041646472657373B0
:103640002028686578293E200020532D3078005DC1
:1036500020432D3078000A5B004E756D206C6F633F
:103660006B206973206C696E6B656420746F2074C5
:1036700068652073797374656D206E756D206C6F4D
:10368000636B2E0A004E756D206C6F636B2077693B
:103690006C6C2066756E6374696F6E20696E64650C
:1036A00070656E64656E746C79206F6620746865F1
:1036B0002073797374656D206E756D206C6F636B0C
:1036C0002E0A004B6579626F6172642061637473C6
:1036D00020617320657874656E646564204E4B527A
:1036E0004F206B6579626F6172642077697468201E
:1036F0006D6F75736520616E64206D65646961200E
:103700006B6579732E0A004B6579626F6172642074
:103710006163747320617320364B524F206B65795F
:10372000626F61726420706C7573206D6F75736564
:1037300020616E64206D65646961206B6579732E0C
:103740000A004B6579626F617264206973206C694D
:103750006D6974656420746F207374616E64617246
:103760006420364B524F20626F6F742D636F6D7003
:10377000617469626C65206B6579626F6172642E39
:103780000A005363726F6C6C206C6F636B207769F7
:103790006C6C206E6F742061666665637420776957
:1037A0006E206C6F636B2E0A0057696E646F7773BF
:1037B000206B65792077696C6C2062652064697381
:1037C00061626C6564207768656E207363726F6CEC
:1037D0006C206C6F636B20697320656E61626C6531
:1037E000642E0A004E756D206C6F636B2077696CD8
:1037F0006C206E6F7420616666656374206E756DF3
:1038000062657220726F772E0A004E756D62657266
:1038100020726F772077696C6C2062652073776106
:103820007070656420666F72206E756D70616420C3
:103830006B657973207768656E206E756D206C6F8F
:10384000636B20697320656E61626C65642E0A008B
:10385000496E707574206E6F74207265636F676E49
:10386000697A65642E0A000A54696D696E67204D95
:10387000656E753A0A312920536574206465626F5C
:10388000756E63652074696D650A3229205365740D
:10389000206D617820686F6C642074696D652066A6
:1038A0006F72207461700A332920536574206D6132
:1038B000782064656C61792074696D6520666F722B
:1038C00020646F75626C65207461700A342920531E
:1038D00065742062617365206D6F757365206D6F0F
:1038E00076656D656E740A352920536574206D6F99
:1038F000757365206D6F76656D656E74206D756C82
:103900007469706C6965720A362920536574206D7C
:10391000696E20686F6C642074696D6520666F72D3
:10392000207265706561740A3729205365742072AE
:10393000657065617420706572696F640A3829204A
:10394000536574206D617472697820736574757045
:1039500020776169740A3929204261636B0A3E202D
:10396000000A436F6E666967204D656E753A0A31CD
:103970002920546F67676C65207669727475616C75
:10398000206E756D207061640A322920546F67675C
:103990006C652077696E206C6F636B206F6E20738F
:1039A00063726F6C6C206C6F636B0A3329205365F4
:1039B000742064656661756C74206C617965720A47
:1039C000342920546F67676C6520626173696320D6
:1039D0006B6579626F6172640A352920546F67677D
:1039E0006C6520756E6C696E6B206E756D206C6FEA
:1039F000636B0A3629205365742064656661756CB3
:103A0000742064696D6D6572206C6576656C0A372B
:103A100029205365742064656661756C7420626149
:103A2000636B6C6967687420656E61626C650A39E6
:103A300029204261636B0A3E20000A446562756773
:103A4000204D656E753A0A3129205072696E7420D6
:103A50006576656E74730A322920436C6561722045
:103A60006576656E74730A3329204578616D696ED9
:103A700065206D656D6F72790A3429205072696E08
:103A8000742F636C65617220636C6F636B2D696E5C
:103A9000730A3929204261636B0A3E20000A4D6196
:103AA000696E204D656E753A0A312920436F6E6646
:103AB0006967206D656E750A32292054696D696EDB
:103AC00067206D656E750A3329204465627567202D
:103AD0006D656E750A34292052657365740A39293B
:103AE00020517569740A3E20001E4D1F51204E2141
:103AF000502200234F244A2552264B2749374CE2B7
:103B000000E900EA00E500B500B600B700CD0024EA
:103B100002250283018A019201940121022302C13C
:103B200001C202C304C408C510E001E102E204E3DB
:103B300008E410E520E640E7800105080A0C0F10B4
:103B40001414181800F0F5050001FE050101020625
:103B50000201F3050301F90504010106050103064D
:103B60000601F6050701F0050801FB050902F70546
:103B70000B02F4050D01FA050E01FF050F02F20517
:103B80001101FD05120161416242634364446545D0
:103B900066466747684869496A4A6B4B6C4C6D4D8D
:103BA0006E4E6F4F705071517252735374547555FD
:103BB00076567757785879597A5A312132403323DB
:103BC00034243525365E3726382A39283029000036
:103BD00000000000000020202D5F3D2B5B7B5D7D01
:103BE0005C7C237E3B3A2722607E2C3C2E3E2F3F7E
:103BF00000000000000000000000000000000000C5
:103C000000000000000000000000000000000000B4
:103C100000000000000000000000000000000000A4
:103C20000000000000002F2F2A2A2D2D2B2B000032
:103C300031003200330034003500360037003800E0
:103C4000390030002E005C7C000000000000000005
:103C50000000000000000000000000000000000064
:103C60000000000000006162636465666768696A5D
:103C70006B6C6D6E6F707172737475767778797A1C
:103C80004142434445464748494A4B4C4D4E4F50AC
:103C90005152535455565758595A3031323334359E
:103CA000363738392122232425262728292A2B2C68
:103CB0002D2E2F3A3B3C3D3E3F405B5C5D5E5F609E
:103CC0007B7C7D7E004A03450061007300790041E2
:103CD000005600520020004D0075006C0074006911
:103CE000006D00650064006900610020004B006504
:103CF00000790062006F00610072006400200076AD
:103D00000023002E00230023002E002300230000A8
:103D1000000403090409022200010100A032090481
:103D2000000001030101000921B0010001223F0050
:103D30000705810308000109025400030100A032B5
:103D40000904000001030101000921B00100012262
:103D50003F00070581030800010904010001030178
:103D600002000921B0010001223A00070582030385
:103D700000050904020001030000000921B0010050
:103D800001221B00070583030200080902540003F7
:103D90000100A0320904000001030101000921B063
:103DA000010001223F0007058103120001090401FF
:103DB0000001030102000921B0010001223A0007BD
:103DC0000582030300050904020001030000000945
:103DD00021B0010001221B00070583030200081225
:103DE00001000200000008EB03FF201000000100AA
:103DF00001050C0901A101050C160100269C021AFF
:103E000001002A9C02751095018100C0050109027C
:103E1000A1010901A10005091901290315002501C6
:103E20009503750181029501750581010501093030
:103E300009311681FF267F003600004600009502FA
:103E400075088106C0C005010906A101050719E032
:103E500029E715002501750195088102950175086E
:103E60008101050819012905950575019102950142
:103E7000750391011500250105071900297F95801B
:103E800075018102C005010906A101050719E02994
:103E9000E7150025017501950881029501750881D6
:103EA000010508190129059505750191029501750E
:103EB000039101150025FF0507190029FF950675D7
:103EC000088100C011241FBECFEFD0E2DEBFCDBFFE
:103ED00084B714BE0FB6F894A895909160009861CD
:103EE00090936000109260000FBE83FF11C080911C
:103EF0003706909138068D3A9E4D51F4109238064F
:103F000010923706E4E4FBE325913491F901099519
:103F100011E0A0E0B1E0E0E8FCE700E00BBF02C088
:103F200007900D92A435B107D9F726E0A4E5B1E0DA
:103F300001C01D92A733B207E1F70E94A73D0C9480
:103F40003E3E0C9400001092770110927601109280
:103F500072011092710110928101109280010895F6
:103F60009091730180917E01992399F181113AC05A
:103F700080917501811129C080919201811121C028
:103F8000E0916C01E91305C01092730110926C016D
:103F900029C081E08E0F80936C01F0E0EE0FFF1FCF
:103FA000EE57FE4F80819181813019F49093750115
:103FB00019C090936D0180939201882399F05DD789
:103FC00011C090D7109292010DC08150809375015D
:103FD00009C0811107C010926D01809174018D7F1D
:103FE0008093740180917E01811103C081E08093F0
:103FF0007E0108958091EA0290916E01981731F147
:1040000080936E01882311F1883211F0883531F4E4
:10401000809174018B7F809374010895E091700109
:104020008A3251F4EE2391F0E150E0937001F0E018
:10403000E858FE4F10820895E63040F4AE2FB0E00D
:10404000A858BE4F8C93EF5FE09370010895809164
:10405000EA02811102C0109274010895BC0180919E
:104060007301DB01982F292F281B983058F090936B
:104070007301620F711D27FD7A9570938101609322
:10408000800122C0FD0125913491211109C0909336
:10409000730110928101109280019923D1F014C014
:1040A000492F50E0F901FF27EE0FFF1FE052FF4FAD
:1040B00025913491440F551FFA01EE57FE4F31837D
:1040C00020839F5F1196CFCF80917401836080938E
:1040D000740181E008954091730128E030E0241BD1
:1040E00031092617370758F1B0E04B2F0B2E000C83
:1040F000550B46175707D8F4A09173012A2F30E0CB
:10410000FC01E40FF51FE081F0E0EE0FFF1FE0522D
:10411000FF4F45915491220F331FF901EE57FE4F87
:1041200051834083AF5FA0937301BF5FDECF672BE6
:1041300041F08091740183608093740102C080E03B
:10414000089581E0089590917301983090F4E92FDB
:10415000F0E0EE0FFF1FEE57FE4F808361839F5FFD
:10416000909373018091740183608093740181E066
:10417000089580E008959C019091730191112EC0E3
:10418000A901983049F490937301205F3F4F309319
:104190007701209376011BC0FA01659174914E5FFF
:1041A0005F4F6115710549F4909373011092770187
:1041B00010927601992381F00AC0E92FF0E0EE0F0A
:1041C000FF1FEE57FE4F718360839F5FDACF8091B0
:1041D000740183608093740181E0089580E0089504
:1041E000AC018091730181113EC060937F01282F43
:1041F000082E000C330B2617370758F590917301E2
:10420000220F331F983038F0240F351F309372017E
:10421000209371011EC0FA01E20FF31F208131814A
:10422000E92FF0E0EE0FFF1FEE57FE4F31832083A2
:104230009F5F9093730190917F01915090937F01C4
:10424000911105C0109272011092710102C08F5F2E
:10425000CECF80917301882341F0809174018360F7
:104260008093740102C080E0089581E008959091E8
:10427000740191FD75CE2091760130917701211561
:10428000310511F0C90177CF209171013091720190
:104290002115310539F060917F01062E000C770B56
:1042A000C9019ECF209180013091810121153105F6
:1042B00011F0C901D3CE92FD9DCEC9CEE8E7F1E061
:1042C0001082118212821382148215821092700160
:1042D0008091EA0280936E018091740185608093E1
:1042E00074010895E82FF0E0EE0FFF1FE052FF4F3A
:1042F00085919491089508959091C901903178F431
:10430000E92FF0E09F01220F331FE20FF31FEC565D
:10431000FE4F8083728361839F5F9093C9010895EC
:1043200041111BC04091C90150E090E0292F092E96
:10433000000C330B2417350784F4F901EE0FFF1F2F
:104340002E0F3F1FF901EC56FE4F2081281303C0AA
:104350007283618308959F5FE9CFCECF8A3010F4D6
:10436000805D0895895C08951F93CF93DF93182F84
:10437000EB0182958F70F2DF8883812F8F70EEDFE3
:104380008983DF91CF911F9108951F93CF93DF937E
:10439000182FEB01892FE8DFBE016E5F7F4F812F61
:1043A000DF91CF911F91E0CF8F929F92AF92BF92FA
:1043B000CF92DF92EF92FF920F931F93CF93DF93F1
:1043C0001F92CDB7DEB79C018B0180E3FB01808398
:1043D00080E28183828383E0E82EF12C94E6892EAB
:1043E000912C4AE0B42E682D70E0911003C026177E
:1043F000370790F06801C90CD11C97FCDA94C90109
:104400000E94BA3DA82E862F9983A8DFF6018083EB
:104410002A2D9981392F9394882D6B2D0E94AE3DC2
:10442000882EF1E0EF1AF108F1F60F90DF91CF91AD
:104430001F910F91FF90EF90DF90CF90BF90AF90C2
:104440009F908F90089597EA980F993010F48855AF
:10445000089592EE980F993010F48D5108959CEFC5
:10446000980F963010F48A5F089580E00895BF9207
:10447000CF92DF92EF92FF920F931F93CF93DF9330
:104480007C018B0180E090E0B12CC42FD0E02B2D7B
:104490000B2C000C330B2017310790F48C9F60011C
:1044A0008D9FD00C9C9FD00C1124F701E20FF31FBD
:1044B0008081C9DF9601280F311DC901B394E7CF70
:1044C000DF91CF911F910F91FF90EF90DF90CF90F0
:1044D000BF9008950F931F93CF93DF9300D000D028
:1044E000CDB7DEB780917401811155C4E09193017D
:1044F0008E2F90E08A31910508F04BC4FC01E45BFB
:10450000FF4F0C94E13D8DE99AE3A8DDD7DE82E010
:1045100011C011E0109393018091780194DF8930EC
:1045200009F437C4843019F41093CA0134C48130BB
:1045300021F483E0809393012EC4823011F487E04C
:10454000F9CF833009F4D9C180E598E320C081E632
:1045500099E384DDB3DE84E0EDCF13E010939301A3
:104560008091780170DF893011F481E0E3CF8130F0
:1045700099F49091020689278093020682E00E94B6
:10458000163280910206882321F08AE098E366DDE6
:1045900002C484EE97E3FBCF823099F49091FE053C
:1045A00081E089278093FE0581E00E941632809188
:1045B000FE05882319F089EA97E3E9CF82E897E3BB
:1045C000E6CF8330B1F486E096E348DDBE016F5F4D
:1045D0007F4F8091F305C8DE8AE08B8363E070E053
:1045E000CE01019678DD8BE096E338DD67DE8FE063
:1045F000A1CF8430F9F480910106811109C081E0D6
:104600008093010685E00E94163287E097E3BFCFD2
:10461000813041F41093010685E00E94163282E455
:1046200097E3B5CF1092010685E00E94163283EC25
:1046300096E3ADCF853099F49091F60581E0892716
:104640008093F60587E00E9416328091F605882354
:1046500019F085E896E39BCF89E596E398CF8630FD
:10466000B9F486E096E3FADC8091F905BE016F5F4C
:104670007F4F90E099DE8AE08B8363E070E0CE01AB
:10468000019629DD8CE694E3E9DC18DE80E152CF67
:10469000873009F059CF86E096E3E0DC8091F005A1
:1046A00090E0BE016F5F7F4F01967EDE8AE08B83D4
:1046B00063E070E0CE0101960EDD84E994E3CEDC88
:1046C000FDDD81E137CF87E698E3C8DCF7DD88E0E0
:1046D00031CF87E08093930180917801B4DE8930F7
:1046E00009F443CF8130B9F486E096E3B7DC8091DA
:1046F0000306BE016F5F7F4F90E056DE8AE08B833A
:1047000063E070E0CE010196E6DC8FED95E3A6DC78
:10471000D5DD82E10FCF8230C1F486E096E39EDCE6
:10472000BE016F5F7F4F8091FB059091FC053CDEE1
:104730008AE08C8364E070E0CE010196CCDC8CEBE7
:1047400095E38CDCBBDD83E1F5CE8330D9F486E0E4
:1047500096E384DC8091F7059091F805BE016F5FC8
:104760007F4F9195819591091FDE8AE08C8364E0EB
:1047700070E0CE010196AFDC8DE895E36FDC9EDD45
:1047800084E1D8CE8430B9F486E096E367DC80918A
:10479000F405BE016F5F7F4F90E006DE8AE08B83F9
:1047A00063E070E0CE01019696DC86E695E356DC88
:1047B00085DD85E1BFCE8530B9F486E096E34EDC39
:1047C0008091FA05BE016F5F7F4F90E0EDDD8AE0DA
:1047D0008B8363E070E0CE0101967DDC89E395E395
:1047E0003DDC6CDD86E1A6CE8630C1F486E096E342
:1047F00035DCBE016F5F7F4F8091FF059091000611
:10480000D3DD8AE08C8364E070E0CE01019663DC46
:1048100085E195E323DC52DD87E18CCE8730B9F466
:1048200086E096E31BDC8091F205BE016F5F7F4F4F
:1048300090E0BADD8AE08B8363E070E0CE01019600
:104840004ADC80EF94E30ADC39DD88E173CE8830FE
:1048500009F0A1C286E096E301DC8091FD05BE016E
:104860006F5F7F4F90E0A0DD8AE08C8364E070E0B2
:10487000CE01019630DC80EC94E3F0DB1FDD89E1B2
:1048800059CE8AE39AE3EADB19DD86E053CE85E070
:104890008093930180917801D6DD893009F465CE4B
:1048A000813011F489E046CE823069F4E4E9F1E028
:1048B000108212821182339641E0E43CF407C1F782
:1048C0001092C90168C2833031F489E396E3C6DBF4
:1048D000F5DC8CE02FCE843009F036CE8EE02ACE87
:1048E0008091C801803158F01092C8018AE0898314
:1048F00061E070E0CE010196EEDB85E01BCE86E53F
:1049000096E3ACDBBE016F5F7F4F8091C8012CDD69
:1049100062E070E0CE010196DEDB8FE496E39EDB81
:104920008AE008CE8091C80190E0FC01EE0FFF1FE5
:104930008E0F9F1FFC01EC56FE4FBE016F5F7F4F35
:10494000808112DD62E070E0CE010196C4DB89E473
:1049500096E384DB8BE0EECD8091C80190E0FC0112
:10496000EE0FFF1F8E0F9F1FFC01EC56FE4FBE0186
:104970006F5F7F4F8181928108DD64E070E0CE013E
:104980000196A9DB89E080939301A3C06091700137
:1049900070E040E188E791E06ADD9093C501809383
:1049A000C4011092C7011092C6018BE296E356DB58
:1049B00085DC8DE0BFCD8091C6019091C701892B28
:1049C00089F40091C4011091C5016091700170E0FB
:1049D00040E188E791E04BDD800F911F9093C70184
:1049E0008093C60110E20AE0E091C401F091C50194
:1049F0008091C6019091C701E817F907D8F4BE016C
:104A00006F5F7F4F8081B0DC8091C6019091C701BC
:104A100001972091C4013091C5012817390711F47D
:104A20000B8301C01B8363E070E0CE01019653DB72
:104A300081110DC02091C4013091C5018091C60142
:104A40009091C7012817390708F057CFA4C180916A
:104A5000C4019091C50101969093C5018093C40152
:104A6000C3CF8091C801803178F01092C8018AE0EC
:104A7000898361E070E0CE0101962DDB85E08093B3
:104A800093010E94BD3487C1182F1370082F06951B
:104A90000695111102C08AE001C080E2898361E0BD
:104AA00070E0CE01019617DB84E0189FF00111241D
:104AB000E00FF11DEE0FFF1FE65FF94FBE016F5FC4
:104AC0007F4F8081918161DC64E070E0CE010196CE
:104AD00002DB8091C8018F5F8093C8015CC1609147
:104AE000700170E04AE088E791E0C1DC8A3091050E
:104AF00078F48093F30583E00E94163286E096E313
:104B0000ADDABE016F5F7F4F8091F3052DDC1AC1D6
:104B10008DE594E3A3DA0DCD6091700170E04AE079
:104B200088E791E0A4DC9C0121503109233631054E
:104B300058F48093030686E00E94163286E096E3DE
:104B40008DDA8091030679C08DE594E387DAF7CC9E
:104B50006091700170E04AE088E791E088DC9C0198
:104B600021503109273E334078F79093FC0580931C
:104B7000FB0589E00E94163286E096E36FDABE01FB
:104B80006F5F7F4F8091FB059091FC05B8C06091ED
:104B9000700170E04AE088E791E069DC9C012150F7
:104BA0003109273E334080F6919581959109909384
:104BB000F8058093F7058AE00E94163286E096E3B6
:104BC0004DDA8091F7059091F805BE016F5F7F4F38
:104BD00091958195910993C06091700170E04AE0D0
:104BE00088E791E044DC9C012150310923363105EE
:104BF00008F0AACF8093F4058BE00E94163286E07D
:104C000096E32CDA8091F40518C06091700170E091
:104C10004AE088E791E02BDC9C01215031092336E2
:104C2000310508F091CF8093FA058CE00E9416328E
:104C300086E096E313DA8091FA05BE016F5F7F4F3D
:104C400090E0B2DB8AE08B8363E070E0CE010196F6
:104C500042DA75CC6091700170E04AE088E791E03B
:104C600006DC9C0121503109273E334008F06CCF0F
:104C7000909300068093FF058DE00E94163286E037
:104C800096E3ECD9BE016F5F7F4F8091FF05909155
:104C9000000635C06091700170E04AE088E791E05D
:104CA000E6DB9C01215031092336310508F04CCF59
:104CB0008093F2058EE00E94163286E096E3CED90C
:104CC0008091F205BACF6091700170E04AE088E708
:104CD00091E0CDDB9C01215031092F3F310508F0D7
:104CE00033CF8093FD058FE00E94163286E096E375
:104CF000B5D98091FD05BE016F5F7F4F90E054DB19
:104D00008AE08C8364E070E0A1CF6091700170E074
:104D10004AE088E791E0ABDB9C012150310920316A
:104D2000310508F0F5CE8093F90584E00E94163233
:104D300086E096E393D98091F905BE016F5F7F4FBE
:104D400090E032DB8AE08B8363E070E0CE01019675
:104D5000C2D9EFCB6091700170E04AE088E791E042
:104D600086DB9C01215031092031310508F0D0CE7D
:104D700081508093F00588E00E94163286E096E329
:104D80006DD98091F00590E0BE016F5F7F4F019675
:104D9000D8CF109293010F900F900F900F90DF914A
:104DA000CF911F910F91089526E0829FC001112499
:104DB000FC01E05DFE4F0190F081E02D208181E05B
:104DC00090E001C0880F6A95EAF7822B80830895EE
:104DD00026E0829FC0011124FC01E05DFE4F01909E
:104DE000F081E02D808160956823462B40830895F3
:104DF00026E0829FC0011124FC01E05DFE4F02808D
:104E0000F381E02D208181E090E001C0880F6A9558
:104E1000EAF7822B8083089526E0829FC001112447
:104E2000FC01E05DFE4F0280F381E02D208181E0F6
:104E300090E001C0880F6A95EAF78095822380830D
:104E4000089526E0829FC0011124FC01E05DFE4F21
:104E50000280F381E02D80816823462B40830895F2
:104E600026E0829FC0011124FC01E05DFE4F04801A
:104E7000F581E02D808186230895E82FE695E6955B
:104E8000E695F0E0E352FD4F982F977021E030E077
:104E900001C0220F9A95EAF79081292B20839091E7
:104EA000D70220E029175CF4E22F022E000CFF0B42
:104EB000E651FD4F30813817A1F02F5FF3CF9630C8
:104EC0005CF4E92F092E000CFF0BE651FD4F8083A7
:104ED0009F5F9093D70208951092F00281E0809333
:104EE000BD040895E82FE695E695E695F0E0E352D7
:104EF000FD4F982F977021E030E001C0220F9A9566
:104F0000EAF720959081292320839091D7024AEED9
:104F100052E0FA012E2F241B291724F43191381363
:104F2000F9CF01C00895E22F022E000CFF0BE651CD
:104F3000FD4F818180832F5F2917ACF391509093AF
:104F4000D7021092BD040895E82FE695E695E69500
:104F5000F0E0E352FD4F982F977021E030E001C060
:104F6000220F9A95EAF79081292720839091D70202
:104F70004AEE52E0FA012E2F241B291724F4319116
:104F80003813F9CF13C096305CF4E92F092E000CCA
:104F9000FF0BE651FD4F80839F5F9093D7020895EA
:104FA0001092F00281E08093BD040895E22F022E5A
:104FB000000CFF0BE651FD4F818180832F5F291785
:104FC000ACF391509093D7021092BD040895909144
:104FD000320494305CF4E92F092E000CFF0BE852E8
:104FE000FD4F80839F5F90933204089540E060E01E
:104FF00070E082E495D91092DC0208952091320489
:1050000048ED52E0FA019E2F941B92179CF43191C7
:105010003813F9CF921751F0E92F092E000CFF0B2E
:10502000E852FD4F818180839F5FF4CF9150909330
:1050300032040895682F70E040E083E471C98091E4
:10504000F3058093C004089596E1899F600D1124B3
:105050008091D30268130DC08091F7059091F805F7
:105060008417950734F48091BF048F5F8093BF0449
:1050700008951092D3021092BF040895E091FB05A9
:10508000F091FC054E175F0754F491E0F90190830D
:10509000F6E18F9F600D11246093D3020895F9010A
:1050A00010821092D3021092BF04089590917F0154
:1050B000E92FEE0FFF0BEE50FD4F2091D50230E0AF
:1050C000322F2227282B318320839F5F90937F01EB
:1050D00008959091C104911110C0805D8E3068F4E4
:1050E000E82FF0E0EE0FFF1FE85AFE4E85919491F5
:1050F000880F991F885A9E4E3EC80895CF93DF931C
:10510000C82FD62F64DF8091C0049091F3058917D2
:1051100011F08B5F28D580E18C0F8093C00485E16E
:105120008C0F01D58FE0FFD48091C0049091D40200
:10513000D0FF02C0981308C0981308C08091BF0424
:10514000811104C08091F3058093D402DF91CF9147
:1051500008951F93CF93DF9300D01F92CDB7DEB792
:10516000182F2B834A83698349DF2B814A81698108
:10517000222399F12091C004E22FF0E0812F90E0EA
:10518000805F9109E817F90741F58091BF048823F2
:1051900019F061FD2093D4028091D60281131DC0C5
:1051A00062FF1BC0141624F46091D502842F13C033
:1051B000842F807E803E89F4E42FF0E0EE0FFF1F05
:1051C000E659F64C849180959091D502892380937D
:1051D000D502649180E00E94A3208091C0048B5F7F
:1051E000C2D4E0913204E11103C08091D40207C01F
:1051F0000E2E000CFF0BE952FD4F8081805F8093E3
:10520000C0048091C0049091F305891741F08B5F31
:105210000F900F900F90DF91CF911F9184C48FE07A
:105220000F900F900F90DF91CF911F919CC46F70E2
:10523000623051F028F4662339F0613081F008952E
:10524000643011F06830F1F4E82FF0E0EE0FFF1F4A
:10525000E659F64CE4918091D502E82B0AC0E82F7C
:10526000F0E0EE0FFF1FE659F64CE4918091D50275
:10527000E827E093D5028091BE04882319F0E777F0
:10528000E093D50208956F70623009F43FC018F4BE
:10529000662381F10895643019F0683059F108955A
:1052A000E82FF0E0EE0FFF1FE659F64CE491E09591
:1052B0006091D5026E236093D502222309F444C085
:1052C0009091D602981340C0842F14168CF0807EE3
:1052D000803E09F039C0E42FF0E0EE0FFF1FE659E1
:1052E000F64C8491809568236093D502649180E0A8
:1052F0000C94A320E82FF0E0EE0FFF1FE659F64CC8
:10530000E491E0958091D502E8231CC0E82FF0E0FD
:105310009091D502EE0FFF1FE659F64C222379F04B
:105320008091BF04882359F08491E82FE92BE09302
:10533000D5028091BE04882339F0E77703C0E49159
:10534000E095E923E093D50208956F70623051F043
:1053500028F4662339F0613031F00895643011F09B
:10536000683011F48ACDF0CD08956F70623049F045
:1053700018F461110DC00BC0643049F0683041F47D
:1053800006C0222321F09091BF04911101C0AACD43
:1053900008951F93CF93DF931F92CDB7DEB7182FD9
:1053A000862F807F11F080936D01103CA8F5103B93
:1053B00008F0B3C0133A09F47EC0E8F4133809F4D6
:1053C00070C068F4143008F401C1143708F45EC0EA
:1053D000123809F0FBC06091D50289E365C0113A2B
:1053E00009F465C008F065C0143809F0EFC0609199
:1053F000D50287E459C0193A09F476C020F4183A66
:1054000008F06BC05AC01E3A09F47BC008F07DC09A
:105410001A3A09F4E1C0DAC01E3D20F5103D08F04B
:10542000ADC0163C09F48EC088F4113C08F4CEC01F
:10543000EFE3E10FF0E0EE0FFF1FE05EF44CE491CC
:105440008091B904E82BE093B904C6C0183C09F474
:1054500083C008F47BC0193C09F0B8C08091F10208
:105460008F5F7DC0183E50F4103E08F0ACC01E3D6A
:1054700009F487C01F3D09F498C0A8C08FE0810FD0
:10548000893008F0A3C0812F39DEA6C08091BB040B
:10549000882321F0812F698309DE6981812F55DFFF
:1054A0009BC06091D50283E50E94A32095C03ED4A5
:1054B00093C016D491C006D48FC08091BB048111D3
:1054C0008BC081E08093BB0410927F018093C10464
:1054D0008CE5810F809306065EC09091C10481E047
:1054E00089278093C10478C09091BE0481E0892708
:1054F0008093BE04811102C085E055C085E013D3BE
:105500006BC082E08093CA0167C0809193018111D2
:1055100063C081E0809393015FC0809133049091D8
:105520003404892B09F058C0E0E5E10FF0E0EE0FFC
:10553000FF1FE150F54C8591949190933404809332
:1055400033044AC08091BA048F5F03C08091BA04CB
:1055500081508093BA0405C08091F10281508093FC
:10556000F1029091EF058091BF04992321F0909171
:10557000ED05981788F58093ED052EC0812FA9DDE4
:105580002BC09091BB0481E089278093BB048823C2
:1055900021F010927F0180E1B2CF80917F018111D3
:1055A00080936F0180E1DFD217C08091BB0481112D
:1055B00013C060916F01062E000C770B82EF92E012
:1055C0000E94F02009C0812F32DE06C0612F70E0FA
:1055D00040E084E40E9490211093D6020F90DF9166
:1055E000CF911F9108951F93CF93DF9300D01F9207
:1055F000CDB7DEB7182F862F807F11F010926D0186
:10560000163C28F5113C08F093C01B3AB0F4113A4F
:1056100008F0D2C0123809F465C028F48CEF810F6D
:105620008037C8F1BDC0133809F460C0143809F0E0
:10563000B7C06091D50287E45CC01E3A08F4B0C0E0
:10564000103B08F4B9C0103C08F45BC0A9C0103E80
:1056500090F4103D08F0B0C0173C09F47DC008F488
:1056600077C0183C09F47EC0193C09F099C08091BC
:10567000F10281507AC0183E08F47AC08FE0810FA1
:10568000893008F08DC0812F0F900F900F90DF911F
:10569000CF911F915ECD8091BB048823D9F080917A
:1056A000C1048823B9F0183211F01B3299F410921A
:1056B000C1041092BB0480917F01815080936F01DF
:1056C0001092070680E12B834A8369834CD269815B
:1056D0004A812B81812F0F900F900F90DF91CF91F6
:1056E0001F9143CE6091D50289E303C06091D5023A
:1056F00083E50F900F900F90DF91CF911F910C9445
:10570000A32060E5610FE62FF0E0EE0FFF1FE150F0
:10571000F54C8591949120913304309134042817ED
:10572000390709F049C0109234041092330444C080
:105730006FE3610FE62FF0E0EE0FFF1FE05EF44C29
:10574000E491E0958091B904E823E093B90434C072
:105750008091BA04815003C08091BA048F5F809316
:10576000BA042AC08091F1028F5F8093F10224C0B5
:105770008091BB04882361F08091D602811308C018
:1057800080E02B834A83698391DC69814A812B8184
:10579000812F0F900F900F90DF91CF911F9173CDBC
:1057A000612F70E040E085E40F900F900F90DF9143
:1057B000CF911F910C9490210F900F900F90DF913B
:1057C000CF911F9108952091D502227291E009F0A6
:1057D00090E020910206222359F02091BC0422235C
:1057E00039F0992329F022EE280F2A3008F4855C3D
:1057F0002091F605222321F1833571F49091BC04A8
:1058000081E089278093BC04882319F080E08BD144
:105810001FC080E0A8D11CC027EA280F2B3080F4DD
:105820002091BC04E82FF0E0EE0FFF1F222329F0A7
:10583000992319F0E95CF54C02C0E85CF54C8491C1
:105840008A3A39F4911102C085E3089589E20895F6
:1058500080E00895AF92BF92CF92DF92EF92FF92D5
:105860000F931F93CF93DF9300D01F92CDB7DEB776
:10587000D82E062F10E08091C00494E8C92E96E13E
:10588000D99E70011124F701C89EE00DF11D11246D
:10589000E00FF11FE05DF34F84914A835B836983DE
:1058A00092DFB82E8091C0049701C89E200D311D53
:1058B0001124200F311FF901E85FF84FC490F9015E
:1058C000E052FE4FA4900E0D1F1DF801E15BFD4F4D
:1058D000B082F801EB5CFB4FC082F801E553FE4F4C
:1058E000A0824A815B8169818D2DAEDB4A2D6C2DB2
:1058F0008B2D4FDD25D20F900F900F90DF91CF9120
:105900001F910F91FF90EF90DF90CF90BF90AF90DD
:105910000C9495369F92AF92BF92CF92DF92EF9206
:10592000FF920F931F93CF93DF931F92CDB7DEB7F4
:1059300096E1899F90011124260F311DF901E15B49
:10594000FD4F6F01B080F901EB5CFB4F7F01A08040
:10595000890105531E4FF80190809E012F5F3F4F34
:105960008DDB2981492D6A2D8B2D3DDEF6011082BC
:10597000F7011082F80110820F90DF91CF911F91F3
:105980000F91FF90EF90DF90CF90BF90AF909F90DE
:10599000089526E1829FC00111249C01260F311D2C
:1059A000F901E15BFD4F8081F901EB5CFB4F9081D8
:1059B00093FF1AC018161CF46091D50213C0982FDB
:1059C000907E903E89F4E82FF0E0EE0FFF1FE6593D
:1059D000F64C849180959091D50289238093D502CD
:1059E000649180E00C94A32008952091C1042111BA
:1059F00012C0FC01AAEEB2E0069621E03091BD048F
:105A0000332311F0208302C03C91308331961196EC
:105A1000E817F90799F708952091C104211109C0E9
:105A2000DC01EDEDF2E08DE08E0F91919D938E13F0
:105A3000FCCF0895FC018091C104811106C08091C2
:105A40006D019091D502982B9083089526E1829F55
:105A5000C0011124FC01E60FF11DE05DF34FE4915C
:105A6000E83211F0E83539F441E060E070E081E5BA
:105A70000E9490213DC4089590E09C01220F331FA5
:105A8000820F931FFC01EB56FD4C2491FC013196D3
:105A90008D569D4CED56FD4C621721F06491FC0132
:105AA0008491A6C96491FC018491B6C90F931F9398
:105AB000CF93DF93E4ECF2E3D49103E912E3C0E087
:105AC000CD1769F0F80131966491F80184916CD991
:105AD00060E08C2FD1DFCF5F0D5F1F4FF1CF809142
:105AE000F9058093D1048093CE048091F0058093D2
:105AF000CC04DF91CF911F910F9108958091CA043A
:105B0000893F69F48091D6048F3E19F41092D6042F
:105B100003C08F5F8093D6041092CA0408958F5FEC
:105B20008093CA04089590E0880F991FFC01E759FB
:105B3000FD4CA491FC01E659FD4C8491E3ECF2E3A9
:105B4000E491AE1778F4B0E0AE53BB4F811103C0BF
:105B50008C91816006C09C919170E82FEE0F892F87
:105B60008E0F8C93089590E0880F991FFC01E759E0
:105B7000FD4CA491FC01E659FD4C8491E3ECF2E369
:105B8000E491AE1780F4B0E0AE53BB4F811104C076
:105B90008C918E7F8C9308959C91292F26952813A4
:105BA00002C091709C930895823049F0833079F05F
:105BB0008130A1F481E1B7DF82E1D5DF0CC081E162
:105BC000D2DF82E1D0DF83E1AEDF84E1CCCF81E1BF
:105BD000CADF82E1A8DF83E1C6DFF7CF81E1C3DF5F
:105BE00082E1C1DF83E1BFDF84E19DCF0F931F938B
:105BF000CF93E3ECF2E3E491C0E00E2F10E08C2FA2
:105C00000C2E000C990B8017910714F52091CD04F0
:105C10002223C9F0FC01EE53FB4F2081223018F4FF
:105C200021110FC010C0E22FE695F0E0E75CF44CC4
:105C300064918091D6040E94AE3D921720F490FFAB
:105C400002C061E001C060E08C2F16DFCF5FD7CFCC
:105C5000CF911F910F9108958091D104803110F060
:105C600081E002C08C5F8C7F8093D1040895809185
:105C7000D2048F5F813118F48093D204089581E0BB
:105C80008093D2041092D0041092D504089590917C
:105C9000D104903120F081E08093CD04089580916B
:105CA000D0042091D204929F902D1124891738F4AA
:105CB00091E09093CD04805F8093D004089510927A
:105CC000CD040895E8E6F2E3E4918091CC048F5F7F
:105CD0008E1718F48093CC0408951092CC04089584
:105CE0008091D3048F5F843018F48093D30402C072
:105CF0001092D3048091D304811103C08091D10408
:105D000003C0813021F484E08093CE040895823072
:105D100031F484E08093CE041092CF04089580E1A2
:105D20008093CE0481E08093CF04089595DF809125
:105D3000D304811104C08091D1048093CE040895CE
:105D40008091D304823011F488E10BC0833071F468
:105D50008091CE04853010F0845003C0882321F058
:105D600081508093CE0408951092CE0408958091BE
:105D7000D4048F5F803318F48093D4040895109274
:105D8000D4049091D3049130B1F42091CF04809148
:105D9000CE04222341F08F5F8093CE048831E0F05F
:105DA0001092CF04089581508093CE048530A0F4E2
:105DB0009093CF040895923031F48091CE048530D1
:105DC00058F0815007C0933039F48091CE0480316F
:105DD00018F48F5F8093CE0408958091CE048031B3
:105DE00020F081E08093CB0408959091D204899FA4
:105DF000802D11249091CF049111807F9091D50432
:105E0000981738F481E08093CB04905F9093D50489
:105E100008951092CB0408951F93CF93DF93E4EC81
:105E2000F2E3E49110E0CE2FD0E0212F012E000C00
:105E3000330B2C173D07ECF4F901E85AFD4CE491C3
:105E4000EE23A9F08091CB04882371F08091CC04DB
:105E5000F90190E1899FE00DF11D1124E85AFE4CF3
:105E6000E49161E0E11101C060E0812F05DE1F5F78
:105E7000DCCFDF91CF911F910895F9DE08DF3EDE80
:105E8000B5DE75DFAADFC8CF1F920F920FB60F9253
:105E900011240F900FBE0F901F90189590E080E88E
:105EA0000FB6F89480936100909361000FBE08953F
:105EB000F5CF8DEA9EED90933806809337060895CE
:105EC00084E189BD86E189BD09B400FEFDCF8091E2
:105ED000D8008F7D8093D8008091E000826080930D
:105EE000E0008091E00081FDFCCF0895CF92DF9229
:105EF000EF92FF921F93CF93DF93E4E8F3E3E491F3
:105F0000E093D704E3E8F3E3E491E093DE04E2E80E
:105F1000F3E3E491E093DF04E1E8F3E3E491E09359
:105F2000E00485E7E82E83E3F82E98EDC92E94E08F
:105F3000D92E10E0F701C4913196D4914D2F6C2FDA
:105F4000812F0E94E8264D2F4095F60141936F0165
:105F50004C238091DE04642F6095811101C040E0E4
:105F6000812F0E9421271F5FF2E0EF0EF11C1630F7
:105F700009F7DF91CF911F91FF90EF90DF90CF90C5
:105F80000895CF92DF92EF92FF920F931F93CF93DA
:105F9000C0E08091DF0490E02C2F0C2E000C330B1E
:105FA000281739070CF054C088EDE82E84E0F82E4D
:105FB000F6E0CF026001112400E010E0F801EC0DE2
:105FC000FD1DEF50FD4C4491F70161917F01802F41
:105FD0000E9421270F5F1F4F0630110579F780912E
:105FE000FD058A95F1F710E0212F012E000C330BEF
:105FF0008091E00490E02817390744F58091DE0491
:10600000220F331FF901EA53FD4C882351F06491AC
:10601000F901EB53FD4C84910E943027882351F005
:1060200013C06491F901EB53FD4C84910E94302719
:10603000882351F08091D704882319F06C2F812F89
:1060400002C0612F8C2F02DD1F5FCECFCF5FA1CFAB
:10605000CF911F910F91FF90EF90DF90CF90089517
:10606000CF93DF93962F642F26E1929FE0011124B6
:10607000C40FD11DCC0FDD1FCF51DB4F488159819B
:10608000882301F157FF0EC02091030630E03195BF
:1060900021953109241735077CF1892FDBDB84E05A
:1060A00090E020C02091FF05309100064217530771
:1060B00094F0892F6EDC2091F20588819981821BF2
:1060C000910910C01416150684F42091030630E0DF
:1060D000421753071CF44C5F5F4F10C0892F1ADC26
:1060E0008CEF9FEF998388830BC08091F705909187
:1060F000F8058417950724F44450510959834883BF
:10610000DF91CF910895CF92DF92EF92FF920F939C
:106110001F93CF93DF93D62FC82FCD170CF05AC003
:1061200088EDE82E84E0F82EF6E0CF02600111241D
:1061300000E010E0F70161917F016F3F49F0F80145
:10614000EC0DFD1DEF50FD4C4491802F0E94212746
:106150000F5F1F4F0630110569F78091FD058A9585
:10616000F1F710E0212F012E000C330B8091E00499
:1061700090E02817390764F58091DE04220F331F61
:10618000F901EA53FD4C882359F06491F901EB536E
:10619000FD4C84910E94302791E0882361F00AC071
:1061A0006491F901EB53FD4C84910E94302791E0FA
:1061B000811101C090E08091D704882319F04C2F01
:1061C000612F02C0412F6C2F892F4ADF1F5FCACF7A
:1061D000CF5FA3CFDF91CF911F910F91FF90EF90F1
:1061E000DF90CF9008956091DF046695669580E01A
:1061F0008ACF8091DF04682F70E07595679586954A
:10620000869581CF8091DF0493E0899FB0011124AE
:106210007595679575956795869575CF6091DF043F
:1062200023E0629FC00111249595879595958795E8
:106230006ACF81E08093EC0508952091EC05AC01D4
:10624000249FC001259F900D11246AE070E00E94F8
:10625000BA3D8091EB05562F581B852F6093EB05B7
:106260002F5F2093EC052B3028F01092EB0591E086
:106270009093EC0508958091BA04811104C0809137
:10628000F102882311F181E08093EF052091F4055C
:106290008091ED059091FA053091EE05311120C005
:1062A000899FC0011124820F911DC7DF9091BA040C
:1062B000899F902D11249093EA059091F102899F76
:1062C000802D11248093E9050BC01092EF051092E8
:1062D000EB051092EA051092E9058AE08093EC053F
:1062E0008091EE05811103C081E08093EE05089551
:1062F000CF93DF93CDB7DEB763970FB6F894DEBFC9
:106300000FBECDBF59E15093F5051092FE051092D6
:1063100002061092F30540E14093F9051092010640
:1063200036E0309303061092F6051092F00580EFE8
:1063300090E09093FC058093FB0588E89FEF909395
:10634000F8058093F70585E08093F4052FE020930E
:10635000FA0560E273E0709300066093FF0590E237
:106360009093F2058093FD0559831A821B821C824B
:106370004D831E823F831886198630EF3A871B862D
:1063800038E83C873FEF3D878E872F87988B23E047
:10639000298B9A8B8B8B43E150E060E070E0CE015B
:1063A00001960E94143E63960FB6F894DEBF0FBEAE
:1063B000CDBFDF91CF9108950F931F93CF93DF93BC
:1063C000C6E4DBE3FE01329684913196E49190E0DD
:1063D000E23059F4FE0105911491805090400E94E2
:1063E0000F3EF8019183808309C0FE01059114914D
:1063F000805090400E94073EF80180832496FBE382
:10640000C638DF07F9F66091F505693131F070E0C3
:1064100041E080E50E9490216BDF8091010680932E
:10642000F105DF91CF911F910F91089524E0829F94
:10643000C0011124FC01E85BF44C2491FC01E75BF2
:10644000F44C3491FC01EA5BF44C822F90E0323042
:1064500041F4A591B4916D917C91805090400C9441
:106460002B3EA591B4916C91805090400C941D3EB0
:1064700085E0809307060895809106062EE2820249
:10648000C0011124FC01E255FC4C4491FC01E15592
:10649000FC4C3491FC01E055FC4C2491FC01EF5480
:1064A000FC4C949150917F0180910406513079F019
:1064B0001CF4552331F01FC0523081F05330A9F045
:1064C0001AC0442321F06AE10E94AE3D2EC033235E
:1064D00029F06AE10E94AE3D965E27C0222329F092
:1064E0006AE00E94AE3D9C5C20C0992321F0982F69
:1064F0009F71925C1AC0442311F06AE101C060E010
:106500003111665E2111665F9111605E0E94AE3DA1
:10651000411101C0965E311103C09A3134F0965E8C
:10652000211103C094330CF0965FE92F990FFF0BF4
:10653000EA59F34C8491089584509272E82FF0E068
:10654000EE0FFF1F911103C0EA57F44C02C0E95748
:10655000F44C849108950F931F93CF93DF93E091B0
:10656000060620917F01022E000C330BCE2F0E2E3B
:10657000000CDD0B8EE2E802F0011124E355FC4C27
:10658000649170E0C9010E94CE3D082F109104066D
:1065900060916F01062E000C770BC9010E94CE3D61
:1065A000FC01FF27EE0FFF1FEE50FD4F8081918110
:1065B000C3DF810F982F990F87FD9F5F909304068B
:1065C0008EE28C9FF0018D9FF00D1124E00FF11DE4
:1065D000EB57FC4CE49180910406E827E093040615
:1065E000DF91CF911F910F910895EF92FF920F933A
:1065F0001F93CF93DF931F92CDB7DEB7809106062E
:106600002EE28202C0011124FC01EE54FC4C649184
:10661000062F10E020EA30E0201B310B220F331F41
:10662000A9014E505D4F7A0120910706223009F4EE
:1066300044C028F4222351F02130C9F0AEC02330E9
:1066400009F45BC0243009F47FC0A7C0109204068F
:1066500021E02093070610927F01FC01E355FC4CDA
:10666000E491E1119AC085E08093070696C02091DD
:106670007F01FC01E20FF11D27FDFA95EB57FC4C61
:10668000E491409104064E0F409304062F5F20933F
:106690007F01FC01E355FC4C8491022E000C330B6E
:1066A00090E0281739070CF478C082E08093070641
:1066B00010927F014093050670C010910506E0918D
:1066C0007F01EE0FFF0BEE50FD4F808191816983BA
:1066D00033DF810F8093050690917F019F5F909338
:1066E0007F0120916F01698192170CF456C00E94BE
:1066F000AE3D9093050683E022C02DDF8091050614
:10670000E80EF11CE80EF11CB7DE0E947221F701C1
:10671000918380838091050690E00196B8010E94E4
:10672000CE3D8093050680917F018F5F80937F012E
:10673000082E000C990B801791077CF184E0809360
:10674000070610927F0129C080917F01282F220F18
:10675000330BFA01E20FF31F40815181F901EE5032
:10676000FD4F518340838F5F80937F01082E000C83
:10677000990B801791078CF085E080930706609352
:106780006F01B80182EF92E00F90DF91CF911F91DE
:106790000F91FF90EF900C94F0200F90DF91CF912C
:1067A0001F910F91FF90EF9008958091070685301B
:1067B00009F01BCF089513BC109280001092820044
:1067C00080E89EE39093890080938800089510925A
:1067D00008067894109285001092840081E08093DE
:1067E000810082E080936F009AE088E10FB6F89410
:1067F000A895809360000FBE90936000E0E6F0E003
:106800008081806C808308950FB6F894A89580915C
:106810006000886180936000109260000FBEE0E627
:10682000F0E080818F7B808310926F001092810056
:1068300008958091840090918500E0910806209150
:106840002A0634E0E39FF0011124E20FF11DEE0F60
:10685000FF1FE65FF94F208131812817390780F447
:10686000E091080620912A0634E0E39FF00111240C
:10687000E20FF11DEE0FFF1FE65FF94F918380835A
:106880000895CF93DF93C0E0D0E080910806FE0129
:1068900024E0829FE00DF11D1124EE0FFF1FE35C49
:1068A000FB4C85919491009729F0C0932A06FC0136
:1068B0000995BFDF2196C430D10539F7DF91CF911B
:1068C0000895109285001092840080910906882313
:1068D00081F08091080660912A0670E0782B40E0F4
:1068E00081E10E949021809109068F5F80930906C3
:1068F000089581E0809309067894C3DF80910806AB
:106900008F5F80930806843010F010920806809103
:106910000906823038F06091090670E040E084E1B9
:106920000E949021A8951092090608951F920F9237
:106930000FB60F9211240BB60F922F933F934F93E4
:106940005F936F937F938F939F93AF93BF93EF93D7
:10695000FF93B7DFFF91EF91BF91AF919F918F911F
:106960007F916F915F914F913F912F910F900BBE4F
:106970000F900FBE0F901F901895EAE0F6E011827D
:106980001082138212821582148217821682389620
:1069900086E0EA32F80799F70895292F3327233044
:1069A000310511F13CF42130310561F0223031051F
:1069B00071F070C02132310531F12232310509F414
:1069C0003DC068C082E190E02FED3DE36CC0809156
:1069D000F105833009F44AC0813009F44CC084E5E4
:1069E00090E02BE83DE35FC09927009731F00197D5
:1069F00009F050C0E5ECFCE302C0E1E1FDE3849165
:106A000090E09F0150C0613049F068F0623009F0B9
:106A100041C089E090E02FEC3DE345C089E090E083
:106A200026EB3DE340C08091F105833049F1813090
:106A300061F189E090E02DE93DE335C0613041F03E
:106A400060F0623039F58BE190E021EF3DE32BC03F
:106A50008AE390E02CE03EE326C08091F10580FDC2
:106A60001EC08FE390E026E43EE31DC082E290E08A
:106A700025E13DE318C084E590E027E33DE313C042
:106A800089E090E027E23DE30EC089E090E029E450
:106A90003DE309C080E090E020E030E004C08FE3F7
:106AA00090E025E83EE3FA0131832083089581E0F8
:106AB0007BC80895CF93DF9380E291E031D7C82F50
:106AC0008091F10581FD09C080E191E029D7D82F9F
:106AD00080E091E025D78D23C823CC2311F080E0FE
:106AE00001C083E061D88091E20084608093E2007D
:106AF000DF91CF91089580E291E0DAD58091F105A0
:106B000081FD06C080E191E0D3D580E091E0D0C561
:106B1000089580912E0190912F01009729F00197FF
:106B200090932F0180932E018091F10581FD16C075
:106B300080911E0190911F01009729F00197909379
:106B40001F0180931E0180910E0190910F0100970B
:106B500029F0019790930F0180930E01089580E032
:106B600023C882E021C880E01FC80F931F93CF93F2
:106B7000DF93F90121E080329207F9F4EF011092DE
:106B80007E012091F105CF01029620FD07C02091E2
:106B90002901222319F00E940C2D02C00E94F52C1D
:106BA000CE010E941A2D8091F10580FF03C088E07C
:106BB00090E024C082E190E021C080519140B1F486
:106BC0001092EE058091B90480838091EA0581835B
:106BD0008091E905828383E090E0F80191838083CE
:106BE00081E09091EF0591110DC00BC080913304AD
:106BF000909134049183808382E090E0F801918346
:106C0000808380E0DF91CF911F910F910895CF9302
:106C1000DF938052914009F057C0E9018091F60559
:106C2000811114C098818091020690FF09C08823C9
:106C300019F081E08093BC0480E00E94932D06C08F
:106C400081111092BC0480E00E94B32D888181FFE5
:106C500004C081E00E94932D03C081E00E94B32D07
:106C6000888182FF0EC082E00E94932D8091FE05F4
:106C7000882399F081E08093BE0485E00E94932DE3
:106C80000CC082E00E94B32D8091FE05882329F07C
:106C90001092BE0485E00E94B32D888183FF04C05A
:106CA00083E00E94932D03C083E00E94B32D88816E
:106CB00084FF05C084E0DF91CF910C94932D84E094
:106CC000DF91CF910C94B32DDF91CF9108958091F6
:106CD000F10580FF09C088E08093280188E090E0FA
:106CE0009093230180932201089580E291E02BD6B6
:106CF0008091F10581FD06C080E191E024D680E01D
:106D000091E021D6BBD480912E0690915401981722
:106D100059F060912E0670E041E086EA0E949021D1
:106D200080912E0680935401089580912C0688232B
:106D300029F080912E06853009F4C2C80895CF92BB
:106D4000DF92EF92FF920F931F93CF93DF93EC01AB
:106D50008B017A01D8D1811133C0E114F10439F0EB
:106D6000F70180819181081B190BC80FD91FC12C15
:106D7000D12C0115110519F18091E80085FD16C08F
:106D80008091E8008E778093E80078D4E114F104D4
:106D900049F0F70180819181C80ED91ED182C0824D
:106DA00085E00EC0B0D1882321F30AC08991809379
:106DB000F10001501109FFEFCF1ADF0ADACF80E0AE
:106DC000DF91CF911F910F91FF90EF90DF90CF90C7
:106DD000089520913506309136062617370748F07A
:106DE0006115710539F42091E8002E772093E800B1
:106DF00001C0B90140E06115710599F120912E069D
:106E0000222309F441C0253009F440C02091E80054
:106E100023FD3EC02091E80022FD30C02091E80013
:106E200020FFE9CF2091F2003091F300FC01CF0167
:106E30006115710559F02830310540F48191809336
:106E4000F100615071092F5F3F4FF1CF41E02830D1
:106E5000310509F040E02091E8002E772093E8000A
:106E6000CACF4111CBCF0AC080912E06882361F092
:106E7000853061F08091E80083FD0AC08091E800D0
:106E800082FFF2CF80E0089582E0089583E00895C4
:106E900081E008956115710529F42091E8002B77B0
:106EA0002093E800FC016115710531F180912E06F7
:106EB000882351F1853051F18091E80083FD22C093
:106EC0008091E80082FFEFCF8091F2009091F30073
:106ED000892B31F08091F100819361507109A1F704
:106EE0008091E8008B778093E800DDCF80912E06BB
:106EF000882351F0853051F08091E80080FFF6CF73
:106F000080E0089581E0089582E0089583E0089587
:106F100020913506309136062617370748F061155F
:106F2000710539F42091E8002E772093E80001C024
:106F3000B901FC0120E06115710581F180912E06F7
:106F4000882309F43EC0853009F43DC08091E800F3
:106F500083FD3BC08091E80082FD2DC08091E80058
:106F600080FFE9CF8091F2009091F30061157105E7
:106F700059F08830910540F424912093F100319626
:106F8000615071090196F2CF21E0089709F020E0E5
:106F90008091E8008E778093E800CDCF2111CECF8D
:106FA0000AC080912E06882361F0853061F08091BF
:106FB000E80083FD0AC08091E80082FFF2CF80E004
:106FC000089582E0089583E0089581E00895982F60
:106FD000973058F59093E900981739F07091EC00CC
:106FE0002091ED005091F00003C0242F762F50E047
:106FF00021FF19C03091EB003E7F3093EB003091C0
:10700000ED003D7F3093ED003091EB003160309327
:10701000EB007093EC002093ED005093F000209172
:10702000EE0027FF07C09F5FD3CF8F708093E900EA
:1070300081E0089580E00895EF92FF920F931F93EF
:10704000CF93DF93E62EEC018C010C5F1F4FF12CE8
:10705000FE1491F15881552351F1F8012081698185
:107060007A8131979081852F8F70873010F080E082
:1070700024C0223010F442E001C046E0E8E0F0E035
:1070800020E0E617F70720F42F5FEE0FFF1FF9CF80
:107090002295207F422BF0E49F9F90011124551FE1
:1070A0005527551F652F622B92DF882301F3F39438
:1070B00025960B5F1F4FCCCF81E0DF91CF911F91C1
:1070C0000F91FF90EF90089580912F0687FF11C0D8
:1070D0008091E80082FD05C080912E068111F8CFD5
:1070E00011C08091E8008B770BC080912E06882319
:1070F00049F08091E80080FFF8CF8091E8008E771A
:107100008093E80008952091E4003091E50095E631
:107110004091EC00842F817040FF22C08091E800F4
:1071200080FD1CC080912E06882391F0853091F05F
:107130008091EB0085FD10C04091E4005091E50086
:107140004217530729F39A01915011F784E00895EB
:1071500082E0089583E0089581E0089580E0089535
:107160004091E80042FFDECF089568D06FD0E0EE96
:10717000F0E0808181608083E8EDF0E080818F77AE
:10718000808319BCA7EDB0E08C918E7F8C938081B9
:107190008F7E808310922D0608950F931F93CF93B7
:1071A000DF934CD053D0C8EDD0E088818F778883AF
:1071B00088818068888388818F7D8883E7EDF0E00F
:1071C00080818068808319BC10922E0610922B0655
:1071D00010922C0600EE10E0F80180818B7F8083F6
:1071E00088818160888342E060E080E0F0DEE1EE4B
:1071F000F0E080818E7F8083E2EEF0E0808181602C
:107200008083808188608083F80180818E7F808385
:10721000888180618883DF91CF911F910F910895BC
:10722000E8EDF0E080818F7E8083E7EDF0E0808103
:107230008160808381E080932D06AFCFE8EDF0E0A0
:1072400080818C7F80831092E20008951092DA0092
:107250001092E10008951F920F920FB60F92112421
:107260000BB60F922F933F934F935F936F937F9340
:107270008F939F93AF93BF93EF93FF938091E10020
:1072800082FF0AC08091E20082FF06C08091E10087
:107290008B7F8093E1003DDC8091DA0080FF1DC090
:1072A0008091D80080FF19C08091DA008E7F809392
:1072B000DA008091D90080FF0CC084E189BD86E1AD
:1072C00089BD09B400FEFDCF81E080932E06EFDB7F
:1072D00004C019BC10922E06ECDB8091E10080FF07
:1072E00018C08091E20080FF14C08091E2008E7F80
:1072F0008093E2008091E20080618093E2008091BF
:10730000D80080628093D80019BC85E080932E0657
:1073100028DC8091E10084FF2FC08091E20084FF8F
:107320002BC084E189BD86E189BD09B400FEFDCF93
:107330008091D8008F7D8093D8008091E1008F7E6E
:107340008093E1008091E2008F7E8093E200809143
:10735000E20081608093E20080912B06882311F087
:1073600084E007C08091E30087FD02C081E001C096
:1073700083E080932E06F7DB8091E10083FF22C03B
:107380008091E20083FF1EC08091E100877F80939F
:10739000E10082E080932E0610922B068091E1009E
:1073A0008E7F8093E1008091E2008E7F8093E200E7
:1073B0008091E20080618093E20042E060E080E042
:1073C00006DECDDBFF91EF91BF91AF919F918F9141
:1073D0007F916F915F914F913F912F910F900BBED5
:1073E0000F900FBE0F901F9018951F93CF93DF93B0
:1073F000CDB7DEB7AA970FB6F894DEBF0FBECDBFEC
:10740000EFE2F6E088E08E0F9091F10091938E13F9
:10741000FBCF71DB8091E80083FF18C180912F06BC
:1074200090913006492F50E04A30510508F00EC1C6
:10743000FA01EA59FF4FC5C3803881F0823809F05C
:1074400005C1809133068F708093E9008091EB0035
:1074500085FB882780F91092E90007C080912C06EF
:10746000882311F082E001C080E09091E800977FCE
:107470009093E8008093F1001092F100C4C0282F8F
:107480002D7F09F0E3C0882319F0823061F0DEC05F
:1074900080913106813009F0D9C0933009F080E045
:1074A00080932C062BC080913106811127C08091DA
:1074B00033068F7009F4CAC08093E9002091EB0075
:1074C00020FF1CC0933021F48091EB00806214C037
:1074D0009091EB0090619093EB0021E030E0A901E6
:1074E00002C0440F551F8A95E2F74093EA001092BC
:1074F000EA008091EB0088608093EB001092E90035
:107500008091E800877F82C08111A0C01091310670
:107510001F778091E3008078812B8093E300809136
:10752000E800877F8093E800CFDD8091E80080FF4E
:10753000FCCF8091E30080688093E300111102C0CA
:1075400082E001C083E080932E0680C080588230A4
:1075500008F07CC080913106909132068C3D53E05A
:10756000950771F583E08A838AE289834FB7F8949F
:10757000DE01139620E03EE051E2E32FF0E050936D
:107580005700E49120FF03C0E295EF703F5FEF707A
:107590008E2F90E0EA3010F0C79601C0C0968D9310
:1075A0009D932F5F243149F74FBF8091E800877F7B
:1075B0008093E8006AE270E0CE0101960ADC12C016
:1075C000AE014F5F5F4F60913306E7D9BC01892B55
:1075D00009F43CC09091E800977F9093E80089817E
:1075E0009A8196DC8091E8008B778093E8002EC02A
:1075F000803861F58091E800877F8093E800809172
:107600002B068093F1008091E8008E778093E8004C
:107610005BDD1CC081111AC0909131069230B0F42C
:107620008091E800877F8093E80090932B064CDDE3
:1076300080912B06811106C08091E30087FD02C076
:1076400081E001C084E080932E0634DA8091E80066
:1076500083FF0AC08091E800877F8093E8008091D3
:10766000EB0080628093EB00AA960FB6F894DEBF21
:107670000FBECDBFDF91CF911F910895CF93809121
:107680002E06882399F0C091E900CF709091EC000C
:10769000892F817090FD80E8C82B1092E9008091BD
:1076A000E80083FDA2DECF70C093E900CF9108957A
:1076B0006F927F928F929F92AF92BF92CF92DF9202
:1076C000EF92FF920F931F93CF93DF9300D01F92FF
:1076D000CDB7DEB77C01CDB6DEB68091E80083FF82
:1076E00008C1F701808190E0209133063091340683
:1076F0002817390709F0FDC080913006833009F45E
:107700009FC030F4813071F0823009F4D6C0F1C0EE
:107710008A3009F4BAC08B3009F4A3C0893009F06B
:10772000E8C051C080912F06813A09F0E2C08DB6C1
:107730009EB61A82198280913106109132068B838F
:10774000F7018085482F50E08DB79EB7841B950BBD
:107750000FB6F8949EBF0FBE8DBFEDB7FEB7319642
:107760005F0160E070E0CF014BD24FEF410F8E011F
:107770000F5F1F4F9501BE016D5F7F4FC701F5D9A8
:10778000F70186819781009721F0408550E0B5018F
:107790002ED21092E9008091E800877F8093E80064
:1077A0008B8181118093F10069817A81C50111DBA0
:1077B0008091E8008B778093E8000FB6F8949EBE26
:1077C0000FBE8DBE96C080912F06813209F091C008
:1077D000ADB6BEB6009135061091360670903106F2
:1077E000609032068DB79EB7801B910B0FB6F89450
:1077F0009EBF0FBE8DBFEDB7FEB731964F01809192
:10780000E800877F8093E800B801CF0143DB8091D7
:10781000E8008E778093E80021E0711001C020E03D
:1078200030E0021B130B280D391D4FEF460D672D5D
:10783000C701EDD90FB6F894BEBE0FBEADBE59C09C
:1078400080912F06813A09F054C08091E800877F2B
:107850008093E8008091E80080FFFCCFF7018185EC
:1078600040C080912F06813209F043C08091E8002A
:10787000877F8093E80028DC9091310681E09111A8
:1078800001C080E0F701818734C080912F068132EA
:1078900081F58091E800877F8093E80015DC809176
:1078A000310690913206882736E0969587953A956D
:1078B000E1F7F701958784871CC080912F06813AF4
:1078C000C1F48091E800877F8093E8008091E80010
:1078D00080FFFCCFF70184859585969587959695D1
:1078E00087958093F1008091E8008E778093E8007F
:1078F000EBDB0FB6F894DEBE0FBECDBE0F900F903F
:107900000F90DF91CF911F910F91FF90EF90DF903B
:10791000CF90BF90AF909F908F907F906F90089581
:10792000FC01399627E0DF011D922A95E9F721E055
:10793000FC01218724EF31E03587248723E024836D
:1079400061E0019679CB4F925F926F927F928F9216
:107950009F92AF92BF92CF92DF92EF92FF920F93DE
:107960001F93CF93DF9300D01F92CDB7DEB77C017A
:10797000ADB6BEB680912E06843009F08DC08091E0
:10798000E4009091E500F701228533852817390737
:1079900009F482C081818F708093E9008091E800B2
:1079A00085FF7AC08DB69EB6408550E08DB79EB7F4
:1079B000841B950B0FB6F8949EBF0FBE8DBFEDB71D
:1079C000FEB731966F011B821A82198260E070E067
:1079D000CF0116D18E010F5F1F4F960140E0BE010F
:1079E0006D5F7F4FC701C1D8482EF701848595850B
:1079F000892B51F091E080E026853785232B09F013
:107A000090E0092F182F02C000E010E0F701668017
:107A100077806114710489F049815A81B301C601EC
:107A2000D9D055245394892B09F4512CF701408562
:107A300050E0B601C301DBD001C0512C89819A818D
:107A4000892BF1F0411004C0511002C0012BC1F08C
:107A5000F701848595859787868781818F708093CC
:107A6000E9008B8181118093F10069817A8140E086
:107A700050E0C60164D98091E8008E778093E800D9
:107A80008091E4009091E500F701938782870FB61B
:107A9000F8949EBE0FBE8DBE0FB6F894BEBE0FBE4C
:107AA000ADBE0F900F900F90DF91CF911F910F916E
:107AB000FF90EF90DF90CF90BF90AF909F908F900E
:107AC0007F906F905F904F90089508950E94582F77
:107AD0000E947B210E94DC310E94562D0E94762F4D
:107AE0000E941F280E9419310E94A31F0E94383251
:107AF0000E94DB33ECD80E94C12F92CB0E94E73367
:107B00008091CA018823E1F30C9404342EDBF894AD
:107B10002FEF87EA91E6215080409040E1F700C0C6
:107B200000008091CA01823011F40E94592F809187
:107B3000CA01882359F09CE088E10FB6F894A89513
:107B4000809360000FBE90936000FFCF0895BDDF6B
:107B5000BDDFD4DFDBDF80E090E00895991B79E0A2
:107B600004C0991F961708F0961B881F7A95C9F7CD
:107B700080950895AA1BBB1B51E107C0AA1FBB1F1C
:107B8000A617B70710F0A61BB70B881F991F5A95A9
:107B9000A9F780959095BC01CD01089597FB072E1C
:107BA00016F4009406D077FD08D0E4DF07FC05D07A
:107BB0003EF4909581959F4F0895709561957F4F04
:107BC0000895EE0FFF1F0024001C0BBE0790F691D6
:107BD000E02D0994FB01DC0104C08D910190801916
:107BE00021F441505040C8F7881B990B0895FB01C0
:107BF000DC0102C001900D9241505040D8F7089529
:107C0000DC0101C06D9341505040E0F70895F999AF
:107C1000FECF92BD81BDF89A992780B50895A8E15D
:107C2000B0E042E050E01CC0DC01CB0102C02D916D
:107C300005D041505040D8F70895262FF999FECF2E
:107C40001FBA92BD81BD20BD0FB6F894FA9AF99A79
:107C50000FBE01960895F1DF272FF0CFDC01CB0195
:107C6000FC01F999FECF06C0F2BDE1BDF89A31964C
:107C700000B40D9241505040B8F70895F894FFCFEA
:107C80000283020000015501020000000000000014
:107C90000182030000015701030000000000000002
:107CA0000081120000015A011200000000000000D3
:107CB0002400250023002700280026002A002B008E
:107CC00029002D002E002C00300031002F00210053
:047CD000220020006E
:00000001FF
