:100000000C9483140C94C7140C94C7140C94C71448
:100010000C94C7140C94C7140C94C7140C94C714F4
:100020000C94C7140C94C7140C94CF2B0C94C714C5
:100030000C94B0220C94C7140C94C7140C94C714DD
:100040000C94C7140C94D1260C94C7140C94C714A8
:100050000C94C7140C94C7140C94C7140C94C714B4
:100060000C94C7140C94C7140C94C7140C94C714A4
:100070000C94C7140C94C7140C94C7140C94C71494
:100080000C94C7140C94C7140C94C7140C94C71484
:100090000C94C7140C94C7140C94C7140C94C71474
:1000A0000C94C7140C94C7140C94C714A41A7D178D
:1000B00083178D178D17A31701183018AB18331934
:1000C0006B19401A661A801A8D178D178D178D17A8
:1000D0008D178D17611873187C18871890186A1877
:1000E0008B1A8D178D17A519BA19CD19E319F419A3
:1000F000081A1C1A2E1AB317B617BC17C617CC1736
:10010000CF17D517E317E917EC17BC17F217F81735
:10011000BF18C218C818CB18D118D918DF18EA1898
:10012000F018F318F918FC1802190A1910191A19FD
:1001300020197B19801985198A198F199419991911
:100140009E19B72CDE2CC72DDE2CC72D292D4A2D4C
:10015000C72D9D2DAC2D0000000000000000000008
:100160000000000000002A002B0028000000000012
:100170002800000000000000000000000000000057
:100180000000000000000000000000002900000046
:100190000000000000002C001E0234022002210298
:1001A0002202240234002602270225022E023600F3
:1001B0002D003700380027001E001F0020002100FE
:1001C00022002300240025002600330233003602DB
:1001D0002E00370238021F0204020502060207023F
:1001E000080209020A020B020C020D020E020F02A3
:1001F0001002110212021302140215021602170253
:10020000180219021A021B021C021D022F003100E3
:10021000300023022D02350004000500060007000F
:10022000080009000A000B000C000D000E000F0072
:100230001000110012001300140015001600170022
:10024000180019001A001B001C001D002F023102AB
:10025000300235024C0000000000000000000000E9
:10026000000000000000000000000000000000008E
:10027000000000000000000000000000000000007E
:10028000000000000000000000000000000000006E
:10029000000000000000000000000000000000005E
:102330000000000000000000000000FF00FF00FFA0
:1023400000FF00FF00FF00FF00FF00FF00FF00FF95
:1023500000FF00FF00FF00FF00FF00FF00FF00FF85
:1023600000FF00FF00FF0000000000000000000070
:10237000000000000000000000000000000000005D
:10238000000000000000000000000000000000004D
:1023900000000000000000080C0000000000000029
:1023A000000000000000000000000000000000002D
:1023B000000000000000000000000000000000001D
:1023C000000000000000000000000000000000000D
:1023D00000000000000000000000000000000000FD
:1023E00000000000000000000000000000000000ED
:1023F00000000000000000000000000000000000DD
:1024000000000000000000000000000000000000CC
:1024100000000000000000000000000000000000BC
:102420000000000000AC22192561250000AC221F2D
:10243000258A160000AC22282566170000AC22343D
:1024400025000000004F7574206F662072616E6772
:10245000652E0A00496E76616C69642073656C654F
:102460006374696F6E2E0A003A204F4646003A2088
:102470004F4E00205B312D31365D3E2000205B3118
:102480002D3235355D3E2000205B312D3939395DE7
:102490003E2000205B312D39395D3E2000205B302D
:1024A0002D395D3E2000205B303D4F46462C2031CB
:1024B0003D4F4E5D3E200044656661756C7420445E
:1024C000696D6D6572204C6576656C004D61747246
:1024D000697820536574757020576169742028638A
:1024E00079636C657329005265706561742050656D
:1024F00072696F6420286D7329004D696E20486FE2
:102500006C642054696D6520666F72205265706539
:10251000617420286D7329004D6F757365204D6FB0
:1025200076656D656E74204D756C7469706C696547
:10253000720042617365204D6F757365204D6F7633
:10254000656D656E74004D61782044656C6179201D
:1025500054696D6520666F7220446F75626C6520EA
:1025600054617020286D7329004D617820486F6C8C
:10257000642054696D6520666F7220546170202854
:102580006D7329004465626F756E63652054696DD3
:102590006520286D732900416C7465726E617465E5
:1025A000204465626F756E6365205374796C6500B5
:1025B000556E6C696E6B6564204E756D204C6F6353
:1025C0006B00426F6F74204B6579626F61726400BB
:1025D00044656661756C74204C6179657200576959
:1025E0006E204C6F636B206F6E205363726F6C6C48
:1025F000204C6F636B005669727475616C204E7568
:102600006D20506164000A3929204261636B0A3EE3
:1026100020000A382920000A372920000A362920FC
:10262000000A352920000A342920000A3329200015
:102630000A322920000A312920000A4C4544204D45
:10264000656E753A000A54696D696E67204D656E56
:10265000753A000A436F6E666967204D656E753A7C
:10266000000A4D61696E204D656E753A0A31292068
:10267000436F6E666967206D656E750A3229205456
:10268000696D696E67206D656E750A3329204C454A
:1026900044206D656E750A35292052657365740A8C
:1026A000392920517569740A3E20001E4D1F5120A2
:1026B0004E21502200234F244A2552264B274937CA
:1026C0004CB500B600B700CD006F007000E200E529
:1026D00000E900EA00520153015401550183018AC7
:1026E00001920194012102230224022502260227DD
:1026F000022A02B101B202B304B408B510E001E14C
:1027000002E204E308E410E520E640E78001050862
:102710000A0C0F101414181800384F050001590541
:1027200001015D0502014D050301540504015C052D
:1027300005015E0506015005070153050801560510
:10274000090251050B024E050D0155050E015A05F2
:102750000F024C051101580512014A0513014B05E2
:1027600014014A03450061007300790041005600DE
:10277000520020004D0075006C00740069006D006F
:10278000650064006900610020004B00650079006D
:1027900062006F0061007200640020007600230078
:1027A0002E00230023002E0023002300000004033A
:1027B000090409026D00040100A0FA0904000001E7
:1027C000030101000921B001000122400007058139
:1027D000030800010904010001030000000921B001
:1027E00001000122320007058203030008090402E8
:1027F0000001030000000921B001000122270007A9
:102800000583030E0001090403000103010200090E
:1028100021B0010001223A000705840303000512DC
:1028200001000200000008EB03FF2010000001007F
:1028300001050C0901A1018502160100269C021A5E
:1028400001002A9C02751095018100C005010980D4
:10285000A1018503198129837501950381069505D9
:102860008101C005010902A1010901A100050919A1
:102870000129031500250195037501810295017554
:102880000581010501093009311681FF267F0036D7
:102890000000460000950275088106C0C0050109C8
:1028A00006A101050719E029E71500250175019525
:1028B000088102150025010507190029679568752B
:1028C000018102C005010906A101050719E029E7F8
:1028D0001500250175019508810295017508810192
:1028E00005081901290595057501910295017503E2
:1028F0009101150026FF000507190029FF950675AF
:10290000088100C00F0011241FBECFEFDAE0DEBF48
:10291000CDBF84B714BE0FB6F894A895909160000F
:10292000986190936000109260000FBEF89483FF4E
:1029300011C080916C0590916D058D3A9E4D51F4BA
:1029400010926D0510926C05E8E1F7E22591349143
:10295000F901099585B7806885BF85B7806885BF0F
:1029600011E0A0E0B1E0E8E7F1E602C005900D92C9
:10297000AE35B107D9F725E0AEE5B1E001C01D9253
:10298000AC36B207E1F70E9405300C94BA300C94D3
:10299000000010926C0110926B011092670110926E
:1029A00066011092750110927401089590910404CB
:1029B0008091FF03892B9091FE03892B9091FD0359
:1029C000892B20916801222309F45AC081115FC02C
:1029D00080916A01811150C08091860181113AC0B5
:1029E00090916101921305C01092680110926101EB
:1029F0000895E92FF0E0EE0FFF1FEA58FE4F8081A7
:102A00002181813031F420936A019F5F90936101AD
:102A1000089590916201921731F02093620181E054
:102A200080930404089580938601181614F4FDD54C
:102A30000BC099E6980F993110F4E2D605C093E4E3
:102A4000980F933008F40BD7809161018F5F8093CA
:102A50006101089587FD02C020D60BC099E6980F4A
:102A6000993110F4E4D605C093E4980F933008F43C
:102A700003D7109286010895815080936A010895CA
:102A8000811105C0809169018D7F8093690108954E
:102A90008091C20290916301981731F18093630194
:102AA000882311F1883211F0883531F48091690161
:102AB0008B7F809369010895E09165018A3251F41A
:102AC000EE2391F0E150E0936501F0E0E359FE4F11
:102AD00010820895E63040F4AE2FB0E0A359BE4F07
:102AE0008C93EF5FE093650108951092620181E09D
:102AF000809304048091C202811102C01092690186
:102B00000895BC0180916801DB01982F292F281BB3
:102B1000983058F090936801620F711D27FD7A95E7
:102B2000709375016093740122C0FD012591349169
:102B3000211109C0909368011092750110927401DF
:102B40009923D1F014C0492F50E0F901FF27EE0F6F
:102B5000FF1FEA5AFE4F25913491440F551FFA0189
:102B6000EA58FE4F318320839F5F1196CFCF80912B
:102B7000690183608093690181E008954091680153
:102B800028E030E0241B31092617370758F1B0E060
:102B90004B2F0B2E000C550B46175707D8F4A0915E
:102BA00068012A2F30E0FC01E40FF51FE081F0E01E
:102BB000EE0FFF1FEA5AFE4F45915491220F331F2B
:102BC000F901EA58FE4F51834083AF5FA09368013B
:102BD000BF5FDECF672B41F08091690183608093F6
:102BE000690102C080E0089581E008959091680134
:102BF000983090F4E92FF0E0EE0FFF1FEA58FE4FF7
:102C0000808361839F5F90936801809169018360F5
:102C10008093690181E0089580E008959C0190917E
:102C2000680191112EC0A901983049F49093680170
:102C3000205F3F4F30936C0120936B011BC0FA0162
:102C4000659174914E5F5F4F6115710549F49093E2
:102C5000680110926C0110926B01992381F00AC0F7
:102C6000E92FF0E0EE0FFF1FEA58FE4F71836083FB
:102C70009F5FDACF8091690183608093690181E071
:102C8000089580E00895AC018091680181113EC0F3
:102C900060937301282F082E000C330B261737077B
:102CA00058F590916801220F331F983038F0240FA7
:102CB000351F30936701209366011EC0FA01E20FB1
:102CC000F31F20813181E92FF0E0EE0FFF1FEA585A
:102CD000FE4F318320839F5F909368019091730131
:102CE000915090937301911105C010926701109259
:102CF000660102C08F5FCECF80916801882341F0CA
:102D00008091690183608093690102C080E0089529
:102D100081E0089590916901992329F191FD46CEB2
:102D200020916B0130916C012115310511F0C90121
:102D300075CF20916601309167012115310539F079
:102D400060917301062E000C770BC9019CCF209176
:102D50007401309175012115310511F0C901D1CEF1
:102D600092FD96CEC2CE0895EDE6F1E0108211827A
:102D70001282138214821582109265018091C20220
:102D80008093630180916901856080936901089552
:102D9000089508958A3010F4805D0895895C08953F
:102DA0008F929F92AF92BF92CF92DF92EF92FF925B
:102DB0000F931F93CF93DF931F92CDB7DEB79C0184
:102DC0008B0180E3FB01808380E28183828383E047
:102DD000E82EF12C94E6892E912C4AE0B42E682D31
:102DE00070E0911003C02617370790F06801C90CF6
:102DF000D11C97FCDA94C9010E944C30A82E862F72
:102E00009983C8DFF60180832A2D9981392F939405
:102E1000882D6B2D0E944030882EF1E0EF1AF108CA
:102E2000F1F60F90DF91CF911F910F91FF90EF90EE
:102E3000DF90CF90BF90AF909F908F90089597EACA
:102E4000980F993010F48855089592EE980F9930A4
:102E500010F48D5108959CEF980F963010F48A5F0E
:102E6000089580E00895BF92CF92DF92EF92FF9293
:102E70000F931F93CF93DF937C018B0180E090E051
:102E8000B12CC42FD0E02B2D0B2C000C330B2017B2
:102E9000310790F48C9F60018D9FD00C9C9FD00CCB
:102EA0001124F701E20FF31F8081C9DF9601280F7B
:102EB000311DC901B394E7CFDF91CF911F910F91DD
:102EC000FF90EF90DF90CF90BF9008951F93CF9326
:102ED000DF9300D000D0CDB7DEB7809169018111BA
:102EE00033C3E09187018E2F90E085329105A8F4DD
:102EF000FC01EA5AFF4F0C94603081E696E201DE55
:102F000033DF82E01FC311E0109387011092880124
:102F100080916D0194DF893019F41092870114C3F8
:102F2000853019F4109389010FC3813011F485E0C5
:102F300009C3823011F488E005C3833009F401C36A
:102F400084E594E2D2C2E09188018E2FEE0F990BB6
:102F5000AA0BBB0B8D30910508F04DC0FC01E55864
:102F6000FF4F0C94603083E596E29EC285E396E2C3
:102F7000C8DD86EF95E298C280915005882319F04C
:102F80008EE694E291C288E694E28EC280E396E2F5
:102F9000B8DD8EED95E288C280915905EFCF8BE2C6
:102FA00096E2AFDD80ED95E27FC28AE3898380E21D
:102FB0008A8380914D05BE016D5F7F4F90E0F0DE0A
:102FC00063E070E046C186E296E29BDD82EC95E22A
:102FD0006BC280915C05D2CF81E296E292DD80EBFC
:102FE00095E262C28CE196E28CDD87E995E25CC2F3
:102FF00080914A05C3CF86E096E283DDB5DE86E0A8
:103000005DC287E08093870180916D0118DF809316
:103010008801893011F481E095C2813019F486EF7E
:1030200095E263C2823019F48EED95E25EC2833080
:1030300019F480ED95E259C2843019F482EC95E2DE
:1030400054C2853019F480EB95E24FC2863019F4F2
:1030500087E995E24AC284E594E253DD85E04BC2FC
:10306000809188018330C9F04CF4813089F082303E
:1030700019F586EA94E245DD85E11FC08530B9F097
:103080008CF08630C9F486EA94E23BDD89E115C014
:1030900086EA94E236DD84E110C08DE994E231DD08
:1030A00086E10BC086EA94E22CDD87E106C086EA61
:1030B00094E227DD88E101C085E08093870154DE3A
:1030C0001CC280916D01BBDE823048F480935D05A7
:1030D00082E01AC080916D01B2DE823050F185E449
:1030E00094E20FDD24CF80916D01A9DE8230B8F724
:1030F0008093590581E008C080916D01A0DE8A307F
:1031000070F780934D0583E00E94462610CF809192
:103110006D0195DE823018F780935C0585E0F4CF71
:1031200080916D018CDE8230D0F68093500587E06F
:10313000EBCF80934A0580E10E94462680914A05A4
:10314000882321F086E080935E05DECF8CE08093BB
:103150005E0586E0D9CF8AE3898380E28A83E091A5
:1031600088018E2FEE0F990BAA0BBB0B81319105B5
:1031700008F073C0FC01E857FF4F0C94603085E401
:1031800096E292C185E396E2BCDC84E895E28CC1CC
:1031900080915E0547C080E396E2B3DC89E695E264
:1031A00083C1BE016D5F7F4F809156059091570599
:1031B0004DC08BE296E2A5DC86E495E275C1809174
:1031C000510590915205BE016D5F7F4F919581959C
:1031D00091093CC086E296E294DC82E395E264C108
:1031E00080914E051FC081E296E28BDC88E195E27A
:1031F0005BC18091550516C08CE196E282DC8AEFB6
:1032000094E252C1BE016D5F7F4F80915A0590914B
:103210005B051CC087E196E274DC87EE94E244C152
:1032200080914C05BE016D5F7F4F90E0B9DD64E099
:1032300070E00FC082E196E264DC8CEC94E234C171
:1032400080915805BE016D5F7F4F90E0A9DD65E07C
:1032500070E0CE01019692DC33C186E096E251DC4B
:1032600083DD89E02BC18AE08093870180916D0125
:10327000E6DD80938801893009F4CDCE813019F4E0
:1032800084E895E232C1823019F489E695E22DC1D5
:10329000833019F486E495E228C1843019F482E37E
:1032A00095E223C1853019F488E195E21EC186308C
:1032B00019F48AEF94E219C1873019F487EE94E289
:1032C00014C1883019F48CEC94E20FC184E594E2C7
:1032D00018DC88E010C1E09188018E2FEE0F990B69
:1032E000AA0BBB0BFC013197E830F10560F5E756FE
:1032F000FF4F0C94603083E994E203DC8DE1DDCE76
:1033000088E894E2FEDB8EE1D8CE88E894E2F9DB2F
:103310008FE1D3CE83E994E2F4DB80E2CECE83E981
:1033200094E2EFDB81E2C9CE88E894E2EADB82E254
:10333000C4CE83E994E2E5DB83E2BFCE8DE794E27D
:10334000E0DB84E2BACE88E0B8CE6091650170E03F
:103350004AE08DE691E087DD9C012150310923365A
:10336000310520F480935E0586E04FC085E494E249
:10337000C8DBE1CD6091650170E04AE08DE691E047
:1033800072DD9C0121503109273E334078F790933C
:1033900057058093560589E038C06091650170E05B
:1033A0004AE08DE691E05FDD9C0121503109273E26
:1033B0003340E0F691958195910990935205809361
:1033C00051058AE022C06091650170E04AE08DE617
:1033D00091E049DD9C01215031092336310530F659
:1033E00080934E058BE011C06091650170E04AE06A
:1033F0008DE691E038DD9C012150310923363105FD
:1034000008F0B4CF809355058CE00E94462693CDFA
:103410006091650170E04AE08DE691E024DD9C0159
:1034200021503109273E334008F0A0CF90935B052F
:1034300080935A058DE0E9CF6091650170E04AE024
:103440008DE691E010DD9C012150310923363105D4
:1034500008F08CCF80934C058EE0D7CF609165014A
:1034600070E04AE08DE691E0FEDC9C0121503109DC
:103470002F3F310508F07ACF809358058FE0C5CFF4
:103480008AE3898380E28A8380918801813039F0E0
:10349000823061F081110DC08AE396E205C085E3B8
:1034A00096E22FDB87EB94E22CDB0AC08091540577
:1034B000B9CE86E096E225DB57DC8CE0809387016D
:1034C000809188018F5F809388013EC08DE080935A
:1034D000870180916D01B3DC80938801893009F404
:1034E0009ACD813021F487EB94E20BDB2DC084E58B
:1034F00094E207DB8BE0809387011092880124C05F
:1035000080918801813029F483E794E2FADA8AE134
:10351000D4CD8BE0D2CD6091650170E04AE08DE6BC
:1035200091E0A1DC9C01215031092031310530F4BA
:103530008093540584E00E94462603C085E494E20B
:10354000E0DA8BE0809387010F900F900F900F903F
:10355000DF91CF911F91089526E0829FC001112431
:10356000FC01E05CFE4F0190F081E02D208181E0C4
:1035700090E001C0880F6A95EAF7822B8083089556
:1035800026E0829FC0011124FC01E05CFE4F019007
:10359000F081E02D808160956823462B408308955B
:1035A00026E0829FC0011124FC01E05CFE4F0280F6
:1035B000F381E02D208181E090E001C0880F6A95C1
:1035C000EAF7822B8083089526E0829FC0011124B0
:1035D000FC01E05CFE4F0280F381E02D208181E060
:1035E00090E001C0880F6A95EAF780958223808376
:1035F000089526E0829FC0011124FC01E05CFE4F8B
:103600000280F381E02D80816823462B408308955A
:1036100026E0829FC0011124FC01E05CFE4F048083
:10362000F581E02D808186230895E82FE695E695C3
:10363000E695F0E0EB54FD4F982F977021E030E0D5
:1036400001C0220F9A95EAF79081292B208391E0FF
:103650009093FF039091AF0220E029175CF4E22FD2
:10366000022E000CFF0BEE53FD4F30813817A1F0F6
:103670002F5FF3CF96305CF4E92F092E000CFF0B7F
:10368000EE53FD4F80839F5F9093AF020895109299
:10369000C80281E0809303040895E82FE695E6953B
:1036A000E695F0E0EB54FD4F982F977021E030E065
:1036B00001C0220F9A95EAF7209590812923208353
:1036C00091E09093FF039091AF0242EC52E0FA0137
:1036D0002E2F241B291724F431913813F9CF01C060
:1036E0000895E22F022E000CFF0BEE53FD4F818157
:1036F00080832F5F2917ACF391509093AF02109203
:1037000003040895E82FE695E695E695F0E0EB547E
:10371000FD4F982F977021E030E001C0220F9A955D
:10372000EAF790812927208391E09093FF039091FD
:10373000AF0242EC52E0FA012E2F241B291724F489
:1037400031913813F9CF13C096305CF4E92F092E6C
:10375000000CFF0BEE53FD4F80839F5F9093AF02F1
:1037600008951092C80281E0809303040895E22F27
:10377000022E000CFF0BEE53FD4F818180832F5FE3
:103780002917ACF391509093AF021092030408955F
:1037900090916A0394305CF4E92F092E000CFF0B22
:1037A000E055FD4F80839F5F90936A03089540E04A
:1037B00060E070E082E4EDDA1092B40208952091A6
:1037C0006A0340EB52E0FA019E2F941B92179CF47F
:1037D00031913813F9CF921751F0E92F092E000CCF
:1037E000FF0BE055FD4F818180839F5FF4CF9150A7
:1037F00090936A030895682F70E040E083E4C9CA9B
:1038000020916B0330916C03232B69F48759E82FC7
:10381000F0E0EE0FFF1FEF53F94D859194919093D7
:103820006C0380936B0381E08093FE0308958759B6
:10383000E82FF0E0EE0FFF1FEF53F94D85919491C3
:1038400020916B0330916C032817390721F41092F3
:103850006C0310926B0381E08093FE03089593E460
:10386000980F81E001C0880F9A95EAF780930804C9
:1038700081E08093FD0308951092080481E0809315
:10388000FD03089580914D0580930704089592E10A
:10389000899F600D11248091AA0268130DC0809148
:1038A0005105909152058417950734F480910604D0
:1038B0008F5F8093060408951092AA021092060466
:1038C0000895E0915605F09157054E175F0754F49F
:1038D00091E0F9019083F2E18F9F600D11246093D4
:1038E000AA020895F90110821092AA021092060409
:1038F000089590917301E92FEE0FFF0BE653FD4FF2
:103900002091AC0230E0322F2227282B31832083F4
:1039100081E0890F80937301803534F010920204A6
:103920008093640180E16BC5089590910904911121
:1039300010C0805D803168F4E82FF0E0EE0FFF1FCB
:10394000E55CFC4E85919491880F991F855C9C4E97
:1039500065C90895CF93DF93C82FD62F80910704B0
:10396000882311F08B5F4BD580E18C0F8093070487
:103970000FDF80910704882311F08B5F20D5909191
:10398000070480914D05981711F08FE018D58091AC
:1039900007049091AB02D0FF02C0981308C098139F
:1039A00008C080910604811104C080914D05809368
:1039B000AB02DF91CF910895E82FF0E0EA5AFD4F76
:1039C0008491882311F060E0C5CF08950F931F9371
:1039D000CF93DF9300D01F92CDB7DEB7082F10E151
:1039E000180F80910704882341F08B5F2B834A8353
:1039F000698305D569814A812B81222381F18091D8
:103A0000070481132CC080910604882319F061FDFE
:103A10001093AB028091AE02801321C062FF1FC0E1
:103A20008FEF840F873620F46091AC02842F16C08C
:103A3000842F807E803E99F4E42FF0E0EE0FFF1F8C
:103A4000E25CFA4D849180959091AC028923809339
:103A5000AC0281E080930404649180E0C7D8812F98
:103A6000AEDEE0916A03E11103C08091AB0206C0B3
:103A70000E2E000CFF0BE155FD4F80818093070453
:103A800080910704882311F08B5F99D490910704EB
:103A900080914D05981309C08FE00F900F900F9003
:103AA000DF91CF911F910F91AAC40F900F900F90AB
:103AB000DF91CF911F910F910895E82FF0E0EA5A1E
:103AC000FD4F8491882321F020E040E060E07ECF2C
:103AD00008956F70623051F028F4662339F0613038
:103AE000E1F00895643011F0683011F5E82FF0E04E
:103AF000EE0FFF1FE25CFA4DE4918091AC02E82BDF
:103B0000E093AC0280910504882319F0E777E093F5
:103B1000AC0281E0809304040895E82FF0E0EE0FFA
:103B2000FF1FE25CFA4DE4918091AC02E827E8CFF8
:103B300008956F70623009F446C020F4662309F4DA
:103B400036C00895643019F0683089F10895E82F7F
:103B5000F0E0EE0FFF1FE25CFA4DE491E09560911A
:103B6000AC026E236093AC0291E090930404222394
:103B700009F44AC09091AE02981346C08FEF840FAB
:103B8000873610F4842F12C0842F807E803E09F087
:103B90003BC0E42FF0E0EE0FFF1FE25CFA4D849192
:103BA000809568236093AC02649180E01FC8E82F81
:103BB000F0E0EE0FFF1FE25CFA4DE491E09580919A
:103BC000AC02E8231CC0E82FF0E09091AC02EE0FAD
:103BD000FF1FE25CFA4D222379F0809106048823CE
:103BE00059F08491E82FE92BE093AC028091050411
:103BF000882339F0E77703C0E491E095E923E09367
:103C0000AC0281E08093040408956F70623051F03B
:103C100028F4662339F0613031F00895643011F0F2
:103C2000683011F402CD6ECD08956F70623049F0A6
:103C300018F461110DC00BC0643049F0683041F4D4
:103C400006C0222321F090910604911101C025CDD8
:103C500008951F93CF93DF931F92CDB7DEB7182F30
:103C6000862F807F29F08093620181E08093040495
:103C7000103C08F03DC01D3B08F0A3C0103BA0F471
:103C8000173908F0ADC0123809F466C030F48CEF73
:103C9000810F803708F455C0EAC0133809F464C0B6
:103CA000143809F46BC0E3C0163B09F49CC0A0F4BF
:103CB000113B08F4DCC0EFE4E10FF0E0EE0FFF1F72
:103CC000EC50F94DE49180910004E82BE09300045E
:103CD00081E080934805D1C0183B09F48EC008F4F8
:103CE00086C0193B09F0C3C08091C9028F5F88C0AC
:103CF0001E3C09F469C0A0F4193C09F455C038F41D
:103D0000113C09F443C0183C09F442C0B0C01C3C4B
:103D100009F488C008F09AC01A3C09F4AEC0A7C0E4
:103D2000183E38F4103E08F09FC01F3C09F077C0E1
:103D30004FC080E1810F8A3008F099C0812F0ADEE0
:103D40009CC080910204882321F0812F6983D1DDFA
:103D50006981812F5ADF91C08091AD0281FD8DC0B4
:103D60006091AC0289E307C08091AD0280FD85C0FF
:103D70006091AC0283E50E94F6157FC08091AD0290
:103D800082FD7BC06091AC0287E4F5CFB1D375C0F2
:103D90009091090481E0892780930904811102C070
:103DA00085E10BC085E149C09091050481E0892738
:103DB00080930504811103C085E021D35EC085E0B6
:103DC0003CC0812F4CDD59C082E08093890155C0F1
:103DD00080918701811151C081E0809387014DC09E
:103DE000812F0EDD4AC0809101048F5F03C0809156
:103DF000010481508093010405C08091C902815063
:103E00008093C9029091490580910604992321F07D
:103E100090914705981788F5809347052EC0812F0C
:103E200084DD2BC09091020481E0892780930204F5
:103E3000882329F01092730180E1C1D21EC08091C5
:103E4000730181118093640180E1B7CF80910204F6
:103E5000811113C060916401062E000C770B8AEC6F
:103E600092E00E94431609C0812F33DE06C0612F05
:103E700070E040E084E40E94C9161093AE020F90F7
:103E8000DF91CF911F9108951F93CF93DF9300D0BF
:103E90001F92CDB7DEB7962F907F29F01092620166
:103EA00091E090930404893B09F49DC008F040C060
:103EB000803BD0F4873908F085C0823809F45DC0B2
:103EC00060F49CEF980F903708F0ACC00F900F9003
:103ED0000F90DF91CF911F91A8CE833809F455C080
:103EE000843809F461C09EC0863B09F472C0B0F406
:103EF000813B08F497C06FE4680FE62FF0E0EE0F07
:103F0000FF1FEC50F94DE491E09580910004E82307
:103F1000E093000481E08093480590C0873B09F45A
:103F20005CC0883B09F07EC08091C9028F5F5EC093
:103F30008B3C70F4883C08F081C08D3B08F472C063
:103F4000803CD0F19FE3980F933008F477C06AC0AB
:103F5000883E38F4803E08F04CC08C3C08F06EC0BF
:103F600061C090E1980F9A3008F05CC00F900F90FC
:103F70000F90DF91CF911F9129CD8091AD0281FFEC
:103F80005DC06091AC0289E307C08091AD0280FF03
:103F900055C06091AC0283E50F900F900F90DF91B8
:103FA000CF911F910C94F6158091AD0282FF46C00F
:103FB0006091AC0287E4F0CF1092080481E0809316
:103FC000FD033CC00F900F900F90DF91CF911F9198
:103FD0002ECC80910104815003C0809101048F5F39
:103FE000809301042BC08091C90281508093C90243
:103FF00025C0182F80910204882361F08091AE02C1
:10400000811308C080E02B834A83698372DC698155
:104010004A812B81812F0F900F900F90DF91CF91CC
:104020001F9187CD682F70E040E085E40F900F90DE
:104030000F90DF91CF911F910C94C9160F900F90A4
:104040000F90DF91CF911F9108952091AC022272C1
:1040500091E009F090E020915D05222359F0992329
:1040600049F02091AD0220FF05C022EE280F2A3032
:1040700008F4855C20915005222321F1833571F4E9
:104080009091AD0281E089278093AD0280FF03C04B
:1040900080E095D11FC080E0B2D11CC027EA280F74
:1040A0002B3080F42091AD02E82FF0E0EE0FFF1FDF
:1040B00020FF05C0992319F0E750FA4D02C0E650E1
:1040C000FA4D84918A3C39F4911102C085E3089538
:1040D00089E2089580E00895AF92BF92CF92DF9277
:1040E000EF92FF920F931F93CF93DF9300D01F9215
:1040F000CDB7DEB7D82E062F10E08091070490E9E7
:10410000C92E92E1D99E70011124F701C89EE00DDD
:10411000F11D1124E00FF11FE556F24F84914A83FF
:104120005B83698392DFB82E809107049701C89E54
:10413000200D311D1124200F311FF901E550F84FDA
:10414000C490F901E55AFD4FA4900E0D1F1DF80112
:10415000E65EFD4FB082F801E359FC4FC082F801E2
:10416000E657FE4FA0824A815B8169818D2D8FDBEE
:104170004A2D6C2D8B2D6DDD0F900F900F90DF91E0
:10418000CF911F910F91FF90EF90DF90CF90BF9054
:10419000AF900C9441299F92AF92BF92CF92DF9241
:1041A000EF92FF920F931F93CF93DF931F92CDB7A0
:1041B000DEB792E1899F90011124260F311DF9018C
:1041C000E65EFD4F6F01B080F901E359FC4F7F01BE
:1041D000A080890106571E4FF80190809E012F5F35
:1041E0003F4F6FDB2981492D6A2D8B2D4DDEF60166
:1041F0001082F7011082F80110820F90DF91CF91A9
:104200001F910F91FF90EF90DF90CF90BF90AF90F4
:104210009F90089522E1829FC00111249C01260FE6
:10422000311DF901E65EFD4F8081F901E359FC4F34
:10423000908193FF1FC09FEF980F973618F46091FD
:10424000AC0216C0982F907E903EA1F4E82FF0E0CB
:10425000EE0FFF1FE25CFA4D849180959091AC02C5
:1042600089238093AC0281E080930404649180E010
:104270000C94F6150895FC018091090481111DC06C
:1042800080910304882339F081E0808381838283D5
:104290008383848311C08091C20280838091C30292
:1042A00081838091C40282838091C502838380913F
:1042B000C60284838091C7028583089520910904F2
:1042C000211109C0DC01E5EBF2E08DE08E0F919148
:1042D0009D938E13FCCF0895FC01809109048111F8
:1042E00006C0809162019091AC02982B9083089552
:1042F00022E1829FC0011124FC01E60FF11DE55669
:10430000F24FE491E83211F0E83539F441E060E031
:1043100070E081E50E94C91615C4089590E09C01E3
:10432000220F331F820F931FFC01E759FC4D24918C
:10433000FC01319689599C4DE959FC4D621721F0D9
:104340006491FC0184912CC96491FC0184913CC965
:104350000F931F93CF93DF93E8E9F3E2D49107E63D
:1043600013E2C0E0CD1769F0F80131966491F801CD
:104370008491F2D860E08C2FD1DFCF5F0D5F1F4FAB
:10438000F1CF8091540580931504DF91CF911F9157
:104390000F91089580911204893F69F48091170468
:1043A0008F3E19F41092170403C08F5F8093170497
:1043B0001092120408958F5F80931204089590E084
:1043C000880F991FFC01E55CFC4DA491FC01E45CA5
:1043D000FC4D8491E7E9F3E2E491AE1778F4B0E0A4
:1043E000A65FBB4F811103C08C91816006C09C9178
:1043F0009170E82FEE0F892F8E0F8C93089590E027
:10440000880F991FFC01E55CFC4DA491FC01E45C64
:10441000FC4D8491E7E9F3E2E491AE1780F4B0E05B
:10442000A65FBB4F811104C08C918E7F8C93089541
:104430009C91292F2695281302C091709C93089572
:10444000823049F0833079F08130A1F481E1B7DF27
:1044500082E1D5DF0CC081E1D2DF82E1D0DF83E1F0
:10446000AEDF84E1CCCF81E1CADF82E1A8DF83E166
:10447000C6DFF7CF81E1C3DF82E1C1DF83E1BFDFC8
:1044800084E19DCF0F931F93CF93E7E9F3E2E4918B
:10449000C0E00E2F10E08C2F0C2E000C990B801713
:1044A000910714F5209113042223C9F0FC01E65F63
:1044B000FB4F2081223018F421110FC010C0E22FD1
:1044C000E695F0E0E35FF84D6491809117040E9457
:1044D0004030921720F490FF02C061E001C060E01C
:1044E0008C2F1CDFCF5FD7CFCF911F910F910895F5
:1044F00080911504803110F081E002C08C5F8C7FC8
:10450000809315040895809116048F5F813118F40B
:1045100080931604089581E0809316041092140489
:10452000089590911504903120F081E08093130458
:1045300008958091140420911604929F902D1124C7
:10454000891738F491E090931304805F80931404EA
:104550000895109213040895D6DFE3DF1BDF92CF96
:104560001F920F920FB60F9211240F900FBE0F9053
:104570001F901895E4E6F0E0808180718083A5E6C5
:10458000B0E08C9186778C9380818160808380817C
:104590008460808380818062808380818064808366
:1045A0008C9188608C938081806880838081826018
:1045B00080838C9181608C938C918F778C9390E029
:1045C00080E80FB6F89480936100909361000FBE6D
:1045D0000895D0CF8DEA9EED90936D0580936C0584
:1045E00008959CE088E10FB6F894A8958093600048
:1045F0000FBE90936000E0E6F0E0808180648083ED
:104600007894089580E189BD82E189BD09B400FEF6
:10461000FDCF8091D8008F7D8093D8008091E000FD
:1046200082608093E0008091E00081FDFCCF0895DE
:10463000CF93DF93962F642F22E1929FE001112404
:10464000C40FD11DCC0FDD1FCD5DDB4F48815981DB
:10465000882301F157FF0EC020915E0530E03195AF
:1046600021953109241735077CF1892F35DD84E048
:1046700090E020C020915A0530915B054217530706
:1046800094F0892FC7DD20914C0588819981821B88
:10469000910910C01416150684F420915E0530E0CF
:1046A000421753071CF44C5F5F4F10C0892F73DD16
:1046B0008CEF9FEF998388830BC080915105909177
:1046C00052058417950724F44450510959834883AF
:1046D000DF91CF9108950F931F93CF93DF93082F0E
:1046E000862F642F92E1899FE0011124C40FD11D10
:1046F000CC0FDD1FCD5DDB4F5981011110C057FD7F
:1047000027C08881952F93702091510530915205D3
:104710008217930708F404969983888339C057FF5A
:1047200017C00881152F137020915A0530915B0531
:104730000217130730F06EDD80914C05081B11093C
:1047400002C00C5F1F4F198308838981806817C0DE
:10475000152F169516951F711C5F90915E05191700
:1047600080F048815370002311F0B6DC01C013DDE6
:10477000212F30E039832883898100FB87F98983E1
:1047800007C01F71110F110F5378252F212B29837B
:10479000DF91CF911F910F910895CF92DF92EF9209
:1047A000FF921F93CF93DF93E4E2F4E2E491E0936E
:1047B0001804E3E2F4E2E491E0931E04E2E2F4E29E
:1047C000E491E0932104E1E2F4E2E491E093220435
:1047D00087E1E82E84E2F82E99E1C92E94E0D92EE3
:1047E000D0E0F701149180911E0481111FEFF701B1
:1047F0003196C4914C2F612F8D2F0E94C01A2C2FFF
:104800002095F60121936F01422F412380911E04D0
:10481000642F6095811101C040E08D2F0E94F91A2C
:10482000DF5FF2E0EF0EF11CD530D9F680914A053A
:10483000882371F08BE693E29093200480931F0409
:1048400080915E05813250F080E280935E0506C063
:1048500088E193E29093200480931F04DF91CF912D
:104860001F91FF90EF90DF90CF900895CF92DF924D
:10487000EF92FF920F931F93CF93C0E0809121049A
:1048800090E02C2F0C2E000C330B281739070CF05E
:1048900054C089E1E82E84E0F82EF5E0CF026001F3
:1048A000112400E010E0F801EC0DFD1DE354FC4D77
:1048B0004491F70161917F01802F0E94F91A0F5FE7
:1048C0001F4F0530110579F7809158058A95F1F74A
:1048D00010E0212F012E000C330B8091220490E078
:1048E0002817390744F580911E04220F331FF90160
:1048F000E656FC4D882351F06491F901E756FC4DD2
:1049000084910E94081B882351F013C06491F9011F
:10491000E756FC4D84910E94081B882351F080913A
:104920001804882319F06C2F812F02C0612F8C2F5F
:10493000DFDC1F5FCECFCF5FA1CFCF911F910F9153
:10494000FF90EF90DF90CF900895CF92DF92EF929B
:10495000FF920F931F93CF93DF93D62FC82FCD17BE
:104960000CF05EC089E1E82E84E0F82EF5E0CF027D
:104970006001112400E010E0F70161917F016F3FB9
:1049800049F0F801EC0DFD1DE354FC4D4491802FDE
:104990000E94F91A0F5F1F4F0530110569F78091CA
:1049A00058058A95F1F710E0212F012E000C330BEA
:1049B0008091220490E02817390784F580911E0425
:1049C000220F331FF901E656FC4D882359F06491FC
:1049D000F901E756FC4D84910E94081B91E0882361
:1049E00061F00AC06491F901E756FC4D84910E9480
:1049F000081B91E0811101C090E080911804E091C2
:104A00001F04F0912004882319F04C2F612F02C05D
:104A1000412F6C2F892F09951F5FC6CFCF5F9FCF86
:104A2000DF91CF911F910F91FF90EF90DF90CF908A
:104A30000895609121046695669580E086CF809107
:104A40002104682F70E075956795869586957DCFD2
:104A50008091210493E0899FB00111247595679599
:104A600075956795869571CF6091210423E0629FCB
:104A7000C0011124959587959595879566CF81E01E
:104A800080934605089520914605AC01249FC001FE
:104A9000259F900D11246AE070E00E944C308091B7
:104AA0004505562F581B852F609345052F5F209392
:104AB00046052B3028F01092450591E0909346056D
:104AC0000895CF9380910104811104C08091C9029F
:104AD000882321F1C1E0C0934905809148058111E7
:104AE0002FC0809147059091550520914E05899FD3
:104AF000C0011124820F911DC6DF90910104899F8E
:104B0000902D1124909344059091C902899F802D86
:104B1000112480934305C093480512C08091490534
:104B2000882319F081E0809348051092490510927E
:104B3000450510924405109243058AE0809346058E
:104B4000CF910895CF93DF93CDB7DEB765970FB6BA
:104B5000F894DEBF0FBECDBF51E250934F051092C7
:104B6000590510925D0510924D0540E140935405A2
:104B700010925C053CE030935E0510925005109257
:104B8000530580EF90E0909357058093560588E891
:104B90009FEF909352058093510585E080934E05D9
:104BA0002FE02093550560E273E070935B056093FE
:104BB0005A0590E290934C058093580510924A054F
:104BC00010924B0559831A821B821C824D831E82D0
:104BD0003F831886198630EF3A871B8638E83C8772
:104BE0003FEF3D878E872F87988B23E0298B9A8B09
:104BF0008B8B1C8A1D8A45E150E060E070E0CE019D
:104C000001960E94903065960FB6F894DEBF0FBEF5
:104C1000CDBFDF91CF9108950F931F93CF93DF9373
:104C2000CAE1D7E2FE01329684913196E49190E098
:104C3000E23059F4FE0105911491805090400E9499
:104C40008B30F8019183808309C0FE010591149196
:104C5000805090400E948330F80180832496F7E2D0
:104C6000C236DF07F9F660914F05613251F070E00E
:104C700041E080E50E94C916DF91CF911F910F910D
:104C800061CFDF91CF911F910F91089524E0829F12
:104C9000C0011124FC01E45EF84D2491FC01E35EA7
:104CA000F84D3491FC01E65EF84D822F90E03230F1
:104CB00041F4A591B4916D917C91805090400C94F9
:104CC000A730A591B4916C91805090400C9499308C
:104CD00013BC109280001092820080E89EE39093B3
:104CE000890080938800089510925F0510928500D6
:104CF0001092840081E08093810082E080936F00B5
:104D00009AE088E10FB6F894A895809360000FBEF2
:104D100090936000E0E6F0E08081806480830895F5
:104D20000FB6F894A8958091600088618093600028
:104D3000109260000FBE10926F00109281000895D3
:104D400010926005809160058430D0F4E0915F0599
:104D50008091600594E0E99FF0011124E80FF11DB6
:104D6000EE0FFF1FEB5DFB4D85919491009711F0C5
:104D7000FC010995809160058F5F80936005E2CF0B
:104D800008951092850010928400DADF80915F050B
:104D90008F5F80935F05843010F010925F05A895B7
:104DA00008951F920F920FB60F9211242F933F93E5
:104DB0004F935F936F937F938F939F93AF93BF9323
:104DC000EF93FF93DEDFFF91EF91BF91AF919F9142
:104DD0008F917F916F915F914F913F912F910F90A4
:104DE0000FBE0F901F901895292F332723303105C0
:104DF000D9F074F42130310591F02230310509F0F9
:104E00004CC0E4EBF7E28591949162EB77E249C004
:104E100021323105B9F022323105E9F03EC082E19C
:104E200090E06FE178E23DC09927009729F0019763
:104E3000A1F5E2E6F7E202C0EEEAF7E2849190E043
:104E4000BF012FC081EE689FB00111246C53784DD3
:104E500089E090E026C0662389F0809110016817F0
:104E600091F080910001681799F0809120016813FA
:104E700014C08AE390E063E678E213C080E490E037
:104E800064EC78E20EC082E390E061E378E209C06E
:104E900087E290E06DE978E204C080E090E060E0B5
:104EA00070E0FA0171836083089581E0C9CA0895B2
:104EB000CF9380E391E0D4D7C82F8091100188234D
:104EC00021F080E191E0CCD7C823809100018823B4
:104ED00021F080E091E0C4D7C8238091200188238D
:104EE00021F080E291E0BCD7C823CC2311F080E010
:104EF00001C083E0A5DA8091E20084608093E20043
:104F0000CF91089580E391E073D6809110018823BA
:104F100019F080E191E06CD680910001882319F0AE
:104F200080E091E065D680912001882319F080E22D
:104F300091E05EC6089580913E0190913F010097F7
:104F400029F0019790933F0180933E0180911001D9
:104F5000882359F080911E0190911F01009729F03C
:104F6000019790931F0180931E0180910001882377
:104F700059F080910E0190910F01009729F001974F
:104F800090930F0180930E0180912001882359F0A6
:104F900080912E0190912F01009729F00197909315
:104FA0002F0180932E01089580E04ACA82E048CA0A
:104FB00080E046CA0F931F93CF93DF93E901F80176
:104FC000DC019C912091000191112EC0222381F0DF
:104FD00020916001220F80915C05811104C0199617
:104FE0009C91892F02C080E090E0820F8093600145
:104FF00088E090E0918380838091600180FD0DC006
:10500000CE016AD9CE01029636D9909104048091DE
:10501000FF03892B21F480E065C081FDFCCF109255
:10502000FF03109204045DC0921311C08EE090E063
:10503000918380838091600180FF06C0CE014CD9AE
:10504000CE0101963BD9E1CF81FDE9CFE4CF80913C
:105050002001981314C08091000488838091440536
:105060008983809143058A8383E090E091838083E4
:1050700080914805882379F21092480532C081E07A
:1050800090E0DB012C91233011F080E090E0209142
:10509000FD03822B892B91F080910804888381E0A5
:1050A00090E09183808383E0FB0180838091FD0306
:1050B000882309F4B0CF1092FD0313C080916B03D5
:1050C00090916C039983888382E090E09183808340
:1050D000DB018C938091FE03882309F49CCF10920E
:1050E000FE0381E0DF91CF911F910F910895CF933F
:1050F0008053914009F075C0F90180818093AD0221
:10510000C0915F01C82780935F01CC2309F469C077
:105110009091500591110FC0C0FF0DC080FF06C0D7
:1051200080E04DD980E00E94DC1C05C080E067D99A
:1051300080E00E945D1DC1FF0FC08091AD0281FF24
:1051400006C081E03CD981E00E94DC1C05C081E002
:1051500056D981E00E945D1DC2FF20C08091AD0242
:1051600082FF0FC082E02BD982E00E94DC1C80917C
:105170005905882399F081E08093050485E01FD9C3
:105180000DC082E03CD982E00E945D1D80915905EE
:10519000882321F01092050485E031D9C3FF0FC0A8
:1051A0008091AD0283FF06C083E009D983E00E94AD
:1051B000DC1C05C083E023D983E00E945D1DC4FF91
:1051C00010C08091AD0284FF06C084E0F8D884E06E
:1051D000CF910C94DC1C84E012D984E0CF910C9424
:1051E0005D1DCF910895E4E0F9E2E491E1FF08C08C
:1051F00081E08093100182E88093110181E001C079
:1052000080E0E2FF09C091E0980F909300018E5F6B
:10521000806880930101892FE3FF08C091E0980F17
:10522000909320018E5F8068809321010895F89407
:1052300080E391E028D680911001882319F080E165
:1052400091E021D680910001882319F080E091E05F
:105250001AD680912001882319F080E291E013D6BC
:105260007894ADD48BB590915E01981749F06BB5E9
:1052700070E041E086EA0E94C9168BB580935E011A
:10528000089580916205882321F08BB5853009F45B
:10529000B9C90895CF92DF92EF92FF920F931F93B7
:1052A000CF93DF93EC018B017A01D6D1811133C00A
:1052B000E114F10439F0F70180819181081B190B89
:1052C000C80FD91FC12CD12C0115110519F18091DE
:1052D000E80085FD16C08091E8008E778093E80095
:1052E0006ED4E114F10449F0F70180819181C80E78
:1052F000D91ED182C08285E00EC0AED1882321F3B1
:105300000AC089918093F10001501109FFEFCF1A73
:10531000DF0ADACF80E0DF91CF911F910F91FF90EC
:10532000EF90DF90CF90089520916A0530916B0542
:105330002617370748F06115710539F42091E80008
:105340002E772093E80001C0B90140E06115710596
:10535000A1F12BB5222309F442C0253009F441C044
:105360002091E80023FD3FC02091E80022FD31C0DC
:105370002091E80020FFEACF4091F3002091F20055
:1053800030E0342BFC01CF016115710559F0283054
:10539000310540F481918093F100615071092F5FD4
:1053A0003F4FF1CF41E02830310509F040E0209136
:1053B000E8002E772093E800C9CF4111CACF09C079
:1053C0008BB5882361F0853061F08091E80083FD22
:1053D0000AC08091E80082FFF3CF80E0089582E068
:1053E000089583E0089581E008956115710529F419
:1053F0002091E8002B772093E800FC0161157105EE
:1054000031F18BB5882359F1853059F18091E8004D
:1054100083FD23C08091E80082FFF0CF2091F3004C
:105420008091F20090E0922B892B31F08091F10075
:1054300081936150710991F78091E8008B77809397
:10544000E800DCCF8BB5882351F0853051F0809196
:10545000E80080FFF7CF80E0089581E0089582E0C2
:10546000089583E0089520916A0530916B05261711
:10547000370748F06115710539F42091E8002E775F
:105480002093E80001C0B901FC0120E0611571051D
:1054900089F18BB5882309F43FC0853009F43EC0FB
:1054A0008091E80083FD3CC08091E80082FD2EC021
:1054B0008091E80080FFEACF2091F3008091F20014
:1054C00090E0922B6115710559F08830910540F4F8
:1054D00024912093F1003196615071090196F2CF29
:1054E00021E0089709F020E08091E8008E77809312
:1054F000E800CCCF2111CDCF09C08BB5882361F056
:10550000853061F08091E80083FD0AC08091E80059
:1055100082FFF3CF80E0089582E0089583E008954C
:1055200081E00895982F973058F59093E9009817E7
:1055300039F07091EC002091ED005091F00003C023
:10554000242F762F50E021FF19C03091EB003E7FD1
:105550003093EB003091ED003D7F3093ED003091C2
:10556000EB0031603093EB007093EC002093ED0082
:105570005093F0002091EE0027FF07C09F5FD3CF2C
:105580008F708093E90081E0089580E00895EF92A4
:10559000FF920F931F93CF93DF93E62EEC018C01C4
:1055A0000C5F1F4FF12CFE1491F15881552351F1DE
:1055B000F801208169817A8131979081852F8F70E0
:1055C000873010F080E024C0223010F442E001C0A7
:1055D00046E0E8E0F0E020E0E617F70720F42F5F70
:1055E000EE0FFF1FF9CF2295207F422BF0E49F9F03
:1055F00090011124551F5527551F652F622B92DFEF
:10560000882301F3F39425960B5F1F4FCCCF81E0E5
:10561000DF91CF911F910F91FF90EF9008958091AE
:10562000640587FF0FC08091E80082FD04C08BB540
:105630008111F9CF10C08091E8008B770AC08BB53B
:10564000882349F08091E80080FFF9CF8091E8003D
:105650008E778093E80008952091E4003091E50072
:1056600095E64091EC00842F817040FF21C080912D
:10567000E80080FD1BC08BB5882391F0853091F048
:105680008091EB0085FD10C04091E4005091E50051
:105690004217530731F39A01915019F784E00895A6
:1056A00082E0089583E0089581E0089580E0089500
:1056B0004091E80042FFDFCF089564D06BD0E0EE68
:1056C000F0E0808181608083E8EDF0E080818F7779
:1056D000808319BCA7EDB0E08C918E7F8C93808184
:1056E0008F7E80831092630508950F931F93CF934D
:1056F000DF9348D04FD0C8EDD0E088818F77888382
:1057000088818068888388818F7D888319BC1BBCD1
:10571000109261051092620500EE10E0F8018081A0
:105720008B7F808388818160888342E060E080E0B5
:10573000F9DEE1EEF0E080818E7F8083E2EEF0E042
:10574000808181608083808188608083F80180818E
:105750008E7F8083888180618883DF91CF911F91C4
:105760000F910895E8EDF0E080818F7E8083E7ED72
:10577000F0E080818160808384E082BF81E080935B
:105780006305B3CFE8EDF0E080818E7F80831092D7
:10579000E20008951092DA001092E10008951F923D
:1057A0000F920FB60F9211242F933F934F935F9355
:1057B0006F937F938F939F93AF93BF93EF93FF93D9
:1057C0008091E10082FF0AC08091E20082FF06C062
:1057D0008091E1008B7F8093E100ADDB8091DA0066
:1057E00080FF1BC08091D80080FF17C08091DA0035
:1057F0008E7F8093DA008091D90080FF0BC080E11A
:1058000089BD82E189BD09B400FEFDCF81E08BBD79
:105810004CDB03C019BC1BBC4ADB8091E10080FF5C
:1058200017C08091E20080FF13C08091E2008E7F5C
:105830008093E2008091E20080618093E200809199
:10584000D80080628093D80019BC85E08BBDAEDBA8
:105850008091E10084FF2EC08091E20084FF2AC085
:1058600080E189BD82E189BD09B400FEFDCF809150
:10587000D8008F7D8093D8008091E1008F7E809347
:10588000E1008091E2008F7E8093E2008091E2004F
:1058900081608093E20080916105882311F084E0AB
:1058A00007C08091E30087FD02C081E001C083E072
:1058B0008BBD7EDB8091E10083FF21C08091E200FF
:1058C00083FF1DC08091E100877F8093E10082E02B
:1058D0008BBD109261058091E1008E7F8093E10085
:1058E0008091E2008E7F8093E2008091E2008061EF
:1058F0008093E20042E060E080E014DE55DBFF913F
:10590000EF91BF91AF919F918F917F916F915F9137
:105910004F913F912F910F900FBE0F901F901895B0
:105920001F93CF93DF93CDB7DEB7AA970FB6F89446
:10593000DEBF0FBECDBFE4E6F5E088E08E0F9091AC
:10594000F10091938E13FBCFDDDA8091E80083FFA5
:105950001EC18091640590916505492F50E04A3041
:10596000510508F014C1FA01EF55FF4FA9C3803863
:1059700021F0823809F00BC106C0809162058823AE
:1059800091F082E011C0809168058F70873008F037
:10599000FEC08093E9008091EB0085FB882780F9A9
:1059A0001092E90001C080E09091E800977F909309
:1059B000E8008093F1001092F100CAC0282F2D7FDB
:1059C00009F0E5C0882319F0823061F0E0C08091D1
:1059D0006605813009F0DBC0933009F080E08093E8
:1059E00062052EC08091660581112AC080916805EC
:1059F0008F702FEF280F263008F0C9C08093E90080
:105A00002091EB0020FF1CC0933021F48091EB002B
:105A1000806214C09091EB0090619093EB0021E0C4
:105A200030E0A90102C0440F551F8A95E2F7409368
:105A3000EA001092EA008091EB0088608093EB000E
:105A40001092E9008091E800877F8093E800E7DD0D
:105A50009EC081119CC0109166051F778091E30064
:105A60008078812B8093E3008091E800877F80938A
:105A7000E800D5DD8091E80080FFFCCF8091E30055
:105A800080688093E300111102C082E001C083E0CE
:105A90008BBD7DC08058823008F079C0809166054A
:105AA000909167058C3D53E0950771F583E08A83FB
:105AB0008AE289834FB7F894DE01139620E03EE036
:105AC00051E2E32FF0E050935700E49120FF03C030
:105AD000E295EF703F5FEF708E2F90E0EA3010F0AC
:105AE000C79601C0C0968D939D932F5F243149F7CF
:105AF0004FBF8091E800877F8093E8006AE270E002
:105B0000CE01019611DC13C06091680570916905A2
:105B1000AE014F5F5F4F68D9BC01892BC1F19091F5
:105B2000E800977F9093E80089819A819CDC8091BE
:105B3000E8008B778093E8002AC0803841F5809197
:105B4000E800877F8093E800809161058093F100F1
:105B50008091E8008E7779CF811119C09091660508
:105B60009230A8F48091E800877F8093E8009093BA
:105B7000610555DD80916105811106C08091E300CA
:105B800087FD02C081E001C084E08BBD91D9809186
:105B9000E80083FF0AC08091E800877F8093E800D7
:105BA0008091EB0080628093EB00AA960FB6F89488
:105BB000DEBF0FBECDBFDF91CF911F910895CF9370
:105BC0008BB5882399F0C091E900CF709091EC00DB
:105BD000892F817090FD80E8C82B1092E900809198
:105BE000E80083FD9DDECF70C093E900CF9108955A
:105BF0006F927F928F929F92AF92BF92CF92DF92DD
:105C0000EF92FF920F931F93CF93DF9300D01F92D9
:105C1000CDB7DEB77C01CDB6DEB68091E80083FF5C
:105C200008C1F701808190E02091680530916905F5
:105C30002817390709F0FDC080916505833009F404
:105C40009FC030F4813071F0823009F4D6C0F1C0C9
:105C50008A3009F4BAC08B3009F4A3C0893009F046
:105C6000E8C051C080916405813A09F0E2C08DB668
:105C70009EB61A82198280916605109167058B8302
:105C8000F7018085482F50E08DB79EB7841B950B98
:105C90000FB6F8949EBF0FBE8DBFEDB7FEB731961D
:105CA0005F0160E070E0CF0127D24FEF410F8E011E
:105CB0000F5F1F4F9501BE016D5F7F4FC7017AD9FE
:105CC000F70186819781009721F0408550E0B5016A
:105CD0000AD21092E9008091E800877F8093E80063
:105CE0008B8181118093F10069817A81C5011CDB70
:105CF0008091E8008B778093E8000FB6F8949EBE01
:105D00000FBE8DBE96C080916405813209F091C0AE
:105D1000ADB6BEB600916A0510916B057090660530
:105D2000609067058DB79EB7801B910B0FB6F894F6
:105D30009EBF0FBE8DBFEDB7FEB731964F0180916C
:105D4000E800877F8093E800B801CF014EDB8091A7
:105D5000E8008E778093E80021E0711001C020E018
:105D600030E0021B130B280D391D4FEF460D672D38
:105D7000C701BDD90FB6F894BEBE0FBEADBE59C0A7
:105D800080916405813A09F054C08091E800877FD2
:105D90008093E8008091E80080FFFCCFF7018185C7
:105DA00040C080916405813209F043C08091E800D1
:105DB000877F8093E80033DC9091660581E0911144
:105DC00001C080E0F701818734C080916405813291
:105DD00081F58091E800877F8093E80020DC809146
:105DE000660590916705882736E0969587953A95E0
:105DF000E1F7F701958784871CC080916405813A9B
:105E0000C1F48091E800877F8093E8008091E800EA
:105E100080FFFCCFF70184859585969587959695AB
:105E200087958093F1008091E8008E778093E80059
:105E3000F6DB0FB6F894DEBE0FBECDBE0F900F900E
:105E40000F90DF91CF911F910F91FF90EF90DF9016
:105E5000CF90BF90AF909F908F907F906F9008955C
:105E6000FC01399627E0DF011D922A95E9F721E030
:105E7000FC01218724EF31E03587248723E0248348
:105E800061E0019684CB4F925F926F927F928F92E6
:105E90009F92AF92BF92CF92DF92EF92FF920F93B9
:105EA0001F93CF93DF9300D01F92CDB7DEB77C0155
:105EB000ADB6BEB68BB5843009F08DC08091E400DC
:105EC0009091E500F701228533852817390709F4F9
:105ED00082C081818F708093E9008091E80085FF06
:105EE0007AC08DB69EB6408550E08DB79EB7841BB4
:105EF000950B0FB6F8949EBF0FBE8DBFEDB7FEB7E2
:105F000031966F011B821A82198260E070E0CF0126
:105F1000F3D08E010F5F1F4F960140E0BE016D5F11
:105F20007F4FC70147D8482EF70184859585892B77
:105F300051F091E080E026853785232B09F090E031
:105F4000092F182F02C000E010E0F701668077806B
:105F50006114710489F049815A81B301C601B6D038
:105F600055245394892B09F4512CF701408550E0B6
:105F7000B601C301B8D001C0512C89819A81892B07
:105F8000F1F0411004C0511002C0012BC1F0F70123
:105F9000848595859787868781818F708093E900B6
:105FA0008B8181118093F10069817A8140E050E01A
:105FB000C60170D98091E8008E778093E8008091C7
:105FC000E4009091E500F701938782870FB6F8947B
:105FD0009EBE0FBE8DBE0FB6F894BEBE0FBEADBE48
:105FE0000F900F900F90DF91CF911F910F91FF9025
:105FF000EF90DF90CF90BF90AF909F908F907F9069
:106000006F905F904F9008950895FEDF0E94E922FF
:106010000E94C8160E940C260E94CD230E94A8212F
:106020000E94421C0E943F250E94C9140E946826BB
:10603000DAD80E94362496DB78948BB5843010F43D
:10604000F6D8FBCF0E94742680918901811102C08D
:10605000EED8FACF0E94902630DBF8942FEF87EA33
:1060600091E6215080409040E1F700C0000080910F
:106070008901823011F40E94EA220E94F122FFCFAE
:10608000991B79E004C0991F961708F0961B881F8A
:106090007A95C9F780950895AA1BBB1B51E107C0EB
:1060A000AA1FBB1FA617B70710F0A61BB70B881FA8
:1060B000991F5A95A9F780959095BC01CD01089537
:1060C000EE0FFF1F0590F491E02D0994FB01DC0118
:1060D00004C08D910190801921F441505040C8F7BF
:1060E000881B990B0895FB01DC0102C001900D9201
:1060F00041505040D8F70895DC0101C06D934150E4
:106100005040E0F70895F999FECF92BD81BDF89A0D
:10611000992780B50895A8E1B0E042E050E01CC0A6
:10612000DC01CB0102C02D9105D041505040D8F781
:106130000895262FF999FECF1FBA92BD81BD20BDCB
:106140000FB6F894FA9AF99A0FBE01960895F1DF06
:10615000272FF0CFDC01CB01FC01F999FECF06C05F
:10616000F2BDE1BDF89A319600B40D924150504015
:08617000B8F70895F894FFCF81
:1061780000830E00000100000E0000000000000077
:10618800008203000001000002000000000000007F
:10619800008403000001000003000000000000006C
:1061A8000081080000010000080000000000000055
:1061B8002400250023002700280026002A002B00A1
:0E61C80029002D002E002C00300031002F0089
:00000001FF
