:100000000C94B5140C9404150C9404150C9404155C
:100010000C9404150C9404150C9404150C940415FC
:100020000C9404150C9404150C946C300C94041569
:100030000C9435250C9404150C9404150C9404159B
:100040000C9404150C94612B0C9404150C94041559
:100050000C9404150C9404150C9404150C940415BC
:100060000C9404150C9404150C9404150C940415AC
:100070000C9404150C9404150C9404150C9404159C
:100080000C9404150C9404150C9404150C9404158C
:100090000C9404150C9404150C9404150C9404157C
:1000A0000C9404150C9404150C940415661CF31799
:1000B000F9171A182018DD19E319FF1805190C1A79
:1000C0002E1A481A621A771ACD1A0A1B201C451CD0
:1000D000271B431B621B871BA01BC51BE51BFE1BAD
:1000E00059317C3163327C316332C131E331633267
:1000F0003532473200000000000000000000000020
:10010000000000002A002B0028000000000028004A
:1001100000000000000000000000000000000000DF
:1001200000000000000000000000290000000000A6
:10013000000000002C001E023402200221022202D4
:10014000240234002602270225022E0236002D004A
:100150003700380027001E001F0020002100220069
:1001600023002400250026003302330036022E002F
:10017000370238021F0204020502060207020802C3
:1001800009020A020B020C020D020E020F021002FB
:1001900011021202130214021502160217021802AB
:1001A00019021A021B021C021D022F00310030002E
:1001B00023022D0235000400050006000700080098
:1001C00009000A000B000C000D000E000F001000CB
:1001D000110012001300140015001600170018007B
:1001E00019001A001B001C001D002F0231023002F2
:1001F00035024C000000000000000000000000007C
:1002000000000000000000000000000000000000EE
:1002100000000000000000000000000000000000DE
:1002200000000000000000000000000000000000CE
:1002300000000000000000000000000000000000BE
:101BD00000000000FF00FF00FF00FF00FF00FF000B
:101BE000FF00FF00FF00FF00FF00FF00FF00FF00FD
:101BF000FF00FF00FF00FF00FF00FF00FF000000EC
:101C000000000000000000000000000000000000D4
:101C100000000000000000000000000000000000C4
:101C20000000000000000000000000000000080CA0
:101C300000000000000000000000000000000000A4
:101C40000000000000000000000000000000000094
:101C50000000000000000000000000000000000084
:101C60000000000000000000000000000000000074
:101C70000000000000000000000000000000000064
:101C80000000000000000000000000000000000054
:101C90000000000000000000000000000000000044
:101CA0000000000000000000000000000000000034
:101CB0000000000000000000000000000000000024
:101CC0000000000000000000000000000000000014
:101CD00001010101140000000000000000000000EC
:101CE00000000000000000000000000000000000F4
:101CF00000000000000000000000000000000101E2
:101D000001011400000000000000000000000000BD
:101D100000000000000000000000000000000000C3
:101D200000000000000000000000000001010101AF
:101D3000140000000000000000000000000000008F
:101D40000000000000000000000000000000000093
:101D5000000000000000000000000101010114ABC0
:101D60002DD7279F2A03282E25AB2DDC27A416DA92
:101D7000172E254F7574206F662072616E67652E71
:101D80000A00456E746572206E6577206465666131
:101D9000756C742064696D6D6572206C6576656C18
:101DA0002028312D3136293E2000456E7465722081
:101DB0006E65772064656661756C74206261636B23
:101DC0006C6967687420656E61626C652028312DCE
:101DD0003136293E2000456E746572206E6577208D
:101DE0006D617472697820736574757020776169AC
:101DF0007420696E206379636C65732028312D32FD
:101E00003535293E2000456E746572206E65772059
:101E10007265706561742074696D6520696E206DEE
:101E2000732028312D3939293E2000456E746572A2
:101E3000206E657720686F6C642074696D65206919
:101E40006E206D732028312D393939293E20004507
:101E50006E746572206E6577206D6F757365206D89
:101E60006F76656D656E74206D756C7469706C69E4
:101E700065722028312D3939293E2000456E746560
:101E800072206E65772062617365206D6F75736572
:101E9000206D6F76656D656E742028312D39392976
:101EA0003E2000456E746572206E657720646F7504
:101EB000626C657461702064656C61792074696D11
:101EC0006520696E206D732028312D393939293EFE
:101ED0002000456E746572206E65772074617020F5
:101EE00074696D6520696E206D732028312D393934
:101EF00039293E2000456E746572206E6577206436
:101F000065626F756E63652074696D6520696E200A
:101F10006D732028312D3939293E20005365743ADC
:101F200000456E746572206E657720646566617524
:101F30006C74206C617965722028302D39293E201F
:101F40000042797465732028686578293E20004135
:101F50006464726573732028686578293E200020C8
:101F6000532D3078005D20432D3078000A5B0055FA
:101F700073696E672064656661756C7420226861A0
:101F80006972207472696767657222206465626F86
:101F9000756E636520616C676F726974686D20612E
:101FA0006E6420726573657474696E67206465621F
:101FB0006F756E63652074696D652E0A00557369CF
:101FC0006E6720616C7465726E6174652022636F48
:101FD0006E6669726D22206465626F756E6365203E
:101FE000616C676F726974686D20616E64207265E0
:101FF00073657474696E67206465626F756E63657E
:102000002074696D652E0A004E756D206C6F636BD0
:10201000206973206C696E6B656420746F2074682E
:10202000652073797374656D206E756D206C6F63B8
:102030006B2E0A004E756D206C6F636B2077696C98
:102040006C2066756E6374696F6E20696E6465706E
:10205000656E64656E746C79206F662074686520A7
:1020600073797374656D206E756D206C6F636B2E64
:102070000A004B6579626F6172643A204E4B524F91
:102080002C206D656469612F706F776572206B65B8
:1020900079733A205945532C206D6F7573653A203A
:1020A0005945532E0A004B6579626F6172643A207C
:1020B0004E4B524F2C206D656469612F706F7765B0
:1020C00072206B6579733A205945532C206D6F75DA
:1020D00073653A204E4F2E0A004B6579626F61722C
:1020E000643A20364B524F2C206D656469612F7025
:1020F0006F776572206B6579733A205945532C20B0
:102100006D6F7573653A205945532E0A004B6579FA
:10211000626F617264206973206C696D69746564B3
:1021200020746F207374616E6461726420364B5248
:102130004F20626F6F742D636F6D70617469626C94
:1021400065206B6579626F617264206F6E6C792EA9
:102150000A005363726F6C6C206C6F636B2077693D
:102160006C6C206E6F74206166666563742077699D
:102170006E206C6F636B2E0A0057696E646F777305
:10218000206B65792077696C6C20626520646973C7
:1021900061626C6564207768656E207363726F6C32
:1021A0006C206C6F636B20697320656E61626C6577
:1021B000642E0A004E756D206C6F636B2077696C1E
:1021C0006C206E6F7420616666656374206E756D39
:1021D00062657220726F772E0A004E756D626572AD
:1021E00020726F772077696C6C206265207377614D
:1021F0007070656420666F72206E756D706164200A
:102200006B657973207768656E206E756D206C6FD5
:10221000636B20697320656E61626C65642E0A00D1
:10222000496E707574206E6F74207265636F676E8F
:10223000697A65642E0A000A54696D696E67204DDB
:10224000656E753A0A312920536574206465626FA2
:10225000756E63652074696D650A32292053657453
:10226000206D617820686F6C642074696D652066EC
:102270006F72207461700A332920536574206D6178
:10228000782064656C61792074696D6520666F7271
:1022900020646F75626C65207461700A3429205364
:1022A00065742062617365206D6F757365206D6F55
:1022B00076656D656E740A352920536574206D6FDF
:1022C000757365206D6F76656D656E74206D756CC8
:1022D0007469706C6965720A362920536574206DC3
:1022E000696E20686F6C642074696D6520666F721A
:1022F000207265706561740A3729205365742072F5
:10230000657065617420706572696F640A38292090
:10231000536574206D61747269782073657475708B
:1023200020776169740A3929204261636B0A3E2073
:10233000000A436F6E666967204D656E753A0A3113
:102340002920546F67676C65207669727475616CBB
:10235000206E756D207061640A322920546F6767A2
:102360006C652077696E206C6F636B206F6E2073D5
:1023700063726F6C6C206C6F636B0A33292053653A
:10238000742064656661756C74206C617965720A8D
:10239000342920546F67676C65206B6579626F61C3
:1023A00072642066656174757265730A35292054FC
:1023B0006F67676C6520756E6C696E6B206E756DEE
:1023C000206C6F636B0A3629205365742064656640
:1023D00061756C742064696D6D6572206C657665DD
:1023E0006C0A3729205365742064656661756C74C6
:1023F000206261636B6C6967687420656E61626CF2
:10240000650A382920546F67676C65206465626FC0
:10241000756E6365207374796C650A392920426191
:10242000636B0A3E20000A4465627567204D656E45
:10243000753A0A3129205072696E74206576656E8E
:1024400074730A322920436C656172206576656E6B
:1024500074730A3329204578616D696E65206D6556
:102460006D6F72790A3429205072696E742F636C13
:1024700065617220636C6F636B2D696E730A392915
:10248000204261636B0A3E20000A4D61696E204D57
:10249000656E753A0A312920436F6E666967206D53
:1024A000656E750A32292054696D696E67206D6505
:1024B0006E750A3329204465627567206D656E75F7
:1024C0000A34292052657365740A392920517569C7
:1024D000740A3E20001E4D1F51204E215022002321
:1024E0004F244A2552264B2749374CB500B600B732
:1024F00000CD006F007000E200E500E900EA005244
:102500000153015401550183018A01920194012173
:1025100002230224022502260227022A02B101B266
:1025200002B304B408B510E001E102E204E308E4F8
:1025300010E520E640E7800105080A0C0F1014148E
:102540001818003847040001500401015404020126
:10255000450403014B04040153040501550406011D
:1025600048040701420408014D04090249040B0212
:1025700046040D014C040E0151040F0244041101E4
:102580004F041201410413016141624263436444F8
:10259000654566466747684869496A4A6B4B6C4CB3
:1025A0006D4D6E4E6F4F7050715172527353745423
:1025B000755576567757785879597A5A312132407D
:1025C000332334243525365E3726382A39283029F6
:1025D000000000000000000020202D5F3D2B5B7BF1
:1025E0005D7D5C7C237E3B3A2722607E2C3C2E3E28
:1025F0002F3F00000000000000000000000000006D
:1026000000000000000000000000000000000000CA
:1026100000000000000000000000000000000000BA
:1026200000000000000000002F2F2A2A2D2D2B2B48
:10263000000031003200330034003500360037002E
:102640003800390030002E005C7C000000000000E3
:10265000000000000000000000000000000000007A
:102660000000000000000000616263646566676846
:10267000696A6B6C6D6E6F70717273747576777852
:10268000797A4142434445464748494A4B4C4D4E6E
:102690004F505152535455565758595A303132337E
:1026A0003435363738392122232425262728292A6C
:1026B0002B2C2D2E2F3A3B3C3D3E3F405B5C5D5E1C
:1026C0005F607B7C7D7E004A03450061007300797A
:1026D0000041005600520020004D0075006C00744F
:1026E0000069006D00650064006900610020004B16
:1026F000006500790062006F0061007200640020D4
:1027000000760023002E00230023002E0023002348
:102710000000000403090409022200010100A032A4
:102720000904000001030101000921B00100012298
:102730003F0007058103080001090254000301005E
:10274000A0320904000001030101000921B00100C9
:1027500001223F0007058103120001090401000165
:10276000030000000921B0010001221B00070582BF
:10277000030200080904020001030000000921B05F
:10278000010001221D000705830301000809026DF5
:1027900000040100A0320904000001030101000946
:1027A00021B0010001223F00070581030800010953
:1027B00004010001030000000921B0010001221BF7
:1027C000000705820302000809040200010300005B
:1027D000000921B0010001221D000705830301004B
:1027E000080904030001030102000921B0010001EE
:1027F000223A000705840303000509026D00040165
:1028000000A0320904000001030101000921B00108
:102810000001223F000705810312000109040100A5
:1028200001030000000921B0010001221B0007057F
:1028300082030200080904020001030000000921CC
:10284000B0010001221D00070583030100080904EF
:10285000030001030102000921B0010001223A0036
:10286000070584030300051201000200000008EBC5
:1028700003FF2010000001000105010980A10105EE
:10288000011500250119812983750195038106959C
:102890000175058101C0050C0901A101050C160196
:1028A00000269C021A01002A9C02751095018100E5
:1028B000C005010902A1010901A1000509190129A9
:1028C00003150025019503750181029501750581A8
:1028D000010501093009311681FF267F003600000D
:1028E000460000950275088106C0C005010906A1D1
:1028F00001050719E029E7150025017501950881F3
:1029000002950175088101050819012905950575CC
:102910000191029501750391011500250105071923
:1029200000297F958075018102C005010906A1017A
:10293000050719E029E715002501750195088102B1
:10294000950175088101050819012905950575018D
:102950009102950175039101150025FF05071900E6
:1029600029FF950675088100C000E4E0F5E085ECDC
:102970009AE001C08193EF3FF907E0F3D9F3112406
:102980001FBECFEFDAE0DEBFCDBFC4B714BE0FB6B7
:10299000F894A895809160008861809360001092FF
:1029A00060000FBEC3FF11C0809102059091030526
:1029B0008D3A9E4D51F41092030510920205E2E407
:1029C000F5E225913491F901099585B7806885BFB5
:1029D00085B7806885BFC093010511E0A0E0B1E034
:1029E000E4EFFAE602C005900D92AE35B107D9F7D3
:1029F00024E0AEE5B1E001C01D92AD37B207E1F7CA
:102A00000E94E4340C9478350C94000010928301F9
:102A10001092820110927E0110927D0110928D0120
:102A200010928C01089520917F0180918A012223C8
:102A300009F43CC0811141C080918101811132C0F3
:102A400080919E0181112AC090917801921305C056
:102A500010927F011092780130C0E92FF0E0EE0F64
:102A6000FF1FE257FE4F80812181813031F4209396
:102A700081019F5F9093780120C090917901921716
:102A800019F02093790119C080939E01811190D78C
:102A9000809178018F5F809378010FC0BED710922C
:102AA0009E010BC081508093810107C0811105C038
:102AB000809180018D7F8093800180918A018111B6
:102AC00003C081E080938A010895809185029091EE
:102AD0007A01981731F180937A01882311F18832B5
:102AE00011F0883531F4809180018B7F80938001D3
:102AF0000895E0917C018A3251F4EE2391F0E15087
:102B0000E0937C01F0E0EC57FE4F10820895E63030
:102B100040F4AE2FB0E0AC57BE4F8C93EF5FE09324
:102B20007C0108951092790180918502811102C083
:102B3000109280010895BC0180917F01DB01982FE4
:102B4000292F281B983058F090937F01620F711D38
:102B500027FD7A9570938D0160938C0122C0FD0151
:102B600025913491211109C090937F0110928D011C
:102B700010928C019923D1F014C0492F50E0F90133
:102B8000FF27EE0FFF1FEC50FF4F25913491440FAC
:102B9000551FFA01E257FE4F318320839F5F119644
:102BA000CFCF8091800183608093800181E0089580
:102BB00040917F0128E030E0241B310926173707B8
:102BC00058F1B0E04B2F0B2E000C550B4617570752
:102BD000D8F4A0917F012A2F30E0FC01E40FF51F0B
:102BE000E081F0E0EE0FFF1FEC50FF4F4591549154
:102BF000220F331FF901E257FE4F51834083AF5F2D
:102C0000A0937F01BF5FDECF672B41F080918001F1
:102C100083608093800102C080E0089581E0089580
:102C200090917F01983090F4E92FF0E0EE0FFF1FB4
:102C3000E257FE4F808361839F5F90937F01809175
:102C4000800183608093800181E0089580E0089591
:102C50009C0190917F0191112EC0A901983049F4F7
:102C600090937F01205F3F4F309383012093820137
:102C70001BC0FA01659174914E5F5F4F611571053C
:102C800049F490937F01109283011092820199235D
:102C900081F00AC0E92FF0E0EE0FFF1FE257FE4F70
:102CA000718360839F5FDACF80918001836080931E
:102CB000800181E0089580E00895AC0180917F015A
:102CC00081113EC060938B01282F082E000C330B1E
:102CD0002617370758F590917F01220F331F983040
:102CE00038F0240F351F30937E0120937D011EC0E4
:102CF000FA01E20FF31F20813181E92FF0E0EE0F9E
:102D0000FF1FE257FE4F318320839F5F90937F0127
:102D100090918B01915090938B01911105C010926D
:102D20007E0110927D0102C08F5FCECF80917F0126
:102D3000882341F08091800183608093800102C0EC
:102D400080E0089581E0089590918001992329F110
:102D500091FD69CE209182013091830121153105C9
:102D600011F0C90175CF20917D0130917E012115AF
:102D7000310539F060918B01062E000C770BC901EB
:102D80009CCF20918C0130918D012115310511F0DE
:102D9000C901D1CE92FD99CEC5CE0895E4E8F1E007
:102DA00010821182128213821482158210927C0189
:102DB0008091850280937A01809180018560809363
:102DC00080010895E82FF0E0EE0FFF1FEC50FF4F59
:102DD00085919491089508959091D501903178F45A
:102DE000E92FF0E09F01220F331FE20FF31FE0569F
:102DF000FE4F8083728361839F5F9093D501089516
:102E000041111BC04091D50150E090E0292F092EBF
:102E1000000C330B2417350784F4F901EE0FFF1F64
:102E20002E0F3F1FF901E056FE4F2081281303C0EB
:102E30007283618308959F5FE9CFCECF8A3010F40B
:102E4000805D0895895C08951F93CF93DF93182FB9
:102E5000EB0182958F70F2DF8883812F8F70EEDF18
:102E60008983DF91CF911F9108951F93CF93DF93B3
:102E7000182FEB01892FE8DFBE016E5F7F4F812F96
:102E8000DF91CF911F91E0CF8F929F92AF92BF922F
:102E9000CF92DF92EF92FF920F931F93CF93DF9326
:102EA0001F92CDB7DEB79C018B0180E3FB018083CD
:102EB00080E28183828383E0E82EF12C94E6892EE0
:102EC000912C4AE0B42E682D70E0911003C02617B3
:102ED000370790F06801C90CD11C97FCDA94C9013E
:102EE0000E94F734A82E862F9983A8DFF6018083ED
:102EF0002A2D9981392F9394882D6B2D0E94EB34C4
:102F0000882EF1E0EF1AF108F1F60F90DF91CF91E2
:102F10001F910F91FF90EF90DF90CF90BF90AF90F7
:102F20009F908F90089597EA980F993010F48855E4
:102F3000089592EE980F993010F48D5108959CEFFA
:102F4000980F963010F48A5F089580E00895BF923C
:102F5000CF92DF92EF92FF920F931F93CF93DF9365
:102F60007C018B0180E090E0B12CC42FD0E02B2DB0
:102F70000B2C000C330B2017310790F48C9F600151
:102F80008D9FD00C9C9FD00C1124F701E20FF31FF2
:102F90008081C9DF9601280F311DC901B394E7CFA5
:102FA000DF91CF911F910F91FF90EF90DF90CF9025
:102FB000BF9008950F931F93CF93DF9300D000D05D
:102FC000CDB7DEB780918001811180C4E0919F016F
:102FD0008E2F90E08A31910508F076C4FC01EA5A00
:102FE000FF4F0C941E3589E894E2A5DDD7DE82E020
:102FF00011C011E010939F018091840194DF89300A
:1030000009F462C4843019F41093D6015FC481308E
:1030100021F483E080939F0159C4823011F487E04A
:10302000F9CF833021F405C2883009F4CAC080E2A8
:1030300092E220C081E393E27EDDB0DE84E0EACF5D
:1030400013E010939F01809184016DDF893011F4AA
:1030500081E0E0CF813099F49091540489278093E6
:10306000540482E00E94E02880915404882321F0D7
:103070008AED91E260DD2AC484EB91E2FBCF8230DD
:1030800099F49091500481E089278093500481E065
:103090000E94E02880915004882319F089E791E28A
:1030A000E9CF82E591E2E6CF8330B1F48CE19FE194
:1030B00042DDBE016F5F7F4F80914504C5DE8AE02F
:1030C0008B8363E070E0CE01019672DD81E29FE1C7
:1030D00032DD64DE8FE09ECF843051F58091530461
:1030E000811109C081E08093530485E00E94E028AB
:1030F00089ED90E2BFCF813049F482E080935304A0
:1031000085E00E94E02886EA90E2B4CF823041F464
:103110001093530485E00E94E0288DE091E2AACF4D
:103120001092530485E00E94E02882E790E2A2CF4B
:10313000853099F49091480481E089278093480470
:1031400087E00E94E02880914804882319F084E3F6
:1031500090E290CF88E090E28DCF8630B9F48CE198
:103160009FE1E9DC80914B04BE016F5F7F4F90E0EF
:103170008BDE8AE08B8363E070E0CE01019618DD80
:1031800082E89DE1D8DC0ADE80E144CF873009F097
:103190004BCF8CE19FE1CFDC8091420490E0BE01F7
:1031A0006F5F7F4F019670DE8AE08B8363E070E093
:1031B000CE010196FDDC8AEA9DE1BDDCEFDD81E117
:1031C00029CF9091410481E089278093410480E1D7
:1031D0000E94E02880914104882341F086E080939A
:1031E00055040E94E0288DEB9FE144CF8CE0809352
:1031F000550486E00E94E0288FE69FE13BCF87E3FD
:1032000092E299DCCBDD88E005CF87E080939F01D7
:103210008091840188DE893009F41ACF8130B9F4B5
:103220008CE19FE188DC80915504BE016F5F7F4F88
:1032300090E02ADE8AE08B8363E070E0CE010196A5
:10324000B7DC85EF9EE177DCA9DD82E1E3CE823059
:10325000C1F48CE19FE16FDCBE016F5F7F4F809115
:103260004D0490914E0410DE8AE08C8364E070E09F
:10327000CE0101969DDC82ED9EE15DDC8FDD83E178
:10328000C9CE8330D9F48CE19FE155DC80914904AB
:1032900090914A04BE016F5F7F4F9195819591098E
:1032A000F3DD8AE08C8364E070E0CE01019680DC7F
:1032B00083EA9EE140DC72DD84E1ACCE8430B9F477
:1032C0008CE19FE138DC80914604BE016F5F7F4F47
:1032D00090E0DADD8AE08B8363E070E0CE01019656
:1032E00067DC8CE79EE127DC59DD85E193CE8530F4
:1032F000B9F48CE19FE11FDC80914C04BE016F5F4B
:103300007F4F90E0C1DD8AE08B8363E070E0CE0107
:1033100001964EDC8FE49EE10EDC40DD86E17ACE44
:103320008630C1F48CE19FE106DCBE016F5F7F4F08
:103330008091510490915204A7DD8AE08C8364E06F
:1033400070E0CE01019634DC8BE29EE1F4DB26DDF9
:1033500087E160CE8730B9F48CE19FE1ECDB8091AE
:103360004404BE016F5F7F4F90E08EDD8AE08B8367
:1033700063E070E0CE0101961BDC86E09EE1DBDBC2
:103380000DDD88E147CE883009F0A0C28CE19FE1D5
:10339000D2DB80914F04BE016F5F7F4F90E074DD00
:1033A0008AE08C8364E070E0CE01019601DC86ED5A
:1033B0009DE1C1DBF3DC89E12DCE86E294E2BBDB4B
:1033C000EDDC86E027CE85E080939F01809184012B
:1033D000AADD893009F43CCE813011F489E01ACE9F
:1033E000823069F4E0EAF1E01082128211823396B1
:1033F00041E0E03DF407C1F71092D50167C2833088
:1034000031F48FE49FE197DBC9DC8CE003CE84309C
:1034100009F00DCE8EE0FECD8091D401803158F0C0
:103420001092D4018AE0898361E070E0CE010196B8
:10343000BFDB85E0EFCD8CE69FE17DDBBE016F5FFA
:103440007F4F8091D40100DD62E070E0CE010196F3
:10345000AFDB85E69FE16FDB8AE0DCCD8091D401B4
:1034600090E0FC01EE0FFF1F8E0F9F1FFC01E05646
:10347000FE4FBE016F5F7F4F8081E6DC62E070E04F
:10348000CE01019695DB8FE59FE155DB8BE0C2CD48
:103490008091D40190E0FC01EE0FFF1F8E0F9F1F63
:1034A000FC01E056FE4FBE016F5F7F4F818192812C
:1034B000DCDC64E070E0CE0101967ADB89E0809389
:1034C0009F01A2C060917C0170E040E184E891E03E
:1034D0003EDD9093D1018093D0011092D3011092E0
:1034E000D20181E49FE127DB59DC8DE093CD80910F
:1034F000D2019091D301892B89F40091D0011091D0
:10350000D10160917C0170E040E184E891E01FDD31
:10351000800F911F9093D3018093D20110E20AE0B3
:10352000E091D001F091D1018091D2019091D3012D
:10353000E817F907D8F4BE016F5F7F4F808184DC04
:103540008091D2019091D30101972091D0013091C7
:10355000D1012817390711F40B8301C01B8363E0E5
:1035600070E0CE01019624DB81110DC02091D001C5
:103570003091D1018091D2019091D3012817390760
:1035800008F057CFA3C18091D0019091D10101964D
:103590009093D1018093D001C3CF8091D4018A3020
:1035A00078F01092D4018AE0898361E070E0CE0166
:1035B0000196FEDA85E080939F010E94842B86C1EC
:1035C000082F0695182F117080FD02C08AE001C0F7
:1035D00080E2898361E070E0CE010196E9DA85E05E
:1035E000189FF0011124E00FF11DEE0FFF1FE45AA8
:1035F000FB4FBE016F5F7F4F8081918136DC64E0BD
:1036000070E0CE010196D4DA8091D4018F5F80936F
:10361000D4015CC160917C0170E04AE084E891E0F3
:1036200096DC8A30910578F48093450483E00E940B
:10363000E0288CE19FE17FDABE016F5F7F4F8091D0
:10364000450402DC1AC183E79DE175DAE2CC6091A2
:103650007C0170E04AE084E891E079DC9C01215033
:1036600031092336310558F48093550486E00E94D1
:10367000E0288CE19FE15FDA8091550479C083E70F
:103680009DE159DACCCC60917C0170E04AE084E89D
:1036900091E05DDC9C0121503109273E334078F7F1
:1036A00090934E0480934D0489E00E94E0288CE1C1
:1036B0009FE141DABE016F5F7F4F80914D04909191
:1036C0004E04B8C060917C0170E04AE084E891E06B
:1036D0003EDC9C0121503109273E334080F6919514
:1036E0008195910990934A04809349048AE00E944D
:1036F000E0288CE19FE11FDA8091490490914A040F
:10370000BE016F5F7F4F91958195910993C0609144
:103710007C0170E04AE084E891E019DC9C012150D2
:1037200031092336310508F0AACF809346048BE097
:103730000E94E0288CE19FE1FED98091460418C0E8
:1037400060917C0170E04AE084E891E000DC9C013B
:10375000215031092336310508F091CF80934C0474
:103760008CE00E94E0288CE19FE1E5D980914C0437
:10377000BE016F5F7F4F90E087DB8AE08B8363E061
:1037800070E0CE01019614DA4ACC60917C0170E0C1
:103790004AE084E891E0DBDB9C0121503109273EBF
:1037A000334008F06CCF90935204809351048DE025
:1037B0000E94E0288CE19FE1BED9BE016F5F7F4F80
:1037C000809151049091520435C060917C0170E069
:1037D0004AE084E891E0BBDB9C01215031092336AB
:1037E000310508F04CCF809344048EE00E94E0281D
:1037F0008CE19FE1A0D980914404BACF60917C0113
:1038000070E04AE084E891E0A2DB9C01215031099C
:103810002F3F310508F033CF80934F048FE00E9493
:10382000E0288CE19FE187D980914F04BE016F5F52
:103830007F4F90E029DB8AE08C8364E070E0A1CFC9
:1038400060917C0170E04AE084E891E080DB9C01BB
:10385000215031092031310508F0F5CE80934B0419
:1038600084E00E94E0288CE19FE165D980914B04BF
:10387000BE016F5F7F4F90E007DB8AE08B8363E0E0
:1038800070E0CE01019694D9C4CB60917C0170E0C8
:103890004AE084E891E05BDB9C0121503109203152
:1038A000310508F0D0CE81508093420488E00E9418
:1038B000E0288CE19FE13FD98091420490E0BE0175
:1038C0006F5F7F4F0196D8CF10929F010F900F909E
:1038D0000F900F90DF91CF911F910F91089526E0E7
:1038E000829FC0011124FC01E05CFE4F0190F08139
:1038F000E02D208181E090E001C0880F6A95EAF711
:10390000822B8083089526E0829FC0011124FC0150
:10391000E05CFE4F0190F081E02D8081609568238E
:10392000462B4083089526E0829FC0011124FC01AC
:10393000E05CFE4F0280F381E02D208181E090E089
:1039400001C0880F6A95EAF7822B8083089526E0EC
:10395000829FC0011124FC01E05CFE4F0280F381D4
:10396000E02D208181E090E001C0880F6A95EAF7A0
:10397000809582238083089526E0829FC0011124D0
:10398000FC01E05CFE4F0280F381E02D8081682322
:10399000462B4083089526E0829FC0011124FC013C
:1039A000E05CFE4F0480F581E02D80818623089540
:1039B000E82FE695E695E695F0E0E858FD4F982F5C
:1039C000977021E030E001C0220F9A95EAF79081CC
:1039D000292B20839091720220E029175CF4E22FBA
:1039E000022E000CFF0BEB57FD4F30813817A1F072
:1039F0002F5FF3CF96305CF4E92F092E000CFF0BFC
:103A0000EB57FD4F80839F5F909372020895109251
:103A10008B0281E080937E030895E82FE695E6957A
:103A2000E695F0E0E858FD4F982F977021E030E0E0
:103A300001C0220F9A95EAF72095908129232083CF
:103A40009091720245E852E0FA012E2F241B2917AB
:103A500024F431913813F9CF01C00895E22F022EDA
:103A6000000CFF0BEB57FD4F818180832F5F2917DF
:103A7000ACF391509093720210927E030895E82F58
:103A8000E695E695E695F0E0E858FD4F982F97709B
:103A900021E030E001C0220F9A95EAF790812927B2
:103AA00020839091720245E852E0FA012E2F241BE8
:103AB000291724F431913813F9CF13C096305CF4F0
:103AC000E92F092E000CFF0BEB57FD4F80839F5F02
:103AD00090937202089510928B0281E080937E038E
:103AE0000895E22F022E000CFF0BEB57FD4F818152
:103AF00080832F5F2917ACF391509093720210923C
:103B00007E03089590912D0394305CF4E92F092EE3
:103B1000000CFF0BED58FD4F80839F5F90932D03AA
:103B2000089540E060E070E082E46AD91092770284
:103B3000089520912D0343E752E0FA019E2F941B34
:103B400092179CF431913813F9CF921751F0E92F65
:103B5000092E000CFF0BED58FD4F818180839F5F84
:103B6000F4CF915090932D030895682F70E040E0BA
:103B700083E446C9809145048093810308959FE0C2
:103B8000899F600D112480916D0268130DC0809192
:103B9000490490914A048417950734F48091800376
:103BA0008F5F80938003089510926D0210928003BE
:103BB0000895E0914D04F0914E044E175F0754F4C0
:103BC00091E0F9019083FFE08F9F600D11246093D5
:103BD0006D020895F901108210926D021092800317
:103BE000089590918B01E92FEE0FFF0BE357FD4FE6
:103BF00020916F0230E0322F2227282B318320833F
:103C000081E0890F80938B01803534F010927D0321
:103C100080937B0180E198C5089590918303911171
:103C200010C0805D803168F4E82FF0E0EE0FFF1FD8
:103C3000ED53F54F85919491880F991F8D53954FB2
:103C400007C80895CF93DF93C82FD62F80918103A3
:103C5000882311F08B5F78D580E18C0F80938103EE
:103C600051DF80918103882311F08B5F4DD59091B6
:103C7000810380914504981711F08FE045D580911C
:103C8000810390916E02D0FF02C0981308C0981370
:103C900008C080918003811104C080914504809305
:103CA0006E02DF91CF910895E82FF0E0EC50FE4FC7
:103CB0008491882311F060E0C5CF08950F931F937E
:103CC000CF93DF9300D01F92CDB7DEB7082F10E15E
:103CD000180F80918103882341F08B5F2B834A83E7
:103CE000698332D569814A812B81222361F18091D8
:103CF0008103811328C080918003882319F061FD1E
:103D000010936E028091710280131DC062FF1BC070
:103D1000141624F460916F02842F13C0842F807EC8
:103D2000803E89F4E42FF0E0EE0FFF1FE859FC4DD0
:103D30008491809590916F02892380936F026491A2
:103D400080E00E941016812FF4DEE0912D03E11136
:103D500003C080916E0206C00E2E000CFF0BEE58C1
:103D6000FD4F80818093810380918103882311F02E
:103D70008B5FCAD49091810380914504981309C048
:103D80008FE00F900F900F90DF91CF911F910F91C7
:103D9000DBC40F900F900F90DF91CF911F910F9187
:103DA0000895E82FF0E0EC50FE4F8491882321F035
:103DB00020E040E060E082CF08956F70623051F003
:103DC00028F4662339F0613081F00895643011F0F1
:103DD0006830F1F4E82FF0E0EE0FFF1FE859FC4DDA
:103DE000E49180916F02E82B0AC0E82FF0E0EE0F1B
:103DF000FF1FE859FC4DE49180916F02E827E093A2
:103E00006F0280917F03882319F0E777E0936F02B8
:103E100008956F70623009F43FC018F4662381F191
:103E20000895643019F0683059F10895E82FF0E0F2
:103E3000EE0FFF1FE859FC4DE491E09560916F0291
:103E40006E2360936F02222309F444C090917102A3
:103E5000981340C0842F14168CF0807E803E09F0A9
:103E600039C0E42FF0E0EE0FFF1FE859FC4D8491BC
:103E70008095682360936F02649180E00C94101623
:103E8000E82FF0E0EE0FFF1FE859FC4DE491E095BC
:103E900080916F02E8231CC0E82FF0E090916F0240
:103EA000EE0FFF1FE859FC4D222379F0809180032B
:103EB000882359F08491E82FE92BE0936F028091D9
:103EC0007F03882339F0E77703C0E491E095E92385
:103ED000E0936F0208956F70623051F028F466230A
:103EE00039F0613031F00895643011F0683011F428
:103EF0005FCDC5CD08956F70623049F018F461113F
:103F00000DC00BC0643049F0683041F406C0222374
:103F100021F090918003911101C07FCD08951F93EE
:103F2000CF93DF931F92CDB7DEB7182F862F807FF8
:103F300011F080937901123C09F487C0A0F5163B7B
:103F4000D0F4113B08F0D0C0133809F46CC050F421
:103F5000143008F41BC1143708F452C0123809F4A5
:103F60005AC014C1143809F468C0E9E6E10FE93118
:103F700008F4A7C00BC1193B09F4CEC048F4173BA5
:103F800009F4C0C008F0C4C080917C038F5FBDC03D
:103F90001D3B08F4FBC0103C08F47DC0113C09F047
:103FA000F5C0B5D4F9C01D3C09F4DFC090F4183C4D
:103FB00009F45DC028F4133C09F049C074D4ECC086
:103FC0001A3C09F4E9C008F459C01C3C09F4B9C012
:103FD000DDC0103E50F4103D08F0B0C01E3C09F4A6
:103FE00064C01F3C09F465C0D1C0183E08F4CBC0C2
:103FF00080E1810F8A3008F0C9C0812F23DECCC058
:1040000080917D03882321F0812F6983EADD698116
:10401000812F61DFC1C08091700281FDBDC06091C0
:104020006F0289E307C08091700280FDB5C0609186
:104030006F0283E50E941016AFC08091700282FD6E
:10404000ABC060916F0287E4F5CF3BD4A5C08091EF
:104050007D038111A1C081E080937D0310928B01CB
:10406000809383038CE3810F8093580474C09091F4
:10407000830381E08927809383038EC090917F031F
:1040800081E0892780937F03811102C085E06BC0A6
:1040900085E03AD381C081E093E4910F01C0880F9D
:1040A0009A95EAF78093820377C082E08093D601E5
:1040B00073C080919F0181116FC081E080939F0147
:1040C0006BC080912E0390912F03892B09F064C05F
:1040D000F0E0EE0FFF1FE551FB4D85919491909319
:1040E0002F0380932E0358C0EFE4E10FF0E0EE0FB2
:1040F000FF1FE25EFA4DE49180917B03E82BE09391
:104100007B034AC080917C03815080937C0309C06B
:1041100080918C02815003C080918C028F5F8093CC
:104120008C029091400480918003992321F090911A
:104130003E04981788F580933E042EC0812F6DDDD4
:104140002BC090917D0381E0892780937D03882394
:1041500021F010928B0180E19CCF80918B01811125
:1041600080937B0180E1F0D217C080917D038111A3
:1041700013C060917B01062E000C770B8DE892E056
:104180000E945D1609C0812F18DE06C0612F70E005
:1041900040E084E40E940017109371020F90DF91B9
:1041A000CF911F9108951F93CF93DF9300D01F925B
:1041B000CDB7DEB7962F907F11F010927901883B32
:1041C00009F4C1C0182F893B70F5803BA0F48739F2
:1041D00008F099C0823809F474C030F48CEF810F74
:1041E000803708F447C0CDC0833809F472C08438E2
:1041F00009F47EC0C6C0863B09F49BC008F09DC090
:10420000813B08F4BEC06FE4680FE62FF0E0EE0FCC
:10421000FF1FE25EFA4DE491E09580917B03E82375
:10422000E0937B03BAC0803EA8F48C3C08F0B5C094
:10423000803C50F48D3B08F063C0893B09F0A1C07D
:1042400080918C02815082C08FE3810F8A3008F404
:10425000A4C097C0883E08F47CC080E1810F8A30FA
:1042600008F08FC0812F0F900F900F90DF91CF91AA
:104270001F9124CD80917D038823D9F08091830301
:104280008823B9F0183211F01B3299F4109283038D
:1042900010927D0380918B01815080937B0110925D
:1042A000590480E12B834A8369834ED269814A8114
:1042B0002B81812F0F900F900F90DF91CF911F9145
:1042C0001ACE8091700281FF68C060916F0289E30D
:1042D00007C08091700280FF60C060916F0283E52B
:1042E0000F900F900F90DF91CF911F910C941016AB
:1042F0008091700282FF51C060916F0287E4F0CF1D
:10430000109282034AC069E6680FE62FF0E0EE0FD4
:10431000FF1FE551FB4D8591949120912E03309123
:104320002F0328173907C9F510922F0310922E0377
:1043300034C080917C03815003C080917C038F5FE7
:1043400080937C032AC080918C028F5F80938C02C3
:1043500024C080917D03882361F0809171028113D4
:1043600008C080E02B834A8369833BDC69814A81F2
:104370002B81812F0F900F900F90DF91CF911F9184
:1043800048CD612F70E040E085E40F900F900F90D2
:10439000DF91CF911F910C9400170F900F900F9009
:1043A000DF91CF911F91089520916F02227291E0C9
:1043B00009F090E020915404222359F0992349F008
:1043C0002091700220FF05C022EE280F2A3008F449
:1043D000855C20914804222321F1833571F490916A
:1043E000700281E089278093700280FF03C080E023
:1043F0008BD11FC080E0A8D11CC027EA280F2B302A
:1044000080F420917002E82FF0E0EE0FFF1F20FFF4
:1044100005C0992319F0ED5DFB4D02C0EC5DFB4D2D
:1044200084918A3C39F4911102C085E3089589E2B0
:10443000089580E00895AF92BF92CF92DF92EF92FD
:10444000FF920F931F93CF93DF9300D01F92CDB7AE
:10445000DEB7D82E062F10E0809181039BE4C92E91
:104460009FE0D99E70011124F701C89EE00DF11D57
:104470001124E00FF11FEB52F84F84914A835B83C4
:10448000698392DFB82E809181039701C89E200D29
:10449000311D1124200F311FF901E951FB4FC49048
:1044A000F901E750FE4FA4900E0D1F1DF801EE5DBF
:1044B000FD4FB082F801E05DFC4FC082F801E95287
:1044C000FE4FA0824A815B8169818D2D58DB4A2D88
:1044D0006C2D8B2D24DD25D20F900F900F90DF9146
:1044E000CF911F910F91FF90EF90DF90CF90BF90F1
:1044F000AF900C94D22D9F92AF92BF92CF92DF9249
:10450000EF92FF920F931F93CF93DF931F92CDB73C
:10451000DEB79FE0899F90011124260F311DF9011C
:10452000EE5DFD4F6F01B080F901E05DFC4F7F0152
:10453000A080890109521E4FF80190809E012F5FD3
:104540003F4F37DB2981492D6A2D8B2D2CDEF6015B
:104550001082F7011082F80110820F90DF91CF9145
:104560001F910F91FF90EF90DF90CF90BF90AF9091
:104570009F9008952FE0829FC00111249C01260F77
:10458000311DF901EE5DFD4F8081F901E05DFC4FC9
:10459000908193FF1AC018161CF460916F0213C02B
:1045A000982F907E903E89F4E82FF0E0EE0FFF1FE9
:1045B000E859FC4D8491809590916F0289238093F6
:1045C0006F02649180E00C9410160895209183038B
:1045D000211112C0FC01A5E8B2E0069621E030915D
:1045E0007E03332311F0208302C03C913083319647
:1045F0001196E817F90799F708952091830321117F
:1046000009C0DC01E8E7F2E08DE08E0F91919D9307
:104610008E13FCCF0895FC0180918303811106C0A5
:104620008091790190916F02982B908308952FE0EB
:10463000829FC0011124FC01E60FF11DEB52F84FDF
:10464000E491E83211F0E83539F441E060E070E0DF
:1046500081E50E94001714C5089590E09C01220F87
:10466000331F820F931FFC01E050F44E2491FC0194
:1046700031968250944EE250F44E621721F06491CC
:10468000FC01849150C96491FC01849160C90F932D
:104690001F93CF93DF93EFE2FCE1D4910EEF1BE188
:1046A000C0E0CD1769F0F80131966491F80184916A
:1046B00016D960E08C2FD1DFCF5F0D5F1F4FF1CF98
:1046C00080914B04809393038093900380914204E4
:1046D00080938E03DF91CF911F910F910895809168
:1046E0008C03893F69F4809198038F3E19F41092EE
:1046F000980303C08F5F8093980310928C030895F2
:104700008F5F80938C03089590E0880F991FFC01C0
:10471000EC52F44EA491FC01EB52F44E8491EEE283
:10472000FCE1E491AE1778F4B0E0AC57BC4F8111D6
:1047300003C08C91816006C09C919170E82FEE0FB0
:10474000892F8E0F8C93089590E0880F991FFC019C
:10475000EC52F44EA491FC01EB52F44E8491EEE243
:10476000FCE1E491AE1780F4B0E0AC57BC4F81118E
:1047700004C08C918E7F8C9308959C91292F26954F
:10478000281302C091709C930895823049F08330C1
:1047900079F08130A1F481E1B7DF82E1D5DF0CC08F
:1047A00081E1D2DF82E1D0DF83E1AEDF84E1CCCFF3
:1047B00081E1CADF82E1A8DF83E1C6DFF7CF81E1D3
:1047C000C3DF82E1C1DF83E1BFDF84E19DCF0F93CF
:1047D0001F93CF93EEE2FCE1E491C0E00E2F10E0D6
:1047E0008C2F0C2E000C990B8017910714F520913B
:1047F0008F032223C9F0FC01EC57FC4F20812230AB
:1048000018F421110FC010C0E22FE695F0E0E95C2A
:10481000FA4D6491809198030E94EB34921720F432
:1048200090FF02C061E001C060E08C2F16DFCF5F17
:10483000D7CFCF911F910F9108958091930380312D
:1048400010F081E002C08C5F8C7F80939303089509
:10485000809194038F5F813118F4809394030895BD
:1048600081E080939403109292031092970308952D
:1048700090919303903120F081E080938F0308950D
:104880008091920320919403929F902D1124891777
:1048900038F491E090938F03805F809392030895A2
:1048A00010928F030895E3EDFBE1E49180918E0374
:1048B0008F5F8E1718F480938E03089510928E03E5
:1048C0000895809195038F5F843018F48093950349
:1048D00002C01092950380919503811103C08091CD
:1048E000930303C0813021F484E080939003089502
:1048F000823031F484E08093900310929103089504
:1049000080E18093900381E080939103089595DF87
:1049100080919503811104C080919303809390034B
:10492000089580919503823011F488E10BC08330A3
:1049300071F480919003853010F0845003C0882377
:1049400021F0815080939003089510929003089570
:10495000809196038F5F803318F4809396030895B7
:1049600010929603909195039130B1F420919103A8
:1049700080919003222341F08F5F809390038831D0
:10498000E0F0109291030895815080939003853058
:10499000A0F4909391030895923031F480919003A4
:1049A000853058F0815007C0933039F480919003DE
:1049B000803118F48F5F8093900308958091900365
:1049C000803120F081E080938D03089590919403CD
:1049D000899F802D1124909191039111807F909156
:1049E0009703981738F481E080938D03905F90933C
:1049F0009703089510928D0308951F93CF93DF932B
:104A0000EFE2FCE1E49110E0CE2FD0E0212F012E67
:104A1000000C330B2C173D07ECF4F901ED53F44E69
:104A2000E491EE23A9F080918D03882371F08091A9
:104A30008E03F90190E1899FE00DF11D1124ED53E2
:104A4000F54EE49161E0E11101C060E0812F05DEE7
:104A50001F5FDCCFDF91CF911F910895F9DE08DF52
:104A60003EDEB5DE75DFAADFC8CF1F920F920FB60C
:104A70000F9211242F938F939F93AF93BF93EF9334
:104A8000FF93EDB7FEB781E090E09093000580932F
:104A9000FF04F093FE04E093FD043196ADE7B4E02B
:104AA00080E090E0E1152BE0F20720F0FC01E358F4
:104AB000FB4F07C021912D9301968038910591F706
:104AC000F5CF84E0ED3FF80711F01192FACFFF9196
:104AD000EF91BF91AF919F918F912F910F900FBE4A
:104AE0000F901F901895E4E6F0E08081807180833C
:104AF000A5E6B0E08C9186778C938081816080837D
:104B000080818460808380818062808380818064F2
:104B100080838C9188608C93808180688083808181
:104B2000826080838C9181608C938C918F778C9341
:104B300090E080E80FB6F894809361009093610054
:104B40000FBE08956091010570E040E081E00E9491
:104B500000176091FF04709100056115710541F027
:104B600041E082E00E940017109200051092FF04BD
:104B7000BACF8DEA9EED90930305809302050895C8
:104B800080E189BD82E189BD09B400FEFDCF80913D
:104B9000D8008F7D8093D8008091E0008260809360
:104BA000E0008091E00081FDFCCF0895CF93DF937A
:104BB000962F642F2FE0929FE0011124C40FD11D86
:104BC000CC0FDD1FCC55DC4F48815981882301F182
:104BD00057FF0EC02091550430E0319521953109E1
:104BE000241735077CF1892F26DC82E090E020C075
:104BF00020915104309152044217530794F0892FA9
:104C0000B9DC2091440488819981821B910910C0EC
:104C10001416150684F42091550430E0421753070A
:104C20001CF44E5F5F4F10C0892F65DC8EEF9FEF45
:104C3000998388830BC08091490490914A0484171A
:104C4000950724F44250510959834883DF91CF914D
:104C500008950F931F93CF93DF93082F862F642F10
:104C60009FE0899FE0011124C40FD11DCC0FDD1FEF
:104C7000CC55DC4F5981011110C057FD27C08881E8
:104C8000952F93702091490430914A04821793071D
:104C900008F402969983888339C057FF17C00881AA
:104CA000152F1370209151043091520402171307ED
:104CB00030F060DC80914404081B110902C00E5FD3
:104CC0001F4F198308838981806817C0152F169597
:104CD00016951F711E5F90915504191780F0488139
:104CE0005370002311F0A7DB01C005DC212F30E059
:104CF00039832883898100FB87F9898307C01F7165
:104D0000110F110F5378252F212B2983DF91CF917C
:104D10001F910F910895CF92DF92EF92FF921F9310
:104D2000CF93DF93E6EAFCE1E491E0939903E5EAAF
:104D3000FCE1E491E0939F03E4EAFCE1E491E09379
:104D4000A203E3EAFCE1E491E093A30389E9E82EFE
:104D50008CE1F82E9AE9C92E93E0D92ED0E0F70124
:104D6000149180919F0381111FEFF7013196C49137
:104D70004C2F612F8D2F0E94831C2C2F2095F60124
:104D800021936F01422F412380919F03642F6095EF
:104D9000811101C040E08D2F0E94BC1CDF5FF2E05A
:104DA000EF0EF11CD530D9F680914104882371F0C3
:104DB00089E296E29093A1038093A0038091550429
:104DC000813250F080E28093550406C086ED95E272
:104DD0009093A1038093A003DF91CF911F91FF9047
:104DE000EF90DF90CF900895CF92DF92EF92FF92F5
:104DF0000F931F93CF93C0E08091A20390E02C2FDC
:104E00000C2E000C330B281739070CF054C08AE91C
:104E1000E82E83E0F82EF5E0CF026001112400E0D7
:104E200010E0F801EC0DFD1DE25BF34E4491F7013B
:104E300061917F01802F0E94BC1C0F5F1F4F0530C6
:104E4000110579F780914F048A95F1F710E0212F31
:104E5000012E000C330B8091A30390E02817390733
:104E600044F580919F03220F331FF901EF5CF34E4D
:104E7000882351F06491F901E05DF34E84910E9422
:104E8000CB1C882351F013C06491F901E05DF34E0F
:104E900084910E94CB1C882351F080919903882330
:104EA00019F06C2F812F02C0612F8C2FC0DB1F5F88
:104EB000CECFCF5FA1CFCF911F910F91FF90EF90F9
:104EC000DF90CF900895CF92DF92EF92FF920F93F1
:104ED0001F93CF93DF93D62FC82FCD170CF05EC052
:104EE0008AE9E82E83E0F82EF5E0CF026001112474
:104EF00000E010E0F70161917F016F3F49F0F80198
:104F0000EC0DFD1DE25BF34E4491802F0E94BC1C12
:104F10000F5F1F4F0530110569F780914F048A9587
:104F2000F1F710E0212F012E000C330B8091A30329
:104F300090E02817390784F580919F03220F331FD3
:104F4000F901EF5CF34E882359F06491F901E05DBB
:104F5000F34E84910E94CB1C91E0882361F00AC03B
:104F60006491F901E05DF34E84910E94CB1C91E0C5
:104F7000811101C090E080919903E091A003F0912C
:104F8000A103882319F04C2F612F02C0412F6C2FF1
:104F9000892F09951F5FC6CFCF5F9FCFDF91CF913C
:104FA0001F910F91FF90EF90DF90CF900895609147
:104FB000A203669580E087CF8091A203682F869533
:104FC00082CF81E080933D04089520913D04AC019F
:104FD000249FC001259F900D11246AE070E00E947B
:104FE000F73480913C04562F581B852F60933C0466
:104FF0002F5F20933D042B3028F010923C0491E069
:1050000090933D04089580917C03811104C08091A8
:105010008C02882311F181E08093400420914604A2
:1050200080913E0490914C0430913F04311120C096
:10503000899FC0011124820F911DC7DF90917C03CD
:10504000899F902D112490933B0490918C02899F0D
:10505000802D112480933A040BC0109240041092CA
:105060003C0410923B0410923A048AE080933D0481
:1050700080913F04811103C081E080933F04089533
:10508000CF93DF93CDB7DEB764970FB6F894DEBF4A
:105090000FBECDBF80E2809347041092500410925F
:1050A00054041092450440E140934B041092530481
:1050B0003CE030935504109248041092420460EF93
:1050C00070E070934E0460934D0468E87FEF709336
:1050D0004A046093490495E0909346042FE020939E
:1050E0004C0460E273E07093520460935104809327
:1050F000440490934F041092410489831A821B82C6
:105100001C824D831E823F831886198630EF3A87B2
:105110001B8638E83C873FEF3D879E872F87888B2B
:1051200023E0298B8A8B9B8B1C8A44E150E060E052
:1051300070E0CE0101960E944E3564960FB6F89449
:10514000DEBF0FBECDBFDF91CF9108950F931F93A8
:10515000CF93DF93C4E4D5E2FE0132968491319679
:10516000E49190E0E23059F4FE01059114918050F1
:1051700090400E944935F8019183808309C0FE0167
:1051800005911491805090400E944135F801808330
:105190002496F5E2C838DF07F9F6609147046032DB
:1051A00031F070E041E080E50E94001769DF8091F6
:1051B000530480934304DF91CF911F910F91089581
:1051C00024E0829FC0011124FC01EA5BFA4D249186
:1051D000FC01E95BFA4D3491FC01EC5BFA4D822F46
:1051E00090E0323041F4A591B4916D917C91805062
:1051F00090400C946535A591B4916C91805090408D
:105200000C94573585E08093590408958091580493
:105210002EE28202C0011124FC01E053F34E4491BE
:10522000FC01EF52F34E3491FC01EE52F34E249107
:10523000FC01ED52F34E949150918B0180915604F4
:10524000513079F01CF4552331F01FC0523081F0F9
:105250005330A9F01AC0442321F06AE10E94EB34D4
:105260002EC0332329F06AE10E94EB34965E27C0FA
:10527000222329F06AE00E94EB349C5C20C0992331
:1052800021F0982F9F71925C1AC0442311F06AE1BB
:1052900001C060E03111665E2111665F9111605EB0
:1052A0000E94EB34411101C0965E311103C09A3166
:1052B00034F0965E211103C094330CF0965FE92F11
:1052C000990FFF0BE859F94D84910895845092721B
:1052D000E82FF0E0EE0FFF1F911103C0E857FA4DE1
:1052E00002C0E757FA4D849108950F931F93CF930F
:1052F000DF93E091580420918B01022E000C330BB8
:10530000CE2F0E2E000CDD0B8EE2E802F0011124F0
:10531000E153F34E649170E0C9010E940B35082FF0
:105320001091560460917B01062E000C770BC90189
:105330000E940B35FC01FF27EE0FFF1FE357FD4FC7
:1053400080819181C3DF810F982F990F87FD9F5F27
:10535000909356048EE28C9FF0018D9FF00D1124E6
:10536000E00FF11DE955F34EE49180915604E827D2
:10537000E0935604DF91CF911F910F910895EF9222
:10538000FF920F931F93CF93DF931F92CDB7DEB79A
:10539000809158042EE28202C0011124FC01EC52DB
:1053A000F34E6491062F10E020E530E0201B310B16
:1053B000220F331FA90143575D4F7A0120915904F1
:1053C000223009F444C028F4222351F02130C9F0DE
:1053D000AEC0233009F45BC0243009F47FC0A7C0FD
:1053E0001092560421E02093590410928B01FC0185
:1053F000E153F34EE491E1119AC085E080935904A2
:1054000096C020918B01FC01E20FF11D27FDFA955A
:10541000E955F34EE491409156044E0F40935604E3
:105420002F5F20938B01FC01E153F34E8491022EF8
:10543000000C330B90E0281739070CF478C082E099
:105440008093590410928B014093570470C01091BF
:105450005704E0918B01EE0FFF0BE357FD4F808166
:105460009181698333DF810F8093570490918B0181
:105470009F5F90938B0120917B01698192170CF4BF
:1054800056C00E94EB349093570483E022C02DDF76
:1054900080915704E80EF11CE80EF11CB7DE0E9463
:1054A000E216F701918380838091570490E0019682
:1054B000B8010E940B358093570480918B018F5F58
:1054C00080938B01082E000C990B801791077CF1BB
:1054D00084E08093590410928B0129C080918B0144
:1054E000282F220F330BFA01E20FF31F4081518165
:1054F000F901E357FD4F518340838F5F80938B0108
:10550000082E000C990B801791078CF085E0809392
:10551000590460937B01B8018DE892E00F90DF9110
:10552000CF911F910F91FF90EF900C945D160F900B
:10553000DF91CF911F910F91FF90EF90089580918F
:105540005904853009F01BCF089513BC10928000D8
:105550001092820080E89EE39093890080938800F7
:10556000089510925A047894109285001092840045
:1055700081E08093810082E080936F009AE088E16F
:105580000FB6F894A895809360000FBE90936000CA
:10559000E0E6F0E08081806C808308950FB6F89497
:1055A000A8958091600088618093600010926000EF
:1055B0000FBEE0E6F0E080818F7B808310926F0069
:1055C0001092810008952091840030918500E0912F
:1055D0005A049091700485E08E9FF0011124E90F28
:1055E000F11DEE0FFF1FE45AFB4F4081518142171E
:1055F000530778F4E0915A04909170048E9FF00163
:105600001124E90FF11DEE0FFF1FE45AFB4F318308
:10561000208308951F93CF93DF93C0E0D0E015E07F
:1056200080915A04FE01189FE00DF11D1124EE0F28
:10563000FF1FE15AF24E85919491009729F0C09393
:105640007004FC010995BFDF2196C530D10541F7F3
:10565000DF91CF911F9108951092850010928400E0
:1056600080915B04882381F080915A0460917004DA
:1056700070E0782B40E081E10E94001780915B048C
:105680008F5F80935B04089581E080935B0478943E
:10569000C1DF80915A048F5F80935A04823010F0EA
:1056A00010925A0480915B04823038F060915B0460
:1056B00070E040E084E10E940017A89510925B041E
:1056C00008951F920F920FB60F9211242F933F93BC
:1056D0004F935F936F937F938F939F93AF93BF93FA
:1056E000EF93FF93B9DFFF91EF91BF91AF919F913E
:1056F0008F917F916F915F914F913F912F910F907B
:105700000FBE0F901F901895ECE5F4E01182108207
:1057100013821282158214821782168211861086D5
:10572000138612861586148617861686118A108AA5
:10573000138A128A0895292F33272330310529F13E
:105740003CF42130310561F02230310571F07FC029
:105750002132310549F12232310509F445C077C0C3
:1057600082E190E027E638E27BC0809143048330F9
:1057700009F459C0813009F45BC0823009F45DC07E
:105780008DE690E02AEF37E26BC09927009731F061
:10579000019709F05CC0E7ECF6E202C0E3E1F7E252
:1057A000849190E09F015CC06130A1F050F06230C4
:1057B000B1F0633009F04BC089E090E027E538E2B2
:1057C0004FC08091430480FD3DC089E090E02CE013
:1057D00038E246C089E090E025E238E241C089E045
:1057E00090E02EE338E23CC0613099F048F062303E
:1057F000A9F0633061F58AE390E021EB38E230C034
:105800008091430480FD28C08FE390E02BEE38E2C6
:1058100027C08BE190E026E938E222C08DE190E0DC
:1058200029E738E21DC082E290E027E137E218C0A4
:105830008DE690E02DE837E213C084E590E029E39F
:1058400037E20EC089E090E029E237E209C080E04B
:1058500090E020E030E004C08FE390E02AE239E2FB
:10586000FA0131832083089581E00C94C5230895C3
:10587000CF93DF9380E391E090D7C82F80914304CA
:10588000833049F080E191E088D7D82F80E091E023
:1058900084D78D23C8238091430481FD04C080E216
:1058A00091E07BD7C823CC2311F080E001C083E0D6
:1058B0000E94C5238091E20084608093E200DF9122
:1058C000CF91089580E391E030D6809143048330F6
:1058D00031F080E191E029D680E091E026D68091F8
:1058E000430481FD03C080E291E01FC608958091CA
:1058F0003E0190913F01009729F0019790933F015D
:1059000080933E01209143042330B1F080911E0129
:1059100090911F01009729F0019790931F018093A8
:105920001E0180910E0190910F01009729F00197BF
:1059300090930F0180930E0121FD0BC080912E01E9
:1059400090912F01009729F0019790932F01809358
:105950002E01089580E00C94C52382E00C94C523A9
:1059600080E00C94C5230F931F93CF93DF93F9012D
:10597000D801EC012881213009F441C030F02230F7
:1059800009F446C0233031F14AC0EF01FC01109206
:105990008A0120914304CE01029620FD06C0218594
:1059A000222319F00E94FD2202C00E94E622CE01AD
:1059B0000E940B238091430480FF06C088E090E0A2
:1059C000F801918380832BC082E190E0E801998304
:1059D000888325C010923F0480917B03808380914F
:1059E0003B04818380913A04828383E090E08D932D
:1059F0009C9381E090914004911112C010C080915D
:105A00002E0390912F039183808382E090E005C064
:105A100080918203808381E090E08D939C9380E06D
:105A2000DF91CF911F910F910895CF9380539140B3
:105A300009F081C0F901808180937002C0915F01FB
:105A4000C82780935F01CC2309F475C09091480466
:105A5000911111C0C0FF0FC080FF07C080E00E94FD
:105A6000842380E00E94541E06C080E00E94A4238C
:105A700080E00E94D11EC1FF11C08091700281FFA1
:105A800007C081E00E94842381E00E94541E06C06A
:105A900081E00E94A42381E00E94D11EC2FF24C0A5
:105AA0008091700282FF11C082E00E94842382E014
:105AB0000E94541E809150048823B1F081E08093AD
:105AC0007F0385E00E9484230FC082E00E94A4230C
:105AD00082E00E94D11E80915004882329F0109208
:105AE0007F0385E00E94A423C3FF11C08091700250
:105AF00083FF07C083E00E94842383E00E94541E3A
:105B000006C083E00E94A42383E00E94D11EC4FF4C
:105B100012C08091700284FF07C084E00E94842339
:105B200084E0CF910C94541E84E00E94A42384E06E
:105B3000CF910C94D11ECF9108958091430480FFA2
:105B400009C088E08093380188E090E090933301A9
:105B500080933201089580E391E032D6809143042E
:105B6000833031F080E191E02BD680E091E028D6BF
:105B70008091430481FD03C080E291E021D6BBD433
:105B80008091740490915E01981759F060917404AB
:105B900070E041E086EA0E940017809174048093CF
:105BA0005E01089580917204882331F0809174041D
:105BB000853011F40C94C0250895CF92DF92EF92B6
:105BC000FF920F931F93CF93DF93EC018B017A0128
:105BD000DED1811133C0E114F10439F0F701808185
:105BE0009181081B190BC80FD91FC12CD12C01158D
:105BF000110519F18091E80085FD16C08091E8003B
:105C00008E778093E80077D4E114F10449F0F7012E
:105C100080819181C80ED91ED182C08285E00EC0DC
:105C2000B6D1882321F30AC089918093F1000150F5
:105C30001109FFEFCF1ADF0ADACF80E0DF91CF91B1
:105C40001F910F91FF90EF90DF90CF9008952091DA
:105C50007B0430917C042617370748F061157105E5
:105C600039F42091E8002E772093E80001C0B901B3
:105C700040E061157105A9F120917404222309F413
:105C800043C0253009F442C02091E80023FD40C004
:105C90002091E80022FD32C02091E80020FFE9CFEA
:105CA0004091F3002091F20030E0342BFC01CF0151
:105CB0006115710559F02830310540F481918093C8
:105CC000F100615071092F5F3F4FF1CF41E0283063
:105CD000310509F040E02091E8002E772093E8009C
:105CE000C8CF4111C9CF0AC080917404882361F0E4
:105CF000853061F08091E80083FD0AC08091E80062
:105D000082FFF2CF80E0089582E0089583E0089555
:105D100081E008956115710529F42091E8002B7741
:105D20002093E800FC016115710541F18091740434
:105D3000882361F1853061F18091E80083FD24C002
:105D40008091E80082FFEFCF2091F3008091F20074
:105D500090E0922B892B31F08091F100819361507A
:105D6000710991F78091E8008B778093E800DBCF91
:105D700080917404882351F0853051F08091E800BF
:105D800080FFF6CF80E0089581E0089582E00895D5
:105D900083E0089520917B0430917C042617370717
:105DA00048F06115710539F42091E8002E772093B1
:105DB000E80001C0B901FC0120E06115710591F115
:105DC00080917404882309F440C0853009F43FC0F1
:105DD0008091E80083FD3DC08091E80082FD2FC0E6
:105DE0008091E80080FFE9CF2091F3008091F200DC
:105DF00090E0922B6115710559F08830910540F4BF
:105E000024912093F1003196615071090196F2CFEF
:105E100021E0089709F020E08091E8008E778093D8
:105E2000E800CBCF2111CCCF0AC080917404882325
:105E300061F0853061F08091E80083FD0AC08091B7
:105E4000E80082FFF2CF80E0089582E0089583E0C9
:105E5000089581E00895982F973058F59093E900C0
:105E6000981739F07091EC002091ED005091F000FE
:105E700003C0242F762F50E021FF19C03091EB0092
:105E80003E7F3093EB003091ED003D7F3093ED008D
:105E90003091EB0031603093EB007093EC00209375
:105EA000ED005093F0002091EE0027FF07C09F5FA8
:105EB000D3CF8F708093E90081E0089580E008954A
:105EC000EF92FF920F931F93CF93DF93E62EEC0197
:105ED0008C010C5F1F4FF12CFE1491F1588155235A
:105EE00051F1F801208169817A8131979081852F64
:105EF0008F70873010F080E024C0223010F442E030
:105F000001C046E0E8E0F0E020E0E617F70720F403
:105F10002F5FEE0FFF1FF9CF2295207F422BF0E479
:105F20009F9F90011124551F5527551F652F622BE8
:105F300092DF882301F3F39425960B5F1F4FCCCF9C
:105F400081E0DF91CF911F910F91FF90EF90089525
:105F50008091750487FF11C08091E80082FD05C023
:105F6000809174048111F8CF11C08091E8008B7783
:105F70000BC080917404882349F08091E80080FF71
:105F8000F8CF8091E8008E778093E8000895209103
:105F9000E4003091E50095E64091EC00842F81709B
:105FA00040FF22C08091E80080FD1CC080917404F5
:105FB000882391F0853091F08091EB0085FD10C031
:105FC0004091E4005091E5004217530729F39A01EC
:105FD000915011F784E0089582E0089583E00895D8
:105FE00081E0089580E008954091E80042FFDECF0F
:105FF000089565D06CD0E0EEF0E080818160808310
:10600000E8EDF0E080818F77808319BCA7EDB0E0E8
:106010008C918E7F8C9380818F7E8083109273040D
:1060200008950F931F93CF93DF9349D050D0C8EDBD
:10603000D0E088818F778883888180688883888191
:106040008F7D888319BC1092740410927104109291
:10605000720400EE10E0F80180818B7F80838881DC
:106060008160888342E060E080E0F5DEE1EEF0E010
:1060700080818E7F8083E2EEF0E08081816080838A
:10608000808188608083F80180818E7F8083888111
:1060900080618883DF91CF911F910F910895E8ED82
:1060A000F0E080818F7E8083E7EDF0E08081816089
:1060B000808384E082BF81E080937304B2CFE8EDF7
:1060C000F0E080818E7F80831092E200089510922C
:1060D000DA001092E10008951F920F920FB60F920E
:1060E00011242F933F934F935F936F937F938F93DD
:1060F0009F93AF93BF93EF93FF938091E10082FF53
:106100000AC08091E20082FF06C08091E1008B7F8F
:106110008093E100ECDB8091DA0080FF1DC080916C
:10612000D80080FF19C08091DA008E7F8093DA005A
:106130008091D90080FF0CC080E189BD82E189BDDA
:1061400009B400FEFDCF81E0809374048DDB04C0B0
:1061500019BC109274048BDB8091E10080FF18C0A1
:106160008091E20080FF14C08091E2008E7F8093D6
:10617000E2008091E20080618093E2008091D8008B
:1061800080628093D80019BC85E080937404E5DBBD
:106190008091E10084FF2FC08091E20084FF2BC03A
:1061A00080E189BD82E189BD09B400FEFDCF809107
:1061B000D8008F7D8093D8008091E1008F7E8093FE
:1061C000E1008091E2008F7E8093E2008091E20006
:1061D00081608093E20080917104882311F084E053
:1061E00007C08091E30087FD02C081E001C083E029
:1061F00080937404B5DB8091E10083FF22C080911D
:10620000E20083FF1EC08091E100877F8093E10060
:1062100082E080937404109271048091E1008E7F7B
:106220008093E1008091E2008E7F8093E200809174
:10623000E20080618093E20042E060E080E00BDEFB
:1062400089DBFF91EF91BF91AF919F918F917F91EA
:106250006F915F914F913F912F910F900FBE0F90D3
:106260001F9018951F93CF93DF93CDB7DEB7AA97F2
:106270000FB6F894DEBF0FBECDBFE5E7F4E088E0CF
:106280008E0F9091F10091938E13FBCF1BDB8091C9
:10629000E80083FF18C18091750490917604492F1E
:1062A00050E04A30510508F00EC1FA01E059FF4FA5
:1062B000C5C3803881F0823809F005C18091790426
:1062C0008F708093E9008091EB0085FB882780F92F
:1062D0001092E90007C080917204882311F082E0D7
:1062E00001C080E09091E800977F9093E800809350
:1062F000F1001092F100C4C0282F2D7F09F0E3C0F7
:10630000882319F0823061F0DEC0809177048130FB
:1063100009F0D9C0933009F080E0809372042BC05B
:1063200080917704811127C0809179048F7009F4DE
:10633000CAC08093E9002091EB0020FF1CC093307D
:1063400021F48091EB00806214C09091EB00906189
:106350009093EB0021E030E0A90102C0440F551FEB
:106360008A95E2F74093EA001092EA008091EB00F0
:1063700088608093EB001092E9008091E800877FAD
:1063800082C08111A0C0109177041F778091E30033
:106390008078812B8093E3008091E800877F809351
:1063A000E800D6DD8091E80080FFFCCF8091E3001B
:1063B00080688093E300111102C082E001C083E095
:1063C0008093740480C08058823008F07CC0809133
:1063D0007704909178048C3D53E0950771F583E044
:1063E0008A838AE289834FB7F894DE01139620E00E
:1063F0003EE051E2E32FF0E050935700E49120FF9C
:1064000003C0E295EF703F5FEF708E2F90E0EA30AF
:1064100010F0C79601C0C0968D939D932F5F2431D5
:1064200049F74FBF8091E800877F8093E8006AE2D8
:1064300070E0CE0101960BDC12C0AE014F5F5F4FE2
:106440006091790478D9BC01892B09F43CC0909102
:10645000E800977F9093E80089819A819BDC809186
:10646000E8008B778093E8002EC0803861F580913A
:10647000E800877F8093E800809171048093F100A9
:106480008091E8008E778093E80062DD1CC0811166
:106490001AC0909177049230B0F48091E800877F21
:1064A0008093E8009093710453DD80917104811111
:1064B00006C08091E30087FD02C081E001C084E056
:1064C00080937404D5D98091E80083FF0AC080913D
:1064D000E800877F8093E8008091EB0080628093E2
:1064E000EB00AA960FB6F894DEBF0FBECDBFDF91CA
:1064F000CF911F910895CF9380917404882399F0D0
:10650000C091E900CF709091EC00892F817090FDCF
:1065100080E8C82B1092E9008091E80083FDA2DE9C
:10652000CF70C093E900CF9108956F927F928F92C0
:106530009F92AF92BF92CF92DF92EF92FF920F9312
:106540001F93CF93DF9300D01F92CDB7DEB77C01AE
:10655000CDB6DEB68091E80083FF08C1F7018081E7
:1065600090E02091790430917A042817390709F0D6
:10657000FDC080917604833009F49FC030F48130EF
:1065800071F0823009F4D6C0F1C08A3009F4BAC083
:106590008B3009F4A3C0893009F0E8C051C0809164
:1065A0007504813A09F0E2C08DB69EB61A8219824E
:1065B00080917704109178048B83F7018085482FB0
:1065C00050E08DB79EB7841B950B0FB6F8949EBF15
:1065D0000FBE8DBFEDB7FEB731965F0160E070E092
:1065E000CF0148D24FEF410F8E010F5F1F4F950132
:1065F000BE016D5F7F4FC701B6D9F70186819781D4
:10660000009721F0408550E0B5012BD21092E900AF
:106610008091E800877F8093E8008B8181118093CF
:10662000F10069817A81C50112DB8091E8008B77E6
:106630008093E8000FB6F8949EBE0FBE8DBE96C044
:1066400080917504813209F091C0ADB6BEB600915B
:106650007B0410917C0470907704609078048DB76F
:106660009EB7801B910B0FB6F8949EBF0FBE8DBFD7
:10667000EDB7FEB731964F018091E800877F809398
:10668000E800B801CF0146DB8091E8008E77809367
:10669000E80021E0711001C020E030E0021B130B84
:1066A000280D391D4FEF460D672DC701BED90FB616
:1066B000F894BEBE0FBEADBE59C080917504813A3C
:1066C00009F054C08091E800877F8093E8008091B2
:1066D000E80080FFFCCFF701818540C08091750400
:1066E000813209F043C08091E800877F8093E80001
:1066F0002FDC9091770481E0911101C080E0F701D7
:10670000818734C080917504813281F58091E800E1
:10671000877F8093E8001CDC809177049091780457
:10672000882736E0969587953A95E1F7F7019587A2
:1067300084871CC080917504813AC1F48091E8007F
:10674000877F8093E8008091E80080FFFCCFF7010D
:106750008485958596958795969587958093F10084
:106760008091E8008E778093E800F2DB0FB6F89412
:10677000DEBE0FBECDBE0F900F900F90DF91CF9178
:106780001F910F91FF90EF90DF90CF90BF90AF904F
:106790009F908F907F906F900895FC01399627E02D
:1067A000DF011D922A95E9F721E0FC01218724EF02
:1067B00031E03587248723E0248361E0019680CB94
:1067C0004F925F926F927F928F929F92AF92BF9201
:1067D000CF92DF92EF92FF920F931F93CF93DF93AD
:1067E00000D01F92CDB7DEB77C01ADB6BEB68091AA
:1067F0007404843009F08DC08091E4009091E5002C
:10680000F701228533852817390709F482C0818171
:106810008F708093E9008091E80085FF7AC08DB683
:106820009EB6408550E08DB79EB7841B950B0FB682
:10683000F8949EBF0FBE8DBFEDB7FEB731966F01C6
:106840001B821A82198260E070E0CF0113D18E01A1
:106850000F5F1F4F960140E0BE016D5F7F4FC70184
:1068600082D8482EF70184859585892B51F091E0D7
:1068700080E026853785232B09F090E0092F182F1B
:1068800002C000E010E0F7016680778061147104B7
:1068900089F049815A81B301C601D6D05524539459
:1068A000892B09F4512CF701408550E0B601C30152
:1068B000D8D001C0512C89819A81892BF1F04110E7
:1068C00004C0511002C0012BC1F0F70184859585E9
:1068D0009787868781818F708093E9008B818111F2
:1068E0008093F10069817A8140E050E0C60165D96A
:1068F0008091E8008E778093E8008091E400909189
:10690000E500F701938782870FB6F8949EBE0FBE0D
:106910008DBE0FB6F894BEBE0FBEADBE0F900F90E9
:106920000F90DF91CF911F910F91FF90EF90DF902B
:10693000CF90BF90AF909F908F907F906F905F901F
:106940004F90089508950E94A2250E94EB160E9480
:10695000A6280E948B260E9447230E94BA1D0E94EF
:10696000E1270E9406150E9402290E94A52AE5D867
:106970000E94F42694CB0E94B12A8091D6018823EC
:10698000E1F30C94CE2A35DBF8942FEF87EA91E6F9
:10699000215080409040E1F700C000008091D60176
:1069A000823011F40E94B9258091D601882359F0D4
:1069B0009CE088E10FB6F894A895809360000FBE24
:1069C00090936000FFCF0895BDDFBDDFD4DFDBDF34
:1069D00080E090E00895991B79E004C0991F961714
:1069E00008F0961B881F7A95C9F780950895AA1B11
:1069F000BB1B51E107C0AA1FBB1FA617B70710F0AA
:106A0000A61BB70B881F991F5A95A9F780959095DB
:106A1000BC01CD01089597FB072E16F4009406D013
:106A200077FD08D0E4DF07FC05D03EF49095819512
:106A30009F4F0895709561957F4F0895EE0FFF1F4A
:106A40000590F491E02D0994FB01DC0104C08D91C7
:106A50000190801921F441505040C8F7881B990BD0
:106A60000895FB01DC0102C001900D92415050409D
:106A7000D8F70895DC0101C06D9341505040E0F714
:106A80000895F999FECF92BD81BDF89A992780B5F6
:106A90000895A8E1B0E042E050E01CC0DC01CB0169
:106AA00002C02D9105D041505040D8F70895262FAF
:106AB000F999FECF1FBA92BD81BD20BD0FB6F894E3
:106AC000FA9AF99A0FBE01960895F1DF272FF0CFB9
:106AD000DC01CB01FC01F999FECF06C0F2BDE1BD9E
:106AE000F89A319600B40D9241505040B8F708958D
:046AF000F894FFCF48
:106AF40002830100000160010100000000000000A9
:106B04000182020000016101020000000000000097
:106B1400038403000001630103000000000000007F
:106B24000081120000016601120000000000000054
:106B34002400250023002700280026002A002B001B
:0E6B440029002D002E002C00300031002F0003
:00000001FF
