:100000000C94C3130C9406140C9406140C9406144C
:100010000C9406140C9406140C9406140C940614F8
:100020000C9406140C9406140C94512D0C94061484
:100030000C94C5230C9406140C9406140C9406140A
:100040000C9406140C94B6280C9406140C94061404
:100050000C9406140C9406140C9406140C940614B8
:100060000C9406140C9406140C9406140C940614A8
:100070000C9406140C9406140C9406140C94061498
:100080000C9406140C9406140C9406140C94061488
:100090000C9406140C9406140C9406140C94061478
:1000A0000C9406140C9406140C940614331BEC16D2
:1000B000F21610171617AA18B018CC17D217D9189D
:1000C000FB1815192F1944199A19D719ED1A121B73
:1000D000F419101A2F1A541A6D1A921AB21ACB1A4E
:1000E0003E2E612E482F612E482FA62EC82E482F57
:1000F0001A2F2C2F0000000000000000000000005C
:10010000000000002A002B0028000000000028004A
:1001100000000000000000000000000000000000DF
:1001200000000000000000000000290000000000A6
:10013000000000002C001E023402200221022202D4
:10014000240234002602270225022E0236002D004A
:100150003700380027001E001F0020002100220069
:1001600023002400250026003302330036022E002F
:10017000370238021F0204020502060207020802C3
:1001800009020A020B020C020D020E020F021002FB
:1001900011021202130214021502160217021802AB
:1001A00019021A021B021C021D022F00310030002E
:1001B00023022D0235000400050006000700080098
:1001C00009000A000B000C000D000E000F001000CB
:1001D000110012001300140015001600170018007B
:1001E00019001A001B001C001D002F0231023002F2
:1001F00035024C000000000000000000000000007C
:1002000000000000000000000000000000000000EE
:1002100000000000000000000000000000000000DE
:1002200000000000000000000000000000000000CE
:1002300000000000000000000000000000000000BE
:101B80000000000000000000000000FF00FF00FF58
:101B900000FF00FF00FF00FF00FF00FF00FF00FF4D
:101BA00000FF00FF00FF00FF00FF00FF00FF00FF3D
:101BB00000FF00FF00000000000000000000000027
:101BC0000000000000000000000000000000000015
:101BD000000000000000000000080C0000000000F1
:101BE00000000000000000000000000000000000F5
:101BF00000000000000000000000000000000000E5
:101C000000000000000000000000000000000000D4
:101C100000000000000000000000000000000000C4
:101C200000000000000000000000000000000000B4
:101C300000000000000000000000000000000000A4
:101C40000000000000000000000000000000000094
:101C50000000000000000000000000000000000084
:101C60000000000000000000000000000000000074
:101C7000000000000000000000000001010101144C
:101C80000000000000000000000000000000000054
:101C90000000000000000000000000000000000044
:101CA000000000000000000000010101011400001C
:101CB0000000000000000000000000000000000024
:101CC0000000000000000000000000000000000014
:101CD00000000000000000010101011400000000EC
:101CE00000000000000000000000000000000000F4
:101CF00000000000000000000000000000000000E4
:101D000000000000000101010114982A2E25F4278B
:101D10005A25BE23982A3325A015D316BE234F7506
:101D200074206F662072616E67652E0A00456E74BE
:101D30006572206E65772064656661756C742064D9
:101D4000696D6D6572206C6576656C2028312D316A
:101D500036293E2000456E746572206E65772064DA
:101D6000656661756C74206261636B6C6967687429
:101D700020656E61626C652028312D3136293E2048
:101D800000456E746572206E6577206D61747269AE
:101D900078207365747570207761697420696E208E
:101DA0006379636C65732028312D323535293E20E7
:101DB00000456E746572206E65772072657065618E
:101DC000742074696D6520696E206D732028312D33
:101DD0003939293E2000456E746572206E65772082
:101DE000686F6C642074696D6520696E206D732066
:101DF00028312D393939293E2000456E746572200D
:101E00006E6577206D6F757365206D6F76656D6596
:101E10006E74206D756C7469706C69657220283100
:101E20002D3939293E2000456E746572206E657724
:101E30002062617365206D6F757365206D6F7665C7
:101E40006D656E742028312D3939293E2000456E8C
:101E5000746572206E657720646F75626C6574615D
:101E6000702064656C61792074696D6520696E20ED
:101E70006D732028312D393939293E2000456E7483
:101E80006572206E6577207461702074696D6520BD
:101E9000696E206D732028312D393939293E200093
:101EA000456E746572206E6577206465626F756E2D
:101EB00063652074696D6520696E206D732028311B
:101EC0002D3939293E20005365743A00456E7465FA
:101ED00072206E65772064656661756C74206C6134
:101EE0007965722028302D39293E200042797465A9
:101EF000732028686578293E200041646472657308
:101F0000732028686578293E200020532D30780002
:101F10005D20432D3078000A5B004E756D206C6F9C
:101F2000636B206973206C696E6B656420746F202D
:101F30007468652073797374656D206E756D206C9F
:101F40006F636B2E0A004E756D206C6F636B20778C
:101F5000696C6C2066756E6374696F6E20696E645F
:101F60006570656E64656E746C79206F6620746848
:101F7000652073797374656D206E756D206C6F6369
:101F80006B2E0A004B6579626F6172642061637425
:101F90007320617320657874656E646564204E4BB0
:101FA000524F206B6579626F617264207769746843
:101FB000206D6F75736520616E64206D6564696165
:101FC000206B6579732E0A004B6579626F617264CC
:101FD000206163747320617320364B524F206B6510
:101FE00079626F61726420706C7573206D6F7573A8
:101FF0006520616E64206D65646961206B6579732D
:102000002E0A004B6579626F617264206973206CDF
:10201000696D6974656420746F207374616E6461A6
:10202000726420364B524F20626F6F742D636F6D58
:1020300070617469626C65206B6579626F6172644E
:102040002E0A005363726F6C6C206C6F636B207789
:10205000696C6C206E6F74206166666563742077AE
:10206000696E206C6F636B2E0A0057696E646F7720
:1020700073206B65792077696C6C206265206469D8
:102080007361626C6564207768656E207363726F3C
:102090006C6C206C6F636B20697320656E61626C81
:1020A00065642E0A004E756D206C6F636B20776936
:1020B0006C6C206E6F7420616666656374206E754B
:1020C0006D62657220726F772E0A004E756D6265C3
:1020D0007220726F772077696C6C2062652073774D
:1020E000617070656420666F72206E756D706164DA
:1020F000206B657973207768656E206E756D206C36
:102100006F636B20697320656E61626C65642E0A73
:1021100000496E707574206E6F74207265636F670E
:102120006E697A65642E0A000A54696D696E6720CB
:102130004D656E753A0A31292053657420646562D5
:102140006F756E63652074696D650A322920536569
:1021500074206D617820686F6C642074696D6520EF
:10216000666F72207461700A332920536574206D84
:1021700061782064656C61792074696D6520666F93
:102180007220646F75626C65207461700A34292056
:102190005365742062617365206D6F757365206D82
:1021A0006F76656D656E740A352920536574206DF0
:1021B0006F757365206D6F76656D656E74206D75D6
:1021C0006C7469706C6965720A36292053657420D5
:1021D0006D696E20686F6C642074696D6520666F30
:1021E00072207265706561740A3729205365742006
:1021F00072657065617420706572696F640A382950
:1022000020536574206D61747269782073657475EC
:102210007020776169740A3929204261636B0A3E34
:1022200020000A436F6E666967204D656E753A0A35
:10223000312920546F67676C652076697274756107
:102240006C206E756D207061640A322920546F67AE
:10225000676C652077696E206C6F636B206F6E20F2
:102260007363726F6C6C206C6F636B0A332920533D
:1022700065742064656661756C74206C6179657243
:102280000A342920546F67676C6520626173696343
:10229000206B6579626F6172640A352920546F671B
:1022A000676C6520756E6C696E6B206E756D206C49
:1022B0006F636B0A36292053657420646566617507
:1022C0006C742064696D6D6572206C6576656C0A4E
:1022D0003729205365742064656661756C742062CB
:1022E00061636B6C6967687420656E61626C650A16
:1022F0003929204261636B0A3E20000A44656275F9
:1023000067204D656E753A0A3129205072696E74E6
:10231000206576656E74730A322920436C6561729C
:10232000206576656E74730A3329204578616D697E
:102330006E65206D656D6F72790A3429205072695F
:102340006E742F636C65617220636C6F636B2D69B3
:102350006E730A3929204261636B0A3E20000A4DE0
:1023600061696E204D656E753A0A312920436F6EA2
:10237000666967206D656E750A32292054696D693A
:102380006E67206D656E750A332920446562756736
:10239000206D656E750A34292052657365740A399B
:1023A0002920517569740A3E20001E4D1F51204E90
:1023B00021502200234F244A2552264B2749374CCF
:1023C000E200E900EA00E500B500B600B700CD0084
:1023D0002402250283018A01920194012102230231
:1023E000C101C202C304C408C510E001E102E20455
:1023F000E308E410E520E640E7800105080A0C0F39
:1024000010141418180038320400013B0401013F75
:1024100004020130040301360404013E04050140B6
:10242000040601330407012D0408013804090234AD
:10243000040B0231040D0137040E013C040F022F7E
:102440000411013A0412016141624263436444652C
:102450004566466747684869496A4A6B4B6C4C6DEC
:102460004D6E4E6F4F70507151725273537454755C
:102470005576567757785879597A5A312132403300
:102480002334243525365E3726382A39283029006A
:102490000000000000000020202D5F3D2B5B7B5DD5
:1024A0007D5C7C237E3B3A2722607E2C3C2E3E2F97
:1024B0003F000000000000000000000000000000DD
:1024C000000000000000000000000000000000000C
:1024D00000000000000000000000000000000000FC
:1024E000000000000000002F2F2A2A2D2D2B2B008A
:1024F0000031003200330034003500360037003838
:1025000000390030002E005C7C000000000000005C
:1025100000000000000000000000000000000000BB
:10252000000000000000006162636465666768691E
:102530006A6B6C6D6E6F7071727374757677787983
:102540007A4142434445464748494A4B4C4D4E4FD9
:10255000505152535455565758595A3031323334DA
:1025600035363738392122232425262728292A2BB6
:102570002C2D2E2F3A3B3C3D3E3F405B5C5D5E5F29
:10258000607B7C7D7E004A0345006100730079001A
:1025900041005600520020004D0075006C00740090
:1025A00069006D00650064006900610020004B0057
:1025B0006500790062006F00610072006400200015
:1025C000760023002E00230023002E00230023008A
:1025D00000000403090409022200010100A03209DD
:1025E00004000001030101000921B0010001223FA4
:1025F000000705810308000109025400030100A03F
:10260000320904000001030101000921B0010001A9
:10261000223F0007058103080001090401000103AE
:102620000102000921B0010001223A0007058203DE
:102630000300050904020001030000000921B001A4
:102640000001221B00070583030200080902540051
:10265000030100A032090400000103010100092167
:10266000B0010001223F00070581031200010904A7
:10267000010001030102000921B0010001223A001A
:10268000070582030300050904020001030000009E
:102690000921B0010001221B000705830302000885
:1026A0001201000200000008EB03FF2010000001EF
:1026B0000001050C0901A101050C160100269C0270
:1026C0001A01002A9C02751095018100C0050109BC
:1026D00002A1010901A1000509190129031500251D
:1026E00001950375018102950175058101050109B7
:1026F0003009311681FF267F003600004600009524
:102700000275088106C0C005010906A10105071967
:10271000E029E715002501750195088102950175ED
:102720000881010508190129059505750191029592
:1027300001750391011500250105071900297F95F1
:102740008075018102C005010906A101050719E094
:1027500029E7150025017501950881029501750885
:102760008101050819012905950575019102950159
:1027700075039101150025FF0507190029FF95062E
:1027800075088100C00011241FBECFEFDAE0DEBF64
:10279000CDBF84B714BE0FB6F894A8959091600091
:1027A000986190936000109260000FBE83FF11C08B
:1027B00080916804909169048D3A9E4D51F4109275
:1027C000690410926804E5E0F4E225913491F9017E
:1027D000099585B7806885BF85B7806885BF11E09A
:1027E000A0E0B1E0E8ECF4E602C005900D92AE3452
:1027F000B107D9F724E0AEE4B1E001C01D92A836DC
:10280000B207E1F70E94CE310C9462320C940000C2
:10281000109271011092700110926C0110926B0174
:1028200010927B0110927A01089590916D01809130
:1028300078019923C9F181113EC080916F01811106
:102840002FC080918C01811125C080916701811179
:1028500022C0E0916601E91305C010926D0110924B
:10286000660129C081E08E0F80936601F0E0EE0FD3
:10287000FF1FE458FE4F80819181813019F49093BD
:102880006F0119C09093670180938C01882399F0A0
:102890005CD711C08FD710928C01109267010BC0CA
:1028A000815080936F0107C0811105C080916E0136
:1028B0008D7F80936E0180917801811103C081E04A
:1028C0008093780108958091720290916801981721
:1028D00031F180936801882311F1883211F0883535
:1028E00031F480916E018B7F80936E010895E091A9
:1028F0006A018A3251F4EE2391F0E150E0936A01CB
:10290000F0E0EE58FE4F10820895E63040F4AE2F0E
:10291000B0E0AE58BE4F8C93EF5FE0936A0108952C
:1029200080917202811102C010926E010895BC0163
:1029300080916D01DB01982F292F281B983058F0CA
:1029400090936D01620F711D27FD7A9570937B0145
:1029500060937A0122C0FD0125913491211109C0B3
:1029600090936D0110927B0110927A019923D1F01E
:1029700014C0492F50E0F901FF27EE0FFF1FEC5064
:10298000FF4F25913491440F551FFA01E458FE4F33
:10299000318320839F5F1196CFCF80916E0183603A
:1029A00080936E0181E0089540916D0128E030E050
:1029B000241B31092617370758F1B0E04B2F0B2E97
:1029C000000C550B46175707D8F4A0916D012A2F1C
:1029D00030E0FC01E40FF51FE081F0E0EE0FFF1F97
:1029E000EC50FF4F45915491220F331FF901E458E9
:1029F000FE4F51834083AF5FA0936D01BF5FDECF79
:102A0000672B41F080916E01836080936E0102C05C
:102A100080E0089581E0089590916D01983090F4E0
:102A2000E92FF0E0EE0FFF1FE458FE4F8083618333
:102A30009F5F90936D0180916E01836080936E0122
:102A400081E0089580E008959C0190916D019111BD
:102A50002EC0A901983049F490936D01205F3F4F3B
:102A600030937101209370011BC0FA01659174913C
:102A70004E5F5F4F6115710549F490936D0110929F
:102A8000710110927001992381F00AC0E92FF0E0E2
:102A9000EE0FFF1FE458FE4F718360839F5FDACF14
:102AA00080916E01836080936E0181E0089580E0E3
:102AB0000895AC0180916D0181113EC06093790150
:102AC000282F082E000C330B2617370758F5909146
:102AD0006D01220F331F983038F0240F351F3093CB
:102AE0006C0120936B011EC0FA01E20FF31F2081DD
:102AF0003181E92FF0E0EE0FFF1FE458FE4F3183E4
:102B000020839F5F90936D019091790191509093F4
:102B10007901911105C010926C0110926B0102C0F5
:102B20008F5FCECF80916D01882341F080916E013F
:102B3000836080936E0102C080E0089581E0089573
:102B400090916E0191FD71CE2091700130917101D3
:102B50002115310511F0C90177CF20916B0130911A
:102B60006C012115310539F060917901062E000CB8
:102B7000770BC9019ECF20917A0130917B012115FD
:102B8000310511F0C901D3CE92FD9DCEC9CEE2E749
:102B9000F1E0108211821282138214821582109247
:102BA0006A01809172028093680180916E01856054
:102BB00080936E010895E82FF0E0EE0FFF1FEC50B8
:102BC000FF4F85919491089508959091C30190319C
:102BD00078F4E92FF0E09F01220F331FE20FF31F7B
:102BE000E257FE4F8083728361839F5F9093C3019E
:102BF000089541111BC04091C30150E090E0292F7E
:102C0000092E000C330B2417350784F4F901EE0F5D
:102C1000FF1F2E0F3F1FF901E257FE4F208128139F
:102C200003C07283618308959F5FE9CFCECF8A305E
:102C300010F4805D0895895C08951F93CF93DF930E
:102C4000182FEB0182958F70F2DF8883812F8F70B0
:102C5000EEDF8983DF91CF911F9108951F93CF936A
:102C6000DF93182FEB01892FE8DFBE016E5F7F4FE6
:102C7000812FDF91CF911F91E0CF8F929F92AF92E2
:102C8000BF92CF92DF92EF92FF920F931F93CF9359
:102C9000DF931F92CDB7DEB79C018B0180E3FB0170
:102CA000808380E28183828383E0E82EF12C94E6A6
:102CB000892E912C4AE0B42E682D70E0911003C04B
:102CC0002617370790F06801C90CD11C97FCDA94DD
:102CD000C9010E94E131A82E862F9983A8DFF60151
:102CE00080832A2D9981392F9394882D6B2D0E94F2
:102CF000D531882EF1E0EF1AF108F1F60F90DF914F
:102D0000CF911F910F91FF90EF90DF90CF90BF90E8
:102D1000AF909F908F90089597EA980F993010F494
:102D20008855089592EE980F993010F48D510895BA
:102D30009CEF980F963010F48A5F089580E0089514
:102D4000BF92CF92DF92EF92FF920F931F93CF9398
:102D5000DF937C018B0180E090E0B12CC42FD0E0A8
:102D60002B2D0B2C000C330B2017310790F48C9F6C
:102D700060018D9FD00C9C9FD00C1124F701E20FB5
:102D8000F31F8081C9DF9601280F311DC901B3945B
:102D9000E7CFDF91CF911F910F91FF90EF90DF90E0
:102DA000CF90BF9008950F931F93CF93DF9300D0E0
:102DB00000D0CDB7DEB780916E01811154C4E0918F
:102DC0008D018E2F90E08A31910508F04AC4FC01F4
:102DD000EA5AFF4F0C9408328EE593E2A8DDD7DE65
:102DE00082E011C011E010938D018091720194DF97
:102DF000893009F436C4843019F41093C40133C403
:102E0000813021F483E080938D012DC4823011F450
:102E100087E0F9CF833009F4D9C181E191E220C084
:102E200082E292E284DDB3DE84E0EDCF13E0109322
:102E30008D018091720170DF893011F481E0E3CF60
:102E4000813099F490913F04892780933F0482E078
:102E50000E94352680913F04882321F08BEC90E27C
:102E600066DD01C485EA90E2FBCF823099F490914F
:102E70003B0481E0892780933B0481E00E94352652
:102E800080913B04882319F08AE690E2E9CF83E43D
:102E900090E2E6CF8330B1F487EC9EE148DDBE01DD
:102EA0006F5F7F4F80913004C8DE8AE08B8363E0E0
:102EB00070E0CE01019678DD8CEC9EE138DD67DEB6
:102EC0008FE0A1CF8430F9F480913E04811109C0D4
:102ED00081E080933E0485E00E94352688EC9FE1E6
:102EE000BFCF813041F410933E0485E00E94352627
:102EF00083E090E2B5CF10923E0485E00E94352633
:102F000084E89FE1ADCF853099F49091330481E05E
:102F100089278093330487E00E943526809133040B
:102F2000882319F086E49FE19BCF8AE19FE198CF47
:102F30008630B9F487EC9EE1FADC80913604BE015C
:102F40006F5F7F4F90E099DE8AE08B8363E070E0F3
:102F5000CE01019629DD8DE29DE1E9DC18DE80E1FC
:102F600052CF873009F059CF87EC9EE1E0DC8091A9
:102F70002D0490E0BE016F5F7F4F01967EDE8AE0F8
:102F80008B8363E070E0CE0101960EDD85E59DE167
:102F9000CEDCFDDD81E137CF88E291E2C8DCF7DDF0
:102FA00088E031CF87E080938D0180917201B4DE9B
:102FB000893009F443CF8130B9F487EC9EE1B7DC66
:102FC00080914004BE016F5F7F4F90E056DE8AE043
:102FD0008B8363E070E0CE010196E6DC80EA9EE13F
:102FE000A6DCD5DD82E10FCF8230C1F487EC9EE113
:102FF0009EDCBE016F5F7F4F809138049091390451
:103000003CDE8AE08C8364E070E0CE010196CCDC8B
:103010008DE79EE18CDCBBDD83E1F5CE8330D9F416
:1030200087EC9EE184DC8091340490913504BE01EC
:103030006F5F7F4F9195819591091FDE8AE08C83A8
:1030400064E070E0CE010196AFDC8EE49EE16FDCBF
:103050009EDD84E1D8CE8430B9F487EC9EE167DC54
:1030600080913104BE016F5F7F4F90E006DE8AE001
:103070008B8363E070E0CE01019696DC87E29EE1EF
:1030800056DC85DD85E1BFCE8530B9F487EC9EE165
:103090004EDC80913704BE016F5F7F4F90E0EDDD25
:1030A0008AE08B8363E070E0CE0101967DDC8AEFDD
:1030B0009DE13DDC6CDD86E1A6CE8630C1F487EC77
:1030C0009EE135DCBE016F5F7F4F80913C049091A3
:1030D0003D04D3DD8AE08C8364E070E0CE0101968C
:1030E00063DC86ED9DE123DC52DD87E18CCE873009
:1030F000B9F487EC9EE11BDC80912F04BE016F5F69
:103100007F4F90E0BADD8AE08B8363E070E0CE0110
:1031100001964ADC81EB9DE10ADC39DD88E173CE62
:10312000883009F0A0C287EC9EE101DC80913A046E
:10313000BE016F5F7F4F90E0A0DD8AE08C8364E08A
:1031400070E0CE01019630DC81E89DE1F0DB1FDD0F
:1031500089E159CE8BEF92E2EADB19DD86E053CEAE
:1031600085E080938D0180917201D6DD893009F46C
:1031700065CE813011F489E046CE823069F4EEE804
:10318000F1E0108212821182339641E0EE3BF407A7
:10319000C1F71092C30167C2833031F48AEF9EE118
:1031A000C6DBF5DC8CE02FCE843009F036CE8EE025
:1031B0002ACE8091C201803158F01092C2018AE07B
:1031C000898361E070E0CE010196EEDB85E01BCEE5
:1031D00087E19FE1ACDBBE016F5F7F4F8091C20151
:1031E0002CDD62E070E0CE010196DEDB80E19FE144
:1031F0009EDB8AE008CE8091C20190E0FC01EE0FD8
:10320000FF1F8E0F9F1FFC01E257FE4FBE016F5F35
:103210007F4F808112DD62E070E0CE010196C4DB59
:103220008AE09FE184DB8BE0EECD8091C20190E0EB
:10323000FC01EE0FFF1F8E0F9F1FFC01E257FE4F98
:10324000BE016F5F7F4F8181928108DD64E070E095
:10325000CE010196A9DB89E080938D01A2C0609127
:103260006A0170E040E182E791E06ADD9093BF017E
:103270008093BE011092C1011092C0018CEE9EE1BC
:1032800056DB85DC8DE0BFCD8091C0019091C101FE
:10329000892B89F40091BE011091BF0160916A01F0
:1032A00070E040E182E791E04BDD800F911F909349
:1032B000C1018093C00110E20AE0E091BE01F091EB
:1032C000BF018091C0019091C101E817F907D8F4BE
:1032D000BE016F5F7F4F8081B0DC8091C001909113
:1032E000C10101972091BE013091BF012817390714
:1032F00011F40B8301C01B8363E070E0CE010196E3
:1033000053DB81110DC02091BE013091BF0180912E
:10331000C0019091C1012817390708F057CFA3C108
:103320008091BE019091BF0101969093BF0180935F
:10333000BE01C3CF8091C2018A3078F01092C201E1
:103340008AE0898361E070E0CE0101962DDB85E0A3
:1033500080938D010E94D92886C1082F0695182FC9
:10336000117080FD02C08AE001C080E2898361E0C3
:1033700070E0CE01019618DB85E0189FF001112462
:10338000E00FF11DEE0FFF1FE95BFB4FBE016F5F0A
:103390007F4F8081918162DC64E070E0CE01019614
:1033A00003DB8091C2018F5F8093C2015CC1609199
:1033B0006A0170E04AE082E791E0C2DC8A30910560
:1033C00078F48093300483E00E94352687EC9EE1F8
:1033D000AEDABE016F5F7F4F809130042EDC1AC1E0
:1033E0008EE19DE1A4DA0ECD60916A0170E04AE0C1
:1033F00082E791E0A5DC9C0121503109233631059B
:1034000058F48093400486E00E94352687EC9EE1C4
:103410008EDA8091400479C08EE19DE188DAF8CCA3
:1034200060916A0170E04AE082E791E089DC9C01EA
:1034300021503109273E334078F790933904809327
:10344000380489E00E94352687EC9EE170DABE01DF
:103450006F5F7F4F8091380490913904B8C06091BC
:103460006A0170E04AE082E791E06ADC9C01215049
:103470003109273E334080F69195819591099093CB
:103480003504809334048AE00E94352687EC9EE15F
:103490004EDA8091340490913504BE016F5F7F4F06
:1034A00091958195910993C060916A0170E04AE01D
:1034B00082E791E045DC9C0121503109233631053A
:1034C00008F0AACF809331048BE00E94352687EC68
:1034D0009EE12DDA8091310418C060916A0170E09C
:1034E0004AE082E791E02CDC9C012150310923362F
:1034F000310508F091CF809337048CE00E94352687
:1035000087EC9EE114DA80913704BE016F5F7F4F34
:1035100090E0B3DB8AE08B8363E070E0CE0101963C
:1035200043DA76CC60916A0170E04AE082E791E08C
:1035300007DC9C0121503109273E334008F06CCF55
:1035400090933D0480933C048DE00E94352687ECE7
:103550009EE1EDD9BE016F5F7F4F80913C04909159
:103560003D0435C060916A0170E04AE082E791E075
:10357000E7DB9C01215031092336310508F04CCF9F
:1035800080932F048EE00E94352687EC9EE1CFD9F0
:1035900080912F04BACF60916A0170E04AE082E71F
:1035A00091E0CEDB9C01215031092F3F310508F01D
:1035B00033CF80933A048FE00E94352687EC9EE15A
:1035C000B6D980913A04BE016F5F7F4F90E055DB22
:1035D0008AE08C8364E070E0A1CF60916A0170E0C2
:1035E0004AE082E791E0ACDB9C01215031092031B7
:1035F000310508F0F5CE8093360484E00E9435262C
:1036000087EC9EE194D980913604BE016F5F7F4FB5
:1036100090E033DB8AE08B8363E070E0CE010196BB
:10362000C3D9F0CB60916A0170E04AE082E791E093
:1036300087DB9C01215031092031310508F0D0CEC3
:10364000815080932D0488E00E94352687EC9EE10E
:103650006ED980912D0490E0BE016F5F7F4F01967F
:10366000D8CF10928D010F900F900F900F90DF9197
:10367000CF911F910F91089526E0829FC0011124E0
:10368000FC01E05DFE4F0190F081E02D208181E0A2
:1036900090E001C0880F6A95EAF7822B8083089535
:1036A00026E0829FC0011124FC01E05DFE4F0190E5
:1036B000F081E02D808160956823462B408308953A
:1036C00026E0829FC0011124FC01E05DFE4F0280D4
:1036D000F381E02D208181E090E001C0880F6A95A0
:1036E000EAF7822B8083089526E0829FC00111248F
:1036F000FC01E05DFE4F0280F381E02D208181E03E
:1037000090E001C0880F6A95EAF780958223808354
:10371000089526E0829FC0011124FC01E05DFE4F68
:103720000280F381E02D80816823462B4083089539
:1037300026E0829FC0011124FC01E05DFE4F048061
:10374000F581E02D808186230895E82FE695E695A2
:10375000E695F0E0EB59FD4F982F977021E030E0AF
:1037600001C0220F9A95EAF79081292B208390912E
:103770005F0220E029175CF4E22F022E000CFF0B01
:10378000EE58FD4F30813817A1F02F5FF3CF963000
:103790005CF4E92F092E000CFF0BEE58FD4F8083DF
:1037A0009F5F90935F0208951092780281E080936A
:1037B0006D030895E82FE695E695E695F0E0EB5960
:1037C000FD4F982F977021E030E001C0220F9A95AD
:1037D000EAF7209590812923208390915F0242E7A8
:1037E00052E0FA012E2F241B291724F431913813AB
:1037F000F9CF01C00895E22F022E000CFF0BEE5806
:10380000FD4F818180832F5F2917ACF391509093F6
:103810005F0210926D030895E82FE695E695E69510
:10382000F0E0EB59FD4F982F977021E030E001C098
:10383000220F9A95EAF790812927208390915F02C1
:1038400042E752E0FA012E2F241B291724F431916C
:103850003813F9CF13C096305CF4E92F092E000C11
:10386000FF0BEE58FD4F80839F5F90935F0208959A
:103870001092780281E080936D030895E22F022E6A
:10388000000CFF0BEE58FD4F818180832F5F2917BD
:10389000ACF3915090935F0210926D030895909154
:1038A0001A0394305CF4E92F092E000CFF0BE05A48
:1038B000FD4F80839F5F90931A03089540E060E07E
:1038C00070E082E496D910926402089520911A0360
:1038D00040E652E0FA019E2F941B92179CF431911E
:1038E0003813F9CF921751F0E92F092E000CFF0B76
:1038F000E05AFD4F818180839F5FF4CF9150909378
:103900001A030895682F70E040E083E472C9809143
:1039100030048093700308959FE0899F600D112407
:1039200080915B0268130DC080913404909135043E
:103930008417950734F480916F038F5F80936F0332
:10394000089510925B0210926F030895E09138047D
:10395000F09139044E175F0754F491E0F901908318
:10396000FFE08F9F600D112460935B020895F901C1
:10397000108210925B0210926F030895909179016A
:10398000E92FEE0FFF0BE658FD4F20915D0230E06E
:10399000322F2227282B3183208381E0890F8093C7
:1039A0007901803534F010926B038093690180E1D6
:1039B00059C5089590917103911110C0805D8E30AA
:1039C00068F4E82FF0E0EE0FFF1FE254F54F859109
:1039D0009491880F991F8254954F36C80895CF93BC
:1039E000DF93C82FD62F5BDF809170039091300456
:1039F000891711F08B5F36D580E18C0F80937003AF
:103A000085E18C0F0FD58FE00DD5809170039091DB
:103A10005C02D0FF02C0981308C0981308C08091C0
:103A20006F03811104C08091300480935C02DF91A8
:103A3000CF9108951F93CF93DF9300D01F92CDB7FE
:103A4000DEB7182F2B834A83698340DF2B814A819D
:103A50006981222399F120917003E22FF0E0812FF8
:103A600090E0805F9109E817F90741F580916F03B5
:103A7000882319F061FD20935C0280915E0281131E
:103A80001DC062FF1BC0141624F460915D02842FD8
:103A900013C0842F807E803E89F4E42FF0E0EE0F87
:103AA000FF1FE55DFD4D8491809590915D02892316
:103AB00080935D02649180E00E940C1580917003F8
:103AC0008B5FD0D4E0911A03E11103C080915C02B6
:103AD00007C00E2E000CFF0BE15AFD4F8081805F66
:103AE000809370038091700390913004891741F0A6
:103AF0008B5F0F900F900F90DF91CF911F9192C429
:103B00008FE00F900F900F90DF91CF911F91AAC47B
:103B10006F70623051F028F4662339F0613081F023
:103B20000895643011F06830F1F4E82FF0E0EE0F02
:103B3000FF1FE55DFD4DE49180915D02E82B0AC019
:103B4000E82FF0E0EE0FFF1FE55DFD4DE491809161
:103B50005D02E827E0935D0280916E03882319F0EF
:103B6000E777E0935D020895CF93E82F6F7062309E
:103B700009F438C0842FCE2F633018F4662331F156
:103B80004EC0643019F0683009F149C02223F1F0C9
:103B900090915E029E131AC014161CF460915D028F
:103BA00013C0942F907E903E89F4E42FF0E0EE0F46
:103BB000FF1FE55DFD4D8491809590915D02892305
:103BC00080935D02649180E00E940C15EC2FF0E080
:103BD000EE0FFF1FE55DFD4DE491E09580915D02E4
:103BE000E8231BC090915D02F0E0EE0FFF1FE55D42
:103BF000FD4D222379F080916F03882359F0849141
:103C0000E82FE92BE0935D0280916E03882339F061
:103C1000E77703C0E491E095E923E0935D02CF915B
:103C200008956F70623051F028F4662339F06130E6
:103C300031F00895643011F0683011F486CDECCD88
:103C400008956F70623049F018F461110DC00BC017
:103C5000643049F0683041F406C0222321F090918D
:103C60006F03911101C0A6CD08951F93CF93DF93E9
:103C70001F92CDB7DEB7182F862F807F11F080936B
:103C80006701103CA8F5103B08F0B3C0133A09F4E3
:103C90007EC0E8F4133809F470C068F4143008F4F6
:103CA00001C1143708F45EC0123809F0FBC06091FE
:103CB0005D0289E365C0113A09F465C008F065C08A
:103CC000143809F0EFC060915D0287E459C0193AD9
:103CD00009F476C020F4183A08F06BC05AC01E3AB6
:103CE00009F47BC008F07DC01A3A09F4E1C0DAC0DB
:103CF0001E3D20F5103D08F0ADC0163C09F48EC005
:103D000088F4113C08F4CEC0EFE3E10FF0E0EE0FD1
:103D1000FF1FEF51FC4DE49180916803E82BE09385
:103D20006803C6C0183C09F483C008F47BC0193C82
:103D300009F0B8C0809179028F5F7DC0183E50F4C1
:103D4000103E08F0ACC01E3D09F487C01F3D09F4C9
:103D500098C0A8C08FE0810F893008F0A3C0812FE0
:103D60003EDEA6C080916B03882321F0812F6983FA
:103D700005DE6981812F55DF9BC060915D0283E57F
:103D80000E940C1595C051D493C029D491C019D468
:103D90008FC080916B0381118BC081E080936B0396
:103DA00010927901809371038CE5810F8093430415
:103DB0005EC09091710381E089278093710378C080
:103DC00090916E0381E0892780936E03811102C078
:103DD00085E055C085E026D36BC082E08093C401A6
:103DE00067C080918D01811163C081E080938D0156
:103DF0005FC080911B0390911C03892B09F058C070
:103E0000E0E5E10FF0E0EE0FFF1FE054FC4D85917F
:103E1000949190931C0380931B034AC08091690383
:103E20008F5F03C08091690381508093690305C04F
:103E30008091790281508093790290912C04809135
:103E40006F03992321F090912A04981788F58093A5
:103E50002A042EC0812FAEDD2BC090916B0381E030
:103E6000892780936B03882321F01092790180E1E8
:103E7000B2CF8091790181118093690180E1F2D202
:103E800017C080916B03811113C060916901062EE8
:103E9000000C770B8AE792E00E94591509C0812F28
:103EA00037DE06C0612F70E040E084E40E94F9151F
:103EB00010935E020F90DF91CF911F9108951F9391
:103EC000CF93DF9300D01F92CDB7DEB7182F862F88
:103ED000807F11F010926701163C28F5113C08F024
:103EE00093C01B3AB0F4113A08F0D2C0123809F46A
:103EF00065C028F48CEF810F8037C8F1BDC013383E
:103F000009F460C0143809F0B7C060915D0287E41D
:103F10005CC01E3A08F4B0C0103B08F4B9C0103CB5
:103F200008F45BC0A9C0103E90F4103D08F0B0C08A
:103F3000173C09F47DC008F477C0183C09F47EC032
:103F4000193C09F099C08091790281507AC0183EDD
:103F500008F47AC08FE0810F893008F08DC0812F7E
:103F60000F900F900F90DF91CF911F9163CD8091B3
:103F70006B038823D9F0809171038823B9F018323C
:103F800011F01B3299F41092710310926B0380911F
:103F900079018150809369011092440480E12B8360
:103FA0004A8369835FD269814A812B81812F0F9077
:103FB0000F900F90DF91CF911F9143CE60915D02E2
:103FC00089E303C060915D0283E50F900F900F902D
:103FD000DF91CF911F910C940C1560E5610FE62FD6
:103FE000F0E0EE0FFF1FE054FC4D8591949120917D
:103FF0001B0330911C032817390709F049C01092A0
:104000001C0310921B0344C06FE3610FE62FF0E026
:10401000EE0FFF1FEF51FC4DE491E0958091680396
:10402000E823E093680334C080916903815003C0A2
:10403000809169038F5F809369032AC08091790220
:104040008F5F8093790224C080916B03882361F095
:1040500080915E02811308C080E02B834A836983CC
:104060008DDC69814A812B81812F0F900F900F90F9
:10407000DF91CF911F9178CD612F70E040E085E412
:104080000F900F900F90DF91CF911F910C94F91525
:104090000F900F900F90DF91CF911F910895209175
:1040A0005D02227291E009F090E020913F0422230A
:1040B00059F020916C03222339F0992329F022EE44
:1040C000280F2A3008F4855C20913304222321F143
:1040D000833571F490916C0381E0892780936C03A0
:1040E000882319F080E09ED11FC080E0BBD11CC0A6
:1040F00027EA280F2B3080F420916C03E82FF0E0A2
:10410000EE0FFF1F222329F0992319F0E850FD4DEF
:1041100002C0E750FD4D84918A3A39F4911102C0F2
:1041200085E3089589E2089580E008959F92AF9213
:10413000BF92CF92DF92EF92FF920F931F93CF9394
:10414000DF931F92CDB7DEB79FE0899F90011124C6
:10415000260F311DF901E05FFD4F6F01B080F901BD
:10416000E35EFC4F7F01A08089010B531E4FF801D5
:1041700090809E012F5F3F4FE9DB2981492D6A2DF9
:104180008B2D9DDEF6011082F7011082F80110825E
:104190000F90DF91CF911F910F91FF90EF90DF90E3
:1041A000CF90BF90AF909F9008952FE0829FC00165
:1041B00011249C01260F311DF901E05FFD4F808124
:1041C000F901E35EFC4F908193FF1AC018161CF4AE
:1041D00060915D0213C0982F907E903E89F4E82F85
:1041E000F0E0EE0FFF1FE55DFD4D8491809590910D
:1041F0005D02892380935D02649180E00C940C152C
:10420000089520917103211112C0FC01A2E7B2E0D0
:10421000069621E030916D03332311F0208302C014
:104220003C91308331961196E817F90799F7089574
:1042300020917103211109C0DC01E5E6F2E08DE077
:104240008E0F91919D938E13FCCF0895FC01809168
:104250007103811106C08091670190915D02982BD6
:10426000908308952FE0829FC0011124FC01E60F86
:10427000F11DE053F84FE491E83211F0E83539F4DC
:1042800041E060E070E081E50E94F91550C40895B6
:10429000AF92BF92CF92DF92EF92FF920F931F9354
:1042A000CF93DF9300D01F92CDB7DEB7B82E062F85
:1042B00010E0809170039BE4D92E9FE0B99E7001BD
:1042C0001124F701D89EE00DF11D1124E00FF11F1C
:1042D000E053F84F84914A835B836983E0DEC82E04
:1042E000809170039701D89E200D311D1124200F5D
:1042F000311FF901EE51FB4FD490F901EC50FE4F04
:10430000A49080916A034A815B816981882379F056
:104310008B2D0F900F900F90DF91CF911F910F91E8
:10432000FF90EF90DF90CF90BF90AF909BCF0E0D9E
:104330001F1DF801E05FFD4FC082F801E35EFC4FF6
:10434000D082F801EB53FE4FA0828B2DE5DA4A2D87
:104350006D2D8C2D8ADC73D10F900F900F90DF9113
:10436000CF911F910F91FF90EF90DF90CF90BF9072
:10437000AF900C94B82A90E09C01220F331F820F5B
:10438000931FFC01E954F44E2491FC0131968B54A7
:10439000944EEB54F44E621721F06491FC01849129
:1043A0008FC96491FC0184919FC90F931F93CF9390
:1043B000DF93EAEDFBE1D49105EB1BE1C0E0CD1703
:1043C00069F0F80131966491F801849155D960E063
:1043D0008C2FD1DFCF5F0D5F1F4FF1CF809136045F
:1043E0008093810380937E0380912D0480937C03CE
:1043F000DF91CF911F910F91089580917A03893FAA
:1044000069F4809186038F3E19F41092860303C0ED
:104410008F5F8093860310927A0308958F5F809355
:104420007A03089590E0880F991FFC01E557F44E38
:10443000A491FC01E457F44E8491E9EDFBE1E49191
:10444000AE1778F4B0E0AE58BC4F811103C08C9128
:10445000816006C09C919170E82FEE0F892F8E0F1E
:104460008C93089590E0880F991FFC01E557F44E56
:10447000A491FC01E457F44E8491E9EDFBE1E49151
:10448000AE1780F4B0E0AE58BC4F811104C08C91DF
:104490008E7F8C9308959C91292F2695281302C016
:1044A00091709C930895823049F0833079F0813087
:1044B000A1F481E1B7DF82E1D5DF0CC081E1D2DF79
:1044C00082E1D0DF83E1AEDF84E1CCCF81E1CADFDE
:1044D00082E1A8DF83E1C6DFF7CF81E1C3DF82E1BC
:1044E000C1DF83E1BFDF84E19DCF0F931F93CF93A3
:1044F000E9EDFBE1E491C0E00E2F10E08C2F0C2ED3
:10450000000C990B8017910714F520917D0322234D
:10451000C9F0FC01EE58FC4F2081223018F4211123
:104520000FC010C0E22FE695F0E0E650FC4D64911C
:10453000809186030E94D531921720F490FF02C02B
:1045400061E001C060E08C2F16DFCF5FD7CFCF9145
:104550001F910F91089580918103803110F081E0C7
:1045600002C08C5F8C7F80938103089580918203C9
:104570008F5F813118F480938203089581E08093E6
:104580008203109280031092850308959091810315
:10459000903120F081E080937D0308958091800325
:1045A00020918203929F902D1124891738F491E075
:1045B00090937D03805F80938003089510927D0324
:1045C0000895EAE8FBE1E49180917C038F5F8E1708
:1045D00018F480937C03089510927C0308958091D1
:1045E00083038F5F843018F48093830302C010929A
:1045F000830380918303811103C08091810303C0F1
:10460000813021F484E080937E030895823031F478
:1046100084E080937E0310927F03089580E180936D
:104620007E0381E080937F03089595DF809183036B
:10463000811104C08091810380937E03089580914D
:104640008303823011F488E10BC0833071F48091D0
:104650007E03853010F0845003C0882321F0815000
:1046600080937E03089510927E03089580918403C1
:104670008F5F803318F4809384030895109284032D
:10468000909183039130B1F420917F0380917E0358
:10469000222341F08F5F80937E038831E0F01092F7
:1046A0007F030895815080937E038530A0F490931A
:1046B0007F030895923031F480917E03853058F065
:1046C000815007C0933039F480917E03803118F413
:1046D0008F5F80937E03089580917E03803120F068
:1046E00081E080937B03089590918203899F802DC0
:1046F000112490917F039111807F909185039817E9
:1047000038F481E080937B03905F90938503089554
:1047100010927B0308950F931F93CF93DF93EAEDDD
:10472000FBE1E49110E0CE2FD0E00CE0212F012E30
:10473000000C330B2C173D07E4F4F901E258F44E5A
:10474000E491EE23A1F080917B03882369F08091AE
:104750007C03F901089FE00DF11D1124E254F54E90
:10476000E49161E0E11101C060E0812F04DE1F5F90
:10477000DDCFDF91CF911F910F910895F7DE06DF16
:104780003CDEB3DE73DFA8DFC6CF1F920F920FB6F9
:104790000F9211240F900FBE0F901F901895E4E612
:1047A000F0E0808180718083A5E6B0E08C9186770F
:1047B0008C9380818160808380818460808380810C
:1047C000806280838081806480838C9188608C93F8
:1047D0008081806880838081826080838C91816009
:1047E0008C938C918F778C9390E080E80FB6F8943F
:1047F00080936100909361000FBE0895D0CF8DEA41
:104800009EED9093690480936804089580E189BDCA
:1048100082E189BD09B400FEFDCF8091D8008F7D73
:104820008093D8008091E00082608093E0008091C6
:10483000E00081FDFCCF0895CF92DF92EF92FF92CE
:104840001F93CF93DF93E1E5FCE1E491E0938703CD
:10485000E0E5FCE1E491E0938D03EFE4FCE1E49119
:10486000E0938E03EEE4FCE1E491E0938F0384E4B3
:10487000E82E8CE1F82E98E8C92E93E0D92E10E0AE
:10488000F701C4913196D4914D2F6C2F812F0E9446
:10489000501B4D2F4095F60141936F014C238091A1
:1048A0008D03642F6095811101C040E0812F0E942B
:1048B000891B1F5FF2E0EF0EF11C153009F7DF9145
:1048C000CF911F91FF90EF90DF90CF900895CF93FD
:1048D000DF93962F642F2FE0929FE0011124C40FE5
:1048E000D11DCC0FDD1FC057DC4F48815981882373
:1048F00001F157FF0EC02091400430E03195219521
:104900003109241735077CF1892FC2DC82E090E061
:1049100020C020913C0430913D044217530794F08D
:10492000892F43DC20912F0488819981821B910972
:1049300010C01416150684F42091400430E042178C
:1049400053071CF44E5F5F4F10C0892FEFDB8EEFD3
:104950009FEF998388830BC0809134049091350434
:104960008417950724F44250510959834883DF91F5
:10497000CF910895CF92DF92EF92FF920F931F9302
:10498000CF93DF93D62FC82FCD170CF05AC088E8ED
:10499000E82E83E0F82EF5E0CF026001112400E05C
:1049A00010E0F70161917F016F3F49F0F801EC0DD4
:1049B000FD1DE750F44E4491802F0E94891B0F5F2C
:1049C0001F4F0530110569F780913A048A95F1F778
:1049D00010E0212F012E000C330B80918F0390E00B
:1049E0002817390764F580918D03220F331FF901D1
:1049F000E452F44E882359F06491F901E552F44EE3
:104A000084910E94981B91E0882361F00AC0649110
:104A1000F901E552F44E84910E94981B91E08111B6
:104A200001C090E080918703882319F04C2F612FFB
:104A300002C0412F6C2F892F4ADF1F5FCACFCF5F83
:104A4000A3CFDF91CF911F910F91FF90EF90DF9057
:104A5000CF90089560918E0380E08CCF60918E039B
:104A6000669580E087CF80918E03682F869582CFF0
:104A700081E080932904089520912904AC01249FAA
:104A8000C001259F900D11246AE070E00E94E13181
:104A900080912804562F581B852F609328042F5F80
:104AA000209329042B3028F01092280491E0909351
:104AB0002904089580916903811104C080917902CD
:104AC000882311F181E080932C042091310480919E
:104AD0002A049091370430912B04311120C0899F12
:104AE000C0011124820F911DC7DF90916903899F36
:104AF000902D11249093270490917902899F802D05
:104B00001124809326040BC010922C0410922804C8
:104B100010922704109226048AE080932904809141
:104B20002B04811103C081E080932B040895CF935F
:104B3000DF93CDB7DEB763970FB6F894DEBF0FBE35
:104B4000CDBF59E15093320410923B0410923F04C0
:104B50001092300440E14093360410923E0436E057
:104B6000309340041092330410922D0480EF90E0B3
:104B7000909339048093380488E89FEF909335042C
:104B80008093340485E0809331042FE02093370430
:104B900060E273E070933D0460933C0490E2909374
:104BA0002F0480933A0459831A821B821C824D83FE
:104BB0001E823F831886198630EF3A871B8638E8B5
:104BC0003C873FEF3D878E872F87988B23E0298B8B
:104BD0009A8B8B8B43E150E060E070E0CE01019650
:104BE0000E94383263960FB6F894DEBF0FBECDBF79
:104BF000DF91CF9108950F931F93CF93DF93C7E079
:104C0000D4E2FE01329684913196E49190E0E23054
:104C100059F4FE0105911491805090400E94333266
:104C2000F8019183808309C0FE01059114918050A1
:104C300090400E942B32F80180832496F4E2C7341E
:104C4000DF07F9F660913204693131F070E041E03C
:104C500080E50E94F9156BDF80913E0480932E045D
:104C6000DF91CF911F910F91089524E0829FC001A1
:104C70001124FC01E75FFB4D2491FC01E65FFB4D35
:104C80003491FC01E95FFB4D822F90E0323041F41A
:104C9000A591B4916D917C91805090400C944F32CD
:104CA000A591B4916C91805090400C94413285E074
:104CB000809344040895809143042EE28202C0014F
:104CC0001124FC01E558F34E4491FC01E458F34EE5
:104CD0003491FC01E358F34E2491FC01E258F34E69
:104CE00094915091790180914104513079F01CF4F4
:104CF000552331F01FC0523081F05330A9F01AC053
:104D0000442321F06AE10E94D5312EC0332329F0DB
:104D10006AE10E94D531965E27C0222329F06AE01D
:104D20000E94D5319C5C20C0992321F0982F9F715F
:104D3000925C1AC0442311F06AE101C060E03111B5
:104D4000665E2111665F9111605E0E94D53141114E
:104D500001C0965E311103C09A3134F0965E211184
:104D600003C094330CF0965FE92F990FFF0BE95DB8
:104D7000FA4D8491089584509272E82FF0E0EE0F7E
:104D8000FF1F911103C0E95BFB4D02C0E85BFB4DC7
:104D9000849108950F931F93CF93DF93E091430481
:104DA00020917901022E000C330BCE2F0E2E000C19
:104DB000DD0B8EE2E802F0011124E658F34E649117
:104DC00070E0C9010E94F531082F109141046091F3
:104DD0006901062E000C770BC9010E94F531FC0118
:104DE000FF27EE0FFF1FE658FD4F80819181C3DF43
:104DF000810F982F990F87FD9F5F909341048EE25A
:104E00008C9FF0018D9FF00D1124E00FF11DEE5AE3
:104E1000F34EE49180914104E827E0934104DF914F
:104E2000CF911F910F910895EF92FF920F931F93CF
:104E3000CF93DF931F92CDB7DEB7809143042EE26C
:104E40008202C0011124FC01E158F34E6491062F47
:104E500010E020E530E0201B310B220F331FA901A9
:104E600046585D4F7A0120914404223009F444C031
:104E700028F4222351F02130C9F0AEC0233009F4C8
:104E80005BC0243009F47FC0A7C01092410421E028
:104E90002093440410927901FC01E658F34EE4910A
:104EA000E1119AC085E08093440496C02091790175
:104EB000FC01E20FF11D27FDFA95EE5AF34EE49145
:104EC000409141044E0F409341042F5F209379019C
:104ED000FC01E658F34E8491022E000C330B90E057
:104EE000281739070CF478C082E0809344041092AC
:104EF00079014093420470C010914204E09179011D
:104F0000EE0FFF0BE658FD4F80819181698333DFFF
:104F1000810F80934204909179019F5F9093790172
:104F200020916901698192170CF456C00E94D53115
:104F30009093420483E022C02DDF80914204E80E6A
:104F4000F11CE80EF11CB7DE0E94DB15F70191831E
:104F500080838091420490E00196B8010E94F5316F
:104F600080934204809179018F5F80937901082EAC
:104F7000000C990B801791077CF184E08093440426
:104F80001092790129C080917901282F220F330BCB
:104F9000FA01E20FF31F40815181F901E658FD4FFC
:104FA000518340838F5F80937901082E000C990B09
:104FB000801791078CF085E0809344046093690129
:104FC000B8018AE792E00F90DF91CF911F910F9186
:104FD000FF90EF900C9459150F90DF91CF911F9196
:104FE0000F91FF90EF90089580914404853009F06F
:104FF0001BCF089513BC109280001092820080E8AD
:105000009EE3909389008093880008951092450450
:105010007894109285001092840081E08093810042
:1050200082E080936F009AE088E10FB6F894A8952B
:10503000809360000FBE90936000E0E6F0E0808116
:10504000806C808308950FB6F894A89580916000D5
:10505000886180936000109260000FBEE0E6F0E08F
:1050600080818F7B808310926F0010928100089561
:105070002091840030918500E091450490915B047B
:1050800085E08E9FF0011124E90FF11DEE0FFF1F47
:10509000E95BFB4F408151814217530778F4E0915F
:1050A000450490915B048E9FF0011124E90FF11DDE
:1050B000EE0FFF1FE95BFB4F3183208308951F93A1
:1050C000CF93DF93C0E0D0E015E080914504FE016E
:1050D000189FE00DF11D1124EE0FFF1FE65FF24E49
:1050E00085919491009729F0C0935B04FC01099588
:1050F000BFDF2196C530D10541F7DF91CF911F91D8
:1051000008951092850010928400809146048823AF
:1051100081F08091450460915B0470E0782B40E061
:1051200081E10E94F915809146048F5F80934604C7
:10513000089581E0809346047894C1DF809145040E
:105140008F5F80934504823010F010924504809167
:105150004604823038F06091460470E040E084E11B
:105160000E94F915A8951092460408951F920F9277
:105170000FB60F9211242F933F934F935F936F932A
:105180007F938F939F93AF93BF93EF93FF93B9DF79
:10519000FF91EF91BF91AF919F918F917F916F910F
:1051A0005F914F913F912F910F900FBE0F901F90E5
:1051B0001895E7E4F4E011821082138212821582BE
:1051C000148217821682118610861386128615861F
:1051D000148617861686118A108A138A128A0895F1
:1051E000292F33272330310511F13CF421303105CB
:1051F00061F02230310571F070C02132310531F19A
:105200002232310509F43DC068C082E190E020EA15
:1052100036E26CC080912E04833009F44AC081309C
:1052200009F44CC084E590E02CE436E25FC0992795
:10523000009731F0019709F050C0E6E8F5E202C0AE
:10524000E2EDF5E2849190E09F0150C0613049F0B9
:1052500068F0623009F041C089E090E020E936E270
:1052600045C089E090E027E736E240C080912E04F7
:10527000833049F1813061F189E090E02EE536E23A
:1052800035C0613041F060F0623039F58BE190E07B
:1052900022EB36E22BC08AE390E02DEC36E226C00A
:1052A00080912E0480FD1EC08FE390E027E037E25E
:1052B0001DC082E290E026ED35E218C084E590E062
:1052C00028EF35E213C089E090E028EE35E20EC009
:1052D00089E090E02AE036E209C080E090E020E03A
:1052E00030E004C08FE390E026E437E2FA01318336
:1052F0002083089581E0D7C80895CF93DF9380E29B
:1053000091E030D7C82F80912E0481FD09C080E143
:1053100091E028D7D82F80E091E024D78D23C823AF
:10532000CC2311F080E001C083E0BDD88091E20081
:1053300084608093E200DF91CF91089580E291E054
:10534000D9D580912E0481FD06C080E191E0D2D5AF
:1053500080E091E0CFC5089580912E0190912F01BA
:10536000009729F0019790932F0180932E0180914F
:105370002E0481FD16C080911E0190911F0100979F
:1053800029F0019790931F0180931E0180910E01D7
:1053900090910F01009729F0019790930F0180934E
:1053A0000E01089580E07FC882E07DC880E07BC860
:1053B0000F931F93CF93DF93F90121E0803292077F
:1053C000F9F4EF011092780120912E04CF0102969A
:1053D00020FD07C020912901222319F00E941821E5
:1053E00002C00E940121CE010E94262180912E043C
:1053F00080FF03C088E090E024C082E190E021C0FB
:1054000080519140B1F410922B0480916803808305
:1054100080912704818380912604828383E090E039
:10542000F8019183808381E090912C0491110DC04B
:105430000BC080911B0390911C039183808382E0B9
:1054400090E0F8019183808380E0DF91CF911F91FC
:105450000F910895CF93DF938052914009F057C088
:10546000E90180913304811114C0988180913F0437
:1054700090FF09C0882319F081E080936C0380E0DD
:105480000E94122206C0811110926C0380E00E94DB
:105490003222888181FF04C081E00E94122203C071
:1054A00081E00E943222888182FF0EC082E00E9449
:1054B000122280913B04882399F081E080936E034F
:1054C00085E00E9412220CC082E00E94322280916C
:1054D0003B04882329F010926E0385E00E9432225B
:1054E000888183FF04C083E00E94122203C083E00E
:1054F0000E943222888184FF05C084E0DF91CF9131
:105500000C94122284E0DF91CF910C943222DF912F
:10551000CF91089580912E0480FF09C088E0809388
:10552000280188E090E09093230180932201089560
:1055300080E291E02AD680912E0481FD06C080E1B0
:1055400091E023D680E091E020D6BAD480915F0428
:1055500090914E01981759F060915F0470E041E01E
:1055600086EA0E94F91580915F0480934E010895A8
:1055700080915D04882329F080915F04853009F4CF
:1055800045C90895CF92DF92EF92FF920F931F9338
:10559000CF93DF93EC018B017A01DED1811133C00F
:1055A000E114F10439F0F70180819181081B190B96
:1055B000C80FD91FC12CD12C0115110519F18091EB
:1055C000E80085FD16C08091E8008E778093E800A2
:1055D00077D4E114F10449F0F70180819181C80E7C
:1055E000D91ED182C08285E00EC0B6D1882321F3B6
:1055F0000AC089918093F10001501109FFEFCF1A81
:10560000DF0ADACF80E0DF91CF911F910F91FF90F9
:10561000EF90DF90CF900895209166043091670459
:105620002617370748F06115710539F42091E80015
:105630002E772093E80001C0B90140E061157105A3
:10564000A9F120915F04222309F443C0253009F415
:1056500042C02091E80023FD40C02091E80022FDD7
:1056600032C02091E80020FFE9CF4091F300209163
:10567000F20030E0342BFC01CF016115710559F0C7
:105680002830310540F481918093F1006150710917
:105690002F5F3F4FF1CF41E02830310509F040E066
:1056A0002091E8002E772093E800C8CF4111C9CFA0
:1056B0000AC080915F04882361F0853061F0809199
:1056C000E80083FD0AC08091E80082FFF2CF80E00D
:1056D000089582E0089583E0089581E008956115BA
:1056E000710529F42091E8002B772093E800FC0154
:1056F0006115710541F180915F04882361F1853066
:1057000061F18091E80083FD24C08091E80082FF70
:10571000EFCF2091F3008091F20090E0922B892B43
:1057200031F08091F10081936150710991F780917E
:10573000E8008B778093E800DBCF80915F048823BB
:1057400051F0853051F08091E80080FFF6CF80E085
:10575000089581E0089582E0089583E008952091FE
:105760006604309167042617370748F06115710504
:1057700039F42091E8002E772093E80001C0B901A8
:10578000FC0120E06115710591F180915F0488238F
:1057900009F440C0853009F43FC08091E80083FDE2
:1057A0003DC08091E80082FD2FC08091E80080FF1D
:1057B000E9CF2091F3008091F20090E0922B6115E7
:1057C000710559F08830910540F424912093F1003F
:1057D0003196615071090196F2CF21E0089709F0E6
:1057E00020E08091E8008E778093E800CBCF2111F4
:1057F000CCCF0AC080915F04882361F0853061F0CE
:105800008091E80083FD0AC08091E80082FFF2CF1A
:1058100080E0089582E0089583E0089581E008958E
:10582000982F973058F59093E900981739F07091B8
:10583000EC002091ED005091F00003C0242F762F52
:1058400050E021FF19C03091EB003E7F3093EB0018
:105850003091ED003D7F3093ED003091EB003160F1
:105860003093EB007093EC002093ED005093F00028
:105870002091EE0027FF07C09F5FD3CF8F708093EA
:10588000E90081E0089580E00895EF92FF920F9380
:105890001F93CF93DF93E62EEC018C010C5F1F4F1B
:1058A000F12CFE1491F15881552351F1F80120811A
:1058B00069817A8131979081852F8F70873010F0C0
:1058C00080E024C0223010F442E001C046E0E8E06D
:1058D000F0E020E0E617F70720F42F5FEE0FFF1F40
:1058E000F9CF2295207F422BF0E49F9F9001112455
:1058F000551F5527551F652F622B92DF882301F313
:10590000F39425960B5F1F4FCCCF81E0DF91CF91B1
:105910001F910F91FF90EF9008958091600487FF91
:1059200011C08091E80082FD05C080915F04811163
:10593000F8CF11C08091E8008B770BC080915F0495
:10594000882349F08091E80080FFF8CF8091E8003B
:105950008E778093E80008952091E4003091E5006F
:1059600095E64091EC00842F817040FF22C0809129
:10597000E80080FD1CC080915F04882391F0853091
:1059800091F08091EB0085FD10C04091E4005091B2
:10599000E5004217530729F39A01915011F784E06B
:1059A000089582E0089583E0089581E0089580E0FD
:1059B00008954091E80042FFDECF089565D06CD095
:1059C000E0EEF0E0808181608083E8EDF0E08081AE
:1059D0008F77808319BCA7EDB0E08C918E7F8C937C
:1059E00080818F7E808310925E0408950F931F93B1
:1059F000CF93DF9349D050D0C8EDD0E088818F7726
:105A0000888388818068888388818F7D888319BC9A
:105A100010925F0410925C0410925D0400EE10E09E
:105A2000F80180818B7F808388818160888342E058
:105A300060E080E0F5DEE1EEF0E080818E7F808343
:105A4000E2EEF0E0808181608083808188608083E5
:105A5000F80180818E7F8083888180618883DF91D7
:105A6000CF911F910F910895E8EDF0E080818F7E36
:105A70008083E7EDF0E080818160808384E082BFF5
:105A800081E080935E04B2CFE8EDF0E080818E7F0C
:105A900080831092E20008951092DA001092E100E3
:105AA00008951F920F920FB60F9211242F933F93D8
:105AB0004F935F936F937F938F939F93AF93BF9316
:105AC000EF93FF938091E10082FF0AC08091E20092
:105AD00082FF06C08091E1008B7F8093E1003CDC77
:105AE0008091DA0080FF1DC08091D80080FF19C02E
:105AF0008091DA008E7F8093DA008091D90080FF58
:105B00000CC080E189BD82E189BD09B400FEFDCFF2
:105B100081E080935F04EEDB04C019BC10925F0447
:105B2000EBDB8091E10080FF18C08091E20080FFF4
:105B300014C08091E2008E7F8093E2008091E200A9
:105B400080618093E2008091D80080628093D800C9
:105B500019BC85E080935F0427DC8091E10084FF1D
:105B60002FC08091E20084FF2BC080E189BD82E1DB
:105B700089BD09B400FEFDCF8091D8008F7D809350
:105B8000D8008091E1008F7E8093E1008091E20057
:105B90008F7E8093E2008091E20081608093E2003A
:105BA00080915C04882311F084E007C08091E300B9
:105BB00087FD02C081E001C083E080935F04F6DBD3
:105BC0008091E10083FF22C08091E20083FF1EC02C
:105BD0008091E100877F8093E10082E080935F0401
:105BE00010925C048091E1008E7F8093E1008091AF
:105BF000E2008E7F8093E2008091E20080618093DA
:105C0000E20042E060E080E00BDECCDBFF91EF9150
:105C1000BF91AF919F918F917F916F915F914F91C4
:105C20003F912F910F900FBE0F901F9018951F93CB
:105C3000CF93DF93CDB7DEB7AA970FB6F894DEBF48
:105C40000FBECDBFE0E6F4E088E08E0F9091F1004A
:105C500091938E13FBCF72DB8091E80083FF18C114
:105C60008091600490916104492F50E04A305105C1
:105C700008F00EC1FA01E059FF4FCAC3803881F025
:105C8000823809F005C1809164048F708093E90027
:105C90008091EB0085FB882780F91092E90007C00E
:105CA00080915D04882311F082E001C080E0909132
:105CB000E800977F9093E8008093F1001092F10044
:105CC000C4C0282F2D7F09F0E3C0882319F082304B
:105CD00061F0DEC080916204813009F0D9C0933058
:105CE00009F080E080935D042BC0809162048111F3
:105CF00027C0809164048F7009F4CAC08093E900C2
:105D00002091EB0020FF1CC0933021F48091EB0028
:105D1000806214C09091EB0090619093EB0021E0C1
:105D200030E0A90102C0440F551F8A95E2F7409365
:105D3000EA001092EA008091EB0088608093EB000B
:105D40001092E9008091E800877F82C08111A0C095
:105D5000109162041F778091E3008078812B8093FB
:105D6000E3008091E800877F8093E800D6DD809192
:105D7000E80080FFFCCF8091E30080688093E3001F
:105D8000111102C082E001C083E080935F0480C0F3
:105D90008058823008F07CC0809162049091630446
:105DA0008C3D53E0950771F583E08A838AE289830D
:105DB0004FB7F894DE01139620E03EE051E2E32F66
:105DC000F0E050935700E49120FF03C0E295EF709C
:105DD0003F5FEF708E2F90E0EA3010F0C79601C061
:105DE000C0968D939D932F5F243149F74FBF8091CB
:105DF000E800877F8093E8006AE270E0CE010196B8
:105E00000BDC12C0AE014F5F5F4F60916404E8D9B4
:105E1000BC01892B09F43CC09091E800977F9093D6
:105E2000E80089819A819BDC8091E8008B778093E0
:105E3000E8002EC0803861F58091E800877F80936C
:105E4000E80080915C048093F1008091E8008E77F7
:105E50008093E80062DD1CC081111AC09091620439
:105E60009230B0F48091E800877F8093E8009093AF
:105E70005C0453DD80915C04811106C08091E300D5
:105E800087FD02C081E001C084E080935F0435DAC1
:105E90008091E80083FF0AC08091E800877F8093AB
:105EA000E8008091EB0080628093EB00AA960FB629
:105EB000F894DEBF0FBECDBFDF91CF911F91089543
:105EC000CF9380915F04882399F0C091E900CF704F
:105ED0009091EC00892F817090FD80E8C82B109282
:105EE000E9008091E80083FDA2DECF70C093E90055
:105EF000CF9108956F927F928F929F92AF92BF92AF
:105F0000CF92DF92EF92FF920F931F93CF93DF9385
:105F100000D01F92CDB7DEB77C01CDB6DEB6809142
:105F2000E80083FF08C1F701808190E020916404BC
:105F3000309165042817390709F0FDC0809161048C
:105F4000833009F49FC030F4813071F0823009F45D
:105F5000D6C0F1C08A3009F4BAC08B3009F4A3C0AE
:105F6000893009F0E8C051C080916004813A09F09D
:105F7000E2C08DB69EB61A82198280916204109199
:105F800063048B83F7018085482F50E08DB79EB75F
:105F9000841B950B0FB6F8949EBF0FBE8DBFEDB757
:105FA000FEB731965F0160E070E0CF014DD24FEF58
:105FB000410F8E010F5F1F4F9501BE016D5F7F4F37
:105FC000C701F6D9F70186819781009721F04085B6
:105FD00050E0B50130D21092E9008091E800877F4F
:105FE0008093E8008B8181118093F10069817A812F
:105FF000C50112DB8091E8008B778093E8000FB633
:10600000F8949EBE0FBE8DBE96C080916004813212
:1060100009F091C0ADB6BEB6009166041091670458
:1060200070906204609063048DB79EB7801B910BE3
:106030000FB6F8949EBF0FBE8DBFEDB7FEB7319679
:106040004F018091E800877F8093E800B801CF017D
:1060500046DB8091E8008E778093E80021E07110A4
:1060600001C020E030E0021B130B280D391D4FEF5B
:10607000460D672DC701EED90FB6F894BEBE0FBE10
:10608000ADBE59C080916004813A09F054C080913E
:10609000E800877F8093E8008091E80080FFFCCFD4
:1060A000F701818540C080916004813209F043C0CE
:1060B0008091E800877F8093E8002FDC9091620454
:1060C00081E0911101C080E0F701818734C08091A7
:1060D0006004813281F58091E800877F8093E80039
:1060E0001CDC8091620490916304882736E09695C9
:1060F00087953A95E1F7F701958784871CC08091D1
:106100006004813AC1F48091E800877F8093E800C1
:106110008091E80080FFFCCFF701848595859695F6
:106120008795969587958093F1008091E8008E770A
:106130008093E800F2DB0FB6F894DEBE0FBECDBE52
:106140000F900F900F90DF91CF911F910F91FF90C3
:10615000EF90DF90CF90BF90AF909F908F907F9007
:106160006F900895FC01399627E0DF011D922A9572
:10617000E9F721E0FC01218724EF31E0358724870E
:1061800023E0248361E0019680CB4F925F926F926F
:106190007F928F929F92AF92BF92CF92DF92EF92B7
:1061A000FF920F931F93CF93DF9300D01F92CDB731
:1061B000DEB77C01ADB6BEB680915F04843009F0D5
:1061C0008DC08091E4009091E500F7012285338530
:1061D0002817390709F482C081818F708093E90004
:1061E0008091E80085FF7AC08DB69EB6408550E06C
:1061F0008DB79EB7841B950B0FB6F8949EBF0FBE4C
:106200008DBFEDB7FEB731966F011B821A821982DE
:1062100060E070E0CF0118D18E010F5F1F4F960133
:1062200040E0BE016D5F7F4FC701C2D8482EF70125
:1062300084859585892B51F091E080E0268537850E
:10624000232B09F090E0092F182F02C000E010E086
:10625000F701668077806114710489F049815A8161
:10626000B301C601DBD055245394892B09F4512C7A
:10627000F701408550E0B601C301DDD001C0512CCB
:1062800089819A81892BF1F0411004C0511002C01C
:10629000012BC1F0F70184859585978786878181D9
:1062A0008F708093E9008B8181118093F100698167
:1062B0007A8140E050E0C60165D98091E8008E7790
:1062C0008093E8008091E4009091E500F7019387C6
:1062D00082870FB6F8949EBE0FBE8DBE0FB6F8949F
:1062E000BEBE0FBEADBE0F900F900F90DF91CF914D
:1062F0001F910F91FF90EF90DF90CF90BF90AF90E4
:106300009F908F907F906F905F904F900895089529
:106310000E94FE230E94E4150E94FB250E94D521C5
:106320000E941C240E94871C0E9438250E94081489
:106330000E9457260E94FA27EDD881E080936A03D5
:106340000E942A2510926A038FCB0E940628809112
:10635000C4018823E1F30C94232830DBF8942FEF59
:1063600087EA91E6215080409040E1F700C00000AC
:106370008091C401823011F40E94FF238091C401F6
:10638000882359F09CE088E10FB6F894A895809393
:1063900060000FBE90936000FFCF0895B8DFB8DFB4
:1063A000D4DFDBDF80E090E00895991B79E004C042
:1063B000991F961708F0961B881F7A95C9F7809544
:1063C0000895AA1BBB1B51E107C0AA1FBB1FA6173C
:1063D000B70710F0A61BB70B881F991F5A95A9F78E
:1063E00080959095BC01CD01089597FB072E16F47A
:1063F000009406D077FD08D0E4DF07FC05D03EF41A
:10640000909581959F4F0895709561957F4F089560
:10641000EE0FFF1F0590F491E02D0994FB01DC01C4
:1064200004C08D910190801921F441505040C8F76B
:10643000881B990B0895FB01DC0102C001900D92AD
:1064400041505040D8F70895DC0101C06D93415090
:106450005040E0F70895F999FECF92BD81BDF89ABA
:10646000992780B50895A8E1B0E042E050E01CC053
:10647000DC01CB0102C02D9105D041505040D8F72E
:106480000895262FF999FECF1FBA92BD81BD20BD78
:106490000FB6F894FA9AF99A0FBE01960895F1DFB3
:1064A000272FF0CFDC01CB01FC01F999FECF06C00C
:1064B000F2BDE1BDF89A319600B40D9241505040C2
:0864C000B8F70895F894FFCF2E
:1064C8000283020000014F010200000000000000EA
:1064D80001820300000151010300000000000000D8
:1064E80000811200000154011200000000000000A9
:1064F8002400250023002700280026002A002B005E
:0E65080029002D002E002C00300031002F0045
:00000001FF
