:100000000C94CC130C941B140C941B140C941B1404
:100010000C941B140C941B140C941B140C941B14A4
:100020000C941B140C941B140C94552F0C941B143F
:100030000C9474250C941B140C941B140C941B141A
:100040000C941B140C94372A0C941B140C941B1442
:100050000C941B140C941B140C941B140C941B1464
:100060000C941B140C941B140C941B140C941B1454
:100070000C941B140C941B140C941B140C941B1444
:100080000C941B140C941B140C941B140C941B1434
:100090000C941B140C941B140C941B140C941B1424
:1000A0000C941B140C941B140C941B14511C2A1735
:1000B000301757175D171E192419E317E917C118D0
:1000C000C7184D196F198919A319B8190E1A4C1AA6
:1000D000741A891AA91ABF1A641AEC1B0F1C351C52
:1000E000F21A0F1B2E1B531B6C1B851BA51BCA1B57
:1000F0003A3061304A3161304A31AC30CD304A312A
:1001000020312F310000000000000000000000003E
:10011000000000002A002B0028000000000028003A
:1001200000000000000000000000000000000000CF
:100130000000000000000000000029000000000096
:10014000000000002C001E023402200221022202C4
:10015000240234002602270225022E0236002D003A
:100160003700380027001E001F0020002100220059
:1001700023002400250026003302330036022E001F
:10018000370238021F0204020502060207020802B3
:1001900009020A020B020C020D020E020F021002EB
:1001A000110212021302140215021602170218029B
:1001B00019021A021B021C021D022F00310030001E
:1001C00023022D0235000400050006000700080088
:1001D00009000A000B000C000D000E000F001000BB
:1001E000110012001300140015001600170018006B
:1001F00019001A001B001C001D002F0231023002E2
:1002000035024C000000000000000000000000006B
:1002100000000000000000000000000000000000DE
:1002200000000000000000000000000000000000CE
:1002300000000000000000000000000000000000BE
:1002400000000000000000000000000000000000AE
:101F00000000000000000000000000000000FF00D2
:101F1000FF00FF00FF00FF00FF00FF00FF00FF00C9
:101F2000FF00FF00FF00FF00FF00FF00FF00FF00B9
:101F3000FF00FF00FF00FF00FF00000000000000A6
:101F40000000000000000000000000000000000091
:101F50000000000000000000000000000000000081
:101F600000000000000000000000080C000000005D
:101F70000000000000000000000000000000000061
:101F80000000000000000000000000000000000051
:101F90000000000000000000000000000000000041
:101FA0000000000000000000000000000000000031
:101FB0000000000000000000000000000000000021
:101FC0000000000000000000000000000000000011
:101FD0000000000000000000000000000000000001
:101FE00000000000000000000000000000000000F1
:101FF0000000006D255028982800006D255628E423
:102000001500006D255F28111700006D256B280055
:102010000000004F7574206F662072616E67652E38
:102020000A00456E746572206E657720646566618E
:10203000756C742064696D6D6572206C6576656C75
:102040002028312D3136293E2000456E74657220DE
:102050006E65772064656661756C74206261636B80
:102060006C6967687420656E61626C652028312D2B
:102070003136293E2000456E746572206E657720EA
:1020800064656661756C74206261636B6C69676816
:1020900074206D6F64652028312D34293E20004561
:1020A0006E746572206E6577206D61747269782038
:1020B0007365747570207761697420696E20637927
:1020C000636C65732028312D323535293E2000455B
:1020D0006E746572206E657720726570656174201C
:1020E00074696D6520696E206D732028312D393932
:1020F000293E2000456E746572206E657720686FFA
:102100006C642074696D6520696E206D73202831C0
:102110002D393939293E2000456E746572206E656F
:1021200077206D6F757365206D6F76656D656E7464
:10213000206D756C7469706C6965722028312D3959
:1021400039293E2000456E746572206E65772062E5
:10215000617365206D6F757365206D6F76656D6554
:102160006E742028312D3939293E2000456E746562
:1021700072206E657720646F75626C657461702083
:1021800064656C61792074696D6520696E206D737A
:102190002028312D393939293E2000456E74657269
:1021A000206E6577207461702074696D6520696E9A
:1021B000206D732028312D393939293E2000456E94
:1021C000746572206E6577206465626F756E6365F5
:1021D0002074696D6520696E206D732028312D395A
:1021E00039293E20005365743A00456E74657220AB
:1021F0006E65772064656661756C74206C617965C5
:10220000722028302D39293E200053656C65637497
:102210002028303D4F46462C20313D4F4E293E2050
:10222000004F46460A004F4E0A00427974657320FB
:1022300028686578293E20004164647265737320C4
:1022400028686578293E200020532D3078005D20D5
:10225000432D3078000A5B00496E76616C6964201A
:10226000696E7075742E0A000A4C4544204D656EE7
:10227000753A0A3129205365742064656661756C6E
:10228000742064696D6D6572206C6576656C0A32C8
:1022900029205365742064656661756C74206261E1
:1022A000636B6C6967687420656E61626C650A3384
:1022B00029205365742064656661756C74206261C1
:1022C000636B6C69676874206D6F64650A392920D7
:1022D0004261636B0A3E20000A54696D696E672093
:1022E0004D656E753A0A3129205365742064656224
:1022F0006F756E63652074696D650A3229205365B8
:1023000074206D617820686F6C642074696D65203D
:10231000666F72207461700A332920536574206DD2
:1023200061782064656C61792074696D6520666FE1
:102330007220646F75626C65207461700A342920A4
:102340005365742062617365206D6F757365206DD0
:102350006F76656D656E740A352920536574206D3E
:102360006F757365206D6F76656D656E74206D7524
:102370006C7469706C6965720A3629205365742023
:102380006D696E20686F6C642074696D6520666F7E
:1023900072207265706561740A3729205365742054
:1023A00072657065617420706572696F640A38299E
:1023B00020536574206D617472697820736574753B
:1023C0007020776169740A3929204261636B0A3E83
:1023D00020000A436F6E666967204D656E753A0A84
:1023E000312920536574207669727475616C206E92
:1023F000756D207061640A322920536574207769F5
:102400006E206C6F636B206F6E207363726F6C6CE9
:10241000206C6F636B0A33292053657420646566F2
:1024200061756C74206C617965720A34292053657A
:102430007420626F6F74206B6579626F6172640AD9
:1024400035292053657420756E6C696E6B206E752E
:102450006D206C6F636B0A36292053657420616CA4
:102460007465726E617465206465626F756E636514
:10247000207374796C650A3929204261636B0A3EC6
:1024800020000A4465627567204D656E753A0A3111
:1024900029205072696E74206576656E74730A32F5
:1024A0002920436C656172206576656E74730A330A
:1024B00029204578616D696E65206D656D6F727953
:1024C0000A3429205072696E742F636C6561722022
:1024D000636C6F636B2D696E730A392920426163E7
:1024E0006B0A3E20000A4D61696E204D656E753A9B
:1024F0000A312920436F6E666967206D656E750A23
:1025000032292054696D696E67206D656E750A33D6
:1025100029204C4544206D656E750A342920446598
:10252000627567206D656E750A3529205265736581
:10253000740A392920517569740A3E20001E4D1F06
:1025400051204E21502200234F244A2552264B274A
:1025500049374CB500B600B700CD006F007000E2FF
:1025600000E500E900EA00520153015401550183DE
:10257000018A0192019401210223022402250226EC
:102580000227022A02B101B202B304B408B510E076
:1025900001E102E204E308E410E520E640E78001FF
:1025A00005080A0C0F10141418180038BC04000198
:1025B000C6040101CA040201BA040301C1040401F2
:1025C000C9040501CB040601BD040701C0040801CC
:1025D000C3040902BE040B02BB040D01C2040E01B8
:1025E000C7040F02B9041101C5041201B704130195
:1025F000B80414014A0345006100730079004100EA
:102600005600520020004D0075006C0074006900F7
:102610006D00650064006900610020004B006500EA
:10262000790062006F006100720064002000760093
:1026300023002E00230023002E002300230000008F
:102640000403090409026D00040100A0FA09040052
:102650000001030101000921B0010001224000072F
:1026600005810308000109040100010300000009BD
:1026700021B001000122320007058203030008098E
:1026800004020001030000000921B001000122271B
:1026900000070583030E0001090403000103010282
:1026A000000921B0010001223A000705840303005C
:1026B000051201000200000008EB03FF20100000DB
:1026C000010001050C0901A1018502160100269CEB
:1026D000021A01002A9C02751095018100C00501B3
:1026E0000980A1018503198129837501950381065C
:1026F00095058101C005010902A1010901A100059B
:102700000919012903150025019503750181029519
:1027100001750581010501093009311681FF267F08
:1027200000360000460000950275088106C0C0050D
:10273000010906A101050719E029E7150025017522
:1027400001950881021500250105071900296795E3
:102750006875018102C005010906A101050719E09C
:1027600029E7150025017501950881029501750875
:102770008101050819012905950575019102950149
:1027800075039101150026FF000507190029FF9523
:102790000675088100C00F00E0E8F5E085EC9AE0DE
:1027A00001C08193EF3FF907E0F3D9F311241FBE75
:1027B000CFEFDAE0DEBFCDBFC4B714BE0FB6F894DA
:1027C000A8958091600088618093600010926000FD
:1027D0000FBEC3FF11C080917E0590917F058D3A99
:1027E0009E4D51F410927F0510927E05EAEAF5E2C3
:1027F00025913491F901099585B7806885BF85B722
:10280000806885BFC0937D0511E0A0E0B1E0E6EAF5
:10281000F8E602C005900D92AE35B107D9F724E075
:10282000AEE5B1E001C01D92A93FB207E1F70E94F9
:10283000D0330C9451340C94000010926C0110921F
:102840006B0110926701109266011092750110924F
:10285000740108959091BB038091B603892B9091E8
:10286000B503892B9091B403892B20916801222311
:1028700009F460C0811165C080916A01811156C060
:102880008091860181113DC090916101921305C034
:1028900010926801109261010895E92FF0E0EE0FA7
:1028A000FF1FEA58FE4F80812181813031F420934F
:1028B0006A019F5F90936101089590916201921760
:1028C00031F02093620181E08093BB0308958093EF
:1028D000860118161CF40E94DA1C0DC099E6980FA8
:1028E000993118F40E94C51D06C093E4980F9330E7
:1028F00010F40E94F41D809161018F5F809361014B
:10290000089587FD03C00E94121D0DC099E6980F1F
:10291000993118F40E94DC1D06C093E4980F93309F
:1029200010F40E94011E1092860108958150809338
:102930006A010895811105C0809169018D7F80939E
:10294000690108958091A30290916301981731F174
:1029500080936301882311F1883211F0883531F4B6
:10296000809169018B7F809369010895E0916501F1
:102970008A3251F4EE2391F0E150E0936501F0E0EA
:10298000E359FE4F10820895E63040F4AE2FB0E0D8
:10299000A359BE4F8C93EF5FE093650108951092A9
:1029A000620181E08093BB038091A302811102C088
:1029B000109269010895BC0180916801DB01982F94
:1029C000292F281B983058F090936801620F711DD1
:1029D00027FD7A95709375016093740122C0FD0103
:1029E00025913491211109C09093680110927501CD
:1029F000109274019923D1F014C0492F50E0F901CD
:102A0000FF27EE0FFF1FEC5FFE4F25913491440F1F
:102A1000551FFA01EA58FE4F318320839F5F1196BC
:102A2000CFCF8091690183608093690181E008952F
:102A30004091680128E030E0241B31092617370750
:102A400058F1B0E04B2F0B2E000C550B46175707D3
:102A5000D8F4A09168012A2F30E0FC01E40FF51FA3
:102A6000E081F0E0EE0FFF1FEC5FFE4F45915491C7
:102A7000220F331FF901EA58FE4F51834083AF5FA5
:102A8000A0936801BF5FDECF672B41F080916901A1
:102A900083608093690102C080E0089581E0089519
:102AA00090916801983090F4E92FF0E0EE0FFF1F4D
:102AB000EA58FE4F808361839F5F90936801809105
:102AC000690183608093690181E0089580E0089541
:102AD0009C019091680191112EC0A901983049F490
:102AE00090936801205F3F4F30936C0120936B01FE
:102AF0001BC0FA01659174914E5F5F4F61157105BE
:102B000049F49093680110926C0110926B01992323
:102B100081F00AC0E92FF0E0EE0FFF1FEA58FE4FE8
:102B2000718360839F5FDACF8091690183608093B6
:102B3000690181E0089580E00895AC018091680109
:102B400081113EC060937301282F082E000C330BB7
:102B50002617370758F590916801220F331F9830D8
:102B600038F0240F351F30936701209366011EC093
:102B7000FA01E20FF31F20813181E92FF0E0EE0F1F
:102B8000FF1FEA58FE4F318320839F5F90936801B7
:102B900090917301915090937301911105C010921F
:102BA00067011092660102C08F5FCECF80916801ED
:102BB000882341F08091690183608093690102C09C
:102BC00080E0089581E0089590916901992329F1A9
:102BD00091FD40CE20916B0130916C0121153105A2
:102BE00011F0C90175CF209166013091670121155F
:102BF000310539F060917301062E000C770BC90185
:102C00009CCF20917401309175012115310511F08F
:102C1000C901D1CE92FD96CEC2CE0895EDE6F1E087
:102C20001082118212821382148215821092650121
:102C30008091A302809363018091690185608093F4
:102C40006901089508959091BD01903178F4E92FBC
:102C5000F0E09F01220F331FE20FF31FE857FE4FF2
:102C60008083728361839F5F9093BD0108954111BA
:102C70001BC04091BD0150E090E0292F092E000CAF
:102C8000330B2417350784F4F901EE0FFF1F2E0FC5
:102C90003F1FF901E857FE4F2081281303C07283BC
:102CA000618308959F5FE9CFCECF8A3010F4805DB5
:102CB0000895895C08951F93CF93DF93182FEB013C
:102CC00082958F70F2DF8883812F8F70EEDF89838A
:102CD000DF91CF911F9108951F93CF93DF93182F0A
:102CE000EB01892FE8DFBE016E5F7F4F812FDF91FF
:102CF000CF911F91E0CF8F929F92AF92BF92CF92D0
:102D0000DF92EF92FF920F931F93CF93DF931F9267
:102D1000CDB7DEB79C018B0180E3FB01808380E2AD
:102D20008183828383E0E82EF12C94E6892E912C16
:102D30004AE0B42E682D70E0911003C026173707C3
:102D400090F06801C90CD11C97FCDA94C9010E946B
:102D5000E333A82E862F9983A8DFF60180832A2DDE
:102D60009981392F9394882D6B2D0E94D733882E0B
:102D7000F1E0EF1AF108F1F60F90DF91CF911F917A
:102D80000F91FF90EF90DF90CF90BF90AF909F900A
:102D90008F90089597EA980F993010F48855089508
:102DA00092EE980F993010F48D5108959CEF980F82
:102DB000963010F48A5F089580E00895BF92CF9214
:102DC000DF92EF92FF920F931F93CF93DF937C01DB
:102DD0008B0180E090E0B12CC42FD0E02B2D0B2C88
:102DE000000C330B2017310790F48C9F60018D9FEE
:102DF000D00C9C9FD00C1124F701E20FF31F8081AF
:102E0000C9DF9601280F311DC901B394E7CFDF91C7
:102E1000CF911F910F91FF90EF90DF90CF90BF90D7
:102E200008950F931F93CF93DF9300D000D0CDB7B9
:102E3000DEB780916901811134C5E09187018E2F41
:102E400090E08232910508F02AC5FC01EA5AFF4F52
:102E50000C94F73385EE94E2AEDDE0DE82E0DCC474
:102E600011E01093870180916D0194DF893009F49E
:102E700016C5853019F41093BE0113C5813009F4CD
:102E800031C3823009F4C9C3833009F4C4C4843027
:102E900051F410C2843009F45DC0853009F46DC06E
:102EA000863009F47DC088E592E285DDFAC482EDC2
:102EB00093E281DDB3DE84E0AFC483E080938701D9
:102EC00080916D0167DF893011F481E0A5C4813004
:102ED00099F485EE91E26FDD8091CA04882319F0A0
:102EE00086E292E202C081E292E265DD8AE092E24D
:102EF00062DD94DE81E190C4823099F485EE91E246
:102F00005ADD8091C604882319F086E292E202C05D
:102F100081E292E250DD8AE092E24DDD7FDE82E1E5
:102F20007BC4833009F0B6CF85EE91E244DDBE016B
:102F30006F5F7F4F8091BA04BEDE8AE08B8363E0CF
:102F400070E0CE01019674DD8AEE91E234DD66DE3A
:102F500083E162C485EE91E22EDD8091C90488236D
:102F600019F086E292E202C081E292E224DD8AE078
:102F700092E221DD53DE84E14FC485EE91E21BDD58
:102F80008091BD04882319F086E292E202C081E2BA
:102F900092E211DD8AE092E20EDD40DE85E13CC482
:102FA00085EE91E208DD8091B704882319F086E26E
:102FB00092E202C081E292E2FEDC8AE092E2FBDC75
:102FC0002DDE86E129C488ED92E2F5DC27DE88E07B
:102FD00023C487E08093870180916D01DBDE893017
:102FE00009F473CF8130B9F485EE91E2E4DC80918D
:102FF000CB04BE016F5F7F4F90E07DDE8AE08B8364
:1030000063E070E0CE01019613DD8EEB91E2D3DC3C
:1030100005DE8AE101C48230C1F485EE91E2CBDCA9
:10302000BE016F5F7F4F8091C3049091C40463DE43
:103030008AE08C8364E070E0CE010196F9DC8BE9D4
:1030400091E2B9DCEBDD8BE1E7C38330D9F485EEA7
:1030500091E2B1DC8091BE049091BF04BE016F5F2C
:103060007F4F91958195910946DE8AE08C8364E0DB
:1030700070E0CE010196DCDC8CE691E29CDCCEDDDA
:103080008CE1CAC38430B9F485EE91E294DC80917E
:10309000BB04BE016F5F7F4F90E02DDE8AE08B8323
:1030A00063E070E0CE010196C3DC85E491E283DC4D
:1030B000B5DD8DE1B1C38530B9F485EE91E27BDCFD
:1030C0008091C204BE016F5F7F4F90E014DE8AE002
:1030D0008B8363E070E0CE010196AADC88E191E287
:1030E0006ADC9CDD8EE198C38630C1F485EE91E206
:1030F00062DCBE016F5F7F4F8091C7049091C8046E
:10310000FADD8AE08C8364E070E0CE01019690DC09
:1031100084EF90E250DC82DD8FE17EC38730B9F42A
:1031200085EE91E248DC8091B904BE016F5F7F4F6C
:1031300090E0E1DD8AE08B8363E070E0CE010196F0
:1031400077DC8FEC90E237DC69DD80E265C38830A4
:1031500009F0A7C385EE91E22EDC8091C504BE0183
:103160006F5F7F4F90E0C7DD8AE08C8364E070E0A2
:10317000CE0101965DDC8FE990E21DDC4FDD81E23E
:103180004BC388E692E217DC49DD8AE045C389E05B
:103190008093870180916D01FDDD893009F495CE22
:1031A0008130B9F485EE91E206DC8091C104BE0164
:1031B0006F5F7F4F90E09FDD8AE08B8363E070E07C
:1031C000CE01019635DC82E290E2F5DB27DD87E176
:1031D00023C38230C1F485EE91E2EDDB8091C0041F
:1031E00090E0BE016F5F7F4F019685DD8AE08B83A3
:1031F00063E070E0CE0101961BDC8AE490E2DBDB49
:103200000DDD88E109C3833009F04DCE85EE91E2F2
:10321000D2DB8091B80490E0BE016F5F7F4F0196D2
:103220006ADD8AE08B8363E070E0CE01019600DC0A
:1032300086E790E2C0DBF2DC89E1EEC282E894E24C
:10324000BADBECDC86E0E8C285E080938701809100
:103250006D01A0DD893009F438CE813011F48BE0A6
:10326000DBC2823069F4E8E8F1E010821282118258
:10327000339641E0E83BF407C1F71092BD0111C35A
:10328000833031F488E392E296DBC8DC8EE0C4C27E
:10329000843009F008CE80E1BFC28091BC0180314A
:1032A00058F01092BC018AE0898361E070E0CE01A1
:1032B0000196BEDB85E0B0C285E592E27CDBBE0113
:1032C0006F5F7F4F8091BC01F6DC62E070E0CE0161
:1032D0000196AEDB8EE492E26EDB8CE09DC28091C3
:1032E000BC0190E0FC01EE0FFF1F8E0F9F1FFC0141
:1032F000E857FE4FBE016F5F7F4F8081DCDC62E0EC
:1033000070E0CE01019694DB88E492E254DB8DE01C
:1033100083C28091BC0190E0FC01EE0FFF1F8E0F75
:103320009F1FFC01E857FE4FBE016F5F7F4F8181F9
:103330009281D2DC64E070E0CE01019679DB8BE013
:1033400080938701A3C06091650170E040E18DE644
:1033500091E034DD9093B9018093B8011092BB01E4
:103360001092BA018AE292E226DB58DC8FE054C266
:103370008091BA019091BB01892B89F40091B80129
:103380001091B9016091650170E040E18DE691E036
:1033900015DD800F911F9093BB018093BA0110E25D
:1033A0000AE0E091B801F091B9018091BA019091E1
:1033B000BB01E817F907D8F4BE016F5F7F4F80812A
:1033C0007ADC8091BA019091BB0101972091B801FC
:1033D0003091B9012817390711F40B8301C01B8301
:1033E00063E070E0CE01019623DB81110DC02091D6
:1033F000B8013091B9018091BA019091BB012817B1
:10340000390708F057CF4DC28091B8019091B901AA
:1034100001969093B9018093B801C3CF8091BC010C
:10342000803178F01092BC018AE0898361E070E01D
:10343000CE010196FDDA85E0809387010E945A2A29
:1034400030C2182F1370082F06950695111102C06F
:103450008AE001C080E2898361E070E0CE010196DC
:10346000E7DA84E0189FF0011124E00FF11DEE0F60
:10347000FF1FE353FB4FBE016F5F7F4F8081918140
:103480002BDC64E070E0CE010196D2DA8091BC01C1
:103490008F5F8093BC0105C26091650170E04AE0D6
:1034A0008DE691E08BDC82309105C8F48093CA04EC
:1034B00082E00E947E2985EE91E27DDA8091CA0445
:1034C000882309F48CC082C06091650170E04AE0F5
:1034D0008DE691E073DC8230910508F466C083E1EB
:1034E00090E269DA83E098C16091650170E04AE09A
:1034F0008DE691E063DC8230910588F78093C60405
:1035000081E00E947E2985EE91E255DA8091C60421
:10351000D7CF6091650170E04AE08DE691E04EDC26
:103520008A309105E0F68093BA0483E00E947E29F8
:1035300085EE91E240DABE016F5F7F4F8091BA0461
:10354000BADB8AE08B8363E070E0CE01019670DA2B
:10355000C9CF6091650170E04AE08DE691E02EDC14
:103560008230910508F0BBCF8093C90485E00E94AA
:103570007E2985EE91E21FDA8091C904A1CF609186
:10358000650170E04AE08DE691E018DC823091053B
:1035900008F0A5CF8093BD0487E00E947E2985EEC8
:1035A00091E209DA8091BD048BCF8093B70480E16A
:1035B0000E947E2985EE91E2FED98091B70488238E
:1035C00041F086E08093CB040E947E2986E292E25D
:1035D00088CF8CE08093CB0486E00E947E2981E234
:1035E00092E27FCF6091650170E04AE08DE691E064
:1035F000E5DB9C01215031092336310558F48093D5
:10360000CB0486E00E947E2985EE91E2D4D9809198
:10361000CB04B3C083E190E2CED987E0FDC06091D6
:10362000650170E04AE08DE691E0C8DB9C01215025
:103630003109273E334070F79093C4048093C3044C
:1036400089E00E947E2985EE91E2B5D9BE016F5FC7
:103650007F4F8091C3049091C404B8C0609165010C
:1036600070E04AE08DE691E0A9DB9C012150310930
:10367000273E334078F69195819591099093BF0448
:103680008093BE048AE00E947E2985EE91E293D960
:103690008091BE049091BF04BE016F5F7F4F9195F2
:1036A0008195910993C06091650170E04AE08DE6D3
:1036B00091E084DB9C01215031092336310508F06B
:1036C000A9CF8093BB048BE00E947E2985EE91E216
:1036D00072D98091BB0451C06091650170E04AE0ED
:1036E0008DE691E06BDB9C012150310923363105D9
:1036F00008F090CF8093C2048CE00E947E2985EE72
:1037000091E259D98091C20438C06091650170E09E
:103710004AE08DE691E052DB9C0121503109273EC1
:10372000334008F077CF9093C8048093C7048DE0AE
:103730000E947E2985EE91E23ED9BE016F5F7F4FE8
:103740008091C7049091C80441C06091650170E008
:103750004AE08DE691E032DB9C01215031092336AD
:10376000310508F057CF8093B9048EE00E947E297E
:1037700085EE91E220D98091B904BE016F5F7F4F41
:1037800090E0B9DA8AE08B8363E070E0CE010196C5
:103790004FD943CF6091650170E04AE08DE691E03A
:1037A0000DDB9C01215031092F3F310508F032CF4C
:1037B0008093C5048FE00E947E2985EE91E2FBD8BC
:1037C0008091C504BE016F5F7F4F90E094DA8AE07C
:1037D0008C8364E070E0DACF6091650170E04AE0CC
:1037E0008DE691E0EBDA9C01215031092031310561
:1037F00078F48093C10484E00E947E2985EE91E2F2
:10380000DAD88091C104BE016F5F7F4F90E024C081
:1038100083E190E2D0D889E08093870142C0609133
:10382000650170E04AE08DE691E0C8DA9C01215024
:1038300031092031310560F781508093C00488E060
:103840000E947E2985EE91E2B6D88091C00490E076
:10385000BE016F5F7F4F01964EDA8AE08B8363E093
:1038600070E0CE010196E4D8D6CF6091650170E09A
:103870004AE08DE691E0A2DA9C0121503109243022
:10388000310508F0C5CF81508093B80481E10E94D2
:103890007E2985EE91E28FD88091B804D8CF10921E
:1038A00087010F900F900F900F90DF91CF911F9194
:1038B0000F91089526E0829FC0011124FC01E05C75
:1038C000FE4F0190F081E02D208181E090E001C069
:1038D000880F6A95EAF7822B8083089526E0829FFD
:1038E000C0011124FC01E05CFE4F0190F081E02D4D
:1038F000808160956823462B4083089526E0829F4F
:10390000C0011124FC01E05CFE4F0280F381E02D38
:10391000208181E090E001C0880F6A95EAF7822B50
:103920008083089526E0829FC0011124FC01E05CA1
:10393000FE4F0280F381E02D208181E090E001C004
:10394000880F6A95EAF7809582238083089526E0A0
:10395000829FC0011124FC01E05CFE4F0280F381D4
:10396000E02D80816823462B4083089526E0829FC6
:10397000C0011124FC01E05CFE4F0480F581E02DC4
:10398000208181E090E001C0880F6A95EAF7922FCC
:10399000982381E009F480E0089526E0829FC00129
:1039A0001124FC01E05CFE4F0480F581E02D808154
:1039B00086230895E82FE695E695E695F0E0EA5629
:1039C000FD4F982F977021E030E001C0220F9A95AB
:1039D000EAF79081292B208391E09093B603909190
:1039E000900220E029175CF4E22F022E000CFF0B5E
:1039F000ED55FD4F30813817A1F02F5FF3CF963092
:103A00005CF4E92F092E000CFF0BED55FD4F808370
:103A10009F5F9093900208951092A90281E0809395
:103A2000BA030895E82FE695E695E695F0E0EA56A4
:103A3000FD4F982F977021E030E001C0220F9A953A
:103A4000EAF7209590812923208391E09093B60393
:103A50009091900243EA52E0FA012E2F241B29177D
:103A600024F431913813F9CF01C00895E22F022ECA
:103A7000000CFF0BED55FD4F818180832F5F2917CF
:103A8000ACF39150909390021092BA030895E82FEE
:103A9000E695E695E695F0E0EA56FD4F982F97708B
:103AA00021E030E001C0220F9A95EAF790812927A2
:103AB000208391E09093B6039091900243EA52E004
:103AC000FA012E2F241B291724F431913813F9CF32
:103AD00013C096305CF4E92F092E000CFF0BED5556
:103AE000FD4F80839F5F9093900208951092A902EA
:103AF00081E08093BA030895E22F022E000CFF0BA1
:103B0000ED55FD4F818180832F5F2917ACF39150D4
:103B1000909390021092BA03089590914B039430C1
:103B20005CF4E92F092E000CFF0BEF56FD4F80834C
:103B30009F5F90934B03089540E060E070E082E463
:103B400096D810929502089520914B0341E952E0D6
:103B5000FA019E2F941B92179CF431913813F9CFE0
:103B6000921751F0E92F092E000CFF0BEF56FD4F75
:103B7000818180839F5FF4CF915090934B03089590
:103B8000682F70E040E083E472C820914C033091CC
:103B90004D03232B69F48759E82FF0E0EE0FFF1F48
:103BA000ED5AFA4D8591949190934D0380934C0377
:103BB00081E08093B50308958759E82FF0E0EE0F78
:103BC000FF1FED5AFA4D8591949120914C0330914D
:103BD0004D032817390721F410924D0310924C031E
:103BE00081E08093B503089593E4980F81E001C0CC
:103BF000880F9A95EAF78093BF0381E08093B4031E
:103C000008951092BF0381E08093B40308958091DA
:103C1000BA048093BE03089591E1899F600D112439
:103C200080918B0268130DC08091BE049091BF04F7
:103C30008417950734F48091BD038F5F8093BD0393
:103C4000089510928B021092BD030895E091C30471
:103C5000F091C4044E175F0754F491E0F90190838A
:103C6000F1E18F9F600D112460938B020895F9019B
:103C7000108210928B021092BD03089590917301EF
:103C8000E92FEE0FFF0BE555FD4F20918D0230E03F
:103C9000322F2227282B3183208381E0890F8093C4
:103CA0007301803534F01092B9038093640180E190
:103CB0007FC508959091C003911111C0805D80313E
:103CC00070F4E82FF0E0EE0FFF1FE350F24F859104
:103CD0009491880F991F8350924F0C946815089502
:103CE000CF93DF93C82FD62F8091BE03882311F086
:103CF0008B5F5ED580E18C0F8093BE030EDF8091D9
:103D0000BE03882311F08B5F33D59091BE03809161
:103D1000BA04981711F08FE02BD58091BE039091D3
:103D20008C02D0FF02C0981308C0981308C080917D
:103D3000BD03811104C08091BA0480938C02DF918D
:103D4000CF910895E82FF0E0EC5FFD4F8491882338
:103D500011F060E0C5CF08950F931F93CF93DF93C9
:103D600000D01F92CDB7DEB7082F10E1180F809159
:103D7000BE03882341F08B5F2B834A83698318D568
:103D800069814A812B81222389F18091BE038113AD
:103D90002DC08091BD03882319F061FD10938C0222
:103DA00080918F02801322C062FF20C08FEF840FAA
:103DB000873620F460918D02842F16C0842F807E78
:103DC000803EA1F4E42FF0E0EE0FFF1FE053FC4D26
:103DD0008491809590918D02892380938D0281E05A
:103DE0008093BB03649180E00E945015812FACDE6C
:103DF000E0914B03E11103C080918C0206C00E2EAE
:103E0000000CFF0BE057FD4F80818093BE03809133
:103E1000BE03882311F08B5FABD49091BE038091D9
:103E2000BA04981309C08FE00F900F900F90DF91A4
:103E3000CF911F910F91BCC40F900F900F90DF9105
:103E4000CF911F910F910895E82FF0E0EC5FFD4FA7
:103E50008491882321F020E040E060E07DCF089548
:103E60006F70623051F028F4662339F06130E1F070
:103E70000895643011F0683011F5E82FF0E0EE0F8E
:103E8000FF1FE053FC4DE49180918D02E82BE093FD
:103E90008D028091BC03882319F0E777E0938D02AF
:103EA00081E08093BB030895E82FF0E0EE0FFF1F41
:103EB000E053FC4DE49180918D02E827E8CF08950E
:103EC0006F70623009F447C020F4662309F437C0EC
:103ED0000895643019F0683091F10895E82FF0E00A
:103EE000EE0FFF1FE053FC4DE491E09560918D02D1
:103EF0006E2360938D0291E09093BB03222309F41B
:103F00004BC090918F02981347C08FEF840F873674
:103F100010F4842F12C0842F807E803E09F03CC0B4
:103F2000E42FF0E0EE0FFF1FE053FC4D84918095ED
:103F3000682360938D02649180E00C945015E82F03
:103F4000F0E0EE0FFF1FE053FC4DE491E09580910F
:103F50008D02E8231CC0E82FF0E090918D02EE0F57
:103F6000FF1FE053FC4D222379F08091BD0388238D
:103F700059F08491E82FE92BE0938D028091BC03E6
:103F8000882339F0E77703C0E491E095E923E093D3
:103F90008D0281E08093BB0308956F70623051F011
:103FA00028F4662339F0613031F00895643011F05F
:103FB000683011F4FFCC6BCD08956F70623049F01A
:103FC00018F461110DC00BC0643049F0683041F441
:103FD00006C0222321F09091BD03911101C022CD92
:103FE00008951F93CF93DF931F92CDB7DEB7182F9D
:103FF000862F807F29F08093620181E08093BB034C
:10400000113C09F488C0B8F5163BE0F4113B08F008
:10401000ADC0133809F46DC050F4143008F4F8C082
:10402000143708F453C0123809F45BC0F1C01438D7
:1040300009F469C089E6810F893108F0E9C0812F50
:10404000A4DDECC0183B09F4A5C050F4163B09F4FC
:104050009BC0173B09F0DCC08091B803815097C02A
:10406000193B09F49BC083E4810F833008F0D0C072
:10407000812FBADDD3C01E3C09F46CC0B0F4193CEA
:1040800009F45BC048F4133C09F449C008F445C086
:10409000183C09F446C0BCC01C3C09F494C008F0AC
:1040A000A6C01A3C09F4BAC0B3C0183E38F4103E9A
:1040B00008F0ABC01F3C09F083C050C080E1810F05
:1040C0008A3008F0A5C0812F0BDEA8C08091B9030B
:1040D000882321F0812F6983D1DD6981812F5DDF04
:1040E0009DC080918E0281FD99C060918D0289E30F
:1040F00007C080918E0280FD91C060918D0283E5A2
:104100000E9450158BC080918E0282FD87C0609105
:104110008D0287E4F5CF36D481C00ED47FC0FED3A4
:104120007DC09091C00381E089278093C0038111F5
:1041300002C085E10BC085E151C09091BC0381E0D4
:1041400089278093BC03811103C085E031D366C009
:1041500085E044C082E08093BE0160C08091870109
:1041600081115CC081E08093870158C0EFE4E10FCA
:10417000F0E0EE0FFF1FEA57FA4DE4918091B7038C
:10418000E82BE093B7034AC08091B8038F5F809318
:10419000B80309C08091AA02815003C08091AA028D
:1041A0008F5F8093AA029091B6048091BD039923FA
:1041B00021F09091B404981788F58093B4042EC030
:1041C000812F78DD2BC09091B90381E089278093FE
:1041D000B903882329F01092730180E1C9D21EC06F
:1041E0008091730181118093640180E1AFCF809150
:1041F000B903811113C060916401062E000C770B86
:104200008BEA92E00E949D1509C0812F29DE06C02D
:10421000612F70E040E084E40E94371610938F0213
:104220000F90DF91CF911F9108951F93CF93DF934C
:1042300000D01F92CDB7DEB7962F907F29F0109255
:10424000620191E09093BB03893B09F49AC008F0A6
:104250003DC0803BD0F4873908F082C0823809F431
:104260005AC060F49CEF980F903708F0A9C00F90E7
:104270000F900F90DF91CF911F919FCE833809F45B
:1042800052C0843809F45EC09BC0863B09F46FC0FD
:1042900098F4813B08F494C06FE4680FE62FF0E0D7
:1042A000EE0FFF1FEA57FA4DE491E0958091B703B6
:1042B000E823E093B70390C0873B09F45CC0883BD8
:1042C00009F07EC08091AA028F5F5EC08B3C70F4C3
:1042D000883C08F081C08D3B08F472C0803CD0F16E
:1042E0009FE3980F933008F477C06AC0883E38F493
:1042F000803E08F04CC08C3C08F06EC061C090E17C
:10430000980F9A3008F05CC00F900F900F90DF91DB
:10431000CF911F9121CD80918E0281FF5DC0609170
:104320008D0289E307C080918E0280FF55C06091A5
:104330008D0283E50F900F900F90DF91CF911F9129
:104340000C94501580918E0282FF46C060918D02C0
:1043500087E4F0CF1092BF0381E08093B4033CC0A8
:104360000F900F900F90DF91CF911F9125CC8091EE
:10437000B803815003C08091B8038F5F8093B80366
:104380002BC08091AA0281508093AA0225C0182FC9
:104390008091B903882361F080918F02811308C056
:1043A00080E02B834A83698369DC69814A812B81A0
:1043B000812F0F900F900F90DF91CF911F9180CDA3
:1043C000682F70E040E085E40F900F900F90DF9130
:1043D000CF911F910C9437160F900F900F90DF9193
:1043E000CF911F91089520918D02227291E009F0E2
:1043F00090E02091CA04222359F0992349F020919A
:104400008E0220FF05C022EE280F2A3008F4855CBA
:104410002091BD04222321F1833571F490918E0205
:1044200081E0892780938E0280FF03C080E0A0D1C5
:104430001FC080E0BDD11CC027EA280F2B3080F4BC
:1044400020918E02E82FF0E0EE0FFF1F20FF05C045
:10445000992319F0E557FB4D02C0E457FB4D8491B9
:104460008A3C39F4911102C085E3089589E20895E8
:1044700080E00895AF92BF92CF92DF92EF92FF92C9
:104480000F931F93CF93DF9300D01F92CDB7DEB76A
:10449000D82E062F10E08091BE0396E6C92E91E13A
:1044A000D99E70011124F701C89EE00DF11D112461
:1044B000E00FF11FEF5FF54F84914A835B836983BF
:1044C00092DFB82E8091BE039701C89E200D311D4A
:1044D0001124200F311FF901EB5FF94FC490F9014E
:1044E000E75FFD4FA4900E0D1F1DF801EB5DFD4F22
:1044F000B082F801E25BFC4FC082F801E154FE4F4C
:10450000A0824A815B8169818D2D86DB4A2D6C2DCD
:104510008B2D67DD41D20F900F900F90DF91CF91DF
:104520001F910F91FF90EF90DF90CF90BF90AF90D1
:104530000C94C72C9F92AF92BF92CF92DF92EF92D2
:10454000FF920F931F93CF93DF931F92CDB7DEB7E8
:1045500091E1899F90011124260F311DF901EB5D36
:10456000FD4F6F01B080F901E25BFC4F7F01A0803D
:10457000890101541E4FF80190809E012F5F3F4F2B
:1045800065DB2981492D6A2D8B2D4FDEF6011082C6
:10459000F7011082F80110820F90DF91CF911F91E7
:1045A0000F91FF90EF90DF90CF90BF90AF909F90D2
:1045B000089521E1829FC00111249C01260F311D25
:1045C000F901EB5DFD4F8081F901E25BFC4F9081C9
:1045D00093FF1FC09FEF980F973618F460918D02DC
:1045E00016C0982F907E903EA1F4E82FF0E0EE0FD9
:1045F000FF1FE053FC4D8491809590918D0289239B
:1046000080938D0281E08093BB03649180E00C94E1
:1046100050150895FC018091C00381111DC0809147
:10462000BA03882339F081E0808381838283838386
:10463000848311C08091A30280838091A40281832E
:104640008091A50282838091A60283838091A70234
:1046500084838091A802858308952091C00321114D
:1046600009C0DC01E6E9F2E08DE08E0F91919D93A7
:104670008E13FCCF0895FC018091C003811106C008
:104680008091620190918D02982B9083089521E191
:10469000829FC0011124FC01E60FF11DEF5FF54F71
:1046A000E491E83211F0E83539F441E060E070E07F
:1046B00081E50E9437167DC5089590E09C01220F88
:1046C000331F820F931FFC01E45CF04E2491FC0128
:1046D0003196865C904EE65CF04E621721F0649154
:1046E000FC0184910BC96491FC0184911BC90F9357
:1046F0001F93CF93DF93EBE6FFE1D4910AE31FE131
:10470000C0E0CD1769F0F80131966491F801849109
:10471000D1D860E08C2FD1DFCF5F0D5F1F4FF1CF7D
:104720008091C1048093D0038093CD038091B8041D
:104730008093D2038091C0048093CB03DF91CF910B
:104740001F910F9108958091C903893F69F4809169
:10475000D6038F3E19F41092D60303C08F5F809367
:10476000D6031092C90308958F5F8093C9030895FB
:1047700090E0880F991FFC01E25FF04EA491FC01CC
:10478000E15FF04E8491EAE6FFE1E491AE1778F440
:10479000B0E0AF53BC4F811103C08C91816006C063
:1047A0009C919170E82FEE0F892F8E0F8C930895B6
:1047B00090E0880F991FFC01E25FF04EA491FC018C
:1047C000E15FF04E8491EAE6FFE1E491AE1780F4F8
:1047D000B0E0AF53BC4F811104C08C918E7F8C939D
:1047E00008959C91292F2695281302C091709C93BF
:1047F0000895823049F0833071F08130B9F481E15D
:10480000B7DF82E1D5DF0BC081E1D2DF82E1D0DF0B
:1048100083E1AEDF06C081E1CBDF82E1A9DF83E186
:10482000C7DF84E1C5DF1092D503089581E1C0DFC1
:1048300082E1BEDF83E1BCDF84E19ADF81E0809327
:10484000D50308950F931F93CF93EAE6FFE1E49118
:10485000C0E00E2F10E08C2F0C2E000C990B80174F
:10486000910714F52091CC032223C9F0FC01EF53EA
:10487000FC4F2081223018F421110FC010C0E22F0C
:10488000E695F0E0E156FA4D64918091D6030E94DE
:10489000D733921720F490FF02C061E001C060E0BE
:1048A0008C2F0BDFCF5FD7CFCF911F910F91089542
:1048B0008091D003803110F081E002C08C5F8C7F4A
:1048C0008093D00308958091D1038F5F813118F4D4
:1048D0008093D103089581E08093D1031092CF0398
:1048E0001092D40308959091D003903120F081E08C
:1048F0008093CC0308958091CF032091D103929FA0
:10490000902D1124891738F491E09093CC03805FA7
:104910008093CF0308951092CC030895EDE0FFE15A
:10492000E4918091CB038F5F8E1718F48093CB03B3
:1049300008951092CB0308958091D2038F5F843045
:1049400018F48093D20302C01092D2038091D20354
:10495000811103C08091D00303C0813021F484E031
:104960008093CD030895823031F484E08093CD03A9
:104970001092CE03089580E18093CD0381E080936F
:10498000CE03089595DF8091D203811104C08091F8
:10499000D0038093CD0308958091D203823011F427
:1049A00088E10BC0833071F48091CD03853010F025
:1049B000845003C0882321F081508093CD03089553
:1049C0001092CD0308958091D3038F5F803318F444
:1049D0008093D30308951092D3039091D203913022
:1049E000B1F42091CE038091CD03222341F08F5F5B
:1049F0008093CD038831E0F01092CE03089581506A
:104A00008093CD038530A0F49093CE030895923027
:104A100031F48091CD03853058F0815007C0933038
:104A200039F48091CD03803118F48F5F8093CD03EA
:104A300008958091CD03803120F081E08093CA03F6
:104A400008959091D103899F802D11249091CE03D8
:104A50009111807F9091D403981738F481E080936E
:104A6000CA03905F9093D40308951092CA030895E7
:104A70001F93CF93DF93EBE6FFE1E49110E0CE2F9D
:104A8000D0E0212F012E000C330B2C173D070CF525
:104A9000F901E350F14EE491EE23C9F08091D50382
:104AA000882391F08091CA03882371F08091CB0311
:104AB000F90190E1899FE00DF11D1124E350F24EC0
:104AC000E49161E0E11101C060E0812FF6DD1F5F3C
:104AD000D8CFDF91CF911F910895F5DE04DF33DE4B
:104AE000B1DE71DFA6DFC4CF1F920F920FB60F9217
:104AF00011242F938F939F93AF93BF93EF93FF93C3
:104B0000EDB7FEB781E090E090937C0580937B0544
:104B1000F0937A05E09379053196A9EFB4E080E04F
:104B200090E0E1152BE0F20720F0FC01E750FB4F8D
:104B300007C021912D9301968038910591F7F5CF0B
:104B400085E0E937F80711F01192FACFFF91EF9164
:104B5000BF91AF919F918F912F910F900FBE0F90AA
:104B60001F901895E4E6F0E0808180718083A5E6CF
:104B7000B0E08C9186778C93808181608083808186
:104B80008460808380818062808380818064808370
:104B90008C9188608C938081806880838081826022
:104BA00080838C9181608C938C918F778C9390E033
:104BB00080E80FB6F89480936100909361000FBE77
:104BC000089560917D0570E040E081E00E94371615
:104BD00060917B0570917C056115710541F041E0A4
:104BE00082E00E94371610927C0510927B05BACFA6
:104BF0008DEA9EED90937F0580937E05089519BC04
:104C000082E089BD09B400FEFDCF8091D8008F7D80
:104C10008093D8008091E00082608093E0008091D2
:104C2000E00081FDFCCF0895CF93DF93962F642F92
:104C300021E1929FE0011124C40FD11DCC0FDD1F93
:104C4000CC51DC4F48815981882301F157FF0EC0B8
:104C50002091CB0430E03195219531092417350797
:104C60007CF1892F07DC84E090E020C02091C7040C
:104C70003091C8044217530794F0892F9ADC209191
:104C8000B90488819981821B910910C014161506F8
:104C900084F42091CB0430E0421753071CF44C5F9E
:104CA0005F4F10C0892F46DC8CEF9FEF998388837C
:104CB0000BC08091BE049091BF048417950724F423
:104CC0004450510959834883DF91CF9108950F9340
:104CD0001F93CF93DF93082F862F642F91E1899F35
:104CE000E0011124C40FD11DCC0FDD1FCC51DC4FCE
:104CF0005981011110C057FD27C08881952F9370ED
:104D00002091BE043091BF048217930708F40496E3
:104D10009983888339C057FF17C00881152F1370F6
:104D20002091C7043091C8040217130730F041DC0A
:104D30008091B904081B110902C00C5F1F4F198331
:104D400008838981806817C0152F169516951F71E5
:104D50001C5F9091CB04191780F048815370002399
:104D600011F088DB01C0E6DB212F30E03983288396
:104D7000898100FB87F9898307C01F71110F110F0B
:104D80005378252F212B2983DF91CF911F910F91EC
:104D90000895CF92DF92EF92FF921F93CF93DF930C
:104DA000E2EFFFE1E491E093D803E1EFFFE1E4916A
:104DB000E093DE03E0EFFFE1E491E093E103EFEE47
:104DC000FFE1E491E093E30385EEE82E8FE1F82E16
:104DD00099EDC92E93E0D92ED0E0F701149180917E
:104DE000DE0381111FEFF7013196C4914C2F612F23
:104DF0008D2F0E946E1C2C2F2095F60121936F01A0
:104E0000422F41238091DE03642F6095811101C000
:104E100040E08D2F0E94A71CDF5FF2E0EF0EF11C37
:104E2000D530D9F6ECE6FFE1E491E093D703EDE667
:104E3000FFE1E491E093E20362E083E00E947E1CE4
:104E40008091B704882371F087E696E29093E0039F
:104E50008093DF038091CB04813250F080E2809315
:104E6000CB0406C084E196E29093E0038093DF03D5
:104E7000DF91CF911F91FF90EF90DF90CF90089539
:104E8000CF92DF92EF92FF920F931F93CF93C0E0E8
:104E90008091E10390E02C2F0C2E000C330B28178F
:104EA00039070CF054C089EDE82E83E0F82EF5E0C8
:104EB000CF026001112400E010E0F801EC0DFD1DAF
:104EC000E057F04E4491F70161917F01802F0E94DD
:104ED000A71C0F5F1F4F0530110579F78091C5049E
:104EE0008A95F1F710E0212F012E000C330B8091F1
:104EF000E30390E02817390744F58091DE03220F81
:104F0000331FF901E159F04E882351F06491F90102
:104F1000E259F04E84910E94CD1C882351F013C0B9
:104F20006491F901E259F04E84910E94CD1C8823CE
:104F300051F08091D803882319F06C2F812F02C083
:104F4000612F8C2FA4DB1F5FCECFCF5FA1CFCF917E
:104F50001F910F91FF90EF90DF90CF900895AF9247
:104F6000BF92CF92DF92EF92FF920F931F93CF9356
:104F7000DF931F92CDB7DEB7F62EE82EEF140CF0BC
:104F800083C089EDC82E83E0D82EFE2D85E0F8027F
:104F90005001112400E010E0F60161916F016F3FB4
:104FA00049F0F801EA0DFB1DE057F04E4491802FC7
:104FB0000E94A71C0F5F1F4F0530110569F78091F4
:104FC000C5048A95F1F7C12C0E2D0E2C000C110B87
:104FD0002C2D0C2C000C330B8091E30390E0281750
:104FE00039070CF04FC0D090D7038D2D90E02817D3
:104FF0003907C1F44091E203842F90E008171907A4
:1050000089F4A090DF03B090E00362E083E049837D
:105010000E94B61C91E04981811190E06D2D892F8D
:10502000F5012DC08091DE03220F331FF901E159F4
:10503000F04E882359F06491F901E259F04E8491C1
:105040000E94CD1C91E0882361F00AC06491F901AF
:10505000E259F04E84910E94CD1C91E0811101C073
:1050600090E08091D803E091DF03F091E003882382
:1050700019F04E2D6C2D02C04C2D6E2D892F0995E7
:10508000C394A6CFE3947ACF0F90DF91CF911F9175
:105090000F91FF90EF90DF90CF90BF90AF90089569
:1050A0006091E1036695669580E059CF8091E103B8
:1050B000682F70E0759567958695869550CF80919D
:1050C000E10393E0899FB00111247595679575956B
:1050D0006795869544CF6091E10323E0629FC0010C
:1050E0001124959587959595879539CF81E0809383
:1050F000B30408952091B304AC01249FC001259FFF
:10510000900D11246AE070E00E94E3338091B204B4
:10511000562F581B852F6093B2042F5F2093B30442
:105120002B3028F01092B20491E09093B3040895CC
:10513000CF938091B803811104C08091AA02882383
:1051400021F1C1E0C093B6048091B50481112FC054
:105150008091B4049091C2042091BB04899FC00146
:105160001124820F911DC6DF9091B803899F902D65
:1051700011249093B1049091AA02899F802D11244B
:105180008093B004C093B50412C08091B604882304
:1051900019F081E08093B5041092B6041092B20425
:1051A0001092B1041092B0048AE08093B304CF91BE
:1051B0000895CF93DF93CDB7DEB765970FB6F89418
:1051C000DEBF0FBECDBF61E26093BC041092C60487
:1051D0001092CA041092BA0450E15093C104109284
:1051E000C9044CE04093CB041092BD041092C0045B
:1051F00080EF90E09093C4048093C30488E89FEF0D
:105200009093BF048093BE0435E03093BB042FE03D
:105210002093C20480E293E09093C8048093C70473
:1052200080E28093B90491E09093C5041092B70492
:105230001092B80469831A821B821C825D831E82CD
:105240004F831886198640EF4A871B8648E84C87AB
:105250004FEF4D873E872F87888B23E0298B8A8BE2
:105260009B8B1C8A1D8A45E150E060E070E0CE0116
:1052700001960E94273465960FB6F894DEBF0FBEE4
:10528000CDBFDF91CF9108950F931F93CF93DF93FD
:10529000CCEAD5E2FE01329684913196E49190E019
:1052A000E23059F4FE0105911491805090400E9423
:1052B0002234F8019183808309C0FE010591149185
:1052C000805090400E941A34F80180832496F5E2C1
:1052D000C43FDF07F9F66091BC04613251F070E021
:1052E00041E080E50E943716DF91CF911F910F9129
:1052F00060CFDF91CF911F910F91089524E0829F9D
:10530000C0011124FC01E255FA4D2491FC01E15544
:10531000FA4D3491FC01E455FA4D822F90E0323081
:1053200041F4A591B4916D917C91805090400C9482
:105330003E34A591B4916C91805090400C943034DF
:1053400013BC109280001092820080E49FE1909341
:1053500089008093880008951092CC0410928500F3
:105360001092840081E08093810082E080936F003E
:105370009AE088E10FB6F894A895809360000FBE7C
:1053800090936000E0E6F0E08081806C8083089577
:105390000FB6F894A89580916000886180936000B2
:1053A000109260000FBEE0E6F0E080818F7B80838A
:1053B00010926F0010928100089580918400909166
:1053C0008500E091CC042091ED0434E0E39FF001EE
:1053D0001124E20FF11DEE0FFF1FE353FB4F20815D
:1053E00031812817390780F4E091CC042091ED0435
:1053F00034E0E39FF0011124E20FF11DEE0FFF1FD7
:10540000E353FB4F9183808308951092ED048091C4
:10541000ED048430D8F4E091CC048091ED0494E064
:10542000E99FF0011124E80FF11DEE0FFF1FED5071
:10543000F04E85919491009719F0FC010995BDDF1C
:105440008091ED048F5F8093ED04E1CF0895109279
:10545000850010928400D9DF8091CC048F5F809307
:10546000CC04843010F01092CC04A89508951F92BB
:105470000F920FB60F9211242F933F934F935F9388
:105480006F937F938F939F93AF93BF93EF93FF930C
:10549000DEDFFF91EF91BF91AF919F918F917F914F
:1054A0006F915F914F913F912F910F900FBE0F9091
:1054B0001F901895EDECF4E0118210821382128295
:1054C0001582148217821682389684E0ED3EF80722
:1054D00099F70895292F332723303105D9F074F433
:1054E0002130310591F02230310509F04CC0E6E45D
:1054F000F6E28591949164E476E249C02132310567
:10550000B9F022323105E9F03EC082E190E061EB72
:1055100076E23DC09927009729F00197A1F5E4EFC5
:10552000F5E202C0E0E4F6E2849190E0BF012FC012
:1055300081EE689FB00111246A5A794D89E090E0AC
:1055400026C0662389F080911001681791F0809140
:105550000001681799F080912001681314C08AE354
:1055600090E065EF76E213C080E490E066E577E2D4
:105570000EC082E390E063EC76E209C087E290E03F
:105580006FE277E204C080E090E060E070E0FA0152
:1055900071836083089581E02CC90895CF9380E3DF
:1055A00091E0E1D7C82F80911001882321F080E19C
:1055B00091E0D9D7C82380910001882321F080E0B1
:1055C00091E0D1D7C82380912001882321F080E287
:1055D00091E0C9D7C823CC2311F080E001C083E05B
:1055E00008D98091E20084608093E200CF91089511
:1055F00080E391E080D680911001882319F080E14A
:1056000091E079D680910001882319F080E091E043
:1056100072D680912001882319F080E291E06BC658
:10562000089580913E0190913F01009729F00197E4
:1056300090933F0180933E0180911001882359F09F
:1056400080911E0190911F01009729F0019790937E
:105650001F0180931E0180910001882359F08091E1
:105660000E0190910F01009729F0019790930F017F
:1056700080930E0180912001882359F080912E01A2
:1056800090912F01009729F0019790932F0180931B
:105690002E01089580E0ADC882E0ABC880E0A9C8C3
:1056A0000F931F93CF93DF93E901F801DC019C91E5
:1056B00020910001911130C0222381F020916001DE
:1056C000220F8091C904811104C019969C91892FE1
:1056D00002C080E090E0820F8093600188E090E05B
:1056E000918380838091600180FD0FC0CE010E9474
:1056F0003B23CE0102960E940A239091BB03809126
:10570000B603892B21F480E067C081FDFCCF1092A5
:10571000B6031092BB035FC0921313C08EE090E0FB
:10572000918380838091600180FF08C0CE010E9438
:105730003B23CE0101960E942D23DFCF81FDE7CFD1
:10574000E2CF80912001981314C08091B703888321
:105750008091B10489838091B0048A8383E090E0D2
:10576000918380838091B504882369F21092B504F7
:1057700032C081E090E0DB012C91233011F080E019
:1057800090E02091B403822B892B91F08091BF038C
:10579000888381E090E09183808383E0FB018083B4
:1057A0008091B403882309F4AECF1092B40313C0E0
:1057B00080914C0390914D039983888382E090E01F
:1057C00091838083DB018C938091B503882309F456
:1057D0009ACF1092B50381E0DF91CF911F910F9185
:1057E0000895CF938053914009F081C0F9018081E1
:1057F00080938E02C0915F01C82780935F01CC2304
:1058000009F475C09091BD04911111C0C0FF0FC083
:1058100080FF07C080E00E94B82380E00E94A21EA3
:1058200006C080E00E94D82380E00E94241FC1FFB0
:1058300011C080918E0281FF07C081E00E94B823D1
:1058400081E00E94A21E06C081E00E94D82381E070
:105850000E94241FC2FF24C080918E0282FF11C0CB
:1058600082E00E94B82382E00E94A21E8091C604BA
:105870008823B1F081E08093BC0385E00E94B823C7
:105880000FC082E00E94D82382E00E94241F8091F2
:10589000C604882329F01092BC0385E00E94D82317
:1058A000C3FF11C080918E0283FF07C083E00E9476
:1058B000B82383E00E94A21E06C083E00E94D82382
:1058C00083E00E94241FC4FF12C080918E0284FFD7
:1058D00007C084E00E94B82384E0CF910C94A21EFC
:1058E00084E00E94D82384E0CF910C94241FCF91B0
:1058F0000895E6E9F7E2E491E1FF08C081E08093D2
:10590000100182E88093110181E001C080E0E2FF94
:1059100009C091E0980F909300018E5F806880939A
:105920000101892FE3FF08C091E0980F90932001B7
:105930008E5F8068809321010895F89480E391E060
:1059400025D680911001882319F080E191E01ED6C0
:1059500080910001882319F080E091E017D68091B2
:105960002001882319F080E291E010D67894AAD41F
:105970008BB590915E01981749F06BB570E041E0EE
:1059800086EA0E9437168BB580935E010895809158
:10599000EF04882321F08BB5853009F430C90895D0
:1059A000CF92DF92EF92FF920F931F93CF93DF93EB
:1059B000EC018B017A01D6D1811133C0E114F104DD
:1059C00039F0F70180819181081B190BC80FD91F8D
:1059D000C12CD12C0115110519F18091E80085FD2C
:1059E00016C08091E8008E778093E8006BD4E114B4
:1059F000F10449F0F70180819181C80ED91ED1824E
:105A0000C08285E00EC0AED1882321F30AC08991FF
:105A10008093F10001501109FFEFCF1ADF0ADACFAE
:105A200080E0DF91CF911F910F91FF90EF90DF9079
:105A3000CF9008952091F7043091F8042617370786
:105A400048F06115710539F42091E8002E77209314
:105A5000E80001C0B90140E061157105A1F12BB565
:105A6000222309F442C0253009F441C02091E80006
:105A700023FD3FC02091E80022FD31C02091E800C5
:105A800020FFEACF4091F3002091F20030E0342B68
:105A9000FC01CF016115710559F02830310540F442
:105AA00081918093F100615071092F5F3F4FF1CFD9
:105AB00041E02830310509F040E02091E8002E77E0
:105AC0002093E800C9CF4111CACF09C08BB5882304
:105AD00061F0853061F08091E80083FD0AC080911B
:105AE000E80082FFF3CF80E0089582E0089583E02C
:105AF000089581E008956115710529F42091E80069
:105B00002B772093E800FC016115710531F18BB50D
:105B1000882359F1853059F18091E80083FD23C035
:105B20008091E80082FFF0CF2091F3008091F20095
:105B300090E0922B892B31F08091F100819361509C
:105B4000710991F78091E8008B778093E800DCCFB2
:105B50008BB5882351F0853051F08091E80080FFAB
:105B6000F7CF80E0089581E0089582E0089583E012
:105B700008952091F7043091F8042617370748F06C
:105B80006115710539F42091E8002E772093E80023
:105B900001C0B901FC0120E06115710589F18BB5E7
:105BA000882309F43FC0853009F43EC08091E800A5
:105BB00083FD3CC08091E80082FD2EC08091E8000A
:105BC00080FFEACF2091F3008091F20090E0922BC9
:105BD0006115710559F08830910540F424912093A6
:105BE000F1003196615071090196F2CF21E00897DA
:105BF00009F020E08091E8008E778093E800CCCF18
:105C00002111CDCF09C08BB5882361F0853061F0BB
:105C10008091E80083FD0AC08091E80082FFF3CF05
:105C200080E0089582E0089583E0089581E008957A
:105C3000982F973058F59093E900981739F07091A4
:105C4000EC002091ED005091F00003C0242F762F3E
:105C500050E021FF19C03091EB003E7F3093EB0004
:105C60003091ED003D7F3093ED003091EB003160DD
:105C70003093EB007093EC002093ED005093F00014
:105C80002091EE0027FF07C09F5FD3CF8F708093D6
:105C9000E90081E0089580E00895EF92FF920F936C
:105CA0001F93CF93DF93E62EEC018C010C5F1F4F07
:105CB000F12CFE1491F15881552351F1F801208106
:105CC00069817A8131979081852F8F70873010F0AC
:105CD00080E024C0223010F442E001C046E0E8E059
:105CE000F0E020E0E617F70720F42F5FEE0FFF1F2C
:105CF000F9CF2295207F422BF0E49F9F9001112441
:105D0000551F5527551F652F622B92DF882301F3FE
:105D1000F39425960B5F1F4FCCCF81E0DF91CF919D
:105D20001F910F91FF90EF9008958091F10487FFEC
:105D30000FC08091E80082FD04C08BB58111F9CFBE
:105D400010C08091E8008B770AC08BB5882349F09A
:105D50008091E80080FFF9CF8091E8008E778093F2
:105D6000E80008952091E4003091E50095E6409127
:105D7000EC00842F817040FF21C08091E80080FDFD
:105D80001BC08BB5882391F0853091F08091EB009A
:105D900085FD10C04091E4005091E5004217530783
:105DA00031F39A01915019F784E0089582E0089543
:105DB00083E0089581E0089580E008954091E8002F
:105DC00042FFDFCF089564D06BD0E0EEF0E0808139
:105DD00081608083E8EDF0E080818F77808319BC5B
:105DE000A7EDB0E08C918E7F8C9380818F7E808335
:105DF0001092F00408950F931F93CF93DF9348D030
:105E00004FD0C8EDD0E088818F7788838881806803
:105E1000888388818F7D888319BC1BBC1092EE0417
:105E20001092EF0400EE10E0F80180818B7F8083F8
:105E300088818160888342E060E080E0F9DEE1EE05
:105E4000F0E080818E7F8083E2EEF0E080818160EF
:105E50008083808188608083F80180818E7F808349
:105E6000888180618883DF91CF911F910F91089580
:105E7000E8EDF0E080818F7E8083E7EDF0E08081C7
:105E80008160808384E082BF81E08093F004B3CF9F
:105E9000E8EDF0E080818E7F80831092E20008952B
:105EA0001092DA001092E10008951F920F920FB63F
:105EB0000F9211242F933F934F935F936F937F9390
:105EC0008F939F93AF93BF93EF93FF938091E100E4
:105ED00082FF0AC08091E20082FF06C08091E1004B
:105EE0008B7F8093E1009DDB8091DA0080FF19C0F9
:105EF0008091D80080FF15C08091DA008E7F80935A
:105F0000DA008091D90019BC80FF09C082E089BD08
:105F100009B400FEFDCF81E08BBD3DDB02C01BBCA0
:105F20003CDB8091E10080FF17C08091E20080FFA0
:105F300013C08091E2008E7F8093E2008091E200A6
:105F400080618093E2008091D80080628093D800C5
:105F500019BC85E08BBDA0DB8091E10084FF2DC0E2
:105F60008091E20084FF29C019BC82E089BD09B498
:105F700000FEFDCF8091D8008F7D8093D800809166
:105F8000E1008F7E8093E1008091E2008F7E80931C
:105F9000E2008091E20081608093E2008091EE0453
:105FA000882311F084E007C08091E30087FD02C0E0
:105FB00081E001C083E08BBD71DB8091E10083FF54
:105FC00021C08091E20083FF1DC08091E100877FA6
:105FD0008093E10082E08BBD1092EE048091E1009D
:105FE0008E7F8093E1008091E2008E7F8093E200BB
:105FF0008091E20080618093E20042E060E080E016
:1060000017DE48DBFF91EF91BF91AF919F918F9188
:106010007F916F915F914F913F912F910F900FBEA4
:106020000F901F9018951F93CF93DF93CDB7DEB7D6
:10603000AA970FB6F894DEBF0FBECDBFE1EFF4E034
:1060400088E08E0F9091F10091938E13FBCFD0DA00
:106050008091E80083FF1EC18091F1049091F204C9
:10606000492F50E04A30510508F014C1FA01E858B0
:10607000FF4FBDC3803821F0823809F00BC106C044
:106080008091EF04882391F082E011C08091F504A3
:106090008F70873008F0FEC08093E9008091EB009C
:1060A00085FB882780F91092E90001C080E090917B
:1060B000E800977F9093E8008093F1001092F10040
:1060C000CAC0282F2D7F09F0E5C0882319F082303F
:1060D00061F0E0C08091F304813009F0DBC09330BF
:1060E00009F080E08093EF042EC08091F3048111C9
:1060F0002AC08091F5048F702FEF280F263008F00A
:10610000C9C08093E9002091EB0020FF1CC09330B0
:1061100021F48091EB00806214C09091EB009061BB
:106120009093EB0021E030E0A90102C0440F551F1D
:106130008A95E2F74093EA001092EA008091EB0022
:1061400088608093EB001092E9008091E800877FDF
:106150008093E800EADD9EC081119CC01091F30499
:106160001F778091E3008078812B8093E3008091FA
:10617000E800877F8093E800D8DD8091E80080FF09
:10618000FCCF8091E30080688093E300111102C08E
:1061900082E001C083E08BBD7DC08058823008F072
:1061A00079C08091F3049091F4048C3D53E09507FD
:1061B00071F583E08A838AE289834FB7F894DE0120
:1061C000139620E03EE051E2E32FF0E050935700B9
:1061D000E49120FF03C0E295EF703F5FEF708E2FD8
:1061E00090E0EA3010F0C79601C0C0968D939D9361
:1061F0002F5F243149F74FBF8091E800877F80935C
:10620000E8006AE270E0CE01019614DC13C06091F0
:10621000F5047091F604AE014F5F5F4F5BD9BC018E
:10622000892BC1F19091E800977F9093E8008981D4
:106230009A819FDC8091E8008B778093E8002AC0E8
:10624000803841F58091E800877F8093E800809155
:10625000EE048093F1008091E8008E7779CF811170
:1062600019C09091F3049230A8F48091E800877FE0
:106270008093E8009093EE0458DD8091EE04811144
:1062800006C08091E30087FD02C081E001C084E088
:106290008BBD84D98091E80083FF0AC08091E8001B
:1062A000877F8093E8008091EB0080628093EB0011
:1062B000AA960FB6F894DEBF0FBECDBFDF91CF9187
:1062C0001F910895CF938BB5882399F0C091E90071
:1062D000CF709091EC00892F817090FD80E8C82BE1
:1062E0001092E9008091E80083FD9DDECF70C0939D
:1062F000E900CF9108956F927F928F929F92AF9213
:10630000BF92CF92DF92EF92FF920F931F93CF93A2
:10631000DF9300D01F92CDB7DEB77C01CDB6DEB6DD
:106320008091E80083FF08C1F701808190E020910F
:10633000F5043091F6042817390709F0FDC0809163
:10634000F204833009F49FC030F4813071F0823060
:1063500009F4D6C0F1C08A3009F4BAC08B3009F410
:10636000A3C0893009F0E8C051C08091F104813A9E
:1063700009F0E2C08DB69EB61A8219828091F304AC
:106380001091F4048B83F7018085482F50E08DB77E
:106390009EB7841B950B0FB6F8949EBF0FBE8DBFA2
:1063A000EDB7FEB731965F0160E070E0CF013BD200
:1063B0004FEF410F8E010F5F1F4F9501BE016D5FC3
:1063C0007F4FC7016DD9F70186819781009721F032
:1063D000408550E0B5011ED21092E9008091E8009E
:1063E000877F8093E8008B8181118093F100698120
:1063F0007A81C5011FDB8091E8008B778093E800EC
:106400000FB6F8949EBE0FBE8DBE96C08091F1046B
:10641000813209F091C0ADB6BEB60091F70410917B
:10642000F8047090F3046090F4048DB79EB7801B5D
:10643000910B0FB6F8949EBF0FBE8DBFEDB7FEB7A0
:1064400031964F018091E800877F8093E800B80182
:10645000CF0151DB8091E8008E778093E80021E046
:10646000711001C020E030E0021B130B280D391D14
:106470004FEF460D672DC701B4D90FB6F894BEBED5
:106480000FBEADBE59C08091F104813A09F054C0ED
:106490008091E800877F8093E8008091E80080FF8A
:1064A000FCCFF701818540C08091F104813209F071
:1064B00043C08091E800877F8093E80036DC9091AC
:1064C000F30481E0911101C080E0F701818734C0BD
:1064D0008091F104813281F58091E800877F80937B
:1064E000E80023DC8091F3049091F404882736E0DF
:1064F000969587953A95E1F7F701958784871CC0B3
:106500008091F104813AC1F48091E800877F809303
:10651000E8008091E80080FFFCCFF7018485958535
:1065200096958795969587958093F1008091E800E0
:106530008E778093E800F9DB0FB6F894DEBE0FBECD
:10654000CDBE0F900F900F90DF91CF911F910F91C3
:10655000FF90EF90DF90CF90BF90AF909F908F9083
:106560007F906F900895FC01399627E0DF011D921E
:106570002A95E9F721E0FC01218724EF31E03587F6
:10658000248723E0248361E0019687CB4F925F92BA
:106590006F927F928F929F92AF92BF92CF92DF9233
:1065A000EF92FF920F931F93CF93DF9300D01F9230
:1065B000CDB7DEB77C01ADB6BEB68BB5843009F081
:1065C0008DC08091E4009091E500F701228533852C
:1065D0002817390709F482C081818F708093E90000
:1065E0008091E80085FF7AC08DB69EB6408550E068
:1065F0008DB79EB7841B950B0FB6F8949EBF0FBE48
:106600008DBFEDB7FEB731966F011B821A821982DA
:1066100060E070E0CF0107D18E010F5F1F4F960140
:1066200040E0BE016D5F7F4FC7013AD8482EF701A9
:1066300084859585892B51F091E080E0268537850A
:10664000232B09F090E0092F182F02C000E010E082
:10665000F701668077806114710489F049815A815D
:10666000B301C601CAD055245394892B09F4512C87
:10667000F701408550E0B601C301CCD001C0512CD8
:1066800089819A81892BF1F0411004C0511002C018
:10669000012BC1F0F70184859585978786878181D5
:1066A0008F708093E9008B8181118093F100698163
:1066B0007A8140E050E0C60173D98091E8008E777E
:1066C0008093E8008091E4009091E500F7019387C2
:1066D00082870FB6F8949EBE0FBE8DBE0FB6F8949B
:1066E000BEBE0FBEADBE0F900F900F90DF91CF9149
:1066F0001F910F91FF90EF90DF90CF90BF90AF90E0
:106700009F908F907F906F905F904F900895089525
:106710000E94E1250E9422160E9444290E94C92657
:106720000E9477230E94071E0E9476280E941D1453
:106730000E94A029DED80E9440279ADB7894089511
:106740008BB5843010F4F9D8FBCF0E94AC2980912E
:10675000BE01811102C0F1D8FACF0C94C82933DBF5
:10676000F8942FEF83ED90E3215080409040E1F7C3
:1067700000C000008091BE01823011F40E94F82513
:106780008091BE01882359F09CE088E10FB6F8940F
:10679000A895809360000FBE90936000FFCF08958E
:1067A000B6DFB6DFCDDFDBDF80E090E00895991B38
:1067B00079E004C0991F961708F0961B881F7A95F8
:1067C000C9F780950895AA1BBB1B51E107C0AA1FFA
:1067D000BB1FA617B70710F0A61BB70B881F991F82
:1067E0005A95A9F780959095BC01CD010895EE0FBB
:1067F000FF1F0590F491E02D0994FB01DC0104C01A
:106800008D910190801921F441505040C8F7881BA8
:10681000990B0895FB01DC0102C001900D924150DB
:106820005040D8F70895DC0101C06D9341505040AD
:10683000E0F70895F999FECF92BD81BDF89A9927A6
:1068400080B50895A8E1B0E042E050E01CC0DC0152
:10685000CB0102C02D9105D041505040D8F708958A
:10686000262FF999FECF1FBA92BD81BD20BD0FB66C
:10687000F894FA9AF99A0FBE01960895F1DF272F3E
:10688000F0CFDC01CB01FC01F999FECF06C0F2BDCF
:10689000E1BDF89A319600B40D9241505040B8F7DE
:0668A0000895F894FFCFFB
:1068A60000830E00000100000E0000000000000042
:1068B600008203000001000002000000000000004A
:1068C6000084030000010000030000000000000037
:1068D6000081080000010000080000000000000020
:1068E6002400250023002700280026002A002B006C
:0E68F60029002D002E002C00300031002F0054
:00000001FF
