:100000000C9482110C94C5110C94C5110C94C5115B
:100010000C94C5110C94C5110C94C5110C94C51108
:100020000C94C5110C94C5110C946F2B0C94C51134
:100030000C9472210C94C5110C94C5110C94C5112B
:100040000C94C5110C94D4260C94C5110C94C511B4
:100050000C94C5110C94C5110C94C5110C94C511C8
:100060000C94C5110C94C5110C94C5110C94C511B8
:100070000C94C5110C94C5110C94C5110C94C511A8
:100080000C94C5110C94C5110C94C5110C94C51198
:100090000C94C5110C94C5110C94C5110C94C51188
:1000A0000C94C5110C94C5110C94C511EE18A7142D
:1000B000AD14CB14D11465166B1687158D159416D7
:1000C000B616D016EA16FF1655179217A818CD18AF
:1000D000AF17CB17EA170F1828184D186D18861888
:1000E0005C2C7F2C662D7F2C662DC42CE62C662D77
:1000F000382D4A2D00000000000000000000000024
:10010000000000002A002B0028000000000028004A
:1001100000000000000000000000000000000000DF
:1001200000000000000000000000290000000000A6
:10013000000000002C001E023402200221022202D4
:10014000240234002602270225022E0236002D004A
:100150003700380027001E001F0020002100220069
:1001600023002400250026003302330036022E002F
:10017000370238021F0204020502060207020802C3
:1001800009020A020B020C020D020E020F021002FB
:1001900011021202130214021502160217021802AB
:1001A00019021A021B021C021D022F00310030002E
:1001B00023022D0235000400050006000700080098
:1001C00009000A000B000C000D000E000F001000CB
:1001D000110012001300140015001600170018007B
:1001E00019001A001B001C001D002F0231023002F2
:1001F00035024C000000000000000000000000007C
:1002000000000000000000000000000000000000EE
:1002100000000000000000000000000000000000DE
:1002200000000000000000000000000000000000CE
:1002300000000000000000000000000000000000BE
:1017300000000000000000000000000000FF00FFAB
:1017400000FF00FF00FF00FF00FF00FF00FF00FFA1
:1017500000FF00FF00FF00FF00FF00FF00FF00FF91
:1017600000FF00FF00FF000000000000000000007C
:101770000000000000000000000000000000000069
:101780000000000000000000000000000000000059
:1017900000000000000000080C0000000000000035
:1017A0000000000000000000000000000000000039
:1017B0000000000000000000000000000000000029
:1017C0000000000000000000000000000000000019
:1017D0000000000000000000000000000000000009
:1017E00000000000000000000000000000000000F9
:1017F00000000000000000000000010101011400D1
:1018000000000000000000000000000000000000D8
:1018100000000000000000000000000000000000C8
:1018200000000000000000000101010114000000A0
:1018300000000000000000000000000000000000A8
:101840000000000000000000000000000000000098
:101850000000000000000101010114000000000070
:101860000000000000000000000000000000000078
:101870000000000000000000000000000000000068
:10188000000000000101010114B6284C2312267843
:10189000236B21B62851235B138E146B214F757473
:1018A000206F662072616E67652E0A00456E746552
:1018B00072206E65772064656661756C742064695A
:1018C0006D6D6572206C6576656C2028312D313622
:1018D000293E2000456E746572206E657720646530
:1018E0006661756C74206261636B6C6967687420F3
:1018F000656E61626C652028312D3136293E2000ED
:10190000456E746572206E6577206D6174726978BA
:10191000207365747570207761697420696E206327
:1019200079636C65732028312D323535293E2000CE
:10193000456E746572206E6577207265706561749E
:101940002074696D6520696E206D732028312D39F2
:1019500039293E2000456E746572206E65772068D7
:101960006F6C642074696D6520696E206D7320282A
:10197000312D393939293E2000456E746572206E4B
:101980006577206D6F757365206D6F76656D656E1B
:1019900074206D756C7469706C6965722028312DC6
:1019A0003939293E2000456E746572206E657720B6
:1019B00062617365206D6F757365206D6F76656DFF
:1019C000656E742028312D3939293E2000456E740A
:1019D0006572206E657720646F75626C65746170E6
:1019E0002064656C61792074696D6520696E206D75
:1019F000732028312D393939293E2000456E746510
:101A000072206E6577207461702074696D6520693D
:101A10006E206D732028312D393939293E2000453B
:101A20006E746572206E6577206465626F756E6393
:101A3000652074696D6520696E206D732028312DD5
:101A40003939293E20005365743A00456E74657239
:101A5000206E65772064656661756C74206C6179B1
:101A600065722028302D39293E2000427974657333
:101A70002028686578293E2000416464726573738C
:101A80002028686578293E200020532D3078005D9D
:101A900020432D3078000A5B004E756D206C6F631B
:101AA0006B206973206C696E6B656420746F2074A1
:101AB00068652073797374656D206E756D206C6F29
:101AC000636B2E0A004E756D206C6F636B20776917
:101AD0006C6C2066756E6374696F6E20696E6465E8
:101AE00070656E64656E746C79206F6620746865CD
:101AF0002073797374656D206E756D206C6F636BE8
:101B00002E0A004B6579626F6172642061637473A1
:101B100020617320657874656E646564204E4B5255
:101B20004F206B6579626F617264207769746820F9
:101B30006D6F75736520616E64206D6564696120E9
:101B40006B6579732E0A004B6579626F6172642050
:101B50006163747320617320364B524F206B65793B
:101B6000626F61726420706C7573206D6F75736540
:101B700020616E64206D65646961206B6579732EE8
:101B80000A004B6579626F617264206973206C6929
:101B90006D6974656420746F207374616E64617222
:101BA0006420364B524F20626F6F742D636F6D70DF
:101BB000617469626C65206B6579626F6172642E15
:101BC0000A005363726F6C6C206C6F636B207769D3
:101BD0006C6C206E6F742061666665637420776933
:101BE0006E206C6F636B2E0A0057696E646F77739B
:101BF000206B65792077696C6C206265206469735D
:101C000061626C6564207768656E207363726F6CC7
:101C10006C206C6F636B20697320656E61626C650C
:101C2000642E0A004E756D206C6F636B2077696CB3
:101C30006C206E6F7420616666656374206E756DCE
:101C400062657220726F772E0A004E756D62657242
:101C500020726F772077696C6C20626520737761E2
:101C60007070656420666F72206E756D706164209F
:101C70006B657973207768656E206E756D206C6F6B
:101C8000636B20697320656E61626C65642E0A0067
:101C9000496E707574206E6F74207265636F676E25
:101CA000697A65642E0A000A54696D696E67204D71
:101CB000656E753A0A312920536574206465626F38
:101CC000756E63652074696D650A322920536574E9
:101CD000206D617820686F6C642074696D65206682
:101CE0006F72207461700A332920536574206D610E
:101CF000782064656C61792074696D6520666F7207
:101D000020646F75626C65207461700A34292053F9
:101D100065742062617365206D6F757365206D6FEA
:101D200076656D656E740A352920536574206D6F74
:101D3000757365206D6F76656D656E74206D756C5D
:101D40007469706C6965720A362920536574206D58
:101D5000696E20686F6C642074696D6520666F72AF
:101D6000207265706561740A37292053657420728A
:101D7000657065617420706572696F640A38292026
:101D8000536574206D617472697820736574757021
:101D900020776169740A3929204261636B0A3E2009
:101DA000000A436F6E666967204D656E753A0A31A9
:101DB0002920546F67676C65207669727475616C51
:101DC000206E756D207061640A322920546F676738
:101DD0006C652077696E206C6F636B206F6E20736B
:101DE00063726F6C6C206C6F636B0A3329205365D0
:101DF000742064656661756C74206C617965720A23
:101E0000342920546F67676C6520626173696320B1
:101E10006B6579626F6172640A352920546F676758
:101E20006C6520756E6C696E6B206E756D206C6FC5
:101E3000636B0A3629205365742064656661756C8E
:101E4000742064696D6D6572206C6576656C0A3707
:101E500029205365742064656661756C7420626125
:101E6000636B6C6967687420656E61626C650A39C2
:101E700029204261636B0A3E20000A44656275674F
:101E8000204D656E753A0A3129205072696E7420B2
:101E90006576656E74730A322920436C6561722021
:101EA0006576656E74730A3329204578616D696EB5
:101EB00065206D656D6F72790A3429205072696EE4
:101EC000742F636C65617220636C6F636B2D696E38
:101ED000730A3929204261636B0A3E20000A4D6172
:101EE000696E204D656E753A0A312920436F6E6622
:101EF0006967206D656E750A32292054696D696EB7
:101F000067206D656E750A33292044656275672008
:101F10006D656E750A34292052657365740A392916
:101F200020517569740A3E20001E4D1F51204E211C
:101F3000502200234F244A2552264B2749374CE292
:101F400000E900EA00E500B500B600B700CD0024C6
:101F500002250283018A019201940121022302C118
:101F600001C202C304C408C510E001E102E204E3B7
:101F700008E410E520E640E7800105080A0C0F1090
:101F80001414181800386E030001770301017B0355
:101F900002016C030301720304017A0305017C034F
:101FA00006016F0307016903080174030902700346
:101FB0000B026D030D0173030E0178030F026B0317
:101FC0001101760312016141624263436444654535
:101FD00066466747684869496A4A6B4B6C4C6D4D69
:101FE0006E4E6F4F705071517252735374547555D9
:101FF00076567757785879597A5A312132403323B7
:1020000034243525365E3726382A39283029000011
:1020100000000000000020202D5F3D2B5B7B5D7DDC
:102020005C7C237E3B3A2722607E2C3C2E3E2F3F59
:1020300000000000000000000000000000000000A0
:102040000000000000000000000000000000000090
:102050000000000000000000000000000000000080
:102060000000000000002F2F2A2A2D2D2B2B00000E
:1020700031003200330034003500360037003800BC
:10208000390030002E005C7C0000000000000000E1
:102090000000000000000000000000000000000040
:1020A0000000000000006162636465666768696A39
:1020B0006B6C6D6E6F707172737475767778797AF8
:1020C0004142434445464748494A4B4C4D4E4F5088
:1020D0005152535455565758595A3031323334357A
:1020E000363738392122232425262728292A2B2C44
:1020F0002D2E2F3A3B3C3D3E3F405B5C5D5E5F607A
:102100007B7C7D7E004A03450061007300790041BD
:10211000005600520020004D0075006C00740069EC
:10212000006D00650064006900610020004B0065DF
:1021300000790062006F0061007200640020007688
:102140000023002E00230023002E00230023000084
:10215000000403090409022200010100A03209045D
:10216000000001030101000921B0010001223F002C
:102170000705810308000109025400030100A03291
:102180000904000001030101000921B0010001223E
:102190003F00070581030800010904010001030154
:1021A00002000921B0010001223A00070582030361
:1021B00000050904020001030000000921B001002C
:1021C00001221B00070583030200080902540003D3
:1021D0000100A0320904000001030101000921B03F
:1021E000010001223F0007058103120001090401DB
:1021F0000001030102000921B0010001223A000799
:102200000582030300050904020001030000000920
:1022100021B0010001221B00070583030200081200
:1022200001000200000008EB03FF20100000010085
:1022300001050C0901A101050C160100269C021ADA
:1022400001002A9C02751095018100C00501090258
:10225000A1010901A10005091901290315002501A2
:10226000950375018102950175058101050109300C
:1022700009311681FF267F003600004600009502D6
:1022800075088106C0C005010906A101050719E00E
:1022900029E715002501750195088102950175084A
:1022A000810105081901290595057501910295011E
:1022B000750391011500250105071900297F9580F7
:1022C00075018102C005010906A101050719E02970
:1022D000E7150025017501950881029501750881B2
:1022E00001050819012905950575019102950175EA
:1022F000039101150025FF0507190029FF950675B3
:10230000088100C011241FBECFEFDAE0DEBFCDBFD1
:1023100084B714BE0FB6F894A895909160009861A8
:1023200090936000109260000FBE83FF11C08091F7
:10233000A4039091A5038D3A9E4D51F41092A503EC
:102340001092A403E4E8FFE125913491F901099585
:1023500085B7806885BF85B7806885BF11E0A0E03C
:10236000B1E0EAEFF0E602C005900D92AE34B1079D
:10237000D9F723E0AEE4B1E001C01D92A43AB20760
:10238000E1F70E94E72F0C947B300C940000109230
:1023900071011092700110926C0110926B011092F9
:1023A0007B0110927A01089590916D0180917801DE
:1023B000992399F181113AC080916F01811129C04F
:1023C00080918C01811121C0E0916601E91305C063
:1023D00010926D011092660129C081E08E0F8093EA
:1023E0006601F0E0EE0FFF1FE458FE4F80819181FF
:1023F000813019F490936F0119C090936701809315
:102400008C01882399F05CD711C08FD710928C0172
:102410000DC0815080936F0109C0811107C01092D7
:10242000670180916E018D7F80936E0180917801AC
:10243000811103C081E08093780108958091240286
:1024400090916801981731F180936801882311F108
:10245000883211F0883531F480916E018B7F809342
:102460006E010895E0916A018A3251F4EE2391F0F1
:10247000E150E0936A01F0E0EE58FE4F10820895BB
:10248000E63040F4AE2FB0E0AE58BE4F8C93EF5F15
:10249000E0936A01089580912402811102C0109294
:1024A0006E010895BC0180916D01DB01982F292FE9
:1024B000281B983058F090936D01620F711D27FD15
:1024C0007A9570937B0160937A0122C0FD0125917A
:1024D0003491211109C090936D0110927B011092EB
:1024E0007A019923D1F014C0492F50E0F901FF2758
:1024F000EE0FFF1FEC50FF4F25913491440F551FF5
:10250000FA01E458FE4F318320839F5F1196CFCFAD
:1025100080916E01836080936E0181E00895409107
:102520006D0128E030E0241B31092617370758F1E8
:10253000B0E04B2F0B2E000C550B46175707D8F465
:10254000A0916D012A2F30E0FC01E40FF51FE0811E
:10255000F0E0EE0FFF1FEC50FF4F45915491220F1A
:10256000331FF901E458FE4F51834083AF5FA093BE
:102570006D01BF5FDECF672B41F080916E018360FC
:1025800080936E0102C080E0089581E008959091EB
:102590006D01983090F4E92FF0E0EE0FFF1FE45842
:1025A000FE4F808361839F5F90936D0180916E01E8
:1025B000836080936E0181E0089580E008959C011E
:1025C00090916D0191112EC0A901983049F490931A
:1025D0006D01205F3F4F30937101209370011BC04C
:1025E000FA01659174914E5F5F4F6115710549F471
:1025F00090936D011092710110927001992381F0F6
:102600000AC0E92FF0E0EE0FFF1FE458FE4F718380
:1026100060839F5FDACF80916E01836080936E014B
:1026200081E0089580E00895AC0180916D018111F1
:102630003EC060937901282F082E000C330B26171B
:10264000370758F590916D01220F331F983038F0FD
:10265000240F351F30936C0120936B011EC0FA01CB
:10266000E20FF31F20813181E92FF0E0EE0FFF1F11
:10267000E458FE4F318320839F5F90936D019091CA
:102680007901915090937901911105C010926C01DC
:1026900010926B0102C08F5FCECF80916D018823B5
:1026A00041F080916E01836080936E0102C080E0F2
:1026B000089581E0089590916E0191FD75CE20916D
:1026C0007001309171012115310511F0C90177CFE9
:1026D00020916B0130916C012115310539F0609129
:1026E0007901062E000C770BC9019ECF20917A014B
:1026F00030917B012115310511F0C901D3CE92FD36
:102700009DCEC9CEE2E7F1E01082118212821382DF
:102710001482158210926A018091240280936801CC
:1027200080916E01856080936E010895E82FF0E03E
:10273000EE0FFF1FEC50FF4F85919491089508957F
:102740009091C301903178F4E92FF0E09F01220FBE
:10275000331FE20FF31FE257FE4F808372836183C2
:102760009F5F9093C301089541111BC04091C30125
:1027700050E090E0292F092E000C330B2417350769
:1027800084F4F901EE0FFF1F2E0F3F1FF901E257EE
:10279000FE4F2081281303C07283618308959F5FD9
:1027A000E9CFCECF8A3010F4805D0895895C08951A
:1027B0001F93CF93DF93182FEB0182958F70F2DF79
:1027C0008883812F8F70EEDF8983DF91CF911F91F6
:1027D00008951F93CF93DF93182FEB01892FE8DF24
:1027E000BE016E5F7F4F812FDF91CF911F91E0CFB0
:1027F0008F929F92AF92BF92CF92DF92EF92FF9211
:102800000F931F93CF93DF931F92CDB7DEB79C0139
:102810008B0180E3FB01808380E28183828383E0FC
:10282000E82EF12C94E6892E912C4AE0B42E682DE6
:1028300070E0911003C02617370790F06801C90CAB
:10284000D11C97FCDA94C9010E94FA2FA82E862F7A
:102850009983A8DFF60180832A2D9981392F9394DB
:10286000882D6B2D0E94EE2F882EF1E0EF1AF108D3
:10287000F1F60F90DF91CF911F910F91FF90EF90A4
:10288000DF90CF90BF90AF909F908F90089597EA80
:10289000980F993010F48855089592EE980F99305A
:1028A00010F48D5108959CEF980F963010F48A5FC4
:1028B000089580E00895BF92CF92DF92EF92FF9249
:1028C0000F931F93CF93DF937C018B0180E090E007
:1028D000B12CC42FD0E02B2D0B2C000C330B201768
:1028E000310790F48C9F60018D9FD00C9C9FD00C81
:1028F0001124F701E20FF31F8081C9DF9601280F31
:10290000311DC901B394E7CFDF91CF911F910F9192
:10291000FF90EF90DF90CF90BF9008950F931F939B
:10292000CF93DF9300D000D0CDB7DEB780916E019A
:10293000811154C4E0918D018E2F90E08A31910570
:1029400008F04AC4FC01EA5AFF4F0C9421308DED87
:102950009EE1A8DDD7DE82E011C011E010938D0169
:102960008091720194DF893009F436C4843019F4FF
:102970001093C40133C4813021F483E080938D012E
:102980002DC4823011F487E0F9CF833009F4D9C126
:1029900080E99CE120C081EA9DE184DDB3DE84E032
:1029A000EDCF13E010938D018091720170DF8930BB
:1029B00011F481E0E3CF813099F490917B03892772
:1029C00080937B0382E00E94532480917B038823C1
:1029D00021F08AE49CE166DD01C484E29CE1FBCF46
:1029E000823099F49091770381E08927809377036F
:1029F00081E00E94532480917703882319F089EEA7
:102A00009BE1E9CF82EC9BE1E6CF8330B1F486E431
:102A10009AE148DDBE016F5F7F4F80916C03C8DE95
:102A20008AE08B8363E070E0CE01019678DD8BE471
:102A30009AE138DD67DE8FE0A1CF8430F9F4809130
:102A40007A03811109C081E080937A0385E00E94B6
:102A5000532487E49BE1BFCF813041F410937A0384
:102A600085E00E94532482E89BE1B5CF10927A035F
:102A700085E00E94532483E09BE1ADCF853099F43B
:102A800090916F0381E0892780936F0387E00E9414
:102A9000532480916F03882319F085EC9AE19BCF32
:102AA00089E99AE198CF8630B9F486E49AE1FADCB4
:102AB00080917203BE016F5F7F4F90E099DE8AE0E4
:102AC0008B8363E070E0CE01019629DD8CEA98E10A
:102AD000E9DC18DE80E152CF873009F059CF86E477
:102AE0009AE1E0DC8091690390E0BE016F5F7F4F67
:102AF00001967EDE8AE08B8363E070E0CE01019672
:102B00000EDD84ED98E1CEDCFDDD81E137CF87EA93
:102B10009CE1C8DCF7DD88E031CF87E080938D0150
:102B200080917201B4DE893009F443CF8130B9F469
:102B300086E49AE1B7DC80917C03BE016F5F7F4F32
:102B400090E056DE8AE08B8363E070E0CE01019670
:102B5000E6DC8FE19AE1A6DCD5DD82E10FCF8230A1
:102B6000C1F486E49AE19EDCBE016F5F7F4F8091E5
:102B70007403909175033CDE8AE08C8364E070E01E
:102B8000CE010196CCDC8CEF99E18CDCBBDD83E1DE
:102B9000F5CE8330D9F486E49AE184DC8091700329
:102BA00090917103BE016F5F7F4F9195819591095F
:102BB0001FDE8AE08C8364E070E0CE010196AFDC1A
:102BC0008DEC99E16FDC9EDD84E1D8CE8430B9F4E0
:102BD00086E49AE167DC80916D03BE016F5F7F4FF1
:102BE00090E006DE8AE08B8363E070E0CE01019620
:102BF00096DC86EA99E156DC85DD85E1BFCE85303D
:102C0000B9F486E49AE14EDC80917303BE016F5FF4
:102C10007F4F90E0EDDD8AE08B8363E070E0CE01D2
:102C200001967DDC89E799E13DDC6CDD86E1A6CE8D
:102C30008630C1F486E49AE135DCBE016F5F7F4FD8
:102C40008091780390917903D3DD8AE08C8364E0EE
:102C500070E0CE01019663DC85E599E123DC52DD6D
:102C600087E18CCE8730B9F486E49AE11BDC809151
:102C70006B03BE016F5F7F4F90E0BADD8AE08B830C
:102C800063E070E0CE0101964ADC80E399E10ADC62
:102C900039DD88E173CE883009F0A0C286E49AE17C
:102CA00001DC80917603BE016F5F7F4F90E0A0DD75
:102CB0008AE08C8364E070E0CE01019630DC80E035
:102CC00099E1F0DB1FDD89E159CE8AE79EE1EADB7D
:102CD00019DD86E053CE85E080938D0180917201ED
:102CE000D6DD893009F465CE813011F489E046CE15
:102CF000823069F4EEE8F1E010821282118233969C
:102D000041E0EE3BF407C1F71092C30167C2833084
:102D100031F489E79AE1C6DBF5DC8CE02FCE843014
:102D200009F036CE8EE02ACE8091C201803158F073
:102D30001092C2018AE0898361E070E0CE010196C1
:102D4000EEDB85E01BCE86E99AE1ACDBBE016F5F6E
:102D50007F4F8091C2012CDD62E070E0CE010196D0
:102D6000DEDB8FE89AE19EDB8AE008CE8091C2012B
:102D700090E0FC01EE0FFF1F8E0F9F1FFC01E2573A
:102D8000FE4FBE016F5F7F4F808112DD62E070E019
:102D9000CE010196C4DB89E89AE184DB8BE0EECDBD
:102DA0008091C20190E0FC01EE0FFF1F8E0F9F1F6C
:102DB000FC01E257FE4FBE016F5F7F4F8181928120
:102DC00008DD64E070E0CE010196A9DB89E0809324
:102DD0008D01A2C060916A0170E040E182E791E05C
:102DE0006ADD9093BF018093BE011092C1011092E1
:102DF000C0018BE69AE156DB85DC8DE0BFCD80918A
:102E0000C0019091C101892B89F40091BE011091FC
:102E1000BF0160916A0170E040E182E791E04BDD23
:102E2000800F911F9093C1018093C00110E20AE0CE
:102E3000E091BE01F091BF018091C0019091C1016C
:102E4000E817F907D8F4BE016F5F7F4F8081B0DCCF
:102E50008091C0019091C10101972091BE013091F4
:102E6000BF012817390711F40B8301C01B8363E0EE
:102E700070E0CE01019653DB81110DC02091BE019F
:102E80003091BF018091C0019091C101281739078D
:102E900008F057CFA3C18091BE019091BF01019668
:102EA0009093BF018093BE01C3CF8091C2018A304D
:102EB00078F01092C2018AE0898361E070E0CE016F
:102EC00001962DDB85E080938D010E94F72686C157
:102ED000082F0695182F117080FD02C08AE001C0EE
:102EE00080E2898361E070E0CE01019618DB85E025
:102EF000189FF0011124E00FF11DEE0FFF1FED5799
:102F0000FC4FBE016F5F7F4F8081918162DC64E086
:102F100070E0CE01019603DB8091C2018F5F809348
:102F2000C2015CC160916A0170E04AE082E791E011
:102F3000C2DC8A30910578F480936C0383E00E94B0
:102F4000532486E49AE1AEDABE016F5F7F4F809131
:102F50006C032EDC1AC18DE998E1A4DA0ECD6091E4
:102F60006A0170E04AE082E791E0A5DC9C01215013
:102F700031092336310558F480937C0386E00E94A2
:102F8000532486E49AE18EDA80917C0379C08DE93E
:102F900098E188DAF8CC60916A0170E04AE082E753
:102FA00091E089DC9C0121503109273E334078F7BC
:102FB000909375038093740389E00E94532486E400
:102FC0009AE170DABE016F5F7F4F80917403909138
:102FD0007503B8C060916A0170E04AE082E791E051
:102FE0006ADC9C0121503109273E334080F69195DF
:102FF0008195910990937103809370038AE00E94F8
:10300000532486E49AE14EDA809170039091710323
:10301000BE016F5F7F4F91958195910993C060913B
:103020006A0170E04AE082E791E045DC9C012150B2
:1030300031092336310508F0AACF80936D038BE068
:103040000E94532486E49AE12DDA80916D0318C022
:1030500060916A0170E04AE082E791E02CDC9C011B
:10306000215031092336310508F091CF8093730345
:103070008CE00E94532486E49AE114DA8091730371
:10308000BE016F5F7F4F90E0B3DB8AE08B8363E02C
:1030900070E0CE01019643DA76CC60916A0170E06F
:1030A0004AE082E791E007DC9C0121503109273E8C
:1030B000334008F06CCF90937903809378038DE0D0
:1030C0000E94532486E49AE1EDD9BE016F5F7F4FE1
:1030D000809178039091790335C060916A0170E026
:1030E0004AE082E791E0E7DB9C0121503109233679
:1030F000310508F04CCF80936B038EE00E9453247F
:1031000086E49AE1CFD980916B03BACF60916A01CE
:1031100070E04AE082E791E0CEDB9C01215031096A
:103120002F3F310508F033CF809376038FE00E9464
:10313000532486E49AE1B6D980917603BE016F5F8D
:103140007F4F90E055DB8AE08C8364E070E0A1CF94
:1031500060916A0170E04AE082E791E0ACDB9C019B
:10316000215031092031310508F0F5CE80937203EA
:1031700084E00E94532486E49AE194D980917203FA
:10318000BE016F5F7F4F90E033DB8AE08B8363E0AB
:1031900070E0CE010196C3D9F0CB60916A0170E076
:1031A0004AE082E791E087DB9C0121503109203120
:1031B000310508F0D0CE81508093690388E00E94E9
:1031C000532486E49AE16ED98091690390E0BE01B0
:1031D0006F5F7F4F0196D8CF10928D010F900F90A7
:1031E0000F900F90DF91CF911F910F91089526E0DE
:1031F000829FC0011124FC01E05DFE4F0190F0812F
:10320000E02D208181E090E001C0880F6A95EAF707
:10321000822B8083089526E0829FC0011124FC0147
:10322000E05DFE4F0190F081E02D80816095682384
:10323000462B4083089526E0829FC0011124FC01A3
:10324000E05DFE4F0280F381E02D208181E090E07F
:1032500001C0880F6A95EAF7822B8083089526E0E3
:10326000829FC0011124FC01E05DFE4F0280F381CA
:10327000E02D208181E090E001C0880F6A95EAF797
:10328000809582238083089526E0829FC0011124C7
:10329000FC01E05DFE4F0280F381E02D8081682318
:1032A000462B4083089526E0829FC0011124FC0133
:1032B000E05DFE4F0480F581E02D80818623089536
:1032C000E82FE695E695E695F0E0E95EFD4F982F4C
:1032D000977021E030E001C0220F9A95EAF79081C3
:1032E000292B20839091110220E029175CF4E22F12
:1032F000022E000CFF0BEC5DFD4F30813817A1F062
:103300002F5FF3CF96305CF4E92F092E000CFF0BF2
:10331000EC5DFD4F80839F5F9093110208951092A2
:103320002A0281E08093F7020895E82FE695E6955A
:10333000E695F0E0E95EFD4F982F977021E030E0D0
:1033400001C0220F9A95EAF72095908129232083C6
:103350009091110244E252E0FA012E2F241B29170A
:1033600024F431913813F9CF01C00895E22F022ED1
:10337000000CFF0BEC5DFD4F818180832F5F2917CF
:10338000ACF39150909311021092F7020895E82F38
:10339000E695E695E695F0E0E95EFD4F982F97708B
:1033A00021E030E001C0220F9A95EAF790812927A9
:1033B00020839091110244E252E0FA012E2F241B47
:1033C000291724F431913813F9CF13C096305CF4E7
:1033D000E92F092E000CFF0BEC5DFD4F80839F5FF2
:1033E00090931102089510922A0281E08093F702CF
:1033F0000895E22F022E000CFF0BEC5DFD4F818142
:1034000080832F5F2917ACF3915090931102109293
:10341000F70208959091CC0294305CF4E92F092EC4
:10342000000CFF0BEE5EFD4F80839F5F9093CC02FC
:10343000089540E060E070E082E496D910921602B0
:1034400008952091CC0242E152E0FA019E2F941B94
:1034500092179CF431913813F9CF921751F0E92F5C
:10346000092E000CFF0BEE5EFD4F818180839F5F74
:10347000F4CF91509093CC020895682F70E040E013
:1034800083E472C980916C038093FA020895982FA7
:10349000990F890F880F860F90910D0289130DC027
:1034A00080917003909171038417950734F4809193
:1034B000F9028F5F8093F902089510920D02109225
:1034C000F9020895E0917403F09175034E175F07B8
:1034D0005CF491E0F9019083982F990F890F880F80
:1034E000860F80930D020895F901108210920D024B
:1034F0001092F902089590917901E92FEE0FFF0BD8
:10350000E45DFD4F20910F0230E0322F2227282B5F
:103510003183208381E0890F80937901803534F0F5
:103520001092F5028093690180E14BC50895909156
:10353000FB02911110C0805D8E3068F4E82FF0E03E
:10354000EE0FFF1FE45DF94F85919491880F991F4D
:10355000845D994F34C80895CF93DF93C82FD62F39
:1035600059DF8091FA0290916C03891711F08B5FFB
:1035700028D580E18C0F8093FA0285E18C0F01D56C
:103580008FE0FFD48091FA0290910E02D0FF02C02A
:10359000981308C0981308C08091F902811104C0E3
:1035A00080916C0380930E02DF91CF9108951F9359
:1035B000CF93DF9300D01F92CDB7DEB7182F2B83A8
:1035C0004A8369833EDF2B814A816981222399F1F5
:1035D0002091FA02E22FF0E0812F90E0805F9109C4
:1035E000E817F90741F58091F902882319F061FD88
:1035F00020930E028091100281131DC062FF1BC038
:10360000141624F460910F02842F13C0842F807E3F
:10361000803E89F4E42FF0E0EE0FFF1FE655F24EF6
:103620008491809590910F02892380930F02649179
:1036300080E00E94C7128091FA028B5FC2D4E091B1
:10364000CC02E11103C080910E0207C00E2E000CC7
:10365000FF0BEF5EFD4F8081805F8093FA028091C7
:10366000FA0290916C03891741F08B5F0F900F90D5
:103670000F90DF91CF911F9184C48FE00F900F9036
:103680000F90DF91CF911F919CC46F70623051F009
:1036900028F4662339F0613081F00895643011F028
:1036A0006830F1F4E82FF0E0EE0FFF1FE655F24E20
:1036B000E49180910F02E82B0AC0E82FF0E0EE0FB2
:1036C000FF1FE655F24EE49180910F02E827E09348
:1036D0000F028091F802882319F0E777E0930F0238
:1036E00008956F70623009F43FC018F4662381F1C9
:1036F0000895643019F0683059F10895E82FF0E02A
:10370000EE0FFF1FE655F24EE491E09560910F0237
:103710006E2360930F02222309F444C0909110029B
:10372000981340C0842F14168CF0807E803E09F0E0
:1037300039C0E42FF0E0EE0FFF1FE655F24E849102
:103740008095682360930F02649180E00C94C71207
:10375000E82FF0E0EE0FFF1FE655F24EE491E09502
:1037600080910F02E8231CC0E82FF0E090910F0237
:10377000EE0FFF1FE655F24E222379F08091F902F9
:10378000882359F08491E82FE92BE0930F02809170
:10379000F802882339F0E77703C0E491E095E92344
:1037A000E0930F0208956F70623051F028F46623A1
:1037B00039F0613031F00895643011F0683011F45F
:1037C0007FCDE5CD08956F70623049F018F4611136
:1037D0000DC00BC0643049F0683041F406C02223AC
:1037E00021F09091F902911101C09FCD08951F938E
:1037F000CF93DF931F92CDB7DEB7182F862F807F30
:1038000011F080936701103CA8F5103B08F0B3C09D
:10381000133A09F47EC0E8F4133809F470C068F470
:10382000143008F401C1143708F45EC0123809F0EE
:10383000FBC060910F0289E365C0113A09F465C0CD
:1038400008F065C0143809F0EFC060910F0287E4FA
:1038500059C0193A09F476C020F4183A08F06BC040
:103860005AC01E3A09F47BC008F07DC01A3A09F428
:10387000E1C0DAC01E3D20F5103D08F0ADC0163C99
:1038800009F48EC088F4113C08F4CEC0EFE3E10FD8
:10389000F0E0EE0FFF1FE05AF04EE4918091F3024A
:1038A000E82BE093F302C6C0183C09F483C008F487
:1038B0007BC0193C09F0B8C080912B028F5F7DC09E
:1038C000183E50F4103E08F0ACC01E3D09F487C00D
:1038D0001F3D09F498C0A8C08FE0810F893008F01F
:1038E000A3C0812F39DEA6C08091F502882321F084
:1038F000812F698300DE6981812F55DF9BC0609134
:103900000F0283E50E94C71295C03ED493C016D41F
:1039100091C006D48FC08091F50281118BC081E0E7
:103920008093F502109279018093FB028CE5810F60
:1039300080937F035EC09091FB0281E08927809392
:10394000FB0278C09091F80281E089278093F80209
:10395000811102C085E055C085E013D36BC082E0C1
:103960008093C40167C080918D01811163C081E0A3
:1039700080938D015FC08091CD029091CE02892B02
:1039800009F058C0E0E5E10FF0E0EE0FFF1FE15C49
:10399000F04E859194919093CE028093CD024AC0CF
:1039A0008091F4028F5F03C08091F4028150809374
:1039B000F40205C080912B02815080932B029091DC
:1039C00068038091F902992321F09091660398177A
:1039D00088F5809366032EC0812FA9DD2BC09091BE
:1039E000F50281E089278093F502882321F0109267
:1039F000790180E1B2CF80917901811180936901D1
:103A000080E1DFD217C08091F502811113C060916F
:103A10006901062E000C770B8CE292E00E941413D1
:103A200009C0812F32DE06C0612F70E040E084E4DF
:103A30000E94B413109310020F90DF91CF911F9149
:103A400008951F93CF93DF9300D01F92CDB7DEB7B9
:103A5000182F862F807F11F010926701163C28F5F1
:103A6000113C08F093C01B3AB0F4113A08F0D2C0F0
:103A7000123809F465C028F48CEF810F8037C8F143
:103A8000BDC0133809F460C0143809F0B7C06091A4
:103A90000F0287E45CC01E3A08F4B0C0103B08F483
:103AA000B9C0103C08F45BC0A9C0103E90F4103DB2
:103AB00008F0B0C0173C09F47DC008F477C0183C8A
:103AC00009F47EC0193C09F099C080912B02815005
:103AD0007AC0183E08F47AC08FE0810F893008F070
:103AE0008DC0812F0F900F900F90DF91CF911F917C
:103AF0005ECD8091F5028823D9F08091FB02882366
:103B0000B9F0183211F01B3299F41092FB021092A6
:103B1000F5028091790181508093690110928003B0
:103B200080E12B834A8369834CD269814A812B814E
:103B3000812F0F900F900F90DF91CF911F9143CE67
:103B400060910F0289E303C060910F0283E50F903B
:103B50000F900F90DF91CF911F910C94C71260E5E9
:103B6000610FE62FF0E0EE0FFF1FE15CF04E859154
:103B700094912091CD023091CE022817390709F097
:103B800049C01092CE021092CD0244C06FE3610F83
:103B9000E62FF0E0EE0FFF1FE05AF04EE491E095C3
:103BA0008091F302E823E093F30234C08091F402A1
:103BB000815003C08091F4028F5F8093F4022AC089
:103BC00080912B028F5F80932B0224C08091F5029D
:103BD000882361F080911002811308C080E02B835C
:103BE0004A83698388DC69814A812B81812F0F9008
:103BF0000F900F90DF91CF911F9173CD612F70E0E7
:103C000040E085E40F900F900F90DF91CF911F91CE
:103C10000C94B4130F900F900F90DF91CF911F91E0
:103C2000089520910F02227291E009F090E0209116
:103C30007B03222359F02091F602222339F09923A5
:103C400029F022EE280F2A3008F4855C20916F03BA
:103C5000222321F1833571F49091F60281E08927C6
:103C60008093F602882319F080E08BD11FC080E09A
:103C7000A8D11CC027EA280F2B3080F42091F6022F
:103C8000E82FF0E0EE0FFF1F222329F0992319F00F
:103C9000E958F14E02C0E858F14E84918A3A39F45D
:103CA000911102C085E3089589E2089580E00895A6
:103CB000AF92BF92CF92DF92EF92FF920F931F933A
:103CC000CF93DF9300D01F92CDB7DEB7D82E062F4B
:103CD00010E08091FA0294E2C92E96E0D99E70011C
:103CE0001124F701C89EE00DF11D1124E00FF11F12
:103CF000EC53FB4F84914A835B83698392DFB82E38
:103D00008091FA029701C89E200D311D1124200FC9
:103D1000311FF901E45AFC4FC490F901EC50FE4FF9
:103D2000A4900E0D1F1DF801E751FE4FB082F8015F
:103D3000E153FD4FC082F801EB53FE4FA0824A8150
:103D40005B8169818D2DA3DB4A2D6C2D8B2D4FDD81
:103D500025D20F900F900F90DF91CF911F910F916F
:103D6000FF90EF90DF90CF90BF90AF900C94D6284B
:103D70009F92AF92BF92CF92DF92EF92FF920F93FA
:103D80001F93CF93DF931F92CDB7DEB796E0899F45
:103D900090011124260F311DF901E751FE4F6F01EB
:103DA000B080F901E153FD4F7F01A08089010B53E1
:103DB0001E4FF80190809E012F5F3F4F83DB2981CA
:103DC000492D6A2D8B2D3DDEF6011082F701108200
:103DD000F80110820F90DF91CF911F910F91FF900A
:103DE000EF90DF90CF90BF90AF909F90089526E026
:103DF000829FC00111249C01260F311DF901E7515A
:103E0000FE4F8081F901E153FD4F908193FF1AC06D
:103E100018161CF460910F0213C0982F907E903EEC
:103E200089F4E82FF0E0EE0FFF1FE655F24E849183
:103E3000809590910F02892380930F02649180E016
:103E40000C94C71208952091FB02211112C0FC01AD
:103E5000A4E2B2E0069621E03091F702332311F09C
:103E6000208302C03C91308331961196E817F90700
:103E700099F708952091FB02211109C0DC01E7E1C7
:103E8000F2E08DE08E0F91919D938E13FCCF0895FB
:103E9000FC018091FB02811106C080916701909125
:103EA0000F02982B9083089526E0829FC001112471
:103EB000FC01E60FF11DEC53FB4FE491E83211F0E9
:103EC000E83539F441E060E070E081E50E94B41328
:103ED0004CC4089590E09C01220F331F820F931F62
:103EE000FC01E759F84E2491FC0131968959984E0E
:103EF000E959F84E621721F06491FC0184919BC945
:103F00006491FC018491ABC90F931F93CF93DF930E
:103F1000E8E9F7E1D49107E617E1C0E0CD1769F0D1
:103F2000F80131966491F801849161D960E08C2F99
:103F3000D1DFCF5F0D5F1F4FF1CF80917203809370
:103F40000B03809308038091690380930603DF913C
:103F5000CF911F910F91089580910403893F69F4D7
:103F6000809110038F3E19F41092100303C08F5FED
:103F7000809310031092040308958F5F80930403CD
:103F8000089590E0880F991FFC01E35CF84EA4911E
:103F9000FC01E25CF84E8491E7E9F7E1E491AE17A9
:103FA00078F4B0E0A450BD4F811103C08C918160C2
:103FB00006C09C919170E82FEE0F892F8E0F8C9385
:103FC000089590E0880F991FFC01E35CF84EA491DE
:103FD000FC01E25CF84E8491E7E9F7E1E491AE1769
:103FE00080F4B0E0A450BD4F811104C08C918E7F4D
:103FF0008C9308959C91292F2695281302C09170C7
:104000009C930895823049F0833079F08130A1F497
:1040100081E1B7DF82E1D5DF0CC081E1D2DF82E14F
:10402000D0DF83E1AEDF84E1CCCF81E1CADF82E182
:10403000A8DF83E1C6DFF7CF81E1C3DF82E1C1DF23
:1040400083E1BFDF84E19DCF0F931F93CF93E7E917
:10405000F7E1E491C0E00E2F10E08C2F0C2E000C45
:10406000990B8017910714F5209107032223C9F0BB
:10407000FC01E450FD4F2081223018F421110FC0C3
:1040800010C0E22FE695F0E0E758F04E6491809181
:1040900010030E94EE2F921720F490FF02C061E0FF
:1040A00001C060E08C2F16DFCF5FD7CFCF911F917B
:1040B0000F91089580910B03803110F081E002C0D0
:1040C0008C5F8C7F80930B03089580910C038F5F2E
:1040D000813118F480930C03089581E080930C03E0
:1040E00010920A0310920F03089590910B039031E0
:1040F00020F081E080930703089580910A032091C6
:104100000C03929F902D1124891738F491E090931D
:104110000703805F80930A030895109207030895B0
:10412000ECE3F7E1E491809106038F5F8E1718F4BA
:1041300080930603089510920603089580910D035D
:104140008F5F843018F480930D0302C010920D032A
:1041500080910D03811103C080910B0303C0813056
:1041600021F484E0809308030895823031F484E0E0
:104170008093080310920903089580E18093080357
:1041800081E080930903089595DF80910D038111EB
:1041900004C080910B0380930803089580910D0360
:1041A000823011F488E10BC0833071F480910803F0
:1041B000853010F0845003C0882321F08150809313
:1041C0000803089510920803089580910E038F5FED
:1041D000803318F480930E03089510920E0390918B
:1041E0000D039130B1F4209109038091080322233B
:1041F00041F08F5F809308038831E0F0109209034B
:1042000008958150809308038530A0F490930903AA
:104210000895923031F480910803853058F0815030
:1042200007C0933039F480910803803118F48F5F10
:1042300080930803089580910803803120F081E085
:1042400080930503089590910C03899F802D11247C
:10425000909109039111807F90910F03981738F482
:1042600081E080930503905F90930F03089510926F
:10427000050308951F93CF93DF93E8E9F7E1E491F5
:1042800010E0CE2FD0E0212F012E000C330B2C1785
:104290003D07ECF4F901E45DF84EE491EE23A9F05A
:1042A00080910503882371F080910603F90190E164
:1042B000899FE00DF11D1124E45DF94EE49161E068
:1042C000E11101C060E0812F05DE1F5FDCCFDF91CF
:1042D000CF911F910895F9DE08DF3EDEB5DE75DF70
:1042E000AADFC8CF1F920F920FB60F9211240F9022
:1042F0000FBE0F901F901895E4E6F0E0808180716A
:104300008083A5E6B0E08C9186778C938081816074
:1043100080838081846080838081806280838081CB
:10432000806480838C9188608C9380818068808396
:104330008081826080838C9181608C938C918F7757
:104340008C9390E080E80FB6F8948093610090938E
:1043500061000FBE0895D0CF8DEA9EED9093A50326
:104360008093A403089580E189BD82E189BD09B4E9
:1043700000FEFDCF8091D8008F7D8093D800809182
:10438000E00082608093E0008091E00081FDFCCF3E
:104390000895CF92DF92EF92FF921F93CF93DF9316
:1043A000E0EDF7E1E491E0931103EFECF7E1E49144
:1043B000E0931703EEECF7E1E491E0931803EDECE2
:1043C000F7E1E491E093190383ECE82E87E1F82EFE
:1043D00092E1C92E93E0D92ED0E0F701149180919B
:1043E000170381111FEFF7013196C4914C2F612FF4
:1043F0008D2F0E940B192C2F2095F60121936F0110
:10440000422F412380911703642F6095811101C0D1
:1044100040E08D2F0E944419DF5FF2E0EF0EF11CA7
:10442000D530D9F6DF91CF911F91FF90EF90DF90BB
:10443000CF900895CF92DF92EF92FF920F931F9348
:10444000CF93C0E08091180390E02C2F0C2E000C2D
:10445000330B281739070CF054C082E1E82E83E0B3
:10446000F82EF5E0CF026001112400E010E0F80121
:10447000EC0DFD1DEB55F84E4491F70161917F0164
:10448000802F0E9444190F5F1F4F0530110579F7E7
:10449000809176038A95F1F710E0212F012E000C10
:1044A000330B8091190390E02817390744F5809168
:1044B0001703220F331FF901E656F84E882351F0F7
:1044C0006491F901E756F84E84910E9453198823AC
:1044D00051F013C06491F901E756F84E84910E949F
:1044E0005319882351F080911103882319F06C2F00
:1044F000812F02C0612F8C2FD7DC1F5FCECFCF5F03
:10450000A1CFCF911F910F91FF90EF90DF90CF90AF
:104510000895CF93DF93962F642F26E0929FE001BA
:104520001124C40FD11DCC0FDD1FC65EDC4F4881A6
:104530005981882301F157FF0EC020917C0330E0A0
:10454000319521953109241735077CF1892FB0DB8E
:1045500082E090E020C020917803309179034217E7
:10456000530794F0892F43DC20916B038881998154
:10457000821B910910C01416150684F420917C0347
:1045800030E0421753071CF44E5F5F4F10C0892F75
:10459000EFDB8EEF9FEF998388830BC080917003D0
:1045A000909171038417950724F44250510959835F
:1045B0004883DF91CF910895CF92DF92EF92FF92DF
:1045C0000F931F93CF93DF93D62FC82FCD170CF0E7
:1045D0005AC082E1E82E83E0F82EF5E0CF026001B8
:1045E000112400E010E0F70161917F016F3F49F075
:1045F000F801EC0DFD1DEB55F84E4491802F0E9403
:1046000044190F5F1F4F0530110569F7809176033C
:104610008A95F1F710E0212F012E000C330B8091C9
:10462000190390E02817390764F580911703220FCA
:10463000331FF901E656F84E882359F06491F901C9
:10464000E756F84E84910E94531991E0882361F057
:104650000AC06491F901E756F84E84910E945319FB
:1046600091E0811101C090E080911103882319F03D
:104670004C2F612F02C0412F6C2F892F4ADF1F5F03
:10468000CACFCF5FA3CFDF91CF911F910F91FF9042
:10469000EF90DF90CF90089560911803669580E0C9
:1046A0008BCF80911803682F869586CF81E0809309
:1046B0006503089520916503AC01249FC001259FE7
:1046C000900D11246AE070E00E94FA2F809164033B
:1046D000562F581B852F609364032F5F209365032B
:1046E0002B3028F01092640391E0909365030895B5
:1046F0008091F402811104C080912B02882311F172
:1047000081E08093680320916D038091660390910E
:10471000730330916703311120C0899FC0011124B8
:10472000820F911DC7DF9091F402899F902D112473
:104730009093630390912B02899F802D1124809385
:1047400062030BC01092680310926403109263031B
:10475000109262038AE08093650380916703811160
:1047600003C081E0809367030895CF93DF93CDB7B3
:10477000DEB763970FB6F894DEBF0FBECDBF59E129
:1047800050936E031092770310927B0310926C0388
:1047900040E14093720310927A0336E030937C0339
:1047A00010926F031092690380EF90E0909375036D
:1047B0008093740388E89FEF909371038093700354
:1047C00085E080936D032FE02093730360E273E034
:1047D000709379036093780390E290936B038093D6
:1047E000760359831A821B821C824D831E823F836B
:1047F0001886198630EF3A871B8638E83C873FEFEA
:104800003D878E872F87988B23E0298B9A8B8B8B04
:1048100043E150E060E070E0CE0101960E9451302B
:1048200063960FB6F894DEBF0FBECDBFDF91CF9178
:1048300008950F931F93CF93DF93C6E8DFE1FE0146
:10484000329684913196E49190E0E23059F4FE0181
:1048500005911491805090400E944C30F801918352
:10486000808309C0FE0105911491805090400E9400
:104870004430F80180832496FFE1C63CDF07F9F657
:1048800060916E03693131F070E041E080E50E9493
:10489000B4136BDF80917A0380936A03DF91CF9129
:1048A0001F910F91089524E0829FC0011124FC0103
:1048B000E857F04E2491FC01E757F04E3491FC018B
:1048C000EA57F04E822F90E0323041F4A591B49136
:1048D0006D917C91805090400C946830A591B4917A
:1048E0006C91805090400C945A3085E08093800306
:1048F000089580917F032EE28202C0011124FC0101
:10490000E650F84E4491FC01E550F84E3491FC011C
:10491000E450F84E2491FC01E350F84E94915091EC
:10492000790180917D03513079F01CF4552331F0E9
:104930001FC0523081F05330A9F01AC0442321F037
:104940006AE10E94EE2F2EC0332329F06AE10E9413
:10495000EE2F965E27C0222329F06AE00E94EE2FF8
:104960009C5C20C0992321F0982F9F71925C1AC003
:10497000442311F06AE101C060E03111665E21114B
:10498000665F9111605E0E94EE2F411101C0965E3C
:10499000311103C09A3134F0965E211103C0943373
:1049A0000CF0965FE92F990FFF0BEA55FF4D8491AC
:1049B000089584509272E82FF0E0EE0FFF1F9111DE
:1049C00003C0EA53F04E02C0E953F04E84910895BB
:1049D0000F931F93CF93DF93E0917F032091790191
:1049E000022E000C330BCE2F0E2E000CDD0B8EE2B0
:1049F000E802F0011124E750F84E649170E0C9011B
:104A00000E940E30082F10917D0360916901062EDF
:104A1000000C770BC9010E940E30FC01FF27EE0F3E
:104A2000FF1FE45DFD4F80819181C3DF810F982FCF
:104A3000990F87FD9F5F90937D038EE28C9FF0011D
:104A40008D9FF00D1124E00FF11DEF52F84EE4910F
:104A500080917D03E827E0937D03DF91CF911F9143
:104A60000F910895EF92FF920F931F93CF93DF93CF
:104A70001F92CDB7DEB780917F032EE28202C00184
:104A80001124FC01E250F84E6491062F10E020E55D
:104A900030E0201B310B220F331FA901445D5D4F15
:104AA0007A0120918003223009F444C028F42223A3
:104AB00051F02130C9F0AEC0233009F45BC024307E
:104AC00009F47FC0A7C010927D0321E020938003EA
:104AD00010927901FC01E750F84EE491E1119AC07F
:104AE00085E08093800396C020917901FC01E20F5C
:104AF000F11D27FDFA95EF52F84EE49140917D03A8
:104B00004E0F40937D032F5F20937901FC01E75006
:104B1000F84E8491022E000C330B90E028173907D1
:104B20000CF478C082E08093800310927901409366
:104B30007E0370C010917E03E0917901EE0FFF0BB0
:104B4000E45DFD4F80819181698333DF810F809324
:104B50007E03909179019F5F909379012091690183
:104B6000698192170CF456C00E94EE2F90937E0339
:104B700083E022C02DDF80917E03E80EF11CE80E59
:104B8000F11CB7DE0E949613F70191838083809118
:104B90007E0390E00196B8010E940E3080937E0360
:104BA000809179018F5F80937901082E000C990B19
:104BB000801791077CF184E0809380031092790143
:104BC00029C080917901282F220F330BFA01E20FBF
:104BD000F31F40815181F901E45DFD4F5183408312
:104BE0008F5F80937901082E000C990B8017910735
:104BF0008CF085E08093800360936901B8018CE2BA
:104C000092E00F90DF91CF911F910F91FF90EF9065
:104C10000C9414130F90DF91CF911F910F91FF907F
:104C2000EF90089580918003853009F01BCF08959F
:104C300013BC109280001092820080E89EE3909353
:104C400089008093880008951092810378941092CF
:104C500085001092840081E08093810082E080933F
:104C60006F009AE088E10FB6F894A89580936000F1
:104C70000FBE90936000E0E6F0E08081806C80835E
:104C800008950FB6F894A89580916000886180938C
:104C90006000109260000FBEE0E6F0E080818F7B44
:104CA000808310926F0010928100089520918400FB
:104CB00030918500E09181039091970385E08E9F6C
:104CC000F0011124E90FF11DEE0FFF1FED57FC4F0E
:104CD000408151814217530778F4E091810390910C
:104CE00097038E9FF0011124E90FF11DEE0FFF1FB6
:104CF000ED57FC4F3183208308951F93CF93DF93AB
:104D0000C0E0D0E015E080918103FE01189FE00D26
:104D1000F11D1124EE0FFF1FE757F74E8591949177
:104D2000009729F0C0939703FC010995BFDF2196F6
:104D3000C530D10541F7DF91CF911F9108951092B1
:104D400085001092840080918203882381F08091F5
:104D500081036091970370E0782B40E081E10E942D
:104D6000B413809182038F5F80938203089581E062
:104D7000809382037894C1DF809181038F5F809359
:104D80008103823010F0109281038091820382307F
:104D900038F06091820370E040E084E10E94B41337
:104DA000A8951092820308951F920F920FB60F924A
:104DB00011242F933F934F935F936F937F938F9320
:104DC0009F93AF93BF93EF93FF93B9DFFF91EF9161
:104DD000BF91AF919F918F917F916F915F914F9113
:104DE0003F912F910F900FBE0F901F901895E3E801
:104DF000F3E01182108213821282158214821782CC
:104E000016821186108613861286158614861786DA
:104E10001686118A108A138A128A0895292F332739
:104E20002330310511F13CF42130310561F022309D
:104E3000310571F070C02132310531F12232310576
:104E400009F43DC068C082E190E02FE132E26CC01D
:104E500080916A03833009F44AC0813009F44CC060
:104E600084E590E02BEC31E25FC09927009731F0A8
:104E7000019709F050C0E5E0F1E202C0E1E5F1E29E
:104E8000849190E09F0150C0613049F068F0623039
:104E900009F041C089E090E02FE032E245C089E0AE
:104EA00090E026EF31E240C080916A03833049F1FF
:104EB000813061F189E090E02DED31E235C0613063
:104EC00041F060F0623039F58BE190E021E332E2AD
:104ED0002BC08AE390E02CE432E226C080916A0382
:104EE00080FD1EC08FE390E026E832E21DC082E222
:104EF00090E025E531E218C084E590E027E731E253
:104F000013C089E090E027E631E20EC089E090E02E
:104F100029E831E209C080E090E020E030E004C000
:104F20008FE390E025EC32E2FA013183208308958B
:104F300081E068C80895CF93DF9380E291E030D795
:104F4000C82F80916A0381FD09C080E191E028D7D4
:104F5000D82F80E091E024D78D23C823CC2311F0F3
:104F600080E001C083E04ED88091E20084608093AD
:104F7000E200DF91CF91089580E291E0D9D5809150
:104F80006A0381FD06C080E191E0D2D580E091E026
:104F9000CFC5089580912E0190912F01009729F09F
:104FA000019790932F0180932E0180916A0381FDD8
:104FB00016C080911E0190911F01009729F0019762
:104FC00090931F0180931E0180910E0190910F011B
:104FD000009729F0019790930F0180930E01089597
:104FE00080E010C882E00EC880E00CC80F931F93C9
:104FF000CF93DF93F90121E080329207F9F4EF01BA
:105000001092780120916A03CF01029620FD07C01B
:1050100020912901222319F00E943A1F02C00E9408
:10502000231FCE010E94481F80916A0380FF03C0A6
:1050300088E090E024C082E190E021C0805191405E
:10504000B1F4109267038091F3028083809163032F
:10505000818380916203828383E090E0F8019183F1
:10506000808381E09091680391110DC00BC0809105
:10507000CD029091CE029183808382E090E0F8018E
:105080009183808380E0DF91CF911F910F910895EC
:10509000CF93DF938052914009F057C0E90180918E
:1050A0006F03811114C0988180917B0390FF09C028
:1050B000882319F081E08093F60280E00E94C11FEE
:1050C00006C081111092F60280E00E94E11F8881E3
:1050D00081FF04C081E00E94C11F03C081E00E94E3
:1050E000E11F888182FF0EC082E00E94C11F809173
:1050F0007703882399F081E08093F80285E00E948D
:10510000C11F0CC082E00E94E11F809177038823B9
:1051100029F01092F80285E00E94E11F888183FF48
:1051200004C083E00E94C11F03C083E00E94E11F0E
:10513000888184FF05C084E0DF91CF910C94C11F6A
:1051400084E0DF91CF910C94E11FDF91CF9108951E
:1051500080916A0380FF09C088E08093280188E07D
:1051600090E09093230180932201089580E291E0E2
:105170002AD680916A0381FD06C080E191E023D6A2
:1051800080E091E020D6BAD480919B0390914E01AB
:10519000981759F060919B0370E041E086EA0E9405
:1051A000B41380919B0380934E01089580919903DD
:1051B000882329F080919B03853009F4D4C8089591
:1051C000CF92DF92EF92FF920F931F93CF93DF93D3
:1051D000EC018B017A01DED1811133C0E114F104BD
:1051E00039F0F70180819181081B190BC80FD91F75
:1051F000C12CD12C0115110519F18091E80085FD14
:1052000016C08091E8008E778093E80077D4E1148F
:10521000F10449F0F70180819181C80ED91ED18235
:10522000C08285E00EC0B6D1882321F30AC08991DF
:105230008093F10001501109FFEFCF1ADF0ADACF96
:1052400080E0DF91CF911F910F91FF90EF90DF9061
:10525000CF9008952091A2033091A303261737071A
:1052600048F06115710539F42091E8002E772093FC
:10527000E80001C0B90140E061157105A9F1209174
:105280009B03222309F443C0253009F442C0209136
:10529000E80023FD40C02091E80022FD32C02091AB
:1052A000E80020FFE9CF4091F3002091F20030E0C8
:1052B000342BFC01CF016115710559F028303105FF
:1052C00040F481918093F100615071092F5F3F4F4D
:1052D000F1CF41E02830310509F040E02091E800AD
:1052E0002E772093E800C8CF4111C9CF0AC0809122
:1052F0009B03882361F0853061F08091E80083FD95
:105300000AC08091E80082FFF2CF80E0089582E039
:10531000089583E0089581E008956115710529F4E9
:105320002091E8002B772093E800FC0161157105BE
:1053300041F180919B03882361F1853061F1809177
:10534000E80083FD24C08091E80082FFEFCF209128
:10535000F3008091F20090E0922B892B31F0809144
:10536000F10081936150710991F78091E8008B778A
:105370008093E800DBCF80919B03882351F0853038
:1053800051F08091E80080FFF6CF80E0089581E041
:10539000089582E0089583E008952091A20330915A
:1053A000A3032617370748F06115710539F42091DA
:1053B000E8002E772093E80001C0B901FC0120E04D
:1053C0006115710591F180919B03882309F440C018
:1053D000853009F43FC08091E80083FD3DC0809195
:1053E000E80082FD2FC08091E80080FFE9CF209186
:1053F000F3008091F20090E0922B6115710559F055
:105400008830910540F424912093F1003196615049
:1054100071090196F2CF21E0089709F020E0809110
:10542000E8008E778093E800CBCF2111CCCF0AC063
:1054300080919B03882361F0853061F08091E800C2
:1054400083FD0AC08091E80082FFF2CF80E00895DA
:1054500082E0089583E0089581E00895982F9730C1
:1054600058F59093E900981739F07091EC0020916D
:10547000ED005091F00003C0242F762F50E021FF63
:1054800019C03091EB003E7F3093EB003091ED007E
:105490003D7F3093ED003091EB0031603093EB00B5
:1054A0007093EC002093ED005093F0002091EE00FB
:1054B00027FF07C09F5FD3CF8F708093E90081E003
:1054C000089580E00895EF92FF920F931F93CF937A
:1054D000DF93E62EEC018C010C5F1F4FF12CFE14C4
:1054E00091F15881552351F1F801208169817A8128
:1054F00031979081852F8F70873010F080E024C025
:10550000223010F442E001C046E0E8E0F0E020E0A4
:10551000E617F70720F42F5FEE0FFF1FF9CF229554
:10552000207F422BF0E49F9F90011124551F5527A7
:10553000551F652F622B92DF882301F3F394259684
:105540000B5F1F4FCCCF81E0DF91CF911F910F9167
:10555000FF90EF90089580919C0387FF11C0809188
:10556000E80082FD05C080919B038111F8CF11C036
:105570008091E8008B770BC080919B03882349F0D2
:105580008091E80080FFF8CF8091E8008E778093CB
:10559000E80008952091E4003091E50095E64091FF
:1055A000EC00842F817040FF22C08091E80080FDD4
:1055B0001CC080919B03882391F0853091F08091ED
:1055C000EB0085FD10C04091E4005091E5004217CA
:1055D000530729F39A01915011F784E0089582E06E
:1055E000089583E0089581E0089580E00895409152
:1055F000E80042FFDECF089565D06CD0E0EEF0E029
:10560000808181608083E8EDF0E080818F77808306
:1056100019BCA7EDB0E08C918E7F8C9380818F7E3A
:10562000808310929A0308950F931F93CF93DF9373
:1056300049D050D0C8EDD0E088818F7788838881A9
:105640008068888388818F7D888319BC10929B0332
:10565000109298031092990300EE10E0F8018081F7
:105660008B7F808388818160888342E060E080E076
:10567000F5DEE1EEF0E080818E7F8083E2EEF0E007
:10568000808181608083808188608083F80180814F
:105690008E7F8083888180618883DF91CF911F9185
:1056A0000F910895E8EDF0E080818F7E8083E7ED33
:1056B000F0E080818160808384E082BF81E080931C
:1056C0009A03B2CFE8EDF0E080818E7F8083109264
:1056D000E20008951092DA001092E10008951F92FE
:1056E0000F920FB60F9211242F933F934F935F9316
:1056F0006F937F938F939F93AF93BF93EF93FF939A
:105700008091E10082FF0AC08091E20082FF06C022
:105710008091E1008B7F8093E1003CDC8091DA0096
:1057200080FF1DC08091D80080FF19C08091DA00F1
:105730008E7F8093DA008091D90080FF0CC080E1D9
:1057400089BD82E189BD09B400FEFDCF81E080936F
:105750009B03EEDB04C019BC10929B03EBDB809132
:10576000E10080FF18C08091E20080FF14C08091AA
:10577000E2008E7F8093E2008091E200806180935E
:10578000E2008091D80080628093D80019BC85E047
:1057900080939B0327DC8091E10084FF2FC08091E0
:1057A000E20084FF2BC080E189BD82E189BD09B49C
:1057B00000FEFDCF8091D8008F7D8093D80080912E
:1057C000E1008F7E8093E1008091E2008F7E8093E4
:1057D000E2008091E20081608093E2008091980372
:1057E000882311F084E007C08091E30087FD02C0A8
:1057F00081E001C083E080939B03F6DB8091E100B0
:1058000083FF22C08091E20083FF1EC08091E100EF
:10581000877F8093E10082E080939B03109298033E
:105820008091E1008E7F8093E1008091E2008E7F85
:105830008093E2008091E20080618093E20042E088
:1058400060E080E00BDECCDBFF91EF91BF91AF9188
:105850009F918F917F916F915F914F913F912F9188
:105860000F900FBE0F901F9018951F93CF93DF934B
:10587000CDB7DEB7AA970FB6F894DEBF0FBECDBF87
:10588000ECE9F3E088E08E0F9091F10091938E1394
:10589000FBCF72DB8091E80083FF18C180919C03ED
:1058A00090919D03492F50E04A30510508F00EC1F8
:1058B000FA01E059FF4FC5C3803881F0823809F002
:1058C00005C18091A0038F708093E9008091EB0067
:1058D00085FB882780F91092E90007C08091990321
:1058E000882311F082E001C080E09091E800977F6A
:1058F0009093E8008093F1001092F100C4C0282F2B
:105900002D7F09F0E3C0882319F0823061F0DEC0FA
:1059100080919E03813009F0D9C0933009F080E076
:10592000809399032BC080919E03811127C08091A1
:10593000A0038F7009F4CAC08093E9002091EB00A6
:1059400020FF1CC0933021F48091EB00806214C0D2
:105950009091EB0090619093EB0021E030E0A90181
:1059600002C0440F551F8A95E2F74093EA00109257
:10597000EA008091EB0088608093EB001092E900D0
:105980008091E800877F82C08111A0C010919E03A2
:105990001F778091E3008078812B8093E3008091D2
:1059A000E800877F8093E800D6DD8091E80080FFE3
:1059B000FCCF8091E30080688093E300111102C066
:1059C00082E001C083E080939B0380C080588230D6
:1059D00008F07CC080919E0390919F038C3D53E022
:1059E000950771F583E08A838AE289834FB7F8943B
:1059F000DE01139620E03EE051E2E32FF0E0509309
:105A00005700E49120FF03C0E295EF703F5FEF7015
:105A10008E2F90E0EA3010F0C79601C0C0968D93AB
:105A20009D932F5F243149F74FBF8091E800877F16
:105A30008093E8006AE270E0CE0101960BDC12C0B0
:105A4000AE014F5F5F4F6091A003E8D9BC01892B85
:105A500009F43CC09091E800977F9093E800898119
:105A60009A819BDC8091E8008B778093E8002EC0C0
:105A7000803861F58091E800877F8093E80080910D
:105A800098038093F1008091E8008E778093E8007E
:105A900062DD1CC081111AC090919E039230B0F457
:105AA0008091E800877F8093E8009093980353DD0E
:105AB00080919803811106C08091E30087FD02C0A8
:105AC00081E001C084E080939B0335DA8091E80097
:105AD00083FF0AC08091E800877F8093E80080916F
:105AE000EB0080628093EB00AA960FB6F894DEBFBD
:105AF0000FBECDBFDF91CF911F910895CF938091BD
:105B00009B03882399F0C091E900CF709091EC003D
:105B1000892F817090FD80E8C82B1092E900809158
:105B2000E80083FDA2DECF70C093E900CF91089515
:105B30006F927F928F929F92AF92BF92CF92DF929D
:105B4000EF92FF920F931F93CF93DF9300D01F929A
:105B5000CDB7DEB77C01CDB6DEB68091E80083FF1D
:105B600008C1F701808190E02091A0033091A1034A
:105B70002817390709F0FDC080919D03833009F48F
:105B80009FC030F4813071F0823009F4D6C0F1C08A
:105B90008A3009F4BAC08B3009F4A3C0893009F007
:105BA000E8C051C080919C03813A09F0E2C08DB6F3
:105BB0009EB61A82198280919E0310919F038B8357
:105BC000F7018085482F50E08DB79EB7841B950B59
:105BD0000FB6F8949EBF0FBE8DBFEDB7FEB73196DE
:105BE0005F0160E070E0CF0148D24FEF410F8E01BE
:105BF0000F5F1F4F9501BE016D5F7F4FC701F6D943
:105C0000F70186819781009721F0408550E0B5012A
:105C10002BD21092E9008091E800877F8093E80002
:105C20008B8181118093F10069817A81C50112DB3A
:105C30008091E8008B778093E8000FB6F8949EBEC1
:105C40000FBE8DBE96C080919C03813209F091C039
:105C5000ADB6BEB60091A2031091A30370909E034F
:105C600060909F038DB79EB7801B910B0FB6F89481
:105C70009EBF0FBE8DBFEDB7FEB731964F0180912D
:105C8000E800877F8093E800B801CF0146DB809170
:105C9000E8008E778093E80021E0711001C020E0D9
:105CA00030E0021B130B280D391D4FEF460D672DF9
:105CB000C701EED90FB6F894BEBE0FBEADBE59C037
:105CC00080919C03813A09F054C08091E800877F5D
:105CD0008093E8008091E80080FFFCCFF701818588
:105CE00040C080919C03813209F043C08091E8005C
:105CF000877F8093E8002FDC90919E0381E09111D3
:105D000001C080E0F701818734C080919C0381321B
:105D100081F58091E800877F8093E8001CDC80910A
:105D20009E0390919F03882736E0969587953A9534
:105D3000E1F7F701958784871CC080919C03813A25
:105D4000C1F48091E800877F8093E8008091E800AB
:105D500080FFFCCFF701848595859695879596956C
:105D600087958093F1008091E8008E778093E8001A
:105D7000F2DB0FB6F894DEBE0FBECDBE0F900F90D3
:105D80000F90DF91CF911F910F91FF90EF90DF90D7
:105D9000CF90BF90AF909F908F907F906F9008951D
:105DA000FC01399627E0DF011D922A95E9F721E0F1
:105DB000FC01218724EF31E03587248723E0248309
:105DC00061E0019680CB4F925F926F927F928F92AB
:105DD0009F92AF92BF92CF92DF92EF92FF920F937A
:105DE0001F93CF93DF9300D01F92CDB7DEB77C0116
:105DF000ADB6BEB680919B03843009F08DC0809112
:105E0000E4009091E500F7012285338528173907D2
:105E100009F482C081818F708093E9008091E8004D
:105E200085FF7AC08DB69EB6408550E08DB79EB78F
:105E3000841B950B0FB6F8949EBF0FBE8DBFEDB7B8
:105E4000FEB731966F011B821A82198260E070E002
:105E5000CF0113D18E010F5F1F4F960140E0BE01AD
:105E60006D5F7F4FC701C2D8482EF70184859585A5
:105E7000892B51F091E080E026853785232B09F0AE
:105E800090E0092F182F02C000E010E0F7016680B3
:105E900077806114710489F049815A81B301C60188
:105EA000D6D055245394892B09F4512CF701408501
:105EB00050E0B601C301D8D001C0512C89819A812C
:105EC000892BF1F0411004C0511002C0012BC1F028
:105ED000F701848595859787868781818F70809368
:105EE000E9008B8181118093F10069817A8140E022
:105EF00050E0C60165D98091E8008E778093E80074
:105F00008091E4009091E500F701938782870FB6B6
:105F1000F8949EBE0FBE8DBE0FB6F894BEBE0FBEE7
:105F2000ADBE0F900F900F90DF91CF911F910F9109
:105F3000FF90EF90DF90CF90BF90AF909F908F90A9
:105F40007F906F905F904F90089508950E94AB21CD
:105F50000E949F130E9419240E94C9210E94841F3D
:105F60000E94421A0E9456230E94C7110E94752463
:105F70000E941826EDD80E941A2294CB0E94242653
:105F80008091C4018823E1F30C94412635DBF89419
:105F90002FEF87EA91E6215080409040E1F700C062
:105FA00000008091C401823011F40E94AC218091E4
:105FB000C401882359F09CE088E10FB6F894A895B5
:105FC000809360000FBE90936000FFCF0895BDDF07
:105FD000BDDFD4DFDBDF80E090E00895991B79E03E
:105FE00004C0991F961708F0961B881F7A95C9F769
:105FF00080950895AA1BBB1B51E107C0AA1FBB1FB8
:10600000A617B70710F0A61BB70B881F991F5A9544
:10601000A9F780959095BC01CD01089597FB072EB7
:1060200016F4009406D077FD08D0E4DF07FC05D015
:106030003EF4909581959F4F0895709561957F4F9F
:106040000895EE0FFF1F0590F491E02D0994FB01D8
:10605000DC0104C08D910190801921F44150504021
:10606000C8F7881B990B0895FB01DC0102C0019061
:106070000D9241505040D8F70895DC0101C06D9356
:1060800041505040E0F70895F999FECF92BD81BD8F
:10609000F89A992780B50895A8E1B0E042E050E071
:1060A0001CC0DC01CB0102C02D9105D041505040F5
:1060B000D8F70895262FF999FECF1FBA92BD81BD5A
:1060C00020BD0FB6F894FA9AF99A0FBE019608957A
:1060D000F1DF272FF0CFDC01CB01FC01F999FECFD6
:1060E00006C0F2BDE1BDF89A319600B40D92415060
:0A60F0005040B8F70895F894FFCF70
:1060FA000283020000014F010200000000000000BC
:10610A0001820300000151010300000000000000A9
:10611A00008112000001540112000000000000007A
:10612A002400250023002700280026002A002B002F
:0E613A0029002D002E002C00300031002F0017
:00000001FF
