:100000000C94FF120C944F130C944F130C944F1339
:100010000C944F130C944F130C944F130C944F13D8
:100020000C944F130C944F130C94C12D0C944F133C
:100030000C9425240C944F130C944F130C944F13D1
:100040000C944F130C949E280C944F130C944F1344
:100050000C944F130C944F130C944F130C944F1398
:100060000C944F130C944F130C944F130C944F1388
:100070000C944F130C944F130C944F130C944F1378
:100080000C944F130C944F130C944F130C944F1368
:100090000C944F130C944F130C944F130C944F1358
:1000A0000C944F130C944F130C944F13131B5C16AA
:1000B000621684168A16B2170D183B18B61838192E
:1000C0007019461A981ABC1AB316D516F1160B17E2
:1000D000201776176C187E18871892189B187518B9
:1000E000D51AED1A011BAA19C019D319E919FA1961
:1000F0000C1A201A341AC217C517CB17D517DB17DD
:10010000DE17E417EF17F517F817CB17FE170418CB
:10011000CA18CD18D318D618DC18E418EA18F51840
:10012000FB18FE18041907190D1915191B192219A6
:100130002819801985198A198F19941999199E19E6
:10014000A319591A5C1A631A661A6C1A771A7D1A5F
:10015000A92ED02EB92FD02EB92F1B2F3C2FB92F5F
:100160008F2F9E2F00000000000000000000000004
:10017000000000002A002B002800000000002800DA
:10018000000000000000000000000000000000006F
:100190000000000000000000000029000000000036
:1001A000000000002C001E02340220022102220264
:1001B000240234002602270225022E0236002D00DA
:1001C0003700380027001E001F00200021002200F9
:1001D00023002400250026003302330036022E00BF
:1001E000370238021F020402050206020702080253
:1001F00009020A020B020C020D020E020F0210028B
:10020000110212021302140215021602170218023A
:1002100019021A021B021C021D022F0031003000BD
:1002200023022D0235000400050006000700080027
:1002300009000A000B000C000D000E000F0010005A
:10024000110012001300140015001600170018000A
:1002500019001A001B001C001D002F023102300281
:1002600035024C000000000000000000000000000B
:10027000000000000000000000000000000000007E
:10028000000000000000000000000000000000006E
:10029000000000000000000000000000000000005E
:1002A000000000000000000000000000000000004E
:101F60000000000000000000000000000000FF0072
:101F7000FF00FF00FF00FF00FF00FF00FF00FF0069
:101F8000FF00FF00FF00FF00FF00FF00FF00FF0059
:101F9000FF00FF00FF00FF00FF0000000000000046
:101FA0000000000000000000000000000000000031
:101FB0000000000000000000000000000000000021
:101FC00000000000000000000000080C00000000FD
:101FD0000000000000000000000000000000000001
:101FE00000000000000000000000000000000000F1
:101FF00000000000000000000000000000000000E1
:1020000000000000000000000000000000000000D0
:1020100000000000000000000000000000000000C0
:1020200000000000000000000000000000000000B0
:1020300000000000000000000000000000000000A0
:102040000000000000000000000000000000000090
:10205000001E24D8260427000000001E24DD2617B9
:102060001544160000427974657320286865782944
:102070003E20004164647265737320286865782986
:102080003E200020532D3078005D20432D30780015
:102090000A5B004F7574206F662072616E67652E53
:1020A0000A00496E76616C69642073656C656374BF
:1020B000696F6E2E0A003A204F4646003A204F4E76
:1020C00000205B312D31365D3E2000205B312D320A
:1020D00035355D3E2000205B312D3939395D3E209C
:1020E00000205B312D39395D3E2000205B302D39D9
:1020F0005D3E2000205B303D4F46462C20313D4F59
:102100004E5D3E2000205B312D345D3E2000446555
:102110006661756C74204261636B6C6967687420DA
:102120004D6F64650044656661756C74204261633F
:102130006B6C6967687420456E61626C650044650C
:102140006661756C742044696D6D6572204C6576AE
:10215000656C004D617472697820536574757020E8
:102160005761697420286379636C6573290052652F
:102170007065617420506572696F6420286D7329E1
:10218000004D696E20486F6C642054696D6520664F
:102190006F722052657065617420286D7329004D3F
:1021A0006F757365204D6F76656D656E74204D7526
:1021B0006C7469706C6965720042617365204D6F63
:1021C000757365204D6F76656D656E74004D617831
:1021D0002044656C61792054696D6520666F7220BA
:1021E000446F75626C652054617020286D732900FE
:1021F0004D617820486F6C642054696D6520666F6E
:10220000722054617020286D7329004465626F75D7
:102210006E63652054696D6520286D732900416CDB
:102220007465726E617465204465626F756E636576
:10223000205374796C6500556E6C696E6B65642013
:102240004E756D204C6F636B00426F6F74204B6551
:1022500079626F6172640044656661756C74204CCC
:10226000617965720057696E204C6F636B206F6EE9
:10227000205363726F6C6C204C6F636B00566972F5
:102280007475616C204E756D20506164000A3929A7
:10229000204261636B0A3E20000A382920000A3779
:1022A0002920000A362920000A352920000A34296D
:1022B00020000A332920000A322920000A3129206F
:1022C000000A4C4544204D656E753A000A54696D0C
:1022D000696E67204D656E753A000A436F6E6669D8
:1022E00067204D656E753A000A4465627567204D3A
:1022F000656E753A0A3129205072696E74206576D0
:10230000656E74730A322920436C656172206576AC
:10231000656E74730A3329204578616D696E652096
:102320006D656D6F72790A3429205072696E742F51
:10233000636C65617220636C6F636B2D696E730AE9
:102340003929204261636B0A3E20000A4D61696EA3
:10235000204D656E753A0A312920436F6E666967B4
:10236000206D656E750A32292054696D696E67208B
:102370006D656E750A3329204C4544206D656E7578
:102380000A3429204465627567206D656E750A35CB
:10239000292052657365740A392920517569740AB8
:1023A0003E20001E4D1F51204E21502200234F245D
:1023B0004A2552264B2749374CB500B600B700CD09
:1023C000006F007000E200E500E900EA00520153EE
:1023D000015401550183018A0192019401210223D4
:1023E0000224022502260227022A02B101B202B308
:1023F00004B408B510E001E102E204E308E410E5EA
:1024000020E640E7800105080A0C0F101414181884
:102410000038BA040001C4040101C8040201B80470
:102420000301BF040401C7040501C9040601BB047C
:102430000701BE040801C1040902BC040B02B9046F
:102440000D01C0040E01C5040F02B7041101C3043D
:102450001201B5041301B60414014A0345006100DA
:102460007300790041005600520020004D007500B5
:102470006C00740069006D00650064006900610013
:1024800020004B006500790062006F00610072005F
:1024900064002000760023002E00230023002E007D
:1024A0002300230000000403090409026D00040155
:1024B00000A0FA0904000001030101000921B00194
:1024C0000001224000070581030800010904010002
:1024D00001030000000921B00100012232000705BC
:1024E000820303000809040200010300000009211F
:1024F000B0010001222700070583030E0001090433
:10250000030001030102000921B0010001223A0089
:10251000070584030300051201000200000008EB18
:1025200003FF20100000010001050C0901A1018535
:1025300002160100269C021A01002A9C02751095C1
:10254000018100C005010980A1018503198129834A
:1025500075019503810695058101C005010902A158
:10256000010901A10005091901290315002501959B
:102570000375018102950175058101050109300985
:10258000311681FF267F0036000046000095027557
:10259000088106C0C005010906A101050719E02947
:1025A000E715002501750195088102150025010533
:1025B0000719002967956875018102C005010906A0
:1025C000A101050719E029E7150025017501950806
:1025D00081029501750881010508190129059505F4
:1025E00075019102950175039101150026FF000503
:1025F00007190029FF950675088100C00F00E2E762
:10260000F5E085EC9AE001C08193EF3FF907E0F334
:10261000D9F311241FBECFEFDAE0DEBFCDBFC4B7C0
:1026200014BE0FB6F894A8958091600088618093DD
:102630006000109260000FBEF894C3FF11C080913B
:102640007005909171058D3A9E4D51F4109271056F
:1026500010927005E0E1F4E225913491F9010995B9
:1026600085B7806885BF85B7806885BFC0936F05D3
:1026700011E0A0E0B1E0ECE5F5E602C005900D92B6
:10268000AE35B107D9F724E0AEE5B1E001C01D9247
:10269000AB3EB207E1F70E94F7310C94AC320C94D8
:1026A000000010926C0110926B0110926701109261
:1026B0006601109275011092740108959091BB0308
:1026C0008091B603892B9091B503892B9091B40327
:1026D000892B20916801222309F45FC0811164C015
:1026E00080916A01811155C08091860181113CC0A1
:1026F00090916101921305C01092680110926101DE
:102700000895E92FF0E0EE0FFF1FEA58FE4F808199
:102710002181813031F420936A019F5F90936101A0
:10272000089590916201921731F02093620181E047
:102730008093BB03089580938601181614F4E5D79F
:102740000DC099E6980F993118F40E94701C06C0CC
:1027500093E4980F933010F40E949F1C80916101C4
:102760008F5F80936101089587FD03C00E94BD1BA8
:102770000DC099E6980F993118F40E94871C06C085
:1027800093E4980F933010F40E94AC1C10928601D1
:102790000895815080936A010895811105C0809148
:1027A00069018D7F8093690108958091A3029091C2
:1027B0006301981731F180936301882311F1883206
:1027C00011F0883531F4809169018B7F8093690124
:1027D0000895E09165018A3251F4EE2391F0E150C1
:1027E000E0936501F0E0E359FE4F10820895E63072
:1027F00040F4AE2FB0E0A359BE4F8C93EF5FE0934F
:10280000650108951092620181E08093BB0380917D
:10281000A302811102C0109269010895BC01809148
:102820006801DB01982F292F281B983058F09093CE
:102830006801620F711D27FD7A9570937501609391
:10284000740122C0FD0125913491211109C090939A
:10285000680110927501109274019923D1F014C08F
:10286000492F50E0F901FF27EE0FFF1FEC59FE4FF3
:1028700025913491440F551FFA01EA58FE4F3183D8
:1028800020839F5F1196CFCF8091690183608093F1
:10289000690181E008954091680128E030E0241B3F
:1028A00031092617370758F1B0E04B2F0B2E000CDB
:1028B000550B46175707D8F4A09168012A2F30E02E
:1028C000FC01E40FF51FE081F0E0EE0FFF1FEC5973
:1028D000FE4F45915491220F331FF901EA58FE4FE4
:1028E00051834083AF5FA0936801BF5FDECF672B4A
:1028F00041F08091690183608093690102C080E0AA
:10290000089581E0089590916801983090F4E92F3E
:10291000F0E0EE0FFF1FEA58FE4F808361839F5F58
:10292000909368018091690183608093690181E0DF
:10293000089580E008959C019091680191112EC046
:10294000A901983049F490936801205F3F4F30937C
:102950006C0120936B011BC0FA01659174914E5F6D
:102960005F4F6115710549F49093680110926C01F5
:1029700010926B01992381F00AC0E92FF0E0EE0F6D
:10298000FF1FEA58FE4F718360839F5FDACF80910B
:10299000690183608093690181E0089580E0089572
:1029A000AC018091680181113EC060937301282FB2
:1029B000082E000C330B2617370758F59091680145
:1029C000220F331F983038F0240F351F30936701E2
:1029D000209366011EC0FA01E20FF31F20813181AE
:1029E000E92FF0E0EE0FFF1FEA58FE4F31832083FE
:1029F0009F5F909368019091730191509093730140
:102A0000911105C0109267011092660102C08F5F9C
:102A1000CECF80916801882341F080916901836065
:102A20008093690102C080E0089581E0089590914B
:102A30006901992329F191FD41CE20916B013091DB
:102A40006C012115310511F0C90175CF2091660186
:102A5000309167012115310539F060917301062E1F
:102A6000000C770BC9019CCF209174013091750146
:102A70002115310511F0C901D1CE92FD96CEC2CEFD
:102A80000895EDE6F1E01082118212821382148221
:102A90001582109265018091A30280936301809159
:102AA0006901856080936901089508959091BD0141
:102AB000903178F4E92FF0E09F01220F331FE20FED
:102AC000F31FE757FE4F8083728361839F5F90936C
:102AD000BD01089541111BC04091BD0150E090E03F
:102AE000292F092E000C330B2417350784F4F90124
:102AF000EE0FFF1F2E0F3F1FF901E757FE4F2081FA
:102B0000281303C07283618308959F5FE9CFCECFFE
:102B10008A3010F4805D0895895C08951F93CF93E7
:102B2000DF93182FEB0182958F70F2DF8883812F5E
:102B30008F70EEDF8983DF91CF911F9108951F93EE
:102B4000CF93DF93182FEB01892FE8DFBE016E5F73
:102B50007F4F812FDF91CF911F91E0CF8F929F9276
:102B6000AF92BF92CF92DF92EF92FF920F931F939B
:102B7000CF93DF931F92CDB7DEB79C018B0180E32B
:102B8000FB01808380E28183828383E0E82EF12C45
:102B900094E6892E912C4AE0B42E682D70E09110B5
:102BA00003C02617370790F06801C90CD11C97FCA9
:102BB000DA94C9010E943E32A82E862F9983A8DF9D
:102BC000F60180832A2D9981392F9394882D6B2DBE
:102BD0000E943232882EF1E0EF1AF108F1F60F90E0
:102BE000DF91CF911F910F91FF90EF90DF90CF90E9
:102BF000BF90AF909F908F90089597EA980F99306B
:102C000010F48855089592EE980F993010F48D5174
:102C100008959CEF980F963010F48A5F089580E035
:102C20000895BF92CF92DF92EF92FF920F931F937E
:102C3000CF93DF937C018B0180E090E0B12CC42F17
:102C4000D0E02B2D0B2C000C330B2017310790F408
:102C50008C9F60018D9FD00C9C9FD00C1124F7019C
:102C6000E20FF31F8081C9DF9601280F311DC901D2
:102C7000B394E7CFDF91CF911F910F91FF90EF9029
:102C8000DF90CF90BF9008950F931F93CF93DF9362
:102C900000D000D0CDB7DEB7809169018111C3C4E7
:102CA000E09187018E2F90E085329105A8F4FC0118
:102CB000EA5AFF4F0C9452328BE493E2AFDDE1DE2F
:102CC00082E088C411E010938701109288018091FE
:102CD0006D0193DF893019F410928701A4C4853007
:102CE00019F41093BE019FC4813011F485E072C4C1
:102CF000823009F443C3833009F46BC4843009F48F
:102D00003FC082EA90E22DC488EE92E287DDB9DE10
:102D100084E060C483E08093870180916D016DDF62
:102D2000893011F481E056C4813011F48EE052C430
:102D3000823069F4E9E8F1E0108212821182339660
:102D400041E0E93BF407C1F71092BD016CC4833048
:102D500031F483E790E262DD94DE81E13BC48430AC
:102D600081F683E137C48091880180315CF0109254
:102D700088018AE0898361E070E0CE0101968BDDF5
:102D800083E028C480E990E249DDBE016F5F7F4F98
:102D900080918801C3DE62E070E0CE0101967BDDA8
:102DA00089E890E23BDD8FE015C480918801082E10
:102DB000000C990BFC01EE0FFF1F8E0F9F1FFC01F3
:102DC000E757FE4FBE016F5F7F4F8081A7DE62E055
:102DD00070E0CE0101965FDD83E890E21FDD80E1C7
:102DE000F9C380918801082E000C990BFC01EE0FAD
:102DF000FF1F8E0F9F1FFC01E757FE4FBE016F5F45
:102E00007F4F818192819BDE64E070E0CE0101966C
:102E100042DD8EE085C36091650170E040E18DE6A2
:102E200091E0FFDE9093BA018093B9011092BC014A
:102E30001092BB0185E690E2F1DC23DE82E1CAC399
:102E40008091BB019091BC01892B89F40091B9015B
:102E50001091BA016091650170E040E18DE691E06A
:102E6000E0DE800F911F9093BC018093BB0110E2C4
:102E70000AE0E091B901F091BA018091BB01909113
:102E8000BC01E817F907D8F4BE016F5F7F4F80815E
:102E900045DE8091BB019091BC0101972091B90161
:102EA0003091BA012817390711F40B8301C01B8335
:102EB00063E070E0CE010196EEDC81110DC020913F
:102EC000B9013091BA018091BB019091BC012817E2
:102ED000390708F055CFA7C38091B9019091BA0185
:102EE00001969093BA018093B901C3CF8091880174
:102EF0008A307CF0109288018AE0898361E070E07A
:102F0000CE010196C8DC83E0809387010E94C1282E
:102F10008AC3182F117817FF03C011501E6F1F5F4F
:102F200087FD8F5F082F0595111102C08AE001C04F
:102F300080E2898361E070E0CE010196ACDC85E03F
:102F40001802F0011124E00FF11D07FDFA95EE0FB4
:102F5000FF1FE553FB4FBE016F5F7F4F8081918163
:102F6000EEDDC2C2E09188018E2FEE0F990BAA0B05
:102F7000BB0B8D30910508F04AC0FC01E558FF4FAE
:102F80000C9452328AED92E29CC28CEB92E246DCC7
:102F90008DE792E296C28091BB04882319F08CEBF6
:102FA00090E28FC286EB90E28CC287EB92E236DC35
:102FB00085E692E286C28091C404EFCF82EB92E272
:102FC0002DDC87E592E27DC28AE3898380E28A83F1
:102FD0008091B804BE016D5F7F4F90E095C28DEA8D
:102FE00092E21CDC89E492E26CC28091C704D5CFE6
:102FF00088EA92E213DC87E392E263C283EA92E218
:103000000DDC8EE192E25DC28091B504C6CF8DE801
:1030100092E204DC36DD86E083C287E0809387019C
:1030200080916D01EADD80938801893009F47ACEC0
:10303000813019F48DE792E294C2823019F485E66A
:1030400092E28FC2833019F487E592E28AC284301B
:1030500019F489E492E285C2853019F487E392E29B
:1030600080C2863019F48EE192E27BC282EA90E25D
:10307000D5DB85E07CC2809188018330C9F04CF4B7
:10308000813089F0823019F584EF90E2C7DB85E169
:103090001FC08530B9F08CF08630C9F484EF90E21F
:1030A000BDDB89E115C084EF90E2B8DB84E110C09C
:1030B0008BEE90E2B3DB86E10BC084EF90E2AEDBF7
:1030C00087E106C084EF90E2A9DB88E101C085E0DA
:1030D00080938701D6DC4DC280916D018EDD8230F8
:1030E00048F48093C80482E01AC080916D0185DDA8
:1030F000823050F183E990E291DBF8CD80916D014F
:103100007CDD8230B8F78093C40481E008C08091F0
:103110006D0173DD8A3070F78093B80483E00E94FC
:10312000E927E4CD80916D0168DD823018F7809346
:10313000C70485E0F4CF80916D015FDD8230D0F669
:103140008093BB0487E0EBCF8093B50480E10E94BD
:10315000E9278091B504882321F086E08093C90493
:10316000DECF8CE08093C90486E0D9CF8AE38983DF
:1031700080E28A83E09188018E2FEE0F990BAA0BD3
:10318000BB0B8131910508F06DC0FC01E857FF4F82
:103190000C9452328CEC92E294C18CEB92E23EDBC6
:1031A0008BE092E28EC18091C90447C087EB92E226
:1031B00035DB80EF91E285C1BE016D5F7F4F80916D
:1031C000C1049091C2044AC082EB92E227DB8DECED
:1031D00091E277C18091BC049091BD04BE016D5F06
:1031E0007F4F91958195910939C08DEA92E216DB66
:1031F00089EB91E266C18091B9041FC088EA92E22E
:103200000DDB8FE991E25DC18091C00416C083EAB5
:1032100092E204DB81E891E254C1BE016D5F7F4F11
:103220008091C5049091C60419C08EE992E2F6DA45
:103230008EE691E246C18091B704BE016D5F7F4F7B
:1032400090E051C189E992E2E9DA83E591E239C17E
:103250008091C304BE016D5F7F4F90E07FDC65E02D
:1032600070E055C18DE892E2D9DA0BDC89E058C1F3
:103270008AE08093870180916D01BFDC8093880193
:10328000893009F44FCD813019F48BE092E269C1A5
:10329000823019F480EF91E264C1833019F48DEC2F
:1032A00091E25FC1843019F489EB91E25AC1853013
:1032B00019F48FE991E255C1863019F481E891E261
:1032C00050C1873019F48EE691E24BC1883019F471
:1032D00083E591E246C182EA90E2A0DA88E047C144
:1032E000E09188018E2FEE0F990BAA0BBB0BFC010E
:1032F0003197E830F10560F5E756FF4F0C945232F4
:1033000081EE90E28BDA8DE1E3CE86ED90E286DA13
:103310008EE1DECE86ED90E281DA8FE1D9CE81EECC
:1033200090E27CDA80E2D4CE81EE90E277DA81E23C
:10333000CFCE86ED90E272DA82E2CACE81EE90E2E2
:103340006DDA83E2C5CE8BEC90E268DA84E2C0CE1F
:1033500088E0BECE6091650170E04AE08DE691E0C4
:1033600060DC9C01215031092336310520F4809323
:10337000C90486E076C083E990E250DA88E02AC189
:103380006091650170E04AE08DE691E04ADC9C01C5
:1033900021503109273E334070F79093C204809347
:1033A000C10489E05EC06091650170E04AE08DE68D
:1033B00091E037DC9C0121503109273E3340D8F69B
:1033C0009195819591099093BD048093BC048AE006
:1033D00048C06091650170E04AE08DE691E021DC33
:1033E0009C01215031092336310528F68093B90418
:1033F0008BE037C06091650170E04AE08DE691E0B6
:1034000010DC9C01215031092336310508F0B3CF7F
:103410008093C0048CE025C06091650170E04AE0B3
:103420008DE691E0FEDB9C0121503109273E3340BF
:1034300008F0A1CF9093C6048093C5048DE011C01D
:103440006091650170E04AE08DE691E0EADB9C0165
:10345000215031092336310508F08DCF8093B70410
:103460008EE00E94E9278ACF6091650170E04AE012
:103470008DE691E0D6DB9C01215031092F3F3105CB
:1034800008F079CF8093C3048FE0EBCF8AE3898380
:1034900080E28A83E09188018E2FEE0F990BAA0BB0
:1034A000BB0B87309105B8F5FC01EF55FF4F0C942D
:1034B000523281EC92E205C08CEB92E2AFD98EE3FE
:1034C00091E2ACD92FC08091BF04B7CE87EB92E2D6
:1034D000A5D985E291E2F5CF8091BE0490E0BE01CE
:1034E0006D5F7F4F01963ADB64E070E010C082EBC5
:1034F00092E294D98EE091E2E4CF8091B60490E01C
:10350000BE016D5F7F4F019629DB63E070E0CE0165
:103510000196C1D907C08DE892E280D9B2DA8CE079
:1035200080938701809188018F5F809388017BC0A1
:103530008DE08093870180916D015FDB809388012E
:10354000893009F4EFCB813019F48EE391E209C0A0
:10355000823019F485E291E204C0833021F48EE0D8
:1035600091E25CD960C082EA90E258D98BE0809306
:1035700087011092880157C080918801823049F0FC
:10358000833061F0813079F481EC90E247D98AE1AF
:103590009FCD81EC90E242D98BE19ACD85E091E21A
:1035A0003DD98CE195CD8BE093CD6091650170E0C4
:1035B0004AE08DE691E035DB9C0121503109203154
:1035C000310520F48093BF0484E018C083E990E2C1
:1035D00025D98BE08093870126C06091650170E05A
:1035E0004AE08DE691E01DDB9C012150310920313C
:1035F000310560F781508093BE0488E00E94E9277E
:10360000E8CF6091650170E04AE08DE691E009DB6A
:103610009C012150310924303105C0F6815080933E
:10362000B60481E1EBCF0F900F900F900F90DF91D8
:10363000CF911F910F91089526E0829FC001112420
:10364000FC01E05CFE4F0190F081E02D208181E0E3
:1036500090E001C0880F6A95EAF7822B8083089575
:1036600026E0829FC0011124FC01E05CFE4F019026
:10367000F081E02D808160956823462B408308957A
:1036800026E0829FC0011124FC01E05CFE4F028015
:10369000F381E02D208181E090E001C0880F6A95E0
:1036A000EAF7822B8083089526E0829FC0011124CF
:1036B000FC01E05CFE4F0280F381E02D208181E07F
:1036C00090E001C0880F6A95EAF780958223808395
:1036D000089526E0829FC0011124FC01E05CFE4FAA
:1036E0000280F381E02D80816823462B408308957A
:1036F00026E0829FC0011124FC01E05CFE4F0480A3
:10370000F581E02D808186230895E82FE695E695E2
:10371000E695F0E0EA56FD4F982F977021E030E0F3
:1037200001C0220F9A95EAF79081292B208391E01E
:103730009093B6039091900220E029175CF4E22F59
:10374000022E000CFF0BED55FD4F30813817A1F014
:103750002F5FF3CF96305CF4E92F092E000CFF0B9E
:10376000ED55FD4F80839F5F9093900208951092D6
:10377000A90281E08093BA030895E82FE695E695C3
:10378000E695F0E0EA56FD4F982F977021E030E083
:1037900001C0220F9A95EAF7209590812923208372
:1037A00091E09093B6039091900243EA52E0FA01BF
:1037B0002E2F241B291724F431913813F9CF01C07F
:1037C0000895E22F022E000CFF0BED55FD4F818175
:1037D00080832F5F2917ACF3915090939002109241
:1037E000BA030895E82FE695E695E695F0E0EA56E7
:1037F000FD4F982F977021E030E001C0220F9A957D
:10380000EAF790812927208391E09093B603909165
:10381000900243EA52E0FA012E2F241B291724F4C8
:1038200031913813F9CF13C096305CF4E92F092E8B
:10383000000CFF0BED55FD4F80839F5F909390022E
:1038400008951092A90281E08093BA030895E22FAF
:10385000022E000CFF0BED55FD4F818180832F5F01
:103860002917ACF39150909390021092BA030895E7
:1038700090914B0394305CF4E92F092E000CFF0B60
:10388000EF56FD4F80839F5F90934B03089540E078
:1038900060E070E082E41ED91092950208952091B4
:1038A0004B0341E952E0FA019E2F941B92179CF4BE
:1038B00031913813F9CF921751F0E92F092E000CEE
:1038C000FF0BEF56FD4F818180839F5FF4CF9150B6
:1038D00090934B030895682F70E040E083E4FAC8AA
:1038E00020914C0330914D03232B69F48759E82F25
:1038F000F0E0EE0FFF1FE754FC4D859194919093FB
:103900004D0380934C0381E08093B503089587595C
:10391000E82FF0E0EE0FFF1FE754FC4D85919491E6
:1039200020914C0330914D032817390721F4109250
:103930004D0310924C0381E08093B503089593E406
:10394000980F81E001C0880F9A95EAF78093BF0332
:1039500081E08093B40308951092BF0381E08093C7
:10396000B40308958091B8048093BE03089591E153
:10397000899F600D112480918B0268130DC0809186
:10398000BC049091BD048417950734F48091BD0365
:103990008F5F8093BD03089510928B021092BD0338
:1039A0000895E091C104F091C2044E175F0754F4EA
:1039B00091E0F9019083F1E18F9F600D11246093F4
:1039C0008B020895F901108210928B021092BD03B0
:1039D000089590917301E92FEE0FFF0BE555FD4F10
:1039E00020918D0230E0322F2227282B3183208333
:1039F00081E0890F80937301803534F01092B90310
:103A00008093640180E185C508959091C003911170
:103A100011C0805D803170F4E82FF0E0EE0FFF1FE1
:103A2000E35AF14F85919491880F991F835A914FD2
:103A30000C949B140895CF93DF93C82FD62F8091B9
:103A4000BE03882311F08B5F64D580E18C0F8093D7
:103A5000BE030EDF8091BE03882311F08B5F39D542
:103A60009091BE038091B804981711F08FE031D582
:103A70008091BE0390918C02D0FF02C0981308C0C1
:103A8000981308C08091BD03811104C08091B804CF
:103A900080938C02DF91CF910895E82FF0E0EC59EC
:103AA000FD4F8491882311F060E0C5CF08950F93F6
:103AB0001F93CF93DF9300D01F92CDB7DEB7082FAF
:103AC00010E1180F8091BE03882341F08B5F2B8398
:103AD0004A8369831ED569814A812B81222389F11A
:103AE0008091BE0381132DC08091BD03882319F0FE
:103AF00061FD10938C0280918F02801322C062FFBF
:103B000020C08FEF840F873620F460918D02842FC0
:103B100016C0842F807E803EA1F4E42FF0E0EE0FEB
:103B2000FF1FEA5CFD4D8491809590918D02892361
:103B300080938D0281E08093BB03649180E00E94BA
:103B40008314812FACDEE0914B03E11103C080911F
:103B50008C0206C00E2E000CFF0BE057FD4F80813B
:103B60008093BE038091BE03882311F08B5FB1D494
:103B70009091BE038091B804981309C08FE00F9014
:103B80000F900F90DF91CF911F910F91C2C40F90B2
:103B90000F900F90DF91CF911F910F910895E82F13
:103BA000F0E0EC59FD4F8491882321F020E040E0C3
:103BB00060E07DCF08956F70623051F028F4662385
:103BC00039F06130E1F00895643011F0683011F59A
:103BD000E82FF0E0EE0FFF1FEA5CFD4DE4918091CD
:103BE0008D02E82BE0938D028091BC03882319F0AD
:103BF000E777E0938D0281E08093BB030895E82F7F
:103C0000F0E0EE0FFF1FEA5CFD4DE49180918D0224
:103C1000E827E8CF08956F70623009F447C020F4B8
:103C2000662309F437C00895643019F0683091F1C3
:103C30000895E82FF0E0EE0FFF1FEA5CFD4DE491E0
:103C4000E09560918D026E2360938D0291E09093D8
:103C5000BB03222309F44BC090918F02981347C0F5
:103C60008FEF840F873610F4842F12C0842F807E4C
:103C7000803E09F03CC0E42FF0E0EE0FFF1FEA5C4D
:103C8000FD4D84918095682360938D02649180E05E
:103C90000C948314E82FF0E0EE0FFF1FEA5CFD4D5B
:103CA000E491E09580918D02E8231CC0E82FF0E0BC
:103CB00090918D02EE0FFF1FEA5CFD4D222379F0FB
:103CC0008091BD03882359F08491E82FE92BE0937C
:103CD0008D028091BC03882339F0E77703C0E4911B
:103CE000E095E923E0938D0281E08093BB03089582
:103CF0006F70623051F028F4662339F0613031F092
:103D00000895643011F0683011F4FFCC6BCD089544
:103D10006F70623049F018F461110DC00BC064304F
:103D200049F0683041F406C0222321F09091BD0390
:103D3000911101C022CD08951F93CF93DF931F925D
:103D4000CDB7DEB7182F862F807F29F080936201D0
:103D500081E08093BB03113C09F488C0B8F5163BA1
:103D6000E0F4113B08F0ADC0133809F46DC050F415
:103D7000143008F4FBC0143708F453C0123809F4A7
:103D80005BC0F4C0143809F469C089E6810F893139
:103D900008F0ECC0812FA4DDEFC0183B09F4A8C0E7
:103DA00050F4163B09F49EC0173B09F0DFC0809128
:103DB000B80381509AC0193B09F49EC083E4810F77
:103DC000833008F0D3C0812FBADDD6C01E3C09F481
:103DD0006CC0B0F4193C09F45BC048F4133C09F41E
:103DE00049C008F445C0183C09F446C0BFC01C3C9B
:103DF00009F497C008F0A9C01A3C09F4BDC0B6C0C8
:103E0000183E38F4103E08F0AEC01F3C09F086C0E2
:103E100050C080E1810F8A3008F0A8C0812F0BDEEE
:103E2000ABC08091B903882321F0812F6983D1DD54
:103E30006981812F5DDFA0C080918E0281FD9CC0D1
:103E400060918D0289E307C080918E0280FD94C04D
:103E500060918D0283E50E9483148EC080918E0252
:103E600082FD8AC060918D0287E4F5CF3CD484C086
:103E700014D482C004D480C09091C00381E089270B
:103E80008093C003811102C085E10BC085E154C05D
:103E90009091BC0381E089278093BC03811103C00A
:103EA00085E037D369C085E047C082E08093BE01DA
:103EB00063C08091870181115FC081E08093870199
:103EC0005BC0EFE4E10FF0E0EE0FFF1FE451FC4DAB
:103ED000E4918091B703E82BE093B70381E08093EE
:103EE000B3044AC08091B8038F5F8093B80309C0C0
:103EF0008091AA02815003C08091AA028F5F8093B3
:103F0000AA029091B4048091BD03992321F090916D
:103F1000B204981788F58093B2042EC0812F75DD06
:103F20002BC09091B90381E089278093B90388233E
:103F300029F01092730180E1CCD21EC080917301F0
:103F400081118093640180E1ACCF8091B90381112C
:103F500013C060916401062E000C770B8BEA92E08F
:103F60000E94D01409C0812F26DE06C0612F70E0A8
:103F700040E084E40E946A1510938F020F90DF9155
:103F8000CF911F9108951F93CF93DF9300D01F927D
:103F9000CDB7DEB7962F907F29F01092620191E0A5
:103FA0009093BB03893B09F49DC008F040C0803B5F
:103FB000D0F4873908F085C0823809F45DC060F418
:103FC0009CEF980F903708F0ACC00F900F900F90B7
:103FD000DF91CF911F919CCE833809F455C084386E
:103FE00009F461C09EC0863B09F472C0B0F4813B05
:103FF00008F497C06FE4680FE62FF0E0EE0FFF1FA4
:10400000E451FC4DE491E0958091B703E823E093FF
:10401000B70381E08093B30490C0873B09F45CC090
:10402000883B09F07EC08091AA028F5F5EC08B3C06
:1040300070F4883C08F081C08D3B08F472C0803C6D
:10404000D0F19FE3980F933008F477C06AC0883EA0
:1040500038F4803E08F04CC08C3C08F06EC061C063
:1040600090E1980F9A3008F05CC00F900F900F907D
:10407000DF91CF911F911BCD80918E0281FF5DC09A
:1040800060918D0289E307C080918E0280FF55C048
:1040900060918D0283E50F900F900F90DF91CF918B
:1040A0001F910C94831480918E0282FF46C0609110
:1040B0008D0287E4F0CF1092BF0381E08093B403B8
:1040C0003CC00F900F900F90DF91CF911F911FCCAC
:1040D0008091B803815003C08091B8038F5F8093B3
:1040E000B8032BC08091AA0281508093AA0225C0F8
:1040F000182F8091B903882361F080918F0281137A
:1041000008C080E02B834A83698363DC69814A812C
:104110002B81812F0F900F900F90DF91CF911F91E6
:104120007ACD682F70E040E085E40F900F900F90FB
:10413000DF91CF911F910C946A150F900F900F9003
:10414000DF91CF911F91089520918D02227291E00D
:1041500009F090E02091C804222359F0992349F0F6
:1041600020918E0220FF05C022EE280F2A3008F48D
:10417000855C2091BB04222321F1833571F4909159
:104180008E0281E0892780938E0280FF03C080E049
:10419000A0D11FC080E0BDD11CC027EA280F2B3062
:1041A00080F420918E02E82FF0E0EE0FFF1F20FF39
:1041B00005C0992319F0EF50FD4D02C0EE50FD4DA2
:1041C00084918A3C39F4911102C085E3089589E213
:1041D000089580E00895AF92BF92CF92DF92EF9260
:1041E000FF920F931F93CF93DF9300D01F92CDB711
:1041F000DEB7D82E062F10E08091BE0396E6C92EBA
:1042000091E1D99E70011124F701C89EE00DF11DC6
:104210001124E00FF11FEF59F54F84914A835B831E
:10422000698392DFB82E8091BE039701C89E200D4E
:10423000311D1124200F311FF901EB59F94FC490A2
:10424000F901E759FD4FA4900E0D1F1DF801EB5D1C
:10425000FD4FB082F801E25BFC4FC082F801E154EF
:10426000FE4FA0824A815B8169818D2D80DB4A2DC2
:104270006C2D8B2D61DD41D20F900F900F90DF914F
:10428000CF911F910F91FF90EF90DF90CF90BF9053
:10429000AF900C94332B9F92AF92BF92CF92DF924C
:1042A000EF92FF920F931F93CF93DF931F92CDB79F
:1042B000DEB791E1899F90011124260F311DF9018C
:1042C000EB5DFD4F6F01B080F901E25BFC4F7F01B8
:1042D000A080890101541E4FF80190809E012F5F3C
:1042E0003F4F5FDB2981492D6A2D8B2D4CDEF60176
:1042F0001082F7011082F80110820F90DF91CF91A8
:104300001F910F91FF90EF90DF90CF90BF90AF90F3
:104310009F90089521E1829FC00111249C01260FE6
:10432000311DF901EB5DFD4F8081F901E25BFC4F2E
:10433000908193FF1FC09FEF980F973618F46091FC
:104340008D0216C0982F907E903EA1F4E82FF0E0E9
:10435000EE0FFF1FEA5CFD4D8491809590918D02D8
:10436000892380938D0281E08093BB03649180E078
:104370000C9483140895FC018091C00381111DC029
:104380008091BA03882339F081E08083818382831E
:104390008383848311C08091A30280838091A402CF
:1043A00081838091A50282838091A602838380917C
:1043B000A70284838091A802858308952091C00379
:1043C000211109C0DC01E6E9F2E08DE08E0F919148
:1043D0009D938E13FCCF0895FC018091C003811141
:1043E00006C08091620190918D02982B9083089570
:1043F00021E1829FC0011124FC01E60FF11DEF595C
:10440000F54FE491E83211F0E83539F441E060E02D
:1044100070E081E50E946A1538C5089590E09C011E
:10442000220F331F820F931FFC01E456F04E24919C
:10443000FC0131968656904EE656F04E621721F0FA
:104440006491FC0184911CC96491FC0184912CC984
:104450000F931F93CF93DF93EBECFFE1D4910AE925
:104460001FE1C0E0CD1769F0F80131966491F801C1
:104470008491E2D860E08C2FD1DFCF5F0D5F1F4FBA
:10448000F1CF8091BF048093D0038093CD038091BE
:10449000B6048093D2038091BE048093CB03DF9156
:1044A000CF911F910F9108958091C903893F69F4BD
:1044B0008091D6038F3E19F41092D60303C08F5F0C
:1044C0008093D6031092C90308958F5F8093C90328
:1044D000089590E0880F991FFC01E259F04EA491D5
:1044E000FC01E159F04E8491EAECFFE1E491AE1752
:1044F00078F4B0E0AF53BC4F811103C08C91816060
:1045000006C09C919170E82FEE0F892F8E0F8C932F
:10451000089590E0880F991FFC01E259F04EA49194
:10452000FC01E159F04E8491EAECFFE1E491AE1711
:1045300080F4B0E0AF53BC4F811104C08C918E7FEA
:104540008C9308959C91292F2695281302C0917071
:104550009C930895823049F0833071F08130B9F432
:1045600081E1B7DF82E1D5DF0BC081E1D2DF82E1FB
:10457000D0DF83E1AEDF06C081E1CBDF82E1A9DFDE
:1045800083E1C7DF84E1C5DF1092D503089581E19F
:10459000C0DF82E1BEDF83E1BCDF84E19ADF81E03E
:1045A0008093D50308950F931F93CF93EAECFFE117
:1045B000E491C0E00E2F10E08C2F0C2E000C990B14
:1045C0008017910714F52091CC032223C9F0FC0138
:1045D000EF53FC4F2081223018F421110FC010C07E
:1045E000E22FE695F0E0EB5FFB4D64918091D603FE
:1045F0000E943232921720F490FF02C061E001C0A5
:1046000060E08C2F0BDFCF5FD7CFCF911F910F9141
:1046100008958091D003803110F081E002C08C5F5A
:104620008C7F8093D00308958091D1038F5F813177
:1046300018F48093D103089581E08093D103109200
:10464000CF031092D40308959091D003903120F0BD
:1046500081E08093CC0308958091CF032091D10312
:10466000929F902D1124891738F491E09093CC03F8
:10467000805F8093CF0308951092CC030895EDE6F8
:10468000FFE1E4918091CB038F5F8E1718F4809344
:10469000CB0308951092CB0308958091D2038F5FCE
:1046A000843018F48093D20302C01092D203809118
:1046B000D203811103C08091D00303C0813021F463
:1046C00084E08093CD030895823031F484E08093B8
:1046D000CD031092CE03089580E18093CD0381E055
:1046E0008093CE03089595DF8091D203811104C099
:1046F0008091D0038093CD0308958091D2038230BE
:1047000011F488E10BC0833071F48091CD038530C2
:1047100010F0845003C0882321F081508093CD0392
:1047200008951092CD0308958091D3038F5F803355
:1047300018F48093D30308951092D3039091D20379
:104740009130B1F42091CE038091CD03222341F02A
:104750008F5F8093CD038831E0F01092CE030895EF
:1047600081508093CD038530A0F49093CE030895BB
:10477000923031F48091CD03853058F0815007C0DC
:10478000933039F48091CD03803118F48F5F80939A
:10479000CD0308958091CD03803120F081E0809396
:1047A000CA0308959091D103899F802D112490917F
:1047B000CE039111807F9091D403981738F481E053
:1047C0008093CA03905F9093D40308951092CA0314
:1047D00008951F93CF93DF93EBECFFE1E49110E09A
:1047E000CE2FD0E0212F012E000C330B2C173D07CC
:1047F0000CF5F901E35AF04EE491EE23C9F08091F3
:10480000D503882391F08091CA03882371F08091A9
:10481000CB03F90190E1899FE00DF11D1124E35ACA
:10482000F14EE49161E0E11101C060E0812FF6DD1D
:104830001F5FD8CFDF91CF911F910895F5DE04DF80
:1048400033DEB1DE71DFA6DFC4CF1F920F920FB649
:104850000F9211242F938F939F93AF93BF93EF9356
:10486000FF93EDB7FEB781E090E090936E058093E3
:104870006D05F0936C05E0936B053196ABEEB4E0FB
:1048800080E090E0E1152BE0F20720F0FC01E5511B
:10489000FB4F07C021912D9301968038910591F728
:1048A000F5CF85E0EB36F80711F01192FACFFF91C2
:1048B000EF91BF91AF919F918F912F910F900FBE6C
:1048C0000F901F901895E4E6F0E08081807180835E
:1048D000A5E6B0E08C9186778C938081816080839F
:1048E0008081846080838081806280838081806415
:1048F00080838C9188608C938081806880838081A4
:10490000826080838C9181608C938C918F778C9363
:1049100090E080E80FB6F894809361009093610076
:104920000FBE089560916F0570E040E081E00E9445
:104930006A1560916D0570916E056115710541F004
:1049400041E082E00E946A1510926E0510926D059A
:10495000BACF8DEA9EED909371058093700508950E
:104960009CE088E10FB6F894A895809360000FBE94
:1049700090936000E0E6F0E080818064808378942A
:10498000089580E189BD82E189BD09B400FEFDCFB3
:104990008091D8008F7D8093D8008091E000826064
:1049A0008093E0008091E00081FDFCCF0895CF93DB
:1049B000DF93962F642F21E1929FE0011124C40F11
:1049C000D11DCC0FDD1FCE51DC4F4881598188238A
:1049D00001F157FF0EC02091C90430E031952195B7
:1049E0003109241735077CF1892FF5DB82E090E04F
:1049F00020C02091C5043091C6044217530794F09B
:104A0000892F88DC2091B70488819981821B9109C4
:104A100010C01416150684F42091C90430E0421722
:104A200053071CF44E5F5F4F10C0892F34DC8EEFAC
:104A30009FEF998388830BC08091BC049091BD0443
:104A40008417950724F44250510959834883DF9114
:104A5000CF9108950F931F93CF93DF93082F862F45
:104A6000642F91E1899FE0011124C40FD11DCC0F67
:104A7000DD1FCE51DC4F5981011110C057FD27C0F9
:104A80008881952F93702091BC043091BD048217CA
:104A9000930708F402969983888339C057FF17C09B
:104AA0000881152F13702091C5043091C604021798
:104AB000130730F02FDC8091B704081B110902C0E6
:104AC0000E5F1F4F198308838981806817C0152FD7
:104AD000169516951F711E5F9091C904191780F0E5
:104AE00048815370002311F076DB01C0D4DB212F05
:104AF00030E039832883898100FB87F9898307C0E7
:104B00001F71110F110F5378252F212B2983DF914E
:104B1000CF911F910F910895CF92DF92EF92FF9264
:104B20001F93CF93DF93E0E5F0E2E491E093D703A6
:104B3000EFE4F0E2E491E093DD03EEE4F0E2E491EF
:104B4000E093E003EDE4F0E2E491E093E10383E439
:104B5000E82E80E2F82E98EDC92E93E0D92ED0E011
:104B6000F70114918091DD0381111FEFF701319658
:104B7000C4914C2F612F8D2F0E94301B2C2F20951C
:104B8000F60121936F01422F41238091DD03642FB1
:104B90006095811101C040E08D2F0E94691BDF5F8D
:104BA000F2E0EF0EF11CD530D9F68091B5048823E0
:104BB00071F08AE295E29093DF038093DE038091A7
:104BC000C904813250F080E28093C90406C087EDA9
:104BD00094E29093DF038093DE03DF91CF911F91E6
:104BE000FF90EF90DF90CF900895CF92DF92EF92F9
:104BF000FF920F931F93CF93C0E08091E00390E06A
:104C00002C2F0C2E000C330B281739070CF054C036
:104C100088EDE82E83E0F82EF5E0CF026001112444
:104C200000E010E0F801EC0DFD1DE251F04E449162
:104C3000F70161917F01802F0E94691B0F5F1F4F59
:104C40000530110579F78091C3048A95F1F710E0DA
:104C5000212F012E000C330B8091E10390E02817E7
:104C6000390744F58091DD03220F331FF901E35327
:104C7000F04E882351F06491F901E453F04E849191
:104C80000E94781B882351F013C06491F901E4530A
:104C9000F04E84910E94781B882351F08091D703B5
:104CA000882319F06C2F812F02C0612F8C2FA0DB7D
:104CB0001F5FCECFCF5FA1CFCF911F910F91FF90FC
:104CC000EF90DF90CF900895CF92DF92EF92FF9216
:104CD0000F931F93CF93DF93D62FC82FCD170CF0D0
:104CE0005EC088EDE82E83E0F82EF5E0CF0260018B
:104CF000112400E010E0F70161917F016F3F49F05E
:104D0000F801EC0DFD1DE251F04E4491802F0E9400
:104D1000691B0F5F1F4F0530110569F78091C304B0
:104D20008A95F1F710E0212F012E000C330B8091B2
:104D3000E10390E02817390784F58091DD03220F05
:104D4000331FF901E353F04E882359F06491F901C0
:104D5000E453F04E84910E94781B91E0882361F027
:104D60000AC06491F901E453F04E84910E94781BCB
:104D700091E0811101C090E08091D703E091DE03C2
:104D8000F091DF03882319F04C2F612F02C0412FCF
:104D90006C2F892F09951F5FC6CFCF5F9FCFDF9103
:104DA000CF911F910F91FF90EF90DF90CF900895DA
:104DB0006091E003669580E087CF8091E003682FE3
:104DC000869582CF81E08093B10408952091B1044B
:104DD000AC01249FC001259F900D11246AE070E072
:104DE0000E943E328091B004562F581B852F60934D
:104DF000B0042F5F2093B1042B3028F01092B00440
:104E000091E09093B1040895CF938091B8038111FC
:104E100004C08091AA02882321F1C1E0C093B404A8
:104E20008091B30481112FC08091B2049091C0048D
:104E30002091B904899FC0011124820F911DC6DF02
:104E40009091B803899F902D11249093AF04909175
:104E5000AA02899F802D11248093AE04C093B304CD
:104E600012C08091B404882319F081E08093B304C8
:104E70001092B4041092B0041092AF041092AE04D9
:104E80008AE08093B104CF910895CF93DF93CDB79B
:104E9000DEB765970FB6F894DEBF0FBECDBF51E207
:104EA0005093BA041092C4041092C8041092B8042B
:104EB00040E14093BF041092C7043CE03093C90422
:104EC0001092BB041092BE0480EF90E09093C20455
:104ED0008093C10488E89FEF9093BD048093BC0445
:104EE00085E08093B9042FE02093C00460E273E072
:104EF0007093C6046093C50490E29093B7048093C6
:104F0000C3041092B5041092B60459831A821B820E
:104F10001C824D831E823F831886198630EF3A87A4
:104F20001B8638E83C873FEF3D878E872F87988B1D
:104F300023E0298B9A8B8B8B1C8A1D8A45E150E0DC
:104F400060E070E0CE0101960E94823265960FB655
:104F5000F894DEBF0FBECDBFDF91CF9108950F93C0
:104F60001F93CF93DF93C2E1D4E2FE013296849186
:104F70003196E49190E0E23059F4FE0105911491EC
:104F8000805090400E947D32F8019183808309C057
:104F9000FE0105911491805090400E947532F801F5
:104FA00080832496F4E2CA35DF07F9F66091BA04EB
:104FB000613251F070E041E080E50E946A15DF91B6
:104FC000CF911F910F9161CFDF91CF911F910F91E1
:104FD000089524E0829FC0011124FC01EC5EFB4D8A
:104FE0002491FC01EB5EFB4D3491FC01EE5EFB4D28
:104FF000822F90E0323041F4A591B4916D917C9173
:10500000805090400C949932A591B4916C9180504D
:1050100090400C948B3213BC10928000109282004E
:1050200080E89EE390938900809388000895109211
:10503000CA04109285001092840081E08093810060
:1050400082E080936F009AE088E10FB6F894A8950B
:10505000809360000FBE90936000E0E6F0E08081F6
:105060008064808308950FB6F894A89580916000BD
:10507000886180936000109260000FBE10926F00F4
:105080001092810008952091840030918500E09174
:10509000CA049091DF0485E08E9FF0011124E90F8E
:1050A000F11DEE0FFF1FE553FB4F40815181421769
:1050B000530778F4E091CA049091DF048E9FF001C9
:1050C0001124E90FF11DEE0FFF1FE553FB4F318354
:1050D00020830895CF931092DF04C5E08091DF0410
:1050E0008530D0F4E091CA048091DF04CE9FF001B6
:1050F0001124E80FF11DEE0FFF1FEF5AFF4D8591B0
:105100009491009719F0FC010995BDDF8091DF04AF
:105110008F5F8093DF04E2CFCF91089510928500D6
:1051200010928400D7DF8091CA048F5F8093CA04F5
:10513000823010F01092CA04A89508951F920F9221
:105140000FB60F9211242F933F934F935F936F935A
:105150007F938F939F93AF93BF93EF93FF93DEDF84
:10516000FF91EF91BF91AF919F918F917F916F913F
:105170005F914F913F912F910F900FBE0F901F9015
:105180001895EBECF4E011821082138212821582E2
:10519000148217821682118610861386128615864F
:1051A000148617861686118A108A138A128A089521
:1051B000292F332723303105D9F074F421303105FC
:1051C00091F02230310509F04CC0ECEAF4E285910F
:1051D00094916AEA74E249C021323105B9F0223271
:1051E0003105E9F03EC082E190E067E175E23DC043
:1051F0009927009729F00197A1F5EAE5F4E202C0AA
:10520000E6EAF4E2849190E0BF012FC081EE689F4E
:10521000B001112464547B4D89E090E026C06623E0
:1052200089F080911001681791F080910001681752
:1052300099F080912001681314C08AE390E06BE537
:1052400075E213C080E490E06CEB75E20EC082E37F
:1052500090E069E275E209C087E290E065E975E2F5
:1052600004C080E090E060E070E0FA017183608348
:10527000089581E06FC90895CF9380E391E0E2D76C
:10528000C82F80911001882321F080E191E0DAD7C6
:10529000C82380910001882321F080E091E0D2D7DB
:1052A000C82380912001882321F080E291E0CAD7B1
:1052B000C823CC2311F080E001C083E04BD980915A
:1052C000E20084608093E200CF91089580E391E052
:1052D00081D680911001882319F080E191E07AD67F
:1052E00080910001882319F080E091E073D68091CD
:1052F0002001882319F080E291E06CC60895809126
:105300003E0190913F01009729F0019790933F0152
:1053100080933E0180911001882359F080911E01F5
:1053200090911F01009729F0019790931F0180939E
:105330001E0180910001882359F080910E01909107
:105340000F01009729F0019790930F0180930E01B0
:1053500080912001882359F080912E0190912F0196
:10536000009729F0019790932F0180932E010895C3
:1053700080E0F0C882E0EEC880E0ECC80F931F9395
:10538000CF93DF93E901F801DC019C9120910001AA
:1053900091112FC0222381F020916001220F809172
:1053A000C704811104C019969C91892F02C080E026
:1053B00090E0820F8093600188E090E09183808389
:1053C0008091600180FD0EC0CE0106D8CE0102960C
:1053D0000E94BB219091BB038091B603892B21F4DD
:1053E00080E067C081FDFCCF1092B6031092BB0332
:1053F0005FC0921313C08EE090E091838083809110
:10540000600180FF08C0CE010E94EC21CE01019610
:105410000E94DE21DFCF81FDE7CFE2CF8091200126
:10542000981314C08091B70388838091AF04898357
:105430008091AE048A8383E090E0918380838091A1
:10544000B304882369F21092B30432C081E090E083
:10545000DB012C91233011F080E090E02091B40327
:10546000822B892B91F08091BF03888381E090E0AB
:105470009183808383E0FB0180838091B403882340
:1054800009F4AECF1092B40313C080914C039091F5
:105490004D039983888382E090E091838083DB01D0
:1054A0008C938091B503882309F49ACF1092B503A9
:1054B00081E0DF91CF911F910F910895CF93805399
:1054C000914009F080C0F901808180938E02C091E3
:1054D0005F01C82780935F01CC2309F474C09091C9
:1054E000BB04911110C0C0FF0EC080FF07C080E058
:1054F0000E94692280E00E944D1D05C080E009D80D
:1055000080E00E94CF1DC1FF11C080918E0281FFFB
:1055100007C081E00E94692281E00E944D1D06C003
:1055200081E00E94892281E00E94CF1DC2FF24C039
:1055300080918E0282FF11C082E00E94692282E087
:105540000E944D1D8091C4048823B1F081E08093B6
:10555000BC0385E00E9469220FC082E00E9489227C
:1055600082E00E94CF1D8091C404882329F010920C
:10557000BC0385E00E948922C3FF11C080918E0286
:1055800083FF07C083E00E94692283E00E944D1DD3
:1055900006C083E00E94892283E00E94CF1DC4FFE1
:1055A00012C080918E0284FF07C084E00E946922AD
:1055B00084E0CF910C944D1D84E00E94892284E008
:1055C000CF910C94CF1DCF910895ECEFF5E2E491CB
:1055D000E1FF08C081E08093100182E8809311010F
:1055E00081E001C080E0E2FF09C091E0980F909354
:1055F00000018E5F806880930101892FE3FF08C05E
:1056000091E0980F909320018E5F80688093210134
:105610000895F89480E391E028D6809110018823C2
:1056200019F080E191E021D680910001882319F0E2
:1056300080E091E01AD680912001882319F080E261
:1056400091E013D67894ADD48BB590915E01981704
:1056500049F06BB570E041E086EA0E946A158BB5AF
:1056600080935E0108958091E104882321F08BB539
:10567000853009F486C90895CF92DF92EF92FF92A8
:105680000F931F93CF93DF93EC018B017A01D6D157
:10569000811133C0E114F10439F0F7018081918167
:1056A000081B190BC80FD91FC12CD12C01151105CE
:1056B00019F18091E80085FD16C08091E8008E7791
:1056C0008093E8006ED4E114F10449F0F701808181
:1056D0009181C80ED91ED182C08285E00EC0AED1A4
:1056E000882321F30AC089918093F10001501109A8
:1056F000FFEFCF1ADF0ADACF80E0DF91CF911F9161
:105700000F91FF90EF90DF90CF9008952091E904E2
:105710003091EA042617370748F06115710539F40E
:105720002091E8002E772093E80001C0B90140E005
:1057300061157105A1F12BB5222309F442C0253072
:1057400009F441C02091E80023FD3FC02091E8000A
:1057500022FD31C02091E80020FFEACF4091F30004
:105760002091F20030E0342BFC01CF01611571056E
:1057700059F02830310540F481918093F100615057
:1057800071092F5F3F4FF1CF41E02830310509F01B
:1057900040E02091E8002E772093E800C9CF411126
:1057A000CACF09C08BB5882361F0853061F0809144
:1057B000E80083FD0AC08091E80082FFF3CF80E01B
:1057C000089582E0089583E0089581E008956115C9
:1057D000710529F42091E8002B772093E800FC0163
:1057E0006115710531F18BB5882359F1853059F177
:1057F0008091E80083FD23C08091E80082FFF0CF14
:105800002091F3008091F20090E0922B892B31F0EF
:105810008091F10081936150710991F78091E800C6
:105820008B778093E800DCCF8BB5882351F08530EF
:1058300051F08091E80080FFF7CF80E0089581E08B
:10584000089582E0089583E008952091E90430915D
:10585000EA042617370748F06115710539F42091DD
:10586000E8002E772093E80001C0B901FC0120E098
:105870006115710589F18BB5882309F43FC0853026
:1058800009F43EC08091E80083FD3CC08091E800AF
:1058900082FD2EC08091E80080FFEACF2091F300C6
:1058A0008091F20090E0922B6115710559F08830DB
:1058B000910540F424912093F100319661507109D3
:1058C0000196F2CF21E0089709F020E08091E800EE
:1058D0008E778093E800CCCF2111CDCF09C08BB556
:1058E000882361F0853061F08091E80083FD0AC073
:1058F0008091E80082FFF3CF80E0089582E0089570
:1059000083E0089581E00895982F973058F590939B
:10591000E900981739F07091EC002091ED0050915A
:10592000F00003C0242F762F50E021FF19C03091E2
:10593000EB003E7F3093EB003091ED003D7F3093E4
:10594000ED003091EB0031603093EB007093EC0090
:105950002093ED005093F0002091EE0027FF07C048
:105960009F5FD3CF8F708093E90081E0089580E03E
:105970000895EF92FF920F931F93CF93DF93E62E3C
:10598000EC018C010C5F1F4FF12CFE1491F158813A
:10599000552351F1F801208169817A8131979081F5
:1059A000852F8F70873010F080E024C0223010F4F3
:1059B00042E001C046E0E8E0F0E020E0E617F7074B
:1059C00020F42F5FEE0FFF1FF9CF2295207F422B8F
:1059D000F0E49F9F90011124551F5527551F652FF7
:1059E000622B92DF882301F3F39425960B5F1F4F00
:1059F000CCCF81E0DF91CF911F910F91FF90EF907D
:105A000008958091E30487FF0FC08091E80082FD34
:105A100004C08BB58111F9CF10C08091E8008B775D
:105A20000AC08BB5882349F08091E80080FFF9CF48
:105A30008091E8008E778093E80008952091E4003B
:105A40003091E50095E64091EC00842F817040FF95
:105A500021C08091E80080FD1BC08BB5882391F0A8
:105A6000853091F08091EB0085FD10C04091E400FD
:105A70005091E5004217530731F39A01915019F7FD
:105A800084E0089582E0089583E0089581E0089518
:105A900080E008954091E80042FFDFCF089564D090
:105AA0006BD0E0EEF0E0808181608083E8EDF0E093
:105AB00080818F77808319BCA7EDB0E08C918E7FB9
:105AC0008C9380818F7E80831092E20408950F93DF
:105AD0001F93CF93DF9348D04FD0C8EDD0E088819B
:105AE0008F77888388818068888388818F7D888389
:105AF00019BC1BBC1092E0041092E10400EE10E00F
:105B0000F80180818B7F808388818160888342E077
:105B100060E080E0F9DEE1EEF0E080818E7F80835E
:105B2000E2EEF0E080818160808380818860808304
:105B3000F80180818E7F8083888180618883DF91F6
:105B4000CF911F910F910895E8EDF0E080818F7E55
:105B50008083E7EDF0E080818160808384E082BF14
:105B600081E08093E204B3CFE8EDF0E080818E7FA6
:105B700080831092E20008951092DA001092E10002
:105B800008951F920F920FB60F9211242F933F93F7
:105B90004F935F936F937F938F939F93AF93BF9335
:105BA000EF93FF938091E10082FF0AC08091E200B1
:105BB00082FF06C08091E1008B7F8093E1009FDB34
:105BC0008091DA0080FF1BC08091D80080FF17C051
:105BD0008091DA008E7F8093DA008091D90080FF77
:105BE0000BC080E189BD82E189BD09B400FEFDCF13
:105BF00081E08BBD3EDB03C019BC1BBC3CDB80914C
:105C0000E10080FF17C08091E20080FF13C0809107
:105C1000E2008E7F8093E2008091E20080618093B9
:105C2000E2008091D80080628093D80019BC85E0A2
:105C30008BBDA0DB8091E10084FF2EC08091E2004B
:105C400084FF2AC080E189BD82E189BD09B400FEDC
:105C5000FDCF8091D8008F7D8093D8008091E100A6
:105C60008F7E8093E1008091E2008F7E8093E2003E
:105C70008091E20081608093E2008091E0048823BB
:105C800011F084E007C08091E30087FD02C081E04D
:105C900001C083E08BBD70DB8091E10083FF21C0F8
:105CA0008091E20083FF1DC08091E100877F809397
:105CB000E10082E08BBD1092E0048091E1008E7FD4
:105CC0008093E1008091E2008E7F8093E2008091DA
:105CD000E20080618093E20042E060E080E014DE58
:105CE00047DBFF91EF91BF91AF919F918F917F9192
:105CF0006F915F914F913F912F910F900FBE0F9039
:105D00001F9018951F93CF93DF93CDB7DEB7AA9757
:105D10000FB6F894DEBF0FBECDBFE3EEF4E088E02F
:105D20008E0F9091F10091938E13FBCFCFDA80917B
:105D3000E80083FF1EC18091E3049091E404492FA1
:105D400050E04A30510508F014C1FA01E855FF4F00
:105D5000A9C3803821F0823809F00BC106C08091B8
:105D6000E104882391F082E011C08091E7048F70F4
:105D7000873008F0FEC08093E9008091EB0085FB3E
:105D8000882780F91092E90001C080E09091E80036
:105D9000977F9093E8008093F1001092F100CAC0C1
:105DA000282F2D7F09F0E5C0882319F0823061F09B
:105DB000E0C08091E504813009F0DBC0933009F048
:105DC00080E08093E1042EC08091E50481112AC017
:105DD0008091E7048F702FEF280F263008F0C9C09C
:105DE0008093E9002091EB0020FF1CC0933021F448
:105DF0008091EB00806214C09091EB0090619093D1
:105E0000EB0021E030E0A90102C0440F551F8A9544
:105E1000E2F74093EA001092EA008091EB0088607C
:105E20008093EB001092E9008091E800877F8093D7
:105E3000E800E7DD9EC081119CC01091E5041F774A
:105E40008091E3008078812B8093E3008091E800CB
:105E5000877F8093E800D5DD8091E80080FFFCCF4C
:105E60008091E30080688093E300111102C082E01A
:105E700001C083E08BBD7DC08058823008F079C0BE
:105E80008091E5049091E6048C3D53E0950771F50F
:105E900083E08A838AE289834FB7F894DE01139600
:105EA00020E03EE051E2E32FF0E050935700E49110
:105EB00020FF03C0E295EF703F5FEF708E2F90E000
:105EC000EA3010F0C79601C0C0968D939D932F5F66
:105ED000243149F74FBF8091E800877F8093E80025
:105EE0006AE270E0CE01019611DC13C06091E70414
:105EF0007091E804AE014F5F5F4F5AD9BC01892B06
:105F0000C1F19091E800977F9093E80089819A8190
:105F10009CDC8091E8008B778093E8002AC0803871
:105F200041F58091E800877F8093E8008091E0044C
:105F30008093F1008091E8008E7779CF811119C0AC
:105F40009091E5049230A8F48091E800877F8093D7
:105F5000E8009093E00455DD8091E004811106C0D3
:105F60008091E30087FD02C081E001C084E08BBD29
:105F700083D98091E80083FF0AC08091E800877F81
:105F80008093E8008091EB0080628093EB00AA96FA
:105F90000FB6F894DEBF0FBECDBFDF91CF911F913A
:105FA0000895CF938BB5882399F0C091E900CF7005
:105FB0009091EC00892F817090FD80E8C82B1092A1
:105FC000E9008091E80083FD9DDECF70C093E90079
:105FD000CF9108956F927F928F929F92AF92BF92CE
:105FE000CF92DF92EF92FF920F931F93CF93DF93A5
:105FF00000D01F92CDB7DEB77C01CDB6DEB6809162
:10600000E80083FF08C1F701808190E02091E70458
:106010003091E8042817390709F0FDC08091E404A5
:10602000833009F49FC030F4813071F0823009F47C
:10603000D6C0F1C08A3009F4BAC08B3009F4A3C0CD
:10604000893009F0E8C051C08091E304813A09F039
:10605000E2C08DB69EB61A8219828091E504109135
:10606000E6048B83F7018085482F50E08DB79EB7FB
:10607000841B950B0FB6F8949EBF0FBE8DBFEDB776
:10608000FEB731965F0160E070E0CF0127D24FEF9D
:10609000410F8E010F5F1F4F9501BE016D5F7F4F56
:1060A000C7016CD9F70186819781009721F040855F
:1060B00050E0B5010AD21092E9008091E800877F94
:1060C0008093E8008B8181118093F10069817A814E
:1060D000C5011CDB8091E8008B778093E8000FB648
:1060E000F8949EBE0FBE8DBE96C08091E3048132AF
:1060F00009F091C0ADB6BEB60091E9041091EA0472
:106100007090E5046090E6048DB79EB7801B910BFC
:106110000FB6F8949EBF0FBE8DBFEDB7FEB7319698
:106120004F018091E800877F8093E800B801CF019C
:106130004EDB8091E8008E778093E80021E07110BB
:1061400001C020E030E0021B130B280D391D4FEF7A
:10615000460D672DC701B2D90FB6F894BEBE0FBE6B
:10616000ADBE59C08091E304813A09F054C08091DA
:10617000E800877F8093E8008091E80080FFFCCFF3
:10618000F701818540C08091E304813209F043C06A
:106190008091E800877F8093E80033DC9091E504EC
:1061A00081E0911101C080E0F701818734C08091C6
:1061B000E304813281F58091E800877F8093E800D5
:1061C00020DC8091E5049091E604882736E09695DE
:1061D00087953A95E1F7F701958784871CC08091F0
:1061E000E304813AC1F48091E800877F8093E8005E
:1061F0008091E80080FFFCCFF70184859585969516
:106200008795969587958093F1008091E8008E7729
:106210008093E800F6DB0FB6F894DEBE0FBECDBE6D
:106220000F900F900F90DF91CF911F910F91FF90E2
:10623000EF90DF90CF90BF90AF909F908F907F9026
:106240006F900895FC01399627E0DF011D922A9591
:10625000E9F721E0FC01218724EF31E0358724872D
:1062600023E0248361E0019684CB4F925F926F928A
:106270007F928F929F92AF92BF92CF92DF92EF92D6
:10628000FF920F931F93CF93DF9300D01F92CDB750
:10629000DEB77C01ADB6BEB68BB5843009F08DC0DB
:1062A0008091E4009091E500F7012285338528175D
:1062B000390709F482C081818F708093E900809151
:1062C000E80085FF7AC08DB69EB6408550E08DB758
:1062D0009EB7841B950B0FB6F8949EBF0FBE8DBF63
:1062E000EDB7FEB731966F011B821A82198260E00A
:1062F00070E0CF01F3D08E010F5F1F4F960140E099
:10630000BE016D5F7F4FC70139D8482EF7018485E4
:106310009585892B51F091E080E026853785232BE8
:1063200009F090E0092F182F02C000E010E0F701FB
:10633000668077806114710489F049815A81B301C4
:10634000C601B6D055245394892B09F4512CF7017A
:10635000408550E0B601C301B8D001C0512C8981FD
:106360009A81892BF1F0411004C0511002C0012B19
:10637000C1F0F701848595859787868781818F7025
:106380008093E9008B8181118093F10069817A818A
:1063900040E050E0C60170D98091E8008E7780938C
:1063A000E8008091E4009091E500F70193878287EF
:1063B0000FB6F8949EBE0FBE8DBE0FB6F894BEBE4B
:1063C0000FBEADBE0F900F900F90DF91CF911F9138
:1063D0000F91FF90EF90DF90CF90BF90AF909F9084
:1063E0008F907F906F905F904F9008950895FEDF9B
:1063F0000E9492240E9455150E94AF270E948C256E
:106400000E9428220E94B21C0E94E2260E94511380
:106410000E940B28DAD80E94F52596DB78948BB57C
:10642000843010F4F6D8FBCF0E9417288091BE016B
:10643000811102C0EED8FACF0E94332830DBF894E5
:106440002FEF87EA91E6215080409040E1F700C0AD
:1064500000008091BE01823011F40E94A9240E94A4
:10646000B024FFCF991B79E004C0991F961708F05C
:10647000961B881F7A95C9F780950895AA1BBB1BA8
:1064800051E107C0AA1FBB1FA617B70710F0A61B34
:10649000B70B881F991F5A95A9F780959095BC0155
:1064A000CD010895EE0FFF1F0590F491E02D0994A2
:1064B000FB01DC0104C08D910190801921F4415051
:1064C0005040C8F7881B990B0895FB01DC0102C0FE
:1064D00001900D9241505040D8F70895DC0101C061
:1064E0006D9341505040E0F70895F999FECF92BD69
:1064F00081BDF89A992780B50895A8E1B0E042E0FF
:1065000050E01CC0DC01CB0102C02D9105D04150F0
:106510005040D8F70895262FF999FECF1FBA92BDA3
:1065200081BD20BD0FB6F894FA9AF99A0FBE019674
:106530000895F1DF272FF0CFDC01CB01FC01F999A1
:10654000FECF06C0F2BDE1BDF89A319600B40D92BF
:0C65500041505040B8F70895F894FFCF78
:10655C0000830E00000100000E000000000000008F
:10656C000082030000010000020000000000000097
:10657C000084030000010000030000000000000084
:10658C00008108000001000008000000000000006D
:10659C002400250023002700280026002A002B00B9
:0E65AC0029002D002E002C00300031002F00A1
:00000001FF
