:100000000C941B150C945F150C945F150C945F15E4
:100010000C945F150C945F150C945F150C945F1590
:100020000C945F150C945F150C94742D0C945F1553
:100030000C9439240C945F150C945F150C945F1587
:100040000C945F150C9484280C945F150C945F1528
:100050000C945F150C945F150C945F150C945F1550
:100060000C945F150C945F150C945F150C945F1540
:100070000C945F150C945F150C945F150C945F1530
:100080000C945F150C945F150C945F150C945F1520
:100090000C945F150C945F150C945F150C945F1510
:1000A0000C945F150C945F150C945F157F1B04185E
:1000B0000A18141814182A188218B1182C19AB1918
:1000C000E319B51A041B281B141814181418141853
:1000D00014181418E218F418FD1808191119EB185F
:1000E000411B591B6D1B1A1A2F1A421A581A691AEA
:1000F0007D1A911AA31A37183A1840184A1850183E
:100100005318591864186A186D184018731879181C
:100110003D194019461949194F1957195D196819A0
:100120006E19711977197A19801988198E1995190C
:100130009B19F019F519FA19FF19041A091A0E1A60
:10014000131AC51AC81ACF1AD21AD81AE31AE91AFA
:100150005C2E832E722F832E722FCE2EEF2E722FB7
:10016000432F522F0000000000000000000000009C
:10017000000000002A002B002800000000002800DA
:10018000000000000000000000000000000000006F
:100190000000000000000000000029000000000036
:1001A000000000002C001E02340220022102220264
:1001B000240234002602270225022E0236002D00DA
:1001C0003700380027001E001F00200021002200F9
:1001D00023002400250026003302330036022E00BF
:1001E000370238021F020402050206020702080253
:1001F00009020A020B020C020D020E020F0210028B
:10020000110212021302140215021602170218023A
:1002100019021A021B021C021D022F0031003000BD
:1002200023022D0235000400050006000700080027
:1002300009000A000B000C000D000E000F0010005A
:10024000110012001300140015001600170018000A
:1002500019001A001B001C001D002F023102300281
:1002600035024C000000000000000000000000000B
:10027000000000000000000000000000000000007E
:10028000000000000000000000000000000000006E
:10029000000000000000000000000000000000005E
:1002A000000000000000000000000000000000004E
:1024500000000000000000000000FF00FF00FF007F
:10246000FF00FF00FF00FF00FF00FF00FF00FF0074
:10247000FF00FF00FF00FF00FF00FF00FF00FF0064
:10248000FF00FF00FF00000000000000000000004F
:10249000000000000000000000000000000000003C
:1024A000000000000000000000000000000000002C
:1024B0000000000000000000080C00000000000008
:1024C000000000000000000000000000000000000C
:1024D00000000000000000000000000000000000FC
:1024E00000000000000000000000000000000000EC
:1024F00000000000000000000000000000000000DC
:1025000000000000000000000000000000000000CB
:1025100000000000000000000000000032249B26A4
:10252000E32600003224A1261F1700003224AA2629
:10253000ED1700003224B626000000004F7574200D
:102540006F662072616E67652E0A00496E76616C57
:1025500069642073656C656374696F6E2E0A003A56
:10256000204F4646003A204F4E00205B312D313639
:102570005D3E2000205B312D3235355D3E20002050
:102580005B312D3939395D3E2000205B312D3939E1
:102590005D3E2000205B302D395D3E2000205B3009
:1025A0003D4F46462C20313D4F4E5D3E2000205B86
:1025B000312D345D3E200044656661756C742042A7
:1025C00061636B6C69676874204D6F646500446576
:1025D0006661756C74204261636B6C696768742016
:1025E000456E61626C650044656661756C7420447B
:1025F000696D6D6572204C6576656C004D61747215
:102600006978205365747570205761697420286358
:1026100079636C657329005265706561742050653B
:1026200072696F6420286D7329004D696E20486FB0
:102630006C642054696D6520666F72205265706508
:10264000617420286D7329004D6F757365204D6F7F
:1026500076656D656E74204D756C7469706C696516
:10266000720042617365204D6F757365204D6F7602
:10267000656D656E74004D61782044656C617920EC
:1026800054696D6520666F7220446F75626C6520B9
:1026900054617020286D7329004D617820486F6C5B
:1026A000642054696D6520666F7220546170202823
:1026B0006D7329004465626F756E63652054696DA2
:1026C0006520286D732900416C7465726E617465B4
:1026D000204465626F756E6365205374796C650084
:1026E000556E6C696E6B6564204E756D204C6F6322
:1026F0006B00426F6F74204B6579626F617264008A
:1027000044656661756C74204C6179657200576927
:102710006E204C6F636B206F6E205363726F6C6C16
:10272000204C6F636B005669727475616C204E7536
:102730006D20506164000A3929204261636B0A3EB2
:1027400020000A382920000A372920000A362920CB
:10275000000A352920000A342920000A33292000E4
:102760000A322920000A312920000A4C4544204D14
:10277000656E753A000A54696D696E67204D656E25
:10278000753A000A436F6E666967204D656E753A4B
:10279000000A4D61696E204D656E753A0A31292037
:1027A000436F6E666967206D656E750A3229205425
:1027B000696D696E67206D656E750A3329204C4519
:1027C00044206D656E750A35292052657365740A5B
:1027D000392920517569740A3E20001E4D1F512071
:1027E0004E21502200234F244A2552264B27493799
:1027F0004CB500B600B700CD006F007000E200E5F8
:1028000000E900EA00520153015401550183018A95
:1028100001920194012102230224022502260227AB
:10282000022A02B101B202B304B408B510E001E11A
:1028300002E204E308E410E520E640E78001080A2C
:102840000C0F10141418181E00385B0500016505E4
:1028500001016905020159050301600504016805CC
:1028600005016A0506015C0507015F0508016205AF
:1028700009025D050B025A050D0161050E01660591
:102880000F02580511016405120156051301570581
:1028900014014A03450061007300790041005600AD
:1028A000520020004D0075006C00740069006D003E
:1028B000650064006900610020004B00650079003C
:1028C00062006F0061007200640020007600230047
:1028D0002E00230023002E00230023000000040309
:1028E000090409026D00040100A0FA0904000001B6
:1028F000030101000921B001000122400007058108
:10290000030800010904010001030000000921B0CF
:1029100001000122320007058203030008090402B6
:102920000001030000000921B00100012227000777
:102930000583030E000109040300010301020009DD
:1029400021B0010001223A000705840303000512AB
:1029500001000200000008EB03FF2010000001004E
:1029600001050C0901A1018502160100269C021A2D
:1029700001002A9C02751095018100C005010980A3
:10298000A1018503198129837501950381069505A8
:102990008101C005010902A1010901A10005091970
:1029A0000129031500250195037501810295017523
:1029B0000581010501093009311681FF267F0036A6
:1029C0000000460000950275088106C0C005010997
:1029D00006A101050719E029E715002501750195F4
:1029E00008810215002501050719002967956875FA
:1029F000018102C005010906A101050719E029E7C7
:102A00001500250175019508810295017508810160
:102A100005081901290595057501910295017503B0
:102A20009101150026FF000507190029FF9506757D
:102A3000088100C00F0011241FBECFEFDAE0DEBF17
:102A4000CDBF84B714BE0FB6F894A89590916000DE
:102A5000986190936000109260000FBEF89483FF1D
:102A600011C080917805909179058D3A9E4D51F471
:102A70001092790510927805E8E4F8E28591949136
:102A8000FC01099585B7806885BF85B7806885BFDB
:102A900011E0A0E0B1E0E2EBF4E602C005900D9297
:102AA000AE35B107D9F725E0AEE5B1E001C01D9222
:102AB000A837B207E1F70E94A2310C9457320C9468
:102AC000000010926C0110926B011092670110923D
:102AD000660110927501109274010895909102049C
:102AE00080910704892B90910104892B9091000417
:102AF000892B20916801222309F45EC0811163C0F3
:102B000080916A01811154C08091860181113FC07A
:102B100090916101291305C0109268011092610122
:102B20000895E92FF0E0EE0FFF1FEA58FE4F808175
:102B3000218130916201813059F420936A019F5FB5
:102B400090936101332309F43EC01092620105C0E5
:102B5000231731F02093620181E0809307040895E8
:102B600080938601181614F43BD60BC099E6980F93
:102B7000993110F40DD705C093E4980F933008F401
:102B800036D7809161018F5F80936101089587FD41
:102B900002C058D60AC099E6980F993110F40FD7A1
:102BA00004C08D5B833008F42FD7109286010895FE
:102BB000815080936A010895811105C08091690157
:102BC0008D7F809369010895809135029091630112
:102BD000891731F180936301882311F1883211F054
:102BE000883531F4809169018B7F80936901089564
:102BF000E09165018A3251F4EE2391F0E150E093C7
:102C00006501F0E0E359FE4F10820895E63040F48C
:102C1000AE2FB0E0A359BE4F8C93EF5FE0936501F8
:102C200008951092620181E080930704809135023B
:102C3000811102C0109269010895AC018091680170
:102C4000BA01982F292F281B983048F090936801DB
:102C5000420F511D509375014093740122C0FB0136
:102C6000259134916F5F7F4F211109C090936801C6
:102C700010927501109274019923C1F012C0F901EC
:102C8000FF27EE0FFF1FEC59FE4F25913491E92FDE
:102C9000F0E0EE0FFF1FEA58FE4F318320839F5F65
:102CA000D1CF8091690183608093690181E00895AB
:102CB0004091680128E030E0241B310926173707CE
:102CC00040F150E0252F30E026173707D0F440912F
:102CD0006801FC01E20FF31FE081F0E0EE0FFF1F3F
:102CE000EC59FE4F25913491E42FF0E0EE0FFF1FD9
:102CF000EA58FE4F318320834F5F409368015F5F46
:102D0000E1CF672B41F08091690183608093690175
:102D100002C080E0089581E00895909168019830A4
:102D200090F4E92FF0E0EE0FFF1FEA58FE4F80838A
:102D300061839F5F909368018091690183608093B4
:102D4000690181E0089580E008959C0190916801F7
:102D500091112EC0A901983049F490936801205F29
:102D60003F4F30936C0120936B011BC0FA016591BA
:102D700074914E5F5F4F6115710549F4909368013E
:102D800010926C0110926B01992381F00AC0E92F17
:102D9000F0E0EE0FFF1FEA58FE4F718360839F5FE4
:102DA000DACF8091690183608093690181E00895A1
:102DB00080E00895AC018091680181113CC060936E
:102DC0007301282F30E02617370758F590916801D6
:102DD000220F331F983038F0240F351F30936701CE
:102DE000209366011EC0FA01E20FF31F208131819A
:102DF000E92FF0E0EE0FFF1FEA58FE4F31832083EA
:102E00009F5F90936801909173019150909373012B
:102E1000911105C0109267011092660102C08F5F88
:102E2000D0CF80916801882341F08091690183604F
:102E30008093690102C080E0089581E00895909137
:102E40006901992319F191FD49CE20916B013091CF
:102E50006C012115310511F0C90177CF2091660170
:102E6000309167012115310529F06091730170E0FF
:102E7000C901A0CF20917401309175012115310550
:102E800011F0C901DACE92FD9FCECBCE0895EDE6CA
:102E9000F1E0108211821282138214821582109244
:102EA000650180913502809363018091690185609D
:102EB000809369010895089508958A3010F4805D23
:102EC0000895895C08959F92AF92BF92CF92DF924E
:102ED000EF92FF920F931F93CF93DF939C018B018F
:102EE00080E3FB01808380E28183828383E0E82E9C
:102EF000F12CD4E6C0E09AE0B92E6D2F70E0C1113C
:102F000003C02617370778F06801CC0ED11CC90121
:102F10000E94E931982EA92E862FCFDFF6018083FB
:102F2000292D3A2DCF5F8D2F6B2D0E94DD31D82FAB
:102F3000F1E0EF1AF10809F7DF91CF911F910F919E
:102F4000FF90EF90DF90CF90BF90AF909F9008954B
:102F500097EA980F993010F48855089592EE980FDB
:102F6000993010F48D5108959CEF980F963010F41D
:102F70008A5F089580E00895BF92CF92DF92EF922A
:102F8000FF920F931F93CF93DF937C018B0180E01F
:102F900090E0B12CC42FD0E02B2D30E0201731076A
:102FA00090F4C89F6001C99FD00CD89FD00C112409
:102FB000F701E20FF31F8081CBDF9601280F311D4F
:102FC000C901B394E9CFDF91CF911F910F91FF9089
:102FD000EF90DF90CF90BF9008951F93CF93DF9332
:102FE00000D000D0CDB7DEB780916901811187C3D1
:102FF000E09187018E2F90E085329105A8F4FC01C5
:10300000EA5AFF4F0C94FD3181E997E216DE3FDF6B
:1030100082E04CC311E010938701109288018091E7
:103020006D0196DF893019F41092870168C38530ED
:1030300019F41093890163C3813011F485E036C31C
:10304000823011F488E032C3833009F42EC38BE45C
:1030500095E2F3C2E09188018E2F90E08D309105CA
:1030600008F04AC0FC01E558FF4F0C94FD3183E89D
:1030700097E293C285E697E2E0DD86E297E28DC2B1
:1030800080915C05882319F085E695E286C28FE57C
:1030900095E283C280E697E2D0DD8EE097E27DC2C2
:1030A00080916505EFCF8BE597E2C7DD80E097E281
:1030B00074C28AE3898380E28A8380915905BE01C4
:1030C0006D5F7F4F90E08CC286E597E2B6DD82EFC0
:1030D00096E263C280916805D5CF81E597E2ADDDC8
:1030E00080EE96E25AC28CE497E2A7DD87EC96E286
:1030F00054C280915605C6CF86E397E29EDDC7DEB7
:1031000086E07AC287E08093870180916D0120DF9D
:1031100080938801893011F481E0C8C2813019F4AC
:1031200086E297E28AC2823019F48EE097E285C285
:10313000833019F480E097E280C2843019F482EF82
:1031400096E27BC2853019F480EE96E276C2863034
:1031500019F487EC96E271C28BE495E26EDD85E0AE
:1031600072C2809188018330C9F048F4813089F0BF
:10317000823019F58DE995E260DD85E11FC085306B
:10318000B9F088F08630C9F48DE995E256DD89E121
:1031900015C08DE995E251DD84E110C084E995E226
:1031A0004CDD86E10BC08DE995E247DD87E106C085
:1031B0008DE995E242DD88E101C085E080938701D9
:1031C00066DE43C280916D01C3DE823048F4809395
:1031D000690582E01AC080916D01BADE823050F13B
:1031E0008CE395E22ADD2ACF80916D01B1DE823039
:1031F000B8F78093650581E008C080916D01A8DE75
:103200008A3070F78093590583E00E94F92716CF22
:1032100080916D019DDE823018F78093680585E00E
:10322000F4CF80916D0194DE8230D0F680935C05FE
:1032300087E0EBCF8093560580E10E94F9278091CB
:103240005605882321F086E080936A05DECF8CE066
:1032500080936A0586E0D9CF8AE3898380E28A83F6
:10326000E09188018E2F90E08131910508F06DC0CA
:10327000FC01E857FF4F0C94FD3185E797E28DC1C3
:1032800085E697E2DADC84EB96E287C180916A05F5
:1032900047C080E697E2D1DC89E996E27EC1BE01B3
:1032A0006D5F7F4F80916205909163054AC08BE509
:1032B00097E2C3DC86E796E270C180915D0590914C
:1032C0005E05BE016D5F7F4F91958195910939C073
:1032D00086E597E2B2DC82E696E25FC180915A050C
:1032E0001FC081E597E2A9DC88E496E256C180918F
:1032F000610516C08CE497E2A0DC8AE296E24DC13B
:10330000BE016D5F7F4F809166059091670519C082
:1033100087E497E292DC87E196E23FC1809158050D
:10332000BE016D5F7F4F90E04AC182E497E285DC89
:103330008CEF95E232C180916405BE016D5F7F4FD5
:1033400090E0C1DD65E070E04EC186E397E275DC98
:103350009EDD89E051C18AE08093870180916D01F3
:10336000F7DD80938801893009F4D6CE813019F4D5
:1033700084EB96E262C1823019F489E996E25DC17C
:10338000833019F486E796E258C1843019F482E656
:1033900096E253C1853019F488E496E24EC1863036
:1033A00019F48AE296E249C1873019F487E196E27E
:1033B00044C1883019F48CEF95E23FC18BE495E26B
:1033C0003CDC88E040C1E09188018E2F90E0FC0158
:1033D0003197E830F10560F5E756FF4F0C94FD3169
:1033E0008AE895E22ADC8DE1E9CE8FE795E225DCDB
:1033F0008EE1E4CE8FE795E220DC8FE1DFCE8AE834
:1034000095E21BDC80E2DACE8AE895E216DC81E206
:10341000D5CE8FE795E211DC82E2D0CE8AE895E244
:103420000CDC83E2CBCE84E795E207DC84E2C6CEF7
:1034300088E0C4CE6091650170E04AE08DE691E0DD
:103440009BDD9C01215031092336310520F4809306
:103450006A0586E04FC08CE395E2EFDBF3CD609127
:10346000650170E04AE08DE691E086DD9C01215027
:103470003109273E334078F79093630580936205C6
:1034800089E038C06091650170E04AE08DE691E026
:1034900073DD9C0121503109273E3340E0F69195C0
:1034A0008195910990935E0580935D058AE022C025
:1034B0006091650170E04AE08DE691E05DDD9C0180
:1034C000215031092336310530F680935A058BE0BF
:1034D00011C06091650170E04AE08DE691E04CDD3D
:1034E0009C01215031092336310508F0B4CF809377
:1034F00061058CE00E94F927A5CD6091650170E01F
:103500004AE08DE691E038DD9C0121503109273EEB
:10351000334008F0A0CF90936705809366058DE057
:10352000E9CF6091650170E04AE08DE691E024DD2D
:103530009C01215031092336310508F08CCF80934E
:1035400058058EE0D7CF6091650170E04AE08DE6C6
:1035500091E012DD9C01215031092F3F310508F027
:103560007ACF809364058FE0C5CF8AE3898380E2B8
:103570008A83E09188018E2F90E087309105B8F51D
:10358000FC01EF55FF4F0C94FD318AE697E205C030
:1035900085E697E252DB87EE95E24FDB2FC0809104
:1035A0006005BECE80E697E248DB8EEC95E2F5CF73
:1035B00080915F0590E0BE016D5F7F4F019683DCD7
:1035C00064E070E010C08BE597E237DB87EB95E2B3
:1035D000E4CF8091570590E0BE016D5F7F4F01966B
:1035E00072DC63E070E0CE01019662DB07C086E327
:1035F00097E223DB4CDC8CE080938701809188018B
:103600008F5F809388017BC08DE0809387018091DC
:103610006D019EDC80938801893009F47DCD813075
:1036200019F487EE95E209C0823019F48EEC95E228
:1036300004C0833021F487EB95E2FFDA60C08BE4AD
:1036400095E2FBDA8BE0809387011092880157C0E6
:1036500080918801823049F0833061F0813079F4C3
:103660008AE695E2EADA8AE1A9CD8AE695E2E5DA28
:103670008BE1A4CD8EEA95E2E0DA8CE19FCD8BE080
:103680009DCD6091650170E04AE08DE691E074DCCB
:103690009C01215031092031310520F480936005CF
:1036A00084E018C08CE395E2C8DA8BE08093870150
:1036B00026C06091650170E04AE08DE691E05CDC37
:1036C0009C01215031092031310560F781508093F0
:1036D0005F0588E00E94F927E8CF6091650170E0FE
:1036E0004AE08DE691E048DC9C012150310924300C
:1036F0003105C0F681508093570581E1EBCF0F90E3
:103700000F900F900F90DF91CF911F91089526E0B9
:10371000829FC0011124FC01E05CFE4F0190F0810A
:10372000E02D208181E090E001C0880F6A95EAF7E2
:10373000822B8083089526E0829FC0011124FC0122
:10374000E05CFE4F0190F081E02D80816095682360
:10375000462B4083089526E0829FC0011124FC017E
:10376000E05CFE4F0280F381E02D208181E090E05B
:1037700001C0880F6A95EAF7822B8083089526E0BE
:10378000829FC0011124FC01E05CFE4F0280F381A6
:10379000E02D208181E090E001C0880F6A95EAF772
:1037A000809582238083089526E0829FC0011124A2
:1037B000FC01E05CFE4F0280F381E02D80816823F4
:1037C000462B4083089526E0829FC0011124FC010E
:1037D000E05CFE4F0480F581E02D80818623089512
:1037E000E82FE695E695E695F0E0E85DFD4F982F29
:1037F000977021E030E001C0220F9A95EAF790819E
:10380000292B208391E09093020420912202E5E38A
:10381000F2E090E0921729F03191831791F09F5FC9
:10382000F9CF963048F4E92FF0E0EB5CFD4F808350
:103830009F5F90932202089510923B0281E0809353
:1038400006040895E82FE695E695E695F0E0E85D34
:10385000FD4F982F977021E030E001C0220F9A951C
:10386000EAF7209590812923208391E09093020428
:1038700020912202E5E3F2E090E0921729F03191E5
:10388000831719F09F5FF9CF0895E92FF0E0EB5C03
:10389000FD4F818180839F5F9217B8F32150209361
:1038A0002202109206040895E82FE695E695E69523
:1038B000F0E0E85DFD4F982F977021E030E001C007
:1038C000220F9A95EAF790812927208391E090931F
:1038D000020420912202E5E3F2E090E0921729F041
:1038E0003191831799F09F5FF9CF963048F4E92F13
:1038F000F0E0EB5CFD4F80839F5F90932202089580
:1039000010923B0281E0809306040895E92FF0E0D5
:10391000EB5CFD4F818180839F5F9217B8F321504C
:10392000209322021092060408959091DD029430B3
:1039300048F4E92FF0E0ED5DFD4F80839F5F9093A9
:10394000DD02089540E060E070E082E4B5DA1092B4
:10395000270208952091DD02E3E2F2E090E0921761
:1039600029F03191381739F09F5FF9CF682F70E057
:1039700040E083E4A1CAE92FF0E0ED5DFD4F8181D5
:1039800080839F5F9217B8F321502093DD02089542
:1039900020916E0330916F03232B69F48759E82F30
:1039A000F0E0EE0FFF1FEF50F84D8591949190934A
:1039B0006F0380936E0381E080930104089587591B
:1039C000E82FF0E0EE0FFF1FEF50F84D25913491F6
:1039D00080916E0390916F032817390721F410929C
:1039E0006F0310926E0381E080930104089593E4C5
:1039F000980F81E001C0880F9A95EAF780930B0435
:103A000081E080930004089510920B0481E080937C
:103A1000000408958091590580930A0408959CE05C
:103A2000899F600D112480911B0268130DC0809145
:103A30005D0590915E058417950734F48091090423
:103A40008F5F80930904089510921B02109209045D
:103A50000895E0916205F09163054E175F0754F4F5
:103A600091E0F9019083FCE08F9F600D1124609339
:103A70001B020895F901108210921B021092090492
:103A8000089590917301E92FF0E0EE0FFF1FE35CC2
:103A9000FD4F20911F0230E0322F2227282B318347
:103AA000208381E0890F80937301803530F010927C
:103AB00005048093640180E145C5089590910C044C
:103AC000911110C0805D803168F4E82FF0E0EE0FB6
:103AD000FF1FE75BFC4E85919491880F991F875BD0
:103AE0009C4E33C90895CF93DF9390911D02981790
:103AF00069F1D62FC82F80910A04882311F08B5FBB
:103B000021D580E18C0F80930A040FDF80910A0495
:103B1000882311F08B5FF6D490910A0480915905A7
:103B2000981711F08FE0EED480910A0490911E0254
:103B3000D0FF02C0981308C0981308C080910904F0
:103B4000811104C08091590580931E02DF91CF91AD
:103B50000895E82FF0E0EC59FD4F8491882311F08F
:103B600060E0C1CF0895FF920F931F93CF93DF932F
:103B700000E1080F9091210289130CC090911D0261
:103B8000891303C010921D0205C062FF03C0809319
:103B90001D024DC0F22ED42F162FC82F80910A047B
:103BA000882311F08B5FCED4FF20F9F080910A04B6
:103BB00008131BC080910904882319F011FD00939C
:103BC0001E0280912102C81310C017FF0EC0D83604
:103BD00028F460911F028D2FA0D807C08D2F807709
:103BE000803719F480E68D0F69DF802FB3DEE09116
:103BF000DD02E11103C080911E0204C0F0E0EE5D21
:103C0000FD4F808180930A0480910A04882311F07B
:103C10008B5F78D490910A0480915905981307C05E
:103C20008FE0DF91CF911F910F91FF908BC4DF91B7
:103C3000CF911F910F91FF900895E82FF0E0EC597C
:103C4000FD4F8491882321F020E040E060E08BCF9D
:103C50000895E82FF0E090911F0220910804EE0FE4
:103C6000FF1FE259F94D613071F08491E82FE92B83
:103C7000E0931F02222319F0E777E0931F0281E00F
:103C8000809307040895E491E927F2CF982F842FB9
:103C9000623091F120F4613009F464C007C0E92F6B
:103CA000F0E0643009F443C0603839F0E92FF0E007
:103CB000EE0FFF1FE259F94D4BC0EE0FFF1FE25907
:103CC000F94DE491E09560911F026E2360931F020D
:103CD00031E030930704222309F444C020912102EB
:103CE000921340C0883608F418C8982F9077903700
:103CF00009F038C0805AE2CEE92FF0E080911F022F
:103D0000EE0FFF1FE259F94D222371F09091090443
:103D1000992351F0E491E82BE0931F02809108046D
:103D20008823E9F0E77719C0E491E09515C0809108
:103D30002102EE0FFF1FE259F94D981309C0E491DB
:103D400080911A028E2780931A028E2359F401C0A3
:103D5000E491E09580911F02E823E0931F0281E047
:103D6000809307040895613009F03ACD9DCD6150EC
:103D7000623008F067DD80911A02882359F080953F
:103D800090911F02892380931F0210921A0281E0F2
:103D9000809307040895CF93DF93C82FD62F67FD34
:103DA000D0E8442329F04093620181E08093070426
:103DB000C13C09F48EC0B8F5C63BE0F4C13B08F045
:103DC000C0C0C33809F473C050F4C43008F40CC147
:103DD000C43708F45AC0C23809F461C005C1C438F8
:103DE00009F46FC089E68C0F893108F0FDC08C2F73
:103DF000CFDD00C1C83B09F4BBC050F4C63B09F499
:103E0000B1C0C73B09F0F0C0809104048150ADC03F
:103E1000C93B09F4B1C083E48C0F833008F0E4C0DF
:103E20008C2FE5DDE7C0CD3C09F4CEC0B0F4C83C32
:103E300009F461C048F4C33C09F44FC008F44BC016
:103E4000C73C09F44CC0D0C0CA3C09F4D3C008F444
:103E50005FC0CC3C09F4A5C0C7C0C03E50F4C03D13
:103E600008F09CC0CE3C09F460C0CF3C09F461C0AE
:103E7000BBC0C83E08F4B4C080E18C0F8A3008F0A3
:103E8000B3C06D2F8C2F2FDEB5C080910504882321
:103E900011F08C2FF6DD6D2F8C2F65DFABC080917C
:103EA000200281FDA7C060911F0289E307C08091B5
:103EB000200280FD9FC060911F0283E50E948D1645
:103EC00099C08091200282FD95C060911F0287E415
:103ED000F5CF23D48FC0FBD38DC0EBD38BC0909193
:103EE0001C0281E0892780931C02811102C086E1B7
:103EF0000BC086E118C090910C0481E08927809363
:103F00000C04811103C085E11DD374C085E10BC091
:103F10009091080481E0892780930804811102C0F0
:103F200085E0F2CF85E0EED265C082E08093890122
:103F300061C08091870181115DC081E0809387011C
:103F400059C0EFE4EC0FF0E0EE0FFF1FEC5DF74D12
:103F5000E49180910304E82BE093030481E08093D3
:103F6000530548C0809104048F5F8093040409C006
:103F700080913C02815003C080913C028F5F80930E
:103F80003C029091550580910904992321F090916C
:103F90005205981778F5809352052CC08C2F8EDD32
:103FA00029C09091050481E0892780930504882326
:103FB00021F01092730180E1B6CF809173018111DD
:103FC0008093640180E1A0CF80910504811112C02B
:103FD0006091640170E08DE392E00E94DA160AC0FD
:103FE0006D2F8C2F36DE06C06C2F70E040E084E42D
:103FF0000E945C17C0932102DF91CF9108950F9327
:104000001F93CF93DF93C82FD62F122F062F0F7732
:1040100067FDD0E8442329F01092620181E080938B
:104020000704C93B09F48CC008F03DC0C03BC0F494
:10403000C73908F078C0C23809F459C050F48CEF81
:104040008C0F803708F092C0412F6D2F8C2F8FDEA0
:1040500093C0C33809F453C0C43809F45AC086C0A9
:10406000C63B09F463C0A8F4C13B08F47FC0EFE489
:10407000EC0FF0E0EE0FFF1FEC5DF74DE491E095E3
:1040800080910304E823E093030481E080935305C7
:1040900073C0C73B09F44EC0C83B09F067C08091AC
:1040A0003C028F5F50C0CB3C70F4C73C08F064C04A
:1040B000CD3B08F45BC0C03CA0F18FE38C0F833094
:1040C00008F45AC053C0C83E38F4C03E08F03EC0A1
:1040D000CC3C08F051C04AC080E18C0F8A3008F017
:1040E00045C0212F402F6D2F8C2F3DDD45C0809185
:1040F000200281FF41C060911F0289E307C08091C7
:10410000200280FF39C060911F0283E50E948D1656
:1041100033C08091200282FF2FC060911F0287E48C
:10412000F5CF72DC29C08C2F4ADC26C080910404B4
:10413000815003C0809104048F5F809304041CC0ED
:1041400080913C02815080933C0216C0809105040E
:10415000882331F080912102C81302C080E091DCF5
:10416000212F402F6D2F8C2F91DD06C06C2F70E01A
:1041700040E085E40E945C1780911D02882341F095
:10418000C81731F020E040E060E0EDDC10921D0245
:10419000DF91CF911F910F91089590911F0292721C
:1041A00020916905222359F0911109C02091200224
:1041B00020FF05C022EE280F2A3008F4855C2091EC
:1041C0005C05222321F1833571F49091200281E076
:1041D00089278093200280FF03C080E093D11FC015
:1041E00080E0B0D11CC027EA280F2B3080F420914A
:1041F0002002E82FF0E0EE0FFF1F20FF05C0911115
:1042000003C0E75DF84D02C0E65DF84D84918A3C3D
:1042100039F4992311F085E3089589E2089580E047
:1042200008959F92AF92BF92CF92DF92EF92FF924A
:104230000F931F93CF93DF93D82EC62E7A01C62FEC
:10424000D0E08CE0D89E8001112480910A0490E98E
:10425000A92EF801A89EE00DF11D1124EC0FFD1F01
:10426000E755F24F849199DFB82E80910A04A80196
:10427000A89E400D511D11244C0F5D1FFA01E75FF0
:10428000F74FA490FA01E759FD4F9490F801E657D3
:10429000FE4FEC0FFD1FB082F801E059FC4FEC0F10
:1042A000FD1FA08202521D4FC00FD11F9882A7018F
:1042B0006C2D8D2DB4DB492D6A2D8B2D6CDD37D205
:1042C000DF91CF911F910F91FF90EF90DF90CF90F2
:1042D000BF90AF909F900C94F52A9F92AF92BF929F
:1042E000CF92DF92EF92FF920F931F93CF93DF93C2
:1042F0001F92CDB7DEB7E62FF0E09CE0899F9001DA
:104300001124D901A657BE4F7D01EE0EFF1ED70125
:10431000BC90890100591C4F0E0F1F1FD801AC9093
:1043200022523D4F6901CE0EDF1EF60190809E01A4
:104330002F5F3F4F8EDB2981492D6A2D8B2D5FDE4C
:10434000D7011C92F8011082D6011C920F90DF91C8
:10435000CF911F910F91FF90EF90DF90CF90BF9082
:10436000AF909F90089570E02CE0829FC0011124CF
:10437000FC01E059FC4FE60FF71F20812878283018
:1043800091F486579E4FFC01E60FF71F8081883617
:1043900020F460911F020C948D16982F907790371F
:1043A00011F4805A8BCB0895FC0180910C0481118B
:1043B0001DC080910604882339F081E080838183C9
:1043C00082838383848311C08091350280838091AE
:1043D0003602818380913702828380913802838301
:1043E00080913902848380913A02858308952091D7
:1043F0000C04211109C0A8E2B2E0FC018D91819367
:1044000082E0A533B807D1F70895FC0180910C0430
:10441000811106C080911F0290916201982B9083B8
:104420000895E62FF0E09CE0899FE00DF11D112436
:10443000E755F24FE491E83211F0E83539F441E004
:1044400060E070E081E50E945C172FC5089590E060
:104450009C01220F331F820F931FFC01E657FB4D77
:104460002491FC01319688579B4DE857FB4D261748
:1044700021F06491FC0184916EC96491FC018491E6
:104480007EC90F931F93CF93DF93E9EBF4E2D491AE
:1044900008E814E2C0E0CD1769F0F80131966491A4
:1044A000F801849134D960E08C2FD1DFCF5F0D5FAC
:1044B0001F4FF1CF8091600580931C0480931904F5
:1044C0008091570580931E0480915F0580931704A7
:1044D000DF91CF911F910F91089580911504893F2D
:1044E00069F4809122048F3E19F41092220403C0D3
:1044F0008F5F809322041092150408958F5F80933C
:104500001504089590E0880F991FFC01E65AFB4DB1
:10451000A491FC01E55AFB4D8491E8EBF4E2E491AF
:10452000AE1778F4B0E0A35FBB4F811103C08C914C
:10453000816006C09C919170E82FEE0F892F8E0F3D
:104540008C93089590E0880F991FFC01E65AFB4D6B
:10455000A491FC01E55AFB4D8491E8EBF4E2E4916F
:10456000AE1780F4B0E0A35FBB4F811104C08C9103
:104570008E7F8C9308959C91292F2695821302C0DB
:1045800091709C930895823049F0833071F08130AE
:10459000B9F481E1B7DF82E1D5DF0BC081E1D2DF81
:1045A00082E1D0DF83E1AEDF06C081E1CBDF82E1D3
:1045B000A9DF83E1C7DF84E1C5DF109221040895FC
:1045C00081E1C0DF82E1BEDF83E1BCDF84E19ADF0D
:1045D00081E0809321040895FF920F931F93CF935E
:1045E000DF93E8EBF4E2D4910DE014E0C0E0FF24A7
:1045F000F394CD1711F1809118048823B9F0F801D4
:104600002081322F3170822F8E7F71F0E22FE6955C
:10461000F0E0E35CF74D6491809122040E94DD316B
:10462000921710F490FD3F25632F01C060E08C2F9E
:104630000EDFCF5F0F5F1F4FDCCFDF91CF911F9158
:104640000F91FF90089580911C04803110F081E05B
:1046500002C08C5F8C7F80931C04089580911D04A0
:104660008F5F813118F480931D04089581E0809359
:104670001D0410921B0410922004089590911C04B4
:10468000903120F081E080931804089580911B04FC
:1046900020911D04929F902D1124891738F491E0E8
:1046A00090931804805F80931B040895109218045F
:1046B0000895E9E5F4E2E491809117048F5F8E1785
:1046C00018F48093170408951092170408958091A8
:1046D0001E048F5F843018F480931E0402C0109271
:1046E0001E0480911E04811103C080911C0403C02C
:1046F000813021F484E0809319040895823031F4EC
:1047000084E08093190410921A04089580E1809344
:10471000190481E080931A04089595DF80911E04A6
:10472000811104C080911C04809319040895809124
:104730001E04823011F488E10BC0833071F4809143
:104740001904853010F0845003C0882321F0815073
:1047500080931904089510921904089580911F04FC
:104760008F5F803318F480931F04089510921F0404
:1047700090911E049130B1F420911A048091190493
:10478000222341F08F5F809319048831E0F010926A
:104790001A0408958150809319048530A0F49093F1
:1047A0001A040895923031F480911904853058F03C
:1047B000815007C0933039F480911904803118F486
:1047C0008F5F80931904089580911904803120F03F
:1047D00081E080931604089590911D04899F802D97
:1047E000112490911A049111807F909120049817C0
:1047F00038F481E080931604905F9093200408952C
:104800001092160408951F93CF93DF93E9EBF4E21F
:104810001491C0E0D0E08C2FC11700F5FE01E75BDA
:10482000FB4DE491EE23C1F090912104992391F086
:1048300090911604992371F090911704FE0120E1E4
:10484000929FE00DF11D1124E75BFC4DE49161E0C6
:10485000E11101C060E0FBDD2196DDCFDF91CF915A
:104860001F910895FBDE0ADF38DEB6DE77DFACDFAE
:10487000CACF1F920F920FB60F9211240F900FBE46
:104880000F901F901895E4E6F0E08081807180839E
:10489000A5E6B0E08C9186778C93808181608083DF
:1048A0008081846080838081806280838081806455
:1048B00080838C9188608C938081806880838081E4
:1048C000826080838C9181608C938C918F778C93A4
:1048D00090E080E80FB6F8948093610090936100B7
:1048E0000FBE0895D0CF8DEA9EED90937905809309
:1048F000780508959CE088E10FB6F894A895809318
:1049000060000FBE90936000E0E6F0E0808180647C
:1049100080837894089580E189BD82E189BD09B4DE
:1049200000FEFDCF8091D8008F7D8093D8008091CC
:10493000E00082608093E0008091E00081FDFCCF88
:104940000895CF93DF93262F642F9CE0299FE001E9
:104950001124C40FD11DCC0FDD1FC25DDB4F488178
:104960005981882301F157FF0EC080916A0590E0BC
:10497000919581959109841795077CF1822F51DCDF
:1049800084E090E020C0809166059091670548170B
:10499000590794F0822FE7DC20915805888199818E
:1049A000821B910910C01416150684F480916A05C3
:1049B00090E0481759071CF44C5F5F4F10C0822FDE
:1049C0008CDC8CEF9FEF998388830BC080915D0511
:1049D00090915E058417950724F44450510959833A
:1049E0004883DF91CF9108950F931F93CF93DF9367
:1049F000082F862F642FC42FD0E09CE0899FC00D24
:104A0000D11D1124CC0FDD1FC25DDB4F5981011177
:104A100013C057FD2AC08881952F937020915D05A2
:104A200030915E053195219531098217930708F47D
:104A300004969983888338C057FF17C00881152FC3
:104A4000137020916605309167050217130730F047
:104A50008ADC80915805081B110902C00C5F1F4FAA
:104A600019830883898180681EC0152F16951695B5
:104A70001F711C5F90916A05191778F04881537077
:104A8000002311F0CEDB01C028DC812F90E0998358
:104A90008883898100FB87F906C01F71110F110FF0
:104AA0005378852F812B8983DF91CF911F910F91AF
:104AB0000895CF92DF92EF92FF921F93CF93DF93EF
:104AC000EBE1F5E2E491E0932304EAE1F5E2E4911D
:104AD000E0932904E9E1F5E2E491E0932C04E8E1B4
:104AE000F5E2E491E0932D048EE0E82E85E2F82EC5
:104AF00094E2C92E94E0D92ED0E0F7011491809170
:104B0000290481111FEFF7013196C4914C2F612FB9
:104B10008D2F0E949B1BEC2FE095D601ED936D012C
:104B20004E2F412380912904642F6095811101C08B
:104B300040E08D2F0E94D41BDF5FB2E0EB0EF11C32
:104B4000D530D9F680915605882371F084EF94E230
:104B500090932B0480932A0480916A05813250F04F
:104B600080E280936A0506C081EA94E290932B0468
:104B700080932A04DF91CF911F91FF90EF90DF90F7
:104B8000CF900895CF92DF92EF92FF920F931F93F1
:104B9000CF93DF93C0E080912C04C81708F050C079
:104BA00084E2E82E84E0F82EF5E0CF9F6001112426
:104BB00000E010E0F801EC0DFD1DEE52FB4D4491BC
:104BC000F70161917F01802F0E94D41B0F5F1F4F5F
:104BD0000530110579F7809164058A95F1F7D0E0E9
:104BE00080912D04D81750F5209129048D2F90E045
:104BF000880F991FFC01E554FB4D222351F064916D
:104C0000FC01E654FB4D84910E94E31B882351F084
:104C100013C06491FC01E654FB4D84910E94E31B98
:104C2000882351F080912304882319F06C2F8D2F55
:104C300002C06D2F8C2FF5DBDF5FD2CFCF5FABCF04
:104C4000DF91CF911F910F91FF90EF90DF90CF9068
:104C50000895AF92BF92CF92DF92FF920F931F936E
:104C6000CF93DF93F62EC82FCF1508F05AC084E2F9
:104C7000C82E84E0D82EF5E0CF9F5001112400E02B
:104C800010E0F60161916F016F3F49F0F801EA0D04
:104C9000FB1DEE52FB4D4491802F0E94D41B0F5FF1
:104CA0001F4F0530110569F7809164058A95F1F76A
:104CB000D0E080912D04D81790F5209129048D2FF4
:104CC00090E0880F991FFC01E554FB4D222359F019
:104CD0006491FC01E654FB4D84910E94E31B91E03A
:104CE000882361F00AC06491FC01E654FB4D849175
:104CF0000E94E31B91E0811101C090E080912304A8
:104D0000E0912A04F0912B04882319F04C2F6D2F89
:104D100002C04D2F6C2F892F0995DF5FCACFCF5F5F
:104D2000A3CFDF91CF911F910F91FF90DF90CF9094
:104D3000BF90AF90089560912C046695669580E0D1
:104D400088CF80912C04682F70E0759567958695C3
:104D500086957FCF80912C0493E0899FB001112428
:104D60007595679575956795869573CF60912C04B9
:104D700023E0629FC00111249595879595958795AD
:104D800068CF81E080935105089520915105AC01D1
:104D9000249FC001259F900D11246AE070E00E94BD
:104DA000E93180915005562F581B852F609350058F
:104DB0002F5F209351052B3028F01092500591E081
:104DC000909351050895CF9380910404811104C0FC
:104DD00080913C02882321F1C1E0C0935505809168
:104DE0005305811160C08091520590916105209119
:104DF0005A05899FC0011124820F911DC6DF909131
:104E00000404989F902D112490934F0590913C029B
:104E1000989F802D112480934E05C093530543C065
:104E200080911C02882369F180915405813079F0CA
:104E300018F08230C1F021C080915305811133C038
:104E400010924F0581E0809353058FEF17C090912A
:104E50005305911128C09FEF90934F058093530500
:104E60001092540520C08091530581111CC081E02F
:104E700080934F058093530501C081508093540562
:104E800012C080915505882319F081E08093530565
:104E9000109255051092500510924F0510924E0534
:104EA0008AE080935105CF910895CF93DF93CDB7DA
:104EB000DEB765970FB6F894DEBF0FBECDBF51E2E7
:104EC00050935B0510926505109269051092590583
:104ED00040E140936005109268053CE030936A051C
:104EE00010925C0510925F0580EF90E0909363054F
:104EF0008093620588E89FEF90935E0580935D053F
:104F000085E080935A052FE02093610560E273E00D
:104F1000709367056093660590E2909358058093BF
:104F20006405109256051092570559831A821B8208
:104F30001C824D831E823F831886198630EF3A8784
:104F40001B8638E83C873FEF3D878E872F87988BFD
:104F500023E0298B9A8B8B8B1C8A1D8A45E150E0BC
:104F600060E070E0CE0101960E942D3265960FB68A
:104F7000F894DEBF0FBECDBFDF91CF9108950F93A0
:104F80001F93CF93DF93CAE4D8E2FE013296849157
:104F90003196E49190E0E23059F4FE0105911491CC
:104FA000805090400E942832F8019183808309C08C
:104FB000FE0105911491805090400E942032F8012A
:104FC00080832496F8E2C239DF07F9F660915B0529
:104FD000613251F070E041E080E50E945C17DF91A2
:104FE000CF911F910F9161CFDF91CF911F910F91C1
:104FF000089524E0829FC0011124FC01E45BF74D79
:105000002491FC01E35BF74D3491FC01E65BF74D25
:10501000822F90E0323041F4A591B4916D917C9152
:10502000805090400C944432A591B4916C91805082
:1050300090400C94363213BC109280001092820083
:1050400080E89EE3909389008093880008951092F1
:105050006B05109285001092840081E0809381009E
:1050600082E080936F009AE088E10FB6F894A895EB
:10507000809360000FBE90936000E0E6F0E08081D6
:105080008064808308950FB6F894A895809160009D
:10509000886180936000109260000FBE10926F00D4
:1050A00010928100089510926C0580916C058430F7
:1050B000D0F480916B05E0916C05F0E094E0899F5D
:1050C000E00DF11D1124EE0FFF1FE45EFA4D8591F6
:1050D0009491009711F0FC01099580916C058F5F08
:1050E00080936C05E2CF08951092850010928400A1
:1050F000DADF80916B058F5F80936B05843010F051
:1051000010926B05A89508951F920F920FB60F92FB
:1051100011242F933F934F935F936F937F938F93BC
:105120009F93AF93BF93EF93FF93DEDFFF91EF91D8
:10513000BF91AF919F918F917F916F915F914F91AF
:105140003F912F910F900FBE0F901F901895292F10
:10515000332723303105D9F070F42130310591F037
:105160002230310509F04CC0E4EEF8E285919491CB
:1051700062EE78E249C021323105B9F022323105C0
:10518000E9F03EC082E190E06FE479E23DC099270A
:10519000009729F00197A1F5E2E9F8E202C0EEEDEF
:1051A000F8E2849190E0BF012FC081EE689FB001CA
:1051B00011246C50774D89E090E026C0662389F079
:1051C00080911001681791F080910001681799F0A3
:1051D00080912001681314C08AE390E063E979E2CA
:1051E00013C080E490E064EF79E20EC082E390E0C7
:1051F00061E679E209C087E290E06DEC79E204C0F3
:1052000080E090E060E070E0FA01718360830895CF
:1052100081E0B9C90895CF9380E391E0C7D7C82F43
:1052200080911001882321F080E191E0BFD7C8234D
:1052300080910001882321F080E091E0B7D7C82356
:1052400080912001882321F080E291E0AFD7C8232C
:10525000CC2311F080E001C083E095D98091E20079
:1052600084608093E200CF91089580E391E06BD653
:1052700080911001882319F080E191E064D680913B
:105280000001882319F080E091E05DD68091200133
:10529000882319F080E291E056C6089580913E017E
:1052A00090913F01009729F0019790933F018093DF
:1052B0003E0180911001882359F080911E01909148
:1052C0001F01009729F0019790931F0180931E0101
:1052D00080910001882359F080910E0190910F0177
:1052E000009729F0019790930F0180930E01809110
:1052F0002001882359F080912E0190912F01009771
:1053000029F0019790932F0180932E01089582E058
:105310003AC980E038C9FDCF0F931F93CF93DF9335
:10532000E901F801DC019C912091000191112EC04E
:10533000222381F020916001220F80916805811164
:1053400004C019969C91892F02C080E090E0820FE2
:105350008093600188E090E0918380838091600178
:1053600080FD0DC0CE0151D8CE0102961DD890917E
:10537000020480910704892B21F480E065C081FD3F
:10538000FCCF10920204109207045DC0921311C06A
:105390008EE090E0918380838091600180FF06C061
:1053A000CE0133D8CE01019622D8E1CF81FDE9CFDD
:1053B000E4CF80912001981314C080910304888366
:1053C00080914F05898380914E058A8383E090E028
:1053D0009183808380915305882379F2109253053D
:1053E00032C081E090E0DB012C91233011F080E0AD
:1053F00090E020910004822B892B91F080910B0486
:10540000888381E090E09183808383E0FB01808347
:1054100080910004882309F4B0CF1092000413C0D7
:1054200080916E0390916F039983888382E090E06E
:1054300091838083DB018C9380910104882309F49C
:105440009CCF1092010481E0DF91CF911F910F91C9
:105450000895CF938053914009F077C0F90180817E
:1054600080932002C0915F01C82780935F01CC2305
:1054700009F46BC090915C0591110FC0C0FF0DC085
:1054800080FF06C080E03ED880E00E94A91D05C0D4
:1054900080E058D880E00E941D1EC1FF0FC080919F
:1054A000200281FF06C081E02DD881E00E94A91D65
:1054B00005C081E047D881E00E941D1EC2FF20C0C8
:1054C0008091200282FF0FC082E01CD882E00E94FF
:1054D000A91D80916505882399F081E080930804D7
:1054E00085E010D80DC082E02DD882E00E941D1EFC
:1054F00080916505882321F01092080485E022D868
:10550000C3FF10C08091200283FF07C083E00E9488
:10551000822283E00E94A91D05C083E013D883E0A6
:105520000E941D1EC4FF11C08091200284FF07C08D
:1055300084E00E94822284E0CF910C94A91D84E033
:1055400001D884E0CF910C941D1ECF910895E4E31F
:10555000FAE2E491E1FF08C081E08093100182E863
:105560008093110181E001C080E0E2FF09C091E079
:10557000980F909300018E5F806880930101892FBE
:10558000E3FF08C091E0980F909320018E5F806840
:10559000809321010895F89480E391E01AD68091D8
:1055A0001001882319F080E191E013D68091000169
:1055B000882319F080E091E00CD6809120018823A7
:1055C00019F080E291E005D67894A4D49BB580913F
:1055D0005E01981749F06BB570E041E086EA0E94E1
:1055E0005C178BB580935E01089580916E058823CA
:1055F00021F08BB5853009F48EC90895CF92DF92E2
:10560000EF92FF920F931F93CF93DF93EC018B01E7
:105610007A01C6D1811133C0E114F10439F0F701E8
:1056200080819181081B190BC80FD91FC12CD12C67
:105630000115110519F18091E80085FD16C08091D2
:10564000E8008E778093E80065D4E114F10449F016
:10565000F70180819181C80ED91ED182C08285E078
:105660000EC09ED1882321F30AC089918093F10056
:1056700001501109FFEFCF1ADF0ADACF80E0DF9186
:10568000CF911F910F91FF90EF90DF90CF900895F1
:1056900020917605309177052617370748F0611578
:1056A000710539F42091E8002E772093E80001C0BD
:1056B000B901FC0120E06115710571F18BB58823FA
:1056C000E9F18530E9F18091E80083FD3BC08091EC
:1056D000E80082FD2DC08091E80080FFECCF209192
:1056E000F3008091F20090E0922B6115710551F06A
:1056F0008830910538F421912093F10061507109AF
:105700000196F3CF21E0089709F020E08091E800AE
:105710008E778093E800CFCF2111D0CF09C08BB511
:10572000882361F0853061F08091E80083FD0AC034
:105730008091E80082FFF3CF80E0089582E0089531
:1057400083E0089581E008956115710529F42091A1
:10575000E8002B772093E800FC016115710531F119
:105760008BB5882359F1853059F18091E80083FD8C
:1057700023C08091E80082FFF0CF2091F300809158
:10578000F20090E0922B892B31F08091F10081930F
:105790006150710991F78091E8008B778093E80060
:1057A000DCCF8BB5882351F0853051F08091E80033
:1057B00080FFF7CF80E0089581E0089582E00895AA
:1057C00083E00895209176053091770526173707F5
:1057D00048F06115710539F42091E8002E77209387
:1057E000E80001C0B901FC0120E06115710589F1F3
:1057F0008BB5882309F43FC0853009F43EC0809101
:10580000E80083FD3CC08091E80082FD2EC08091BD
:10581000E80080FFEACF2091F3008091F20090E051
:10582000922B6115710559F08830910540F424914F
:105830002093F1003196615071090196F2CF21E079
:10584000089709F020E08091E8008E778093E800C7
:10585000CCCF2111CDCF09C08BB5882361F0853025
:1058600061F08091E80083FD0AC08091E80082FF2A
:10587000F3CF80E0089582E0089583E0089581E009
:105880000895982F973068F59093E900981739F0AC
:105890007091EC002091ED005091F00003C0242F96
:1058A000762F50E021FD02C09F5FECCF3091EB00DE
:1058B0003E7F3093EB003091ED003D7F3093ED0063
:1058C0003091EB0031603093EB007093EC0020934B
:1058D000ED005093F0002091EE0027FDE5CF80E031
:1058E00008958F708093E90081E008950F931F93CE
:1058F000CF93DF93062FEC0110E0101771F1688150
:10590000611103C01F5F2596F8CF2C81A981BA8150
:105910009B81862F8F70873010F080E01FC022306F
:1059200010F442E001C046E0E8E0F0E020E0EA17D1
:10593000FB0720F42F5FEE0FFF1FF9CF2295207F8A
:10594000422B50E4959F90011124661F6627661F25
:10595000622B97DF8111D6CFE0CF81E0DF91CF912D
:105960001F910F9108958091700587FF0FC080915E
:10597000E80082FD04C08BB58111F9CF10C0809181
:10598000E8008B770AC08BB5882349F08091E80046
:1059900080FFF9CF8091E8008E778093E80008952A
:1059A0002091E4003091E50095E64091EC00842FD1
:1059B000817040FF22C08091E80080FD1CC08BB543
:1059C000882399F0853099F08091EB0085FD11C016
:1059D0004091E4005091E5002417350731F39150D0
:1059E00011F09A01E2CF84E0089582E0089583E007
:1059F000089581E0089580E008954091E80042FF15
:105A0000DECF089564D06BD0E0EEF0E0808181605D
:105A10008083E8EDF0E080818F77808319BCA7ED6B
:105A2000B0E08C918E7F8C9380818F7E80831092EA
:105A30006F0508950F931F93CF93DF9348D04FD0F6
:105A4000C8EDD0E088818F778883888180688883DB
:105A500088818F7D888319BC1BBC10926D051092C4
:105A60006E0500EE10E0F80180818B7F80838881D5
:105A70008160888342E060E080E003DFE1EEF0E0F7
:105A800080818E7F8083E2EEF0E080818160808380
:105A9000808188608083F80180818E7F8083888107
:105AA00080618883DF91CF911F910F910895E8ED78
:105AB000F0E080818F7E8083E7EDF0E0808181607F
:105AC000808384E082BF81E080936F05B3CFE8EDEF
:105AD000F0E080818E7F80831092E2000895109222
:105AE000DA001092E10008951F920F920FB60F9204
:105AF00011242F933F934F935F936F937F938F93D3
:105B00009F93AF93BF93EF93FF938091E10082FF48
:105B10000AC08091E20082FF06C08091E1008B7F85
:105B20008093E100BBDB8091DA0080FF1BC0809195
:105B3000D80080FF17C08091DA008E7F8093DA0052
:105B40008091D90080FF0BC080E189BD82E189BDD1
:105B500009B400FEFDCF81E08BBD5ADB03C019BC48
:105B60001BBC58DB8091E10080FF17C08091E200F0
:105B700080FF13C08091E2008E7F8093E2008091CD
:105B8000E20080618093E2008091D800806280937F
:105B9000D80019BC85E08BBDBADB8091E10084FFA1
:105BA0002EC08091E20084FF2AC080E189BD82E19D
:105BB00089BD09B400FEFDCF8091D8008F7D809310
:105BC000D8008091E1008F7E8093E1008091E20017
:105BD0008F7E8093E2008091E20081608093E200FA
:105BE00080916D05882311F084E007C08091E30067
:105BF00087FD02C081E001C083E08BBD8ADB80911C
:105C0000E10083FF21C08091E20083FF1DC08091ED
:105C1000E100877F8093E10082E08BBD10926D05EB
:105C20008091E1008E7F8093E1008091E2008E7F81
:105C30008093E2008091E20080618093E20042E084
:105C400060E080E01EDE67DBFF91EF91BF91AF91D6
:105C50009F918F917F916F915F914F913F912F9184
:105C60000F900FBE0F901F9018951F93CF93DF9347
:105C7000CDB7DEB7AA970FB6F894DEBF0FBECDBF83
:105C8000E0E7F5E08091F100819325E0E837F20745
:105C9000C9F7EBDA8091E80083FF24C18091700599
:105CA00090917105492F50E04A30510508F01AC112
:105CB000FA01E855FF4FA1C3803821F0823809F07E
:105CC00011C106C080916E05882391F082E011C059
:105CD000809174058F70873008F004C18093E900CB
:105CE0008091EB0085FB882780F91092E90001C0C4
:105CF00080E09091E800977F9093E8008093F10016
:105D00001092F100CBC0282F2D7F09F0EBC0882323
:105D100019F0823061F0E6C080917205813009F09F
:105D2000E1C0933009F080E080936E052EC0809131
:105D3000720581112AC0809174058F702FEF280F92
:105D4000263008F0CFC08093E9002091EB0020FFBF
:105D50001CC0933021F48091EB00806214C09091BC
:105D6000EB0090619093EB0021E030E0A90102C0CC
:105D7000440F551F8A95E2F74093EA001092EA001B
:105D80008091EB0088608093EB001092E900809195
:105D9000E800877F8093E800E6DDA4C08111A2C0FF
:105DA000109172051F778091E3008078812B80939A
:105DB000E3008091E800877F8093E800D4DD809144
:105DC000E80080FFFCCF8091E30080688093E300CF
:105DD000111102C082E001C083E08BBD83C08058F6
:105DE000823008F07FC080917205909173058C3DE0
:105DF00053E0950771F583E08A838AE289834FB780
:105E0000F894DE01139620E03EE051E2E32FF0E04B
:105E100050935700E49120FF03C0E295EF703F5F7D
:105E2000EF708E2F90E0EA3010F0C79601C0C09658
:105E30008D939D932F5F243149F74FBF8091E800E8
:105E4000877F8093E8006AE270E0CE01019620DC53
:105E500014C06091740570917505AE014F5F5F4F7E
:105E600076D9BC01892B09F43DC09091E800977F59
:105E70009093E80089819A81A5DC8091E8008B7776
:105E80008093E8002FC0803869F58091E800877F13
:105E90008093E80080916D058093F1008091E80087
:105EA0008E7778CF81111EC0809172059091730515
:105EB00099270297BCF48091E800877F8093E800DF
:105EC0008091720580936D054EDD80916D05811185
:105ED00006C08091E30087FD02C081E001C084E03C
:105EE0008BBD99D98091E80083FF0AC08091E800BA
:105EF000877F8093E8008091EB0080628093EB00C5
:105F0000AA960FB6F894DEBF0FBECDBFDF91CF913A
:105F10001F910895CF938BB5882399F0C091E90024
:105F2000CF709091EC00892F817090FD80E8C82B94
:105F30001092E9008091E80083FD97DECF70C09356
:105F4000E900CF9108956F927F928F929F92AF92C6
:105F5000BF92CF92DF92EF92FF920F931F93CF9356
:105F6000DF9300D01F92CDB7DEB77C01ADB6BEB6D1
:105F70008091E80083FF03C1F701808190E02091C8
:105F80007405309175052817390709F0F8C080911C
:105F90007105833009F49AC030F4813071F0823099
:105FA00009F4D1C0ECC08A3009F4B5C08B3009F4D3
:105FB0009EC0893009F0E3C04CC080917005813AE1
:105FC00009F0DDC08DB69EB61A82198280917205E5
:105FD000109173058B83F7018085482F50E08DB7B2
:105FE0009EB7841B950B0FB6F8949EBF0FBE8DBF56
:105FF000EDB7FEB731966F0160E070E0CF0119D2C6
:106000004FEF410F8E010F5F1F4F9601BE016D5F75
:106010007F4FC70181D9F70186819781009721F0D1
:10602000408550E0B601FCD11092E9008091E80073
:10603000877F8093E8008B8181118093F1006981D3
:106040007A81C60125DB8091E8008B778093E80098
:1060500037C080917005813209F091C08DB69EB62F
:106060000091760510917705709072056090730528
:106070008DB79EB7801B910B0FB6F8949EBF0FBED5
:106080008DBFEDB7FEB731966F018091E800877F35
:106090008093E800B801CF0157DB8091E8008E774C
:1060A0008093E80021E0711001C020E030E0021B85
:1060B000130B2C0D3D1D4FEF460D672DC701C9D9A0
:1060C0000FB6F8949EBE0FBE8DBE59C0809170056C
:1060D000813A09F054C08091E800877F8093E800FE
:1060E0008091E80080FFFCCFF701818540C080915E
:1060F0007005813209F043C08091E800877F80936A
:10610000E80031DC9091720581E0911101C080E0DE
:10611000F701818734C080917005813281F58091CB
:10612000E800877F8093E8001EDC809172059091E3
:106130007305882736E0969587953A95E1F7F7013C
:10614000958784871CC080917005813AC1F4809145
:10615000E800877F8093E8008091E80080FFFCCF13
:10616000F701848595859695879596958795809373
:10617000F1008091E8008E778093E800F4DB0FB6A1
:10618000F894BEBE0FBEADBE0F900F900F90DF9182
:10619000CF911F910F91FF90EF90DF90CF90BF9024
:1061A000AF909F908F907F906F900895FC013996EB
:1061B00027E0DF011D922A95E9F721E0FC01218704
:1061C00024EF31E03587248723E0248361E00196C2
:1061D0008DCB5F926F927F928F929F92AF92BF9280
:1061E000CF92DF92EF92FF920F931F93CF93DF93A3
:1061F00000D01F92CDB7DEB77C01ADB6BEB68BB571
:10620000843009F086C08091E4009091E500F701A8
:10621000228533852817390709F47BC081818F7067
:106220008093E9008091E80085FF73C08DB69EB62B
:10623000408550E08DB79EB7841B950B0FB6F89440
:106240009EBF0FBE8DBFEDB7FEB731966F011B82AB
:106250001A82198260E070E0CF01EBD08E010F5FEF
:106260001F4F960140E0BE016D5F7F4FC70154D8BC
:10627000582EF70184859585892B29F011E08685B4
:106280009785892B09F010E0F7016680778061140B
:10629000710481F049815A81B301C601B4D001E093
:1062A000892B09F400E0F701408550E0B601C301F5
:1062B000B7D001C000E089819A81892BF1F051109B
:1062C00004C0011102C010FF18C0F7018485958534
:1062D0009787868781818F708093E9008B818111F8
:1062E0008093F10069817A8140E050E0C60186D94F
:1062F0008091E8008E778093E8008091E40090918F
:10630000E500F701938782870FB6F8949EBE0FBE13
:106310008DBE0FB6F894BEBE0FBEADBE0F900F90EF
:106320000F90DF91CF911F910F91FF90EF90DF9031
:10633000CF90BF90AF909F908F907F906F905F9025
:1063400008950895FEDF0E9472240E945B170E9448
:10635000BF270E9459250E9441220E940A1D0E94C7
:10636000C1260E9461150E941B28F1D80E94C225F7
:106370009EDB78948BB5843010F40DD9FBCF0E944E
:10638000272880918901811102C005D9FACF0E9486
:10639000432838DBF8942FEF87EA91E621508040BC
:1063A0009040E1F700C0000080918901823011F433
:1063B0000E9473240E947A24FFCF991B79E004C0C5
:1063C000991F961708F0961B881F7A95C9F7809534
:1063D0000895AA1BBB1B51E107C0AA1FBB1FA6172C
:1063E000B70710F0A61BB70B881F991F5A95A9F77E
:1063F00080959095BC01CD010895EE0FFF1F05908B
:10640000F491E02D0994FB01DC0104C08D91019011
:10641000801921F441505040C8F7881B990B08950A
:10642000FB01DC0102C001900D9241505040D8F7B1
:106430000895DC0101C06D9341505040E0F708958C
:10644000F999FECF92BD81BDF89A992780B508953C
:10645000A8E1B0E042E050E01CC0DC01CB0102C08A
:106460002D9105D041505040D8F70895262FF99925
:10647000FECF1FBA92BD81BD20BD0FB6F894FA9A27
:10648000F99A0FBE01960895F1DF272FF0CFDC01B6
:10649000CB01FC01F999FECF06C0F2BDE1BDF89A2F
:1064A000319600B40D9241505040B8F70895F894D9
:0264B000FFCF1C
:1064B20000830E00000100000E000000000000003A
:1064C2000082030000010000020000000000000042
:1064D200008403000001000003000000000000002F
:1064E2000081080000010000080000000000000018
:1064F2002400250023002700280026002A002B0064
:0E65020029002D002E002C00300031002F004B
:00000001FF
