:100000000C94C8170C9405180C9405180C9405183A
:100010000C9405180C9405180C9405180C940518EC
:100020000C9405180C9405180C9405180C942831A0
:100030000C9405180C942B260C9405180C945E2C2B
:100040000C9405180C9405180C9405180C940518BC
:100050000C9405180C9405180C9405180C940518AC
:100060000C9405180C9405180C9405180C9405189C
:100070000C940518EE1DB01AB61AD21AD81AEC1D37
:10008000EC1DB71BBD1BEC1DEC1DEC1DEC1DEC1D90
:10009000EC1D971CAD1DD21DB41CD01CEF1C141DF3
:1000A0002D1D521D721D8B1DF3311632FD3216327D
:1000B000FD325B327D32FD32CF32E1320000000092
:1000C0000000000000000000000000002A002B00DB
:1000D00028000000000028000000000000000000D0
:1000E0000000000000000000000000000000000010
:1000F0000000290000000000000000002C001E028B
:1001000034022002210222022402340026022702A5
:1001100025022E0236002D003700380027001E0071
:100120001F002000210022002300240025002600BB
:100130003302330036022E00370238021F02040257
:10014000050206020702080209020A020B020C025B
:100150000D020E020F02100211021202130214020B
:10016000150216021702180219021A021B021C02BB
:100170001D022F003100300023022D023500040043
:10018000050006000700080009000A000B000C002B
:100190000D000E000F0010001100120013001400DB
:1001A000150016001700180019001A001B001C008B
:1001B0001D002F023102300235024C000000000009
:1001C000000000000000000000000000000000002F
:1001D000000000000000000000000000000000001F
:1001E000000000000000000000000000000000000F
:1001F00000000000000000000000000000000000FF
:1022C00000FF00FF00FF00FF00FF00000000000013
:1022D00000000000000000000000000000000000FE
:1022E00000000000000000000000000000000000EE
:1022F0000000000000000000000000080C000000CA
:1023000000000000000000000000000000000000CD
:1023100000000000000000000000000000000000BD
:1023200000000000000000000000000000000000AD
:10233000000000000000000000000000000000009D
:10234000000000000000000000000000000000008D
:10235000000000000000000000000000000000007D
:10236000000000000000000000000000000000006D
:10237000000000000000000000000000000000005D
:102380000000000000000000000001010101140035
:10239000000000000000000000000000000000003D
:1023A000000000000000000000000000000000002D
:1023B0000000000000000000010101011400000005
:1023C000000000000000000000000000000000000D
:1023D00000000000000000000000000000000000FD
:1023E00000000000000001010101140000000000D5
:1023F00000000000000000000000000000000000DD
:1024000000000000000000000000000000000000CC
:10241000000000000101010114882EC528272600B4
:1024200000CB28C52B13292726882ED42827260041
:1024300000E528A519981A27264F7574206F662085
:1024400072616E67652E0A00456E746572206E6556
:10245000772064656661756C742064696D6D657262
:10246000206C6576656C2028312D3136293E2000A0
:10247000456E746572206E65772064656661756C63
:1024800074206261636B6C6967687420656E616259
:102490006C652028312D31293E2000456E7465720F
:1024A000206E6577206D617472697820736574752C
:1024B00070207761697420696E206379636C65733D
:1024C0002028312D323535293E2000456E74657245
:1024D000206E6577207265706561742074696D6522
:1024E00020696E206D732028312D3939293E200056
:1024F000456E746572206E657720686F6C64207419
:10250000696D6520696E206D732028312D39393948
:10251000293E2000456E746572206E6577206D6FD0
:10252000757365206D6F76656D656E74206D756C65
:102530007469706C6965722028312D3939293E2003
:1025400000456E746572206E657720626173652048
:102550006D6F757365206D6F76656D656E7420287F
:10256000312D3939293E2000456E746572206E6523
:102570007720646F75626C657461702064656C614E
:10258000792074696D6520696E206D732028312D66
:10259000393939293E2000456E746572206E6577A1
:1025A000207461702074696D6520696E206D7320E0
:1025B00028312D393939293E2000456E7465722045
:1025C0006E6577206465626F756E63652074696DF2
:1025D0006520696E206D732028312D3939293E2000
:1025E000005365743A00456E746572206E657720FD
:1025F00064656661756C74206C6179657220283041
:102600002D39293E20005573696E67206465666127
:10261000756C7420226861697220747269676765DD
:102620007222206465626F756E636520616C676FEE
:10263000726974686D20616E64207265736574746C
:10264000696E67206465626F756E63652074696D7D
:10265000652E0A005573696E6720616C7465726E31
:102660006174652022636F6E6669726D22206465F5
:10267000626F756E636520616C676F726974686DF7
:1026800020616E6420726573657474696E6720647E
:1026900065626F756E63652074696D652E0A004E04
:1026A000756D206C6F636B206973206C696E6B6550
:1026B0006420746F207468652073797374656D206D
:1026C0006E756D206C6F636B2E0A004E756D206CFD
:1026D0006F636B2077696C6C2066756E6374696FCD
:1026E0006E20696E646570656E64656E746C7920C9
:1026F0006F66207468652073797374656D206E75DC
:102700006D206C6F636B2E0A004B6579626F61728E
:10271000643A204E4B524F2C206D656469612F70D6
:102720006F776572206B6579733A205945532C2079
:102730006D6F7573653A205945532E0A004B6579C4
:10274000626F6172643A204E4B524F2C206D65646B
:1027500069612F706F776572206B6579733A2059C4
:1027600045532C206D6F7573653A204E4F2E0A002D
:102770004B6579626F6172643A20364B524F2C2060
:102780006D656469612F706F776572206B65797311
:102790003A205945532C206D6F7573653A20594581
:1027A000532E0A004B6579626F6172642069732051
:1027B0006C696D6974656420746F207374616E64F4
:1027C00061726420364B524F20626F6F742D636FBD
:1027D0006D70617469626C65206B6579626F61729E
:1027E00064206F6E6C792E0A005363726F6C6C20DC
:1027F0006C6F636B2077696C6C206E6F7420616600
:10280000666563742077696E206C6F636B2E0A00B7
:1028100057696E646F7773206B65792077696C6C8C
:102820002062652064697361626C65642077686505
:102830006E207363726F6C6C206C6F636B206973B6
:1028400020656E61626C65642E0A004E756D206CA9
:102850006F636B2077696C6C206E6F7420616666A5
:10286000656374206E756D62657220726F772E0AD3
:10287000004E756D62657220726F772077696C6C9F
:10288000206265207377617070656420666F7220C6
:102890006E756D706164206B657973207768656E05
:1028A000206E756D206C6F636B20697320656E619F
:1028B000626C65642E0A00496E707574206E6F74C8
:1028C000207265636F676E697A65642E0A000A5428
:1028D000696D696E67204D656E753A0A312920531E
:1028E0006574206465626F756E63652074696D65DB
:1028F0000A322920536574206D617820686F6C64FA
:102900002074696D6520666F72207461700A3329C6
:1029100020536574206D61782064656C6179207442
:10292000696D6520666F7220646F75626C652074D6
:1029300061700A3429205365742062617365206DCB
:102940006F757365206D6F76656D656E740A3529D8
:1029500020536574206D6F757365206D6F76656D9E
:10296000656E74206D756C7469706C6965720A3679
:102970002920536574206D696E20686F6C64207423
:10298000696D6520666F72207265706561740A37C3
:1029900029205365742072657065617420706572BA
:1029A000696F640A382920536574206D61747269F7
:1029B0007820736574757020776169740A392920ED
:1029C0004261636B0A3E20000A436F6E66696720AE
:1029D0004D656E753A0A312920546F67676C652022
:1029E0007669727475616C206E756D207061640A11
:1029F000322920546F67676C652077696E206C6F91
:102A0000636B206F6E207363726F6C6C206C6F63EE
:102A10006B0A3329205365742064656661756C7494
:102A2000206C617965720A342920546F67676C6580
:102A3000206B6579626F617264206665617475727E
:102A400065730A352920546F67676C6520756E6C55
:102A5000696E6B206E756D206C6F636B0A36292072
:102A60005365742064656661756C742064696D6D6E
:102A70006572206C6576656C0A3729205365742071
:102A800064656661756C74206261636B6C6967680C
:102A90007420656E61626C650A382920546F67671F
:102AA0006C65206465626F756E6365207374796C04
:102AB000650A3929204261636B0A3E20000A4D6194
:102AC000696E204D656E753A0A312920436F6E6636
:102AD0006967206D656E750A32292054696D696ECB
:102AE00067206D656E750A34292052657365740A16
:102AF000392920517569740A3E20001E4D1F51204E
:102B00004E21502200234F244A2552264B27493775
:102B10004CB500B600B700CD006F007000E200E5D4
:102B200000E900EA00520153015401550183018A72
:102B30000192019401210223022402250226022788
:102B4000022A02B101B202B304B408B510E001E1F7
:102B500002E204E308E410E520E640E7800105080E
:102B60000A0C0F10141418180038E5030001EE03C6
:102B70000101F2030201E3030301E9030401F1038C
:102B80000501F3030601E6030701E0030801EB0377
:102B90000902E7030B02E4030D01EA030E01EF0350
:102BA0000F02E2031101ED031201DF031301614182
:102BB00062426343644465456646674768486949BD
:102BC0006A4A6B4B6C4C6D4D6E4E6F4F705071512D
:102BD000725273537454755576567757785879599D
:102BE0007A5A31213240332334243525365E372654
:102BF000382A392830290000000000000000202079
:102C00002D5F3D2B5B7B5D7D5C7C237E3B3A2722E9
:102C1000607E2C3C2E3E2F3F000000000000000094
:102C200000000000000000000000000000000000A4
:102C30000000000000000000000000000000000094
:102C400000000000000000000000000000002F2F26
:102C50002A2A2D2D2B2B00003100320033003400A6
:102C60003500360037003800390030002E005C7C1B
:102C70000000000000000000000000000000000054
:102C80000000000000000000000000000000616281
:102C9000636465666768696A6B6C6D6E6F7071728C
:102CA000737475767778797A41424344454647484C
:102CB000494A4B4C4D4E4F5051525354555657580C
:102CC000595A3031323334353637383921222324BA
:102CD00025262728292A2B2C2D2E2F3A3B3C3D3EFA
:102CE0003F405B5C5D5E5F607B7C7D7E004A0345B0
:102CF0000061007300790041005600520020004D31
:102D00000075006C00740069006D00650064006966
:102D100000610020004B006500790062006F0061D7
:102D200000720064002000760023002E00230023A0
:102D3000002E0023002300000004030904090222DE
:102D400000010100A0320904000001030101000993
:102D500021B0010001223F0007058103080001099D
:102D6000025400030100A032090400000103010124
:102D7000000921B0010001223F0007058103120074
:102D8000010904010001030000000921B001000154
:102D9000221B000705820302000809040200010348
:102DA0000000000921B0010001221D000705830376
:102DB00001000809026D00040100A03209040000AE
:102DC00001030101000921B0010001223F000705B4
:102DD000810308000109040100010300000009212A
:102DE000B0010001221B000705820302000809044C
:102DF000020001030000000921B0010001221D00B2
:102E00000705830301000809040300010301020010
:102E10000921B0010001223A0007058403030005DF
:102E200009026D00040100A0320904000001030141
:102E300001000921B0010001223F000705810312B2
:102E400000010904010001030000000921B0010094
:102E500001221B0007058203020008090402000189
:102E6000030000000921B0010001221D00070583B5
:102E7000030100080904030001030102000921B055
:102E8000010001223A000705840303000512010036
:102E90000200000008EB03FF201000000100010504
:102EA000010980A1010501150025011981298375FA
:102EB0000195038106950175058101C0050C090185
:102EC000A101050C160100269C021A01002A9C0291
:102ED000751095018100C005010902A1010901A138
:102EE00000050919012903150025019503750181C4
:102EF000029501750581010501093009311681FF2F
:102F0000267F00360000460000950275088106C045
:102F1000C005010906A101050719E029E7150025EB
:102F2000017501950881029501750881010508194F
:102F3000012905950575019102950175039101150A
:102F400000250105071900297F958075018102C0C0
:102F500005010906A101050719E029E7150025016A
:102F6000750195088102950175088101050819010F
:102F700029059505750191029501750391011500CB
:102F800025FF0507190029FF950675088100C00077
:102F900011241FBECFEFD4E0DEBFCDBF84B714BE77
:102FA0000FB6F894A8959091600098619093600096
:102FB000109260000FBE83FF11C0809107049091B2
:102FC00008048D3A9E4D51F41092080410920704A3
:102FD000E8E6FBE225913491F901099511E0A0E0C2
:102FE000B1E0ECE5FCE602C005900D92A235B10718
:102FF000D9F724E0A2E5B1E001C01D92A730B207E5
:10300000E1F70E947E350C942C360C94000010924F
:103010007701109276011092720110927101109254
:1030200081011092800108952091730180917E01A9
:10303000222309F43CC0811141C0809175018111A6
:1030400032C08091920181112AC090916C0192133B
:1030500005C01092730110926C0130C0E92FF0E0AE
:10306000EE0FFF1FEE57FE4F80812181813031F43A
:10307000209375019F5F90936C0120C090916D012A
:10308000921719F020936D0119C08093920181115C
:1030900026D680916C018F5F80936C010FC054D64F
:1030A000109292010BC081508093750107C081116D
:1030B00005C0809174018D7F8093740180917E01A1
:1030C000811103C081E080937E01089580913D02CB
:1030D00090916E01981731F180936E01882311F160
:1030E000883211F0883531F4809174018B7F8093A0
:1030F00074010895E09170018A3251F4EE2391F049
:10310000E150E0937001F0E0E858FE4F108208951E
:10311000E63040F4AE2FB0E0A858BE4F8C93EF5F7E
:10312000E0937001089510926D0180913D0281112C
:1031300002C0109274010895BC0180917301DB01FB
:10314000982F292F281B983058F090937301620F05
:10315000711D27FD7A95709381016093800122C0D3
:10316000FD0125913491211109C0909373011092B2
:103170008101109280019923D1F014C0492F50E0B1
:10318000F901FF27EE0FFF1FE454FF4F2591349103
:10319000440F551FFA01EE57FE4F318320839F5F86
:1031A0001196CFCF8091740183608093740181E088
:1031B00008954091730128E030E0241B310926175F
:1031C000370758F1B0E04B2F0B2E000C550B46176C
:1031D0005707D8F4A09173012A2F30E0FC01E40FC7
:1031E000F51FE081F0E0EE0FFF1FE454FF4F459123
:1031F0005491220F331FF901EE57FE4F5183408344
:10320000AF5FA0937301BF5FDECF672B41F080916A
:10321000740183608093740102C080E0089581E0AE
:10322000089590917301983090F4E92FF0E0EE0F3B
:10323000FF1FEE57FE4F808361839F5F9093730162
:103240008091740183608093740181E0089580E02F
:1032500008959C019091730191112EC0A90198309D
:1032600049F490937301205F3F4F3093770120938F
:1032700076011BC0FA01659174914E5F5F4F611535
:10328000710549F4909373011092770110927601C1
:10329000992381F00AC0E92FF0E0EE0FFF1FEE57EF
:1032A000FE4F718360839F5FDACF809174018360EA
:1032B0008093740181E0089580E00895AC018091CD
:1032C000730181113EC060937F01282F082E000CEE
:1032D000330B2617370758F590917301220F331FD0
:1032E000983038F0240F351F30937201209371010C
:1032F0001EC0FA01E20FF31F20813181E92FF0E0B7
:10330000EE0FFF1FEE57FE4F318320839F5F909398
:10331000730190917F01915090937F01911105C0AD
:10332000109272011092710102C08F5FCECF809116
:103330007301882341F0809174018360809374014C
:1033400002C080E0089581E008959091740199236E
:1033500029F191FD69CE20917601309177012115F7
:10336000310511F0C90175CF2091710130917201C1
:103370002115310539F060917F01062E000C770B85
:10338000C9019CCF20918001309181012115310527
:1033900011F0C901D1CE92FD99CEC5CE0895E8E7CE
:1033A000F1E010821182128213821482158210922F
:1033B000700180913D0280936E018091740185605F
:1033C000809374010895E82FF0E0EE0FFF1FE4549E
:1033D000FF4F859194910895089508958A3010F4CF
:1033E000805D0895895C08951F93CF93DF93182F14
:1033F000EB0182958F70F2DF8883812F8F70EEDF73
:103400008983DF91CF911F9108958F929F92AF9200
:10341000BF92CF92DF92EF92FF920F931F93CF93C1
:10342000DF931F92CDB7DEB79C018B0180E3FB01D8
:10343000808380E28183828383E0E82EF12C94E60E
:10344000892E912C4AE0B42E682D70E0911003C0B3
:103450002617370790F06801C90CD11C97FCDA9445
:10346000C9010E94AB35A82E862F9983B7DFF601DC
:1034700080832A2D9981392F9394882D6B2D0E945A
:103480009F35882EF1E0EF1AF108F1F60F90DF91E9
:10349000CF911F910F91FF90EF90DF90CF90BF9051
:1034A000AF909F908F90089597EA980F993010F4FD
:1034B0008855089592EE980F993010F48D51089523
:1034C0009CEF980F963010F48A5F089580E008957D
:1034D000BF92CF92DF92EF92FF920F931F93CF9301
:1034E000DF936C017B0180E090E0B12C042F10E0B1
:1034F0002B2D0B2C000C330B2E153F0578F4B80147
:103500000E948E35EC01F601E20FF31F8081CCDFC3
:103510009E01280F311DC901B394EACFDF91CF91ED
:103520001F910F91FF90EF90DF90CF90BF90089583
:103530001F93CF93DF9300D000D0CDB7DEB780913B
:10354000740181114BC3E09193018E2F90E08A3179
:10355000910508F041C3FC01E65CFF4F0C94D235A5
:103560008DEB9AE2E9DD1BDF82E0DEC111E0109312
:1035700093018091780198DF893009F42DC384305C
:1035800019F4109394012AC3813011F483E0CCC163
:10359000823029F487E0C8C1883009F4C9C087EBBC
:1035A00098E2E3C088EC99E2C7DDF9DE84E0BCC1B3
:1035B00013E0109393018091780176DF893011F444
:1035C00081E0B2C1813091F49091F2038927809318
:1035D000F20382E00E94F1298091F203882319F01E
:1035E00081E798E2C2C08BE498E2BFC0823099F4D0
:1035F0009091EE0381E089278093EE0381E00E94A1
:10360000F1298091EE03882319F080E198E2ADC0A2
:1036100089EE97E2AAC08330B1F481EE95E28CDDA9
:10362000BE016F5F7F4F8091E303DEDE8AE08B8314
:1036300063E070E0CE010196BCDD86EE95E27CDDB4
:10364000AEDE8FE071C1843051F58091F1038111BC
:1036500009C081E08093F10385E00E94F12980E7B1
:1036600097E283C0813049F482E08093F10385E0E2
:103670000E94F1298DE397E278C0823041F41093E3
:10368000F10385E00E94F12984EA97E26EC010926E
:10369000F10385E00E94F12989E097E266C0853058
:1036A00099F49091E60381E089278093E60387E00F
:1036B0000E94F1298091E603882319F08BEC96E2B1
:1036C00054C08FE996E251C08630B9F481EE95E29C
:1036D00033DD8091E903BE016F5F7F4F90E095DE9F
:1036E0008AE08B8363E070E0CE01019662DD88E4BE
:1036F00094E222DD54DE80E117C1873009F04CCF1F
:1037000081EE95E219DD8091E00390E0BE016F5FEC
:103710007F4F01967ADE8AE08B8363E070E0CE0112
:10372000019647DD80E794E207DD39DE81E1FCC0E8
:103730009091DF0381E089278093DF0380E10E947D
:10374000F1298091DF03882341F086E08093F30321
:103750000E94F12984E596E208C08CE08093F3038F
:1037600086E00E94F12986E096E2E6DC37C28EEC24
:1037700098E2E2DC14DE88E0D7C087E08093930112
:103780008091780191DE893009F41ACF8130B9F443
:1037900081EE95E2D1DC8091F303BE016F5F7F4F34
:1037A00090E033DE8AE08B8363E070E0CE01019627
:1037B00000DD8AEB95E2C0DCF2DD82E1B5C082304B
:1037C000C1F481EE95E2B8DCBE016F5F7F4F80915E
:1037D000EB039091EC0319DE8AE08C8364E070E0E7
:1037E000CE010196E6DC87E995E2A6DCD8DD83E12F
:1037F0009BC08330D9F481EE95E29EDC8091E70393
:103800009091E803BE016F5F7F4F9195819591097B
:10381000FCDD8AE08C8364E070E0CE010196C9DCB7
:1038200088E695E289DCBBDD84E17EC08430B9F4B2
:1038300081EE95E281DC8091E403BE016F5F7F4FF2
:1038400090E0E3DD8AE08B8363E070E0CE010196D7
:10385000B0DC81E495E270DCA2DD85E165C08530F5
:10386000B9F481EE95E268DC8091EA03BE016F5FF6
:103870007F4F90E0CADD8AE08B8363E070E0CE0189
:10388000019697DC84E195E257DC89DD86E14CC046
:103890008630C1F481EE95E24FDCBE016F5F7F4F51
:1038A0008091EF039091F003B0DD8AE08C8364E0B7
:1038B00070E0CE0101967DDC80EF94E23DDC6FDDAF
:1038C00087E132C08730B9F481EE95E235DC809132
:1038D000E203BE016F5F7F4F90E097DD8AE08B834C
:1038E00063E070E0CE01019664DC8BEC94E224DCB2
:1038F00056DD88E119C0883009F070C181EE95E28B
:103900001BDC8091ED03BE016F5F7F4F90E07DDD9A
:103910008AE08C8364E070E0CE0101964ADC8BE99A
:1039200094E20ADC3CDD89E18093930157C1609108
:10393000700170E04AE088E791E0CADD8A309105C5
:1039400078F48093E30383E00E94F12981EE95E20D
:10395000F3DBBE016F5F7F4F8091E30345DD1AC14A
:1039600089E394E2E9DB12CE6091700170E04AE0F5
:1039700088E791E0ADDD9C01215031092336310506
:1039800058F48093F30386E00E94F12981EE95E2DA
:10399000D3DB8091F30379C089E394E2CDDBFACDE8
:1039A0006091700170E04AE088E791E091DD9C0150
:1039B00021503109273E334078F79093EC038093F0
:1039C000EB0389E00E94F12981EE95E2B5DBBE01AF
:1039D0006F5F7F4F8091EB039091EC03B8C06091D3
:1039E000700170E04AE088E791E072DD9C012150AF
:1039F0003109273E334080F6919581959109909346
:103A0000E8038093E7038AE00E94F12981EE95E2C2
:103A100093DB8091E7039091E803BE016F5F7F4FD6
:103A200091958195910993C06091700170E04AE091
:103A300088E791E04DDD9C012150310923363105A5
:103A400008F0AACF8093E4038BE00E94F12981EE75
:103A500095E272DB8091E40318C06091700170E020
:103A60004AE088E791E034DD9C012150310923369A
:103A7000310508F091CF8093EA038CE00E94F12990
:103A800081EE95E259DB8091EA03BE016F5F7F4FC3
:103A900090E0BBDC8AE08B8363E070E0CE010196AE
:103AA00088DB78CD6091700170E04AE088E791E0B2
:103AB0000FDD9C0121503109273E334008F06CCFC7
:103AC0009093F0038093EF038DE00E94F12981EE43
:103AD00095E232DBBE016F5F7F4F8091EF039091E3
:103AE000F00335C06091700170E04AE088E791E032
:103AF000EFDC9C01215031092336310508F04CCF11
:103B00008093E2038EE00E94F12981EE95E214DBBE
:103B10008091E203BACF6091700170E04AE088E7DB
:103B200091E0D6DC9C01215031092F3F310508F08E
:103B300033CF8093ED038FE00E94F12981EE95E26F
:103B4000FBDA8091ED03BE016F5F7F4F90E05DDC9B
:103B50008AE08C8364E070E0A1CF6091700170E036
:103B60004AE088E791E0B4DC9C0121503109203122
:103B7000310508F0F5CE8093E90384E00E94F12935
:103B800081EE95E2D9DA8091E903BE016F5F7F4F44
:103B900090E03BDC8AE08B8363E070E0CE0101962D
:103BA00008DBF4CC6091700170E04AE088E791E0B6
:103BB0008FDC019709F0D4CE1092E00388E00E94D8
:103BC000F12981EE95E2B8DA8091E00390E0BE0140
:103BD0006F5F7F4F0196DDCF109293010F900F9092
:103BE0000F900F90DF91CF911F910895362F90E0A5
:103BF00066E070E00E948E35805C9E4FDC01ED91A6
:103C0000FC91208181E090E001C0880F3A95EAF7AD
:103C1000822B80830895262F90E066E070E00E945A
:103C20008E35805C9E4FDC01ED91FC918081622F8E
:103C300060956823462B40830895362F90E066E018
:103C400070E00E948E35805C9E4FDC011296ED91F3
:103C5000FC911397208181E090E001C0880F3A9594
:103C6000EAF7822B80830895362F90E066E070E0BB
:103C70000E948E35805C9E4FDC011296ED91FC9186
:103C80001397208181E090E001C0880F3A95EAF710
:103C90008095822380830895262F90E066E070E06F
:103CA0000E948E35805C9E4FDC011296ED91FC9156
:103CB00013978081622F6823462B40830895262F17
:103CC00090E066E070E00E948E35805C9E4FDC01E3
:103CD0001496ED91FC911597808182230895E82F29
:103CE000E695E695E695F0E0E05DFD4F982F97703C
:103CF00021E030E001C0220F9A95EAF79081292B4C
:103D0000208390912A0220E029175CF4E22F022EF2
:103D1000000CFF0BE35CFD4F30813817A1F02F5FE3
:103D2000F3CF96305CF4E92F092E000CFF0BE35C17
:103D3000FD4F80839F5F90932A0208951092430263
:103D400081E080939B020895E82FE695E695E6953D
:103D5000F0E0E05DFD4F982F977021E030E001C06A
:103D6000220F9A95EAF7209590812923208390913C
:103D70002A024DE352E0FA012E2F241B291724F4C6
:103D800031913813F9CF01C00895E22F022E000CB3
:103D9000FF0BE35CFD4F818180832F5F2917ACF31C
:103DA000915090932A0210929B020895E82FE69575
:103DB000E695E695F0E0E05DFD4F982F977021E0E5
:103DC00030E001C0220F9A95EAF7908129272083DD
:103DD00090912A024DE352E0FA012E2F241B29175D
:103DE00024F431913813F9CF13C096305CF4E92FE5
:103DF000092E000CFF0BE35CFD4F80839F5F9093C7
:103E00002A0208951092430281E080939B02089554
:103E1000E22F022E000CFF0BE35CFD4F81818083BB
:103E20002F5F2917ACF3915090932A0210929B02B6
:103E300008959091950294305CF4E92F092E000CBE
:103E4000FF0BE55DFD4F80839F5F90939502089582
:103E500040E060E070E082E4C0DA10922F02089542
:103E6000209195024BE252E0FA019E2F941B92178B
:103E70009CF431913813F9CF921751F0E92F092EA4
:103E8000000CFF0BE55DFD4F818180839F5FF4CFC8
:103E90009150909395020895682F70E040E083E47C
:103EA0009CCA8091E30380939E020895962F62E15D
:103EB0000E948535890F9091250289130DC080914C
:103EC000E7039091E8038417950734F480919D02ED
:103ED0008F5F80939D0208951092250210929D029B
:103EE0000895962F6091EB037091EC0346175707E6
:103EF00054F441E0F901408362E10E948535890F65
:103F0000809325020895F9011082109225021092E3
:103F10009D02089590917F01E92FEE0FFF0BEB5B5F
:103F2000FD4F2091270230E0322F2227282B3183AA
:103F3000208381E0890F80937F01883234F01092D2
:103F40009A0280936F0180E1D6C508959091A002F6
:103F5000911110C0805D803168F4E82FF0E0EE0F21
:103F6000FF1FEF55FD4E85919491880F991F8F5536
:103F70009D4E6FC90895CF93DF93C82FD62F8091A0
:103F80009E02882311F08B5FB6D580E18C0F809361
:103F90009E024FDF80919E02882311F08B5F8BD5AC
:103FA00090919E028091E303981711F08FE083D5E2
:103FB00080919E0290912602D0FF02C0981308C003
:103FC000981308C080919D02811104C08091E30381
:103FD00080932602DF91CF910895E82FF0E0E4541A
:103FE000FE4F8491882311F060E0C5CF08950F93B0
:103FF0001F93CF93DF9300D01F92CDB7DEB7082F6A
:1040000010E1180F80919E02882341F08B5F2B8373
:104010004A83698370D569814A812B81222359F1B2
:1040200080919E02811327C080919D02882319F000
:1040300061FD109326028091290280131CC062FF4B
:104040001AC0141624F460912702842F13C0842F01
:10405000807E803E81F4E42FF0E0EE0FFF1FE257F8
:10406000F64D8491809590912702892380932702B1
:10407000649180E0D6D8812FF3DEE0919502E111C2
:1040800003C08091260206C00E2E000CFF0BE65DD9
:10409000FD4F808180939E0280919E02882311F0C3
:1040A0008B5F09D590919E028091E303981309C01C
:1040B0008FE00F900F900F90DF91CF911F910F9194
:1040C0001AC50F900F900F90DF91CF911F910F9114
:1040D0000895E82FF0E0E454FE4F8491882321F006
:1040E00020E040E060E083CF08956F70623051F0CF
:1040F00028F4662339F0613081F00895643011F0BE
:104100006830F1F4E82FF0E0EE0FFF1FE257F64DB4
:10411000E49180912702E82B0AC0E82FF0E0EE0F2F
:10412000FF1FE257F64DE49180912702E827E093C4
:10413000270280919C02882319F0E777E0932702F9
:1041400008956F70623009F43EC018F4662379F167
:104150000895643019F0683051F10895E82FF0E0C7
:10416000EE0FFF1FE257F64DE491E09560912702B4
:104170006E2360932702222309F443C09091290201
:1041800098133FC0842F14168CF0807E803E09F077
:1041900038C0E42FF0E0EE0FFF1FE257F64D849198
:1041A0008095682360932702649180E03AC8E82FE5
:1041B000F0E0EE0FFF1FE257F64DE491E09580919D
:1041C0002702E8231CC0E82FF0E090912702EE0FB1
:1041D000FF1FE257F64D222379F080919D0288233C
:1041E00059F08491E82FE92BE093270280919C02FB
:1041F000882339F0E77703C0E491E095E923E09361
:10420000270208956F70623051F028F4662339F068
:10421000613031F00895643011F0683011F45FCDF1
:10422000C5CD08956F70623049F018F461110DC06A
:104230000BC0643049F0683041F406C0222321F0FD
:1042400090919D02911101C07FCD08951F93CF934E
:10425000DF931F92CDB7DEB7182F862F807F11F026
:1042600080936D01113C09F48BC0E0F5163BD0F44E
:10427000113B08F0CAC0133809F470C050F4143070
:1042800008F415C1143708F456C0123809F45EC09A
:104290000EC1143809F46CC0E9E6E10FE93108F405
:1042A000A1C005C1183B09F4C4C050F4163B09F481
:1042B000BAC0173B09F0FBC0809199028150B6C08B
:1042C000193B09F4BAC083E4810F833008F0EFC0D2
:1042D00081E093E4910F01C0880F9A95EAF78093EB
:1042E0009F02EBC01E3C09F471C0A0F4193C09F414
:1042F00060C038F4143C08F4DAC0183C08F052C02E
:1043000041C01C3C09F4AEC008F0C0C01A3C09F41E
:10431000D4C0CDC0183E38F4103E08F0C5C01F3CD4
:1043200009F09DC057C080E1810F8A3008F0BFC0FE
:10433000812F21DEC2C080919A02882321F0812F33
:104340006983E8DD6981812F5DDFB7C08091280234
:1043500081FDB3C06091270289E307C080912802E4
:1043600080FDABC06091270283E50E941119A5C0B2
:104370008091280282FDA1C06091270287E4F5CFD9
:1043800033D49BC080919A02811197C081E08093C1
:104390009A0210927F018093A0028CE3810F809398
:1043A000F6036AC09091A00281E089278093A00261
:1043B00084C090919C0281E0892780939C028111A6
:1043C00002C085E061C085E076D377C082E080934B
:1043D000940173C08091930181116FC081E080933B
:1043E00093016BC08091960290919702892B09F0FE
:1043F00064C0F0E0EE0FFF1FEF5EF44D85919491E5
:10440000909397028093960258C0EFE4E10FF0E09A
:10441000EE0FFF1FEC5BF44DE49180919802E82BC6
:10442000E09398024AC0809199028F5F809399022D
:1044300009C080914402815003C0809144028F5F83
:10444000809344029091DE0380919D02992321F094
:104450009091DC03981788F58093DC032EC0812FA0
:1044600075DD2BC090919A0281E0892780939A0292
:10447000882321F010927F0180E1A6CF80917F01F7
:10448000811180936F0180E136D317C080919A0229
:10449000811113C060916F01062E000C770B85E42B
:1044A00092E00E945E1909C0812F1FDE06C0612FB5
:1044B00070E040E084E40E94ED19109329020F900F
:1044C000DF91CF911F9108950F931F93CF93DF93A7
:1044D000962F907F11F010926D01883B09F4C5C0B2
:1044E000022F142FD62FC82F893B70F5803BA0F4E4
:1044F000873908F09AC0823809F46CC030F48CEF28
:104500008C0F803708F448C0C9C0833809F46AC0EA
:10451000843809F474C0C2C0863B09F49CC008F01A
:104520009EC0813B08F4BAC06FE4680FE62FF0E04C
:10453000EE0FFF1FEC5BF44DE491E0958091980243
:10454000E823E0939802B4C08A3C09F460C080F488
:10455000803C50F48D3B08F065C0893B09F09EC05B
:1045600080914402815084C0813C08F0A1C096C073
:10457000883E38F4803E08F07EC08C3C08F098C03D
:104580008DC080E18C0F8A3008F088C08C2FDF91BD
:10459000CF911F910F912BCD80919A028823A9F082
:1045A0008091A002882389F0C83211F0CB3269F4DF
:1045B0001092A00210929A0280917F018150809304
:1045C0006F011092F70380E196D2202F412F6D2FBB
:1045D0008C2F23C08091280281FF6AC0609127023E
:1045E00089E307C08091280280FF62C060912702A2
:1045F00083E5DF91CF911F910F910C941119809158
:10460000280282FF55C06091270287E4F2CF89E239
:1046100009DE202F412F6D2F85E3DF91CF911F9170
:104620000F9100CE10929F0243C069E6680FE62FFB
:10463000F0E0EE0FFF1FEF5EF44D85919491209115
:104640009602309197022817390791F51092970238
:10465000109296022DC080919902815003C08091E2
:1046600099028F5F8093990223C0809144028F5FEB
:10467000809344021DC080919A02882331F080917A
:1046800029028C1302C080E045DC202F412F6D2FC2
:104690008C2FDF91CF911F910F9153CD6C2F70E034
:1046A00040E085E4DF91CF911F910F910C94ED19BB
:1046B000DF91CF911F910F910895209127022272CF
:1046C00091E009F090E02091F203222359F0992320
:1046D00049F02091280220FF05C022EE280F2A3041
:1046E00008F4855C2091E603222321F1833571F4DF
:1046F0009091280281E089278093280280FF03C0DF
:1047000080E0D9D11FC080E0F6D11CC027EA280F75
:104710002B3080F420912802E82FF0E0EE0FFF1FED
:1047200020FF05C0992319F0E75BF54D02C0E65B59
:10473000F54D84918A3C39F4911102C085E30895C6
:1047400089E2089580E008958F929F92AF92BF9280
:10475000CF92DF92EF92FF920F931F93CF93DF934D
:10476000B82EA62E7A01C82ED12C062F10E08091EB
:104770009E0290E060E970E00E948E35FC01C60167
:1047800062E170E00E948E35EC01E80FF91FE00F46
:10479000F11FEF5FF24F849190DF882E40919E02CF
:1047A000242F30E0C90160E970E00E948E358C0F43
:1047B0009D1FF801E80FF91FEF59F84F9490C901B8
:1047C00060E970E00E948E358C0F9D1FF801E80FA4
:1047D000F91FEF53FE4FC491C60162E170E00E94E1
:1047E0008E35800F911FFC01EB56FE4F4083A701D1
:1047F0006A2D8B2D5BDB4C2F692D882D27DDDF91FA
:10480000CF911F910F91FF90EF90DF90CF90BF90CD
:10481000AF909F908F900C94AF2E8F929F92AF92FB
:10482000BF92CF92DF92EF92FF920F931F93CF939D
:10483000DF931F92CDB7DEB7982E862EDA01C82EF1
:10484000D12C062F10E0C60162E170E00E948E3587
:104850009C01FC01E00FF11FEB56FE4FA080B12C34
:10486000C50160E970E00E948E35820F931F800FB2
:10487000911FFC01EF5FF24FE490FC01EF59F84FFC
:10488000F490C50160E970E00E948E35820F931F9D
:10489000F801E80FF91FEF53FE4FB4909E012F5F10
:1048A0003F4FAD01682D892D1CDB29814B2D6F2DCC
:1048B0008E2D0ADEC60162E170E00E948E35800F07
:1048C000911FFC01EB56FE4F10820F90DF91CF91AC
:1048D0001F910F91FF90EF90DF90CF90BF90AF901E
:1048E0009F908F900895E62FF0E090E062E170E0F5
:1048F0000E948E359C01DC01AE0FBF1FAB56BE4F30
:104900008C9190E060E970E00E948E35820F931FD9
:104910009F01280F391FF901EF5FF24F8491F901D0
:10492000EF59F84F249123FF1AC018161CF4609118
:10493000270213C0982F907E903E89F4E82FF0E074
:10494000EE0FFF1FE257F64D84918095909127025C
:10495000892380932702649180E00C9411190895B3
:104960002091A002211112C0FC01ADE3B2E0069635
:1049700021E030919B02332311F0208302C03C914F
:10498000308331961196E817F90799F70895209129
:10499000A002211109C0DC01E0E3F2E08DE08E0FFE
:1049A00091919D938E13FCCF0895FC018091A002FC
:1049B000811106C080916D0190912702982B908300
:1049C0000895262F90E062E170E00E948E35820FFC
:1049D000911DFC01EF5FF24FE491E83211F0E835F0
:1049E00039F441E060E070E081E50E94ED1959C4BE
:1049F0000895462FA82FB0E0CD0163E070E00E943B
:104A00008E359C01FC01E353FD4D8491F9013196F3
:104A1000E553FD4D481761F02491CD0163E070E04E
:104A20000E948E3585539D4DFC018491622F05C9EE
:104A30002491CD0163E070E00E948E3585539D4D39
:104A4000FC018491622F10C90F931F93CF93DF93C2
:104A5000ECEFF2E2D4910BEC12E2C0E0CD1769F07A
:104A6000F80131966491F8018491C0D860E08C2FF0
:104A7000C0DFCF5F0D5F1F4FF1CF8091E9038093BF
:104A8000AC02DF91CF911F910F9108958091A902FF
:104A9000893F69F48091AE028F3E19F41092AE0204
:104AA00003C08F5F8093AE021092A90208958F5FBA
:104AB0008093A902089590E0880F991FFC01EF559B
:104AC000FD4DA491FC01EE55FD4D8491EBEFF2E21A
:104AD000E491AE1778F4B0E0AF55BD4F811103C03B
:104AE0008C91816006C09C919170E82FEE0F892F08
:104AF0008E0F8C93089590E0880F991FFC01EF555D
:104B0000FD4DA491FC01EE55FD4D8491EBEFF2E2D9
:104B1000E491AE1780F4B0E0AF55BD4F811104C0F1
:104B20008C918E7F8C9308959C91292F2695281324
:104B300002C091709C930895823049F0833079F0DF
:104B40008130A1F481E1B7DF82E1D5DF0CC081E1E2
:104B5000D2DF82E1D0DF83E1AEDF84E1CCCF81E13F
:104B6000CADF82E1A8DF83E1C6DFF7CF81E1C3DFDF
:104B700082E1C1DF83E1BFDF84E19DCF0F931F930B
:104B8000CF93EBEFF2E2E491C0E00E2F10E08C2F18
:104B90000C2E000C990B8017910714F52091AA0296
:104BA0002223C9F0FC01EF55FD4F2081223018F47B
:104BB00021110FC010C0E22FE695F0E0E35AF44D4A
:104BC00064918091AE020E949F35921720F490FF6D
:104BD00002C061E001C060E08C2F0BDFCF5FD7CF58
:104BE000CF911F910F9108958091AC02803110F008
:104BF00081E002C08C5F8C7F8093AC02089580912D
:104C0000AD028F5F813118F48093AD02089581E089
:104C10008093AD021092AB0208958091AC02803176
:104C200020F081E08093AA0208959091AB026091F8
:104C3000AD020E948535981738F481E08093AA026E
:104C4000905F9093AB0208951092AA020895D7DF67
:104C5000E4DF1CDF93CF1F920F920FB60F92112447
:104C60000F900FBE0F901F90189590E080E80FB640
:104C7000F89480936100909361000FBE0895F5CF82
:104C80008DEA9EED9093080480930704089584E0D4
:104C900089BD86E089BD09B400FEFDCF8091D800B2
:104CA0008F7D8093D8008091E00082608093E00047
:104CB0008091E00081FDFCCF0895DF92EF92FF929A
:104CC0000F931F93CF93DF93D82EA62FB42FE62EEA
:104CD000F12CC42FD0E0C70162E170E00E948E3554
:104CE0008C0F9D1F8C01000F111F08541D4FF801E0
:104CF00020813181DD2009F440C037FF1EC0E091E2
:104D0000F303F0E0F195E195F109E217F30714F4EC
:104D1000E80174C0A9016B2F8A2F16DDC70162E17B
:104D200070E00E948E358C0F9D1FEC01CC0FDD1FB3
:104D3000C854DD4F84E090E04BC08091EF03909128
:104D4000F0032817390714F1642F8A2FCCDDC7012F
:104D500062E170E00E948E358C0F9D1FEC01CC0F3C
:104D6000DD1FC854DD4F2091E20388819981821BA9
:104D70009109F8019183808346C0121613065CF5F1
:104D80008091F30390E02817390784F4C70162E1AA
:104D900070E00E948E358C0F9D1FEC01CC0FDD1F43
:104DA000C854DD4FA9014C5F5F4F2BC0A9016B2F89
:104DB0008A2F33DDC70162E170E00E948E358C0FCF
:104DC0009D1FEC01CC0FDD1FC854DD4F8CEF9FEF12
:104DD0009983888318C08091E7039091E803821734
:104DE00093078CF4C70162E170E00E948E358C0F4E
:104DF0009D1FEC01CC0FDD1FC854DD4FA9014450AD
:104E0000510959834883DF91CF911F910F91FF90F2
:104E1000EF90DF9008950F931F93CF93DF93082FA8
:104E2000262F342F862F90E062E170E00E948E35AD
:104E3000840F911DEC01CC0FDD1FC854DD4F59814B
:104E4000011110C057FD29C08881952F93702091C2
:104E5000E7033091E8038217930708F404969983D7
:104E600088833DC057FF19C00881152F13708091AA
:104E7000EF039091F0030817190740F0642F822F79
:104E800032DD8091E203081B110902C00C5F1F4F45
:104E9000198308838981806819C0152F1695169586
:104EA0001F711C5F8091F303181790F048815370B5
:104EB000632F822F002311F047DC01C0AEDC212FCD
:104EC00030E039832883898100FB87F9898307C013
:104ED0001F71110F110F5378252F212B2983DF917B
:104EE000CF911F910F910895CF92DF92EF92FF9291
:104EF0001F93CF93DF93E0E6F3E2E491E093AF02F8
:104F0000EFE5F3E2E491E093B302EEE5F3E2E4913E
:104F1000E093B602EDE5F3E2E491E093B70287E5B2
:104F2000E82E83E2F82E90EBC92E92E0D92ED0E045
:104F3000F70114918091B30281111FEFF7013196AF
:104F4000C4914C2F612F8D2F0E940B1E2C2F20956A
:104F5000F60121936F01422F41238091B302642F08
:104F60006095811101C040E08D2F0E944C1EDF5FD3
:104F7000F2E0EF0EF11CD330D9F68091DF038823E5
:104F800071F08BE097E29093B5028093B402809128
:104F9000F303813250F080E28093F30306C08DE585
:104FA00096E29093B5028093B402DF91CF911F9166
:104FB000FF90EF90DF90CF900895CF92DF92EF9225
:104FC000FF921F93CF93DF9310E0812F012E000CEF
:104FD000990B2091B60230E0821793070CF054C071
:104FE00020EBE22E22E0F22E63E070E00E948E358C
:104FF0006C01C0E0D0E0FE01EC0DFD1DEF5DFC4D4D
:105000004491F70161917F018C2F0E944C1E2196E3
:10501000C330D10581F78091ED038A95F1F7C0E0A7
:105020002C2F0C2E000C330B8091B70290E0281728
:10503000390744F58091B302220F331FF901E25082
:10504000FD4D882351F06491F901E350FD4D8491A9
:105050000E945F1E882351F013C06491F901E35050
:10506000FD4D84910E945F1E882351F08091AF0214
:10507000882319F0612F8C2F02C06C2F812FA1DCA7
:10508000CF5FCECF1F5FA1CFDF91CF911F91FF9058
:10509000EF90DF90CF900895CF92DF92EF92FF9242
:1050A0000F931F93CF93DF93D62FC82FCD170CF0FC
:1050B00063C080EBE82E82E0F82E8C2F0C2E000CC3
:1050C000990B63E070E00E948E356C0100E010E007
:1050D000F70161917F016F3F49F0F801EC0DFD1D73
:1050E000EF5DFC4D4491802F0E944C1E0F5F1F4FBF
:1050F0000330110569F78091ED038A95F1F710E00F
:10510000212F012E000C330B8091B70290E028175D
:10511000390784F58091B302220F331FF901E25061
:10512000FD4D882359F06491F901E350FD4D8491C0
:105130000E945F1E91E0882361F00AC06491F9012A
:10514000E350FD4D84910E945F1E91E0811101C0EA
:1051500090E08091AF02E091B402F091B502882313
:1051600019F04C2F612F02C0412F6C2F892F099508
:105170001F5FC6CFCF5F9ACFDF91CF911F910F9165
:10518000FF90EF90DF90CF9008956091B602669502
:10519000669580E081CF8091B602682F70E07595AA
:1051A00067958695869578CF2091B60230E0C90143
:1051B00063E070E00E948E3595958795959587956B
:1051C00035952795682F822F67CF2091B602822FC1
:1051D00090E063E070E00E948E35959587959595F7
:1051E0008795622F59CF81E08093DB03089520914A
:1051F000DB03622F70E00E948E356AE070E00E944F
:10520000AB358091DA03962F981B892F6093DA03D0
:105210002F5F2093DB032B3028F01092DA0391E00C
:105220009093DB03089580919902811104C08091CD
:105230004402882319F181E08093DE032091E40386
:105240008091DC036091EA039091DD03911121C00C
:1052500070E090E00E948E35820F911DC8DF982F7C
:10526000609199020E9485358093D9036091440230
:10527000892F0E9485358093D8030BC01092DE03DE
:105280001092DA031092D9031092D8038AE0809327
:10529000DB038091DD03811103C081E08093DD0396
:1052A0000895CF93DF93CDB7DEB764970FB6F89428
:1052B000DEBF0FBECDBF80E28093E5031092EE0308
:1052C0001092F2031092E30340E14093E90310923D
:1052D000F1033CE03093F3031092E6031092E003F5
:1052E00060EF70E07093EC036093EB0368E87FEF8E
:1052F0007093E8036093E70395E09093E4032FE055
:105300002093EA0360E273E07093F0036093EF038D
:105310008093E2039093ED031092DF0389831A8256
:105320001B821C824D831E823F831886198630EFB4
:105330003A871B8638E83C873FEF3D879E872F875B
:10534000888B23E0298B8A8B9B8B1C8A44E150E05D
:1053500060E070E0CE0101960E94023664960FB6BE
:10536000F894DEBF0FBECDBFDF91CF9108950F93AC
:105370001F93CF93DF93CAE6DBE2FE01329684915E
:105380003196E49190E0E23059F4FE0105911491D8
:10539000805090400E94FD35F8019183808309C0C0
:1053A000FE0105911491805090400E94F535F8015E
:1053B00080832496FBE2CE3ADF07F9F66091E5039D
:1053C000603231F070E041E080E50E94ED1969DF64
:1053D0008091F1038093E103DF91CF911F910F91B1
:1053E000089590E0880F991F880F991FFC01E459D8
:1053F000F44D2491FC01E359F44D3491FC01E6593C
:10540000F44D822F90E0323041F4A591B4916D912A
:105410007C91805090400C941936A591B4916C9178
:10542000805090400C940B3685E08093F7030895EC
:105430008091F603082E000C990B6EE270E00E943A
:105440008E35FC01E657FC4D4491FC01E557FC4DBF
:105450003491FC01E457FC4D2491FC01E357FC4DD1
:10546000949150917F018091F403513079F01CF4B4
:10547000552331F01FC0523081F05330A9F01AC0CB
:10548000442321F06AE10E949F352EC0332329F086
:105490006AE10E949F35965E27C0222329F06AE0C8
:1054A0000E949F359C5C20C0992321F0982F9F710A
:1054B000925C1AC0442311F06AE101C060E031112E
:1054C000665E2111665F9111605E0E949F354111F9
:1054D00001C0965E311103C09A3134F0965E2111FD
:1054E00003C094330CF0965FE92F990FFF0BE2573E
:1054F000F34D8491089584509272E82FF0E0EE0FFE
:10550000FF1F911103C0E255F44D02C0E155F44D67
:10551000849108950F931F93CF93DF93C091F60367
:105520000C2E000CDD0B20917F01022E000C330BA2
:10553000CE016EE270E00E948E35FC01E757FC4D13
:10554000649170E0C9010E94BF35082F1091F403E7
:1055500060916F01062E000C770BC9010E94BF35C8
:10556000FC01FF27EE0FFF1FEB5BFD4F8081918158
:10557000C2DF810F982F990F87FD9F5F9093F403EF
:10558000CE016EE270E00E948E35800F911DFC010D
:10559000EF59FC4DE4918091F403E827E093F40384
:1055A000DF91CF911F910F910895EF92FF920F938A
:1055B0001F93CF93DF931F92CDB7DEB7A091F60371
:1055C0000A2E000CBB0BCD016EE270E00E948E35FE
:1055D0009C01FC01E257FC4D6491062F10E088E22B
:1055E00090E0801B910B880F991FAC014B5B5D4FC6
:1055F0007A018091F703823009F44EC028F48823A1
:1056000051F08130F1F0B9C0833009F465C08430C5
:1056100009F48AC0B2C01092F40381E08093F703CA
:1056200010927F01CD016EE270E00E948E358757A7
:105630009C4DFC0184918111A0C085E08093F7030B
:105640009CC040917F01F901E40FF11D47FDFA95DF
:10565000EF59FC4DE4912091F4032E0F2093F403B5
:105660004F5F40937F01CD016EE270E00E948E3566
:1056700087579C4DFC016491042E000C550B70E083
:10568000461757070CF479C082E08093F703109215
:105690007F012093F50371C01091F503A0917F0164
:1056A000AA0FBB0BAB5BBD4F8D919C91698323DF30
:1056B000810F8093F50390917F019F5F90937F010D
:1056C00020916F01698192170CF457C00E949F3599
:1056D0009093F50383E023C01DDF8091F50390E0F4
:1056E000880F991FE80EF91EA3DE0E94E319F70147
:1056F000918380838091F50390E00196B8010E9428
:10570000BF358093F50380917F018F5F80937F0188
:10571000082E000C990B801791077CF184E0809390
:10572000F70310927F0129C080917F01282F220F5B
:10573000330BFA01E20FF31F40815181F901EB5B5A
:10574000FD4F518340838F5F80937F01082E000CB3
:10575000990B801791078CF085E08093F703609395
:105760006F01B80185E492E00F90DF91CF911F9116
:105770000F91FF90EF900C945E190F90DF91CF91F5
:105780001F910F91FF90EF9008958091F70385305E
:1057900009F00BCF089513BC109280001092820084
:1057A00080E89EE39093890080938800089510928A
:1057B000F8037894109285001092840081E0809321
:1057C000810082E080936F009AE088E10FB6F89440
:1057D000A895809360000FBE90936000E0E6F0E033
:1057E0008081806C808308950FB6F894A89580918D
:1057F0006000886180936000109260000FBEE0E658
:10580000F0E080818F7B808310926F001092810086
:105810000895CF93DF93C0E0D0E0E091F803F0E08B
:10582000EE0FFF1FEE0FFF1FEC0FFD1FEE0FFF1F10
:10583000E75EFB4D85919491009721F0C093FA03A8
:10584000FC0109952196C430D10539F7DF91CF913C
:10585000089510928500109284008091F9038823A6
:1058600081F08091F8036091FA0370E0782B40E0BA
:1058700081E10E94ED198091F9038F5F8093F90314
:10588000089581E08093F9037894C3DF8091F80351
:105890008F5F8093F803843010F01092F8038091AA
:1058A000F903823038F06091F90370E040E084E160
:1058B0000E94ED19A8951092F90308951F920F9276
:1058C0000FB60F9211242F933F934F935F936F93D3
:1058D0007F938F939F93AF93BF93EF93FF93B9DF22
:1058E000FF91EF91BF91AF919F918F917F916F91B8
:1058F0005F914F913F912F910F900FBE0F901F908E
:105900001895292F33272330310529F13CF4213014
:10591000310561F02230310571F07FC0213231054F
:1059200049F12232310509F445C077C082E190E0A7
:105930002DE83EE27BC08091E103833009F459C039
:10594000813009F45BC0823009F45DC08DE690E0DF
:1059500020E23EE26BC09927009731F0019709F0F1
:105960005CC0EDEEFCE202C0E9E3FDE2849190E070
:105970009F015CC06130A1F050F06230B1F0633043
:1059800009F04BC089E090E02DE73EE24FC08091E6
:10599000E10380FD3DC089E090E022E33EE246C0A5
:1059A00089E090E02BE43EE241C089E090E024E60B
:1059B0003EE23CC0613099F048F06230A9F06330BB
:1059C00061F58AE390E027ED3EE230C08091E1038B
:1059D00080FD28C08FE390E021E13FE227C08BE10A
:1059E00090E02CEB3EE222C08DE190E02FE93EE218
:1059F0001DC082E290E02DE33DE218C08DE690E00C
:105A000023EB3DE213C084E590E02FE53DE20EC0BC
:105A100089E090E02FE43DE209C080E090E020E0E2
:105A200030E004C08FE390E020E53FE2FA013183EB
:105A30002083089581E080C80895CF93DF9380E3A9
:105A400091E045D7C82F8091E103833049F080E190
:105A500091E03DD7D82F80E091E039D78D23C8233E
:105A60008091E10381FD04C080E291E030D7C8233A
:105A7000CC2311F080E001C083E05ED88091E20089
:105A800084608093E200DF91CF91089580E391E0FC
:105A9000E6D58091E103833031F080E191E0DFD5FC
:105AA00080E091E0DCD58091E10381FD03C080E2DC
:105AB00091E0D5C5089580913E0190913F010097F6
:105AC00029F0019790933F0180933E012091E103DB
:105AD0002330B1F080911E0190911F01009729F0B1
:105AE000019790931F0180931E0180910E01909168
:105AF0000F01009729F0019790930F0180930E01F9
:105B000021FD0BC080912E0190912F01009729F06B
:105B1000019790932F0180932E01089580E00CC887
:105B20000F931F93CF93DF93F901D801EC012881E4
:105B3000213009F441C030F0223009F446C023304E
:105B400031F14AC0EF01FC0110927E012091E10386
:105B5000CE01029620FD06C02185222319F00E9465
:105B6000C72402C00E94B024CE010E94D524809197
:105B7000E10380FF06C088E090E0F8019183808314
:105B80002BC082E190E0E8019983888325C01092C0
:105B9000DD038091980280838091D9038183809175
:105BA000D803828383E090E08D939C9381E0909171
:105BB000DE03911112C010C080919602909197025D
:105BC0009183808382E090E005C080919F02808372
:105BD00081E090E08D939C9380E0DF91CF911F91C5
:105BE0000F910895CF938053914009F081C0F9013E
:105BF000808180932802C0915301C827809353016C
:105C0000CC2309F475C09091E603911111C0C0FF37
:105C10000FC080FF07C080E00E945B2580E00E94EB
:105C2000ED1F06C080E00E947B2580E00E94692075
:105C3000C1FF11C08091280281FF07C081E00E944E
:105C40005B2581E00E94ED1F06C081E00E947B255C
:105C500081E00E946920C2FF24C08091280282FF57
:105C600011C082E00E945B2582E00E94ED1F8091BE
:105C7000EE038823B1F081E080939C0285E00E94CE
:105C80005B250FC082E00E947B2582E00E94692094
:105C90008091EE03882329F010929C0285E00E94F7
:105CA0007B25C3FF11C08091280283FF07C083E0DA
:105CB0000E945B2583E00E94ED1F06C083E00E94E6
:105CC0007B2583E00E946920C4FF12C080912802D6
:105CD00084FF07C084E00E945B2584E0CF910C9490
:105CE000ED1F84E00E947B2584E0CF910C94692015
:105CF000CF9108958091E10380FF09C088E08093EF
:105D0000380188E090E09093330180933201089548
:105D100080E391E0EFD58091E103833031F080E1C1
:105D200091E0E8D580E091E0E5D58091E10381FD47
:105D300003C080E291E0DED578D48091FE0390919B
:105D40005201981759F06091FE0370E041E086EA35
:105D50000E94ED198091FE03809352010895809175
:105D6000FC03882331F08091FE03853011F40C94FC
:105D700047260895CF92DF92EF92FF920F931F93E1
:105D8000CF93DF93EC018B017A01D5D1811133C020
:105D9000E114F10439F0F70180819181081B190B9E
:105DA000C80FD91FC12CD12C0115110519F18091F3
:105DB000E80085FD16C08091E8008E778093E800AA
:105DC00034D4E114F10449F0F70180819181C80EC7
:105DD000D91ED182C08285E00EC0ADD1882321F3C7
:105DE0000AC089918093F10001501109FFEFCF1A89
:105DF000DF0ADACF80E0DF91CF911F910F91FF9002
:105E0000EF90DF90CF900895209105043091060423
:105E10002617370748F06115710539F42091E8001D
:105E20002E772093E80001C0B90140E061157105AB
:105E300091F12091FE03222309F440C0253009F49A
:105E40003FC02091E80023FD3DC02091E80022FDE5
:105E50002FC02091E80020FFE9CF2091F20030E030
:105E6000FC01CF016115710559F02830310540F46E
:105E700081918093F100615071092F5F3F4FF1CF05
:105E800041E02830310509F040E02091E8002E770C
:105E90002093E800CBCF4111CCCF0AC08091FE0304
:105EA000882361F0853061F08091E80083FD0AC0AD
:105EB0008091E80082FFF2CF80E0089582E00895AB
:105EC00083E0089581E008956115710529F420911A
:105ED000E8002B772093E800FC016115710521F1A2
:105EE0008091FE03882341F1853041F18091E800E3
:105EF00083FD20C08091E80082FFEFCF8091F20007
:105F0000882331F08091F100819361507109B1F7DC
:105F10008091E8008B778093E800DFCF8091FE03CB
:105F2000882351F0853051F08091E80080FFF6CF52
:105F300080E0089581E0089582E0089583E0089567
:105F400020910504309106042617370748F06115A3
:105F5000710539F42091E8002E772093E80001C004
:105F6000B901FC0120E06115710579F18091FE0312
:105F7000882309F43DC0853009F43CC08091E800D5
:105F800083FD3AC08091E80082FD2CC08091E8003A
:105F900080FFE9CF8091F20090E06115710559F022
:105FA0008830910540F424912093F100319661509E
:105FB00071090196F2CF21E0089709F020E0809165
:105FC000E8008E778093E800CECF2111CFCF0AC0B2
:105FD0008091FE03882361F0853061F08091E800B4
:105FE00083FD0AC08091E80082FFF2CF80E008952F
:105FF00082E0089583E0089581E00895982F953018
:1060000058F59093E900981739F07091EC002091C1
:10601000ED005091F00003C0242F762F50E021FFB7
:1060200019C03091EB003E7F3093EB003091ED00D2
:106030003D7F3093ED003091EB0031603093EB0009
:106040007093EC002093ED005093F0002091EE004F
:1060500027FF07C09F5FD3CF8F708093E90081E057
:10606000089580E00895EF92FF920F931F93CF93CE
:10607000DF93E62EEC018C010C5F1F4FF12CFE1418
:1060800099F19881992359F1F801208169817A81E8
:1060900031973081892F8F70853010F080E025C0D6
:1060A000223010F442E001C046E0E8E0F0E020E0F9
:1060B000E617F70720F42F5FEE0FFF1FF9CF2295A9
:1060C000207F422B232F2295220F220F207C991F05
:1060D0009927991F622F692B91DF8823F9F2F39496
:1060E00025960B5F1F4FCBCF81E0DF91CF911F91A2
:1060F0000F91FF90EF9008958091FF0387FF11C0EB
:106100008091E80082FD05C08091FE038111F8CFE7
:1061100011C08091E8008B770BC08091FE0388232B
:1061200049F08091E80080FFF8CF8091E8008E77F9
:106130008093E80008952091E4003091E50095E611
:106140004091EC00842F817040FF22C08091E800D4
:1061500080FD1CC08091FE03882391F0853091F072
:106160008091EB0085FD10C04091E4005091E50066
:106170004217530729F39A01915011F784E00895CB
:1061800082E0089583E0089581E0089580E0089515
:106190004091E80042FFDECF089554D056D0E0EEA3
:1061A000F0E0808181608083E8EDF0E080818F778E
:1061B000808319BCE3E6F0E08081816080831092E7
:1061C000FD0308953FD041D08091D8008F77809310
:1061D000D8008091D80080688093D8008091D80042
:1061E0008F7D8093D80084E089BD86E089BD09B4A5
:1061F00000FEFDCF1092FE031092FB031092FC03F1
:1062000042E060E080E0FADE8091E1008E7F8093E2
:10621000E1008091E20081608093E2008091E200E1
:1062200088608093E2008091E0008E7F8093E000A0
:106230000895E3E6F0E080818E7F808381E08093A3
:10624000FD03C0CF1092E20008951092E10008957E
:106250001F920F920FB60F9211242F933F934F93DB
:106260005F936F937F938F939F93AF93BF93EF93BE
:10627000FF938091E10082FF0AC08091E20082FFDB
:1062800006C08091E1008B7F8093E10014DC809157
:10629000E10080FF17C08091E20080FF13C0809171
:1062A000E2008E7F8093E2008091E2008061809323
:1062B000E2008091D80080628093D80019BC1092CF
:1062C000FE03BADB8091E10084FF2FC08091E200E1
:1062D00084FF2BC084E089BD86E089BD09B400FE3F
:1062E000FDCF8091D8008F7D8093D8008091E10010
:1062F0008F7E8093E1008091E2008F7E8093E200A8
:106300008091E20081608093E2008091FB0388230A
:1063100011F084E007C08091E30087FD02C081E0B6
:1063200001C083E08093FE0385DB8091E10083FF61
:1063300022C08091E20083FF1EC08091E100877F30
:106340008093E10082E08093FE031092FB03809132
:10635000E1008E7F8093E1008091E2008E7F809348
:10636000E2008091E20080618093E20042E060E020
:1063700080E044DED3DBFF91EF91BF91AF919F911D
:106380008F917F916F915F914F913F912F910F90DE
:106390000FBE0F901F9018951F93CF93DF93CDB72B
:1063A000DEB7AA970FB6F894DEBF0FBECDBFEFEFF2
:1063B000F3E088E08E0F9091F10091938E13FBCF64
:1063C00065DB8091E80083FF18C18091FF03909105
:1063D0000004492F50E04A30510508F00EC1FA017F
:1063E000EC5AFF4FDFC3803881F0823809F005C1D5
:1063F000809103048F708093E9008091EB0085FB0E
:10640000882780F91092E90007C08091FC03882357
:1064100011F082E001C080E09091E800977F9093B6
:10642000E8008093F1001092F100C4C0282F2D7F66
:1064300009F0E3C0882319F0823061F0DEC080915A
:106440000104813009F0D9C0933009F080E08093D5
:10645000FC032BC080910104811127C080910304AB
:106460008F7009F4CAC08093E9002091EB0020FFEF
:106470001CC0933021F48091EB00806214C0909195
:10648000EB0090619093EB0021E030E0A90102C0A5
:10649000440F551F8A95E2F74093EA001092EA00F4
:1064A0008091EB0088608093EB001092E90080916E
:1064B000E800877F82C08111A0C0109101041F777E
:1064C0008091E3008078812B8093E3008091E80045
:1064D000877F8093E80010DE8091E80080FFFCCF8A
:1064E0008091E30080688093E300111102C082E094
:1064F00001C083E08093FE0380C08058823008F0A2
:106500007CC080910104909102048C3D53E095077A
:1065100071F583E08A838AE289834FB7F894DE01BC
:10652000139620E03EE051E2E32FF0E05093570055
:10653000E49120FF03C0E295EF703F5FEF708E2F74
:1065400090E0EA3010F0C79601C0C0968D939D93FD
:106550002F5F243149F74FBF8091E800877F8093F8
:10656000E8006AE270E0CE0101964EDC12C0AE0196
:106570004F5F5F4F60910304C4D9BC01892B09F4BC
:106580003CC09091E800977F9093E80089819A81C0
:10659000D7DC8091E8008B778093E8002EC08038AC
:1065A00061F58091E800877F8093E8008091FB038C
:1065B0008093F1008091E8008E778093E8009CDD65
:1065C0001CC081111AC0909101049230B0F48091E6
:1065D000E800877F8093E8009093FB038DDD809136
:1065E000FB03811106C08091E30087FD02C081E0BA
:1065F00001C084E08093FE0320DA8091E80083FFED
:106600000AC08091E800877F8093E8008091EB00CA
:1066100080628093EB00AA960FB6F894DEBF0FBE9F
:10662000CDBFDF91CF911F910895CF938091FE034D
:10663000882399F0C091E900CF709091EC00892FE8
:10664000817090FD80E8C82B1092E9008091E800ED
:1066500083FDA2DECF70C093E900CF9108956F92C1
:106660007F928F929F92AF92BF92CF92DF92EF92E2
:10667000FF920F931F93CF93DF9300D01F92CDB75C
:10668000DEB77C01CDB6DEB68091E80083FF08C19D
:10669000F701808190E020910304309104042817D1
:1066A000390709F0FDC080910004833009F49FC0D0
:1066B00030F4813071F0823009F4D6C0F1C08A30F4
:1066C00009F4BAC08B3009F4A3C0893009F0E8C0DE
:1066D00051C08091FF03813A09F0E2C08DB69EB6A9
:1066E0001A82198280910104109102048B83F701B0
:1066F0008085482F50E08DB79EB7841B950B0FB651
:10670000F8949EBF0FBE8DBFEDB7FEB731965F0107
:1067100060E070E0CF0162D24FEF410F8E010F5F5A
:106720001F4F9501BE016D5F7F4FC701F9D9F7017A
:1067300086819781009721F0408550E0B50145D2D0
:106740001092E9008091E800877F8093E8008B81B8
:1067500081118093F10069817A81C50155DB8091B7
:10676000E8008B778093E8000FB6F8949EBE0FBECA
:106770008DBE96C08091FF03813209F091C0ADB605
:10678000BEB600910504109106047090010460905B
:1067900002048DB79EB7801B910B0FB6F8949EBF75
:1067A0000FBE8DBFEDB7FEB731964F018091E80067
:1067B000877F8093E800B801CF0186DB8091E800F5
:1067C0008E778093E80021E0711001C020E030E076
:1067D000021B130B280D391D4FEF460D672DC70106
:1067E00001DA0FB6F894BEBE0FBEADBE59C080919F
:1067F000FF03813A09F054C08091E800877F8093BD
:10680000E8008091E80080FFFCCFF701818540C05F
:106810008091FF03813209F043C08091E800877FB7
:106820008093E80069DC9091010481E0911101C03E
:1068300080E0F701818734C08091FF03813281F5C8
:106840008091E800877F8093E80056DC8091010406
:1068500090910204882736E0969587953A95E1F75E
:10686000F701958784871CC08091FF03813AC1F4AA
:106870008091E800877F8093E8008091E80080FFA6
:10688000FCCFF70184859585969587959695879594
:106890008093F1008091E8008E778093E8002CDCF3
:1068A0000FB6F894DEBE0FBECDBE0F900F900F90C6
:1068B000DF91CF911F910F91FF90EF90DF90CF90DC
:1068C000BF90AF909F908F907F906F900895FC0144
:1068D000399627E0DF011D922A95E9F721E0FC01B6
:1068E000218724EF31E03587248723E0248361E08A
:1068F0000196B9CB4F925F926F927F928F929F9247
:10690000AF92BF92CF92DF92EF92FF920F931F93BD
:10691000CF93DF9300D01F92CDB7DEB77C01ADB629
:10692000BEB68091FE03843009F08DC08091E400F2
:106930009091E500F701228533852817390709F47E
:1069400082C081818F708093E9008091E80085FF8B
:106950007AC08DB69EB6408550E08DB79EB7841B39
:10696000950B0FB6F8949EBF0FBE8DBFEDB7FEB767
:1069700031966F011B821A82198260E070E0CF01AC
:106980002DD18E010F5F1F4F960140E0BE016D5F5C
:106990007F4FC701C5D8482EF70184859585892B7F
:1069A00051F091E080E026853785232B09F090E0B7
:1069B000092F182F02C000E010E0F70166807780F1
:1069C0006114710489F049815A81B301C601F0D084
:1069D00055245394892B09F4512CF701408550E03C
:1069E000B601C301F2D001C0512C89819A81892B53
:1069F000F1F0411004C0511002C0012BC1F0F701A9
:106A0000848595859787868781818F708093E9003B
:106A10008B8181118093F10069817A8140E050E09F
:106A2000C601A8D98091E8008E778093E800809114
:106A3000E4009091E500F701938782870FB6F89400
:106A40009EBE0FBE8DBE0FB6F894BEBE0FBEADBECD
:106A50000F900F900F90DF91CF911F910F91FF90AA
:106A6000EF90DF90CF90BF90AF909F908F907F90EE
:106A70006F905F904F90089508950E943F260E9466
:106A8000EC190E94B7290E9474270E9424250E94B5
:106A9000511F0E94F3280E9407180E94142A0E9486
:106AA000CB2B28D90E94DD27C4CB0E94D72B809105
:106AB00094018823E1F30C94F42B6FDBF8942FEF0F
:106AC00087EA91E6215080409040E1F700C0000045
:106AD00080919401823011F40E94402680919401AB
:106AE000882359F09CE088E10FB6F894A89580932C
:106AF00060000FBE90936000FFCF0895BDDFBDDF43
:106B0000D4DFDBDF80E090E00895002480FD060EF6
:106B1000660F11F08695D1F7802D08950024552732
:106B200004C0080E591F880F991F009729F0769509
:106B30006795B8F37105B9F7802D952F0895991BC6
:106B400079E004C0991F961708F0961B881F7A9564
:106B5000C9F780950895AA1BBB1B51E107C0AA1F66
:106B6000BB1FA617B70710F0A61BB70B881F991FEE
:106B70005A95A9F780959095BC01CD01089597FB92
:106B8000072E16F4009406D077FD08D0E4DF07FC4A
:106B900005D03EF4909581959F4F0895709561952D
:106BA0007F4F0895EE0FFF1F0590F491E02D09949B
:106BB000FB01DC0104C08D910190801921F441504A
:106BC0005040C8F7881B990B0895FB01DC0102C0F7
:106BD00001900D9241505040D8F70895DC0101C05A
:106BE0006D9341505040E0F70895F999FECF92BD62
:106BF00081BDF89A992780B50895A8E1B0E042E0F8
:106C000050E01CC0DC01CB0102C02D9105D04150E9
:106C10005040D8F70895262FF999FECF1FBA92BD9C
:106C200081BD20BD0FB6F894FA9AF99A0FBE01966D
:106C30000895F1DF272FF0CFDC01CB01FC01F9999A
:106C4000FECF06C0F2BDE1BDF89A319600B40D92B8
:0C6C500041505040B8F70895F894FFCF71
:106C5C00028301000001540101000000000000004B
:106C6C00018202000001550102000000000000003A
:106C7C000384030000015701030000000000000022
:106C8C000081120000015A011200000000000000F7
:106C9C002400250023002700280026002A002B00B2
:026CAC002900BD
:00000001FF
