:100000000C94F8170C943B180C943B180C943B1868
:100010000C943B180C943B180C943B180C943B1814
:100020000C943B180C943B180C94B5300C943B1872
:100030000C94F3250C943B180C943B180C943B182F
:100040000C943B180C94C72B0C943B180C943B1845
:100050000C943B180C943B180C943B180C943B18D4
:100060000C943B180C943B180C943B180C943B18C4
:100070000C943B180C943B180C943B180C943B18B4
:100080000C943B180C943B180C943B180C943B18A4
:100090000C943B180C943B180C943B180C943B1894
:1000A0000C943B180C943B180C943B181A1EDC1A49
:1000B000E21AFE1A041B181E181EE31BE91B181E69
:1000C000181E181E181E181E181EC31CD91DFE1D32
:1000D000E01CFC1C1B1D401D591D7E1D9E1DB71DD7
:1000E000A231C531AC32C531AC320A322C32AC321D
:1000F0007E3290320000000000000000000000008E
:10010000000000002A002B0028000000000028004A
:1001100000000000000000000000000000000000DF
:1001200000000000000000000000290000000000A6
:10013000000000002C001E023402200221022202D4
:10014000240234002602270225022E0236002D004A
:100150003700380027001E001F0020002100220069
:1001600023002400250026003302330036022E002F
:10017000370238021F0204020502060207020802C3
:1001800009020A020B020C020D020E020F021002FB
:1001900011021202130214021502160217021802AB
:1001A00019021A021B021C021D022F00310030002E
:1001B00023022D0235000400050006000700080098
:1001C00009000A000B000C000D000E000F001000CB
:1001D000110012001300140015001600170018007B
:1001E00019001A001B001C001D002F0231023002F2
:1001F00035024C000000000000000000000000007C
:1002000000000000000000000000000000000000EE
:1002100000000000000000000000000000000000DE
:1002200000000000000000000000000000000000CE
:1002300000000000000000000000000000000000BE
:1022D000000000000000000000FF00FF00FF00FF02
:1022E00000FF00FF00FF00FF00FF00FF00FF00FFF6
:1022F00000FF00FF00FF00FF00FF00FF00FF00FFE6
:1023000000FF0000000000000000000000000000CE
:1023100000000000000000000000000000000000BD
:1023200000000000000000000000000000000000AD
:10233000000000080C000000000000000000000089
:10234000000000000000000000000000000000008D
:10235000000000000000000000000000000000007D
:10236000000000000000000000000000000000006D
:10237000000000000000000000000000000000005D
:10238000000000000000000000000000000000004D
:10239000000000000000000000000000000000003D
:1023A000000000000000000000000000000000002D
:1023B000000000000000000000000000000000001D
:1023C000000000000000000000000000000000000D
:1023D00000000000000000000000000000000000FD
:1023E00000000000000000000000010101011400D5
:1023F00000000000000000000000000000000000DD
:1024000000000000000000000000000000000000CC
:1024100000000000000000000101010114000000A4
:1024200000000000000000000000000000000000AC
:10243000000000000000000000000000000000009C
:102440000000000000000101010114000000000074
:10245000000000000000000000000000000000007C
:10246000000000000000000000000000000000006C
:10247000000000000101010114F52D4B28EF25009B
:102480000051282F2B9328EF25F52D5A28EF2500F2
:10249000006628D119C41AEF254F7574206F662085
:1024A00072616E67652E0A00456E746572206E65F6
:1024B000772064656661756C742064696D6D657202
:1024C000206C6576656C2028312D3136293E200040
:1024D000456E746572206E65772064656661756C03
:1024E00074206261636B6C6967687420656E6162F9
:1024F0006C652028312D31293E2000456E746572AF
:10250000206E6577206D61747269782073657475CB
:1025100070207761697420696E206379636C6573DC
:102520002028312D323535293E2000456E746572E4
:10253000206E6577207265706561742074696D65C1
:1025400020696E206D732028312D3939293E2000F5
:10255000456E746572206E657720686F6C642074B8
:10256000696D6520696E206D732028312D393939E8
:10257000293E2000456E746572206E6577206D6F70
:10258000757365206D6F76656D656E74206D756C05
:102590007469706C6965722028312D3939293E20A3
:1025A00000456E746572206E6577206261736520E8
:1025B0006D6F757365206D6F76656D656E7420281F
:1025C000312D3939293E2000456E746572206E65C3
:1025D0007720646F75626C657461702064656C61EE
:1025E000792074696D6520696E206D732028312D06
:1025F000393939293E2000456E746572206E657741
:10260000207461702074696D6520696E206D73207F
:1026100028312D393939293E2000456E74657220E4
:102620006E6577206465626F756E63652074696D91
:102630006520696E206D732028312D3939293E209F
:10264000005365743A00456E746572206E6577209C
:1026500064656661756C74206C61796572202830E0
:102660002D39293E20005573696E672064656661C7
:10267000756C74202268616972207472696767657D
:102680007222206465626F756E636520616C676F8E
:10269000726974686D20616E64207265736574740C
:1026A000696E67206465626F756E63652074696D1D
:1026B000652E0A005573696E6720616C7465726ED1
:1026C0006174652022636F6E6669726D2220646595
:1026D000626F756E636520616C676F726974686D97
:1026E00020616E6420726573657474696E6720641E
:1026F00065626F756E63652074696D652E0A004EA4
:10270000756D206C6F636B206973206C696E6B65EF
:102710006420746F207468652073797374656D200C
:102720006E756D206C6F636B2E0A004E756D206C9C
:102730006F636B2077696C6C2066756E6374696F6C
:102740006E20696E646570656E64656E746C792068
:102750006F66207468652073797374656D206E757B
:102760006D206C6F636B2E0A004B6579626F61722E
:10277000643A204E4B524F2C206D656469612F7076
:102780006F776572206B6579733A205945532C2019
:102790006D6F7573653A205945532E0A004B657964
:1027A000626F6172643A204E4B524F2C206D65640B
:1027B00069612F706F776572206B6579733A205964
:1027C00045532C206D6F7573653A204E4F2E0A00CD
:1027D0004B6579626F6172643A20364B524F2C2000
:1027E0006D656469612F706F776572206B657973B1
:1027F0003A205945532C206D6F7573653A20594521
:10280000532E0A004B6579626F61726420697320F0
:102810006C696D6974656420746F207374616E6493
:1028200061726420364B524F20626F6F742D636F5C
:102830006D70617469626C65206B6579626F61723D
:1028400064206F6E6C792E0A005363726F6C6C207B
:102850006C6F636B2077696C6C206E6F742061669F
:10286000666563742077696E206C6F636B2E0A0057
:1028700057696E646F7773206B65792077696C6C2C
:102880002062652064697361626C656420776865A5
:102890006E207363726F6C6C206C6F636B20697356
:1028A00020656E61626C65642E0A004E756D206C49
:1028B0006F636B2077696C6C206E6F742061666645
:1028C000656374206E756D62657220726F772E0A73
:1028D000004E756D62657220726F772077696C6C3F
:1028E000206265207377617070656420666F722066
:1028F0006E756D706164206B657973207768656EA5
:10290000206E756D206C6F636B20697320656E613E
:10291000626C65642E0A00496E707574206E6F7467
:10292000207265636F676E697A65642E0A000A54C7
:10293000696D696E67204D656E753A0A31292053BD
:102940006574206465626F756E63652074696D657A
:102950000A322920536574206D617820686F6C6499
:102960002074696D6520666F72207461700A332966
:1029700020536574206D61782064656C61792074E2
:10298000696D6520666F7220646F75626C65207476
:1029900061700A3429205365742062617365206D6B
:1029A0006F757365206D6F76656D656E740A352978
:1029B00020536574206D6F757365206D6F76656D3E
:1029C000656E74206D756C7469706C6965720A3619
:1029D0002920536574206D696E20686F6C642074C3
:1029E000696D6520666F72207265706561740A3763
:1029F000292053657420726570656174207065725A
:102A0000696F640A382920536574206D6174726996
:102A10007820736574757020776169740A3929208C
:102A20004261636B0A3E20000A436F6E666967204D
:102A30004D656E753A0A312920546F67676C6520C1
:102A40007669727475616C206E756D207061640AB0
:102A5000322920546F67676C652077696E206C6F30
:102A6000636B206F6E207363726F6C6C206C6F638E
:102A70006B0A3329205365742064656661756C7434
:102A8000206C617965720A342920546F67676C6520
:102A9000206B6579626F617264206665617475721E
:102AA00065730A352920546F67676C6520756E6CF5
:102AB000696E6B206E756D206C6F636B0A36292012
:102AC0005365742064656661756C742064696D6D0E
:102AD0006572206C6576656C0A3729205365742011
:102AE00064656661756C74206261636B6C696768AC
:102AF0007420656E61626C650A382920546F6767BF
:102B00006C65206465626F756E6365207374796CA3
:102B1000650A3929204261636B0A3E20000A4D6133
:102B2000696E204D656E753A0A312920436F6E66D5
:102B30006967206D656E750A32292054696D696E6A
:102B400067206D656E750A34292052657365740AB5
:102B5000392920517569740A3E20001E4D1F5120ED
:102B60004E21502200234F244A2552264B27493715
:102B70004CB500B600B700CD006F007000E200E574
:102B800000E900EA00520153015401550183018A12
:102B90000192019401210223022402250226022728
:102BA000022A02B101B202B304B408B510E001E197
:102BB00002E204E308E410E520E640E780010508AE
:102BC0000A0C0F101414181800386A050001730558
:102BD000010177050201680503016E050401760510
:102BE0000501780506016B050701650508017005FB
:102BF00009026C050B0269050D016F050E017405D4
:102C00000F0267051101720512016405130161418C
:102C1000624263436444654566466747684869495C
:102C20006A4A6B4B6C4C6D4D6E4E6F4F70507151CC
:102C3000725273537454755576567757785879593C
:102C40007A5A31213240332334243525365E3726F3
:102C5000382A392830290000000000000000202018
:102C60002D5F3D2B5B7B5D7D5C7C237E3B3A272289
:102C7000607E2C3C2E3E2F3F000000000000000034
:102C80000000000000000000000000000000000044
:102C90000000000000000000000000000000000034
:102CA00000000000000000000000000000002F2FC6
:102CB0002A2A2D2D2B2B0000310032003300340046
:102CC0003500360037003800390030002E005C7CBB
:102CD00000000000000000000000000000000000F4
:102CE0000000000000000000000000000000616221
:102CF000636465666768696A6B6C6D6E6F7071722C
:102D0000737475767778797A4142434445464748EB
:102D1000494A4B4C4D4E4F505152535455565758AB
:102D2000595A303132333435363738392122232459
:102D300025262728292A2B2C2D2E2F3A3B3C3D3E99
:102D40003F405B5C5D5E5F607B7C7D7E004A03454F
:102D50000061007300790041005600520020004DD0
:102D60000075006C00740069006D00650064006906
:102D700000610020004B006500790062006F006177
:102D800000720064002000760023002E0023002340
:102D9000002E00230023000000040309040902227E
:102DA00000010100A0320904000001030101000933
:102DB00021B0010001223F0007058103080001093D
:102DC000025400030100A0320904000001030101C4
:102DD000000921B0010001223F0007058103140012
:102DE000010904010001030000000921B0010001F4
:102DF000221B0007058203020008090402000103E8
:102E00000000000921B0010001221D000705830315
:102E100001000809026D00040100A032090400004D
:102E200001030101000921B0010001223F00070553
:102E300081030800010904010001030000000921C9
:102E4000B0010001221B00070582030200080904EB
:102E5000020001030000000921B0010001221D0051
:102E600007058303010008090403000103010200B0
:102E70000921B0010001223A00070584030300057F
:102E800009026D00040100A03209040000010301E1
:102E900001000921B0010001223F00070581031450
:102EA00000010904010001030000000921B0010034
:102EB00001221B0007058203020008090402000129
:102EC000030000000921B0010001221D0007058355
:102ED000030100080904030001030102000921B0F5
:102EE000010001223A0007058403030005120100D6
:102EF0000200000008EB03FF2010000001000105A4
:102F0000010980A101050115002501198129837599
:102F10000195038106950175058101C0050C090124
:102F2000A101050C160100269C021A01002A9C0230
:102F3000751095018100C005010902A1010901A1D7
:102F40000005091901290315002501950375018163
:102F5000029501750581010501093009311681FFCE
:102F6000267F00360000460000950275088106C0E5
:102F7000C005010906A101050719E029E71500258B
:102F800001750195088102950175088101050819EF
:102F900001290595057501910295017503910115AA
:102FA00000250105071900297F958075018102C060
:102FB00005010906A101050719E029E7150025010A
:102FC00075019508810295017508810105081901AF
:102FD000290595057501910295017503910115006B
:102FE00025FF0507190029FF950675088100C00017
:102FF00011241FBECFEFDAE0DEBFCDBF84B714BE11
:103000000FB6F894A8959091600098619093600035
:10301000109260000FBE83FF11C080918C059091CB
:103020008D058D3A9E4D51F410928D0510928C05B0
:10303000E8ECFBE225913491F901099585B78068A8
:1030400085BF85B7806885BF11E0A0E0B1E0E6E804
:10305000FBE602C005900D92AE35B107D9F725E029
:10306000AEE5B1E001C01D92AC38B207E1F70E94B5
:103070002D350C94C1350C940000109285011092EE
:1030800084011092800110927F0110928F011092A2
:103090008E0108959091810180918C01992399F17D
:1030A00081113AC080918301811129C08091A001D2
:1030B000811121C0E0917A01E91305C010928101CC
:1030C00010927A0129C081E08E0F80937A01F0E09E
:1030D000EE0FFF1FE057FE4F80819181813019F480
:1030E0009093830119C090937B018093A001882362
:1030F00099F011D611C044D61092A0010DC0815094
:103100008093830109C0811107C010927B018091D7
:1031100082018D7F8093820180918C01811103C097
:1031200081E080938C0108958091E00290917C0170
:10313000981731F180937C01882311F1883211F0C6
:10314000883531F4809182018B7F809382010895CC
:10315000E0917E018A3251F4EE2391F0E150E09348
:103160007E01F0E0EA57FE4F10820895E63040F409
:10317000AE2FB0E0AA57BE4F8C93EF5FE0937E0175
:1031800008958091E002811102C010928201089599
:10319000BC0180918101DB01982F292F281B9830D9
:1031A00058F090938101620F711D27FD7A957093FD
:1031B0008F0160938E0122C0FD0125913491211170
:1031C00009C09093810110928F0110928E01992372
:1031D000D1F014C0492F50E0F901FF27EE0FFF1F77
:1031E000EC50FF4F25913491440F551FFA01E057E1
:1031F000FE4F318320839F5F1196CFCF8091820154
:1032000083608093820181E008954091810128E0EC
:1032100030E0241B31092617370758F1B0E04B2F57
:103220000B2E000C550B46175707D8F4A0918101BF
:103230002A2F30E0FC01E40FF51FE081F0E0EE0FF3
:10324000FF1FEC50FF4F45915491220F331FF9019E
:10325000E057FE4F51834083AF5FA0938101BF5F72
:10326000DECF672B41F080918201836080938201E1
:1032700002C080E0089581E0089590918101983026
:1032800090F4E92FF0E0EE0FFF1FE057FE4F808330
:1032900061839F5F9093810180918201836080931D
:1032A000820181E0089580E008959C019091810160
:1032B00091112EC0A901983049F490938101205FAB
:1032C0003F4F30938501209384011BC0FA01659123
:1032D00074914E5F5F4F6115710549F490938101C0
:1032E0001092850110928401992381F00AC0E92F80
:1032F000F0E0EE0FFF1FE057FE4F718360839F5F8A
:10330000DACF8091820183608093820181E0089509
:1033100080E00895AC018091810181113EC06093ED
:103320008D01282F082E000C330B2617370758F570
:1033300090918101220F331F983038F0240F351FF0
:103340003093800120937F011EC0FA01E20FF31F2A
:1033500020813181E92FF0E0EE0FFF1FE057FE4F93
:10336000318320839F5F9093810190918D019150D3
:1033700090938D01911105C01092800110927F01F0
:1033800002C08F5FCECF80918101882341F0809170
:10339000820183608093820102C080E0089581E011
:1033A00008959091820191FD75CE20918401309114
:1033B00085012115310511F0C90177CF20917F01D9
:1033C000309180012115310539F060918D01062E73
:1033D000000C770BC9019ECF20918E0130918F0197
:1033E0002115310511F0C901D3CE92FD9DCEC9CE74
:1033F000E6E8F1E0108211821282138214821582B3
:1034000010927E018091E00280937C018091820184
:103410008560809382010895E82FF0E0EE0FFF1F92
:10342000EC50FF4F859194910895089508958A3046
:1034300010F4805D0895895C08951F93CF93DF9306
:10344000182FEB0182958F70F2DF8883812F8F70A8
:10345000EEDF8983DF91CF911F9108958F929F9224
:10346000AF92BF92CF92DF92EF92FF920F931F9392
:10347000CF93DF931F92CDB7DEB79C018B0180E322
:10348000FB01808380E28183828383E0E82EF12C3C
:1034900094E6892E912C4AE0B42E682D70E09110AC
:1034A00003C02617370790F06801C90CD11C97FCA0
:1034B000DA94C9010E944035A82E862F9983B7DF80
:1034C000F60180832A2D9981392F9394882D6B2DB5
:1034D0000E943435882EF1E0EF1AF108F1F60F90D2
:1034E000DF91CF911F910F91FF90EF90DF90CF90E0
:1034F000BF90AF909F908F90089597EA980F993062
:1035000010F48855089592EE980F993010F48D516B
:1035100008959CEF980F963010F48A5F089580E02C
:103520000895BF92CF92DF92EF92FF920F931F9375
:10353000CF93DF937C018B0180E090E0B12CC42F0E
:10354000D0E02B2D0B2C000C330B2017310790F4FF
:103550008C9F60018D9FD00C9C9FD00C1124F70193
:10356000E20FF31F8081C9DF9601280F311DC901C9
:10357000B394E7CFDF91CF911F910F91FF90EF9020
:10358000DF90CF90BF9008951F93CF93DF9300D02B
:1035900000D0CDB7DEB78091820181114BC3E0919D
:1035A000A1018E2F90E08A31910508F041C3FC0102
:1035B000EA5AFF4F0C9467358DE19BE2E9DD18DF95
:1035C00082E0DEC111E01093A1018091860195DFB8
:1035D000893009F42DC3843019F41093A2012AC351
:1035E000813011F483E0CCC1823029F487E0C8C176
:1035F000883009F4C9C087E199E2E3C088E29AE221
:10360000C7DDF6DE84E0BCC113E01093A101809118
:10361000860173DF893011F481E0B2C1813091F409
:103620009091770589278093770582E00E94702921
:1036300080917705882319F081ED98E2C2C08BEA6A
:1036400098E2BFC0823099F49091730581E0892798
:103650008093730581E00E9470298091730588230F
:1036600019F080E798E2ADC089E498E2AAC08330FF
:10367000B1F481E496E28CDDBE016F5F7F4F8091F3
:103680006805DBDE8AE08B8363E070E0CE010196A3
:10369000BCDD86E496E27CDDABDE8FE071C1843078
:1036A00051F580917605811109C081E080937605FE
:1036B00085E00E94702980ED97E283C0813049F453
:1036C00082E08093760585E00E9470298DE997E27B
:1036D00078C0823041F41093760585E00E9470290D
:1036E00084E098E26EC01092760585E00E94702911
:1036F00089E697E266C0853099F490916B0581E088
:10370000892780936B0587E00E94702980916B0563
:10371000882319F08BE297E254C08FEF96E251C0F4
:103720008630B9F481E496E233DD80916E05BE0106
:103730006F5F7F4F90E092DE8AE08B8363E070E002
:10374000CE01019662DD88EA94E222DD51DE80E15D
:1037500017C1873009F04CCF81E496E219DD8091E2
:10376000650590E0BE016F5F7F4F019677DE8AE0CE
:103770008B8363E070E0CE01019647DD80ED94E23B
:1037800007DD36DE81E1FCC09091640581E0892788
:103790008093640580E10E947029809164058823EC
:1037A00041F086E0809378050E94702984EB96E2D0
:1037B00008C08CE08093780586E00E94702986E638
:1037C00096E2E6DC37C28EE299E2E2DC11DE88E0C6
:1037D000D7C087E08093A101809186018EDE893079
:1037E00009F41ACF8130B9F481E496E2D1DC8091FA
:1037F0007805BE016F5F7F4F90E030DE8AE08B83FB
:1038000063E070E0CE01019600DD8AE196E2C0DC63
:10381000EFDD82E1B5C08230C1F481E496E2B8DC2C
:10382000BE016F5F7F4F809170059091710516DE2C
:103830008AE08C8364E070E0CE010196E6DC87EFDD
:1038400095E2A6DCD5DD83E19BC08330D9F481E429
:1038500096E29EDC80916C0590916D05BE016F5FD4
:103860007F4F919581959109F9DD8AE08C8364E021
:1038700070E0CE010196C9DC88EC95E289DCB8DD08
:1038800084E17EC08430B9F481E496E281DC8091E9
:103890006905BE016F5F7F4F90E0E0DD8AE08B83BA
:1038A00063E070E0CE010196B0DC81EA95E270DC65
:1038B0009FDD85E165C08530B9F481E496E268DC7E
:1038C00080916F05BE016F5F7F4F90E0C7DD8AE09A
:1038D0008B8363E070E0CE01019697DC84E795E28C
:1038E00057DC86DD86E14CC08630C1F481E496E287
:1038F0004FDCBE016F5F7F4F80917405909175051D
:10390000ADDD8AE08C8364E070E0CE0101967DDC61
:1039100080E595E23DDC6CDD87E132C08730B9F4AB
:1039200081E496E235DC80916705BE016F5F7F4FD1
:1039300090E094DD8AE08B8363E070E0CE01019635
:1039400064DC8BE295E224DC53DD88E119C0883029
:1039500009F070C181E496E21BDC80917205BE0122
:103960006F5F7F4F90E07ADD8AE08C8364E070E0E7
:10397000CE0101964ADC8BEF94E20ADC39DD89E165
:103980008093A10157C160917E0170E04AE086E812
:1039900091E0C7DD8A30910578F48093680583E073
:1039A0000E94702981E496E2F3DBBE016F5F7F4FD6
:1039B0008091680542DD1AC189E994E2E9DB12CE03
:1039C00060917E0170E04AE086E891E0AADD9C010A
:1039D000215031092336310558F48093780586E06B
:1039E0000E94702981E496E2D3DB8091780579C04A
:1039F00089E994E2CDDBFACD60917E0170E04AE086
:103A000086E891E08EDD9C0121503109273E33404C
:103A100078F7909371058093700589E00E94702972
:103A200081E496E2B5DBBE016F5F7F4F8091700548
:103A300090917105B8C060917E0170E04AE086E81F
:103A400091E06FDD9C0121503109273E334080F623
:103A500091958195910990936D0580936C058AE00D
:103A60000E94702981E496E293DB80916C0590912D
:103A70006D05BE016F5F7F4F91958195910993C050
:103A800060917E0170E04AE086E891E04ADD9C01A9
:103A9000215031092336310508F0AACF80936905FA
:103AA0008BE00E94702981E496E272DB80916905C7
:103AB00018C060917E0170E04AE086E891E031DD57
:103AC0009C01215031092336310508F091CF8093B4
:103AD0006F058CE00E94702981E496E259DB8091A9
:103AE0006F05BE016F5F7F4F90E0B8DC8AE08B838B
:103AF00063E070E0CE01019688DB78CD60917E01B5
:103B000070E04AE086E891E00CDD9C01215031092B
:103B1000273E334008F06CCF909375058093740571
:103B20008DE00E94702981E496E232DBBE016F5F76
:103B30007F4F809174059091750535C060917E012D
:103B400070E04AE086E891E0ECDC9C01215031090C
:103B50002336310508F04CCF809367058EE00E9434
:103B6000702981E496E214DB80916705BACF6091F9
:103B70007E0170E04AE086E891E0D3DC9C012150B0
:103B800031092F3F310508F033CF809372058FE064
:103B90000E94702981E496E2FBDA80917205BE01F1
:103BA0006F5F7F4F90E05ADC8AE08C8364E070E0C6
:103BB000A1CF60917E0170E04AE086E891E0B1DC3F
:103BC0009C01215031092031310508F0F5CE809358
:103BD0006E0584E00E94702981E496E2D9DA809132
:103BE0006E05BE016F5F7F4F90E038DC8AE08B830B
:103BF00063E070E0CE01019608DBF4CC60917E01B9
:103C000070E04AE086E891E08CDC019709F0D4CEC0
:103C10001092650588E00E94702981E496E2B8DA86
:103C20008091650590E0BE016F5F7F4F0196DDCF0B
:103C30001092A1010F900F900F900F90DF91CF91F4
:103C40001F91089526E0829FC0011124FC01E05CD1
:103C5000FE4F0190F081E02D208181E090E001C0D5
:103C6000880F6A95EAF7822B8083089526E0829F69
:103C7000C0011124FC01E05CFE4F0190F081E02DB9
:103C8000808160956823462B4083089526E0829FBB
:103C9000C0011124FC01E05CFE4F0280F381E02DA5
:103CA000208181E090E001C0880F6A95EAF7822BBD
:103CB0008083089526E0829FC0011124FC01E05C0E
:103CC000FE4F0280F381E02D208181E090E001C071
:103CD000880F6A95EAF7809582238083089526E00D
:103CE000829FC0011124FC01E05CFE4F0280F38141
:103CF000E02D80816823462B4083089526E0829F33
:103D0000C0011124FC01E05CFE4F0480F581E02D30
:103D1000808186230895E82FE695E695E695F0E004
:103D2000E253FD4F982F977021E030E001C0220F41
:103D30009A95EAF79081292B20839091C80220E080
:103D400029175CF4E22F022E000CFF0BE052FD4F0E
:103D500030813817A1F02F5FF3CF96305CF4E92F54
:103D6000092E000CFF0BE052FD4F80839F5F909364
:103D7000C80208951092E60281E080931E0408951F
:103D8000E82FE695E695E695F0E0E253FD4F982F93
:103D9000977021E030E001C0220F9A95EAF7209554
:103DA0009081292320839091C80240EE52E0FA01CD
:103DB0002E2F241B291724F431913813F9CF01C079
:103DC0000895E22F022E000CFF0BE052FD4F81817F
:103DD00080832F5F2917ACF391509093C802109203
:103DE0001E040895E82FE695E695E695F0E0E25387
:103DF000FD4F982F977021E030E001C0220F9A9577
:103E0000EAF79081292720839091C80240EE52E082
:103E1000FA012E2F241B291724F431913813F9CFDE
:103E200013C096305CF4E92F092E000CFF0BE05212
:103E3000FD4F80839F5F9093C80208951092E60221
:103E400081E080931E040895E22F022E000CFF0BE8
:103E5000E052FD4F818180832F5F2917ACF3915091
:103E60009093C80210921E04089590918803943094
:103E70005CF4E92F092E000CFF0BE753FD4F808304
:103E80009F5F90938803089540E060E070E082E4D3
:103E9000CDDA1092CD0208952091880349EC52E0CA
:103EA000FA019E2F941B92179CF431913813F9CF8D
:103EB000921751F0E92F092E000CFF0BE753FD4F2D
:103EC000818180839F5FF4CF915090938803089500
:103ED000682F70E040E083E4A9CA80916805809370
:103EE0002104089592E1899F600D11248091C302FD
:103EF00068130DC080916C0590916D05841795072E
:103F000034F4809120048F5F8093200408951092F0
:103F1000C302109220040895E0917005F09171059C
:103F20004E175F0754F491E0F9019083F2E18F9FFF
:103F3000600D11246093C3020895F901108210925C
:103F4000C30210922004089590918D01E92FEE0F85
:103F5000FF0BE851FD4F2091C50230E0322F2227A0
:103F6000282B3183208381E0890F80938D01803558
:103F700034F010921D0480937D0180E183C5089583
:103F800090912304911110C0805D8E3068F4E82F69
:103F9000F0E0EE0FFF1FE752FD4E85919491880FE0
:103FA000991F87529D4E81C90895CF93DF93C82FE3
:103FB000D62F5BDF8091210490916805891711F05D
:103FC0008B5F60D580E18C0F8093210485E18C0F9D
:103FD00039D58FE037D5809121049091C402D0FF6C
:103FE00002C0981308C0981308C080912004811162
:103FF00004C0809168058093C402DF91CF91089539
:10400000E82FF0E0EC50FE4F8491882311F060E03F
:10401000CCCF08951F93CF93DF9300D01F92CDB7DD
:10402000DEB7182F2B834A83698336DF2B814A81C1
:104030006981222391F120912104E22FF0E0812F68
:1040400090E0805F9109E817F90739F58091200425
:10405000882319F061FD2093C4028091C702811367
:104060001CC062FF1AC0141624F46091C502842F8C
:1040700013C0842F807E803E81F4E42FF0E0EE0FA9
:10408000FF1FE251F64D849180959091C5028923DE
:104090008093C502649180E0F0D8809121048B5F09
:1040A000F1D4E0918803E11103C08091C40207C0FC
:1040B0000E2E000CFF0BE853FD4F8081805F809334
:1040C00021048091210490916805891741F08B5F4C
:1040D0000F900F900F90DF91CF911F91B3C48FE09D
:1040E0000F900F900F90DF91CF911F91CBC4E82FCD
:1040F000F0E0EC50FE4F8491882321F020E040E076
:1041000060E088CF08956F70623051F028F4662324
:1041100039F0613081F00895643011F06830F1F4C5
:10412000E82FF0E0EE0FFF1FE251F64DE491809191
:10413000C502E82B0AC0E82FF0E0EE0FFF1FE251A6
:10414000F64DE4918091C502E827E093C502809185
:104150001F04882319F0E777E093C50208956F7074
:10416000623009F43EC018F4662379F10895643092
:1041700019F0683051F10895E82FF0E0EE0FFF1FBD
:10418000E251F64DE491E0956091C5026E23609393
:10419000C502222309F443C09091C70298133FC07F
:1041A000842F14168CF0807E803E09F038C0E42FF6
:1041B000F0E0EE0FFF1FE251F64D849180956823E9
:1041C0006093C502649180E058C8E82FF0E0EE0FDC
:1041D000FF1FE251F64DE491E0958091C502E8237E
:1041E0001CC0E82FF0E09091C502EE0FFF1FE251D6
:1041F000F64D222379F080912004882359F0849190
:10420000E82FE92BE093C50280911F04882339F041
:10421000E77703C0E491E095E923E093C5020895B0
:104220006F70623051F028F4662339F0613031F05C
:104230000895643011F0683011F46DCDD3CD089538
:104240006F70623049F018F461110DC00BC064301A
:1042500049F0683041F406C0222321F090912004F7
:10426000911101C08DCD08951F93CF93DF931F92BD
:10427000CDB7DEB7182F862F807F11F080937B019A
:10428000103C08F040C01D3B08F0BAC0103BD0F411
:10429000173908F0C7C0133809F47AC050F4143045
:1042A00008F416C1143708F460C0123809F468C065
:1042B0000FC1143809F476C089E7810F853008F4FE
:1042C00054C006C1163B09F4C2C088F4113B08F47F
:1042D000FFC0EFE4E10FF0E0EE0FFF1FEC55F44DEF
:1042E000E49180911B04E82BE0931B04F7C0183B7A
:1042F00009F4B7C008F4AFC0193B09F0E9C08091D8
:10430000E7028F5FB1C01F3C09F484C0C8F4183CB9
:1043100009F462C048F4113C09F44CC008F4D8C058
:10432000143C08F049C0D4C01A3C09F4D7C008F4C2
:104330005AC01E3C09F0CCC082E08093A201CEC0DE
:104340001F3D09F4B4C030F41E3D08F09CC0812F1D
:1043500017DEC4C0183E08F4B8C08FE0810F893062
:1043600008F0B6C0812F21DEB9C080911D048823DA
:1043700021F0812F6983E8DD6981812F51DFAEC093
:104380008091C60281FDAAC06091C50289E307C081
:104390008091C60280FDA2C06091C50283E50E94A3
:1043A0003D199CC08091C60282FD98C06091C502F3
:1043B00087E4F5CFE0D392C080911D0481118EC0B7
:1043C00081E080931D0410928D01809323048CE37F
:1043D000810F80937B0561C09091230481E0892740
:1043E000809323047BC090911F0481E089278093F0
:1043F0001F04811102C085E058C085E023D36EC040
:1044000081E093E4910F01C0880F9A95EAF78093B9
:10441000220464C08091A101811160C081E0809379
:10442000A1015CC08091890390918A03892B09F0D6
:1044300055C0E9E6E10FF0E0EE0FFF1FEF58F44D35
:104440008591949190938A038093890347C08091CA
:104450001C048F5F03C080911C04815080931C0456
:1044600005C08091E70281508093E7029091630537
:1044700080912004992321F090916105981770F59F
:10448000809361052BC090911D0481E08927809362
:104490001D04882321F010928D0180E1AFCF80911F
:1044A0008D01811180937D0180E1ECD217C0809154
:1044B0001D04811113C060917D01062E000C770B45
:1044C00088EE92E00E948A1909C0812F1CDE06C086
:1044D000612F70E040E084E40E94161A1093C70236
:1044E0000F90DF91CF911F9108951F93CF93DF938A
:1044F00000D01F92CDB7DEB7962F907F11F01092AB
:104500007B01873B09F4BAC0182F883B08F58C382B
:1045100098F4873808F044C0823809F468C028F459
:104520008CEF810F8037E0F1D1C0833809F467C088
:10453000843809F473C0CAC0863B08F09BC0813B35
:1045400008F088C0E9E6E80FE93108F46FC0BEC0A2
:104550008B3C80F4813C08F0C5C0893B09F498C0CD
:1045600008F492C083E4810F833008F0AFC010924A
:104570002204B8C0883E38F4803E08F08FC08E3CDC
:1045800008F0B0C0A3C08FE0810F893008F09EC052
:10459000812F0F900F900F90DF91CF911F913ACD07
:1045A00080911D048823D9F0809123048823B9F0D9
:1045B000183211F01B3299F41092230410921D044A
:1045C00080918D01815080937D0110927C0580E166
:1045D0002B834A83698356D269814A812B81812F3B
:1045E0000F900F900F90DF91CF911F9129CE809166
:1045F000C60281FF77C06091C50289E307C0809140
:10460000C60280FF6FC06091C50283E50F900F90D6
:104610000F90DF91CF911F910C943D198091C602AC
:1046200082FF60C06091C50287E4F0CFF0E0EE0F3A
:10463000FF1FEF58F44D859194912091890330919B
:104640008A032817390709F04DC010928A03109287
:10465000890348C06FE4680FE62FF0E0EE0FFF1FFC
:10466000EC55F44DE491E09580911B04E823E09330
:104670001B0438C080911C04815003C080911C042D
:104680008F5F80931C042EC08091E7028F5F03C070
:104690008091E70281508093E70224C080911D043D
:1046A000882361F08091C702811308C080E02B83CA
:1046B0004A83698349DC69814A812B81812F0F906C
:1046C0000F900F90DF91CF911F9149CD612F70E036
:1046D00040E085E40F900F900F90DF91CF911F91F4
:1046E0000C94161A0F900F900F90DF91CF911F919D
:1046F00008952091C502227291E009F090E0209186
:104700007705222359F0992349F02091C60220FF12
:1047100005C022EE280F2A3008F4855C20916B0535
:10472000222321F1833571F49091C60281E089271B
:104730008093C60280FF03C080E084D11FC080E068
:10474000A1D11CC027EA280F2B3080F42091C6028B
:10475000E82FF0E0EE0FFF1F20FF05C0992319F0AE
:10476000E755F54D02C0E655F54D84918A3C39F484
:10477000911102C085E3089589E2089580E00895CB
:10478000AF92BF92CF92DF92EF92FF920F931F935F
:10479000CF93DF9300D01F92CDB7DEB7D82E062F70
:1047A00010E08091210490E9C92E92E1D99E700118
:1047B0001124F701C89EE00DF11D1124E00FF11F37
:1047C000E75CF24F84914A835B83698392DFB82E62
:1047D000809121049701C89E200D311D1124200FC6
:1047E000311FF901E756F84FC490F901E750FE4F29
:1047F000A4900E0D1F1DF801ED5CFD4FB082F80175
:10480000E557FC4FC082F801ED55FE4FA0824A816A
:104810005B8169818D2D66DB4A2D6C2D8B2D24DD0E
:104820000F900F900F90DF91CF911F910F91FF90FC
:10483000EF90DF90CF90BF90AF900C941C2E9F9282
:10484000AF92BF92CF92DF92EF92FF920F931F939E
:10485000CF93DF931F92CDB7DEB792E1899F90018E
:104860001124260F311DF901ED5CFD4F6F01B08061
:10487000F901E557FC4F7F01A08089010D551E4FBE
:10488000F80190809E012F5F3F4F46DB2981492D23
:104890006A2D8B2D2ADEF6011082F7011082F801B5
:1048A00010820F90DF91CF911F910F91FF90EF90A9
:1048B000DF90CF90BF90AF909F90089522E1829FAC
:1048C000C00111249C01260F311DF901ED5CFD4F43
:1048D0008081F901E557FC4F908193FF1AC01816AB
:1048E0001CF46091C50213C0982F907E903E89F40D
:1048F000E82FF0E0EE0FFF1FE251F64D8491809516
:104900009091C50289238093C502649180E00C9444
:104910003D19089520912304211112C0FC01A0EE3D
:10492000B2E0069621E030911E04332311F020837B
:1049300002C03C91308331961196E817F90799F738
:10494000089520912304211109C0DC01EEECF2E06E
:1049500082E18E0F91919D938E13FCCF0895FC01FF
:1049600080912304811106C080917B019091C50242
:10497000982B9083089522E1829FC0011124FC01AD
:10498000E60FF11DE75CF24FE491E83211F0E835F3
:1049900039F441E060E070E081E50E94161A00C43D
:1049A000089590E09C01220F331F820F931FFC019A
:1049B000EB5FFC4D2491FC0131968D5F9C4DED5FCA
:1049C000FC4D621721F06491FC0184915FC96491F0
:1049D000FC0184916FC90F931F93CF93DF93E4E39E
:1049E000F3E2D49103E013E2C0E0CD1769F0F801DF
:1049F00031966491F801849125D960E08C2FD1DF44
:104A0000CF5F0D5F1F4FF1CF80916E0580932F0414
:104A1000DF91CF911F910F91089580912C04893FD0
:104A200069F4809131048F3E19F41092310403C06F
:104A30008F5F8093310410922C0408958F5F8093D0
:104A40002C04089590E0880F991FFC01E752FD4D5A
:104A5000A491FC01E652FD4D8491E3E3F3E2E4917D
:104A6000AE1778F4B0E0AC5DBB4F811103C08C9100
:104A7000816006C09C919170E82FEE0F892F8E0FF8
:104A80008C93089590E0880F991FFC01E752FD4D2B
:104A9000A491FC01E652FD4D8491E3E3F3E2E4913D
:104AA000AE1780F4B0E0AC5DBB4F811104C08C91B7
:104AB0008E7F8C9308959C91292F2695281302C0F0
:104AC00091709C930895823049F0833079F0813061
:104AD000A1F481E1B7DF82E1D5DF0CC081E1D2DF53
:104AE00082E1D0DF83E1AEDF84E1CCCF81E1CADFB8
:104AF00082E1A8DF83E1C6DFF7CF81E1C3DF82E196
:104B0000C1DF83E1BFDF84E19DCF0F931F93CF937C
:104B1000E3E3F3E2E491C0E00E2F10E08C2F0C2EC3
:104B2000000C990B8017910714F520912D04222376
:104B3000C9F0FC01EC5DFB4F2081223018F42111FB
:104B40000FC010C0E22FE695F0E0E354F44D6491FD
:104B5000809131040E943435921720F490FF02C0F6
:104B600061E001C060E08C2F1CDFCF5FD7CFCF9119
:104B70001F910F91089580912F04803110F081E0F2
:104B800002C08C5F8C7F80932F0408958091300445
:104B90008F5F813118F480933004089581E0809311
:104BA000300410922E04089590912F04903120F03B
:104BB00081E080932D04089580912E04209130048B
:104BC000929F902D1124891738F491E090932D0431
:104BD000805F80932E04089510922D040895D6DFEF
:104BE000E3DF1BDF92CF1F920F920FB60F921124BB
:104BF0000F900FBE0F901F901895E4E6F0E08081B3
:104C000080718083A5E6B0E08C9186778C9380815B
:104C100081608083808184608083808180628083E2
:104C20008081806480838C9188608C93808180688F
:104C300080838081826080838C9181608C938C9151
:104C40008F778C9390E080E80FB6F89480936100A2
:104C5000909361000FBE0895D0CF8DEA9EED9093A2
:104C60008D0580938C05089580E189BD82E189BD21
:104C700009B400FEFDCF8091D8008F7D8093D800CD
:104C80008091E00082608093E0008091E00081FDEF
:104C9000FCCF0895CF93DF93962F642F22E1929F4C
:104CA000E0011124C40FD11DCC0FDD1FC35CDB4F0D
:104CB00048815981882301F157FF0EC02091780562
:104CC00030E0319521953109241735077CF1892F82
:104CD00057DD84E090E020C0209174053091750587
:104CE0004217530794F0892FE9DD209167058881E9
:104CF0009981821B910910C01416150684F4209125
:104D0000780530E0421753071CF44C5F5F4F10C02A
:104D1000892F95DD8CEF9FEF998388830BC080915D
:104D20006C0590916D058417950724F44450510942
:104D300059834883DF91CF9108950F931F93CF93A9
:104D4000DF93082F862F642F92E1899FE0011124C1
:104D5000C40FD11DCC0FDD1FC35CDB4F5981011186
:104D600010C057FD27C08881952F937020916C0546
:104D700030916D058217930708F404969983888310
:104D800039C057FF17C00881152F13702091740583
:104D9000309175050217130730F090DD809167059B
:104DA000081B110902C00C5F1F4F198308838981FA
:104DB000806817C0152F169516951F711C5F90916E
:104DC0007805191780F048815370002311F0D8DC62
:104DD00001C035DD212F30E039832883898100FB34
:104DE00087F9898307C01F71110F110F5378252F81
:104DF000212B2983DF91CF911F910F910895CF929D
:104E0000DF92EF92FF921F93CF93DF93E0ECF3E2F8
:104E1000E491E0933204EFEBF3E2E491E0933804A1
:104E2000EEEBF3E2E491E0933B04EDEBF3E2E4918B
:104E3000E0933C0483EBE82E83E2F82E93E3C92E43
:104E400094E0D92ED0E0F7011491809138048111BB
:104E50001FEFF7013196C4914C2F612F8D2F0E94C7
:104E6000361E2C2F2095F60121936F01422F4123EE
:104E700080913804642F6095811101C040E08D2F2E
:104E80000E946F1EDF5FF2E0EF0EF11CD530D9F605
:104E900080916405882371F08DE996E290933A043D
:104EA0008093390480917805813250F080E28093BC
:104EB000780506C08AE496E290933A048093390418
:104EC000DF91CF911F91FF90EF90DF90CF900895E9
:104ED000CF92DF92EF92FF920F931F93CF93C0E098
:104EE00080913B0490E02C2F0C2E000C330B2817E4
:104EF00039070CF054C083E3E82E84E0F82EF5E087
:104F0000CF026001112400E010E0F801EC0DFD1D5E
:104F1000E75AFC4D4491F70161917F01802F0E9477
:104F20006F1E0F5F1F4F0530110579F780917205D5
:104F30008A95F1F710E0212F012E000C330B8091A0
:104F40003C0490E02817390744F580913804220F7B
:104F5000331FF901EA5CFC4D882351F06491F9019B
:104F6000EB5CFC4D84910E947E1E882351F013C09F
:104F70006491F901EB5CFC4D84910E947E1E8823B4
:104F800051F080913204882319F06C2F812F02C0D8
:104F9000612F8C2FF0DC1F5FCECFCF5FA1CFCF91E1
:104FA0001F910F91FF90EF90DF90CF900895CF92D7
:104FB000DF92EF92FF920F931F93CF93DF93D62F41
:104FC000C82FCD170CF05EC083E3E82E84E0F82EE6
:104FD000F5E0CF026001112400E010E0F7016191DB
:104FE0007F016F3F49F0F801EC0DFD1DE75AFC4DC4
:104FF0004491802F0E946F1E0F5F1F4F05301105D7
:1050000069F7809172058A95F1F710E0212F012E42
:10501000000C330B80913C0490E02817390784F58D
:1050200080913804220F331FF901EA5CFC4D88237C
:1050300059F06491F901EB5CFC4D84910E947E1E55
:1050400091E0882361F00AC06491F901EB5CFC4DAA
:1050500084910E947E1E91E0811101C090E08091B8
:105060003204E0913904F0913A04882319F04C2F6E
:10507000612F02C0412F6C2F892F09951F5FC6CF6A
:10508000CF5F9FCFDF91CF911F910F91FF90EF9056
:10509000DF90CF90089560913B046695669580E01F
:1050A00086CF80913B04682F70E075956795869553
:1050B00086957DCF80913B0493E0899FB0011124B8
:1050C0007595679575956795869571CF60913B0449
:1050D00023E0629FC001112495958795959587954A
:1050E00066CF81E080936005089520916005AC0152
:1050F000249FC001259F900D11246AE070E00E945A
:10510000403580915F05562F581B852F60935F05B2
:105110002F5F209360052B3028F010925F0591E0FF
:1051200090936005089580911C04811104C08091C2
:10513000E702882311F181E08093630520916905DE
:105140008091610590916F0530916205311120C009
:10515000899FC0011124820F911DC7DF90911C040B
:10516000899F902D112490935E059091E702899F6D
:10517000802D112480935D050BC010926305109261
:105180005F0510925E0510925D058AE080936005D0
:1051900080916205811103C081E0809362050895CA
:1051A000CF93DF93CDB7DEB764970FB6F894DEBF29
:1051B0000FBECDBF80E280936A05109273051092F6
:1051C00077051092680540E140936E0510927605D0
:1051D0003CE03093780510926B051092650560EF06
:1051E00070E0709371056093700568E87FEF7093CD
:1051F0006D0560936C0595E0909369052FE0209311
:105200006F0560E273E07093750560937405809399
:105210006705909372051092640589831A821B8238
:105220001C824D831E823F831886198630EF3A8791
:105230001B8638E83C873FEF3D879E872F87888B0A
:1052400023E0298B8A8B9B8B1C8A44E150E060E031
:1052500070E0CE0101960E94973564960FB6F894DF
:10526000DEBF0FBECDBFDF91CF9108950F931F9387
:10527000CF93DF93CAECDBE2FE0132968491319644
:10528000E49190E0E23059F4FE01059114918050D0
:1052900090400E949235F8019183808309C0FE01FD
:1052A00005911491805090400E948A35F8018083C6
:1052B0002496FCE2CE30DF07F9F660916A05603291
:1052C00031F070E041E080E50E94161A69DF8091BC
:1052D000760580936605DF91CF911F910F91089518
:1052E00024E0829FC0011124FC01E453F44D249179
:1052F000FC01E353F44D3491FC01E653F44D822F4D
:1053000090E0323041F4A591B4916D917C91805040
:1053100090400C94AE35A591B4916C918050904022
:105320000C94A03585E080937C05089580917B05E1
:105330002EE28202C0011124FC01E651FC4D449191
:10534000FC01E551FC4D3491FC01E451FC4D2491EC
:10535000FC01E351FC4D949150918D0180917905B0
:10536000513079F01CF4552331F01FC0523081F0D8
:105370005330A9F01AC0442321F06AE10E94343569
:105380002EC0332329F06AE10E943435965E27C08F
:10539000222329F06AE00E9434359C5C20C09923C6
:1053A00021F0982F9F71925C1AC0442311F06AE19A
:1053B00001C060E03111665E2111665F9111605E8F
:1053C0000E943435411101C0965E311103C09A31FB
:1053D00034F0965E211103C094330CF0965FE92FF0
:1053E000990FFF0BE251F34D84910895845092720E
:1053F000E82FF0E0EE0FFF1F911103C0E25FF34DC5
:1054000002C0E15FF34D849108950F931F93CF93F2
:10541000DF93E0917B0520918D01022E000C330B70
:10542000CE2F0E2E000CDD0B8EE2E802F0011124CF
:10543000E751FC4D649170E0C9010E945435082F7A
:105440001091790560917D01062E000C770BC90142
:105450000E945435FC01FF27EE0FFF1FE851FD4F5E
:1054600080819181C3DF810F982F990F87FD9F5F06
:10547000909379058EE28C9FF0018D9FF00D1124A1
:10548000E00FF11DEF53FC4DE49180917905E82781
:10549000E0937905DF91CF911F910F910895EF92DD
:1054A000FF920F931F93CF93DF931F92CDB7DEB779
:1054B00080917B052EE28202C0011124FC01E251A1
:1054C000FC4D6491062F10E020E530E0201B310BED
:1054D000220F331FA90148515D4F7A0120917C05AD
:1054E000223009F444C028F4222351F02130C9F0BD
:1054F000AEC0233009F45BC0243009F47FC0A7C0DC
:105500001092790521E020937C0510928D01FC0119
:10551000E751FC4DE491E1119AC085E080937C0550
:1055200096C020918D01FC01E20FF11D27FDFA9537
:10553000EF53FC4DE491409179054E0F409379056E
:105540002F5F20938D01FC01E751FC4D8491022EC9
:10555000000C330B90E0281739070CF478C082E078
:1055600080937C0510928D0140937A0570C0109154
:105570007A05E0918D01EE0FFF0BE851FD4F808120
:105580009181698333DF810F80937A0590918D013A
:105590009F5F90938D0120917D01698192170CF49A
:1055A00056C00E94343590937A0583E022C02DDFE7
:1055B00080917A05E80EF11CE80EF11CB7DE0E941E
:1055C0000C1AF7019183808380917A0590E001960F
:1055D000B8010E94543580937A0580918D018F5FC8
:1055E00080938D01082E000C990B801791077CF198
:1055F00084E080937C0510928D0129C080918D01FB
:10560000282F220F330BFA01E20FF31F4081518143
:10561000F901E851FD4F518340838F5F80938D01E5
:10562000082E000C990B801791078CF085E0809371
:105630007C0560937D01B80188EE92E00F90DF91C8
:10564000CF911F910F91FF90EF900C948A190F90BA
:10565000DF91CF911F910F91FF90EF90089580916E
:105660007C05853009F01BCF089513BC1092800093
:105670001092820080E89EE39093890080938800D6
:10568000089510927D057894109285001092840000
:1056900081E08093810082E080936F009AE088E14E
:1056A0000FB6F894A895809360000FBE90936000A9
:1056B000E0E6F0E08081806C808308950FB6F89476
:1056C000A8958091600088618093600010926000CE
:1056D0000FBEE0E6F0E080818F7B808310926F0048
:1056E000109281000895CF93DF93C0E0D0E08091C5
:1056F0007D05FE0124E0829FE00DF11D1124EE0FD7
:10570000FF1FE758FB4D85919491009721F0C093BE
:105710007F05FC0109952196C430D10541F7DF9141
:10572000CF910895109285001092840080917E059B
:10573000882381F080917D0560917F0570E0782B52
:1057400040E081E10E94161A80917E058F5F809370
:105750007E05089581E080937E057894C4DF809172
:105760007D058F5F80937D05843010F010927D055C
:1057700080917E05823038F060917E0570E040E0D7
:1057800084E10E94161AA89510927E0508951F9232
:105790000F920FB60F9211242F933F934F935F9365
:1057A0006F937F938F939F93AF93BF93EF93FF93E9
:1057B000B9DFFF91EF91BF91AF919F918F917F9151
:1057C0006F915F914F913F912F910F900FBE0F906E
:1057D0001F901895292F33272330310529F13CF4E8
:1057E0002130310561F02230310571F07FC0213266
:1057F000310549F12232310509F445C077C082E113
:1058000090E02DEE3EE27BC080916605833009F486
:1058100059C0813009F45BC0823009F45DC08DE667
:1058200090E020E83EE26BC09927009731F00197A5
:1058300009F05CC0EDE4FDE202C0E9E9FDE284911B
:1058400090E09F015CC06130A1F050F06230B1F097
:10585000633009F04BC089E090E02DED3EE24FC08F
:105860008091660580FD3DC089E090E022E93EE23E
:1058700046C089E090E02BEA3EE241C089E090E03A
:1058800024EC3EE23CC0613099F048F06230A9F06F
:10589000633061F58AE390E027E33FE230C0809116
:1058A000660580FD28C08FE390E021E73FE227C036
:1058B0008BE190E02CE13FE222C08DE190E02FEF00
:1058C0003EE21DC082E290E02DE93DE218C08DE687
:1058D00090E023E13EE213C084E590E02FEB3DE24F
:1058E0000EC089E090E02FEA3DE209C080E090E040
:1058F00020E030E004C08FE390E020EB3FE2FA01CB
:1059000031832083089581E0DEC80895CF93DF932B
:1059100080E391E08BD7C82F80916605833049F0F2
:1059200080E191E083D7D82F80E091E07FD78D236D
:10593000C8238091660581FD04C080E291E076D79E
:10594000C823CC2311F080E001C083E0BCD8809153
:10595000E20084608093E200DF91CF91089580E3BC
:1059600091E02CD680916605833031F080E191E0A2
:1059700025D680E091E022D68091660581FD03C0A6
:1059800080E291E01BC6089580913E0190913F0115
:10599000009729F0019790933F0180933E01209159
:1059A00066052330B1F080911E0190911F01009790
:1059B00029F0019790931F0180931E0180910E01A1
:1059C00090910F01009729F0019790930F01809318
:1059D0000E0121FD0BC080912E0190912F010097A7
:1059E00029F0019790932F0180932E01089580E074
:1059F0006AC882E068C880E066C80F931F93CF939F
:105A0000DF93F901D801EC012881213009F441C06C
:105A100030F0223009F446C0233031F14AC0EF01A2
:105A2000FC0110928C0120916605CE01029620FDAA
:105A300006C02185222319F00E94A12402C00E94E1
:105A40008A24CE010E94AF248091660580FF06C0A3
:105A500088E090E0F801918380832BC084E190E09E
:105A6000E8019983888325C01092620580911B0408
:105A7000808380915E05818380915D05828383E0D0
:105A800090E08D939C9381E090916305911112C0F9
:105A900010C08091890390918A039183808382E072
:105AA00090E005C080912204808381E090E08D9396
:105AB0009C9380E0DF91CF911F910F910895CF9338
:105AC0008053914009F081C0F90180818093C60222
:105AD000C0915F01C82780935F01CC2309F475C092
:105AE00090916B05911111C0C0FF0FC080FF07C0DE
:105AF00080E00E94222580E00E94002006C080E015
:105B00000E94422580E00E947720C1FF11C0809151
:105B1000C60281FF07C081E00E94222581E00E9429
:105B2000002006C081E00E94422581E00E9477208B
:105B3000C2FF24C08091C60282FF11C082E00E9491
:105B4000222582E00E940020809173058823B1F015
:105B500081E080931F0485E00E9422250FC082E02F
:105B60000E94422582E00E9477208091730588235D
:105B700029F010921F0485E00E944225C3FF11C046
:105B80008091C60283FF07C083E00E94222583E044
:105B90000E94002006C083E00E94422583E00E940C
:105BA0007720C4FF12C08091C60284FF07C084E042
:105BB0000E94222584E0CF910C94002084E00E9472
:105BC000422584E0CF910C947720CF910895809165
:105BD000660580FF09C088E08093380188E090E086
:105BE0009093330180933201089580E391E031D6A0
:105BF00080916605833031F080E191E02AD680E023
:105C000091E027D68091660581FD03C080E291E096
:105C100020D6BAD48091830590915E01981759F0EF
:105C20006091830570E041E086EA0E94161A809137
:105C3000830580935E01089580918105882329F072
:105C400080918305853009F40FC80895CF92DF92C3
:105C5000EF92FF920F931F93CF93DF93EC018B0191
:105C60007A01DED1811133C0E114F10439F0F7017A
:105C700080819181081B190BC80FD91FC12CD12C11
:105C80000115110519F18091E80085FD16C080917C
:105C9000E8008E778093E80077D4E114F10449F0AE
:105CA000F70180819181C80ED91ED182C08285E022
:105CB0000EC0B6D1882321F30AC089918093F100E8
:105CC00001501109FFEFCF1ADF0ADACF80E0DF9130
:105CD000CF911F910F91FF90EF90DF90CF9008959B
:105CE00020918A0530918B052617370748F06115FA
:105CF000710539F42091E8002E772093E80001C067
:105D0000B90140E061157105A9F1209183052223B5
:105D100009F443C0253009F442C02091E80023FD76
:105D200040C02091E80022FD32C02091E80020FF11
:105D3000E9CF4091F3002091F20030E0342BFC01D8
:105D4000CF016115710559F02830310540F481917A
:105D50008093F100615071092F5F3F4FF1CF41E017
:105D60002830310509F040E02091E8002E7720939B
:105D7000E800C8CF4111C9CF0AC0809183058823AC
:105D800061F0853061F08091E80083FD0AC0809168
:105D9000E80082FFF2CF80E0089582E0089583E07A
:105DA000089581E008956115710529F42091E800B6
:105DB0002B772093E800FC016115710541F180917A
:105DC0008305882361F1853061F18091E80083FDCE
:105DD00024C08091E80082FFEFCF2091F3008091F2
:105DE000F20090E0922B892B31F08091F1008193A9
:105DF0006150710991F78091E8008B778093E800FA
:105E0000DBCF80918305882351F0853051F080915C
:105E1000E80080FFF6CF80E0089581E0089582E0F9
:105E2000089583E0089520918A0530918B05261707
:105E3000370748F06115710539F42091E8002E7795
:105E40002093E80001C0B901FC0120E06115710553
:105E500091F180918305882309F440C0853009F4CD
:105E60003FC08091E80083FD3DC08091E80082FD45
:105E70002FC08091E80080FFE9CF2091F30080914E
:105E8000F20090E0922B6115710559F08830910570
:105E900040F424912093F1003196615071090196EC
:105EA000F2CF21E0089709F020E08091E8008E779A
:105EB0008093E800CBCF2111CCCF0AC0809183051D
:105EC000882361F0853061F08091E80083FD0AC08D
:105ED0008091E80082FFF2CF80E0089582E008958B
:105EE00083E0089581E00895982F973058F59093B6
:105EF000E900981739F07091EC002091ED00509175
:105F0000F00003C0242F762F50E021FF19C03091FC
:105F1000EB003E7F3093EB003091ED003D7F3093FE
:105F2000ED003091EB0031603093EB007093EC00AA
:105F30002093ED005093F0002091EE0027FF07C062
:105F40009F5FD3CF8F708093E90081E0089580E058
:105F50000895EF92FF920F931F93CF93DF93E62E56
:105F6000EC018C010C5F1F4FF12CFE1491F1588154
:105F7000552351F1F801208169817A81319790810F
:105F8000852F8F70873010F080E024C0223010F40D
:105F900042E001C046E0E8E0F0E020E0E617F70765
:105FA00020F42F5FEE0FFF1FF9CF2295207F422BA9
:105FB000F0E49F9F90011124551F5527551F652F11
:105FC000622B92DF882301F3F39425960B5F1F4F1A
:105FD000CCCF81E0DF91CF911F910F91FF90EF9097
:105FE00008958091840587FF11C08091E80082FDAB
:105FF00005C0809183058111F8CF11C08091E80020
:106000008B770BC080918305882349F08091E8004D
:1060100080FFF8CF8091E8008E778093E8000895A4
:106020002091E4003091E50095E64091EC00842F4A
:10603000817040FF22C08091E80080FD1CC08091EB
:106040008305882391F0853091F08091EB0085FDE8
:1060500010C04091E4005091E5004217530729F326
:106060009A01915011F784E0089582E0089583E049
:10607000089581E0089580E008954091E80042FF8E
:10608000DECF089565D06CD0E0EEF0E080818160D5
:106090008083E8EDF0E080818F77808319BCA7EDE5
:1060A000B0E08C918E7F8C9380818F7E8083109264
:1060B000820508950F931F93CF93DF9349D050D05B
:1060C000C8EDD0E088818F77888388818068888355
:1060D00088818F7D888319BC10928305109280057A
:1060E0001092810500EE10E0F80180818B7F8083A3
:1060F00088818160888342E060E080E0F5DEE1EE47
:10610000F0E080818E7F8083E2EEF0E0808181602C
:106110008083808188608083F80180818E7F808386
:10612000888180618883DF91CF911F910F910895BD
:10613000E8EDF0E080818F7E8083E7EDF0E0808104
:106140008160808384E082BF81E080938205B2CF4A
:10615000E8EDF0E080818E7F80831092E200089568
:106160001092DA001092E10008951F920F920FB67C
:106170000F9211242F933F934F935F936F937F93CD
:106180008F939F93AF93BF93EF93FF938091E10021
:1061900082FF0AC08091E20082FF06C08091E10088
:1061A0008B7F8093E100F0DB8091DA0080FF1DC0DF
:1061B0008091D80080FF19C08091DA008E7F809393
:1061C000DA008091D90080FF0CC080E189BD82E1B6
:1061D00089BD09B400FEFDCF81E08093830593DB88
:1061E00004C019BC1092830590DB8091E10080FF10
:1061F00018C08091E20080FF14C08091E2008E7F81
:106200008093E2008091E20080618093E2008091BF
:10621000D80080628093D80019BC85E08093830504
:10622000E8DB8091E10084FF2FC08091E20084FFD1
:106230002BC080E189BD82E189BD09B400FEFDCF9C
:106240008091D8008F7D8093D8008091E1008F7E6F
:106250008093E1008091E2008F7E8093E200809144
:10626000E20081608093E20080918005882311F034
:1062700084E007C08091E30087FD02C081E001C097
:1062800083E080938305B7DB8091E10083FF22C028
:106290008091E20083FF1EC08091E100877F8093A0
:1062A000E10082E080938305109280058091E100F7
:1062B0008E7F8093E1008091E2008E7F8093E200E8
:1062C0008091E20080618093E20042E060E080E043
:1062D0000BDE8DDBFF91EF91BF91AF919F918F917D
:1062E0007F916F915F914F913F912F910F900FBED2
:1062F0000F901F9018951F93CF93DF93CDB7DEB704
:10630000AA970FB6F894DEBF0FBECDBFE4E8F5E064
:1063100088E08E0F9091F10091938E13FBCF1FDBDD
:106320008091E80083FF18C18091840590918505D4
:10633000492F50E04A30510508F00EC1FA01E059EA
:10634000FF4FC5C3803881F0823809F005C18091C4
:1063500088058F708093E9008091EB0085FB88278A
:1063600080F91092E90007C080918105882311F01F
:1063700082E001C080E09091E800977F9093E80070
:106380008093F1001092F100C4C0282F2D7F09F0F6
:10639000E3C0882319F0823061F0DEC08091860569
:1063A000813009F0D9C0933009F080E080938105F5
:1063B0002BC080918605811127C0809188058F7040
:1063C00009F4CAC08093E9002091EB0020FF1CC0B3
:1063D000933021F48091EB00806214C09091EB0027
:1063E00090619093EB0021E030E0A90102C0440FDE
:1063F000551F8A95E2F74093EA001092EA008091D7
:10640000EB0088608093EB001092E9008091E80037
:10641000877F82C08111A0C0109186051F7780916F
:10642000E3008078812B8093E3008091E800877FF0
:106430008093E800D6DD8091E80080FFFCCF80915A
:10644000E30080688093E300111102C082E001C084
:1064500083E08093830580C08058823008F07CC040
:1064600080918605909187058C3D53E0950771F5E5
:1064700083E08A838AE289834FB7F894DE0113961A
:1064800020E03EE051E2E32FF0E050935700E4912A
:1064900020FF03C0E295EF703F5FEF708E2F90E01A
:1064A000EA3010F0C79601C0C0968D939D932F5F80
:1064B000243149F74FBF8091E800877F8093E8003F
:1064C0006AE270E0CE0101960BDC12C0AE014F5FB4
:1064D0005F4F609188057ED9BC01892B09F43CC0CF
:1064E0009091E800977F9093E80089819A819BDCE6
:1064F0008091E8008B778093E8002EC0803861F5AA
:106500008091E800877F8093E800809180058093E8
:10651000F1008091E8008E778093E80062DD1CC076
:1065200081111AC0909186059230B0F48091E800F4
:10653000877F8093E8009093800553DD80918005EC
:10654000811106C08091E30087FD02C081E001C097
:1065500084E080938305DAD98091E80083FF0AC044
:106560008091E800877F8093E8008091EB00806253
:106570008093EB00AA960FB6F894DEBF0FBECDBF96
:10658000DF91CF911F910895CF9380918305882348
:1065900099F0C091E900CF709091EC00892F817043
:1065A00090FD80E8C82B1092E9008091E80083FDFF
:1065B000A2DECF70C093E900CF9108956F927F92D1
:1065C0008F929F92AF92BF92CF92DF92EF92FF9203
:1065D0000F931F93CF93DF9300D01F92CDB7DEB7F9
:1065E0007C01CDB6DEB68091E80083FF08C1F701DB
:1065F000808190E02091880530918905281739071E
:1066000009F0FDC080918505833009F49FC030F406
:10661000813071F0823009F4D6C0F1C08A3009F4BB
:10662000BAC08B3009F4A3C0893009F0E8C051C06A
:1066300080918405813A09F0E2C08DB69EB61A8237
:10664000198280918605109187058B83F7018085DB
:10665000482F50E08DB79EB7841B950B0FB6F8946A
:106660009EBF0FBE8DBFEDB7FEB731965F0160E0F4
:1066700070E0CF0148D24FEF410F8E010F5F1F4FE7
:106680009501BE016D5F7F4FC701B7D9F7018681C4
:106690009781009721F0408550E0B5012BD21092F0
:1066A000E9008091E800877F8093E8008B81811169
:1066B0008093F10069817A81C50112DB8091E80045
:1066C0008B778093E8000FB6F8949EBE0FBE8DBE08
:1066D00096C080918405813209F091C0ADB6BEB6F6
:1066E00000918A0510918B05709086056090870552
:1066F0008DB79EB7801B910B0FB6F8949EBF0FBE4F
:106700008DBFEDB7FEB731964F018091E800877FCE
:106710008093E800B801CF0146DB8091E8008E77D6
:106720008093E80021E0711001C020E030E0021BFE
:10673000130B280D391D4FEF460D672DC701BFD92B
:106740000FB6F894BEBE0FBEADBE59C08091840591
:10675000813A09F054C08091E800877F8093E80077
:106760008091E80080FFFCCFF701818540C08091D7
:106770008405813209F043C08091E800877F8093CF
:10678000E8002FDC9091860581E0911101C080E046
:10679000F701818734C080918405813281F5809131
:1067A000E800877F8093E8001CDC8091860590914B
:1067B0008705882736E0969587953A95E1F7F701A2
:1067C000958784871CC080918405813AC1F48091AB
:1067D000E800877F8093E8008091E80080FFFCCF8D
:1067E000F7018485958596958795969587958093ED
:1067F000F1008091E8008E778093E800F2DB0FB61D
:10680000F894DEBE0FBECDBE0F900F900F90DF91BB
:10681000CF911F910F91FF90EF90DF90CF90BF909D
:10682000AF909F908F907F906F900895FC01399664
:1068300027E0DF011D922A95E9F721E0FC0121877D
:1068400024EF31E03587248723E0248361E001963B
:1068500080CB4F925F926F927F928F929F92AF9276
:10686000BF92CF92DF92EF92FF920F931F93CF933D
:10687000DF9300D01F92CDB7DEB77C01ADB6BEB6B8
:1068800080918305843009F08DC08091E40090915F
:10689000E500F701228533852817390709F482C0FE
:1068A00081818F708093E9008091E80085FF7AC034
:1068B0008DB69EB6408550E08DB79EB7841B950B74
:1068C0000FB6F8949EBF0FBE8DBFEDB7FEB73196E1
:1068D0006F011B821A82198260E070E0CF0113D130
:1068E0008E010F5F1F4F960140E0BE016D5F7F4F2D
:1068F000C70183D8482EF70184859585892B51F0EF
:1069000091E080E026853785232B09F090E0092F60
:10691000182F02C000E010E0F70166807780611454
:10692000710489F049815A81B301C601D6D055243A
:106930005394892B09F4512CF701408550E0B6019E
:10694000C301D8D001C0512C89819A81892BF1F0E3
:10695000411004C0511002C0012BC1F0F701848521
:1069600095859787868781818F708093E9008B81D9
:1069700081118093F10069817A8140E050E0C60185
:1069800065D98091E8008E778093E8008091E400DB
:106990009091E500F701938782870FB6F8949EBE29
:1069A0000FBE8DBE0FB6F894BEBE0FBEADBE0F902B
:1069B0000F900F90DF91CF911F910F91FF90EF906B
:1069C000DF90CF90BF90AF909F908F907F906F900F
:1069D0005F904F90089508950E942C260E94151AEA
:1069E0000E9436290E94FF260E94EB240E946D1F00
:1069F0000E9471280E943D180E9492290E94352B06
:106A0000E6D80E94682794CB0E94412B8091A20176
:106A10008823E1F30C945E2B35DBF8942FEF87EAA3
:106A200091E6215080409040E1F700C00000809145
:106A3000A201823011F40E942D268091A2018823A8
:106A400059F09CE088E10FB6F894A8958093600017
:106A50000FBE90936000FFCF0895BDDFBDDFD4DF90
:106A6000DBDF80E090E00895991B79E004C0991F76
:106A7000961708F0961B881F7A95C9F78095089598
:106A8000AA1BBB1B51E107C0AA1FBB1FA617B70754
:106A900010F0A61BB70B881F991F5A95A9F7809570
:106AA0009095BC01CD01089597FB072E16F4009434
:106AB00006D077FD08D0E4DF07FC05D03EF49095C2
:106AC00081959F4F0895709561957F4F0895EE0FC2
:106AD000FF1F0590F491E02D0994FB01DC0104C037
:106AE0008D910190801921F441505040C8F7881BC6
:106AF000990B0895FB01DC0102C001900D924150F9
:106B00005040D8F70895DC0101C06D9341505040CA
:106B1000E0F70895F999FECF92BD81BDF89A9927C3
:106B200080B50895A8E1B0E042E050E01CC0DC016F
:106B3000CB0102C02D9105D041505040D8F70895A7
:106B4000262FF999FECF1FBA92BD81BD20BD0FB689
:106B5000F894FA9AF99A0FBE01960895F1DF272F5B
:106B6000F0CFDC01CB01FC01F999FECF06C0F2BDEC
:106B7000E1BDF89A319600B40D9241505040B8F7FB
:066B80000895F894FFCF18
:106B86000283010000016001010000000000000016
:106B96000182020000016101020000000000000005
:106BA60003840300000163010300000000000000ED
:106BB60000811400000166011400000000000000BE
:106BC6002400250023002700280026002A002B0089
:0E6BD60029002D002E002C00300031002F0071
:00000001FF
