:100000000C9406130C9456130C9456130C9456131C
:100010000C9456130C9456130C9456130C945613BC
:100020000C9456130C9456130C94742D0C94561374
:100030000C94B2230C9456130C9456130C94561330
:100040000C9456130C9466280C9456130C94561367
:100050000C9456130C9456130C9456130C9456137C
:100060000C9456130C9456130C9456130C9456136C
:100070000C9456130C9456130C9456130C9456135C
:100080000C9456130C9456130C9456130C9456134C
:100090000C9456130C9456130C9456130C9456133C
:1000A0000C9456130C9456130C945613F01A5016C5
:1000B000561678167E169B17F31721189C181B19D5
:1000C0005319261A751A991AA816CA16E416FC1698
:1000D00011176717521864186D18781881185B1873
:1000E000B21ACA1ADE1A8A19A019B319C919DA196B
:1000F000EC19001A141AA817AB17B117BB17C117C0
:10010000C417CA17D517DB17DE17B117E417EA179C
:10011000AD18B018B618B918BF18C718CD18D81828
:10012000DE18E118E718EA18F018F818FE18051993
:100130000B19601965196A196F19741979197E19E3
:100140008319361A391A401A431A491A541A5A1A74
:10015000592E802E6F2F802E6F2FCB2EEC2E6F2FCF
:10016000402F4F2F000000000000000000000000A2
:10017000000000002A002B002800000000002800DA
:10018000000000000000000000000000000000006F
:100190000000000000000000000029000000000036
:1001A000000000002C001E02340220022102220264
:1001B000240234002602270225022E0236002D00DA
:1001C0003700380027001E001F00200021002200F9
:1001D00023002400250026003302330036022E00BF
:1001E000370238021F020402050206020702080253
:1001F00009020A020B020C020D020E020F0210028B
:10020000110212021302140215021602170218023A
:1002100019021A021B021C021D022F0031003000BD
:1002200023022D0235000400050006000700080027
:1002300009000A000B000C000D000E000F0010005A
:10024000110012001300140015001600170018000A
:1002500019001A001B001C001D002F023102300281
:1002600035024C000000000000000000000000000B
:10027000000000000000000000000000000000007E
:10028000000000000000000000000000000000006E
:10029000000000000000000000000000000000005E
:1002A000000000000000000000000000000000004E
:101F60000000000000000000000000000000FF0072
:101F7000FF00FF00FF00FF00FF00FF00FF00FF0069
:101F8000FF00FF00FF00FF00FF00FF00FF00FF0059
:101F9000FF00FF00FF00FF00FF0000000000000046
:101FA0000000000000000000000000000000000031
:101FB0000000000000000000000000000000000021
:101FC00000000000000000000000080C00000000FD
:101FD0000000000000000000000000000000000001
:101FE00000000000000000000000000000000000F1
:101FF00000000000000000000000000000000000E1
:1020000000000000000000000000000000000000D0
:1020100000000000000000000000000000000000C0
:1020200000000000000000000000000000000000B0
:1020300000000000000000000000000000000000A0
:102040000000000000000000000000000000000090
:10205000000000AB238426CC260000AB238A261A7E
:10206000150000AB23932638160000AB239F2600F3
:1020700000000042797465732028686578293E2045
:1020800000416464726573732028686578293E2076
:102090000020532D3078005D20432D3078000A5BFE
:1020A000004F7574206F662072616E67652E0A009E
:1020B000496E76616C69642073656C656374696FE1
:1020C0006E2E0A003A204F4646003A204F4E00201E
:1020D0005B312D31365D3E2000205B312D323535B0
:1020E0005D3E2000205B312D3939395D3E200020D6
:1020F0005B312D39395D3E2000205B302D395D3E4E
:102100002000205B303D4F46462C20313D4F4E5D38
:102110003E2000205B312D345D3E20004465666129
:10212000756C74204261636B6C69676874204D6FD5
:1021300064650044656661756C74204261636B6C14
:102140006967687420456E61626C6500446566610C
:10215000756C742044696D6D6572204C6576656C94
:10216000004D6174726978205365747570205761F1
:10217000697420286379636C657329005265706502
:10218000617420506572696F6420286D7329004D59
:10219000696E20486F6C642054696D6520666F72AB
:1021A0002052657065617420286D7329004D6F752C
:1021B0007365204D6F76656D656E74204D756C741A
:1021C00069706C6965720042617365204D6F75734B
:1021D00065204D6F76656D656E74004D61782044A5
:1021E000656C61792054696D6520666F7220446F5B
:1021F00075626C652054617020286D7329004D61F3
:102200007820486F6C642054696D6520666F722079
:1022100054617020286D7329004465626F756E6388
:10222000652054696D6520286D732900416C7465C3
:10223000726E617465204465626F756E63652053CC
:1022400074796C6500556E6C696E6B6564204E75B3
:102250006D204C6F636B00426F6F74204B65796229
:102260006F6172640044656661756C74204C6179BD
:1022700065720057696E204C6F636B206F6E205340
:1022800063726F6C6C204C6F636B0056697274756F
:10229000616C204E756D20506164000A392920421E
:1022A00061636B0A3E20000A382920000A37292082
:1022B000000A362920000A352920000A3429200086
:1022C0000A332920000A322920000A312920000A75
:1022D0004C4544204D656E753A000A54696D696E2F
:1022E00067204D656E753A000A436F6E6669672018
:1022F0004D656E753A000A4465627567204D656EDE
:10230000753A0A3129205072696E74206576656EBF
:1023100074730A322920436C656172206576656E9C
:1023200074730A3329204578616D696E65206D6587
:102330006D6F72790A3429205072696E742F636C44
:1023400065617220636C6F636B2D696E730A392946
:10235000204261636B0A3E20000A4D61696E204D88
:10236000656E753A0A312920436F6E666967206D84
:10237000656E750A32292054696D696E67206D6536
:102380006E750A3329204C4544206D656E750A34FC
:1023900029204465627567206D656E750A352920B0
:1023A00052657365740A392920517569740A3E2093
:1023B000001E4D1F51204E21502200234F244A253C
:1023C00052264B2749374CB500B600B700CD006FF9
:1023D000007000E200E500E900EA005201530154F8
:1023E00001550183018A01920194012102230224F3
:1023F000022502260227022A02B101B202B304B466
:1024000008B510E001E102E204E308E410E520E68B
:1024100040E7800105080A0C0F1014141818003842
:10242000BE040001C8040101CC040201BC04030184
:10243000C3040401CB040501CD040601BF04070158
:10244000C2040801C5040902C0040B02BD040D0149
:10245000C4040E01C9040F02BB041101C704120118
:10246000B9041301BA0414014A0345006100730062
:10247000790041005600520020004D0075006C00AC
:10248000740069006D00650064006900610020004F
:102490004B006500790062006F006100720064000B
:1024A0002000760023002E00230023002E002300AE
:1024B000230000000403090409026D00040100A0C8
:1024C000FA0904000001030101000921B001000123
:1024D00022400007058103080001090401000103EF
:1024E0000000000921B0010001223200070582032B
:1024F0000300080904020001030000000921B001E3
:102500000001222700070583030E000109040300D0
:1025100001030102000921B0010001223A00070570
:1025200084030300051201000200000008EB03FF12
:1025300020100000010001050C0901A1018502160F
:102540000100269C021A01002A9C02751095018147
:1025500000C005010980A101850319812983750146
:102560009503810695058101C005010902A10109B4
:1025700001A100050919012903150025019503751D
:1025800001810295017505810105010930093116A6
:1025900081FF267F00360000460000950275088105
:1025A00006C0C005010906A101050719E029E715C4
:1025B00000250175019508810215002501050719FF
:1025C000002967956875018102C005010906A1010E
:1025D000050719E029E71500250175019508810215
:1025E00095017508810105081901290595057501F1
:1025F0009102950175039101150026FF0005071949
:102600000029FF950675088100C00F00E2E8F5E09B
:1026100085EC9AE001C08193EF3FF907E0F3D9F32D
:1026200011241FBECFEFDAE0DEBFCDBFC4B714BEAA
:102630000FB6F894A895809160008861809360003F
:10264000109260000FBEF894C3FF11C08091800506
:10265000909181058D3A9E4D51F410928105109212
:102660008005EEE1F4E285919491FC01099585B72E
:10267000806885BF85B7806885BFC0937F0511E0FE
:10268000A0E0B1E0ECEAF4E602C005900D92AE35B0
:10269000B107D9F724E0AEE5B1E001C01D92AB3F30
:1026A000B207E1F70E949F310C9454320C94000061
:1026B00010926C0110926B011092670110926601EA
:1026C000109275011092740108959091B803809151
:1026D000BD03892B9091B703892B9091B603892B69
:1026E00020916801222309F462C0811167C08091A2
:1026F0006A01811158C080918601811141C0909179
:102700006101291305C010926801109261010895BA
:10271000E92FF0E0EE0FFF1FEA58FE4F8081218184
:1027200030916201813059F420936A019F5F909348
:102730006101332309F442C01092620105C02317DE
:1027400031F02093620181E08093BD03089580936E
:102750008601181614F4D0D70DC099E6980F993158
:1027600018F40E94541C06C093E4980F933010F4A0
:102770000E94831C809161018F5F809361010895A5
:1027800087FD02C0EBD70CC099E6980F993118F479
:102790000E946B1C05C08D5B833010F40E94901C5E
:1027A000109286010895815080936A0108958111E5
:1027B00005C0809169018D7F8093690108958091A2
:1027C0003F0290916301891731F18093630188235F
:1027D00011F1883211F0883531F4809169018B7FD5
:1027E000809369010895E09165018A3251F4EE23E6
:1027F00091F0E150E0936501F0E0E359FE4F108263
:102800000895E63040F4AE2FB0E0A359BE4F8C934C
:10281000EF5FE093650108951092620181E080937B
:10282000BD0380913F02811102C010926901089599
:10283000AC0180916801BA01982F292F281B98308C
:1028400048F090936801420F511D509375014093D9
:10285000740122C0FB01259134916F5F7F4F2111DC
:1028600009C0909368011092750110927401992328
:10287000C1F012C0F901FF27EE0FFF1FEC59FE4F08
:1028800025913491E92FF0E0EE0FFF1FEA58FE4F3B
:10289000318320839F5FD1CF8091690183608093D2
:1028A000690181E008954091680128E030E0241B2F
:1028B00031092617370740F150E0252F30E0261761
:1028C0003707D0F440916801FC01E20FF31FE0816B
:1028D000F0E0EE0FFF1FEC59FE4F25913491E42FED
:1028E000F0E0EE0FFF1FEA58FE4F318320834F5F69
:1028F000409368015F5FE1CF672B41F080916901F0
:1029000083608093690102C080E0089581E00895AA
:1029100090916801983090F4E92FF0E0EE0FFF1FDE
:10292000EA58FE4F808361839F5F90936801809196
:10293000690183608093690181E0089580E00895D2
:102940009C019091680191112EC0A901983049F421
:1029500090936801205F3F4F30936C0120936B018F
:102960001BC0FA01659174914E5F5F4F611571054F
:1029700049F49093680110926C0110926B019923B5
:1029800081F00AC0E92FF0E0EE0FFF1FEA58FE4F7A
:10299000718360839F5FDACF809169018360809348
:1029A000690181E0089580E00895AC01809168019B
:1029B00081113CC060937301282F30E02617370740
:1029C00058F590916801220F331F983038F0240F8A
:1029D000351F30936701209366011EC0FA01E20F94
:1029E000F31F20813181E92FF0E0EE0FFF1FEA583D
:1029F000FE4F318320839F5F909368019091730114
:102A0000915090937301911105C01092670110923B
:102A1000660102C08F5FD0CF80916801882341F0AA
:102A20008091690183608093690102C080E008950C
:102A300081E0089590916901992319F191FD45CEA6
:102A400020916B0130916C012115310511F0C90104
:102A500077CF20916601309167012115310529F06A
:102A60006091730170E0C901A0CF20917401309191
:102A700075012115310511F0C901DACE92FD9FCE05
:102A8000CBCE0895EDE6F1E010821182128213821E
:102A9000148215821092650180913F028093630138
:102AA00080916901856080936901089508959091EE
:102AB000BD01903178F4E92FF0E09F01220F331F20
:102AC000E20FF31FE757FE4F8083728361839F5F9E
:102AD0009093BD01089541111AC09091BD01E9E89C
:102AE000F1E040E050E0491790F49A01A0814F5F77
:102AF0005F4F3396A813F7CFF901EE0FFF1F2E0F8C
:102B00003F1FF901E757FE4F728361830895CFCFCE
:102B10008A3010F4805D0895895C08951F93CF93E7
:102B2000DF93182FEB0182958F70F2DF8883812F5E
:102B30008F70EEDF8983DF91CF911F9108951F93EE
:102B4000CF93DF93182FEB01892FE8DFBE016E5F73
:102B50007F4F812FDF91CF911F91E0CF9F92AF9256
:102B6000BF92CF92DF92EF92FF920F931F93CF937A
:102B7000DF939C018B0180E3FB01808380E28183F2
:102B8000828383E0E82EF12CD4E6C0E09AE0B92EEF
:102B90006D2F70E0C11103C02617370778F0680168
:102BA000CC0ED11CC9010E94E631982EA92E862F89
:102BB000AFDFF6018083292D3A2DCF5F8D2F6B2D4E
:102BC0000E94DA31D82FF1E0EF1AF10809F7DF910E
:102BD000CF911F910F91FF90EF90DF90CF90BF901A
:102BE000AF909F90089597EA980F993010F4885508
:102BF000089592EE980F993010F48D5108959CEF3E
:102C0000980F963010F48A5F089580E00895BF927F
:102C1000CF92DF92EF92FF920F931F93CF93DF93A8
:102C20007C018B0180E090E0B12CC42FD0E02B2DF3
:102C300030E02017310790F4C89F6001C99FD00C85
:102C4000D89FD00C1124F701E20FF31F8081CBDF56
:102C50009601280F311DC901B394E9CFDF91CF91BF
:102C60001F910F91FF90EF90DF90CF90BF9008954C
:102C70000F931F93CF93DF9300D000D0CDB7DEB773
:102C8000809169018111ACC4E09187018E2F90E0A1
:102C900085329105A8F4FC01EA5AFF4F0C94FA31F1
:102CA00089E593E2C5DDEEDE82E071C411E01093A8
:102CB00087011092880180916D0195DF893019F4A8
:102CC000109287018DC4853019F41093BE0188C419
:102CD000813011F485E05BC4823009F42FC3833066
:102CE00009F454C4843009F440C080EB90E216C467
:102CF00086EF92E29DDDC6DE84E049C483E08093E6
:102D0000870180916D016FDF893011F481E03FC44C
:102D1000813011F48EE03BC4823071F4E9E8F1E0D7
:102D200089EB91E010821282118233968E179F07F1
:102D3000C9F71092BD0154C4833031F481E890E2A8
:102D400077DDA0DE81E123C4843079F683E11FC4FE
:102D500080918801803158F0109288018AE089833F
:102D600061E070E0CE0101969EDD83E010C48EE943
:102D700090E25EDDBE016F5F7F4F80918801CEDE05
:102D800062E070E0CE0101968EDD87E990E250DDD1
:102D90008FE0FDC38091880190E0FC01EE0FFF1FE2
:102DA0008E0F9F1FFC01E757FE4FBE016F5F7F4FE5
:102DB0008081B4DE62E070E0CE01019674DD81E9CD
:102DC00090E236DD80E1E3C38091880190E0FC0170
:102DD000EE0FFF1F8E0F9F1FFC01E757FE4FBE0136
:102DE0006F5F7F4F81819281AADE64E070E0CE0147
:102DF000019659DD8EE071C36091650170E040E19C
:102E00008DE691E004DF9093BA018093B9011092AE
:102E1000BC011092BB0183E790E20ADD33DE82E160
:102E2000B6C38091BB019091BC01892B89F40091BC
:102E3000B9011091BA016091650170E040E18DE641
:102E400091E0E5DE800F911F9093BC018093BB0160
:102E500010E20AE0E091B901F091BA018091BB0162
:102E60009091BC01E817F907D8F4BE016F5F7F4F5E
:102E7000808154DE8091BB019091BC01019720912B
:102E8000B9013091BA012817390711F40B8301C039
:102E90001B8363E070E0CE01019605DD81110DC05A
:102EA0002091B9013091BA018091BB019091BC0190
:102EB0002817390708F059CF93C38091B901909131
:102EC000BA0101969093BA018093B901C3CF809162
:102ED0008801803178F0109288018AE0898361E06E
:102EE00070E0CE010196DFDC83E0809387010E94D1
:102EF000892876C3182F1370082F0695069511118F
:102F000002C08AE001C080E2898361E070E0CE0106
:102F10000196C9DC44E0149FF0011124E00FF11D7B
:102F2000EE0FFF1FE153FB4FBE016F5F7F4F8081AC
:102F3000918105DEB6C2E09188018E2F90E08D3040
:102F4000910508F04AC0FC01E558FF4F0C94FA3196
:102F500088EE92E293C28AEC92E26ADC8BE892E21B
:102F60008DC28091BF04882319F08AEC90E286C25A
:102F700084EC90E283C285EC92E25ADC83E792E231
:102F80007DC28091C804EFCF80EC92E251DC85E6EF
:102F900092E274C28AE3898380E28A838091BC04CE
:102FA000BE016D5F7F4F90E08CC28BEB92E240DC04
:102FB00087E592E263C28091CB04D5CF86EB92E2A3
:102FC00037DC85E492E25AC281EB92E231DC8CE29A
:102FD00092E254C28091B904C6CF8BE992E228DC18
:102FE00051DD86E07AC287E08093870180916D0190
:102FF000FADD80938801893009F488CE813019F494
:103000008BE892E28BC2823019F483E792E286C2A7
:10301000833019F485E692E281C2843019F487E5A1
:1030200092E27CC2853019F485E492E277C2863060
:1030300019F48CE292E272C280EB90E2F9DB85E057
:1030400073C2809188018330C9F048F4813089F0DF
:10305000823019F582E091E2EBDB85E11FC085301B
:10306000B9F088F08630C9F482E091E2E1DB89E1D1
:1030700015C082E091E2DCDB84E110C089EF90E2D0
:10308000D7DB86E10BC082E091E2D2DB87E106C0AC
:1030900082E091E2CDDB88E101C085E08093870189
:1030A000F1DC44C280916D019EDD823048F4809352
:1030B000CC0482E01AC080916D0195DD823050F120
:1030C00081EA90E2B5DB06CE80916D018CDD823025
:1030D000B8F78093C80481E008C080916D0183DD5A
:1030E0008A3070F78093BC0483E00E94B227F2CD4F
:1030F00080916D0178DD823018F78093CB0485E0F4
:10310000F4CF80916D016FDD8230D0F68093BF04E3
:1031100087E0EBCF8093B90480E10E94B2278091D1
:10312000B904882321F086E08093CD04DECF8CE0C3
:103130008093CD0486E0D9CF8AE3898380E28A83B5
:10314000E09188018E2F90E08131910508F06DC0EB
:10315000FC01E857FF4F0C94FA318AED92E28EC1E0
:103160008AEC92E265DB89E192E288C18091CD042C
:1031700047C085EC92E25CDB8EEF91E27FC1BE013D
:103180006D5F7F4F8091C5049091C6044AC080EC6A
:1031900092E24EDB8BED91E271C18091C00490917F
:1031A000C104BE016D5F7F4F91958195910939C032
:1031B0008BEB92E23DDB87EC91E260C18091BD0434
:1031C0001FC086EB92E234DB8DEA91E257C1809119
:1031D000C40416C081EB92E22BDB8FE891E24EC172
:1031E000BE016D5F7F4F8091C9049091CA0419C0E0
:1031F0008CEA92E21DDB8CE791E240C18091BB0436
:10320000BE016D5F7F4F90E04BC187EA92E210DB19
:1032100081E691E233C18091C704BE016D5F7F4FAB
:1032200090E09CDC65E070E04FC18BE992E200DB4E
:1032300029DC89E052C18AE08093870180916D0189
:10324000D2DC80938801893009F460CD813019F493
:1032500089E192E263C1823019F48EEF91E25EC19E
:10326000833019F48BED91E259C1843019F487EC65
:1032700091E254C1853019F48DEA91E24FC1863054
:1032800019F48FE891E24AC1873019F48CE791E292
:1032900045C1883019F481E691E240C180EB90E2AB
:1032A000C7DA88E041C1E09188018E2F90E0FC01EF
:1032B0003197E830F10560F5E756FF4F0C94FA318D
:1032C0008FEE90E2B5DA8DE1E9CE84EE90E2B0DAED
:1032D0008EE1E4CE84EE90E2ABDA8FE1DFCE8FEECA
:1032E00090E2A6DA80E2DACE8FEE90E2A1DA81E215
:1032F000D5CE84EE90E29CDA82E2D0CE8FEE90E2E0
:1033000097DA83E2CBCE89ED90E292DA84E2C6CE00
:1033100088E0C4CE6091650170E04AE08DE691E0FE
:1033200076DC9C01215031092336310520F480934D
:10333000CD0486E076C081EA90E27ADA88E027C19F
:103340006091650170E04AE08DE691E060DC9C01EF
:1033500021503109273E334070F79093C604809383
:10336000C50489E05EC06091650170E04AE08DE6C9
:1033700091E04DDC9C0121503109273E3340D8F6C5
:103380009195819591099093C1048093C0048AE03E
:1033900048C06091650170E04AE08DE691E037DC5D
:1033A0009C01215031092336310528F68093BD0454
:1033B0008BE037C06091650170E04AE08DE691E0F6
:1033C00026DC9C01215031092336310508F0B3CFAA
:1033D0008093C4048CE025C06091650170E04AE0F0
:1033E0008DE691E014DC9C0121503109273E3340E9
:1033F00008F0A1CF9093CA048093C9048DE011C056
:103400006091650170E04AE08DE691E000DC9C018E
:10341000215031092336310508F08DCF8093BB044C
:103420008EE00E94B2278ACF6091650170E04AE089
:103430008DE691E0ECDB9C01215031092F3F3105F5
:1034400008F079CF8093C7048FE0EBCF8AE38983BC
:1034500080E28A83E09188018E2F90E08730910589
:10346000B8F5FC01EF55FF4F0C94FA318FEC92E266
:1034700005C08AEC92E2DCD98CE491E2D9D92FC064
:103480008091C304BDCE85EC92E2D2D983E391E270
:10349000F5CF8091C20490E0BE016D5F7F4F019631
:1034A0005DDB64E070E010C080EC92E2C1D98CE199
:1034B00091E2E4CF8091BA0490E0BE016D5F7F4F4E
:1034C00001964CDB63E070E0CE010196ECD907C0B9
:1034D0008BE992E2ADD9D6DA8CE0809387018091B6
:1034E00088018F5F809388017BC08DE08093870186
:1034F00080916D0178DB80938801893009F406CCD6
:10350000813019F48CE491E209C0823019F483E32C
:1035100091E204C0833021F48CE191E289D960C04A
:1035200080EB90E285D98BE080938701109288012F
:1035300057C080918801823049F0833061F081303A
:1035400079F48FEC90E274D98AE1A8CD8FEC90E207
:103550006FD98BE1A3CD83E191E26AD98CE19ECD55
:103560008BE09CCD6091650170E04AE08DE691E0D2
:103570004EDB9C01215031092031310520F480932C
:10358000C30484E018C081EA90E252D98BE08093B2
:10359000870126C06091650170E04AE08DE691E008
:1035A00036DB9C01215031092031310560F7815013
:1035B0008093C20488E00E94B227E8CF6091650141
:1035C00070E04AE08DE691E022DB9C012150310958
:1035D00024303105C0F681508093BA0481E1EBCFED
:1035E0000F900F900F900F90DF91CF911F910F913F
:1035F000089526E0829FC0011124FC01E05CFE4F8B
:103600000190F081E02D208181E090E001C0880FE1
:103610006A95EAF7822B8083089526E0829FC00195
:103620001124FC01E05CFE4F0190F081E02D8081CF
:1036300060956823462B4083089526E0829FC00151
:103640001124FC01E05CFE4F0280F381E02D20811B
:1036500081E090E001C0880F6A95EAF7822B8083B1
:10366000089526E0829FC0011124FC01E05CFE4F1A
:103670000280F381E02D208181E090E001C0880F7D
:103680006A95EAF7809582238083089526E0829FD9
:10369000C0011124FC01E05CFE4F0280F381E02DAB
:1036A00080816823462B4083089526E0829FC001D5
:1036B0001124FC01E05CFE4F0480F581E02D808147
:1036C00021E030E002C0220F331F6A95E2F790E05C
:1036D0002823392381E0232B09F480E0089526E094
:1036E000829FC0011124FC01E05CFE4F0480F58143
:1036F000E02D808186230895E82FE695E695E695EE
:10370000F0E0EE5CFD4F982F977021E030E001C0B3
:10371000220F9A95EAF79081292B208391E09093CC
:10372000B80320912C02EFE3F2E090E0921729F029
:103730003191831791F09F5FF9CF963048F4E92FCC
:10374000F0E0E15CFD4F80839F5F90932C02089531
:103750001092450281E08093BC030895E82FE6951E
:10376000E695E695F0E0EE5CFD4F982F977021E02E
:1037700030E001C0220F9A95EAF720959081292325
:10378000208391E09093B80320912C02EFE3F2E0C4
:1037900090E0921729F03191831719F09F5FF9CFCC
:1037A0000895E92FF0E0E15CFD4F818180839F5F08
:1037B0009217B8F3215020932C021092BC03089565
:1037C000E82FE695E695E695F0E0EE5CFD4F982F44
:1037D000977021E030E001C0220F9A95EAF79081BE
:1037E0002927208391E09093B80320912C02EFE3E6
:1037F000F2E090E0921729F03191831799F09F5FE2
:10380000F9CF963048F4E92FF0E0E15CFD4F80837A
:103810009F5F90932C0208951092450281E080935F
:10382000BC030895E92FF0E0E15CFD4F81818083C6
:103830009F5F9217B8F3215020932C021092BC0383
:1038400008959091E702943048F4E92FF0E0E35DA9
:10385000FD4F80839F5F9093E702089540E060E012
:1038600070E082E438D91092310208952091E70285
:10387000EDE2F2E090E0921729F03191381739F03B
:103880009F5FF9CF682F70E040E083E424C9E92FFF
:10389000F0E0E35DFD4F818180839F5F9217B8F375
:1038A00021502093E702089520914E0330914F0359
:1038B000232B69F48759E82FF0E0EE0FFF1FE9533F
:1038C000FC4D8591949190934F0380934E0381E03A
:1038D0008093B70308958759E82FF0E0EE0FFF1F9C
:1038E000E953FC4D2591349180914E0390914F0303
:1038F0002817390721F410924F0310924E0381E0EC
:103900008093B703089593E4980F81E001C0880F76
:103910009A95EAF78093C10381E08093B6030895F6
:103920001092C10381E08093B60308958091BC0496
:103930008093C003089591E1899F600D11248091C7
:10394000260268130DC08091C0049091C1048417B1
:10395000950734F48091BF038F5F8093BF03089570
:10396000109226021092BF030895E091C504F091D1
:10397000C6044E175F0754F491E0F9019083F1E11A
:103980008F9F600D1124609326020895F901108223
:10399000109226021092BF03089590917301E92FAF
:1039A000F0E0EE0FFF1FE95BFD4F2091290230E0B0
:1039B000322F2227282B3183208381E0890F8093A7
:1039C0007301803530F01092BB038093640180E175
:1039D00036C508959091C203911111C0805D803168
:1039E00070F4E82FF0E0EE0FFF1FE35AF14F8591DE
:1039F0009491880F991F835A914F0C94A0140895A5
:103A0000CF93DF9390912702981769F1D62FC82F93
:103A10008091C003882311F08B5F11D580E18C0F5A
:103A20008093C0030EDF8091C003882311F08B5F69
:103A3000E6D49091C0038091BC04981711F08FE0F8
:103A4000DED48091C00390912802D0FF02C0981369
:103A500008C0981308C08091BF03811104C08091F1
:103A6000BC0480932802DF91CF910895E82FF0E005
:103A7000EC59FD4F8491882311F060E0C1CF089587
:103A8000FF920F931F93CF93DF9300E1080F909164
:103A90002B0289130CC090912702891303C0109246
:103AA000270205C062FF03C0809327024EC0F22E9A
:103AB000D42F162FC82F8091C003882311F08B5F5D
:103AC000BED4FF2001F18091C00308131CC0809177
:103AD000BF03882319F011FD0093280280912B0267
:103AE000C81311C017FF0FC0D83630F460912902F7
:103AF0008D2F0E94881407C08D2F8077803719F48E
:103B000080E68D0F67DF802FB1DEE091E702E111E3
:103B100003C08091280204C0F0E0E45DFD4F808185
:103B20008093C0038091C003882311F08B5F67D41A
:103B30009091C0038091BC04981307C08FE0DF917F
:103B4000CF911F910F91FF907AC4DF91CF911F9178
:103B50000F91FF900895E82FF0E0EC59FD4F84910C
:103B6000882321F020E040E060E08ACF0895E82F2C
:103B7000F0E0909129022091BE03EE0FFF1FEC5B55
:103B8000FD4D613071F08491E82FE92BE09329021B
:103B9000222319F0E777E093290281E08093BD03A7
:103BA0000895E491E927F2CF982F842F623099F19C
:103BB00020F4613009F465C007C0E92FF0E06430FB
:103BC00009F444C0603839F0E92FF0E0EE0FFF1F30
:103BD000EC5BFD4D4CC0EE0FFF1FEC5BFD4DE49127
:103BE000E095609129026E236093290231E03093C1
:103BF000BD03222309F445C020912B02921341C03A
:103C0000883610F40C948814982F9077903709F028
:103C100038C0805ADFCEE92FF0E080912902EE0F04
:103C2000FF1FEC5BFD4D222371F09091BF039923A0
:103C300051F0E491E82BE09329028091BE038823A0
:103C4000E9F0E77719C0E491E09515C080912B0267
:103C5000EE0FFF1FEC5BFD4D981309C0E4918091BE
:103C600025028E27809325028E2359F401C0E4910A
:103C7000E09580912902E823E093290281E0809376
:103C8000BD030895613009F037CD9ACD615062309F
:103C900008F064DD80912502882359F08095909189
:103CA00029028923809329021092250281E08093C2
:103CB000BD030895CF93DF93C82FD62F67FDD0E8BB
:103CC000442329F04093620181E08093BD03C13C0D
:103CD00009F488C0B8F5C63BE0F4C13B08F0ADC0BC
:103CE000C33809F46DC050F4C43008F4FAC0C437C6
:103CF00008F454C0C23809F45BC0F3C0C43809F4F6
:103D000069C089E68C0F893108F0EBC08C2FCCDDBF
:103D1000EEC0C83B09F4A8C050F4C63B09F49EC0ED
:103D2000C73B09F0DEC08091BA0381509AC0C93BFD
:103D300009F49EC083E48C0F833008F0D2C08C2F2E
:103D4000E2DDD5C0CE3C09F46CC0B0F4C93C09F446
:103D50005BC048F4C33C09F449C008F445C0C83C02
:103D600009F446C0BEC0CC3C09F497C008F0A9C015
:103D7000CA3C09F4BCC0B5C0C83E38F4C03E08F027
:103D8000ACC0CF3C09F086C050C080E18C0F8A30B7
:103D900008F0A7C06D2F8C2F33DEA9C08091BB0324
:103DA000882311F08C2FF9DD6D2F8C2F6BDF9FC0D6
:103DB00080912A0281FD9BC06091290289E307C09E
:103DC00080912A0280FD93C06091290283E50E94C0
:103DD00088148DC080912A0282FD89C060912902D9
:103DE00087E4F5CF13D483C0EBD381C0DBD37FC08E
:103DF0009091C20381E089278093C203811102C0A0
:103E000085E10BC085E154C09091BE0381E0892714
:103E10008093BE03811103C085E011D368C085E0A3
:103E200047C082E08093BE0162C08091870181110A
:103E30005EC081E0809387015AC0EFE4EC0FF0E0B0
:103E4000EE0FFF1FE650FC4DE4918091B903E82B83
:103E5000E093B90381E08093B70449C08091BA032D
:103E60008F5F8093BA0309C080914602815003C0DE
:103E7000809146028F5F809346029091B8048091B2
:103E8000BF03992321F09091B604981780F5809391
:103E9000B6042DC08C2F9EDD2AC09091BB0381E01B
:103EA00089278093BB03882329F01092730180E156
:103EB000A6D21DC08091730181118093640180E1BD
:103EC000ACCF8091BB03811112C06091640170E09E
:103ED00087E492E00E94D5140AC06D2F8C2F47DE34
:103EE00006C06C2F70E040E084E40E946B15C09324
:103EF0002B02DF91CF9108950F931F93CF93DF9300
:103F0000C82FD62F122F062F0F7767FDD0E8442336
:103F100029F01092620181E08093BD03C93B09F44E
:103F20008CC008F03DC0C03BC0F4C73908F078C071
:103F3000C23809F459C050F48CEF8C0F803708F068
:103F400092C0412F6D2F8C2FA1DE93C0C33809F48E
:103F500053C0C43809F45AC086C0C63B09F463C0D4
:103F6000A8F4C13B08F47FC0EFE4EC0FF0E0EE0FE3
:103F7000FF1FE650FC4DE491E0958091B903E823E2
:103F8000E093B90381E08093B70473C0C73B09F4A1
:103F90004EC0C83B09F067C0809146028F5F50C099
:103FA000CB3C70F4C83C08F064C0CD3B08F45BC067
:103FB000C03CA0F18FE38C0F833008F45AC053C08B
:103FC000C83E38F4C03E08F03EC0CC3C08F051C0BA
:103FD0004AC080E18C0F8A3008F045C0212F402F65
:103FE0006D2F8C2F4DDD45C080912A0281FF41C08D
:103FF0006091290289E307C080912A0280FF39C0BD
:104000006091290283E50E94881433C080912A02BE
:1040100082FF2FC06091290287E4F5CF81DC29C09F
:104020008C2F59DC26C08091BA03815003C0809147
:10403000BA038F5F8093BA031CC0809146028150FF
:104040008093460216C08091BB03882331F0809193
:104050002B02C81302C080E0A0DC212F402F6D2F5F
:104060008C2FA2DD06C06C2F70E040E085E40E943A
:104070006B1580912702882341F0C81731F020E0AA
:1040800040E060E0FDDC10922702DF91CF911F91AC
:104090000F9108959091290292722091CC042223CD
:1040A00059F0911109C020912A0220FF05C022EE8B
:1040B000280F2A3008F4855C2091BF04222321F1C7
:1040C000833571F490912A0281E0892780932A0236
:1040D00080FF03C080E093D11FC080E0B0D11CC03E
:1040E00027EA280F2B3080F420912A02E82FF0E0F5
:1040F000EE0FFF1F20FF05C0911103C0E150FD4DE1
:1041000002C0E050FD4D84918A3C39F4992311F0AE
:1041100085E3089589E2089580E008959F92AF9223
:10412000BF92CF92DF92EF92FF920F931F93CF93A4
:10413000DF93D82EC62E7A01C62FD0E081E1D89E1B
:10414000800111248091C00396E6A92EF801A89E53
:10415000E00DF11D1124EC0FFD1FEF59F54F849177
:1041600099DFB82E8091C003A801A89E400D511D73
:1041700011244C0F5D1FFA01EB59F94FA490FA017D
:10418000E759FD4F9490F801E154FE4FEC0FFD1FED
:10419000B082F801E05BFC4FEC0FFD1FA0820851DC
:1041A0001D4FC00FD11F9882A7016C2D8D2DC3DB31
:1041B000492D6A2D8B2D7EDD33D2DF91CF911F915A
:1041C0000F91FF90EF90DF90CF90BF90AF909F90B6
:1041D0000C94F52A9F92AF92BF92CF92DF92EF920A
:1041E000FF920F931F93CF93DF931F92CDB7DEB74C
:1041F000E62FF0E091E1899F90011124D901A154AB
:10420000BE4F7D01EE0EFF1ED701BC908901005B01
:104210001C4F0E0F1F1FD801AC9028513D4F690154
:10422000CE0EDF1EF60190809E012F5F3F4F9DDB7B
:104230002981492D6A2D8B2D5FDED7011C92F80153
:104240001082D6011C920F90DF91CF911F910F9198
:10425000FF90EF90DF90CF90BF90AF909F90089528
:1042600070E021E1829FC0011124FC01E05BFC4F62
:10427000E60FF71F20812878283091F481549E4F53
:10428000FC01E60FF71F8081883620F46091290237
:104290000C948814982F9077903711F4805A9ACB09
:1042A0000895FC018091C20381111DC08091BC035F
:1042B000882339F081E080838183828383838483B0
:1042C00011C080913F028083809140028183809160
:1042D00041028283809142028383809143028483DE
:1042E00080914402858308952091C203211109C061
:1042F000A2E3B2E0FC018D91819382E0AF33B80775
:10430000D1F70895FC018091C203811106C080910C
:10431000290290916201982B90830895E62FF0E096
:1043200091E1899FE00DF11D1124EF59F54FE491C2
:10433000E83211F0E83539F441E060E070E081E501
:104340000E946B156AC5089590E09C01220F331FEF
:10435000820F931FFC01E456F04E2491FC0131962C
:104360008656904EE656F04E261721F06491FC01D9
:10437000849163C96491FC01849173C90F931F9365
:10438000CF93DF93EBECFFE1D4910AE91FE1C0E0AA
:10439000CD1769F0F80131966491F801849129D91B
:1043A00060E08C2FD1DFCF5F0D5F1F4FF1CF809189
:1043B000C3048093D2038093CF038091BA04809387
:1043C000D4038091C2048093CD03DF91CF911F91DC
:1043D0000F9108958091CB03893F69F48091D803B0
:1043E0008F3E19F41092D80303C08F5F8093D803D7
:1043F0001092CB0308958F5F8093CB03089590E0D4
:10440000880F991FFC01E259F04EA491FC01E1597B
:10441000F04E8491EAECFFE1E491AE1778F4B0E05D
:10442000AD53BC4F811103C08C91816006C09C913B
:104430009170E82FEE0F892F8E0F8C93089590E0E6
:10444000880F991FFC01E259F04EA491FC01E1593B
:10445000F04E8491EAECFFE1E491AE1780F4B0E015
:10446000AD53BC4F811104C08C918E7F8C93089505
:104470009C91292F2695821302C091709C930895D8
:10448000823049F0833071F08130B9F481E1B7DFD7
:1044900082E1D5DF0BC081E1D2DF82E1D0DF83E1B1
:1044A000AEDF06C081E1CBDF82E1A9DF83E1C7DFB8
:1044B00084E1C5DF1092D703089581E1C0DF82E176
:1044C000BEDF83E1BCDF84E19ADF81E08093D70324
:1044D00008950F931F93CF93DF93EAECFFE1D491FC
:1044E00003EC13E0C0E0CD1711F18091CE038823D7
:1044F000B9F0F8012081223018F421110FC010C04A
:10450000E22FE695F0E0ED5EFB4D64918091D803DB
:104510000E94DA31921720F490FF02C061E001C0DE
:1045200060E08C2F11DFCF5F0F5F1F4FDCCFDF917B
:10453000CF911F910F9108958091D203803110F097
:1045400081E002C08C5F8C7F8093D20308958091BC
:10455000D3038F5F813118F48093D303089581E0F2
:104560008093D3031092D1031092D60308959091B3
:10457000D203903120F081E08093CE0308958091A2
:10458000D1032091D303929F902D1124891738F4E1
:1045900091E09093CE03805F8093D10308951092B1
:1045A000CE030895EDE6FFE1E4918091CD038F5FA6
:1045B0008E1718F48093CD0308951092CD030895BB
:1045C0008091D4038F5F843018F48093D40302C0A9
:1045D0001092D4038091D403811103C08091D2033F
:1045E00003C0813021F484E08093CF0308958230AA
:1045F00031F484E08093CF031092D003089580E1DA
:104600008093CF0381E08093D003089595DF80915C
:10461000D403811104C08091D2038093CF03089505
:104620008091D403823011F488E10BC0833071F49F
:104630008091CF03853010F0845003C0882321F08F
:1046400081508093CF0308951092CF0308958091F5
:10465000D5038F5F803318F48093D50308951092AB
:10466000D5039091D4039130B1F42091D00380917F
:10467000CF03222341F08F5F8093CF038831E0F096
:104680001092D003089581508093CF038530A0F419
:104690009093D0030895923031F48091CF03853008
:1046A00058F0815007C0933039F48091CF038031A6
:1046B00018F48F5F8093CF0308958091CF038031EA
:1046C00020F081E08093CC0308959091D303899FDB
:1046D000802D11249091D0039111807F9091D60369
:1046E000981738F481E08093CC03905F9093D603C1
:1046F00008951092CC0308951F93CF93DF93EBECB2
:10470000FFE11491C0E0D0E08C2FC11700F5FE014D
:10471000E35AF04EE491EE23C1F09091D703992330
:1047200091F09091CC03992371F09091CD03FE010B
:1047300020E1929FE00DF11D1124E35AF14EE49126
:1047400061E0E11101C060E0FFDD2196DDCFDF9186
:10475000CF911F910895FBDE0ADF3CDEBADE77DFE2
:10476000ACDFCACF1F920F920FB60F9211242F9376
:104770008F939F93AF93BF93EF93FF93EDB7FEB7E4
:1047800081E090E090937E0580937D05F0937C0519
:10479000E0937B053196ABEFB4E080E090E0E1156B
:1047A0002BE0F20720F0FC01E550FB4F07C0219100
:1047B0002D9301968038910591F706C085E0EB377F
:1047C000F80711F01192FACFFF91EF91BF91AF91DD
:1047D0009F918F912F910F900FBE0F901F90189562
:1047E000E4E6F0E0808180718083A5E6B0E08C9102
:1047F00086778C93808181608083808184608083D0
:104800008081806280838081806480838C918860D5
:104810008C938081806880838081826080838C918A
:1048200081608C938C918F778C9390E080E80FB6A9
:10483000F89480936100909361000FBE0895609199
:104840007F0570E040E081E00E946B1560917D057E
:1048500070917E056115710541F041E082E00E9492
:104860006B1510927E0510927D05BACF8DEA9EEDF4
:10487000909381058093800508959CE088E10FB6B0
:10488000F894A895809360000FBE90936000E0E6D6
:10489000F0E08081806480837894089519BC82E080
:1048A00089BD09B400FEFDCF8091D8008F7D809333
:1048B000D8008091E00082608093E0008091E00069
:1048C00081FDFCCF0895CF93DF93262F642F91E1D4
:1048D000299FE0011124C40FD11DCC0FDD1FCA5147
:1048E000DC4F48815981882301F157FF0EC0809128
:1048F000CD0490E0919581959109841795077CF1FD
:10490000822F0CDC84E090E020C08091C90490915B
:10491000CA044817590794F0822FA2DC2091BB04E7
:1049200088819981821B910910C01416150684F4A0
:104930008091CD0490E0481759071CF44C5F5F4FFD
:1049400010C0822F47DC8CEF9FEF998388830BC0C8
:104950008091C0049091C1048417950724F44450B9
:10496000510959834883DF91CF9108950F931F9385
:10497000CF93DF93082F862F642FC42FD0E091E1CF
:10498000899FC00DD11D1124CC0FDD1FCA51DC4FF2
:104990005981011113C057FD2AC08881952F93704A
:1049A0002091C0043091C1043195219531098217BD
:1049B000930708F404969983888338C057FF17C07B
:1049C0000881152F13702091C9043091CA04021771
:1049D000130730F045DC8091BB04081B110902C0AD
:1049E0000C5F1F4F19830883898180681EC0152FB3
:1049F000169516951F711C5F9091CD04191778F0CC
:104A000048815370002311F089DB01C0E3DB812F63
:104A100090E099838883898100FB87F906C01F7124
:104A2000110F110F5378852F812B8983DF91CF913F
:104A30001F910F910895CF92DF92EF92FF921F93F3
:104A4000CF93DF93E2E5F0E2E491E093DA03E1E56E
:104A5000F0E2E491E093E003E0E5F0E2E491E0933A
:104A6000E303EFE4F0E2E491E093E50385E4E82E6C
:104A700080E2F82E9BEDC92E93E0D92ED0E0F7010D
:104A800014918091E00381111FEFF7013196C491D9
:104A90004C2F612F8D2F0E940D1BEC2FE095D6011E
:104AA000ED936D014E2F41238091E003642F6095BB
:104AB000811101C040E08D2F0E94461BDF5FB2E0F4
:104AC000EB0EF11CD530D9F6ECECFFE1E491E0936C
:104AD000D903EDECFFE1E491E093E40362E083E0CD
:104AE0000E941D1B8091B904882371F086EB94E22B
:104AF0009093E2038093E1038091CD04813250F0E2
:104B000080E28093CD0406C083E694E29093E203B2
:104B10008093E103DF91CF911F91FF90EF90DF90A1
:104B2000CF900895CF92DF92EF92FF920F931F9351
:104B3000CF93DF93C0E08091E303C81708F050C023
:104B40008BEDE82E83E0F82EF5E0CF9F6001112475
:104B500000E010E0F801EC0DFD1DE051F04E449135
:104B6000F70161917F01802F0E94461B0F5F1F4F4D
:104B70000530110579F78091C7048A95F1F7D0E0E7
:104B80008091E503D81750F52091E0038D2F90E038
:104B9000880F991FFC01E153F04E222351F06491DC
:104BA000FC01E253F04E84910E946F1B882351F068
:104BB00013C06491FC01E253F04E84910E946F1B7C
:104BC000882351F08091DA03882319F06C2F8D2F00
:104BD00002C06D2F8C2FA2DBDF5FD2CFCF5FABCFB8
:104BE000DF91CF911F910F91FF90EF90DF90CF90C9
:104BF0000895AF92BF92CF92DF92FF920F931F93CF
:104C0000CF93DF93F62EC82FCF1508F073C08BED2E
:104C1000C82E83E0D82EF5E0CF9F5001112400E08C
:104C200010E0F60161916F016F3F49F0F801EA0D64
:104C3000FB1DE051F04E4491802F0E94461B0F5FF8
:104C40001F4F0530110569F78091C7048A95F1F768
:104C5000D0E08091E503D81708F04AC08091D903CD
:104C6000D81314C08091E403C81310C00091E1036D
:104C70001091E20362E083E00E94551B91E08111F4
:104C800090E04C2F6D2F892FF8012FC02091E00369
:104C90008D2F90E0880F991FFC01E153F04E2223E5
:104CA00059F06491FC01E253F04E84910E946F1B15
:104CB00091E0882361F00AC06491FC01E253F04E58
:104CC00084910E946F1B91E0811101C090E080915E
:104CD000DA03E091E103F091E203882319F04C2F0D
:104CE0006D2F02C04D2F6C2F892F0995DF5FB1CF3B
:104CF000CF5F8ACFDF91CF911F910F91FF90DF900F
:104D0000CF90BF90AF9008956091E303669566954C
:104D100080E06FCF8091E303682F70E07595679511
:104D20008695869566CF8091E30393E0899FB001D5
:104D30001124759567957595679586955ACF6091FD
:104D4000E30323E0629FC001112495958795959513
:104D500087954FCF81E08093B50408952091B504E5
:104D6000AC01249FC001259F900D11246AE070E0E2
:104D70000E94E6318091B404562F581B852F609312
:104D8000B4042F5F2093B5042B3028F01092B404A4
:104D900091E09093B5040895CF938091BA03811167
:104DA00004C080914602882321F1C1E0C093B80479
:104DB0008091B70481112FC08091B6049091C404F2
:104DC0002091BD04899FC0011124820F911DC6DF6F
:104DD0009091BA03989F902D11249093B3049091D1
:104DE0004602989F802D11248093B204C093B7048B
:104DF00012C08091B804882319F081E08093B70431
:104E00001092B8041092B4041092B3041092B20439
:104E10008AE08093B504CF910895CF93DF93CDB707
:104E2000DEB765970FB6F894DEBF0FBECDBF61E267
:104E30006093BE041092C8041092CC041092BC047B
:104E400050E15093C3041092CB044CE04093CD0446
:104E50001092BF041092C20480EF90E09093C604B9
:104E60008093C50488E89FEF9093C1048093C004A9
:104E700035E03093BD042FE02093C40480E293E03A
:104E80009093CA048093C90480E28093BB0491E0AC
:104E90009093C7041092B9041092BA0469831A82DD
:104EA0001B821C825D831E824F831886198640EF09
:104EB0004A871B8648E84C874FEF4D873E872F87F0
:104EC000888B23E0298B8A8B9B8B1C8A1D8A45E16A
:104ED00050E060E070E0CE0101960E942A326596B3
:104EE0000FB6F894DEBF0FBECDBFDF91CF9108950E
:104EF0000F931F93CF93DF93C0E2D4E2FE0132966B
:104F000084913196E49190E0E23059F4FE010591EC
:104F10001491805090400E942532F8019183808343
:104F200009C0FE0105911491805090400E941D32ED
:104F3000F80180832496F4E2C836DF07F9F6609121
:104F4000BE04613251F070E041E080E50E946B15D3
:104F5000DF91CF911F910F9160CFDF91CF911F9182
:104F60000F91089524E0829FC0011124FC01EE5DA1
:104F7000FB4D2491FC01ED5DFB4D3491FC01E05EA5
:104F8000FB4D822F90E0323041F4A591B4916D91A8
:104F90007C91805090400C944132A591B4916C91D9
:104FA000805090400C94333213BC109280001092C9
:104FB000820080E49FE190938900809388000895A7
:104FC0001092CE04109285001092840081E08093AC
:104FD000810082E080936F009AE088E10FB6F89438
:104FE000A895809360000FBE90936000E0E6F0E02B
:104FF00080818064808308950FB6F894A89580918D
:105000006000886180936000109260000FBE109273
:105010006F00109281000895809184009091850026
:10502000E091CE042091EF0434E0E39FF0011124DD
:10503000E20FF11DEE0FFF1FE153FB4F2081318185
:105040002817390780F4E091CE042091EF0434E072
:10505000E39FF0011124E20FF11DEE0FFF1FE1535A
:10506000FB4F9183808308951092EF048091EF04A9
:105070008430D8F48091CE04E091EF04F0E094E025
:10508000899FE00DF11D1124EE0FFF1FED5AFF4D1A
:1050900085919491009719F0FC010995BDDF8091ED
:1050A000EF048F5F8093EF04E1CF089510928500A5
:1050B00010928400D9DF8091CE048F5F8093CE045C
:1050C000843010F01092CE04A89508951F920F928C
:1050D0000FB60F9211242F933F934F935F936F93CB
:1050E0007F938F939F93AF93BF93EF93FF93DEDFF5
:1050F000FF91EF91BF91AF919F918F917F916F91B0
:105100005F914F913F912F910F900FBE0F901F9085
:105110001895EFECF4E0118210821382128215824E
:10512000148217821682389684E0EF3EF80799F7CA
:105130000895292F332723303105D9F070F4213019
:10514000310591F02230310509F04CC0EAEBF4E270
:105150008591949168EB74E249C021323105B9F030
:1051600022323105E9F03EC082E190E065E275E26D
:105170003DC09927009729F00197A1F5E8E6F4E2F0
:1051800002C0E4EBF4E2849190E0BF012FC081EE15
:10519000689FB001112466537B4D89E090E026C0E2
:1051A000662389F080911001681791F080910001C9
:1051B000681799F080912001681314C08AE390E089
:1051C00069E675E213C080E490E06AEC75E20EC017
:1051D00082E390E067E375E209C087E290E063EA6A
:1051E00075E204C080E090E060E070E0FA01718355
:1051F0006083089581E044C90895CF9380E391E0EE
:10520000D2D7C82F80911001882321F080E191E04E
:10521000CAD7C82380910001882321F080E091E063
:10522000C2D7C82380912001882321F080E291E039
:10523000BAD7C823CC2311F080E001C083E020D985
:105240008091E20084608093E200CF91089580E332
:1052500091E076D680911001882319F080E191E0E9
:105260006FD680910001882319F080E091E068D624
:1052700080912001882319F080E291E061C60895B1
:1052800080913E0190913F01009729F00197909302
:105290003F0180933E0180911001882359F0809155
:1052A0001E0190911F01009729F0019790931F0113
:1052B00080931E0180910001882359F080910E0196
:1052C00090910F01009729F0019790930F0180931F
:1052D0000E0180912001882359F080912E01909138
:1052E0002F01009729F0019790932F0180932E01B1
:1052F000089582E0C5C880E0C3C8FDCF0F931F9317
:10530000CF93DF93E901F801DC019C91209100012A
:10531000911130C0222381F020916001220F8091F1
:10532000CB04811104C019969C91892F02C080E0A2
:1053300090E0820F8093600188E090E09183808309
:105340008091600180FD0FC0CE010E948221CE01BC
:1053500002960E9451219091B8038091BD03892B40
:1053600021F480E067C081FDFCCF1092B803109259
:10537000BD035FC0921313C08EE090E091838083E1
:105380008091600180FF08C0CE010E948221CE0181
:1053900001960E947421DFCF81FDE7CFE2CF80919B
:1053A0002001981314C08091B90388838091B304BD
:1053B00089838091B2048A8383E090E09183808323
:1053C0008091B704882369F21092B70432C081E05B
:1053D00090E0DB012C91233011F080E090E02091EF
:1053E000B603822B892B91F08091C103888381E0E1
:1053F00090E09183808383E0FB0180838091B603FA
:10540000882309F4AECF1092B60313C080914E03E7
:1054100090914F039983888382E090E09183808309
:10542000DB018C938091B703882309F49ACF109203
:10543000B70381E0DF91CF911F910F910895CF9332
:105440008053914009F081C0F901808180932A0244
:10545000C0915F01C82780935F01CC2309F475C018
:105460009091BF04911111C0C0FF0FC080FF07C011
:1054700080E00E94FF2180E00E94361D06C080E08F
:105480000E941F2280E00E94AB1DC1FF11C08091CD
:105490002A0281FF07C081E00E94FF2181E00E9473
:1054A000361D06C081E00E941F2281E00E94AB1DD4
:1054B000C2FF24C080912A0282FF11C082E00E94B4
:1054C000FF2182E00E94361D8091C8048823B1F03C
:1054D00081E08093BE0385E00E94FF210FC082E03F
:1054E0000E941F2282E00E94AB1D8091C804882385
:1054F00029F01092BE0385E00E941F22C3FF11C055
:1055000080912A0283FF07C083E00E94FF2183E08D
:105510000E94361D06C083E00E941F2283E00E9485
:10552000AB1DC4FF12C080912A0284FF07C084E033
:105530000E94FF2184E0CF910C94361D84E00E94EC
:105540001F2284E0CF910C94AB1DCF910895EAE027
:10555000F6E2E491E1FF08C081E08093100182E867
:105560008093110181E001C080E0E2FF09C091E079
:10557000980F909300018E5F806880930101892FBE
:10558000E3FF08C091E0980F909320018E5F806840
:10559000809321010895F89480E391E017D68091DB
:1055A0001001882319F080E191E010D6809100016C
:1055B000882319F080E091E009D6809120018823AA
:1055C00019F080E291E002D67894A1D49BB5809145
:1055D0005E01981749F06BB570E041E086EA0E94E1
:1055E0006B158BB580935E0108958091F10488233B
:1055F00021F08BB5853009F451C90895CF92DF921F
:10560000EF92FF920F931F93CF93DF93EC018B01E7
:105610007A01C6D1811133C0E114F10439F0F701E8
:1056200080819181081B190BC80FD91FC12CD12C67
:105630000115110519F18091E80085FD16C08091D2
:10564000E8008E778093E80062D4E114F10449F019
:10565000F70180819181C80ED91ED182C08285E078
:105660000EC09ED1882321F30AC089918093F10056
:1056700001501109FFEFCF1ADF0ADACF80E0DF9186
:10568000CF911F910F91FF90EF90DF90CF900895F1
:105690002091F9043091FA042617370748F0611574
:1056A000710539F42091E8002E772093E80001C0BD
:1056B000B901FC0120E06115710571F18BB58823FA
:1056C000E9F18530E9F18091E80083FD3BC08091EC
:1056D000E80082FD2DC08091E80080FFECCF209192
:1056E000F3008091F20090E0922B6115710551F06A
:1056F0008830910538F421912093F10061507109AF
:105700000196F3CF21E0089709F020E08091E800AE
:105710008E778093E800CFCF2111D0CF09C08BB511
:10572000882361F0853061F08091E80083FD0AC034
:105730008091E80082FFF3CF80E0089582E0089531
:1057400083E0089581E008956115710529F42091A1
:10575000E8002B772093E800FC016115710531F119
:105760008BB5882359F1853059F18091E80083FD8C
:1057700023C08091E80082FFF0CF2091F300809158
:10578000F20090E0922B892B31F08091F10081930F
:105790006150710991F78091E8008B778093E80060
:1057A000DCCF8BB5882351F0853051F08091E80033
:1057B00080FFF7CF80E0089581E0089582E00895AA
:1057C00083E008952091F9043091FA0426173707F1
:1057D00048F06115710539F42091E8002E77209387
:1057E000E80001C0B901FC0120E06115710589F1F3
:1057F0008BB5882309F43FC0853009F43EC0809101
:10580000E80083FD3CC08091E80082FD2EC08091BD
:10581000E80080FFEACF2091F3008091F20090E051
:10582000922B6115710559F08830910540F424914F
:105830002093F1003196615071090196F2CF21E079
:10584000089709F020E08091E8008E778093E800C7
:10585000CCCF2111CDCF09C08BB5882361F0853025
:1058600061F08091E80083FD0AC08091E80082FF2A
:10587000F3CF80E0089582E0089583E0089581E009
:105880000895982F973068F59093E900981739F0AC
:105890007091EC002091ED005091F00003C0242F96
:1058A000762F50E021FD02C09F5FECCF3091EB00DE
:1058B0003E7F3093EB003091ED003D7F3093ED0063
:1058C0003091EB0031603093EB007093EC0020934B
:1058D000ED005093F0002091EE0027FDE5CF80E031
:1058E00008958F708093E90081E008950F931F93CE
:1058F000CF93DF93062FEC0110E0101771F1688150
:10590000611103C01F5F2596F8CF2C81A981BA8150
:105910009B81862F8F70873010F080E01FC022306F
:1059200010F442E001C046E0E8E0F0E020E0EA17D1
:10593000FB0720F42F5FEE0FFF1FF9CF2295207F8A
:10594000422B50E4959F90011124661F6627661F25
:10595000622B97DF8111D6CFE0CF81E0DF91CF912D
:105960001F910F9108958091F30487FF0FC08091DC
:10597000E80082FD04C08BB58111F9CF10C0809181
:10598000E8008B770AC08BB5882349F08091E80046
:1059900080FFF9CF8091E8008E778093E80008952A
:1059A0002091E4003091E50095E64091EC00842FD1
:1059B000817040FF22C08091E80080FD1CC08BB543
:1059C000882399F0853099F08091EB0085FD11C016
:1059D0004091E4005091E5002417350731F39150D0
:1059E00011F09A01E2CF84E0089582E0089583E007
:1059F000089581E0089580E008954091E80042FF15
:105A0000DECF089564D06BD0E0EEF0E0808181605D
:105A10008083E8EDF0E080818F77808319BCA7ED6B
:105A2000B0E08C918E7F8C9380818F7E80831092EA
:105A3000F20408950F931F93CF93DF9348D04FD074
:105A4000C8EDD0E088818F778883888180688883DB
:105A500088818F7D888319BC1BBC1092F004109242
:105A6000F10400EE10E0F80180818B7F8083888153
:105A70008160888342E060E080E003DFE1EEF0E0F7
:105A800080818E7F8083E2EEF0E080818160808380
:105A9000808188608083F80180818E7F8083888107
:105AA00080618883DF91CF911F910F910895E8ED78
:105AB000F0E080818F7E8083E7EDF0E0808181607F
:105AC000808384E082BF81E08093F204B3CFE8ED6D
:105AD000F0E080818E7F80831092E2000895109222
:105AE000DA001092E10008951F920F920FB60F9204
:105AF00011242F933F934F935F936F937F938F93D3
:105B00009F93AF93BF93EF93FF938091E10082FF48
:105B10000AC08091E20082FF06C08091E1008B7F85
:105B20008093E100ADDB8091DA0080FF19C08091A5
:105B3000D80080FF15C08091DA008E7F8093DA0054
:105B40008091D90019BC80FF09C082E089BD09B4E9
:105B500000FEFDCF81E08BBD4DDB02C01BBC4CDBEA
:105B60008091E10080FF17C08091E20080FF13C0A8
:105B70008091E2008E7F8093E2008091E20080615C
:105B80008093E2008091D80080628093D80019BC95
:105B900085E08BBDAEDB8091E10084FF2DC080915C
:105BA000E20084FF29C019BC82E089BD09B400FE6F
:105BB000FDCF8091D8008F7D8093D8008091E10047
:105BC0008F7E8093E1008091E2008F7E8093E200DF
:105BD0008091E20081608093E2008091F00488234C
:105BE00011F084E007C08091E30087FD02C081E0EE
:105BF00001C083E08BBD7FDB8091E10083FF21C08A
:105C00008091E20083FF1DC08091E100877F809337
:105C1000E10082E08BBD1092F0048091E1008E7F64
:105C20008093E1008091E2008E7F8093E20080917A
:105C3000E20080618093E20042E060E080E021DEEB
:105C40005CDBFF91EF91BF91AF919F918F917F911D
:105C50006F915F914F913F912F910F900FBE0F90D9
:105C60001F9018951F93CF93DF93CDB7DEB7AA97F8
:105C70000FB6F894DEBF0FBECDBFE3EFF4E0809126
:105C8000F100819324E0EB3FF207C9F7E0DA80915D
:105C9000E80083FF24C18091F3049091F404492F1C
:105CA00050E04A30510508F01AC1FA01E855FF4F9B
:105CB000A1C3803821F0823809F011C106C080915B
:105CC000F104882391F082E011C08091F7048F7075
:105CD000873008F004C18093E9008091EB0085FBD8
:105CE000882780F91092E90001C080E09091E800D7
:105CF000977F9093E8008093F1001092F100CBC061
:105D0000282F2D7F09F0EBC0882319F0823061F035
:105D1000E6C08091F504813009F0E1C0933009F0CC
:105D200080E08093F1042EC08091F50481112AC097
:105D30008091F7048F702FEF280F263008F0CFC026
:105D40008093E9002091EB0020FF1CC0933021F4E8
:105D50008091EB00806214C09091EB009061909371
:105D6000EB0021E030E0A90102C0440F551F8A95E5
:105D7000E2F74093EA001092EA008091EB0088601D
:105D80008093EB001092E9008091E800877F809378
:105D9000E800E9DDA4C08111A2C01091F5041F77CD
:105DA0008091E3008078812B8093E3008091E8006C
:105DB000877F8093E800D7DD8091E80080FFFCCFEB
:105DC0008091E30080688093E300111102C082E0BB
:105DD00001C083E08BBD83C08058823008F07FC053
:105DE0008091F5049091F6048C3D53E0950771F590
:105DF00083E08A838AE289834FB7F894DE011396A1
:105E000020E03EE051E2E32FF0E050935700E491B0
:105E100020FF03C0E295EF703F5FEF708E2F90E0A0
:105E2000EA3010F0C79601C0C0968D939D932F5F06
:105E3000243149F74FBF8091E800877F8093E800C5
:105E40006AE270E0CE01019623DC14C06091F70491
:105E50007091F804AE014F5F5F4F6BD9BC01892B85
:105E600009F43DC09091E800977F9093E800898104
:105E70009A81A8DC8091E8008B778093E8002FC09E
:105E8000803869F58091E800877F8093E8008091F1
:105E9000F0048093F1008091E8008E7778CF811133
:105EA0001EC08091F5049091F60499270297BCF4E6
:105EB0008091E800877F8093E8008091F5048093CB
:105EC000F00451DD8091F004811106C08091E3005F
:105ED00087FD02C081E001C084E08BBD8ED9809136
:105EE000E80083FF0AC08091E800877F8093E80084
:105EF0008091EB0080628093EB00AA960FB6F89435
:105F0000DEBF0FBECDBFDF91CF911F910895CF931C
:105F10008BB5882399F0C091E900CF709091EC0087
:105F2000892F817090FD80E8C82B1092E900809144
:105F3000E80083FD97DECF70C093E900CF9108950C
:105F40006F927F928F929F92AF92BF92CF92DF9289
:105F5000EF92FF920F931F93CF93DF9300D01F9286
:105F6000CDB7DEB77C01ADB6BEB68091E80083FF49
:105F700003C1F701808190E02091F7043091F8048B
:105F80002817390709F0F8C08091F404833009F428
:105F90009AC030F4813071F0823009F4D1C0ECC085
:105FA0008A3009F4B5C08B3009F49EC0893009F0FD
:105FB000E3C04CC08091F304813A09F0DDC08DB696
:105FC0009EB61A8219828091F5041091F6048B8393
:105FD000F7018085482F50E08DB79EB7841B950B45
:105FE0000FB6F8949EBF0FBE8DBFEDB7FEB73196CA
:105FF0006F0160E070E0CF0119D24FEF410F8E01C9
:106000000F5F1F4F9601BE016D5F7F4FC70176D9AD
:10601000F70186819781009721F0408550E0B60115
:10602000FCD11092E9008091E800877F8093E8001E
:106030008B8181118093F10069817A81C60128DB0F
:106040008091E8008B778093E80037C08091F3045B
:10605000813209F091C08DB69EB60091F90410917D
:10606000FA047090F5046090F6048DB79EB7801B1B
:10607000910B0FB6F8949EBF0FBE8DBFEDB7FEB764
:1060800031966F018091E800877F8093E800B80126
:10609000CF015ADB8091E8008E778093E80021E001
:1060A000711001C020E030E0021B130B2C0D3D1DD0
:1060B0004FEF460D672DC701C2D90FB6F8949EBEAB
:1060C0000FBE8DBE59C08091F304813A09F054C0CF
:1060D0008091E800877F8093E8008091E80080FF4E
:1060E000FCCFF701818540C08091F304813209F033
:1060F00043C08091E800877F8093E80034DC909172
:10610000F50481E0911101C080E0F701818734C07E
:106110008091F304813281F58091E800877F80933C
:10612000E80021DC8091F5049091F604882736E0A0
:10613000969587953A95E1F7F701958784871CC076
:106140008091F304813AC1F48091E800877F8093C5
:10615000E8008091E80080FFFCCFF70184859585F9
:1061600096958795969587958093F1008091E800A4
:106170008E778093E800F7DB0FB6F894BEBE0FBEB3
:10618000ADBE0F900F900F90DF91CF911F910F91A7
:10619000FF90EF90DF90CF90BF90AF909F908F9047
:1061A0007F906F900895FC01399627E0DF011D92E2
:1061B0002A95E9F721E0FC01218724EF31E03587BA
:1061C000248723E0248361E0019690CB5F926F9255
:1061D0007F928F929F92AF92BF92CF92DF92EF9277
:1061E000FF920F931F93CF93DF9300D01F92CDB7F1
:1061F000DEB77C01ADB6BEB68BB5843009F086C083
:106200008091E4009091E500F701228533852817FD
:10621000390709F47BC081818F708093E9008091F8
:10622000E80085FF73C08DB69EB6408550E08DB7FF
:106230009EB7841B950B0FB6F8949EBF0FBE8DBF03
:10624000EDB7FEB731966F011B821A82198260E0AA
:1062500070E0CF01EBD08E010F5F1F4F960140E041
:10626000BE016D5F7F4FC70149D8582EF701848565
:106270009585892B29F011E086859785892B09F072
:1062800010E0F701668077806114710481F0498124
:106290005A81B301C601B4D001E0892B09F400E0B2
:1062A000F701408550E0B601C301B7D001C000E05E
:1062B00089819A81892BF1F0511004C0011102C02B
:1062C00010FF18C0F701848595859787868781819F
:1062D0008F708093E9008B8181118093F100698137
:1062E0007A8140E050E0C60189D98091E8008E773C
:1062F0008093E8008091E4009091E500F701938796
:1063000082870FB6F8949EBE0FBE8DBE0FB6F8946E
:10631000BEBE0FBEADBE0F900F900F90DF91CF911C
:106320001F910F91FF90EF90DF90CF90BF90AF90B3
:106330009F908F907F906F905F9008950895FEDFFB
:106340000E941F240E9456150E9478270E941B2538
:106350000E94BE210E94961C0E94AA260E945813E9
:106360000E94D427F4D80E949225A1DB78948BB5A3
:10637000843010F410D9FBCF0E94E0278091BE0139
:10638000811102C008D9FACF0E94FC273BDBF894A8
:106390002FEF83ED90E3215080409040E1F700C063
:1063A00000008091BE01823011F40E9436240E94C8
:1063B0003D24FFCF991B79E004C0991F961708F080
:1063C000961B881F7A95C9F780950895AA1BBB1B59
:1063D00051E107C0AA1FBB1FA617B70710F0A61BE5
:1063E000B70B881F991F5A95A9F780959095BC0106
:1063F000CD010895EE0FFF1F0590F491E02D099453
:10640000FB01DC0104C08D910190801921F4415001
:106410005040C8F7881B990B0895FB01DC0102C0AE
:1064200001900D9241505040D8F70895DC0101C011
:106430006D9341505040E0F70895F999FECF92BD19
:1064400081BDF89A992780B50895A8E1B0E042E0AF
:1064500050E01CC0DC01CB0102C02D9105D04150A1
:106460005040D8F70895262FF999FECF1FBA92BD54
:1064700081BD20BD0FB6F894FA9AF99A0FBE019625
:106480000895F1DF272FF0CFDC01CB01FC01F99952
:10649000FECF06C0F2BDE1BDF89A319600B40D9270
:0C64A00041505040B8F70895F894FFCF29
:1064AC0000830E00000100000E0000000000000040
:1064BC000082030000010000020000000000000048
:1064CC000084030000010000030000000000000035
:1064DC00008108000001000008000000000000001E
:1064EC002400250023002700280026002A002B006A
:0E64FC0029002D002E002C00300031002F0052
:00000001FF
