:100000000C9412160C944F160C944F160C944F1619
:100010000C944F160C944F160C944F160C944F16CC
:100020000C944F160C944F160C944F160C94EF2D05
:100030000C944F160C946A240C944F160C94EC28D4
:100040000C944F160C944F160C944F160C944F169C
:100050000C944F160C944F160C944F160C944F168C
:100060000C944F160C944F160C944F160C944F167C
:100070000C944F161A1CF318F91815191B19181C93
:10008000181CE319E919181C181C181C181C181C3A
:10009000181CC31AD91BFE1BE01AFC1A1B1B401BA1
:1000A000591B7E1B9E1BB71BBA2EE12ECC2FE12EB7
:1000B000CC2F2C2F4E2FCC2FA12FB02F00000000C3
:1000C0000000000000000000000000002A002B00DB
:1000D00028000000000028000000000000000000D0
:1000E0000000000000000000000000000000000010
:1000F0000000290000000000000000002C001E028B
:1001000034022002210222022402340026022702A5
:1001100025022E0236002D003700380027001E0071
:100120001F002000210022002300240025002600BB
:100130003302330036022E00370238021F02040257
:10014000050206020702080209020A020B020C025B
:100150000D020E020F02100211021202130214020B
:10016000150216021702180219021A021B021C02BB
:100170001D022F003100300023022D023500040043
:10018000050006000700080009000A000B000C002B
:100190000D000E000F0010001100120013001400DB
:1001A000150016001700180019001A001B001C008B
:1001B0001D002F023102300235024C000000000009
:1001C000000000000000000000000000000000002F
:1001D000000000000000000000000000000000001F
:1001E000000000000000000000000000000000000F
:1001F00000000000000000000000000000000000FF
:1022C00000FF00FF00FF00FF00FF00FF0000000014
:1022D00000000000000000000000000000000000FE
:1022E00000000000000000000000000000000000EE
:1022F00000000000000000000000000000080C00CA
:1023000000000000000000000000000000000000CD
:1023100000000000000000000000000000000000BD
:1023200000000000000000000000000000000000AD
:10233000000000000000000000000000000000009D
:10234000000000000000000000000000000000008D
:10235000000000000000000000000000000000007D
:10236000000000392B0427662400000A2752276644
:102370002400004F2B1327662400002427F117DBCD
:102380001866244F7574206F662072616E67652E23
:102390000A00456E746572206E657720646566611B
:1023A000756C742064696D6D6572206C6576656C02
:1023B0002028312D3136293E2000456E746572206B
:1023C0006E65772064656661756C74206261636B0D
:1023D0006C6967687420656E61626C652028312DB8
:1023E00031293E2000456E746572206E6577206D40
:1023F000617472697820736574757020776169748F
:1024000020696E206379636C65732028312D323525
:1024100035293E2000456E746572206E6577207206
:1024200065706561742074696D6520696E206D73D7
:102430002028312D3939293E2000456E74657220DF
:102440006E657720686F6C642074696D6520696EB5
:10245000206D732028312D393939293E2000456EF1
:10246000746572206E6577206D6F757365206D6F72
:1024700076656D656E74206D756C7469706C6965D8
:10248000722028312D3939293E2000456E7465723D
:10249000206E65772062617365206D6F75736520AE
:1024A0006D6F76656D656E742028312D3939293E42
:1024B0002000456E746572206E657720646F7562CA
:1024C0006C657461702064656C61792074696D65F8
:1024D00020696E206D732028312D393939293E202D
:1024E00000456E746572206E65772074617020748B
:1024F000696D6520696E206D732028312D39393959
:10250000293E2000456E746572206E6577206465F3
:10251000626F756E63652074696D6520696E206DEC
:10252000732028312D3939293E20005365743A0033
:10253000456E746572206E65772064656661756CA2
:1025400074206C617965722028302D39293E200075
:102550005573696E672064656661756C74202268C6
:1025600061697220747269676765722220646562AE
:102570006F756E636520616C676F726974686D203A
:10258000616E6420726573657474696E672064653A
:10259000626F756E63652074696D652E0A005573F0
:1025A000696E6720616C7465726E61746520226368
:1025B0006F6E6669726D22206465626F756E636509
:1025C00020616C676F726974686D20616E6420723F
:1025D0006573657474696E67206465626F756E6398
:1025E000652074696D652E0A004E756D206C6F63F1
:1025F0006B206973206C696E6B656420746F207446
:1026000068652073797374656D206E756D206C6FCD
:10261000636B2E0A004E756D206C6F636B207769BB
:102620006C6C2066756E6374696F6E20696E64658C
:1026300070656E64656E746C79206F662074686571
:102640002073797374656D206E756D206C6F636B8C
:102650002E0A004B6579626F6172642077696C6C39
:1026600020757365204E4B524F20696E74657266FB
:1026700061636520696620697420697320656E61F5
:10268000626C65642E0A004B6579626F617264202A
:102690006973206C696D6974656420746F2073744C
:1026A000616E6461726420364B524F20626F6F74AA
:1026B0002D636F6D70617469626C65206B65796202
:1026C0006F617264206F6E6C792E0A005363726FB3
:1026D0006C6C206C6F636B2077696C6C206E6F7410
:1026E000206166666563742077696E206C6F636B2A
:1026F0002E0A0057696E646F7773206B65792077B7
:10270000696C6C2062652064697361626C65642029
:102710007768656E207363726F6C6C206C6F636B8F
:1027200020697320656E61626C65642E0A004E75C7
:102730006D206C6F636B2077696C6C206E6F7420FA
:10274000616666656374206E756D62657220726F76
:10275000772E0A004E756D62657220726F77207752
:10276000696C6C20626520737761707065642066A7
:102770006F72206E756D706164206B657973207760
:1027800068656E206E756D206C6F636B20697320B9
:10279000656E61626C65642E0A00496E7075742006
:1027A0006E6F74207265636F676E697A65642E0A56
:1027B000000A54696D696E67204D656E753A0A317D
:1027C0002920536574206465626F756E636520749B
:1027D000696D650A322920536574206D617820681F
:1027E0006F6C642074696D6520666F72207461700F
:1027F0000A332920536574206D61782064656C610B
:10280000792074696D6520666F7220646F75626CE3
:1028100065207461700A34292053657420626173E5
:1028200065206D6F757365206D6F76656D656E746F
:102830000A352920536574206D6F757365206D6F9F
:1028400076656D656E74206D756C7469706C696504
:10285000720A362920536574206D696E20686F6C8A
:10286000642074696D6520666F72207265706561A1
:10287000740A37292053657420726570656174206D
:10288000706572696F640A382920536574206D6120
:102890007472697820736574757020776169740A41
:1028A0003929204261636B0A3E20000A436F6E663D
:1028B0006967204D656E753A0A312920546F676744
:1028C0006C65207669727475616C206E756D207010
:1028D00061640A322920546F67676C652077696EDE
:1028E000206C6F636B206F6E207363726F6C6C2053
:1028F0006C6F636B0A3329205365742064656661CD
:10290000756C74206C617965720A342920546F6784
:10291000676C65206B6579626F61726420666561C2
:1029200074757265730A352920546F67676C65206A
:10293000756E6C696E6B206E756D206C6F636B0AC3
:102940003629205365742064656661756C74206453
:10295000696D6D6572206C6576656C0A3729205348
:1029600065742064656661756C74206261636B6C6C
:102970006967687420656E61626C650A3829205445
:102980006F67676C65206465626F756E6365207341
:1029900074796C650A3929204261636B0A3E200014
:1029A0000A4D61696E204D656E753A0A31292043E2
:1029B0006F6E666967206D656E750A3229205469ED
:1029C0006D696E67206D656E750A342920526573D6
:1029D00065740A392920517569740A3E20001E4D1C
:1029E0001F51204E21502200234F244A2552264BAE
:1029F0002749374CB500B600B700CD006F00700016
:102A0000E200E500E900EA005201530154015501DA
:102A100083018A01920194012102230224022502EA
:102A2000260227022A02B101B202B304B408B5108B
:102A3000E001E102E204E308E410E520E640E7807B
:102A40000105080A0C0F10141418180038D10300DF
:102A500001DA030101DE030201CF030301D5030400
:102A600001DD030501DF030601D2030701CD0308E1
:102A700001D7030902D3030B02D0030D01D6030EC5
:102A800001DB030F02CE031101D9031201CC0313A2
:102A9000014A03450061007300790041005600526D
:102AA0000020004D0075006C00740069006D006529
:102AB0000064006900610020004B0065007900623D
:102AC000006F006100720064002000760023002E79
:102AD00000230023002E002300230000000403092C
:102AE0000409026D00040100A0FA090400000103BA
:102AF0000101000921B00100012240000705810306
:102B00000800010904010001030000000921B001CF
:102B100000012232000705820303000809040200B5
:102B200001030000000921B0010001221700070580
:102B300083030D00010904030001030102000921C0
:102B4000B0010001223A00070584030300051201C9
:102B5000000200000008EB03FF201000000100014C
:102B6000050C0901A1018502160100269C021A012B
:102B7000002A9C02751095018100C005010980A101
:102B800001850319812983750195038106950581C6
:102B900001C005010902A1010901A10005091901EE
:102BA000290315002501950375018102950175051D
:102BB00081010501093009311681FF267F003600A9
:102BC00000460000950275088106C0C0050109068F
:102BD000A1011500250105071900296795687501F0
:102BE0008102C005010906A101050719E029E715C1
:102BF000002501750195088102950175088101057F
:102C00000819012905950575019102950175039132
:102C100001150026FF000507190029FF9506750814
:102C20008100C00F11241FBECFEFD4E0DEBFCDBFA7
:102C300084B714BE0FB6F894A8959091600098617F
:102C400090936000109260000FBE83FF11C08091CE
:102C5000EF039091F0038D3A9E4D51F41092F003E2
:102C60001092EF03EBE4FAE225913491F901099512
:102C700011E0A0E0B1E0E0EDF5E602C005900D92B4
:102C8000A235B107D9F723E0A2E5B1E001C01D925A
:102C9000AF3EB207E1F70E944B320C94E6320C943F
:102CA0000000109261011092600110925C0110927C
:102CB0005B0110926A011092690108959091880257
:102CC00080918302892B20915D01222309F43FC06A
:102CD000811144C080915F01811135C080917B01D9
:102CE00081112DC090915601921305C010925D0183
:102CF000109256010895E92FF0E0EE0FFF1FE559FD
:102D0000FE4F80812181813031F420935F019F5FEC
:102D100090935601089590915701921731F02093A6
:102D2000570181E080938802089580937B0181118F
:102D300002D6809156018F5F80935601089533D655
:102D400010927B010895815080935F010895811155
:102D500005C080915E018D7F80935E010895809112
:102D6000260290915801981731F1809358018823D9
:102D700011F1883211F0883531F480915E018B7F3A
:102D800080935E010895E0915A018A3251F4EE2356
:102D900091F0E150E0935A01F0E0EE59FE4F1082BD
:102DA0000895E63040F4AE2FB0E0AE59BE4F8C939C
:102DB000EF5FE0935A0108951092570181E08093EC
:102DC000880280912602811102C010925E0108954E
:102DD000BC0180915D01DB01982F292F281B9830C1
:102DE00058F090935D01620F711D27FD7A957093E5
:102DF0006A016093690122C0FD012591349121117E
:102E000009C090935D0110926A01109269019923A3
:102E1000D1F014C0492F50E0F901FF27EE0FFF1F3A
:102E2000E454FF4F25913491440F551FFA01E559A1
:102E3000FE4F318320839F5F1196CFCF80915E013B
:102E4000836080935E0181E0089540915D0128E0F8
:102E500030E0241B31092617370758F1B0E04B2F1B
:102E60000B2E000C550B46175707D8F4A0915D01A7
:102E70002A2F30E0FC01E40FF51FE081F0E0EE0FB7
:102E8000FF1FE454FF4F45915491220F331FF90166
:102E9000E559FE4F51834083AF5FA0935D01BF5F53
:102EA000DECF672B41F080915E01836080935E01ED
:102EB00002C080E0089581E0089590915D0198300E
:102EC00090F4E92FF0E0EE0FFF1FE559FE4F8083ED
:102ED00061839F5F90935D0180915E018360809329
:102EE0005E0181E0089580E008959C0190915D016C
:102EF00091112EC0A901983049F490935D01205F93
:102F00003F4F30936101209360011BC0FA0165912E
:102F100074914E5F5F4F6115710549F490935D01A7
:102F20001092610110926001992381F00AC0E92F8B
:102F3000F0E0EE0FFF1FE559FE4F718360839F5F46
:102F4000DACF80915E01836080935E0181E0089515
:102F500080E00895AC0180915D0181113EC06093D5
:102F60006801282F082E000C330B2617370758F559
:102F700090915D01220F331F983038F0240F351FD8
:102F800030935C0120935B011EC0FA01E20FF31F36
:102F900020813181E92FF0E0EE0FFF1FE559FE4F50
:102FA000318320839F5F90935D01909168019150E0
:102FB00090936801911105C010925C0110925B0121
:102FC00002C08F5FCECF80915D01882341F0809158
:102FD0005E01836080935E0102C080E0089581E01D
:102FE000089590915E01992329F191FD67CE20917A
:102FF0006001309161012115310511F0C90175CFD2
:1030000020915B0130915C012115310539F060910F
:103010006801062E000C770BC9019CCF2091690135
:1030200030916A012115310511F0C901D1CE92FD0F
:1030300096CEC2CE0895E2E6F1E0108211821282AD
:1030400013821482158210925A0180912602809375
:10305000580180915E01856080935E010895089516
:1030600008958A3010F4805D0895895C08951F9357
:10307000CF93DF93182FEB0182958F70F2DF888357
:10308000812F8F70EEDF8983DF91CF911F9108959B
:103090008F929F92AF92BF92CF92DF92EF92FF9268
:1030A0000F931F93CF93DF931F92CDB7DEB79C0191
:1030B0008B0180E3FB01808380E28183828383E054
:1030C000E82EF12C94E6892E912C4AE0B42E682D3E
:1030D00070E0911003C02617370790F06801C90C03
:1030E000D11C97FCDA94C9010E947832A82E862F51
:1030F0009983B7DFF60180832A2D9981392F939424
:10310000882D6B2D0E946C32882EF1E0EF1AF108A9
:10311000F1F60F90DF91CF911F910F91FF90EF90FB
:10312000DF90CF90BF90AF909F908F90089597EAD7
:10313000980F993010F48855089592EE980F9930B1
:1031400010F48D5108959CEF980F963010F48A5F1B
:10315000089580E00895BF92CF92DF92EF92FF92A0
:103160000F931F93CF93DF936C017B0180E090E07E
:10317000B12C042F10E02B2D0B2C000C330B2E1533
:103180003F0578F4B8010E945B32EC01F601E20FD2
:10319000F31F8081CCDF9E01280F311DC901B3943C
:1031A000EACFDF91CF911F910F91FF90EF90DF90C9
:1031B000CF90BF9008951F93CF93DF9300D000D09E
:1031C000CDB7DEB780915E01811134C3E0917C01FF
:1031D0008E2F90E08A31910508F02AC3FC01E65C4D
:1031E000FF4F0C948C3280EA99E2F2DD24DF82E01A
:1031F000C7C111E010937C018091620198DF893092
:1032000009F416C3843019F410937D0113C381307F
:1032100011F483E0B5C1823029F487E0B1C1883070
:1032200009F4B2C08AE997E2CCC08BEA98E2D0DD1B
:1032300002DF84E0A5C183E080937C01809162017C
:1032400076DF893011F481E09BC1813091F4909157
:10325000DE0389278093DE0382E00E943428809178
:10326000DE03882319F084E597E2ABC08EE297E293
:10327000A8C0823099F49091DA0381E08927809385
:10328000DA0381E00E9434288091DA03882319F060
:1032900083EF96E296C08CEC96E293C08330B1F453
:1032A0008BE295E295DDBE016F5F7F4F8091CF038A
:1032B000DEDE8AE08B8363E070E0CE010196C5DD3F
:1032C00080E395E285DDB7DE8FE05AC1843099F462
:1032D0009091DD0381E089278093DD0385E00E94E2
:1032E00034288091DD03882319F087E896E269C0CD
:1032F00083E596E266C0853099F49091D20381E02F
:1033000089278093D20387E00E9434288091D203DA
:10331000882319F085E196E254C089EE95E251C008
:103320008630B9F48BE295E253DD8091D503BE017E
:103330006F5F7F4F90E0ACDE8AE08B8363E070E0EC
:10334000CE01019682DD82E993E242DD74DE80E106
:1033500017C1873009F063CF8BE295E239DD8091A8
:10336000CD0390E0BE016F5F7F4F019691DE8AE052
:103370008B8363E070E0CE01019667DD8AEB93E218
:1033800027DD59DE81E1FCC09091CC0381E08927E3
:103390008093CC0380E10E9434288091CC03882361
:1033A00041F086E08093DF030E9434288EE995E2A5
:1033B00008C08CE08093DF0386E00E94342880E51B
:1033C00095E206DD37C281EB97E202DD34DE88E06C
:1033D000D7C087E080937C0180916201A8DE8930AC
:1033E00009F431CF8130B9F48BE295E2F1DC8091C0
:1033F000DF03BE016F5F7F4F90E04ADE8AE08B8380
:1034000063E070E0CE01019620DD84E095E2E0DC2F
:1034100012DE82E1B5C08230C1F48BE295E2D8DCE5
:10342000BE016F5F7F4F8091D7039091D80330DE4C
:103430008AE08C8364E070E0CE01019606DD81EEC7
:1034400094E2C6DCF8DD83E19BC08330D9F48BE2E3
:1034500095E2BEDC8091D3039091D403BE016F5FEF
:103460007F4F91958195910913DE8AE08C8364E00A
:1034700070E0CE010196E9DC82EB94E2A9DCDBDDB1
:1034800084E17EC08430B9F48BE295E2A1DC8091C6
:10349000D003BE016F5F7F4F90E0FADD8AE08B833F
:1034A00063E070E0CE010196D0DC8BE894E290DC22
:1034B000C2DD85E165C08530B9F48BE295E288DC38
:1034C0008091D603BE016F5F7F4F90E0E1DD8AE01F
:1034D0008B8363E070E0CE010196B7DC8EE594E269
:1034E00077DCA9DD86E14CC08630C1F48BE295E241
:1034F0006FDCBE016F5F7F4F8091DB039091DC0337
:10350000C7DD8AE08C8364E070E0CE0101969DDC2B
:103510008AE394E25DDC8FDD87E132C08730B9F465
:103520008BE295E255DC8091CE03BE016F5F7F4F49
:1035300090E0AEDD8AE08B8363E070E0CE0101961F
:1035400084DC85E194E244DC76DD88E119C08830D2
:1035500009F070C18BE295E23BDC8091D903BE019A
:103560006F5F7F4F90E094DD8AE08C8364E070E0D1
:10357000CE0101966ADC85EE93E22ADC5CDD89E10E
:1035800080937C0157C160915A0170E04AE082E665
:1035900091E0E1DD8A30910578F48093CF0383E0F8
:1035A0000E9434288BE295E213DCBE016F5F7F4FEF
:1035B0008091CF035CDD1AC183E893E209DC29CE58
:1035C00060915A0170E04AE082E691E0C4DD9C011E
:1035D000215031092336310558F48093DF0386E00A
:1035E0000E9434288BE295E2F3DB8091DF0379C0FF
:1035F00083E893E2EDDB11CE60915A0170E04AE07E
:1036000082E691E0A8DD9C0121503109273E33403C
:1036100078F79093D8038093D70389E00E943428E9
:103620008BE295E2D5DBBE016F5F7F4F8091D703C0
:103630009091D803B8C060915A0170E04AE082E6E8
:1036400091E089DD9C0121503109273E334080F60D
:103650009195819591099093D4038093D3038AE047
:103660000E9434288BE295E2B3DB8091D3039091E2
:10367000D403BE016F5F7F4F91958195910993C0EF
:1036800060915A0170E04AE082E691E064DD9C01BD
:10369000215031092336310508F0AACF8093D00399
:1036A0008BE00E9434288BE295E292DB8091D0037C
:1036B00018C060915A0170E04AE082E691E04BDD6B
:1036C0009C01215031092336310508F091CF8093B8
:1036D000D6038CE00E9434288BE295E279DB80915E
:1036E000D603BE016F5F7F4F90E0D2DC8AE08B8310
:1036F00063E070E0CE010196A8DB8FCD60915A01A6
:1037000070E04AE082E691E026DD9C01215031091B
:10371000273E334008F06CCF9093DC038093DB03AB
:103720008DE00E9434288BE295E252DBBE016F5F90
:103730007F4F8091DB039091DC0335C060915A018B
:1037400070E04AE082E691E006DD9C0121503109FB
:103750002336310508F04CCF8093CE038EE00E94D3
:1037600034288BE295E234DB8091CE03BACF6091AE
:103770005A0170E04AE082E691E0EDDC9C012150C4
:1037800031092F3F310508F033CF8093D9038FE003
:103790000E9434288BE295E21BDB8091D903BE01A5
:1037A0006F5F7F4F90E074DC8AE08C8364E070E0B0
:1037B000A1CF60915A0170E04AE082E691E0CBDC53
:1037C0009C01215031092031310508F0F5CE80935C
:1037D000D50384E00E9434288BE295E2F9DA8091E7
:1037E000D503BE016F5F7F4F90E052DC8AE08B8390
:1037F00063E070E0CE01019628DB0BCD60915A01A9
:1038000070E04AE082E691E0A6DC019709F0D4CEB0
:103810001092CD0388E00E9434288BE295E2D8DA3A
:103820008091CD0390E0BE016F5F7F4F0196DDCFA9
:1038300010927C010F900F900F900F90DF91CF911D
:103840001F910895362F90E066E070E00E945B3291
:10385000805C9E4FDC01ED91FC91208181E090E045
:1038600001C0880F3A95EAF7822B80830895262FAE
:1038700090E066E070E00E945B32805C9E4FDC016D
:10388000ED91FC918081622F60956823462B4083E7
:103890000895362F90E066E070E00E945B32805C15
:1038A0009E4FDC011296ED91FC911397208181E0EF
:1038B00090E001C0880F3A95EAF7822B8083089543
:1038C000362F90E066E070E00E945B32805C9E4F95
:1038D000DC011296ED91FC911397208181E090E03C
:1038E00001C0880F3A95EAF7809582238083089576
:1038F000262F90E066E070E00E945B32805C9E4F75
:10390000DC011296ED91FC9113978081622F682360
:10391000462B40830895262F90E066E070E00E94D9
:103920005B32805C9E4FDC011496ED91FC91159703
:10393000808182230895E82FE695E695E695F0E0EC
:10394000E75EFD4F982F977021E030E001C0220F15
:103950009A95EAF79081292B208391E09093830236
:103960009091130220E029175CF4E22F022E000C44
:10397000FF0BEA5DFD4F30813817A1F02F5FF3CFC9
:1039800096305CF4E92F092E000CFF0BEA5DFD4F29
:1039900080839F5F90931302089510922C0281E020
:1039A000809387020895E82FE695E695E695F0E086
:1039B000E75EFD4F982F977021E030E001C0220FA5
:1039C0009A95EAF7209590812923208391E090939E
:1039D00083029091130246E252E0FA012E2F241B3B
:1039E000291724F431913813F9CF01C00895E22F3B
:1039F000022E000CFF0BEA5DFD4F818180832F5F5B
:103A00002917ACF3915090931302109287020895F6
:103A1000E82FE695E695E695F0E0E75EFD4F982FF6
:103A2000977021E030E001C0220F9A95EAF790816B
:103A30002927208391E0909383029091130246E21C
:103A400052E0FA012E2F241B291724F43191381348
:103A5000F9CF13C096305CF4E92F092E000CFF0B50
:103A6000EA5DFD4F80839F5F90931302089510924B
:103A70002C0281E0809387020895E22F022E000C31
:103A8000FF0BEA5DFD4F818180832F5F2917ACF327
:103A900091509093130210928702089590917E02A4
:103AA00094305CF4E92F092E000CFF0BEC5EFD4F07
:103AB00080839F5F90937E02089540E060E070E015
:103AC00082E4CEDA10921802089520917E0244E139
:103AD00052E0FA019E2F941B92179CF431913813F7
:103AE000F9CF921751F0E92F092E000CFF0BEC5E75
:103AF000FD4F818180839F5FF4CF915090937E0230
:103B00000895682F70E040E083E4AACA8091CF0353
:103B100080938B020895962F62E10E945232890FA2
:103B200090910E0289130DC08091D3039091D4031C
:103B30008417950734F480918A028F5F80938A02FC
:103B4000089510920E0210928A020895962F6091A5
:103B5000D7037091D8034617570754F441E0F90191
:103B6000408362E10E945232890F80930E020895D1
:103B7000F901108210920E0210928A02089590911B
:103B80006801E92FEE0FFF0BE25DFD4F209110025F
:103B900030E0322F2227282B3183208381E0890FC8
:103BA00080936801883234F0109286028093590124
:103BB00080E1E0C5089590918D02911110C0805D63
:103BC000803168F4E82FF0E0EE0FFF1FEF55FD4E57
:103BD00085919491880F991F8F559D4E86C90895A0
:103BE000CF93DF93C82FD62F80918B02882311F0BB
:103BF0008B5FC0D580E18C0F80938B024FDF80916B
:103C00008B02882311F08B5F95D590918B02809168
:103C1000CF03981711F08FE08DD580918B02909192
:103C20000F02D0FF02C0981308C0981308C08091FB
:103C30008A02811104C08091CF0380930F02DF912B
:103C4000CF910895E82FF0E0E454FE4F849188234B
:103C500011F060E0C5CF08950F931F93CF93DF93CA
:103C600000D01F92CDB7DEB7082F10E1180F80915A
:103C70008B02882341F08B5F2B834A8369837AD53B
:103C800069814A812B81222381F180918B028113EA
:103C90002CC080918A02882319F061FD10930F02D5
:103CA00080911202801321C062FF1FC08FEF840F2A
:103CB000873620F460911002842F16C0842F807EF6
:103CC000803E99F4E42FF0E0EE0FFF1FEF58F74D20
:103CD000849180959091100289238093100281E055
:103CE00080938802649180E0E8D8812FEEDEE09135
:103CF0007E02E11103C080910F0206C00E2E000C5F
:103D0000FF0BED5EFD4F808180938B0280918B02D3
:103D1000882311F08B5F0ED590918B028091CF0399
:103D2000981309C08FE00F900F900F90DF91CF9103
:103D30001F910F911FC50F900F900F90DF91CF91A2
:103D40001F910F910895E82FF0E0E454FE4F849105
:103D5000882321F020E040E060E07ECF08956F707E
:103D6000623051F028F4662339F06130E1F00895B3
:103D7000643011F0683011F5E82FF0E0EE0FFF1F0E
:103D8000EF58F74DE49180911002E82BE093100278
:103D900080918902882319F0E777E093100281E08F
:103DA000809388020895E82FF0E0EE0FFF1FEF5890
:103DB000F74DE49180911002E827E8CF08956F70E5
:103DC000623009F446C020F4662309F436C0089531
:103DD000643019F0683089F10895E82FF0E0EE0FB3
:103DE000FF1FEF58F74DE491E095609110026E23AC
:103DF0006093100291E090938802222309F44AC054
:103E000090911202981346C08FEF840F873610F4FA
:103E1000842F12C0842F807E803E09F03BC0E42FA7
:103E2000F0E0EE0FFF1FEF58F74D84918095682367
:103E300060931002649180E040C8E82FF0E0EE0F3C
:103E4000FF1FEF58F74DE491E09580911002E823B1
:103E50001CC0E82FF0E090911002EE0FFF1FEF580A
:103E6000F74D222379F080918A02882359F08491BA
:103E7000E82FE92BE093100280918902882339F022
:103E8000E77703C0E491E095E923E093100281E035
:103E90008093880208956F70623051F028F4662391
:103EA00039F0613031F00895643011F0683011F468
:103EB00042CDAECD08956F70623049F018F46111B3
:103EC0000DC00BC0643049F0683041F406C02223B5
:103ED00021F090918A02911101C065CD08951F9340
:103EE000CF93DF931F92CDB7DEB7182F862F807F39
:103EF00029F08093570181E080938802103CD0F52F
:103F00001D3B08F0A0C0103BA0F4173908F0B4C066
:103F1000123809F463C030F48CEF810F803708F455
:103F200052C005C1133809F461C0143809F468C0DF
:103F3000FEC0163B09F4B7C088F4113B08F4F7C083
:103F4000EFE4E10FF0E0EE0FFF1FE95DF54DE491C6
:103F500080918402E82BE0938402EFC0183B09F4BF
:103F6000ACC008F4A4C0193B09F0E1C080912D0257
:103F70008F5FA6C01E3C09F473C0A0F4193C09F47D
:103F800055C038F4113C09F443C0183C09F442C050
:103F9000CEC01C3C09F4A6C008F0B8C01A3C09F415
:103FA000CCC0C5C0183E38F4103E08F0BDC01F3C60
:103FB00009F095C059C080E1810F8A3008F0B7C080
:103FC000812F0EDEBAC080918602882321F0812FD6
:103FD0006983D5DD6981812F5EDFAFC080911102D9
:103FE00081FDABC06091100289E307C0809111028E
:103FF00080FDA3C06091100283E50E945D179DC003
:104000008091110282FD99C06091100287E4F5CF82
:104010002AD493C090918D0281E0892780938D02EC
:10402000811102C085E10BC085E167C090918902D2
:1040300081E0892780938902811103C085E09AD3AA
:104040007CC085E05AC081E093E4910F01C0880FE5
:104050009A95EAF780938C0281E0809381026DC08B
:1040600082E080937D0169C080917C01811165C0EF
:1040700081E080937C0161C080917F0290918002F9
:10408000892B69F4E9E6E10FF0E0EE0FFF1FEC5039
:10409000F64D859194919093800280937F0281E008
:1040A000809382024AC0809185028F5F03C0809115
:1040B000850281508093850205C080912D02815038
:1040C00080932D029091CB0380918A02992321F055
:1040D0009091C903981788F58093C9032EC0812F4A
:1040E0006ADD2BC09091860281E089278093860249
:1040F000882329F01092680180E11CD31EC08091B2
:10410000680181118093590180E199CF80918602E5
:10411000811113C060915901062E000C770B8EE2BD
:1041200092E00E94AA1709C0812F19DE06C0612FF4
:1041300070E040E084E40E943018109312020F9067
:10414000DF91CF911F9108950F931F93CF93DF932A
:10415000E82F862F807F29F01092570181E080930D
:104160008802E93B09F4AFC0B0F5E03BA8F4E739B9
:1041700008F088C0E23809F45DC038F48CEF8E0F87
:10418000803708F0B9C08E2F78C0E33809F45AC0E0
:10419000E43809F464C0B0C0E63B09F48AC088F48E
:1041A000E13B08F4A9C0E15BF0E0EE0FFF1FE95D21
:1041B000F54DE491E09580918402E823E093840238
:1041C000A5C0E73B09F479C0E83B09F095C08091B0
:1041D0002D028F5F7BC0022F142FD62FCE2FEA3CEB
:1041E00009F445C098F4E43C68F4E13C08F08EC062
:1041F000CD5BC33008F080C010928C0281E08093C8
:10420000810284C0E83C08F081C076C0E83E38F402
:10421000E03E08F05EC0EC3C08F078C06DC080E184
:104220008E0F8A3008F068C08E2FDF91CF911F91DA
:104230000F9112CD8091110281FF68C06091100230
:1042400089E307C08091110280FF60C06091100275
:1042500083E5DF91CF911F910F910C945D178091B1
:10426000110282FF53C06091100287E4F2CF89E20D
:1042700022DE202F412F6D2F85E3DF91CF911F91FB
:104280000F9119CEE759F0E0EE0FFF1FEC50F64DFD
:104290008591949120917F023091800228173907EF
:1042A00021F41092800210927F0281E080938202BA
:1042B0002DC080918502815003C0809185028F5F5F
:1042C0008093850223C080912D02815080932D021E
:1042D0001DC080918602882331F0809112028E13D6
:1042E00002C080E04CDC202F412F6D2F8C2FDF91FE
:1042F000CF911F910F9163CD6E2F70E040E085E468
:10430000DF91CF911F910F910C943018DF91CF91D5
:104310001F910F91089520911002227291E009F0EF
:1043200090E02091DE03222359F0992349F0209157
:10433000110220FF05C022EE280F2A3008F4855C08
:104340002091D203222321F1833571F4909111023F
:1043500081E089278093110280FF03C080E0EAD1C9
:104360001FC080E007D21CC027EA280F2B3080F442
:1043700020911102E82FF0E0EE0FFF1F20FF05C093
:10438000992319F0E45DF64D02C0E35DF64D84918A
:104390008A3C39F4911102C085E3089589E20895B9
:1043A00080E008958F929F92AF92BF92CF92DF925A
:1043B000EF92FF920F931F93CF93DF93B82EA62E09
:1043C0007A01C82ED12C062F10E080918B0290E04C
:1043D00060E970E00E945B32FC01C60162E170E0BE
:1043E0000E945B32EC01E80FF91FE00FF11FEF5F55
:1043F000F24F849190DF882E40918B02242F30E081
:10440000C90160E970E00E945B328C0F9D1FF801CA
:10441000E80FF91FEF59F84F9490C90160E970E077
:104420000E945B328C0F9D1FF801E80FF91FEF53BC
:10443000FE4FC491C60162E170E00E945B32800FC2
:10444000911FFC01E258FE4F4083A7016A2D8B2D7E
:1044500062DB4C2F692D882D42DDDF91CF911F91BA
:104460000F91FF90EF90DF90CF90BF90AF909F9013
:104470008F900C94772B8F929F92AF92BF92CF9296
:10448000DF92EF92FF920F931F93CF93DF931F92D0
:10449000CDB7DEB7982E862EDA01C82ED12C062F86
:1044A00010E0C60162E170E00E945B329C01FC01F9
:1044B000E00FF11FE258FE4FA080B12CC50160E96A
:1044C00070E00E945B32820F931F800F911FFC01EE
:1044D000EF5FF24FE490FC01EF59F84FF490C50103
:1044E00060E970E00E945B32820F931FF801E80FD1
:1044F000F91FEF53FE4FB4909E012F5F3F4FAD0168
:10450000682D892D23DB29814B2D6F2D8E2D1CDEEF
:10451000C60162E170E00E945B32800F911FFC01D6
:10452000E258FE4F10820F90DF91CF911F910F91B3
:10453000FF90EF90DF90CF90BF90AF909F908F90C3
:104540000895E62FF0E090E062E170E00E945B32B7
:104550009C01DC01AE0FBF1FA258BE4F8C9190E0B2
:1045600060E970E00E945B32820F931F9F01280F69
:10457000391FF901EF5FF24F8491F901EF59F84FBC
:10458000249123FF1FC09FEF980F973618F4609176
:10459000100216C0982F907E903EA1F4E82FF0E014
:1045A000EE0FFF1FEF58F74D849180959091100208
:1045B00089238093100281E080938802649180E0D7
:1045C0000C945D170895FC0180918D0281111DC02E
:1045D00080918702882339F081E080838183828300
:1045E0008383848311C08091260280838091270277
:1045F0008183809128028283809129028383809124
:104600002A02848380912B028583089520918D0254
:10461000211109C0DC01E9E1F2E08DE08E0F9191FA
:104620009D938E13FCCF0895FC0180918D02811122
:1046300006C08091570190911002982B90830895A5
:10464000262F90E062E170E00E945B32820F911DA4
:10465000FC01EF5FF24FE491E83211F0E83539F4F4
:1046600041E060E070E081E50E9430185DC408958B
:10467000462FA82FB0E0CD0163E070E00E945B32CE
:104680009C01FC01E153FD4D8491F9013196E35306
:10469000FD4D481761F02491CD0163E070E00E9468
:1046A0005B3283539D4DFC018491622FF2C82491AB
:1046B000CD0163E070E00E945B3283539D4DFC01AD
:1046C0008491622FFDC80F931F93CF93DF93EEEF7A
:1046D000F2E2D4910DEC12E2C0E0CD1769F0F801DE
:1046E00031966491F8018491ADD860E08C2FC0DFE1
:1046F000CF5F0D5F1F4FF1CF8091D503809399025B
:10470000DF91CF911F910F91089580919602893F7B
:1047100069F480919B028F3E19F410929B0203C0B2
:104720008F5F80939B021092960208958F5F809313
:104730009602089590E0880F991FFC01EF55FD4DFA
:10474000A491FC01EE55FD4D8491EDEFF2E2E49170
:10475000AE1778F4B0E0A257BD4F811103C08C9121
:10476000816006C09C919170E82FEE0F892F8E0F0B
:104770008C93089590E0880F991FFC01EF55FD4D33
:10478000A491FC01EE55FD4D8491EDEFF2E2E49130
:10479000AE1780F4B0E0A257BD4F811104C08C91D8
:1047A0008E7F8C9308959C91292F2695281302C003
:1047B00091709C930895823049F0833079F0813074
:1047C000A1F481E1B7DF82E1D5DF0CC081E1D2DF66
:1047D00082E1D0DF83E1AEDF84E1CCCF81E1CADFCB
:1047E00082E1A8DF83E1C6DFF7CF81E1C3DF82E1A9
:1047F000C1DF83E1BFDF84E19DCF0F931F93CF9390
:10480000EDEFF2E2E491C0E00E2F10E08C2F0C2EC1
:10481000000C990B8017910714F520919702222321
:10482000C9F0FC01E257FD4F2081223018F421111C
:104830000FC010C0E22FE695F0E0E05CF54D64910A
:1048400080919B020E946C32921720F490FF02C06C
:1048500061E001C060E08C2F0BDFCF5FD7CFCF913D
:104860001F910F91089580919902803110F081E09D
:1048700002C08C5F8C7F80939902089580919A0288
:104880008F5F813118F480939A02089581E08093BC
:104890009A0210929802089580919902803120F036
:1048A00081E08093970208959091980260919A0216
:1048B0000E945232981738F481E080939702905FFB
:1048C000909398020895109297020895D7DFE4DF3D
:1048D0001CDF93CF1F920F920FB60F9211240F90EF
:1048E0000FBE0F901F90189590E080E80FB6F894D7
:1048F00080936100909361000FBE0895F5CF8DEA1B
:104900009EED9093F0038093EF03089584E089BDBA
:1049100086E089BD09B400FEFDCF8091D8008F7D6F
:104920008093D8008091E00082608093E0008091C5
:10493000E00081FDFCCF0895DF92EF92FF920F938C
:104940001F93CF93DF93D82EA62FB42FE62EF12CF2
:10495000C42FD0E0C70162E170E00E945B328C0F8F
:104960009D1F8C01000F111F0B551D4FF801208159
:104970003181DD2009F440C037FF1EC0E091DF0324
:10498000F0E0F195E195F109E217F30714F4E8017D
:1049900074C0A9016B2F8A2F05DDC70162E170E0A9
:1049A0000E945B328C0F9D1FEC01CC0FDD1FCB559D
:1049B000DD4F84E090E04BC08091DB039091DC03FD
:1049C0002817390714F1642F8A2FBBDDC70162E174
:1049D00070E00E945B328C0F9D1FEC01CC0FDD1F3D
:1049E000CB55DD4F2091CE0388819981821B91099F
:1049F000F8019183808346C0121613065CF58091FE
:104A0000DF0390E02817390784F4C70162E170E002
:104A10000E945B328C0F9D1FEC01CC0FDD1FCB552C
:104A2000DD4FA9014C5F5F4F2BC0A9016B2F8A2F6F
:104A300022DDC70162E170E00E945B328C0F9D1F96
:104A4000EC01CC0FDD1FCB55DD4F8CEF9FEF998331
:104A5000888318C08091D3039091D4038217930761
:104A60008CF4C70162E170E00E945B328C0F9D1FE5
:104A7000EC01CC0FDD1FCB55DD4FA901445051098E
:104A800059834883DF91CF911F910F91FF90EF9051
:104A9000DF9008950F931F93CF93DF93082F262F56
:104AA000342F862F90E062E170E00E945B32840F29
:104AB000911DEC01CC0FDD1FCB55DD4F598101114C
:104AC00010C057FD29C08881952F93702091D30382
:104AD0003091D4038217930708F40496998388834E
:104AE0003DC057FF19C00881152F13708091DB035B
:104AF0009091DC030817190740F0642F822F21DD05
:104B00008091CE03081B110902C00C5F1F4F19834F
:104B100008838981806819C0152F169516951F7115
:104B20001C5F8091DF03181790F048815370632F4A
:104B3000822F002311F036DC01C09DDC212F30E0F4
:104B400039832883898100FB87F9898307C01F7116
:104B5000110F110F5378252F212B2983DF91CF912E
:104B60001F910F910895CF92DF92EF92FF921F93C2
:104B7000CF93DF93E2E6F3E2E491E0939C02E1E677
:104B8000F3E2E491E093A002E0E6F3E2E491E09343
:104B9000A302EFE5F3E2E491E093A40289E5E82EB5
:104BA00083E2F82E9DE9C92E92E0D92ED0E0F701DC
:104BB00014918091A00281111FEFF7013196C491E9
:104BC0004C2F612F8D2F0E94371C2C2F2095F60122
:104BD00021936F01422F41238091A002642F6095A1
:104BE000811101C040E08D2F0E94781CDF5FF2E050
:104BF000EF0EF11CD330D9F68091CC03882371F0ED
:104C00008AE495E29093A2028093A1028091DF034F
:104C1000813250F080E28093DF0306C08CE994E299
:104C20009093A2028093A102DF91CF911F91FF90F8
:104C3000EF90DF90CF900895CF92DF92EF92FF92A6
:104C40001F93CF93DF9310E0812F012E000C990B5F
:104C50002091A30230E0821793070CF054C02DE995
:104C6000E22E22E0F22E63E070E00E945B326C01E3
:104C7000C0E0D0E0FE01EC0DFD1DED5DFC4D44916A
:104C8000F70161917F018C2F0E94781C2196C3301F
:104C9000D10581F78091D9038A95F1F7C0E02C2FD7
:104CA0000C2E000C330B8091A40290E028173907DA
:104CB00044F58091A002220F331FF901E050FD4D11
:104CC000882351F06491F901E150FD4D84910E94D7
:104CD0008B1C882351F013C06491F901E150FD4D04
:104CE00084910E948B1C882351F080919C02882320
:104CF00019F0612F8C2F02C06C2F812FA1DCCF5FA8
:104D0000CECF1F5FA1CFDF91CF911F91FF90EF908A
:104D1000DF90CF900895CF92DF92EF92FF920F93A2
:104D20001F93CF93DF93D62FC82FCD170CF063C0FE
:104D30008DE9E82E82E0F82E8C2F0C2E000C990BBA
:104D400063E070E00E945B326C0100E010E0F7016C
:104D500061917F016F3F49F0F801EC0DFD1DED5DA4
:104D6000FC4D4491802F0E94781C0F5F1F4F033031
:104D7000110569F78091D9038A95F1F710E0212F89
:104D8000012E000C330B8091A40290E02817390704
:104D900084F58091A002220F331FF901E050FD4DF0
:104DA000882359F06491F901E150FD4D84910E94EE
:104DB0008B1C91E0882361F00AC06491F901E150F5
:104DC000FD4D84910E948B1C91E0811101C090E007
:104DD00080919C02E091A102F091A202882319F037
:104DE0004C2F612F02C0412F6C2F892F09951F5F17
:104DF000C6CFCF5F9ACFDF91CF911F910F91FF90D8
:104E0000EF90DF90CF9008956091A302669566952C
:104E100080E081CF8091A302682F70E0759567953F
:104E20008695869578CF2091A30230E0C90163E092
:104E300070E00E945B32959587959595879535959D
:104E40002795682F822F67CF2091A302822F90E0B1
:104E500063E070E00E945B32959587959595879504
:104E6000622F59CF81E08093C80308952091C80331
:104E7000622F70E00E945B326AE070E00E9478323C
:104E80008091C703962F981B892F6093C7032F5FCC
:104E90002093C8032B3028F01092C70391E0909321
:104EA000C8030895CF9380918502811104C0809139
:104EB0002D02882329F1C1E0C093CB038091CA035E
:104EC000811130C02091D0038091C9036091D60335
:104ED00070E090E00E945B32820F911DC7DF982F37
:104EE000609185020E9452328093C60360912D0228
:104EF000892F0E9452328093C503C093CA0312C007
:104F00008091CB03882319F081E08093CA0310922B
:104F1000CB031092C7031092C6031092C5038AE018
:104F20008093C803CF910895CF93DF93CDB7DEB7B9
:104F300064970FB6F894DEBF0FBECDBF80E28093BA
:104F4000D1031092DA031092DE031092CF0340E1F6
:104F50004093D5031092DD033CE03093DF031092C1
:104F6000D2031092CD0360EF70E07093D80360938A
:104F7000D70368E87FEF7093D4036093D30395E081
:104F80009093D0032FE02093D60360E273E07093F8
:104F9000DC036093DB038093CE039093D9031092DC
:104FA000CC0389831A821B821C824D831E823F831D
:104FB0001886198630EF3A871B8638E83C873FEF22
:104FC0003D879E872F87888B23E0298B8A8B9B8B3D
:104FD0001C8A44E150E060E070E0CE0101960E943E
:104FE000BC3264960FB6F894DEBF0FBECDBFDF9122
:104FF000CF9108950F931F93CF93DF93CDE4DAE21F
:10500000FE01329684913196E49190E0E23059F4B9
:10501000FE0105911491805090400E94B732F80132
:105020009183808309C0FE010591149180509040C6
:105030000E94AF32F80180832496FAE2C139DF077B
:10504000F9F66091D103603251F070E041E080E503
:105050000E943018DF91CF911F910F9165CFDF91A2
:10506000CF911F910F91089590E0880F991F880F9D
:10507000991FFC01E15BF54D2491FC01E05BF54DCE
:105080003491FC01E35BF54D822F90E0323041F426
:10509000A591B4916D917C91805090400C94D33245
:1050A000A591B4916C91805090400C94C53213BC82
:1050B000109280001092820080E89EE39093890015
:1050C0008093880008951092E003789410928500F0
:1050D0001092840081E08093810082E080936F00D1
:1050E0009AE088E10FB6F894A895809360000FBE0F
:1050F00090936000E0E6F0E08081806C808308950A
:105100000FB6F894A8958091600088618093600044
:10511000109260000FBEE0E6F0E080818F7B80831C
:1051200010926F001092810008951092E203809116
:10513000E2038430D8F4E091E0038091E203F0E0F0
:10514000EE0FFF1FEE0FFF1FE80FF11DEE0FFF1F09
:10515000ED59FC4D85919491009711F0FC01099552
:105160008091E2038F5F8093E203E1CF0895109274
:105170008500109284008091E103882381F0809162
:10518000E0036091E20370E0782B40E081E10E944F
:1051900030188091E1038F5F8093E103089581E0EF
:1051A0008093E1037894C1DF8091E0038F5F809367
:1051B000E003843010F01092E0038091E10382302C
:1051C00038F06091E10370E040E084E10E94301823
:1051D000A8951092E10308951F920F920FB60F92B7
:1051E00011242F933F934F935F936F937F938F93EC
:1051F0009F93AF93BF93EF93FF93B9DFFF91EF912D
:10520000BF91AF919F918F917F916F915F914F91DE
:105210003F912F910F900FBE0F901F901895DA01BC
:10522000292F332723303105D9F074F4213031058B
:1052300091F02230310509F04FC0E3EEFAE285919A
:10524000949121EE3AE24CC021323105B9F022327C
:10525000310501F141C082E190E02EE43BE240C023
:105260009927009729F00197B9F5E1E9FAE202C020
:10527000EDEDFAE2849190E09F0132C0CB019927D5
:1052800061EE70E00E945B329C012D50354D89E04B
:1052900090E026C0662389F080911001681791F094
:1052A00080910001681799F080912001681314C063
:1052B0008AE390E022E93BE213C080E490E023EE31
:1052C0003BE20EC082E390E020E63BE209C087E1CA
:1052D00090E02CEC3BE204C080E090E020E030E085
:1052E0002D933C93089581E066CA0895CF9380E39F
:1052F00091E0BCD7C82F80911001882321F080E174
:1053000091E0B4D7C82380910001882321F080E088
:1053100091E0ACD7C82380912001882321F080E25E
:1053200091E0A4D7C823CC2311F080E001C083E032
:1053300042DA8091E20084608093E200CF91089588
:1053400080E391E05BD680911001882319F080E121
:1053500091E054D680910001882319F080E091E01B
:105360004DD680912001882319F080E291E046C655
:10537000089580913E0190913F01009729F0019797
:1053800090933F0180933E0180911001882359F052
:1053900080911E0190911F01009729F00197909331
:1053A0001F0180931E0180910001882359F0809194
:1053B0000E0190910F01009729F0019790930F0132
:1053C00080930E0180912001882359F080912E0155
:1053D00090912F01009729F0019790932F018093CE
:1053E0002E01089580E0E7C90F931F93CF93DF93B9
:1053F000DC01FB01E9019C9120910001911132C077
:10540000222381F020915501220F8091DD0381112B
:1054100004C019969C91892F02C080E090E0820F11
:1054200080935501CE0100D988E090E0D8018D939A
:105430009C938091550180FD0AC0CE010296C3D88D
:1054400080918302882329F01092830208C081FF93
:10545000FBCF80918802811102C080E065C010926C
:10546000880261C0921315C08DE090E0F80191832D
:1054700080838091550180FF09C0CE01C7D88091FB
:105480008302882351F3109283024DC081FDFBCF2C
:10549000E4CF80912001981315C080918402888305
:1054A0008091C60389838091C5038A8383E090E05D
:1054B000D8018D939C938091CA03882371F2109236
:1054C000CA0331C081E090E02081233011F080E0F8
:1054D00090E020918102822B892B91F080918C02A7
:1054E000888381E090E0D8018D939C9383E0808352
:1054F00080918102882309F4B0CF1092810213C0F9
:1055000080917F02909180029983888382E090E06D
:10551000D8018D939C93808380918202882309F423
:105520009CCF1092820281E0DF91CF911F910F9169
:105530000895CF938053914009F075C0F90180819F
:1055400080931102C0915401C82780935401CC2349
:1055500009F469C09091D20391110FC0C0FF0DC032
:1055600080FF06C080E0E6D880E00E94221E05C0D1
:1055700080E000D980E00E94A31EC1FF0FC080918F
:10558000110281FF06C081E0D5D881E00E94221E71
:1055900005C081E0EFD881E00E94A31EC2FF20C0B9
:1055A0008091110282FF0FC082E0C4D882E00E9485
:1055B000221E8091DA03882399F081E0809389028A
:1055C00085E0B8D80DC082E0D5D882E00E94A31E45
:1055D0008091DA03882321F01092890285E0CAD8ED
:1055E000C3FF0FC08091110283FF06C083E0A2D8E1
:1055F00083E00E94221E05C083E0BCD883E00E94A5
:10560000A31EC4FF10C08091110284FF06C084E075
:1056100091D884E0CF910C94221E84E0ABD884E032
:10562000CF910C94A31ECF910895E3E2FCE2E491A4
:10563000E1FF08C081E08093100182E880931101AE
:1056400081E001C080E0E2FF09C091E0980F9093F3
:1056500000018E5F806880930101892FE3FF08C0FD
:1056600091E0980F909320018E5F806880932101D4
:10567000089580E391E00DD6A7D48091E603909140
:105680005301981759F06091E60370E041E086EA13
:105690000E9430188091E603809353010895809111
:1056A0001001882319F080E191E0F3D58091000189
:1056B000882319F080E091E0ECD5809120018823C7
:1056C00019F080E291E0E5D57FD48091E6039091D6
:1056D0005201981759F06091E60370E041E086EAC4
:1056E0000E9430188091E6038093520108958091C2
:1056F000E403882329F08091E603853009F406C984
:105700000895CF92DF92EF92FF920F931F93CF9362
:10571000DF93EC018B017A01D5D1811133C0E11403
:10572000F10439F0F70180819181081B190BC80F32
:10573000D91FC12CD12C0115110519F18091E80058
:1057400085FD16C08091E8008E778093E8003CD4F8
:10575000E114F10449F0F70180819181C80ED91E4E
:10576000D182C08285E00EC0ADD1882321F30AC06A
:1057700089918093F10001501109FFEFCF1ADF0AE0
:10578000DACF80E0DF91CF911F910F91FF90EF90E2
:10579000DF90CF9008952091ED033091EE0326170E
:1057A000370748F06115710539F42091E8002E772C
:1057B0002093E80001C0B90140E06115710591F145
:1057C0002091E603222309F440C0253009F43FC0AC
:1057D0002091E80023FD3DC02091E80022FD2FC06C
:1057E0002091E80020FFE9CF2091F20030E0FC0199
:1057F000CF016115710559F02830310540F48191D0
:105800008093F100615071092F5F3F4FF1CF41E06C
:105810002830310509F040E02091E8002E772093F0
:10582000E800CBCF4111CCCF0AC08091E60388239A
:1058300061F0853061F08091E80083FD0AC08091BD
:10584000E80082FFF2CF80E0089582E0089583E0CF
:10585000089581E008956115710529F42091E8000B
:105860002B772093E800FC016115710521F18091EF
:10587000E603882341F1853041F18091E80083FD02
:1058800020C08091E80082FFEFCF8091F200882352
:1058900031F08091F100819361507109B1F78091ED
:1058A000E8008B778093E800DFCF8091E6038823C0
:1058B00051F0853051F08091E80080FFF6CF80E014
:1058C000089581E0089582E0089583E0089520918D
:1058D000ED033091EE032617370748F06115710587
:1058E00039F42091E8002E772093E80001C0B90137
:1058F000FC0120E06115710579F18091E6038823B0
:1059000009F43DC0853009F43CC08091E80083FD76
:105910003AC08091E80082FD2CC08091E80080FFB1
:10592000E9CF8091F20090E06115710559F088305F
:10593000910540F424912093F10031966150710952
:105940000196F2CF21E0089709F020E08091E8006D
:105950008E778093E800CECF2111CFCF0AC08091FF
:10596000E603882361F0853061F08091E80083FDD3
:105970000AC08091E80082FFF2CF80E0089582E0C3
:10598000089583E0089581E00895982F953058F5A3
:105990009093E900981739F07091EC002091ED0098
:1059A0005091F00003C0242F762F50E021FF19C042
:1059B0003091EB003E7F3093EB003091ED003D7F66
:1059C0003093ED003091EB0031603093EB00709339
:1059D000EC002093ED005093F0002091EE0027FFA3
:1059E00007C09F5FD3CF8F708093E90081E0089557
:1059F00080E00895EF92FF920F931F93CF93DF9370
:105A0000E62EEC018C010C5F1F4FF12CFE1499F176
:105A10009881992359F1F801208169817A81319720
:105A20003081892F8F70853010F080E025C02230C2
:105A300010F442E001C046E0E8E0F0E020E0E617C4
:105A4000F70720F42F5FEE0FFF1FF9CF2295207F7D
:105A5000422B232F2295220F220F207C991F99275A
:105A6000991F622F692B91DF8823F9F2F394259611
:105A70000B5F1F4FCBCF81E0DF91CF911F910F9133
:105A8000FF90EF9008958091E70387FF11C0809108
:105A9000E80082FD05C08091E6038111F8CF11C0B6
:105AA0008091E8008B770BC08091E603882349F052
:105AB0008091E80080FFF8CF8091E8008E77809396
:105AC000E80008952091E4003091E50095E64091CA
:105AD000EC00842F817040FF22C08091E80080FD9F
:105AE0001CC08091E603882391F0853091F080916D
:105AF000EB0085FD10C04091E4005091E500421795
:105B0000530729F39A01915011F784E0089582E038
:105B1000089583E0089581E0089580E0089540911C
:105B2000E80042FFDECF089554D056D0E0EEF0E01A
:105B3000808181608083E8EDF0E080818F778083D1
:105B400019BCE3E6F0E08081816080831092E50378
:105B500008953FD041D08091D8008F778093D800AE
:105B60008091D80080688093D8008091D8008F7D84
:105B70008093D80084E089BD86E089BD09B400FE29
:105B8000FDCF1092E6031092E3031092E40342E08B
:105B900060E080E0FADE8091E1008E7F8093E1009A
:105BA0008091E20081608093E2008091E200886051
:105BB0008093E2008091E0008E7F8093E000089562
:105BC000E3E6F0E080818E7F808381E08093E503CF
:105BD000C0CF1092E20008951092E10008951F9244
:105BE0000F920FB60F9211242F933F934F935F9311
:105BF0006F937F938F939F93AF93BF93EF93FF9395
:105C00008091E10082FF0AC08091E20082FF06C01D
:105C10008091E1008B7F8093E100ABDB8091E1001C
:105C200080FF17C08091E20080FF13C08091E200E6
:105C30008E7F8093E2008091E20080618093E20099
:105C40008091D80080628093D80019BC1092E6033E
:105C50004CDB8091E10084FF2FC08091E20084FF43
:105C60002BC084E089BD86E089BD09B400FEFDCF6C
:105C70008091D8008F7D8093D8008091E1008F7E45
:105C80008093E1008091E2008F7E8093E20080911A
:105C9000E20081608093E2008091E303882311F0A9
:105CA00084E007C08091E30087FD02C081E001C06D
:105CB00083E08093E60317DB8091E10083FF22C03D
:105CC0008091E20083FF1EC08091E100877F809376
:105CD000E10082E08093E6031092E3038091E1000B
:105CE0008E7F8093E1008091E2008E7F8093E200BE
:105CF0008091E20080618093E20042E060E080E019
:105D000044DE70DBFF91EF91BF91AF919F918F9136
:105D10007F916F915F914F913F912F910F900FBEA7
:105D20000F901F9018951F93CF93DF93CDB7DEB7D9
:105D3000AA970FB6F894DEBF0FBECDBFE7EEF3E033
:105D400088E08E0F9091F10091938E13FBCFF8DADB
:105D50008091E80083FF20C18091E7039091E803E0
:105D6000492F50E04A30510508F016C1FA01EC5AAB
:105D7000FF4FD2C3803821F0823809F00DC106C030
:105D80008091E403882391F082E011C08091EB03BD
:105D90008F70853008F000C18093E9008091EB009E
:105DA00085FB882780F91092E90001C080E090917E
:105DB000E800977F9093E8008093F1001092F10043
:105DC000CBC0282F2D7F09F0E7C0882319F082303F
:105DD00061F0E2C08091E903813009F0DDC09330C9
:105DE00009F080E08093E4032EC08091E9038111E3
:105DF0002AC08091EB038F702FEF280F243008F01A
:105E0000CBC08093E9002091EB0020FF1CC09330B1
:105E100021F48091EB00806214C09091EB009061BE
:105E20009093EB0021E030E0A90102C0440F551F20
:105E30008A95E2F74093EA001092EA008091EB0025
:105E400088608093EB001092E9008091E800877FE2
:105E50008093E80018DEA0C081119EC01091E90374
:105E60001F778091E3008078812B8093E3008091FD
:105E7000E800877F8093E80006DE8091E80080FFDD
:105E8000FCCF8091E30080688093E300111102C091
:105E900082E001C083E08093E6037EC080588230B8
:105EA00008F07AC08091E9039091EA038C3D53E0B9
:105EB000950771F583E08A838AE289834FB7F89466
:105EC000DE01139620E03EE051E2E32FF0E0509334
:105ED0005700E49120FF03C0E295EF703F5FEF7041
:105EE0008E2F90E0EA3010F0C79601C0C0968D93D7
:105EF0009D932F5F243149F74FBF8091E800877F42
:105F00008093E8006AE270E0CE01019644DC13C0A1
:105F10006091EB037091EC03AE014F5F5F4F7FD94F
:105F2000BC01892BC9F19091E800977F9093E8001C
:105F300089819A81CCDC8091E8008B778093E8009E
:105F40002BC0803849F58091E800877F8093E80076
:105F50008091E3038093F1008091E8008E7778CF01
:105F600081111AC09091E9039230B0F48091E80059
:105F7000877F8093E8009093E30385DD8091E303BE
:105F8000811106C08091E30087FD02C081E001C05D
:105F900084E08093E603AAD98091E80083FF0AC0D9
:105FA0008091E800877F8093E8008091EB00806219
:105FB0008093EB00AA960FB6F894DEBF0FBECDBF5C
:105FC000DF91CF911F910895CF938091E6038823AD
:105FD00099F0C091E900CF709091EC00892F817009
:105FE00090FD80E8C82B1092E9008091E80083FDC5
:105FF0009ADECF70C093E900CF9108956F927F929F
:106000008F929F92AF92BF92CF92DF92EF92FF92C8
:106010000F931F93CF93DF9300D01F92CDB7DEB7BE
:106020007C01CDB6DEB68091E80083FF08C1F701A0
:10603000808190E02091EB033091EC032817390721
:1060400009F0FDC08091E803833009F49FC030F46B
:10605000813071F0823009F4D6C0F1C08A3009F481
:10606000BAC08B3009F4A3C0893009F0E8C051C030
:106070008091E703813A09F0E2C08DB69EB61A829C
:1060800019828091E9031091EA038B83F7018085DF
:10609000482F50E08DB79EB7841B950B0FB6F89430
:1060A0009EBF0FBE8DBFEDB7FEB731965F0160E0BA
:1060B00070E0CF014DD24FEF410F8E010F5F1F4FA8
:1060C0009501BE016D5F7F4FC7018ED9F7018681B3
:1060D0009781009721F0408550E0B50130D21092B1
:1060E000E9008091E800877F8093E8008B8181112F
:1060F0008093F10069817A81C5014DDB8091E800D0
:106100008B778093E8000FB6F8949EBE0FBE8DBECD
:1061100096C08091E703813209F091C0ADB6BEB65A
:106120000091ED031091EE037090E9036090EA0393
:106130008DB79EB7801B910B0FB6F8949EBF0FBE14
:106140008DBFEDB7FEB731964F018091E800877F94
:106150008093E800B801CF017EDB8091E8008E7764
:106160008093E80021E0711001C020E030E0021BC4
:10617000130B280D391D4FEF460D672DC701D9D9D7
:106180000FB6F894BEBE0FBEADBE59C08091E703F6
:10619000813A09F054C08091E800877F8093E8003D
:1061A0008091E80080FFFCCFF701818540C080919D
:1061B000E703813209F043C08091E800877F809334
:1061C000E80061DC9091E90381E0911101C080E079
:1061D000F701818734C08091E703813281F5809196
:1061E000E800877F8093E8004EDC8091E90390917E
:1061F000EA03882736E0969587953A95E1F7F70107
:10620000958784871CC08091E703813AC1F480910F
:10621000E800877F8093E8008091E80080FFFCCF52
:10622000F7018485958596958795969587958093B2
:10623000F1008091E8008E778093E80024DC0FB6AF
:10624000F894DEBE0FBECDBE0F900F900F90DF9181
:10625000CF911F910F91FF90EF90DF90CF90BF9063
:10626000AF909F908F907F906F900895FC0139962A
:1062700027E0DF011D922A95E9F721E0FC01218743
:1062800024EF31E03587248723E0248361E0019601
:10629000B1CB4F925F926F927F928F929F92AF920B
:1062A000BF92CF92DF92EF92FF920F931F93CF9303
:1062B000DF9300D01F92CDB7DEB77C01ADB6BEB67E
:1062C0008091E603843009F08DC08091E4009091C4
:1062D000E500F701228533852817390709F482C0C4
:1062E00081818F708093E9008091E80085FF7AC0FA
:1062F0008DB69EB6408550E08DB79EB7841B950B3A
:106300000FB6F8949EBF0FBE8DBFEDB7FEB73196A6
:106310006F011B821A82198260E070E0CF0118D1F0
:106320008E010F5F1F4F960140E0BE016D5F7F4FF2
:10633000C7015AD8482EF70184859585892B51F0DD
:1063400091E080E026853785232B09F090E0092F26
:10635000182F02C000E010E0F7016680778061141A
:10636000710489F049815A81B301C601DBD05524FB
:106370005394892B09F4512CF701408550E0B60164
:10638000C301DDD001C0512C89819A81892BF1F0A4
:10639000411004C0511002C0012BC1F0F7018485E7
:1063A00095859787868781818F708093E9008B819F
:1063B00081118093F10069817A8140E050E0C6014B
:1063C000A0D98091E8008E778093E8008091E40066
:1063D0009091E500F701938782870FB6F8949EBEEF
:1063E0000FBE8DBE0FB6F894BEBE0FBEADBE0F90F1
:1063F0000F900F90DF91CF911F910F91FF90EF9031
:10640000DF90CF90BF90AF909F908F907F906F90D4
:106410005F904F90089508950E947E240E942F1847
:106420000E94FA270E94B3250E9463230E94861DC2
:106430000E9432270E9451160E945728F6D80E94C7
:106440001C26BECB0E94632880917D018823E1F346
:106450000C94802869DBF8942FEF87EA91E62150AD
:1064600080409040E1F700C0000080917D018230C3
:1064700011F40E947F2480917D01882359F09CE0D3
:1064800088E10FB6F894A895809360000FBE9093B2
:106490006000FFCF0895BFDFBFDFD4DFDBDF80E028
:1064A00090E00895002480FD060E660F11F0869599
:1064B000D1F7802D08950024552704C0080E591FD8
:1064C000880F991F009729F076956795B8F37105A5
:1064D000B9F7802D952F0895991B79E004C0991F75
:1064E000961708F0961B881F7A95C9F7809508952E
:1064F000AA1BBB1B51E107C0AA1FBB1FA617B707EA
:1065000010F0A61BB70B881F991F5A95A9F7809505
:106510009095BC01CD010895EE0FFF1F0590F491F9
:10652000E02D0994FB01DC0104C08D9101908019DC
:1065300021F441505040C8F7881B990B0895FB0186
:10654000DC0102C001900D9241505040D8F70895EF
:10655000DC0101C06D9341505040E0F70895F99976
:10656000FECF92BD81BDF89A992780B50895A8E124
:10657000B0E042E050E01CC0DC01CB0102C02D9134
:1065800005D041505040D8F70895262FF999FECFF5
:106590001FBA92BD81BD20BD0FB6F894FA9AF99A40
:1065A0000FBE01960895F1DF272FF0CFDC01CB015C
:1065B000FC01F999FECF06C0F2BDE1BDF89A319613
:1065C00000B40D9241505040B8F70895F894FFCFB1
:1065D00000830D00000100000D000000000000001D
:1065E0000082030000010000020000000000000023
:1065F0000084030000010000030000000000000010
:1066000000810800000100000800000000000000F8
:106610002400250023002700280026002A002B0044
:0266200029004F
:00000001FF
